:020000040000fa
:080000000002040000000000f2
:020000040000fa
:10040000cfc82100007f220000018800000000000a
:100410000a00070011000700000020000000e000b3
:1004200002003200000002000000000062700200c2
:10043000000000000040da000000fe004440a90077
:10044000009120000000e0000300320000002000c6
:10045000a00188004440a8000000060080bc2700de
:10046000010020001500370062004000e0804800d5
:10047000910188009001ba0062004000e0804800cd
:10048000910188009002ba0062004000e0804800bc
:100490000002eb006028e10004003a000059eb0084
:1004a0008301e900fdff3e00040037006128e10000
:1004b000010032000082eb00050007009101880076
:1004c0001001ba000200e000e7ff3a00000005005a
:1004d000910188008002780062004000e0804800be
:1004e0003559ba008301e900080032002559ba00e5
:1004f0008301e900050032000400e000f4ff32004f
:1005000015d9ba008301e900f1ff3a0000000600a6
:10051000889fbe00e30440000900a100808f5400c2
:100520004a003600e38f540001003e0049002000dd
:10053000726480000200e000020032008200780055
:100540000c00370001c9200003003700908f5400d1
:10055000230036008080e800110078000000e000f1
:10056000faff3a000f003700908f54001c0036004d
:100570008080e800110078000000e000faff3a00f7
:100580001201780001c9200003003700908f540049
:10059000130036008080e80011007800820f5000c0
:1005a000faff3a0068648000890f540001003100ae
:1005b0000904780008007800700007000000e000df
:1005c00004003a00890f5400200032000804d100d2
:1005d000f5ff3700081878001f000700d4ff370028
:1005e000110178009201780064805100890f500059
:1005f00003003100120090008008780007003700e7
:1006000009004100800878009201900013009800d2
:100610001100780012881400090978009100780010
:100620000100e00005003200110090000000e00031
:10063000020032000180e800010037000000eb00fa
:10064000706488000280e800010037000000eb00c1
:100650004f04be00000006000000e0003100320040
:100660008080e90091027800e38f52002d0036006f
:100670000508a3002b003a00826480000200e0001d
:1006800002003200828f500004003100020878001e
:100690008164880016003700030178009201900001
:1006a0000300e00002003200818f5100faff3900a0
:1006b0001202780004004100808f500019003900b8
:1006c000810f500003003a000509420082007800c3
:1006d000070037000300e0000300320005804000ff
:1006e000808f51000f00390093009800110198008d
:1006f000110190000200e0000a0032001180400069
:10070000820f500007003a00e0c820000008eb000c
:100710001100900011017800900841001000900035
:1007200090009800000006008001eb0008003700f0
:10073000e342780063c278008301e80084cf52006e
:10074000030032000080eb000400390010000500b7
:10075000828f5100f6ff3a000000eb000000060017
:100760008001eb000200370061f079008301e800ae
:10077000828f5100fcff3a00000006000000e000fc
:100780000300340004000700e10f400001003a00bc
:100790000000eb0000000600889fbe008004780087
:1007a0008a0ce20004003a000000eb001000070091
:1007b0000000e0000a003500506480000900e000fd
:1007c00002003a00000478000600370000047800b8
:1007d00009004000060007000000e00001003d00a5
:1007e0000084eb00080078004f04be000000060003
:1007f000800078000000e00004003a0020c92000da
:100800005064880001017800060037000081eb0089
:10081000c0c82100808f500002003e005164880053
:100820000001eb000200780000000600889fbe0077
:100830008a9fbe00010578000100e0000400350039
:1008400008003c000000e0002000320005003700f6
:1008500060001000e080180002003b0001f02c0056
:100860001a0037000004be006011b8006b092000b8
:100870000982cf00020039000882cf000441b00095
:10088000694252000e00320008003b008281710074
:10089000610164008904d1000884d3008b05e8005d
:1008a0000442e800f9ff3a0005003700080444005c
:1008b00089844c008b05e9000442e900fbff3a0003
:1008c000650007000af0a70001f0a0004f05be0078
:1008d0004f04be0000000600f4ff2f008400370024
:1008e00003f0a200889fbe008a9fbe008c1f780084
:1008f0009a000700a10033006450e1004f0032006d
:100900006420e1005200320003826c0007003b00cb
:100910000905d0000306d000820f54000c065d00cc
:1009200002003900020032008901780003067800d5
:100930008582550004003d000003fd008103fd0099
:100940008502ea008b854200840f720002003b00a2
:1009500060001000e08018006011b8000005eb0096
:100960007a28e1000a00390006007800c75ddd0042
:10097000f707b200878075002d0037008281710073
:100980000a017800610560008180d1000080d300f9
:100990008502e900f9ff3b00060440008784480017
:1009a00002003b0060041400e0841c000988a300de
:1009b000070032008a817100828171006101640048
:1009c0008904d1000884d3008b05e80017003700a4
:1009d0000978a30013003a000b00e0001300340074
:1009e0008b05e9000804440089844c000a44740023
:1009f0000978a3000d003a000b00e0000700340066
:100a00008b05e9000804440089844c0001003a0089
:100a10000b0020000978a300f7ff32000001eb0073
:100a200002003700828171000a0178000a00070085
:100a30000cf0a70001f0a000590037006420e1008d
:100a400002003a00838f6c00590033000801be0099
:100a50000200be0052003700810020006180550076
:100a60000b003d000b00200061fe2f000100e100a3
:100a70001d00340082817100610164008904d1008d
:100a80000884d3000000e800faff3a00710020005b
:100a90006100640003007000020060000900320081
:100aa00061044400e0844c000988a5000500320080
:100ab0008b05e8006808e10002003a008904d100d3
:100ac0000884d300f20f20000258e10005003d0029
:100ad000c75ddd00f907b200898075000800780065
:100ae000000006000bf827008b00780000000500ce
:100af000889fbe008a9fbe00841f780017000700f1
:100b00004f00780011003300f0ff2f00838f6c003e
:100b100006003b00040565000a00a7000800370036
:100b200009f0a6001000200008003700820f5400d2
:100b3000838f5c00030039001000200001003e009c
:100b40000000200009f0a7000000ea004f05be00e9
:100b50004f04be000000e000000006000004be00dc
:100b6000160007000003be000405be000200be0020
:100b700012000700844f7500000006000200be004e
:100b80006450e100050036006420e10002003600f8
:100b90000968a30001003a000800be000160a0003f
:100ba0004f0678004f05be004f04be00000006004f
:100bb000f0ff2f00f1ff2700f9ff3700c70ade0022
:100bc000f107b200f50fb20008003200e1cf420099
:100bd000020032000170a00024000500810f7000a7
:100be000010032000408050044000500810f700078
:100bf00002003a00140005008502e90000004000f0
:100c000081c04800fcff3b000170a00024000500eb
:020000040000fa
:020000040002f8
:04aff800fdfa00005e
:020000040000fa
:020000040002f8
:04affc00793f000099
:020000040000fa
:10000800ee7c0000ee7c0000ee7c0000ee7c000040
:10001800ee7c0000ee7c0000ee7c0000ee7c000030
:10002800ee7c0000ee7c0000ee7c0000ee7c000020
:10003800ee7c0000ee7c0000ee7c0000ee7c000010
:10004800ee7c0000ee7c0000ee7c0000ee7c000000
:10005800ee7c0000ee7c0000ee7c0000ee7c0000f0
:10006800ee7c0000ee7c0000ee7c0000d870000002
:10007800c8740000ee7c0000ee7c0000ee7c0000fe
:10008800ee7c0000ee7c0000ee7c0000ee7c0000c0
:10009800ee7c0000ee7c0000ee7c0000ee7c0000b0
:1000a800ee7c0000ee7c0000ee7c0000ee7c0000a0
:1000b800ee7c0000ee7c0000ee7c0000ee7c000090
:1000c800ee7c0000ee7c0000ee7c0000ee7c000080
:1000d800ee7c0000ee7c0000ee7c0000ee7c000070
:1000e800ee7c0000ee7c0000ee7c0000ee7c000060
:1000f800ee7c0000ee7c0000ee7c0000ee7c000050
:10010800ee7c0000ee7c0000ee7c0000ee7c00003f
:10011800ee7c0000ee7c0000ee7c0000ee7c00002f
:10012800ee7c0000ee7c0000ee7c0000ee7c00001f
:10013800ee7c0000ee7c0000ee7c0000ee7c00000f
:10014800ee7c0000ee7c0000ee7c0000ee7c0000ff
:10015800ee7c0000ee7c0000ee7c0000ee7c0000ef
:10016800ee7c0000ee7c0000ee7c0000ee7c0000df
:10017800ee7c0000ee7c0000ee7c0000ee7c0000cf
:10018800ee7c0000ee7c0000ee7c0000ee7c0000bf
:10019800ee7c0000ee7c0000ee7c0000ee7c0000af
:1001a800ee7c0000ee7c0000ee7c0000ee7c00009f
:1001b800ee7c0000ee7c0000ee7c0000ee7c00008f
:1001c800ee7c0000ee7c0000ee7c0000ee7c00007f
:1001d800ee7c0000ee7c0000ee7c0000ee7c00006f
:1001e800ee7c0000ee7c0000ee7c0000ee7c00005f
:0801f800ee7c0000ee7c00002b
:020000040000fa
:10020800ee7c0000ee7c0000ee7c0000ee7c00003e
:10021800ee7c0000ee7c0000ee7c0000ee7c00002e
:10022800ee7c0000ee7c0000ee7c0000ee7c00001e
:10023800ee7c0000ee7c0000ee7c0000ee7c00000e
:10024800ee7c0000ee7c0000ee7c0000ee7c0000fe
:10025800ee7c0000ee7c0000ee7c0000ee7c0000ee
:10026800ee7c0000ee7c0000ee7c0000d870000000
:10027800c8740000ee7c0000ee7c0000ee7c0000fc
:10028800ee7c0000ee7c0000ee7c0000ee7c0000be
:10029800ee7c0000ee7c0000ee7c0000ee7c0000ae
:1002a800ee7c0000ee7c0000ee7c0000ee7c00009e
:1002b800ee7c0000ee7c0000ee7c0000ee7c00008e
:1002c800ee7c0000ee7c0000ee7c0000ee7c00007e
:1002d800ee7c0000ee7c0000ee7c0000ee7c00006e
:1002e800ee7c0000ee7c0000ee7c0000ee7c00005e
:1002f800ee7c0000ee7c0000ee7c0000ee7c00004e
:10030800ee7c0000ee7c0000ee7c0000ee7c00003d
:10031800ee7c0000ee7c0000ee7c0000ee7c00002d
:10032800ee7c0000ee7c0000ee7c0000ee7c00001d
:10033800ee7c0000ee7c0000ee7c0000ee7c00000d
:10034800ee7c0000ee7c0000ee7c0000ee7c0000fd
:10035800ee7c0000ee7c0000ee7c0000ee7c0000ed
:10036800ee7c0000ee7c0000ee7c0000ee7c0000dd
:10037800ee7c0000ee7c0000ee7c0000ee7c0000cd
:10038800ee7c0000ee7c0000ee7c0000ee7c0000bd
:10039800ee7c0000ee7c0000ee7c0000ee7c0000ad
:1003a800ee7c0000ee7c0000ee7c0000ee7c00009d
:1003b800ee7c0000ee7c0000ee7c0000ee7c00008d
:1003c800ee7c0000ee7c0000ee7c0000ee7c00007d
:1003d800ee7c0000ee7c0000ee7c0000ee7c00006d
:1003e800ee7c0000ee7c0000ee7c0000ee7c00005d
:0803f800ee7c0000ee7c000029
:020000040000fa
:100c10000d0a0000202000002020000020320000eb
:100c20003a200000526500007175000065730000f5
:100c30007420000044610000746100002046000040
:100c4000726f00006d200000416e00006f740000a4
:100c500068650000722000004465000076690000ad
:100c6000636500000d0a0000202000002020000025
:100c7000203300003a20000052650000717500002a
:100c8000657300007420000044610000746100007e
:100c900020460000726f00006d20000061200000ff
:100ca000477200006f750000702000006f66000042
:100cb0002044000065760000696300006573000051
:100cc0000d0a000020200000202000002034000039
:100cd0003a200000536500006e64000020440000cc
:100ce0006174000061200000546f0000204100008a
:100cf0006e6f000074680000657200002044000000
:100d00006576000069630000650d00000a200000a0
:100d10002020000020200000353a00002053000071
:100d2000656e0000642000004461000074610000f2
:100d3000205400006f200000612000004772000076
:100d40006f750000702000006f66000020440000f6
:100d50006576000069630000657300000d0a0000fd
:100d60002020000020200000203600003a20000053
:100d700041640000642f0000526500006d6f0000a8
:100d8000766500002044000065760000696300007d
:100d900065200000746f00002f660000726f000075
:100da0006d20000061200000477200006f75000098
:100db000700d00000a20000020200000202000000c
:100dc000373a000020440000756d000070200000dc
:100dd0004e65000069670000686200006f720000e5
:100de000686f00006f640000204900006e6600001c
:100df0006f7200006d610000746900006f6e00008a
:100e000000000000088600000d0a00000d0a000026
:100e1000456e000074650000722000006120000033
:100e20006d6500006e75000020630000686f0000b3
:100e300069630000653a0000200000000d0a000010
:100e4000486f0000772000006d6100006e7900009f
:100e500020620000797400006573000020610000ca
:100e600072650000207900006f750000207200009c
:100e7000657100007565000073740000696e000004
:100e80006728000068650000782900003a2000000b
:100e9000000d00000a570000686100007420000087
:100ea0006973000020740000686500002073000072
:100eb000686f00007274000020610000646400002c
:100ec0007265000073730000206f00006620000050
:100ed0006465000076690000636500002079000009
:100ee0006f75000020770000616e00007420000024
:100ef000646100007461000020660000726f0000f1
:100f00006d3a0000200000000d0a0000506c000047
:100f10006561000073650000206500006e740000cc
:100f20006572000020740000686500002047000022
:100f3000726f00007570000020490000442000001e
:100f40006f66000020740000686500002044000007
:100f5000617400006120000052650000717500009e
:100f600065730000743a0000200000000d0a0000c4
:100f7000506c000065610000736500002065000092
:100f80006e74000065720000207400006865000047
:100f9000206e0000756d0000626500007220000088
:100fa0006f66000020620000797400006573000025
:100fb000207400006f200000736500006e64000064
:100fc0002028000068650000782900003a20000011
:100fd000000d00000a5000006c6500006173000005
:100fe00065200000656e000074650000722000003e
:100ff0007468000065200000736800006f720000d4
:1010000074200000616400006472000065730000d9
:10101000732000006f660000207400006865000007
:101020002064000065730000746900006e610000b8
:10103000746900006f6e0000206400006576000097
:1010400069630000653a0000200000000d0a0000fe
:10105000456e000074650000722000007468000096
:1010600065200000477200006f75000070490000a5
:10107000442000006f6600002064000065760000d8
:101080006963000065730000207400006f20000099
:10109000736500006e64000020640000617400004d
:1010a000613a0000200000000d0a00000a20000044
:1010b000576800006174000020470000726f000054
:1010c0007570000020410000637400006976000024
:1010d0006974000079200000646f0000207900002e
:1010e0006f75000020770000616e00007420000022
:1010f000746f0000206400006f2000003f2000009b
:101100000d0a0000003000003d4100006464000052
:10111000204400006576000069630000652000003f
:10112000746f00002061000020470000726f000013
:1011300075700000200d00000a3100003d520000d3
:10114000656d00006f7600006520000044650000ba
:10115000766900006365000020660000726f000081
:101160006d20000061200000477200006f750000d4
:10117000700d00000a3200003d520000656d000055
:101180006f7600006520000044650000766900006d
:101190006365000020660000726f00006d20000093
:1011a000416c00006c200000477200006f75000069
:1011b000707300003a200000000d00000a45000096
:1011c0006e7400006572000020310000362d0000b2
:1011d0006269000074200000477200006f75000013
:1011e00070200000494400002028000048650000ed
:1011f000782900003a200000000d00000a5300008a
:10120000686f0000727400002020000020200000a1
:1012100020200000202000002020000020200000ce
:10122000202000004d41000043200000202000004d
:1012300020200000202000002020000020200000ae
:101240002020000020200000202000005479000011
:1012500070650000202000002020000020200000f9
:1012600020200000526e0000746c000073680000c3
:1012700069700000200000000d0a0000002000003e
:1012800020200000207c0000202000002020000002
:101290000020000020200000207c00002020000012
:1012a00020200000200000005254000052000000e6
:1012b0005246000044000000435200004400000079
:1012c000554b00004e00000043480000494c000010
:1012d000442000000050000041520000454e000034
:1012e00054000000554e00004b5700004e200000f7
:1012f000000d00000a5000006c65000061730000e2
:1013000065200000656e000074650000722000001a
:101310007468000065200000736800006f720000b0
:1013200074200000616400006472000065730000b6
:10133000732000006f6600002074000068650000e4
:101340002064000065730000746900006e61000095
:10135000746900006f6e0000206400006576000074
:1013600069630000652800006865000078290000b6
:101370003a200000004e00006f2000006e65000063
:10138000747700006f7200006b730000206600002d
:101390006f7500006e6400002e20000020540000d5
:1013a00072790000696e000067200000616700002c
:1013b000616900006e2e00002e2e00000d0a000054
:1013c000004e000065740000776f0000726b000033
:1013d0002873000029200000666f0000756e000071
:1013e000642e00002054000072790000696e000035
:1013f00067200000746f0000206a00006f69000021
:101400006e200000002e00000d0a000000200000e9
:1014100045720000726f00007220000066690000d3
:101420006e640000696e0000672000006e650000b9
:10143000747700006f7200006b2e00002020000007
:1014400054720000796900006e670000206100009e
:1014500067610000696e00002e2e00002e0d000056
:101460000a0000004a6f0000696e0000207300004f
:10147000756300006365000073730000667500000b
:101480006c2100000d0a0000004100006e6e00009b
:101490006f7500006e630000696e00006720000039
:1014a00049200000616d0000206f00006e200000e8
:1014b00074680000652000006e650000747700000d
:1014c0006f7200006b0d00000a0000002043000056
:1014d0006f7500006c640000206e00006f740000e7
:1014e000206a00006f6900006e2000006173000038
:1014f000206f000072700000686100006e2e000016
:10150000200000004d75000073740000207400007e
:101510007279000020610000732000006e650000f9
:10152000772000006e6f0000646500002e2e000022
:101530002e0d00000a0000005472000079690000be
:101540006e6700002061000067610000696e0000a6
:101550002e2e00002e0d00000a0000002043000087
:101560006f7500006c640000206e00006f74000056
:10157000206a00006f6900006e20000073650000a3
:101580006c6500006374000065640000206e00005c
:1015900065740000776f0000726b00002e20000061
:1015a0000054000072790000696e0000672000009e
:1015b0006e6500007874000020640000697300000c
:1015c000636f000076650000726500006420000013
:1015d0006e650000747700006f7200006b2e0000d3
:1015e0002e2e00000d0a0000004300006c65000074
:1015f000616e0000696e00006720000075700000d9
:10160000206100006e64000020720000657400001c
:1016100072790000696e00006720000064690000b4
:10162000736300006f76000065720000792e000081
:101630002e2e00000d0a000000570000652000005b
:101640006861000076650000206c0000656600009f
:101650007420000074680000652000006e650000c2
:10166000747700006f7200006b2e00000d0a0000fe
:10167000004100006e6f0000746800006572000099
:10168000206e00006f6400006520000068610000ab
:10169000732000006c650000667400002074000078
:1016a00068650000206e000065740000776f000020
:1016b000726b00002e0d00000a0000005a69000045
:1016c000674200006565000020530000746100005f
:1016d000636b00002068000061730000206200005e
:1016e000656500006e2000007265000073650000f3
:1016f000742e00000d0a0000005200006f750000fb
:1017000074650000722000005374000061720000d4
:1017100074650000642100000d0a00000020000034
:10172000526f0000757400006572000020730000a5
:101730007461000072740000207500006e73000078
:101740007563000063650000737300006675000038
:101750006c2e00002057000065200000636100002f
:101760006e6e00006f740000207200006f75000044
:101770007465000020660000726100006d65000065
:10178000732e00000d0a000000200000205200000f
:101790006563000065690000766900006e670000ff
:1017a000204e0000574b00005f4100004444000001
:1017b000525f000072730000702e00000d0a0000de
:1017c000004500006e6400002064000065760000a3
:1017d0006963000065200000626900006e6400001b
:1017e0002f7500006e620000696e0000642000002a
:1017f000737500006363000065730000736600008a
:10180000756c0000210d00000a000000456e00000c
:1018100064200000646500007669000063650000d4
:1018200020620000696e0000642f0000756e0000e9
:10183000626900006e640000206e00006f7400009a
:101840002073000075700000706f0000727400005b
:10185000656400002e0d00000a000000456e0000c7
:101860006420000064650000766900006365000084
:1018700020620000696e0000642f0000756e000099
:10188000626900006e64000020740000696d000051
:10189000652000006f750000742e00000d0a000026
:1018a000004500006e6400002064000065760000c2
:1018b0006963000065200000626900006e6400003a
:1018c0002f7500006e620000696e00006420000049
:1018d00066610000696c000065640000202d000056
:1018e000206e00006f2000006d6100007463000036
:1018f000682e00000d0a0000004500006e64000024
:101900002064000065760000696300006520000027
:10191000626900006e6400002f7500006e620000b6
:10192000696e000064200000696e000076610000ae
:101930006c69000064200000726500007370000094
:101940006f6e0000736500002e0d00000a0000009d
:10195000204700006f740000206d000065730000d8
:101960007361000067650000206f00006e200000ba
:10197000456e0000645000006f6900006e74000046
:10198000207a0000657200006f2000002e2e0000fb
:1019900000500000616300006b65000074200000cf
:1019a000436f0000756e0000742000005265000057
:1019b000737000006f6e0000736500003a20000035
:1019c000000d00000a200000496e00007465000050
:1019d000726e0000616c0000206d000065730000f5
:1019e0007361000067650000202d000020490000a1
:1019f000206100006d200000696e0000207300006f
:101a0000616d000065200000677200006f750000c6
:101a1000702100000d0a0000000d00000a4c0000bb
:101a2000656e00003a20000000460000726f000062
:101a30006d200000416400006472000065730000c6
:101a4000733a00002000000045720000726f000031
:101a50007220000000200000736500006e6400002a
:101a6000696e0000672000006d6500007373000060
:101a700061670000652e00000d0a000000200000d4
:101a80004d65000073730000616700006520000071
:101a9000736500006e740000207300007563000021
:101aa0006365000073730000667500006c6c0000d5
:101ab000792e00000d0a0000005400007279000029
:101ac000696e000067200000746f0000206a00004b
:101ad0006f6900006e2000006e65000074770000e2
:101ae0006f7200006b200000617300002061000035
:101af0006e2000006f72000070680000616e0000d0
:101b00002e2e00002e0d00000a000000547200006e
:101b1000796900006e670000207400006f200000eb
:101b20006a6f0000696e0000206e0000657400009e
:101b3000776f0000726b00002061000073200000ce
:101b4000612000006e6500007720000064650000e1
:101b500076690000636500002e2e00002e0d000047
:101b60000a00000020200000200d00000a410000b3
:101b70006464000065640000206e00006f64000073
:101b800065200000746f000020670000726f000085
:101b900075700000203400000d0a000000200000d5
:101ba000202000000d0a0000526500006d6f00004b
:101bb00076650000642000006e6f00006465000020
:101bc00020660000726f00006d2000006772000048
:101bd0006f75000070200000340d00000a00000046
:101be0000d0a00000d0a00000d0a00002a2a00005c
:101bf0002a2a00002a2a00002a2a00002a2a000095
:101c00002a2a00002a2a00002a2a00002a2a000084
:101c10002a2a00002a2a00002a2a00002a2a000074
:101c20002a2a00002a2a00002a2a0000000d0000ab
:101c30000a5a000069670000426500006520000044
:101c4000456e0000642000004465000076690000d5
:101c500063650000202d000020760000322e000079
:101c6000302d0000322e0000362e000030610000c2
:101c70000d0a00000d0a0000000d00000a0d000012
:101c80000a4500006e7400006572000020740000b8
:101c90006172000067650000742000007368000036
:101ca0006f72000074200000616400006472000024
:101cb0006573000073200000696e0000206800005a
:101cc000657800003a200000000d00000a0d0000b9
:101cd0000a000000020100000f0f000000050000d4
:101ce00000000000000400000000000000000000f0
:101cf00000000000000a00000000000001000000d9
:101d000002000000030000000400000005000000c5
:101d100006000000000000000000000000000000bd
:101d200000000000000000000000000000000000b3
:101d30000a00000000800000018000000280000016
:101d40000380000004800000058000000680000081
:101d50000000000000000000000000000000000083
:101d600000000000000000000000000050c1000062
:101d70000240000080000000000000007f00000022
:101d800000000000000000007800000000000000db
:101d9000b4000000000000002c0100000000000062
:101da0001c02000000000000fc0300000000000016
:101db000bc070000000000003c0f00000000000015
:101dc0003c1e0000000000003c3c00000000000041
:101dd0003c780000000000003cf000000000000023
:101de0003ce00000010000003cc0000003000000d7
:101df0003c800000070000003c0000000f000000d5
:101e00003031000032330000343500003637000036
:101e100038390000414200004344000045460000bc
:101e200002000000000000000000000000000000b0
:020000040000fa
:101e3000e6cbbf004200de0061006000000006004b
:101e40000040eb00e6ebb700e4ebb7000000eb006e
:101e5000405f8800605f8800505f880000000600d7
:101e60000409a800739020009341780041be20002f
:101e7000914078000381fb008490200001717a007a
:101e80008342e800854178008002fd0007e9b70041
:101e90008002fd008140e8008000fd00e4ebb70017
:101ea0008000fd000004e00023003200425f80005b
:101eb00081c0b3000380fb0032707a008341e800e8
:101ec0000300780007e9b7008140e900f9ff3a0014
:101ed000e8c14200834078000380fb000041eb0032
:101ee00002707a008341e8000380fb0002707a00f0
:101ef00081c0e8000100780007e9b70020c0b30006
:101f00008fe9b70002007800a1e9b70098a9ef00b7
:101f10008c29ef00a0c0b30090e9b7000001fd00dc
:101f200091e9b70092e9b700a0e9b7000001fd0010
:101f3000a229ef0000000600405f80006801400019
:101f400081c0b3000380fb0032707a008341e80057
:101f50000300780007e9b7008140e900ddff3200a7
:101f60000380fb0032707a008341e80003007800b0
:101f700007e9b7008140e900f2ff3a00d5ff3700da
:101f8000881f7800f80b07000080fb0001f02f008d
:101f90000104640000047400f30b07004800dd0036
:101fa000f80fb20000047400d05c8000800f540071
:101fb000050032000000eb00e10f44000200320097
:101fc0004f04780000000600100020004f04780045
:101fd00000000600fcff3700881f7800000478002e
:101fe0000409a800e7cbbf0008e9b70020c0b30090
:101ff0008fe9b700e098200031c0b30090cf100007
:102000000c003200814c8000c14c88008c29ef000c
:10201000a0c0b30090e9b7009169ef009269ef00aa
:10202000a069ef00a169ef00184d88004f04780007
:102030000000060000992000e90f07000004e000fe
:10204000f2ff320010608000c04c88008c29ef0045
:10205000a0c0b30090e9b7009169ef009269ef006a
:10206000a069ef00a169ef00184d88004f047800c7
:1020700000000600efff37004200fa00889fbe0014
:102080008a9fbe008c1f7800fc9820001c467800b8
:102090000969ef009acbbf000ae9b7009bcbbf00ec
:1020a0000be9b70020c0b3000ce9b70050c0b30083
:1020b00007e9b7004bfb2f008f854500280420005f
:1020c0008a902000690c2000815f8000810044001c
:1020d00022c4b3000b0078004833070007c9bf00d3
:1020e0008080fb004f71970082707d000040e80007
:1020f00007e9b7002804b000890f5400f2ff3a0046
:1021000050002800b4ff07000c04e000010032007a
:102110009249a8004f0678004f05be004f04be004c
:102120000080fa0000000600889fbe00800478004e
:102130008d0b0700004478008b0b07000804e000bb
:1021400021003200e14f54000d0032007190200058
:10215000914078008181fb0002c8b300809020008c
:10216000827178008140e8000100780007e9b7003b
:102170000900780098ff07004f04be000000060029
:102180000969ef0000f12800a19020000700090074
:10219000b05878008000b1009acbbf0012e9b700b8
:1021a0009bcbbf0013e9b7001469ef00d0c0b300a8
:1021b00007e9b7000900780087ff07004f04be0059
:1021c00000000600eeff37000800780009e9b700bc
:1021d00000f12800a190200007000900b058780005
:1021e0008000b1009acbbf0012e9b7009bcbbf00c3
:1021f00013e9b700c0c0b30007e9b70009007800d1
:1022000075ff07004f04be0000000600dcff37002a
:10221000889fbe000044780081447800aa09e2004b
:10222000030032000000eb004f04be000000060077
:1022300040c0b300e5350700504d88000000e000c5
:10224000f8ff32000048eb001840980040c0b3008f
:1022500088e9b7008969ef00504d8000504c880034
:102260008c29ef0020c0b3008ee9b7008f69ef0022
:10227000d05c8000804c8800a069ef00a169ef006d
:102280000904e0000600320010022800104d88000a
:10229000100020004f04be0000000600e4ff3700dd
:1022a00020022800104d8800100020004f04be00be
:1022b00000000600deff3700e6874700889fbe006b
:1022c0008a9fbe008c9fbe008e1f78008fc9bf0002
:1022d000e0ef9f0020c4b300bc3507008005780004
:1022e0000000e000830032001f0b07000080fb00ad
:1022f00001f02f0001056500000575001a0b0700ad
:102300004800dd00fa0fb20000057500160b07004b
:10231000004678000007eb000004e00010003200e7
:102320000080fb0000004000a8350700000778008f
:102330000000e000ab003200000478008044eb00b5
:10234000090b0700004c7800070b070010449800a9
:102350008944e8000884e800894f5600f8ff3a00f5
:10236000010b0700804678008000eb0081bf9f00d2
:102370000004e00067003a000c04e0005600320060
:102380008044eb0050c0b3000769b400280420006b
:10239000815f80008100440022c4b3000b007800fc
:1023a000963207001b0090008a0f5000190032007f
:1023b0008040eb002804b000600c2000800f540027
:1023c000f3ff3a000104e00028003a000b00780017
:1023d000803507000e00e000020032000e00780099
:1023e0007c3507000fbb97000600e000410032007b
:1023f0000fb89700773507000000eb004f07780013
:102400004f06be004f05be004f04be006f00b10076
:102410000000060011c0b3000904e000e5ff3a0027
:10242000fb4290000504e00057003200688245003e
:10243000894178000c04e0004f003200140178005c
:102440009e0f5100090032008040eb008140e800ff
:10245000814f5600480032000180fb000000400020
:102460000e004000900f5100f8ff3a0007c9bf006e
:102470000081fb00819020001bf178000040e80003
:1024800007e9b7000969ef009acbbf000ae9b70076
:102490009bcbbf000be9b70010c0b3000ce9b7003d
:1024a00060002800ccfe070010002000efe8970035
:1024b0000104e000d1ff32009249a8004f077800e4
:1024c0004f06be004f05be004f04be006f00b100b6
:1024d00000000600cfff370019c0b3000d04e00074
:1024e000a7ff3a0050c0b3000769b40028042000d9
:1024f000a7ff37000000eb004f0778004f06be0033
:102500004f05be004f04be006f00b1000000060082
:10251000c0ff37000080fb00000040002b350700a3
:1025200080bf9f000000e000a8ff32000004780098
:102530008044eb008c0a0700004c78008a0a0700f0
:10254000104498008944e8000884e80089cf5600c8
:1025500089ff3200840a0700004c7800820a0700d5
:10256000104498008944e8000884e80089cf5600a8
:10257000f0ff3a0080ff37008341e8000482e80062
:1025800085cf5100abff3a00cb6290000504e0001c
:1025900087ff3200640220000b0242008041eb0002
:1025a0000d04e00011003200140178008fb897008c
:1025b000910f5100adff32008040eb008140e800f8
:1025c00081cf5600090032000180fb00000040006e
:1025d0000fbb970006004000900f5100f7ff3a0034
:1025e000a2ff370080bf9f0078ff37008341e800db
:1025f0000482e80085cf5100e9ff3a008040eb00fb
:102600006cff3700889fbe0000047800814478008a
:102610000000e00013003200101090000048a300fa
:102620000e003a000409a8000100780009e9b7008b
:1026300020c0b30007e9b70068509000e7ebb7008f
:102640000002280064fe070038049000c84c88008f
:10265000f00420004f04be0000000600aa09e200ba
:10266000040032000000eb004f04be000000060032
:10267000faff370040c0b300d4340700504d880043
:102680000000e000f7ff320068549000084878002e
:102690001940980040c0b30088e9b7008969ef008d
:1026a000504d8000504c88008c29ef0020c0b300b2
:1026b0008ee9b7008f69ef00d05c8000804c880005
:1026c000a069ef00a169ef0000022800104d88000a
:1026d000100520004f04be0000000600dfff370099
:1026e000889fbe008a9fbe008c1f7800000478007f
:1026f0000000e00009003200101090000040a0002f
:1027000010149800080578000a0078004f06780039
:102710004f05be004f04be000000060040c2b300db
:10272000aa34070080057800000578000000e0006a
:10273000f5ff320018109800804c8000b00598001a
:10274000e7cbbf00e0559800a85d9800b85d980001
:10275000c85d9800d85d9800f85d9800980d9800c5
:10276000a80d9800000a0700c0459800fe09070060
:10277000d04598002b009000e50f400066003e0019
:10278000e884450088c0b300f7090700805c780042
:102790000844e900fcff3a00f3090700f0559800ef
:1027a000f109070080559800ef090700905598003f
:1027b000ed090700805d98008004eb000004e00054
:1027c00013003a000b5890000004e00026003a0085
:1027d000e5090700905d98000004e00017003a004a
:1027e0001b5890000004e00035003a001b109000d8
:1027f0000040a100901598000a0078004f0678006c
:102800004f05be004f04be0000000600c3ff3700a6
:102810000080fb00000040006c340700800478005a
:102820000000e00049003200900d98000b58900025
:102830000004e000e6ff32000b0037000080fb00e0
:102840000000400061340700800478000000e000d0
:1028500039003200a00d98001b5890000004e000e1
:10286000e2ff3200160037000046eb00be09070009
:102870000084fb00880c7800bb0907004800dd00dd
:10288000801c44000c46e8000b589000804f560016
:10289000cfff3100b40907000084fb00880c7800ea
:1028a000b10907004800dd00801c44000c46e80028
:1028b0000b589000804f5600ecff3900c4ff3700e2
:1028c0000046eb00a80907000084fb00880c780094
:1028d000a50907004800dd00801c44000c46e80004
:1028e0001b589000804f5600c0ff31009e09070022
:1028f0000084fb00880c78009b0907004800dd007d
:10290000801c44000c46e8001b589000804f560085
:10291000ecff3900b5ff37000b0078002d340700bd
:10292000080078004f0678004f05be004f04be0037
:102930000000060079ff37001b0890000000e0004f
:102940000200320023340700990d98000b00780034
:1029500020340700090078004f0678004f05be00bc
:102960004f04be00000006006cff37000400fa00b0
:10297000889fbe00615f80000100e00048003200d7
:10298000111490000802b200040032000000eb00b5
:102990004f04be000080fa000000060050ff070050
:1029a00080027800505f88000000e00036003200ae
:1029b000645f80008408900000089000808f5000c1
:1029c0001100320068c8b300685a980014109000d3
:1029d0000050a00010129800515f80000100e0003c
:1029e000eaff3200e8589800111090000050a00053
:1029f000901098000000eb004f04be000080fa0029
:102a000000000600e5ff3700140b9000045890000a
:102a10000004e00044003a00240b90001458900099
:102a200068c8b3000004e000e7ff32008043eb0019
:102a300085599000950890000304e00009003200d9
:102a40000041eb0011007800960f50002800320082
:102a50000241e8008180e80082cf5100f9ff3e008a
:102a6000145890008743e8000683e80080cf5300a5
:102a7000f0ff3900685a9800141090000050a00030
:102a800010129800d4ff3700645f800068c8b3005c
:102a90000400e000d0ff320068c8b300caff37006e
:102aa0000fff070000047800605f88000000e0006e
:102ab000f5ff320068805700c03307004fb8970019
:102ac000dfb89700008cbe00615f8000111090009d
:102ad0000050a10090109800e60ba8000000eb0049
:102ae0004f04be000080fa0000000600abff370074
:102af0000804e00008003200141090000060a000fc
:102b000010129800e64ba80016007800e05c8800e0
:102b10000044eb0085599000755890000040e80093
:102b2000f05a9800caff370069c8b300884378009c
:102b300095599000a50890000304e00009003200b8
:102b40000041eb0016007800910f50000f0032009a
:102b50000241e8008180e800834f5100f9ff39000d
:102b6000045890008743e8000683e800874f500030
:102b7000f0ff3e00240b90001458900068c8b3008a
:102b80000004e00090ff3200a8ff37000904e000d5
:102b900008003200151090000060a000901298000c
:102ba000e64ba80011007800f05c88008044eb0040
:102bb00095599000745890000040e800705a9800b1
:102bc000e3ff3700ec874700889fbe008a9fbe0066
:102bd0008c9fbe008e1f7800004778008106780029
:102be00002447800830578008c69ef00804c8000f7
:102bf000f0b79f00010078007b1f07000004e00091
:102c000034003200d15c800081bf9f00e14f54004e
:102c1000340032000b007800861f0700e94f500097
:102c200067003200bc6080000044eb008e84fb0033
:102c30000905d1000a0078000000a20061006000d0
:102c4000c0ef9f000004e00013003200514c8000f0
:102c5000014890008de9b7001148900090e9b70055
:102c60002148900091e9b70031489000a2e9b700ef
:102c70006c804000504c8800209a200012c0b300a5
:102c8000904f11003c00320074804000504c88008e
:102c9000b50807008ee9b7000804e0001f00320005
:102ca000e80be2004e00320040c8b3008ce9b700e8
:102cb000100020000a08a3000d003a004f0778001a
:102cc0004f06be004f05be004f04be00cf00b1004e
:102cd0000000060040c8b3008ce9b700e14f540083
:102ce000ccff3a001b0678000044eb00cfff370012
:102cf000e14067008cc9bf0045fd07000080fb0074
:102d00004f0778004f06be004f05be004f04be00bf
:102d1000cf00b10000000600eeff37000fb89700ab
:102d2000904c8800dc4c88008c49e200e0ff3a00bf
:102d30000908a30013003a00824c8000d1982000bb
:102d400091407800e4982000144278008c017800cb
:102d50000fb897009b0a07000004e000d4ff320080
:102d600080c8b3008ce9b700100020000a08a30057
:102d7000d2ff3200deff3700e0cfb3008ee9b700ac
:102d8000c5ff3700824c8000d19820009140780028
:102d9000e4982000144278008c0178007b09070039
:102da0000004e000c2ff320070c8b3008ce9b70035
:102db000100020000a08a300c0ff3200ccff37003b
:102dc0000b007800081f0700804478000004e00032
:102dd0005c003200dc5c80000044eb0093ff3700b5
:102de00020c2b300f9320700405f88000000e00015
:102df000adff32008d0078000001eb00405f8000e5
:102e0000317178000201e800e80f5100fbff3a0041
:102e1000405f80008fb8970021089800d29820006a
:102e20001241780022589800405f8000814c800059
:102e3000610898008b0178008000eb0001007800a9
:102e4000e80bb40033417800024898008100e800a4
:102e5000e88f5000f9ff3a00405f80003c0898007e
:102e6000e19820009140780061589800485f800008
:102e700078805700d13207004fb09700dfb097003d
:102e8000000c9800110c9800405f800071be20007b
:102e900091407800715898008040eb00405f8000be
:102ea000016098004fe997000204e000030032003f
:102eb000405f8000ffb09700410898000908a30018
:102ec00004003200415f8000011090000020a0004b
:102ed000801098000a08a30004003200415f8000bf
:102ee000011090000030a000801098000fb99700ea
:102ef000e10f410004003200415f800001109000aa
:102f00000000a00080109800e10f4600040032008d
:102f1000415f8000011090000010a0008010980018
:102f2000e62ba8000000eb004f0778004f06be001c
:102f30004f05be004f04be00cf00b10000000600e8
:102f400064ff37000b007800250c07000086eb00bb
:102f500018c0b3000004e00034ff32001c608000a1
:102f60000944780031ff37001a00fa00889fbe003c
:102f70008a9fbe00800078000000e0001c00320044
:102f8000b0052000808f50000a00320072003e0021
:102f90000000e900808f5000d60032008004eb0072
:102fa000090078004f05be004f04be000080fa0003
:102fb00000000600229a200012417800a399200008
:102fc0002199200030c0b300fefe07000004e0009d
:102fd000f2ff320019052000090078004f05be00fd
:102fe0004f04be000080fa0000000600f1ff370029
:102ff0006c805700713207002fbd9700bfbd97004e
:1030000004c9bf000008a300e4ff3a00e6cbbf00fc
:103010000008a30068003a000028a3002401320041
:10302000675f80000700e000d700320017109000b3
:103030000068a300d40032000048a300fe053a0057
:103040000409a80013c0b3000300780007e9b70023
:10305000e880430080c0b3008b9020009290200055
:1030600083427800315978008341e8008001fd00f7
:1030700007e9b7008001fd000040e900f8ff3a00d1
:103080007750900011e9b70085c1e800e15c80004d
:103090000380fb0001f07d00e3c142000380fb00e0
:1030a000c808de0001f07d00e4c142008380fb001f
:1030b00030c0b30080f07d00e5c14200030078001d
:1030c00007e9b700565f8000860078006802430079
:1030d00004017800834278000380fb0032f07d0019
:1030e0008341e8000300780007e9b7008100e800a9
:1030f000810f5200f7ff3a000380fb0076539000e7
:1031000006f07d0085c1e8000300780007e9b700fc
:1031100067509000e7ebb700b7039000874c88003a
:1031200020022000acfb0700615f800011109000be
:103130000060a1000070a00090109800f904200029
:10314000090078004f05be004f04be000080fa0061
:103150000000060097ff3700c0052000808f500058
:103160007f0032000000e800808f50008bff3a00a3
:1031700040c2b30015320700800478000000e00070
:10318000fe013a0040c0b30088e9b7000409a90075
:10319000f0c7b30006e9b7000769ef000905200092
:1031a000090078004f05be004f04be000080fa0001
:1031b000000006007fff3700685f8000880278000b
:1031c0000800e0000e003200181290000458a3001e
:1031d00001013200840078007102b2001002200068
:1031e000808f500006033200005020000000620073
:1031f00001102000810f5000a7013200685f80009d
:10320000525f80000200e000ec00320012109000db
:103210000088a300e90032009810900001b8a300d4
:10322000e6003a0000a8a300e4003a0001c8a300a9
:10323000e2003a0000d8a300e0003a0001a0a0009c
:10324000111498001210900000b0a0001011980006
:10325000b258900012589000814f5000c7003600bd
:103260000180fb00a208900000004000608478000c
:10327000655f80002559900005589000824f5000ee
:10328000b50036000280fb00950890000000400069
:10329000e0817800565f8000961090000100e00009
:1032a0003eff3500830f54003f023200655f80000f
:1032b000255890000041e800a25a98000558900057
:1032c000824f5000a40036000280fb009508900059
:1032d00000004000e0817800565f8000961090006a
:1032e0000100e0002dff3500830f5400efff3a008e
:1032f0002d023700114d80000100e000d2003500a2
:1033000019070700e7ebb700114d8000f18f50005f
:10331000e5003e00f08f5000de023100e38f5000e8
:103320009d0332008b033e00e18f5000ef0432001a
:10333000d604360012fb07000004e00060023a00e9
:103340008004eb0049120700090078004f05be0019
:103350004f04be000080fa000000060015ff370091
:10336000229a200012417800a39920002199200080
:1033700020c0b30013fe07000004e00007ff320086
:103380001905200014ff3700565f80000600e0009a
:1033900045003200161090000068a3004200320081
:1033a0000048a3003d053a000409a80013c0b3007b
:1033b0000300780007e9b700e800430080c0b300cd
:1033c0008b90200092902000834278003159780041
:1033d0008341e8008001fd0007e9b7008001fd009e
:1033e0000040e900f8ff3a007650900011e9b7007c
:1033f00085c1e800f15c80000380fb0001f07d00e6
:10340000e3c142000380fb00c808de0001f07d003c
:10341000e4c142008380fb0030c0b30080f07d0037
:10342000e5c24200854178000500780007e9b70051
:103430006881430081c0b300034278000380fb0031
:1034400032f07d008341e8000300780007e9b7000f
:103450008140e900f8ff3a00e8c142000380fb0028
:10346000f753900007f07d0084c1e8000300780066
:1034700007e9b70066509000e7ebb700360390000d
:10348000864c880020022000d3fa0700515f80009c
:10349000111090000060a1000070a0009010980032
:1034a000f904200026ff3700e64ba900e6cbbf0059
:1034b0000018a300b9fe3200485f800008089000a1
:1034c000980890000000550081805d0054c8b3004a
:1034d0007296280093002000820f5000838f5800be
:1034e0004a003600081090000038a30088023a0015
:1034f0000409a8000400780009e9b70023c0b3005c
:103500000300780007e9b70078589000e7ebb700b0
:10351000c8089000814c8800081090000028a30083
:103520007302320010022800abfa0700f9042000f1
:10353000405f800027310700e82bef00e62ba90051
:10354000090078004f05be004f04be000080fa005d
:103550000000060097fe37000040eb00a05a9800dc
:10356000525f8000325890008040e8003159980046
:1035700012589000814f500039ff3e00615f80007b
:103580001110900000c0a000901098001210900040
:1035900000d0a000101198001110900000a0a10010
:1035a000901098001210900000b0a1001011980027
:1035b0000040eb0030599800685f800018119000bf
:1035c0000100230001006100810f500075003200ee
:1035d000e6cbbf0090fe370038015500a8815d00a2
:1035e0007096280091002000800f5100818f5900b3
:1035f000f8fe36000400a0000410a1000420a10081
:103600000450a00014149800f2fe370088109000b7
:103610000108a300f5023a0010c0b30010fa070039
:10362000415f8000011090000000a0008010980011
:10363000f00420004f05be004f04be000080fa00d9
:10364000000006005bfe370000002800808f50005d
:103650004f023200e6cbbf006141600006003a0035
:1036600010022800808f50006a03320020022800d8
:10367000808f50002b013200f0fd270000804000b9
:10368000e10f50001eff360020022000808f500006
:103690001bff320010022800808f500018ff3200fc
:1036a000190520004cfe370020022000808f5000ba
:1036b0008b02320023023e00f48f5000f5013200ed
:1036c00036033e00f38f50001dff3a002606070028
:1036d00001fe2f000f85400080ef9f0022060700ab
:1036e00090ef9f0020060700004d78001e0607009f
:1036f00090e79f001c060700204598001a06070067
:10370000b0e79f0018060700c0e79f0016060700f5
:10371000d0e79f0014060700e0e79f0012060700ad
:10372000f0e79f000a007800b3080700e14f50005f
:1037300055043a000004eb0049062000b15f800008
:1037400081004400a2c0b300a0bf2000ab2d070041
:10375000820020008a007800a0bf2000f2f307005a
:103760000000e0004d0132006a044400890f54005b
:10377000f3fe3200b15f800081004400a2c0b300bc
:10378000a0bf20009d2d0700820020008a00780045
:10379000a0bf2000e4f307000000e000f2ff3a00c1
:1037a0003e013700545f8000941190000100270013
:1037b00001806100810f500085ff3a0002e8a300fc
:1037c00083ff3200820478000902b200da033a0073
:1037d0000358a3000200320003e8a30078013a0076
:1037e00003e0a100131298001810900000e0a1005f
:1037f00010149800180890000000e000fd0332004b
:1038000074300700685f8000190c98002808900049
:103810000000e000040032006e300700685f8000a6
:103820000000eb00200c98000800780069300700c9
:103830000004eb00685f8800525f8000120890006f
:103840000000e0000300320062300700525f800099
:1038500018099800220890000000e00003003200e0
:103860005c300700525f8000280998000200780051
:1038700058300700585f8800405f80000000e0007b
:103880000200320053300700485f8800e60ba900b1
:10389000e6cbbf00e0fd3700525f800012109000c1
:1038a00000b8a3008e013a0004d8a3008c013a00ae
:1038b00000c8a3008a013a0004b0a00014149800c4
:1038c0001210900000a0a00010119800b8589000ad
:1038d00018589000814f5000d80036000180fb003e
:1038e000a508900000004000e0847800525f80004e
:1038f00082027800a259900002589000834f500035
:10390000c50036000380fb009208900000004000d4
:1039100060827800685f8000981090000100e000ed
:103920003afe3500848f540083003200555f8000da
:10393000255890008041e800a35a9800055890004f
:10394000834f5000b40036000380fb0095089000c0
:103950000000400060827800685f8000981090004e
:103960000100e000efff3d00525f80001210900068
:103970000088a30011ff320027fe370009c9bf00ed
:10398000c0449800a190200091407800d144980054
:10399000e8804400b090200032912000b0587800b8
:1039a000820f5000fdff3a00329120001241780052
:1039b000f25498004391200093417800835498007a
:1039c00015c9bf009054980016c9bf00805c9800cc
:1039d0000005eb004b003a0009589000f3c0b3001b
:1039e0008b9020000004e0000f0032000041eb004b
:1039f0000380fb00e0c07d008180fb00010d7800aa
:103a00000340e8000080fb0060c07d004800dd004e
:103a1000009d400083c1e8000241e8000958900081
:103a2000804f5100f2ff39000380fb0060c07d0031
:103a3000905c98000344e8000004e00029003a008c
:103a4000195890000004e0000f0032000041eb0024
:103a50000880fb00e0c07d008180fb00010d780044
:103a60000840e8000080fb0060c07d004800dd00e9
:103a7000009d400008c4e8000241e8001958900089
:103a8000804f5100f2ff39000004eb0098149800b9
:103a9000c85c9800d85c9800e85c9800b85c980016
:103aa000a85c9800f85c9800886498000900780089
:103ab000aefb070080047800f0c7b30006e9b7004a
:103ac0000800780007e9b7000409a9000900780098
:103ad0004f05be004f04be000080fa000000060043
:103ae00034fd37000080fb0000004000b72f0700c6
:103af000000578000000e00040033200a00c9800b0
:103b0000cfff37000080fb0000004000af2f070010
:103b1000000578000000e0003d033200900c9800a2
:103b2000adff3700844ce200d3fe3200846cef001e
:103b30001905200028fd3700010178000220b2009d
:103b400003003a00e05c8000800f520090003200d9
:103b50000148a300eb0332000200e0000103320041
:103b6000f85090003500900075529000b801900018
:103b70000901780005060700615f800011109000c0
:103b800000e0a00090109800515890000040e8001c
:103b9000d0589800515f8000215890000040e80004
:103ba000a058980061ff3700010278000420b2009d
:103bb00003003a00f05c8000808f51007a003200f0
:103bc0000148a300780332000400e000f70232004d
:103bd000f65090003500900075529000b6019000ac
:103be00008017800e9050700515f8000111090007e
:103bf00000e0a00090109800515890000040e800ac
:103c0000d0589800615f8000215890000040e80083
:103c1000a0589800a5fd37000040eb00a05a98007e
:103c2000655f8000355890008040e800b15a9800e8
:103c30001558900080cf500028ff390015109000d3
:103c400000d0a00090129800515f800011109000e9
:103c500000c0a000901098001510900000b0a100c6
:103c6000901298001110900000a0a10090109800f0
:103c70000040eb00b05a9800151090000080a100a1
:103c800090129800685f8000525f800012109000d0
:103c90000088a30049fe32005ffd3700b05f80005e
:103ca00000004400a2c0b3008a007800912c0700f5
:103cb0006a044400890f5400aefe3a00a0fd3700ac
:103cc0000969ef009acbbf000ae9b7009bcbbf00a0
:103cd0000be9b70043c0b3000300780007e9b70061
:103ce000c8902000a15f8000c2c0b3000800780027
:103cf000422c070074902000144278000480fb00de
:103d0000e401400082902000b1902000e34179005e
:103d100003f07800e5004000e140790001707c008c
:103d2000e6014000d1902000e341790003f07800e3
:103d3000e8014000e1902000e341790003f07800c1
:103d4000e9014000f1902000e341790003f07800a0
:103d5000ea01400001912000e341790003f078007e
:103d6000eb01400011912000e341790003f078005d
:103d7000ea4142000300780007e9b700200028006c
:103d800095f80700f9042000b80f07006efd370012
:103d90000340e800a05a9800585890000040e800fe
:103da000505c9800e1fe37000240e800a05a9800fd
:103db000565890000040e800505b98003bfd3700eb
:103dc000c4589000040078000efa070080047800c0
:103dd000515f8000111090000050a10090109800d9
:103de00010c0b30080609800090078004f05be0045
:103df0004f04be000080fa00000006006dfc370092
:103e0000086090000004e000cd003200505f8000a8
:103e10000000e0000200320051c8b300f9f90700c9
:103e200080047800685f8000180890000000e000bf
:103e300004003200e72e0700685f80000000eb00fe
:103e4000100c9800280890000000e00004003200e8
:103e5000e02e0700685f80000000eb00200c980057
:103e600008007800db2e0700ec2bef00e60ba90022
:103e7000100180000050a1001001880009007800a6
:103e80004f05be004f04be000080fa00000006008f
:103e900048fc37003af807000004e00028fd320033
:103ea00040c8b30009e9b7009acbbf000ae9b700e0
:103eb0009bcbbf000be9b70043c0b3000300780001
:103ec00007e9b700104d80000100280001007000d4
:103ed00041f80700f9042000640f07001afd3700bd
:103ee000685f80000200e000c8fc3a00b3fd3700c4
:103ef0002002280038f80700f9042000405f800005
:103f0000b42e0700e82bef00e62ba9008cfd37004c
:103f1000c200de00e1c0600004407800bcf8070089
:103f2000190520000004e00081fd3a008004eb0048
:103f3000405f8000a72e0700e82bef00e62ba900ca
:103f40007ffd370010022800808f50003b013200b7
:103f5000b3003e0000fd2f0000804000e50f500040
:103f6000f7fc3e0040c8b30009e9b70023c0b30026
:103f70000300780007e9b700000028000080700007
:103f800015f80700f9042000380f0700eefc370091
:103f9000f6845700504c800020499000a2f79f0003
:103fa000b0499000b3f79f00a0409000814c78008a
:103fb00030419000b2ef9f00c0419000c3ef9f00de
:103fc000d0409000d1ef9f0060419000e2ef9f0051
:103fd000f0419000f3ef9f008048900081f79f0030
:103fe0001048900090f79f000900780082060700b3
:103ff000e14f500065003a000004eb004a06200043
:10400000b15f800081004400a2c0b300a0bf2000c7
:104010007a2b07008200200089007800a0bf2000d2
:10402000c1f107000000e000240032006a044400ef
:104030008a0f5400f2ff3a00e62bab00e5fb32009a
:10404000594c8000194590000a04e000e1fb3a0059
:10405000485f80000980e800820020008800780026
:10406000b1f107000000e00009003a00a94c9000ff
:1040700049549800514c8000405f8000b148900046
:10408000515098001ac0b300485f8000594c80001e
:10409000e80044000980e80082002000a2f1070047
:1040a0000000e000ee0232000a04e000c9fb32002a
:1040b000ee0e07008004eb00b9fb3700b05f800014
:1040c00000004400a2c0b30089007800892b0700db
:1040d0006a0444008a0f5400c9ff3a00d6ff370033
:1040e000e098200033c0b30090cf11008701320068
:1040f000884c8000514c800031499000ec81400098
:104100000040eb00affa07000004e0008cfc320036
:104110000409a8008cc9bf0009e9b70023c0b30097
:104120000300780007e9b700884c880020022800c7
:10413000a9f70700f9042000cc0e070082fc370025
:1041400051c8b300080078002ef9070080047800f9
:1041500034ff3700e58f50005d013200d400390094
:10416000e68f500076fc3a0085f707000004e00077
:1041700073fc320050f80700f90420000004e0004e
:104180006ffc3200b90e07006ffc370009007800a1
:1041900053060700a8ff370079f707000004e00086
:1041a00067fc32000969ef009acbbf000ae9b7004b
:1041b0009bcbbf000be9b70043c0b30003007800fe
:1041c00007e9b700915f800022c0b300c0902000d3
:1041d0000a2b070007e9ec00300028007ef70700f3
:1041e000f9042000a10e070057fc37006280600030
:1041f000bc013a001af70700415f800001109000ef
:104200000010a00080109800f00420004f05be00b0
:104210004f04be000080fa000000060065fb370076
:1042200020022800808f500045fc3a00685f800023
:104230000800e00004003200b8009000804c8000cc
:10424000808f500042003200525f80000200e00088
:1042500004003200b2009000804c8000808f50003b
:1042600020003200880478000800e00004003200da
:10427000b9009000804c8000808f50002b003200ed
:10428000595f80000900e0002dfc3200b900900069
:10429000804c8000808f500029fc3a00191090005b
:1042a0000088a30026fc3200495c90002e03070022
:1042b00000447400c85c9800515f800011109000a9
:1042c00000f0a100901098000038a3001cfc320000
:1042d00000e0a000901098008004eb00630e07003f
:1042e00019fc3700121090000078a300ddff3200a7
:1042f0000080a0000070a100101198001a030700b0
:104300000004e000c4023200515f800011109000f0
:104310000090a00090109800685f800088047800ea
:104320000800e000d2ff3a00d5ff370019109000d6
:104330000088a300d2ff3200495c90000a03070006
:1043400000447400c85c9800615f8000dbff3700a8
:10435000181090000078a300bbff32000080a0007e
:104360000070a10010149800ff0207000004e00094
:104370008c023200615f8000111090000090a0005c
:1043800090109800695f8000b9009000804c800018
:10439000808f5000baff3a00e4ff3700000220008f
:1043a000808f5000df0032000000e800808f500056
:1043b000e3fb3a00e098200032c0b300904f1100b8
:1043c0002f023200884c8000514c8000314990000f
:1043d000ec81400010c0b300faf907000004e000cf
:1043e000d7fb32000409a8008cc9bf0009e9b70057
:1043f00023c0b3000300780007e9b700884c8800a9
:1044000010022800f4f60700f9042000170e070038
:10441000cdfb3700844ce20097fc320002007800ac
:1044200084ecb700100520004f05be004f04be000d
:104430000080fa0000000600defa3700695f8000a5
:104440000900e00004003200b9009000804c8000b8
:10445000808f500009003200595f80000900e000a1
:10446000b7fb3200b9009000804c8000808f500074
:104470008dff32008004eb00b2fb3700495c9000f6
:10448000b902070000447400c85c9800615f8000b6
:104490001110900000f0a100901098000038a300c7
:1044a000edff320000e0a00090109800eaff370016
:1044b000b3f607000004e000a1fb3200aa020700e7
:1044c0000045780013c0b3008001fd0007e9b70084
:1044d0008001fd000040e900f14f400016013e0060
:1044e0008044eb000004eb00815f80008100440009
:1044f00022c4b30000ba2000402a07008944e80023
:10450000a0cbbf000054e100060232002804b00036
:10451000e4cf5400f4ff3a007190200091407800fd
:104520000181fb00889020000040eb0000717c00be
:104530008141e8000380fb00a2b92000124178000d
:1045400002707c0081c1e8000380fb00b3b9200049
:104550009341780003707c00e3c140008381fb003d
:1045600074ba2000144278000481fb00c4cbbf0061
:104570000080fb0000004100000040006840400057
:1045800080717c00e4c140000380fb0003ba20007e
:104590009341780003707c00e5c140000380fb007c
:1045a00023ba20009341780003707c00e6c14000ec
:1045b0000380fb0033ba20009341780003707c0035
:1045c000e7c140000380fb0043ba2000934178001c
:1045d00003707c00e8c140000380fb0053ba200058
:1045e0009341780003707c00e9c140000380fb0028
:1045f00063ba20009341780003707c00eac1400058
:104600000380fb0004707c00ebc1400003007800d5
:1046100007e9b7000380fb000800400002014100e9
:1046200081ba20004ef00700a7cbbf000080fb003e
:10463000800040007090200090c140000380fb008b
:1046400041bc20009140780001707c008341e8006b
:104650000300780007e9b7000380fb000800400072
:104660000181fb000201410061bc20003cf0070019
:10467000c44bd4000769b4004000280056f6070078
:10468000f9042000790d07002ffb370009f12800fd
:104690000004eb0068c17c00e2df9f0032020700eb
:1046a000efd99700834f500025fb3a000804e8003b
:1046b000e80f5400f7ff3a00000028009af60700c0
:1046c0009249a800f9042000680d07001efb37007e
:1046d0002bf607000004e00019fb320066f6070025
:1046e000f9042000610d070017fb370024f60700ce
:1046f0000004e00012fb3200100028008af60700d8
:10470000f9042000590d07000ffb37000099200025
:10471000330607000004e00009fb32001860800047
:1047200074fe37000000eb0090f80700800478006a
:104730004e0d070004fb3700c858900008007800b1
:10474000b0f7070080047800615f800011109000ce
:104750000050a1009010980010c0b3008060980035
:10476000a1fd3700f8509000350090007552900080
:10477000b80190000901780012040700615f800011
:104780001110900000e0a000901098005158900087
:104790000040e800d0589800515f800021589000f8
:1047a0000040e800a058980060fc3700f6509000e8
:1047b0003500900075529000b60190000801780015
:1047c00000040700515f80001110900000e0a0007d
:1047d00090109800515890000040e800d058980080
:1047e000615f8000215890000040e800a0589800c8
:1047f000aefa3700685f800004fc370019089000ab
:104800000000e00002003200722c07009a0c9800b1
:10481000090078006f2c070040c0b30088e9b7009a
:104820000409a900f0c7b30006e9b7000769ef0063
:10483000090520005afa3700e25c8000535f8000cf
:10484000f75090003300900073529000b701900031
:10485000dc0307000004e00004003200615f800018
:10486000111090000090a00090109800615f8000ef
:10487000111090000080a0000060a100901098002e
:104880008004eb00c6f937000a00780094040700a2
:104890008004eb00f50c0700abfa3700f25c8000f7
:1048a000f65090003700900077529000b6019000cb
:1048b000c40307000004e00004003200515f8000e0
:1048c000111090000090a00090109800515f80009f
:1048d000111090000080a0000060a10090109800ce
:1048e000e7ff370028089000e10f4000abf93200e5
:1048f000b8099000e18f4100a8f932000138a30007
:1049000002003200aa09e200a4f93a000128a3003b
:10491000e400320068099000a8589000685a90009e
:104920009a0207000004e000db00320074c8b30004
:10493000485f8000ebfa370020c8b30009e9b700f0
:1049400023c0b3000300780007e9b7008b90200074
:10495000034178000380fb00a1b92000914078005a
:1049600001f07d008341e8000380fb00b3b9200023
:104970009341780003f07d0082c1e8008380fb0052
:104980000040eb0080f07d00e3414100030078002f
:1049900007e9b700400028008ff50700f904200060
:1049a000b20c070068fa37000409a80013c0b3006e
:1049b0000300780007e9b700e800430080c0b300b7
:1049c0008b9020009490200003417800315a7800a9
:1049d0008341e8008001fd0007e9b7008001fd0088
:1049e0000040e900f8ff3a007650900011e9b70066
:1049f00082c1e8000380fb0008f07d00e341410034
:104a00008380fb004840de0080f07d00e4414100ef
:104a10008380fb0030c0b30080f07d006542410020
:104a2000844178000400780007e9b70068814200fb
:104a300081c0b300834378000380fb0032f07d0027
:104a40008341e8000300780007e9b7008140e900ee
:104a5000f8ff3a00e84142000380fb00f552900065
:104a600005f07d0087c1e8000300780007e9b70082
:104a7000e4cbbf00e7ebb7008040e8008000fd001a
:104a8000e4ebb7008000fd0060539800565890009a
:104a90000040e800505b9800b6009000814c880010
:104aa000161090000098a30087003200100220002a
:104ab00049f50700525f8000685f8000d25890007f
:104ac0007858900080cf50008a003100285890001c
:104ad0000040e800205c9800515f800011109000b9
:104ae00000f0a00090109800f90420000900780060
:104af0004f05be004f04be000080fa000000060013
:104b00002cf937000409a80013c0b3000300780093
:104b100007e9b700e800440080c0b3008b90200094
:104b20009490200003417800315a78008341e800d6
:104b30008001fd0007e9b7008001fd000040e900a9
:104b4000f8ff3a007850900011e9b70082c1e80000
:104b50000380fb0009f07d00e34141008380fb00fe
:104b60004848de0080f07d00e44141008380fb0086
:104b700030c0b30080f07d00654241008441780080
:104b80000400780007e9b7006881420081c0b300e3
:104b9000034378000380fb0032f07d008341e8008e
:104ba0000300780007e9b7008140e900f8ff3a0008
:104bb000e84142000380fb00f552900005f07d00c3
:104bc00086c1e8000300780007e9b700e4cbbf0026
:104bd000e7ebb7008040e8008000fd00e4ebb700a1
:104be0008000fd0060549800585890000040e80094
:104bf000505c9800b8009000814c8800181090001c
:104c00000098a3006d00320010022000f2f40700ab
:104c1000635f8000525f8000d3589000725890000c
:104c200080cf500070003100225890000040e80012
:104c300020599800615f80001110900000f0a000e2
:104c400090109800f9042000090078004f05be007c
:104c50004f04be000080fa0000000600d5f83700bf
:104c6000a94c900069549800514c8000405f80002e
:104c7000b148900071509800fc0b07000dfd370003
:104c800000992000d60407000004e000acf93200cf
:104c900018608000ccfd37000042eb00485f8000c8
:104ca00010fa370068099000a8589000685a9000e0
:104cb000c40207000004e000f7ff320084c8b3001c
:104cc000485f800007fa370020022000c2f4070086
:104cd000525f8000d25890008180fb00685f8000a6
:104ce000785890000080fb000000e900808f5000a1
:104cf00076ff3500121090000030a00010119800cf
:104d0000285890000040e800205c9800515f800027
:104d10001110900000f0a00090109800f9042000fd
:104d200072ff3700e3cf5400fbfd3a007390200080
:104d3000934178008380fb008b90200030c8b30043
:104d400080f07d008341e8000300780007e9b700a8
:104d5000034178000380fb00a1b920009140780056
:104d600001f07d008341e8000380fb00b3b920001f
:104d70009341780003f07d0082c1e8008380fb004e
:104d80000040eb0080f07d00e3414100030078002b
:104d900007e9b700400028008ff40700f90420005d
:104da000fffe3700615f8000111090000090a100ad
:104db00090109800695f800073fd3700200220008a
:104dc00085f40700635f8000d35890008180fb006a
:104dd000525f8000725890000080fb000000e900e4
:104de000808f500090ff3500131090000030a0001d
:104df00090119800225890000040e8002059980037
:104e0000615f80001110900000f0a00090109800e9
:104e1000f90420008cff3700515f800011109000d2
:104e20000090a10090109800685f800088047800ce
:104e30000800e0000efd3a0011fd370072cabf0005
:104e40007f0060000100320010002000000006001a
:104e50000400fa00889fbe00726aef00e0a52000ff
:104e600021a720000018eb00808f5000fdff3a00c2
:104e7000e2a720000200780021a920000018eb0022
:104e8000810f5000fdff3a0040a720000018eb0002
:104e9000800f5100fdff3a00a09b200021a62000ba
:104ea0000088eb0068004000808f5000fcff3a0053
:104eb000668457003161800022c0b300080078008a
:104ec000ce270700a1352c005fb89700810f500056
:104ed00008003200d1bf9f003061800022c0b300c3
:104ee00088007800032807005061800041002000fe
:104ef000d7280700c15f800022c0b3006880570038
:104f0000be270700b0e72400c0bf9f00c05f80003d
:104f100022c0b300e8805700f627070002ecef003c
:104f200003ecef000004eb0049062000b05f8000b6
:104f300000004400a2c0b300a1bf2000ed2707007d
:104f40006a044400890f5400f8ff3a00a66aef0093
:104f50000040200020558800a22aef004f04be0028
:104f60000080fa000000060088c9bf008000eb0046
:104f7000050032000040e90088e9b700504c80008d
:104f8000b080fb00504c8800010078000000060053
:104f9000ea874700889fbe008a9fbe008c9fbe00a4
:104fa0008e1f7800800678000147780072aaa8005a
:104fb0005cc1b3008004eb00a89b20006a9b20002a
:104fc0008945780098007800818f56000e003200e5
:104fd000f54f5600240032008904e80068054500ba
:104fe00068044400f58f5400f5ff3a000000eb0020
:104ff0004f0778004f06be004f05be004f04be00ad
:10500000af00b1000000060028409000804f57001c
:10501000efff3a0076805700682a07005fb09700dc
:10502000efb09700008dbe0010002000f44f560036
:10503000efff3e000c80fb004300dd00a19b200041
:10504000010040000088eb00100020004f077800ae
:105050004f06be004f05be004f04be00af00b100ba
:1050600000000600e8ff3700e18f4000daff3a0059
:10507000804c8000000c78002e449800728057000d
:105080004e2a07007fb097008fb8970060bc9f0042
:1050900071bc9f000b4678008904e8006805450054
:1050a00068044400f58f5400c5ff3a00cfff370075
:1050b000889fbe008a1f7800000578000004eb007e
:1050c0006a40b900220cb40000618800a2c0b3009d
:1050d00080007800c09a200048270700604d8000bb
:1050e0008a0f5000070032000804e800e80f54005f
:1050f000f3ff3a00080078004f0578004f04be0027
:10510000000006000880fb004f0578004f04be0039
:1051100000000600fbff3700e4874700889fbe00c1
:105120008a9fbe008c9fbe008e1f7800800578008d
:1051300001467800820678008004eb006f855700f6
:10514000eec220000980fb004304de0041618000c4
:105150008100440012c0b3000a007800272707002e
:10516000506180008000440012c0b300708057007e
:105170002227070009047800e78064000ff19700f8
:105180000280fb000180de000008a3000b003a0053
:105190008904e800f98f5400eaff3a00f80f200074
:1051a000080078004f0778004f06be004f05be008c
:1051b0004f04be004f00b100000006001ff0970032
:1051c0000080fb000180de000008a300f0ff320039
:1051d000c348dd006061800080804000216188005c
:1051e00082c0b300e0c22000042707009e8f150094
:1051f000e7ff3a0030ccbf008c4f5000e4ff3a008c
:10520000906180008d0f5000e5ff32008904e800b6
:10521000f98f5400cbff3a00e0ff3700889fbe00b3
:105220008a9fbe0000047800014578000104e00078
:105230001800320068004000e60f500015003600ec
:10524000cb9a20008004eb00116180008180440033
:1052500001618800a2c0b300c09a2000e7260700c1
:10526000e10f440010003200604d8000800f5400b8
:105270000d003200ea84440000052000808f5400b5
:10528000f1ff3a000000eb004f05be004f04be00e6
:1052900000000600100020004f05be004f04be00b5
:1052a00000000600fbff37008000eb00e39a2000bf
:1052b0000141780061c07900804f55001400320030
:1052c0000141e8008100e800e88f5000f8ff3a0053
:1052d000e84f5100e7ff3200e64f5100130036005f
:1052e000b5e9ef0000618000a2c0b300c19a2000c0
:1052f00000270700e10f4400e2ff3a00ea8444007f
:1053000000052000808f5400cfff3a00ddff3700fa
:105310000104e000f0ff3a00f09a200000c1eb0029
:10532000904f110010003200014178008280fb0094
:105330006380400060c07d0080f079000241e80099
:10534000e74f5100e6ff32008280fb00638040009f
:1053500060c07d0080f079000241e800e74f510015
:10536000f2ff3a00deff3700aee9ef00aca9ef0034
:1053700000618000a2c0b300c19a2000dd260700b2
:10538000e10f4400ddff3200beff3700f487470025
:10539000889fbe008a9fbe008c9fbe008e1f780033
:1053a00080067800a1ef9f00e2b79f00f3b79f004f
:1053b00084f79f008004eb007f865700eec2200038
:1053c000094578008985fb00435cde00416180006f
:1053d0008100440012c0b3000c007800872607004b
:1053e000506180008000440012c0b30000fe2f0016
:1053f0000f00400081260700e78064000fe197005e
:105400000280fb000180de000008a30005003200de
:105410001fe097000080fb000180de000008a30071
:1054200049003a008904e800f98f5400e4ff3a008b
:105430005161800012c0b30000fe2f000f00400039
:105440006e2607000004eb00084578008fe0970007
:105450000180fb00e70064000180de000008a3007b
:10546000650032000a45e8008a85fb00c358de006b
:10547000506180008080400012c0b30000fe2f0009
:105480000f0040005d2607000804e800f90f5400f3
:10549000edff3a00f94f5500c20032004358dd00dd
:1054a0006161800001004000206188007d6188000a
:1054b0002fe8970030ecb700efb0970091618800bb
:1054c00034ecef005161800012c0b30000fe2f00e9
:1054d0000f004000492607008044eb008006eb00e7
:1054e0000fe197000280fb00e78066000180de008c
:1054f0000008a30002003a00894f55004a003a0014
:105500008944e8008986fb00c368de0050618000a2
:105510008080400012c0b30000fe2f000f0040004a
:1055200036260700f8cf5400f3ff3e000fe1970046
:105530000280fb00e78066000180de000008a30017
:10554000edff3200eeff3700c348dd0060618000f0
:10555000808040002161880082c0b300e0c220004a
:10556000262607009e8f1600aeff3a0030ccbf0003
:10557000afe8970080cf5000aaff3a00906180000a
:105580006fb19700820f5000a6ff3a0034ccbf00e5
:1055900080ef9f000fe89700e14f4000c9ff320005
:1055a0008080fb00c308dd006061800080804000d7
:1055b00082c0b3007e805700102607001fb09700fe
:1055c0007fb19700820f5000f2ff3a004fe0970042
:1055d0008ff0970080cf5000eeff3a000000eb0004
:1055e0004f0778004f06be004f05be004f04be00b7
:1055f0004f01b100000006008885fb004358dd0024
:105600006161800001004000206188007d618800a8
:105610002fe8970030ecb700efb097009161880059
:1056200034ecef00a7ff3700f9cf54005d003200e3
:1056300048c32000184478000900780034ecb70013
:105640002061800082c0b300e1c22000292607004b
:105650007fb09700706188000ff0970030ecb700c2
:105660000800780034ecb7004368dd006161800019
:10567000010040002061880082c0b300e1c2200028
:105680001c260700435dde0051618000810045005b
:1056900012c0b30000fe2f000f004000d725070006
:1056a0006784650019002000084cdd008fe097003a
:1056b0008140740081e79f00506180000000450038
:1056c0000941780001fe2f008f8040000926070065
:1056d0004161800081004500094178000c0078009c
:1056e000c62507001fe097000044740098e79f005c
:1056f0004061800000004500094178008c0078007e
:10570000fc250700436dde005161800081004500eb
:105710000941780000fe2f000f004000b725070068
:1057200067846600084cdd000fe1970002417400b9
:1057300082e79f0050618000000045000941780029
:1057400001fe2f008f804000ea25070041618000a4
:1057500081004500094178000c007800a72507006a
:1057600008c4ea001fe097000044640098e79f0027
:105770004061800000004500094178008c007800fd
:10578000dc2507000000eb004f0778004f06be0045
:105790004f05be004f04be004f01b10000000600df
:1057a00095ff3700700820004f0778004f06be00b5
:1057b0004f05be004f04be004f01b10000000600bf
:1057c0008dff3700e4874700889fbe008a9fbe0098
:1057d0008c9fbe008e1f7800830578008446780079
:1057e0004dfe070000477800e14f40001d003200e9
:1057f0008080fb00c308dd00606180008080400085
:105800002161880082c0b300e0c220007b25070030
:105810000e457800ecc2200048c3200018447800f0
:10582000e14f44000f0032008884fb00c348dd00d4
:1058300060618000808040002161880082c0b300e8
:10584000e0c220006d2507009c8f15000c0032007f
:105850000845780048c3200018447800e14f440010
:10586000f1ff3a00500020004f0778004f06be00bd
:105870004f05be004f04be004f00b10000000600ff
:1058800030ccbf008d4f5000f1ff3a004cc32000d8
:105890001c4678008a85fb00c358dd0060618000eb
:1058a000808040002161880082c0b300e0c22000f7
:1058b000522507000c00780034ecb700206180000e
:1058c00082c0b300e1c220008a250700434cde00fd
:1058d000516180008100440012c0b3007080570005
:1058e0004625070067806400190020000048dd009d
:1058f00000c0ea008ff097008140600081f79f00b0
:10590000506180000000440009417800f080570099
:10591000782507008a4f5700080032000000eb008e
:105920004f0778004f06be004f05be004f04be0073
:105930004f00b10000000600d1ff3700e14f4600e4
:10594000f6ff3a00435cde005161800081004400b4
:10595000094178007080570028250700678065009e
:105960000048dd0000c0ea008ff097008140600031
:1059700081f79f00506180000000440009417800d9
:10598000f08057005b2507000000eb004f07780010
:105990004f06be004f05be004f04be004f00b100d1
:1059a00000000600b6ff3700889fbe00a0bf2000a1
:1059b00021c0200000d8eb00808f5000fdff3a008e
:1059c00002ecef0003ecef000004eb0049062000be
:1059d000b05f800000004400a2c0b300a1bf20005f
:1059e000442507006a044400890f5400f8ff3a0078
:1059f0004f04be0000000600889fbe008a1f78008a
:105a0000800478000004eb004a062000b15f8000ab
:105a100081004400a2c0b300a0bf2000f72407000b
:105a200010608000e10f400006003200820020007c
:105a3000a1bf2000090078003beb07000000e00058
:105a4000070032006a0444008a0f5400efff3a0056
:105a50000000eb004f0578004f04be000000060078
:105a6000100020004f0578004f04be000000060023
:105a7000fbff3700889fbe008a1f780080047800f3
:105a80000004eb004a062000b15f80008100440062
:105a9000a2c0b300a0bf2000d8240700106080007f
