:020000040000FA
:10000000000204000000000086B1000086B100007C
:1000100086B1000086B1000086B1000086B1000004
:1000200086B1000086B1000086B1000086B10000F4
:1000300086B1000086B1000086B1000086B10000E4
:1000400086B1000086B1000086B1000086B10000D4
:1000500086B1000086B1000086B1000086B10000C4
:1000600086B1000086B1000086B1000086B10000B4
:1000700086B100009C97000054A9000086B10000E2
:1000800086B1000086B1000086B1000086B1000094
:1000900086B1000086B1000086B1000086B1000084
:1000A00086B1000086B1000086B1000086B1000074
:1000B00086B1000086B1000086B1000086B1000064
:1000C00086B1000086B1000086B1000086B1000054
:1000D00086B1000086B1000086B1000086B1000044
:1000E00086B1000086B1000086B1000086B1000034
:1000F00086B1000086B1000086B1000086B1000024
:1001000086B1000086B1000086B1000086B1000013
:1001100086B1000086B1000086B1000086B1000003
:1001200086B1000086B1000086B1000086B10000F3
:1001300086B1000086B1000086B1000086B10000E3
:1001400086B1000086B1000086B1000086B10000D3
:1001500086B1000086B1000086B1000086B10000C3
:1001600086B1000086B1000086B1000086B10000B3
:1001700086B1000086B1000086B1000086B10000A3
:1001800086B1000086B1000086B1000086B1000093
:1001900086B1000086B1000086B1000086B1000083
:1001A00086B1000086B1000086B1000086B1000073
:1001B00086B1000086B1000086B1000086B1000063
:1001C00086B1000086B1000086B1000086B1000053
:1001D00086B1000086B1000086B1000086B1000043
:1001E00086B1000086B1000086B1000086B1000033
:1001F00086B1000086B1000086B1000086B1000023
:10020000FFFFFF00FFFFFF0086B1000086B1000086
:1002100086B1000086B1000086B1000086B1000002
:1002200086B1000086B1000086B1000086B10000F2
:1002300086B1000086B1000086B1000086B10000E2
:1002400086B1000086B1000086B1000086B10000D2
:1002500086B1000086B1000086B1000086B10000C2
:1002600086B1000086B1000086B1000086B10000B2
:1002700086B100009C97000054A9000086B10000E0
:1002800086B1000086B1000086B1000086B1000092
:1002900086B1000086B1000086B1000086B1000082
:1002A00086B1000086B1000086B1000086B1000072
:1002B00086B1000086B1000086B1000086B1000062
:1002C00086B1000086B1000086B1000086B1000052
:1002D00086B1000086B1000086B1000086B1000042
:1002E00086B1000086B1000086B1000086B1000032
:1002F00086B1000086B1000086B1000086B1000022
:1003000086B1000086B1000086B1000086B1000011
:1003100086B1000086B1000086B1000086B1000001
:1003200086B1000086B1000086B1000086B10000F1
:1003300086B1000086B1000086B1000086B10000E1
:1003400086B1000086B1000086B1000086B10000D1
:1003500086B1000086B1000086B1000086B10000C1
:1003600086B1000086B1000086B1000086B10000B1
:1003700086B1000086B1000086B1000086B10000A1
:1003800086B1000086B1000086B1000086B1000091
:1003900086B1000086B1000086B1000086B1000081
:1003A00086B1000086B1000086B1000086B1000071
:1003B00086B1000086B1000086B1000086B1000061
:1003C00086B1000086B1000086B1000086B1000051
:1003D00086B1000086B1000086B1000086B1000041
:1003E00086B1000086B1000086B1000086B1000031
:1003F00086B1000086B1000086B1000086B1000021
:10040000CFD22100807F2200000188000000000080
:100410000A00070011000700000020000000E000B3
:10042000020032000000020000000000C6A5020029
:10043000000000000040DA000000FE004440A90077
:10044000009121000000E0000300320000002000C5
:10045000A00188004440A80000000600C0052B0051
:10046000010020001600370062004000E0804800D4
:10047000910188009001BA0062004000E0804800CD
:10048000910188009002BA0062004000E0804800BC
:100490000002EB006028E10005003A008301E9005A
:1004A00007003300038009000059EB000400370007
:1004B0006128E100010032000082EB000500070026
:1004C000910188001001BA000200E000E6FF3A0046
:1004D0000000050091018800800278006200400061
:1004E000E08048003559BA008301E9000800320075
:1004F0002559BA008301E900050032000400E0003C
:10050000F4FF320015D9BA008301E900F1FF3A0087
:1005100000000600889FBE00E30440000900A1001F
:10052000808F54004A003600E38F540001003E00E3
:1005300049002000726980000200E00002003200E1
:10054000820078000C00370001D320000300370040
:10055000908F5400230036008080E800110078005E
:100560000000E000FAFF3A000F003700908F5400BF
:100570001C0036008080E800110078000000E000D8
:10058000FAFF3A001201780001D32000030037007F
:10059000908F5400130036008080E800110078002E
:1005A000820F5000FAFF3A0068698000890F5400FA
:1005B000010031000904780008007800700007008D
:1005C0000000E00004003A00890F540020003200CF
:1005D0000804D100F5FF3700081878001F00070055
:1005E000D4FF370011017800920178006480510037
:1005F000890F50000300310012009000800878003D
:10060000070037000900410080087800920190003F
:10061000130098001100780012881400090978006E
:10062000910078000100E000050032001100900008
:100630000000E000020032000180E8000100370005
:100640000000EB00706988000280E80001003700BC
:100650000000EB004F04BE00000006000000E000B8
:10066000310032008080E90091027800E38F52006F
:100670002D0036000508A3002B003A008269800097
:100680000200E00002003200828F500004003100BE
:10069000020878008169880016003700030178009D
:1006A000920190000300E00002003200818F5100AF
:1006B000FAFF39001202780004004100808F5000D8
:1006C00019003900810F500003003A00050942006B
:1006D00082007800070037000300E00003003200CA
:1006E00005804000808F51000F0039009300980072
:1006F00011019800110190000200E0000A00320090
:1007000011804000820F500007003A00E0D2200024
:100710000008EB00110090001101780090084100E2
:100720001000900090009800000006008001EB008F
:1007300008003700E342780063C278008301E800D4
:1007400084CF5200030032000080EB000400390027
:1007500010000500828F5100F6FF3A000000EB0008
:10076000000006008001EB000200370061F0790014
:100770008301E800828F5100FCFF3A000000060070
:100780000000E0000300340004000700E10F400017
:1007900001003A000000EB0000000600889FBE0048
:1007A000800478002A0DE20004003A000000EB000B
:1007B000100007000000E0000A00350050698000CA
:1007C0000900E00002003A0000047800060037004B
:1007D0000004780009004000060007000000E00067
:1007E00001003D000084EB00080078004F04BE00CB
:1007F00000000600800078000000E00004003A00DD
:1008000020D32000506988000101780006003700DD
:100810000081EB00C0D22100808F500002003E001A
:10082000516988000001EB0002007800000006001A
:10083000889FBE008A9FBE00010578000100E0008D
:100840000400350008003C000000E00020003200F9
:100850000500370060001000E080180002003B0037
:1008600001F02C001A0037000004BE006011B8002F
:100870006B0920000982CF00020039000882CF00F6
:100880000441B000694252000E00320008003B00F3
:1008900082817100610164008904D1000884D30061
:1008A0008B05E8000442E800F9FF3A000500370034
:1008B0000804440089844C008B05E9000442E900E7
:1008C000FBFF3A00650007000AF0A70001F0A00056
:1008D0004F05BE004F04BE0000000600F4FF2F00CD
:1008E0008400370003F0A200889FBE008A9FBE00EC
:1008F0008C1F78009A000700A10033006450E100CB
:100900004F0032006420E1005200320003826C008C
:1009100007003B000905D0000306D000820F5400F9
:100920000C065D00020039000200320089017800E7
:10093000030678008582550004003D000003FD0099
:100940008103FD008502EA008B854200840F72005E
:1009500002003B0060001000E08018006011B80049
:100960000005EB007A28E1000A0039000600780053
:10097000C75DDD00F707B200878075002D003700E6
:10098000828171000A017800610560008180D100D8
:100990000080D3008502E900F9FF3B000604400017
:1009A0008784480002003B0060041400E0841C00BF
:1009B0000988A300070032008A81710082817100DA
:1009C000610164008904D1000884D3008B05E8002C
:1009D000170037000978A30013003A000B00E0006D
:1009E000130034008B05E9000804440089844C009E
:1009F0000A4474000978A3000D003A000B00E000DF
:100A0000070034008B05E9000804440089844C0089
:100A100001003A000B0020000978A300F7FF320024
:100A20000001EB0002003700828171000A017800AA
:100A30000A0007000CF0A70001F0A00059003700E1
:100A40006420E10002003A00838F6C0059003300FB
:100A50000801BE000200BE005200370081002000E5
:100A6000618055000B003D000B00200061FE2F004F
:100A70000100E1001D003400828171006101640009
:100A80008904D1000884D3000000E800FAFF3A008E
:100A9000710020006100640003007000020060002B
:100AA0000900320061044400E0844C000988A5007C
:100AB000050032008B05E8006808E10002003A00FA
:100AC0008904D1000884D300F20F20000258E1000D
:100AD00005003D00C75DDD00F907B20089807500A3
:100AE00008007800000006000BF827008B00780053
:100AF00000000500889FBE008A9FBE00841F78000A
:100B0000170007004F00780011003300F0FF2F009E
:100B1000838F6C0006003B00040565000A00A700F7
:100B20000800370009F0A600100020000800370078
:100B3000820F5400838F5C000300390010002000F6
:100B400001003E000000200009F0A7000000EA00BC
:100B50004F05BE004F04BE000000E000000006008C
:100B60000004BE00160007000003BE000405BE001E
:100B70000200BE0012000700844F7500000006004E
:100B80000200BE006450E100050036006420E10070
:100B9000020036000968A30001003A000800BE0008
:100BA0000160A0004F0678004F05BE004F04BE0054
:100BB00000000600F0FF2F00F1FF2700F9FF3700CB
:100BC000C70ADE00F107B200F50FB20008003200DC
:100BD000E1CF4200020032000170A00024000500B5
:100BE000810F700001003200040805004400050078
:100BF000810F700002003A00140005008502E90030
:100C00000000400081C04800FCFF3B000170A000D4
:100C1000240005000D0A0000202000002020000014
:100C2000203100003A200000456E000061620000A3
:100C30006C6500002F4400006973000061620000D1
:100C40006C650000204A00006F6900006E690000BA
:100C50006E67000020620000792000004F740000E1
:100C6000686500007220000044650000766900009D
:100C700063650000730D00000A20000020200000C2
:100C800020200000323A0000205200006571000070
:100C9000756500007374000020440000617400005A
:100CA00061200000467200006F6D000020410000CE
:100CB0006E6F000074680000657200002044000040
:100CC0006576000069630000650D00000A200000E1
:100CD0002020000020200000333A000020520000B5
:100CE0006571000075650000737400002044000009
:100CF0006174000061200000467200006F6D00000A
:100D00002061000020470000726F00007570000035
:100D1000206F000066200000446500007669000036
:100D200063650000730D00000A2000002020000011
:100D300020200000343A000020530000656E0000BF
:100D40006420000044610000746100002054000031
:100D50006F200000416E00006F74000068650000A5
:100D600072200000446500007669000063650000A1
:100D70000D0A000020200000202000002035000087
:100D80003A200000536500006E640000204400001B
:100D90006174000061200000546F000020610000B9
:100DA00020470000726F000075700000206F000087
:100DB000662000004465000076690000636500005D
:100DC000730D00000A2000002020000020200000F9
:100DD000363A000020410000646400002F520000F9
:100DE000656D00006F76000065200000446500001E
:100DF0007669000063650000207400006F2F00001A
:100E0000667200006F6D0000206100002047000046
:100E1000726F0000757000000D0A000020200000B5
:100E200020200000203700003A2000004475000018
:100E30006D700000204E00006569000067680000CA
:100E4000626F0000726800006F6F00006420000095
:100E5000496E0000666F0000726D00006174000052
:100E6000696F00006E0000000A8600000D0A000095
:100E7000456E0000746500007220000061200000D3
:100E80006D6500006E75000020630000686F000053
:100E900069630000653A0000200000000D0A0000B0
:100EA000303D00004469000073610000626C000086
:100EB000652000004A6F0000696E00002C200000D1
:100EC000313D0000456E0000616200006C6500006D
:100ED000204A00006F6900006E2000003A200000E8
:100EE000000D00000A4800006F770000206D000030
:100EF000616E0000792000006279000074650000D6
:100F0000732000006172000065200000796F00000E
:100F100075200000726500007175000065730000A7
:100F2000746900006E6700002868000065780000A2
:100F3000293A0000200000000D0A00005768000058
:100F400061740000206900007320000074680000D4
:100F500065200000736800006F72000074200000BC
:100F6000616400006472000065730000732000007B
:100F70006F66000020640000657600006963000071
:100F800065200000796F0000752000007761000087
:100F90006E74000020640000617400006120000095
:100FA000667200006F6D00003A200000000D000026
:100FB0000A5000006C6500006173000065200000AD
:100FC000656E000074650000722000007468000007
:100FD00065200000477200006F750000702000005F
:100FE00049440000206F0000662000007468000083
:100FF0006520000044610000746100002052000080
:101000006571000075650000737400003A200000EF
:10101000000D00000A5000006C65000061730000C4
:1010200065200000656E00007465000072200000FD
:1010300074680000652000006E7500006D6200009D
:1010400065720000206F00006620000062790000D9
:101050007465000073200000746F000020730000AE
:10106000656E0000642000002868000065780000BC
:10107000293A0000200000000D0A0000506C00001A
:101080006561000073650000206500006E7400005B
:101090006572000020740000686500002073000085
:1010A000686F00007274000020610000646400003A
:1010B0007265000073730000206F0000662000005E
:1010C000746800006520000064650000737400000F
:1010D000696E000061740000696F00006E200000FE
:1010E0006465000076690000636500003A20000036
:1010F000000D00000A4500006E74000065720000DB
:10110000207400006865000020470000726F000036
:101110007570000049440000206F00006620000048
:1011200064650000766900006365000073200000BC
:10113000746F000020730000656E000064200000E2
:1011400064610000746100003A200000000D00009E
:101150000A0A0000205700006861000074200000A7
:10116000477200006F7500007020000041630000AE
:101170007469000076690000747900002064000042
:101180006F200000796F000075200000776100007B
:101190006E740000207400006F200000646F000077
:1011A000203F0000200D00000A000000303D00003C
:1011B000416400006420000044650000766900007E
:1011C00063650000207400006F20000061200000B3
:1011D000477200006F750000702000000D0A0000CB
:1011E000313D0000526500006D6F00007665000023
:1011F000204400006576000069630000652000005F
:10120000667200006F6D0000206100002047000042
:10121000726F0000757000000D0A0000323D000082
:10122000526500006D6F00007665000020440000EC
:1012300065760000696300006520000066720000AA
:101240006F6D0000204100006C6C00002047000022
:10125000726F000075700000733A000020000000FB
:101260000D0A0000456E0000746500007220000049
:10127000313600002D620000697400002047000034
:10128000726F0000757000002049000044200000CB
:101290002848000065780000293A0000200000007E
:1012A0000D0A0000536800006F72000074200000F7
:1012B000202000002020000020200000202000002E
:1012C0002020000020200000204D000041430000AD
:1012D000202000002020000020200000202000000E
:1012E00020200000202000002020000020200000FE
:1012F00020540000797000006520000020200000CC
:101300002020000020200000205200006E74000009
:101310006C7300006869000070200000000D000080
:101320000A00000020200000202000007C20000097
:1013300020200000200000002020000020200000CD
:101340007C2000002020000020200000005200002F
:1013500054520000005200004644000000430000C8
:1013600052440000005500004B4E000000430000B6
:10137000484900004C44000020000000504100009B
:10138000524500004E540000005500004E4B000036
:10139000574E0000200000000D0A0000506C0000B5
:1013A0006561000073650000206500006E74000038
:1013B0006572000020740000686500002073000062
:1013C000686F000072740000206100006464000017
:1013D0007265000073730000206F0000662000003B
:1013E00074680000652000006465000073740000EC
:1013F000696E000061740000696F00006E200000DB
:1014000064650000766900006365000028680000DC
:1014100065780000293A0000200000004E6F0000AF
:10142000206E000065740000776F0000726B000092
:1014300073200000666F0000756E0000642E0000CF
:101440002020000054720000796900006E670000DF
:101450002061000067610000696E00002E2E000010
:101460002E0D00000A0000004E6500007477000099
:101470006F7200006B2800007329000020660000D6
:101480006F7500006E6400002E2000005472000092
:10149000796900006E670000207400006F20000072
:1014A0006A6F0000696E000020000000207C0000D0
:1014B000200000002E0D00000A0000002045000062
:1014C000727200006F72000020660000696E0000FA
:1014D000646900006E670000206E00006574000003
:1014E000776F0000726B00002E2000002054000077
:1014F00072790000696E00006720000061670000DB
:10150000616900006E2E00002E2E00000D0A000002
:10151000004A00006F6900006E2000007375000033
:10152000636300006573000073660000756C000063
:10153000210D00000A000000204300006F7500002C
:101540006C640000206E00006F740000206A0000D0
:101550006F6900006E20000061730000206F0000C2
:1015600072700000686100006E2E00002000000014
:101570004D75000073740000207400007279000043
:1015800020610000732000006E65000077200000DD
:101590006E6F0000646500002E2E00002E0D00000E
:1015A0000A00000054720000796900006E670000B4
:1015B0002061000067610000696E00002E2E0000AF
:1015C0002E0D00000A000000204300006F7500008F
:1015D0006C640000206E00006F740000206A000040
:1015E0006F6900006E200000736500006C650000EC
:1015F0006374000065640000206E000065740000E4
:10160000776F0000726B00002E2000000054000075
:1016100072790000696E0000672000006E650000AE
:10162000787400002064000069730000636F00009C
:101630007665000072650000642000006E650000A1
:10164000747700006F7200006B2E00002E2E0000D9
:101650000D0A0000004300006C650000616E000090
:10166000696E0000672000007570000020610000B6
:101670006E64000020720000657400007279000042
:10168000696E000067200000646900007363000059
:101690006F76000065720000792E00002E2E00008B
:1016A0000D0A0000005200006F7500007465000014
:1016B0007220000053740000617200007465000025
:1016C00064210000204500006E610000626C000093
:1016D000696E0000672000006A6F0000696E0000FC
:1016E000732E00002E2E00000D0A000000200000C6
:1016F000526F0000757400006572000020730000D6
:101700007461000072740000207500006E730000A8
:101710007563000063650000737300006675000068
:101720006C2E00002057000065200000636100005F
:101730006E6E00006F740000207200006F75000074
:101740007465000020660000726100006D65000095
:10175000732E00000D0A0000004A00006F690000AF
:101760006E6900006E670000207000006572000066
:101770006D69000074740000656400002E0D0000A7
:101780000A000000204A00006F6900006E2000007F
:1017900070650000726D00006973000073690000DD
:1017A0006F6E0000207500006E730000756300000E
:1017B0006365000073730000667500006C2E000006
:1017C0002057000065200000636100006E6E00007D
:1017D0006F740000206100006C6C00006F770000E7
:1017E000206A00006F6900006E7300002E0D00007B
:1017F0000A0000000D0A00004E6F00006465000042
:1018000020000000205700006974000068200000DC
:101810004D4100004320000041640000647200005C
:101820006573000073200000002000006A7500004E
:1018300073740000206A00006F6900006E6500008C
:10184000642E00000D0A0000005700006520000013
:101850006861000076650000206C0000656600008D
:101860007420000074680000652000006E650000B0
:10187000747700006F7200006B2E00000D0A0000EC
:10188000004100006E6F0000746800006572000087
:10189000206E00006F640000652000006861000099
:1018A000732000006C650000667400002074000066
:1018B00068650000206E000065740000776F00000E
:1018C000726B00002E0D00000A0000005A69000033
:1018D000674200006565000020530000746100004D
:1018E000636B00002068000061730000206200004C
:1018F000656500006E2000007265000073650000E1
:10190000742E00000D0A0000002000004C6500004D
:1019100061760000696E00006720000074680000B6
:10192000652000005A6900006762000065650000DC
:10193000206E000065740000776F0000726B00007D
:101940002E0D00000A0000000D0A0000204C0000CF
:10195000656E00003A20000000460000726F000033
:101960006D20000041640000647200006573000097
:10197000733A000020000000200D00000A20000043
:10198000526F000075740000657200002072000044
:101990006563000069650000766500006420000052
:1019A0006120000072650000737000006F6E00001F
:1019B000736500003A2000000D0A000020000000BE
:1019C000202000000D0A0000004700006F74000096
:1019D000204D000065730000736100006765000022
:1019E000206F00006E200000616E000020450000A6
:1019F0006E640000205000006F6900006E740000EB
:101A00000D0A000000450000727200006F720000B5
:101A10002000000020730000656E00006469000073
:101A20006E670000206D00006573000073610000A8
:101A3000676500002E0D00000A000000204D000028
:101A4000657300007361000067650000207300008B
:101A5000656E000074200000737500006363000071
:101A60006573000073660000756C00006C790000FF
:101A70002E0D00000A0000002050000065720000DA
:101A8000666F0000726D000020470000726F00005A
:101A900075700000204F000070650000726100004A
:101AA000746900006F6E00002E0D00000A00000037
:101AB00054720000796900006E6700002074000015
:101AC0006F2000006A6F0000696E0000206E000049
:101AD00065740000776F0000726B000020610000E9
:101AE00073200000616E0000206F00007270000023
:101AF000686100006E2E00002E2E00000D0A00000E
:101B0000002000004D75000073740000206E00007E
:101B10006F770000207400007279000020610000DF
:101B200073200000612000006E6500007720000037
:101B30006E6F0000646500002E2E00002E0D000068
:101B40000A00000054720000796900006E6700000E
:101B5000207400006F2000006A6F0000696E0000B2
:101B6000206E000065740000776F0000726B00004B
:101B70002061000073200000612000006E650000FD
:101B8000772000006465000076690000636500004E
:101B90002E2E00002E0D00000A0000002020000064
:101BA000200D00000A41000064640000656400002C
:101BB000206E00006F64000065200000746F00005C
:101BC00020670000726F0000757000002034000074
:101BD0000D0A000000200000202000000D0A000077
:101BE000526500006D6F0000766500006420000003
:101BF0006E6F00006465000020660000726F0000D8
:101C00006D200000677200006F75000070200000FA
:101C1000340D00000A000000205500006E6800002E
:101C2000616E0000646C00006564000020700000BC
:101C3000726900006D69000074690000766500003B
:101C40002E0D00000A0000000D0A00000D0A000021
:101C50000D0A00002A2A00002A2A00002A2A000071
:101C60002A2A00002A2A00002A2A00002A2A000024
:101C70002A2A00002A2A00002A2A00002A2A000014
:101C80002A2A00002A2A00002A2A00002A2A000004
:101C90002A2A0000000D00000A5A000069670000AF
:101CA0004265000065200000526F0000757400005E
:101CB00065720000202D000020760000322E00000A
:101CC000302D0000322E0000362E00003061000062
:101CD0000D0A00000D0A00000054000072610000AF
:101CE0006E73000063650000697600006572000095
:101CF0002D4D000052460000323400004A340000EE
:101D0000300D00000A0D00000A0000004D4C0000DC
:101D10004D4500005F44000049530000415300005E
:101D2000534F00004349000041540000455F00004C
:101D3000696E00006469000063610000746900005E
:101D40006F6E00002052000065730000756C00008B
:101D5000743A0000200000000D0A000044650000F5
:101D600076690000636500002041000064640000A3
:101D700072650000737300003A200000000D00003F
:101D80000A4400006973000061730000736F000073
:101D90006369000061740000652000005265000066
:101DA000617300006F6E00003A200000000D00001B
:101DB0000A410000434C0000204500006E74000002
:101DC000727900003A200000000D00000A000000B7
:101DD0000D0A00004D410000432000005049000062
:101DE000423A0000200000000D0A00004D410000B2
:101DF00043200000504100004E490000443A0000DA
:101E0000200000000D0A00004D41000043200000AA
:101E1000536800006F7200007420000041640000ED
:101E20006472000065730000733A00002000000037
:101E30000D0A000042650000616300006F6E000043
:101E4000204E00006F7400006966000079200000D9
:101E5000496E00006469000063610000746900005D
:101E60006F6E00002052000065730000756C00006A
:101E7000743A0000000D00000A4300006F6F00007C
:101E80007264000041640000647200004D6F000045
:101E9000646500003A200000000D00000A430000C5
:101EA0006F6F000072640000504100004E49000056
:101EB000643A0000200000000D0A0000436F00009B
:101EC0006F720000644100006464000072650000ED
:101ED000737300003A200000000D00000A4C00005F
:101EE0006F67000069630000616C00002043000020
:101EF000686100006E6E0000656C00003A20000012
:101F0000000D00000A5300007570000065720000AB
:101F100066720000616D000065530000706500008E
:101F2000633A0000200000000D0A00004C69000028
:101F30006E6B000051750000616C00006974000058
:101F4000793A0000200000000D0A000054690000EA
:101F50006D65000053740000616D0000703A000070
:101F6000200000000D0A0000414300004C45000025
:101F70006E740000727900003A200000000D00002D
:101F80000A530000636100006E200000436F0000F0
:101F90006E660000697200006D200000526500004E
:101FA000737500006C740000284100006374000029
:101FB000697600006520000053630000616E000038
:101FC000293A0000200D00000A00000050410000E6
:101FD0004E200000003A0000200000002000000019
:101FE0000D0A000053630000616E000020430000F2
:101FF0006F6E000066690000726D000020520000E4
:1020000065730000756C0000742800004F720000BA
:1020100070680000616E00002053000063610000E2
:102020006E2900003A0000000D0A0000556E000005
:1020300073630000616E00006E65000064200000A4
:1020400043680000616E00006E6500006C73000064
:102050003A200000000D00000A52000065730000E5
:10206000756C0000744C000069730000745300002C
:10207000697A0000653A0000200000000D0A0000A7
:102080006D61000063530000686F0000727400000F
:10209000416400006472000065730000733A000040
:1020A000200000000D0A00006D6100006350000078
:1020B000414E0000494400003A200000000D00009D
:1020C0000A4D00004C4D0000455F0000434F0000EA
:1020D0004D4D00005F530000544100005455000076
:1020E000535F0000696E00006469000063610000D6
:1020F000746900006F6E00002052000065730000DC
:10210000756C0000743A0000200000000D0A000009
:10211000504100004E490000443A000020000000F9
:102120000D0A000053720000634100006464000067
:1021300072650000737300003A200000000D00007B
:102140000A440000737400004164000064720000DF
:1021500065730000733A0000200000007800000062
:1021600000000000B4000000000000002C0100008E
:10217000000000001C02000000000000FC03000042
:1021800000000000BC070000000000003C0F000041
:10219000000000003C1E0000000000003C3C00006D
:1021A000000000003C780000000000003CF000004F
:1021B000000000003CE00000010000003CC0000006
:1021C000030000003C800000070000003C0000000D
:1021D0000F0000000D0A00004D43000050530000A6
:1021E0005F44000041540000415F0000696E000040
:1021F0006469000063610000746900006F6E000094
:102200002052000065730000756C0000743A0000F5
:10221000200000000D0A000053720000634100001E
:1022200064640000724D00006F640000653A0000B5
:10223000200000000D0A00005372000063410000FE
:1022400064640000723A0000200000000D0A0000E3
:10225000447300007441000064640000724D00008B
:102260006F640000653A0000200000000D0A0000C5
:102270004D410000432000004461000074610000F3
:1022800020540000726100006E7300006D69000050
:1022900073730000696F00006E200000526500003B
:1022A0006365000069760000656400003A20000064
:1022B000000D00000A4C0000696E00006B51000028
:1022C000756100006C690000747900003A2000001C
:1022D000000D00000A0000000D0A00004D41000042
:1022E0004320000050490000423A00002000000056
:1022F0000D0A00004D410000432000005041000045
:102300004E490000443A0000200000000D0A000081
:102310004D41000043200000536800006F72000030
:1023200074200000416400006472000065730000C6
:10233000733A000020000000020100000F0F0000AF
:102340000005000000000000000400000000000084
:102350000000000000000000000A00000000000073
:102360000100000002000000030000000400000063
:102370000500000006000000200000002100000011
:10238000220000000000000000000000000000002B
:10239000000000000A000000008000000180000032
:1023A000028000000380000004800000058000001F
:1023B00006800000208000002180000022800000B4
:1023C000000000000000000000000000000000000D
:1023D000010000000301000000000000000A0000EE
:1023E00000000000030000000400000038000000AE
:1023F00054000000700000008C000000C4000000C9
:10240000E0000000FF0000000000000000000000ED
:1024100000000000000000000A00000000000000B2
:1024200001000000020000001C0000003800000055
:10243000700000008C000000A8A00000C400000094
:10244000FF0000000000000000000000000000008D
:1024500000000000F0000000030100000000000088
:10246000000A00000000000001000000020000005F
:102470001C00000038000000700000008C0000000C
:10248000A8A00000C4000000FF0000000000000041
:102490000000000000000000000000000A00000032
:1024A0000000000001000000020000001C0000000D
:1024B00038000000700000008C000000A8A00000A0
:1024C000C4000000FF000000000000000000000049
:1024D000000000000000000010C1000000400000EB
:1024E000CE000000000000007F000000000000009F
:1024F00000000000303100003233000034350000AD
:1025000036370000383900004142000043440000E3
:10251000454600000000000000000000010000002F
:10252000000000008000EB00B0568000F007B20011
:1025300001003200110020000100780000000600B8
:10254000881F780004A9A900662CEF00682CEF0012
:1025500040628000206288000044EB00206280001E
:1025600022C1B300A1C52000A84C07000844E80020
:1025700020012000442CB400F94F5400F7FF3A002A
:102580004C6CEF00080078004DECB700566CEF0083
:10259000576CEF00580CA900C0532A005062880005
:1025A0003062800002C1B300A1C42000974C070034
:1025B0004F04780000000600889FBE008A9FBE007E
:1025C0008C1F7800000578000106780082057800ED
:1025D000E0618000D06188008044EB00094478000D
:1025E000D161800062C0B300E0C32000494C070005
:1025F000F06180008A0F5000100032000844E800AB
:10260000600020003A2CB400EF4F54000E003E0052
:102610000904E000F2FF320010628000000E780032
:1026200040CCBF00804D78000980FB004F06780049
:102630004F05BE004F04BE000000060019C0B300E5
:10264000EF4F5400F2FF36000904E000F2FF3A00B9
:1026500030C0B300804D78000000EB004F067800DA
:102660004F05BE004F04BE0000000600F3FF370018
:10267000384BEC0038EBB70002003A0010C0B30052
:1026800038EBB7000080FB000000060088C9BF00DF
:102690008000EB00050032000040E90088E9B70047
:1026A000504C8000B080FB00504C88000100780046
:1026B00000000600889FBE008A1F78000004EB001F
:1026C0000080FB0000004000640540007240B9003B
:1026D000480CB4002062880022C1B300800078005A
:1026E000A0C520000B4C070011638000804C8000C7
:1026F000808F5000060032000804E800F90F5400F3
:10270000F2FF3A004F0578004F04BE0000000600BB
:1027100060AD2000EA0078000880FB008080400067
:10272000F6804000114090000000A1009040980009
:102730004F0578004F04BE0000000600F4FF37008C
:10274000889FBE008A9FBE00004378008305780002
:102750000044EB00A5AB200027AC200095017800D9
:102760000300E000190032000604E000030032001C
:1027700063489000814F5000110032008582E800CC
:10278000858F5300F5FF3A0009C1B3000404E0004F
:102790000100350089C0B3000804E00004003200E5
:1027A000E0618000D06188000904E0000C003A007C
:1027B0000000EB004F05BE004F04BE000000060005
:1027C00043009000820F5000ECFF3A0018C0B300A5
:1027D0008582E800858F5300E0FF3A00EAFF37006A
:1027E0000045EB000A447800D161800062C0B3006C
:1027F000E0C32000C74B0700F06180008B0F500042
:102800000D00320000628000E30F50000A00320029
:102810000844E800600020003A2CB40088CF54003F
:10282000F1FF3A000A80FB004F05BE004F04BE00D6
:1028300000000600E2FF37001AC0B3000844E800B9
:10284000600020003A2CB40088CF5400E6FF3A0024
:10285000F4FF3700889FBE008A1F780000057800CB
:1028600040628000206288000004EB00216280004A
:1028700022C1B300A0C52000A64B0700692CAB0005
:1028800009003A0020012000442CB4000804E800AC
:10289000F90F5400F5FF3A00080078004F05780062
:1028A0004F04BE0000000600106380008A0F500035
:1028B000F4FF3A000880FB004F0578004F04BE008B
:1028C00000000600F8FF3700800178000409A80026
:1028D00022C0B300020078008EE9B70000618000DA
:1028E000604C880014618000844C88000001FD0069
:1028F0008FE9B7000001FD00004D8800C34C88003F
:102900001CCCBF0080487800A2E9B7008B69EF00BB
:10291000E18F4100080032008B09A8000300780015
:10292000CCFF0700F94F500003003200690CAB00E8
:1029300001003A008B49A80010C0B3008AE9B70033
:10294000000006000200FA00889FBE008A9FBE00B9
:102950008005780002047800E4CF500012003200B5
:102960000180FB0000004000A1AB200060807800E7
:102970002050900062C0B3000440BC00E1618000C0
:1029800081004100D161880062C0B300E0C3200033
:10299000604B0700402CEF00D061800062C0B300A4
:1029A000E1C32000994B070071902000914078000E
:1029B0000181FB008990200020C0B30000F17C0061
:1029C0000140E80007E9B7000080FB0018419000D3
:1029D00002F07C0001C0E80007E9B7000080FB00BE
:1029E0002841900002F07C0063C040000080FB00A2
:1029F0000BF07C0064C04000485DDE000080FB00FE
:102A00000AF07C0065C0400007E9B7000080FB00C9
:102A10004841900002F07C0066C0400007E9B70022
:102A20000080FB005841900002F07C0067C040002D
:102A300007E9B7000080FB006844900008F07C00C4
:102A4000E8C040008000FD0007E9B7008000FD00FD
:102A5000689020001844780005FF07008880FB007C
:102A600080F07C000840E9000080FB00A1C0B300BA
:102A700001F07C0008C0E9000080FB0031C22000AA
:102A80009140780001F07C00634054000080FB001E
:102A900022C220001241780002F07C006440540001
:102AA0000080FB000AF07C00654054000080FB00C1
:102AB0000BF07C00664054000080FB008040EB007F
:102AC00001F07C00674054000080FB0091C0B3001F
:102AD00001F07C00684454000800780006E9B70063
:102AE000804C8000EA80570077FF07004F05BE004A
:102AF0004F04BE000080FA00000006000400FA0047
:102B0000889FBE008A9FBE008C1F780080057800D9
:102B10000105780002067800E1618000D16188003B
:102B200062C0B300E0C32000FA4A07000044EB0093
:102B3000F06180008B0F50001B0032000844E80059
:102B4000D1618000E6804000D161880062C0B3009E
:102B5000E0C32000EF4A0700F04F5400F4FF3A00B2
:102B6000E1618000D161880062C0B300E0C3200051
:102B7000E84A07000044EB0000628000E30F5000C9
:102B8000090032000844E800D1618000E68040007E
:102B9000D161880062C0B300E0C32000DD4A0700B5
:102BA000F04F5400F4FF3A00084E78000000EB00AC
:102BB000A8AB2000080178008040780080047800ED
:102BC0001200E000060032008140E8000900E80041
:102BD0000281E800E40F5000F7FF3A008184FB0017
:102BE000014D780040C1B300C44D0700800078005B
:102BF0000980440008054000010D78000100E00054
:102C00001D003200FB618800190020000962880065
:102C1000D061800062C0B300E1C32000FB4A07001E
:102C20009A00780000C0EB00805098001A047800E9
:102C30006E805700AD4D07001FB89700AFB89700E2
:102C4000008CBE001A0078001C4678002C509800BA
:102C50009A0078000000EB00E0009800D62AA80057
:102C6000090078004F0678004F05BE004F04BE00F3
:102C70000080FA0000000600010078004F0678008E
:102C80004F05BE004F04BE000080FA0000000600A1
:102C9000F9FF37000400FA00889FBE008A9FBE003B
:102CA000800578000000EB00AAAD20008A007800C3
:102CB00000447800800478001100E0000800320031
:102CC0000844E8000900E8008180E800E70F5000B0
:102CD000F7FF3A00E74F5400300032008884FB00D1
:102CE00000C3B300854D0700898044000A85400079
:102CF000000D78000000E00028003200884D7800C8
:102D0000E48440006BAD20009A00780000C0EB0026
:102D1000C04898001A0478006C805700734D070073
:102D20002FB89700BFB8970070049800010C980066
:102D3000100C9800210C98009A007800310890003F
:102D40000050A100B00898009A0078003108900067
:102D50000000A1000010A0000020A1000030A10090
:102D6000B00898008000EB000901780033C0B30080
:102D700062807D0001004000735098008100E800EF
:102D8000F98F5000FAFF3A00100020004F05BE00F6
:102D90004F04BE000080FA00000006000000EB00B7
:102DA0004F05BE004F04BE000080FA000000060080
:102DB000FAFF3700234DE20005003A00080CAB0093
:102DC00019003A000040EB000080FB000000060004
:102DD00060C5200031C1B30090CF10000300360061
:102DE0000040EB000080FB00000006008829AB00DB
:102DF00018003200E0C4200041C0B30090CF1000A2
:102E0000F7FF3E0070C5200051C0B30090CF100006
:102E1000F3FF3E00D78AAB00F1FF3A0010C0B300C9
:102E20000080FB000000060060C5200031C1B30037
:102E300090CF1000E3FF3E008829AB0009003A0064
:102E4000D76AAB0007003A0010C0B3000080FB0057
:102E500000000600D76AAB00E6FF3A0010C0B300DE
:102E6000EFFF3700E0C4200041C0B30090CF100056
:102E7000D4FF3E0070C5200051C0B30090CF1000B9
:102E8000D0FF3E00D78AAB00EFFF32000040EB00DE
:102E9000CDFF3700889FBE0040628000206288001E
:102EA0000004EB002162800022C1B300A0C5200015
:102EB000184A0700692CAB000800320020012000EE
:102EC000442CB4000804E800F90F5400F5FF3A0060
:102ED000080078004F04BE00000006000880FB00D8
:102EE0004F04BE0000000600FCFF3700D1082000A0
:102EF000E24F500008003200090036005101200066
:102F0000E34F50000400320011002000E44F500055
:102F1000010032008000EB00010078000000060094
:102F2000D14321000004E000FBFF3200E14F5000DC
:102F3000F8FF3A00D035200000000600F8FF370007
:102F4000889FBE000004BE000204E0000A003200B8
:102F5000810F5000030039000000EB004F04BE0059
:102F6000000006000240E900E0FF07000000440006
:102F7000808F5400F8FF3100100020004F04BE0085
:102F800000000600F7FF3700889FBE008A9FBE0042
:102F90000005BE0040628000206288008044EB0093
:102FA0002162800022C1B300A0C52000D9490700DA
:102FB00040638000002CB20001242000810F5000EB
:102FC0001200320020012000442CB4008944E800A3
:102FD000F9CF5400F2FF3A00E2C420001241780019
:102FE000106180008A007800D5FF07000004E0002F
:102FF00016003A00D0608000800D7800100020009C
:103000004F05BE004F04BE0000000600186380009C
:10301000880F5500070032004E4CEC00004178004C
:103020008A00780008007800C5FF07000004E0006F
:10303000E4FF3200880D7800100020004F05BE002C
:103040004F04BE0000000600F0FF37000000EB0058
:103050004F05BE004F04BE0000000600EBFF370026
:103060000004E0001F003200096CEF0010C2B30042
:103070000AECB700E1C42000914078004309DD006C
:10308000020078000BECB70060C5200033C1B3002C
:1030900090CF110013003E00C0C4200083C1B300D4
:1030A00090CF11000F003E00B356800003B8A3007C
:1030B0000D003A00E4CF50000A003E000274A00068
:1030C000020078000BECB70070C5200051C0B300BF
:1030D00090CF100003003E0003C8A30001003A0097
:1030E0000B4CA80000000600E4CF5000F6FF3600AD
:1030F000000006004163800001017800020CB2006C
:1031000000042000800F5100100032000200E00097
:1031100002003A0090C1B3004DECB700692CA90041
:10312000662CEF00682CEF002062800022C1B30003
:10313000A1C52000B54907004C6CED00306280004D
:1031400002C1B300A1C42000B0493700566CED00A5
:103150000103B200F08F50000F00320010C0B30026
:10316000BFFF0700692CA900662CEF00682CEF0058
:103170002062800022C1B300A1C52000A34907003E
:103180004C6CED003062800002C1B300A1C420008D
:103190009E493700EDFF3700576CED0010C0B300BB
:1031A000AFFF0700EFFF3700A0C520000199200006
:1031B000070009003158780004618000246388000A
:1031C0006AECEF00414C80000118A30020003A0097
:1031D000688CA90068ACA800204DE20046003A00C7
:1031E0009062800010638800520CEC0090628800AE
:1031F000E20F400001003A00D76AA800C508DD00D0
:103200000110B200406380000080A1000100700046
:103210004063880068CCA80068ECA900692CA8006D
:103220002062800022C1B300A1C5200077490700B9
:10323000566CEC004C6CEC003062800002C1B300B4
:10324000A1C420007149070010C0B30084FF3700FB
:10325000688CA80068ACA900204DE20023003A0069
:10326000A462800014638800576CEC0082628000C6
:1032700002007800540CB400A06288006611B90006
:103280001461800004014100820F5000DBFF360012
:10329000D78AA800C508DD000110B2004063800095
:1032A0000080A100010070004063880068CCA80085
:1032B00068ECA900692CA8002062800022C1B3003C
:1032C000A1C5200051490700566CEC004C6CEC0085
:1032D0003062800002C1B300A1C420004B49070046
:1032E00010C0B3005EFF3700D9FF3700E0FF2F00AA
:1032F00010638800DCFF3700E0FF2F0010638800B8
:10330000B9FF3700889FBE008A9FBE000005BE003F
:1033100040628000206288000004EB00216280008F
:1033200022C1B300A0C52000FA480700692CAB00F9
:1033300009003A0020012000442CB4000804E800F1
:10334000F90F5400F5FF3A00080078004F05BE0061
:103350004F04BE0000000600106380008A0F50007A
:10336000F4FF3A00206380008B0F5000F1FF3A0019
:103370000880FB004F05BE004F04BE0000000600A1
:10338000F5FF3700EC874700889FBE008A9FBE008C
:103390008C9FBE008E1F78000045780001467800A3
:1033A0000000EB00EDAE20000D01780080407800B9
:1033B000000478001200E000080032008140E800BC
:1033C0000800E8000281E800E60F5000F7FF3A002D
:1033D000E6CF5000940032000184FB00C0C0B3006F
:1033E000C64B070080007800880544008D844500A6
:1033F000800C78000000E0008B0032000A04E0003E
:1034000026003A00C0FF2F008A29B40078854500C5
:103410006EAD2000824C8000A200980099007800D8
:103420008A09ED00504C880010407800F040980068
:10343000990078008A09ED00504C8800104078000F
:10344000E04098008AA9ED0088C9BF0068404000AC
:1034500088E9B70099007800A0409800190078002A
:1034600020409000A54B0700000478000000E00019
:1034700075003A0019007800A24B0700880C78000C
:10348000400020004F0778004F06BE004F05BE00E9
:103490004F04BE00CF00B1000000060010618000A4
:1034A000A0009800788545006EAD200019007800D6
:1034B000C14C8000310098001901780006C9BF0096
:1034C0000749B50071C8B300014040002041980091
:1034D0001900780020409000884B07000004780015
:1034E0000000E000E3FF32006A007F000808780077
:1034F0004660DD000034A000004C780089C9BF00A0
:103500000040400010449800829920001241780049
:103510002244980099C9BF003044980021C220007D
:10352000914078004144980032C220001241780056
:10353000524498000A9920001A4578006A4498007D
:10354000A2C9BF00704498006801440006C9BF00CA
:10355000E1C7B300814F500008003E008390200077
:103560000040E80006E9B7000080FB0060D9790060
:1035700006C9BF00814F5000F9FF36000749ED0032
:1035800007E9B700E14F40000900320082007800EF
:103590008390200002C050000080FB00E0D879003A
:1035A0000749ED0007E9B700E14F4000F9FF3A0095
:1035B000F884450069047F00768057004B4B070074
:1035C0005FB09700EFB09700400498005104980056
:1035D00069007F003000900078815700F780570025
:1035E00046FD07000004E00038003A0069007F0053
:1035F00010007800434B070069007F00414B070033
:103600000D8045000008EB00400020004F077800C7
:103610004F06BE004F05BE004F04BE00CF00B100F4
:10362000000006009DFF3700400020004F07780093
:103630004F06BE004F05BE004F04BE00CF00B100D4
:103640000000060095FF37006A007F000808780038
:103650000EFC0700F043B200C660DD0000CC700035
:103660000AFC07001044980008FC0700204498005A
:1036700006FC07003044980004FC07004044980012
:1036800002FC07005044980000FC07000045E900D8
:103690006A449800FDFB07007044980068044400E9
:1036A0008849E200C2FF3200F8FB0700005C7800A6
:1036B0008849E200BEFF3200F4FB0700005C78009E
:1036C0008849E200F8FF3A00B9FF37000409A90071
:1036D000F0C7B30006E9B7000040EB0007E9B70008
:1036E000AEAB20001FE897000080FB000000400008
:1036F00060047F00E0C0B300004B070000067800C4
:10370000600498000000E0001F003A001000200054
:1037100000628800D061800062C0B300E1C3200075
:103720003A4807001FE897000080FB0000004000B7
:1037300060007F00F34A07001FE897000080FB004D
:10374000000040000C307F0061AD200069807800EF
:1037500010007800EB4A070062AD20006900790094
:10376000E84A07008CB57E00400020004F07780033
:103770004F06BE004F05BE004F04BE00CF00B10093
:103780000000060045FF37001FE897000080FB009F
:103790000000400060007F00D1AE20009140780022
:1037A000614898001FE897000080FB00000040007F
:1037B0000E0040009000780012618000C200980066
:1037C000100078008040EB00714898009FE8970057
:1037D0008180FB00818040008E80400011017800D4
:1037E000120890000080A1000090A10000A0A0009D
:1037F00010099800910078001108900000B0A10015
:103800009008980010C0B300004E780000C8B300C4
:1038100010469800EDCABF00204698000040E8001E
:10382000EDEAB70062AD20006900790060409000C9
:10383000304698006900790070409000404698003A
:103840000040EB005046980089FB07006046980056
:103850007A46980031C2200091407800014E9800CD
:1038600022C2200012417800124E980000C0EB00E6
:10387000204E9800C0CFB300304E98000040EB00BF
:10388000404E980090C0B300504E98007280570090
:10389000964A07001FE897000080FB0000004000E8
:1038A00060027F007FB097008FB89700D21F2C0076
:1038B000F3FF2F00000041008180490020029800A2
:1038C00031029800100020004F0778004F06BE001C
:1038D0004F05BE004F04BE00CF00B100000006003F
:1038E000EEFE37000200FA00889FBE008A9FBE00ED
:1038F0008045780001047800024578008304780050
:1039000001007800D3FB0700F94F50000700320098
:1039100041638000010CB20000042000808F500041
:103920001E0032000100E0001C0032001261800025
:1039300004C8B300880178008040EB0001407800A3
:103940007FFB07000004E00009003200E24F550051
:10395000220032006A8157000800BE0016FB0700F3
:103960000004E00014003A00E14F5500230032004B
:103970000800BE0084FD07000004E00011003A00CA
:1039800010CDB30088E9B700200020004F05BE002D
:103990004F04BE000080FA0000000600880C78008A
:1039A0000000EB004F05BE004F04BE000080FA008F
:1039B00000000600F9FF37006FF097000004E000F8
:1039C000EBFF3A000000EB004F05BE004F04BE00C5
:1039D0000080FA0000000600F0FF370011C0B300BD
:1039E0000B40780067FE07004F05BE004F04BE0085
:1039F0000080FA0000000600E8FF37008A407800E7
:103A00000B4078005FFE07004F05BE004F04BE006C
:103A10000080FA0000000600E0FF3700881F7800F1
:103A200030002000006288003EACEF00E0618000C2
:103A3000D06188000044EB00D061800062C0B30018
:103A4000E1C32000714707000844E800600020003F
:103A50003A2CB400F04F5400F7FF3A004F047800BE
:103A600000000600889FBE008A9FBE0000457800C7
:103A70003008800038EBB7000469EF00B1568000D1
:103A8000D62AEF00D82AEF000000220080806000D4
:103A9000B056800000D0A10001007000B056880030
:103AA000A0B3200041B820000048EB000080E800EF
:103AB000808F5000FCFF3A000A04E00004003A0046
:103AC000A05880000000E000010032000D4A07000D
:103AD000142BEF008004EB00A8AD200088057800CF
:103AE0000A04E00007003A00180078000000E00037
:103AF0000400320010007800024A07001800780025
:103B0000004A0700801DEB008904E8000884E800F3
:103B1000E78F5400F2FF3A008004EB00E8AE20008B
:103B2000880578000A04E00007003A0018007800D1
:103B30000000E0000400320010007800F1490700A6
:103B400018007800EF490700801DEB008904E800A9
:103B50000884E800E68F5400F2FF3A000004EB000E
:103B6000A9AB2000890578000A04E00004003A00AF
:103B7000190078000000E00001003200E149070070
:103B8000801DEB000804E8008984E800E40F54007D
:103B9000F5FF3A00A1FF07004F05BE004F04BE002D
:103BA0000000060010C0B300AEFF070031628000C5
:103BB00002C1B300A0C42000D646070051628000B5
:103BC000C0532A00808F50000E0032005CFA0700BC
:103BD00040AC200081AD20000048EB0064004000B4
:103BE000810F5000FCFF3A00C0AF200041B120001F
:103BF0000088EB0064004000808F5000FCFF3A001A
:103C000000000600D0C4200091C1B30090CF100086
:103C1000EFFF320004A9A80040AC200081AD2000D5
:103C2000EDFF37000800FA00881F7800A12829005E
:103C30006A81570007000900315978008200B100FD
:103C40008100B1000004EB0082002000EA805700F0
:103C5000B6F207000000E00001003A001800200062
:103C6000080078004F0478000080FA000000060089
:103C7000889FBE008A1F780000057800406280009F
:103C8000206288000004EB002162800022C1B300A2
:103C9000A0C520009F460700692CAB0009003A0030
:103CA00020012000442CB4000804E800F90F54005F
:103CB000F5FF3A00080078004F0578004F04BE0079
:103CC0000000060082002000A1C520000A00780044
:103CD00096F207000000E000F1FF3A000880FB00C8
:103CE0004F0578004F04BE0000000600F5FF3700C6
:103CF000CF05B000889FBE008A9FBE008C9FBE008B
:103D00008E1F78000047EB000004780080FB2F0036
:103D10000F004000754907004F9E9700DF9E9700F7
:103D2000D64AAB000D00320040578000515780004A
:103D30000000560081805E00C2AE20001241780073
:103D40000281FB000300200044422F000411B80050
:103D5000820F5000838F580035003E000800E000BD
:103D600023003A0004C9BF000008A30027003A005E
:103D7000B25680000208A30093003A000218A30084
:103D8000B9003A000200E000300135000278A300DB
:103D9000C1073200D6EAA90084CBBF0088E9B7008A
:103DA00085CBBF0089E9B700645C8000844C880043
:103DB000A05C8000B15C8000C04C8800D14C8800C1
:103DC000C25C8000D35C8000E24C8800F34C880029
:103DD000C3042000030078004F0778004F06BE00A0
:103DE0004F05BE004F04BE00CF05B1000000060025
:103DF0006140B80071005000E080580014062000B7
:103E0000840F5000E08F58000C0036008001EB005A
:103E1000030078004F0778004F06BE004F05BE0034
:103E20004F04BE00CF05B10000000600F0FF3700D0
:103E3000080CA900D64AA900C8FF3700006001009D
:103E40002D043700A9043700F0FF3700EFFF3700DB
:103E5000EEFF37003A033700ECFF3700C6033700A8
:103E6000EAFF370086033700720437007602370016
:103E7000E6FF3700E5FF3700E4FF3700E3FF3700D8
:103E8000E2FF3700F8043700E0FF3700DFFF3700BC
:103E9000E9043700DDFF3700DCFF3700DBFF3700C8
:103EA0004205370046033700D8FF3700D7FF3700F9
:103EB000D6FF370031053700D4FF3700D3FF370076
:103EC000D2FF37004C04370019053700CFFF370009
:103ED000CEFF3700CDFF3700CCFF3700CBFF3700D8
:103EE000CAFF3700C9FF3700C8FF3700C7FF3700D8
:103EF000C6FF3700C5FF3700C4FF3700C3FF3700D8
:103F00009E0237000005370068043700F1043700CF
:103F1000EA023700EA033700DC033700E304370026
:103F20003D023700B9FF3700B8FF3700B7FF370051
:103F3000B6FF3700B5FF3700B4FF3700B3FF3700D7
:103F4000B2FF3700B1FF3700B0FF3700AFFF3700D7
:103F5000AEFF3700ADFF3700ACFF3700ABFF3700D7
:103F6000AAFF3700A9FF3700A8FF3700A7FF3700D7
:103F7000A6FF3700A5FF3700A4FF3700A3FF3700D7
:103F8000A2FF3700A1FF3700A0FF37009FFF3700D7
:103F90009EFF37009DFF37009CFF37009BFF3700D7
:103FA0009AFF370099FF370098FF370097FF3700D7
:103FB00096FF370095FF370094FF370093FF3700D7
:103FC00092FF3700B0023700E8AF9F00ABAD200092
:103FD0001B0478000800E00011003200180890006F
:103FE000A80890000001560081815E00790133002D
:103FF0000200BE000EF2070002A02B00B3752400E1
:1040000036F207000000E000E900340018007800F4
:10401000BC4807001B007800BA480700800DEB0081
:10402000EFA997008301E800E3AF9F008B85E800CC
:10403000E78F5100E6FF3A008040EB00A0AD200082
:104040001000E00005003A008140E8000080E80030
:10405000E7CF5000FAFF3A00D60AA900B256800016
:104060000218A30047FF32000002EB00A9AB2000BA
:104070000901780009047800920078000100E0004E
:104080000E003200E10190000300E0000B0032005E
:104090001108900000B8A3007F003A0021009000B2
:1040A000B10090000000560081805E0025E02300F2
:1040B000850F5000E08F58007F003E000402E800AA
:1040C0000884E8000281E800E40F5200EAFF3A00A9
:1040D000A8AB200029AC2000180278000400E00002
:1040E0000700320034015600A4815E00809628004B
:1040F00091002000800F5100818F59003E003E004A
:104100000884E800888F5400F3FF3A008042EB00F7
:10411000855F9F000540780066AD200006057800A9
:1041200005477800899020000080FB0000004000D7
:104130007800400060007B000000E0000F003200CB
:1041400030009000A1F92F000F8140008180E8002D
:104150008F80400086BF9F0017F907000FBB9700B4
:104160000004E000170632002F5997000204E00017
:104170003A063200E24F51003C0132008F5A97005C
:104180000540E800805F9F00E54F5000E6FF3600E5
:104190000040EB00805F9F00E1618000D1618800FA
:1041A000D161800062C0B300E0C320005945070020
:1041B00008628000E20F5400890632000F59970010
:1041C0000241E800825F9F00600020003A2CB400AA
:1041D000EF4F5100F2FF36000042EB00845F9F007A
:1041E000EE0AE20017013200B25680000200E00041
:1041F000E6FE3D00150037002450900062C0B30079
:104200000440BC00E161800081004100D161880070
:1042100062C0B300E0C320003E450700006280009A
:10422000E10F5000F50032001800780060009000A7
:104230000000E0000100320032480700180078005A
:1042400030480700000CEB00ADFF370060598000DC
:10425000715980000000560081805E0003802700B5
:10426000830F5000E08F5800C8FE3600A0CCB3008A
:1042700088E9B7008EA9EF00A00320004F0778005F
:104280004F06BE004F05BE004F04BE00CF05B10073
:1042900000000600D6FE370021009000B10090001B
:1042A0000000560081805E00F5C32900850F500094
:1042B000E08F580081FF36000040EB00805F9F00D8
:1042C0008590200007C9BF008080FB00B3F07A0012
:1042D0000040E80007E9B7008F5897000140E80068
:1042E000805F9F00E54F5000F6FF36000041EB0075
:1042F000825F9F006B9020009B4578000B80FB0045
:1043000033F07A008B45E9000B00780006E9B7002E
:104310000F5A97000440E800805F9F00E74F50006D
:10432000F6FF3600980078001108900000B0A10058
:104330009008980098017800130990004810DE005A
:1043400067404000670060004800DD00F18F2F00EB
:1043500001016100000171009209980018007800C5
:104360002C0098003D0098001801780092089000F9
:1043700000702000808460002104320081F92F0049
:104380008F8040000080EB004FF907000301200000
:10439000030078004F0778004F06BE004F05BE00AF
:1043A0004F04BE00CF05B1000000060090FE3700AC
:1043B000B80C90000902B20019FF3A000E10A100DB
:1043C000484D9000F94F550041053200E14F45003E
:1043D00091003200894178008A84FB000A4078000D
:1043E00022C1B3000440BC00416280008100410052
:1043F0002162880022C1B300A0C52000E3B79F005E
:10440000C444070042638000820078000120B200AB
:10441000EFB1970014053A001B804400760040007D
:10442000114098000A45E800E1C061004208DD0043
:104430000E24A100004777000E28A30002003A00D6
:10444000F84F5500E4FF36001B0478004A4C9800F2
:104450004208DD000E24A100004777000E28A300CB
:10446000EFFE32000E18A3009E0C3A00EFA8970052
:104470000184400066AD200059C2B3006190200065
:10448000914078000181FB00859020006400440089
:10449000E0017B003342900004F17A008145E9009D
:1044A0000B00780006E9B7000B80FB004341900049
:1044B00002F07A0081C5E9000B00780006E9B70038
:1044C0000B80FB007342900004F07A00E3C55000BB
:1044D0000B00780006E9B7000B80FB0063419000F9
:1044E00002F07A00E4C550000B00780006E9B7003E
:1044F0000B80FB00134A900004F07A00E5C55000E1
:104500000B00780006E9B7000B80FB000349900020
:1045100002F07A00E6C550000B00780006E9B7000B
:104520000B80FB00234A900004F07A00E7C550009E
:104530000B00780006E9B7000B80FB0033499000C0
:1045400002F07A00E8C550000B00780006E9B700D9
:104550000042EB00845F9F0013017800234090002D
:104560000004E00053043A006F88970081F92F009F
:104570008F80400086BF9F00D3F8070050C2B30071
:104580000FBB970080CF5400E20F32008980FB0000
:104590008180400090B320000F599700827078000E
:1045A0006400440060017B00A0B320003241900011
:1045B00082707800000120004F0778004F06BE008F
:1045C0004F05BE004F04BE00CF05B100000006003D
:1045D00007FE370061006100010020008301D10067
:1045E0000281D300020070008380700090F0070009
:1045F0000001BE00BCF007007FFE37002000200055
:1046000000628800D061800062C0B300E1C3200076
:104610007E44070004FF370078009000880890006F
:104620000000560081805E00F2E12400820F5000FD
:10463000E08F58007B053E00894078004A4C980086
:1046400083FF37000440780001AF20000040E800FD
:10465000805F9F00E64F5000810532003100E0008E
:10466000FAFF3200B2568000E0FE37000F5A970082
:104670008481FB00038041007800400060007D00E1
:10468000A000900010618000808F5000CF043200A5
:104690006890200018447800F5F707008880FB0038
:1046A00080F07C008845E9008B80FB00A0C0B3004F
:1046B00080F07C0088C5E9000B80FB0034C220003C
:1046C0001442780004F07C00E34554000B80FB00AA
:1046D00025C220009542780005F07C00E445540096
:1046E0000B00780006E9B7000B81FB0081F92F0071
:1046F0008F8040003180FB000000400078004000C7
:1047000060027D005440900000F17C00E5455400BB
:104710000B00780006E9B7000B80FB0044419000D5
:1047200002F07C00E64554000B80FB000EF07C009C
:10473000E74554000B81FB0090C0B30000F17C0002
:10474000E84554000B00780006E9B700729020009D
:10475000124178008281FB0030C0B30080F17C0000
:104760000240E8000080FB000EF07C0002C0E80080
:1047700007E9B7000080FB00E441900003F07C00F3
:104780006340410007E9B7000080FB00F44290005D
:1047900005F07C00644141000200780007E9B700A1
:1047A0002400900048F807008F5897000180FB0014
:1047B000000040007800400060007D00100078009C
:1047C000D04607000F5997000280FB000000400010
:1047D0007800400060007D000008EB00C94607003B
:1047E0008F5997000380FB0000004000E4AE2000DA
:1047F000040040000008EB00000120004F07780093
:104800004F06BE004F05BE004F04BE00CF05B100ED
:104810000000060076FD37008849E2008B0A32006E
:1048200010CCB30088E9B700E00320004F07780000
:104830004F06BE004F05BE004F04BE00CF05B100BD
:10484000000006006AFD370080F12800634607007B
:10485000B0F32800614607008EC9BF007346070009
:10486000D0F428005D4607008DC9BF006F460700E1
:104870008CC9BF006D460700C0F5280057460700E9
:10488000E098200024C0B300904F12000C003200CA
:1048900097C9BF006546070096C9BF006346070079
:1048A00095C9BF006146070094C9BF005F46070075
:1048B00093C9BF005D46070092C9BF005B46070071
:1048C00091C9BF005946070090C9BF00574607006D
:1048D000D0F62800414607008FC9BF0053460700A5
:1048E00010F828003D460700A1C9BF004F46070049
:1048F000A0C9BF004D46070040F928003746070011
:10490000A3C9BF004946070040FA28003346070004
:104910009BC9BF00454607009AC9BF004346070030
:1049200099C9BF004146070098C9BF003F4607002C
:1049300020FB280029460700A2C9BF003B4607000C
:104940008EC9BF00E24F500015063200E34F500001
:104950006F033200C01407008001EB0003007800F1
:104960004F0778004F06BE004F05BE004F04BE0043
:10497000CF05B100000006001DFD3700B1568000D4
:10498000000022000084600020FD3A004DCCBF00F2
:10499000F94F50001500320022C1B3000440BC00A2
:1049A00041628000810041002162880022C1B30081
:1049B000A0C520005743070068CCA80068ECA800F9
:1049C0002062800022C1B300A1C520008F430700F0
:1049D00090C1B3004DECB7003062800002C1B3005B
:1049E000A1C420008943070004A9A900885F9F0093
:1049F0000840780022C1B3000440BC00416280003E
:104A0000810041002162880022C1B300A0C52000BE
:104A100040430700692CAB0073023A008F5A97009D
:104A20000540E800805F9F00F84F5000F1FF36001E
:104A30000489A800A05880000000E00002003200B5
:104A400030460700142BEF00804C8000914C800012
:104A5000C0588800D15888008FC9BF001CEBB70030
:104A600010C0B3008EE9B700800220004F07780025
:104A70004F06BE004F05BE004F04BE00CF05B1007B
:104A800000000600DAFC370004C9BF000038A300AC
:104A9000080A3A0020CCB30088E9B70030072000AC
:104AA0004F0778004F06BE004F05BE004F04BE0002
:104AB000CF05B10000000600CDFC3700D7AAAB003F
:104AC000D2FC3A0004C9BF000038A300D50432006C
:104AD0008098200021C0B30090CF1000D1043A008C
:104AE00032B22000239A20000700090033597800D1
:104AF000D7CAA80010C0B3008EE9B700D0C0B30079
:104B00008FE9B700A0AA21000061880004B320004B
:104B1000259A200007000900355A78006014070024
:104B2000800220004F0778004F06BE004F05BE00F0
:104B30004F04BE00CF05B10000000600ACFC3700FA
:104B40008041EB00835F9F00034078008399200041
:104B500084982000004178008080FB00688040003D
:104B600060407A0080F079000241E800024078005D
:104B7000E74F5100F8FF360080C0B300805F9F0010
:104B8000009920003AFC0700805F9F00F94F500019
:104B90007A0C320014638000744C88008869EF003E
:104BA000700120004F0778004F06BE004F05BE0081
:104BB0004F04BE00CF05B100000006008CFC37009A
:104BC000F005290085450700600829008345070096
:104BD0008DC9BF00954507008CC9BF0093450700EC
:104BE000000929007D450700E098200031C0B3008E
:104BF00090CF1000C105320091C9BF008B4507005E
:104C000090C9BF0089450700F009290073450700D6
:104C1000F098200032C0B300904F1100C805320058
:104C200099C9BF008145070098C9BF007F450700AB
:104C3000809920000EFC0700805F9F008849E200F9
:104C400072FC3A00F94F500070FC32001363800090
:104C5000834C880016CBBF0088E9B7008969EF0054
:104C6000C00420004F0778004F06BE004F05BE006D
:104C70004F04BE00CF05B100000006005CFC370009
:104C800060E8280055450700C0EA280053450700A2
:104C900097C9BF006545070096C9BF006345070077
:104CA00095C9BF006145070094C9BF005F45070073
:104CB00093C9BF005D45070092C9BF005B4507006F
:104CC00091C9BF005945070090C9BF00574507006B
:104CD000F0EB28004145070088C9BF005345070095
:104CE00070ED28003D450700A2C9BF004F450700F1
:104CF00050EE2800394507008098200011C0B3000D
:104D000090CF100041FC3A008869EF0020ACEF0022
:104D100022ACEF0080EE28003045070040EF28006D
:104D20002E45070021CCBF004045070020CCBF0026
:104D30003E45070020F028002845070023CCBF008F
:104D40003A45070022CCBF003845070050EE280046
:104D500022450700CA130700000020004F07780013
:104D60004F06BE004F05BE004F04BE00CF05B10088
:104D7000000006001EFC37000489A9008849E200F3
:104D80007E043A00714C8000116188000469A8001B
:104D9000BB1307004DCCBF0022C1B3000440BC00D0
:104DA00041628000810041002162880022C1B3007D
:104DB000A0C520005742070068CCA90068ECA900F4
:104DC000A2C5200013C12000070009003359780054
:104DD0002062800022C1B300A1C520008B420700E1
:104DE00014638000D460880004A9A80030638000A8
:104DF0004800DE006F4060000040E8004EECB70065
:104E00003AF807008000780080628800C062800065
:104E1000E10160000C003A006608B90012618000F0
:104E2000000041000000E800906288000201E800F4
:104E3000A26288008001FD0056ECB70057ECB70075
:104E40008001FD00580CA80010C0B30084F80700D2
:104E50003062800002C1B300A1C420006B42070091
:104E6000D70AA80005618000054D8800A003200036
:104E70004F0778004F06BE004F05BE004F04BE002E
:104E8000CF05B10000000600D9FB370004C9BF0000
:104E90000038A30071083A0020CCB30088E9B700BD
:104EA000C00320004F0778004F06BE004F05BE002C
:104EB0004F04BE00CF05B10000000600CCFB370058
:104EC000009920006AFB0700F94F5000960A320053
:104ED00050CCB30088E9B700B00320004F0778003A
:104EE0004F06BE004F05BE004F04BE00CF05B10007
:104EF00000000600BEFB37008042EB00855F9F008C
:104F00000540780066AD2000C2AF20000080FB00A5
:104F1000C200DD00600220000100400060007B0054
:104F2000E10F400004003200010043005060900097
:104F3000A249E3002B0032008F5897000140E8009F
:104F4000805F9F00E54F5000F0FF36000041EB000E
:104F5000825F9F0039CBBF00A249E3000905320000
:104F600012002000B3B3200054022000825F9F0093
:104F7000840F5100A5FB32008200780013407800B6
:104F80000201E8008381E800A249E300F7FF3A004C
:104F900001804000A1B3200060C078008001EB00D8
:104FA0000004E00002003200A2E9B7004303200041
:104FB0000F5A97000480FB000000400001004000F1
:104FC0000048EB00030078004F0778004F06BE0052
:104FD0004F05BE004F04BE00CF05B1000000060023
:104FE00083FB37008849E2003F073A000280400017
:104FF0000088EB00D0FF370088C9BF00E303200022
:1050000074FB3200F54F4000E004320060CCB30086
:1050100088E9B700030078004F0778004F06BE000C
:105020004F05BE004F04BE00CF05B10000000600D2
:105030006FFB3700D6AAA900D6CAA800D0608000AE
:1050400004F60700805F9F00F94F50000100320016
:1050500028F80700A02829008299200007000900ED
:10506000305978008000B10020B2200023C0B30086
:1050700090CF1100480A3200B05680004D00DE008B
:105080000000A2006140600088E9B700D004200061
:105090004F0778004F06BE004F05BE004F04BE000C
:1050A000CF05B1000000060051FB3700D64AA90029
:1050B0008849E20049033A00080CA90089C9BF00E9
:1050C000E7F707008869EF008303200003007800FA
:1050D0004F0778004F06BE004F05BE004F04BE00CC
:1050E000CF05B1000000060041FB370067F507005F
:1050F00080EF9F0065F50700E0E79F0063F507007C
:105100000080FB0008F02F0008066600000676000D
:105110005EF50700C0E79F004800DD00FC0FB2000D
:105120000006760059F507000080FB0008056500C1
:105130000005750055F50700A0E79F008082FB0081
:10514000D5B79F004828DD00FA0FB20000057500B2
:105150004EF5070080E79F004CF5070000477800F8
:105160006FE097000038A3000C0032008040EB0095
:10517000815F9F000144780029AB200043F50700C0
:105180008880FB0080F07C000F5997000244E80003
:10519000885F9F00E74F5400F8FF3600EFE197006B
:1051A0000348A3000C0032000042EB00845F9F0024
:1051B00004447800A9AA200034F507008880FB0089
:1051C00080F07C008F5A97000544E800885F9F00BC
:1051D000E74F5400F8FF3600C04C8000E10F40005C
:1051E00091003200E50F46008F003E008FEA9700E5
:1051F000E3C66200E1CF560017073200106180005D
:10520000800F560059083A008A4C88006C4C880080
:1052100020C0B3008EE9B700500320004F0778008C
:105220004F06BE004F05BE004F04BE00CF05B100C3
:1052300000000600EEFA3700B1568000688060007A
:10524000E1063A0007FA0700D00320004F07780074
:105250004F06BE004F05BE004F04BE00CF05B10093
:1052600000000600E2FA37000099200080FA0700EB
:10527000805F9F00F94F5000E4FA32001463800011
:10528000C44C880010C0B30088E9B7003002200089
:105290004F0778004F06BE004F05BE004F04BE000A
:1052A000CF05B10000000600D1FA370010C0B300EE
:1052B00088E9B700400220004F0778004F06BE0083
:1052C0004F05BE004F04BE00CF05B1000000060030
:1052D000C7FA370004C9BF000038A3008E033A00A4
:1052E00020CCB30088E9B700900320004F07780076
:1052F0004F06BE004F05BE004F04BE00CF05B100F3
:1053000000000600BAFA370020CCB30088E9B700E5
:10531000700320004F0778004F06BE004F05BE0007
:105320004F04BE00CF05B10000000600B0FA370000
:1053300004C9BF00E84060008E073A0020CCB300EB
:1053400088E9B7000409A900FBC7B3000B00780087
:1053500006E9B7000100780007E9B7004003200024
:105360004F0778004F06BE004F05BE004F04BE0039
:10537000CF05B100000006009DFA3700930320001E
:105380008849E20093FA3A00D70AA800030078009F
:105390004F0778004F06BE004F05BE004F04BE0009
:1053A000CF05B1000000060091FA3700E098200018
:1053B00011C0B30090CF100046023A008849E200C5
:1053C000100432000489A900600320004F07780010
:1053D0004F06BE004F05BE004F04BE00CF05B10012
:1053E0000000060082FA3700696CA9002062800084
:1053F00022C1B300A1C520000441070087FD37008A
:1054000062009000BF430700180078006900980010
:1054100081F92F008F8040000080EB002AF5070003
:1054200003012000DAFB37000040EB00805F9F00A3
:1054300000417800ABAD20008B017800930078002C
:105440000100E0000300320031009000800F5500A1
:10545000690032000241E800825F9F008381E8001A
:10546000E74F5100F5FF3A008FE8970063C06000F6
:10547000E14F5000060532008FE19700E1CF510067
:1054800051003600B4F92F000F00420001F607006A
:105490000004E000C60332003F5897008080FB0004
:1054A00081804000E480400066AD200061017B0007
:1054B000B20890000140A1003109980086BF9F000A
:1054C0007CF407003F5897000080FB00000040007C
:1054D000640040000FBB970060007B0085982000AF
:1054E00095427800254098003F5897000080FB00C7
:1054F000000040006400400060007B008FE89700DF
:10550000314898003F5897000080FB0000004000A1
:105510006400400060007B006FE197002248980023
:105520003F5897000080FB000000400064004000EE
:10553000E0007B00CC009800E0007B00BA009800FF
:10554000E0007B008FE197000340E900C040980035
:105550003F5897000080FB000000400064004000BE
:1055600060007B003E4098003F5897000080FB00A1
:10557000000040006400400060047B0088C9BF0058
:1055800086BF9F005D43070080047800000C780010
:105590000FBB97000000E0007C0832000042EB00E7
:1055A000845F9F005B4C80008C9820001C46780034
:1055B0000C04E0001E003A005B4C88000C007800F0
:1055C00088E9B700D60AA800106180008A0F500051
:1055D0001B1032008A4C8800500320004F077800CF
:1055E0004F06BE004F05BE004F04BE00CF05B10000
:1055F00000000600FEF9370031409000804F570050
:1056000094FF3A00024078002AF407009211070044
:10561000000020004F0778004F06BE004F05BE0077
:105620004F04BE00CF05B10000000600F0F93700BE
:105630008F5C97003F5897000080FB0000004000FF
:105640006400400060007B000984FB0010044400FB
:1056500086BF9F000DF40700004C78008944E800E5
:10566000895F9F000FBB97008849E200D2FF32009C
:105670008F5C97003F5897000080FB0000004000BF
:105680006400400060007B000984FB0010044400BB
:1056900086BF9F00FDF30700004C78008944E800B6
:1056A000895F9F000FBB97008849E200E0FF3A0046
:1056B000C1FF370007C9BF008080FB00B2F07A004D
:1056C0000040E80007E9B7000F5897008040E80065
:1056D000815F9F0023409000814F5000A2FB360065
:1056E00007C9BF008080FB00B2F07A000040E800EC
:1056F00007E9B7000F5897008040E800815F9F00DE
:1057000023409000814F5000EAFF3E0096FB370097
:105710000099200056F90700F94F50003700320079
:10572000044D800004E8A300E5053200688CA90060
:1057300068ACA900690CA800534C8000A3409000FD
:105740008107B200C508DD0030638000F20F2F0032
:1057500002006000010070003063880093409000F8
:10576000CC08DD00F2FF20000200600001007000A4
:105770003063880013409000000FB2004400DE0048
:105780004163800002FF2F008280600080807000F3
:10579000A3C9BF0066ECB7004F20DE004A00DD0061
:1057A00001A0A10080807000416388002340900028
:1057B0004200DE00610060004B00DD0001B0A1008E
:1057C0008080700041638800634C80002363880000
:1057D000E0FF2F00106388008FC9BF006AECB7009C
:1057E0002062800022C1B300A1C52000074007004D
:1057F000191107008001EB0058FC3700A5F50700E0
:10580000F94F500053FC3200692CA80068CCA80066
:1058100068ECA8000041EB00825F9F000240780026
:10582000AEC52000849820008080FB006880400086
:1058300060407A0080707F000241E80002407800FA
:10584000E74F5100F8FF360080C0B300805F9F0033
:105850004C6CEC003062800002C1B300A1C4200097
:10586000EA3F0700AEFF37001B04780048009000B5
:10587000E40F400012003200E30F40000E0032003F
:105880001163800038009000808F50000C003200BF
:105890000288A300E3FA3A00E18F9F0089004400E8
:1058A000F6804000114090000000A1009040980058
:1058B00013C0B300DBFA37000288A300F0FF3A0000
:1058C000890044000040EB00F0509800D5FA370002
:1058D0000E00A0000900780088E9B70009017800EF
:1058E000F70044009141780061C0610007003A0070
:1058F000024078000201E8008100E800F90F510041
:10590000F8FF3A00F84F50002C00320000CFB300EF
:1059100088E9B700380890006F0060002700320067
:1059200018089000A80890000000560081805E00D2
:1059300034422F00840F5000E08F58005A013E007F
:105940000E00A1008041EB00E1C061004208DD00D3
:105950000E24A100004777000E08A300BCFA320015
:105960006FA997000204410066AD20006401440065
:10597000E2007B0031409000A2E9B70031089000BE
:105980000050A000B008980062007B003008900032
:10599000430320000048A3001CF9320003007800F4
:1059A0004F0778004F06BE004F05BE004F04BE00F3
:1059B000CF05B100000006000DF937008041EB0073
:1059C000E1FF37008F5A97008581FB00038041007B
:1059D00078004000E0007B001100780070409000EB
:1059E000A2E9B7008869EF001100780086BF9F0028
:1059F000444207008F5897000180FB0000004000E0
:105A0000780040000FBB970060007B003D4207001C
:105A10000F5997000280FB0000004000E3AE200019
:105A2000030040000008EB000409A900FBC7B30015
:105A30000B00780006E9B7000769EF00400320007B
:105A40004F0778004F06BE004F05BE004F04BE0052
:105A5000CF05B10000000600E5F837000F5A9700A7
:105A60008481FB00038041007800400060027B00DD
:105A7000A400900010618000808F50004C0632001E
:105A800082447800140178009E5F9F0003804100EB
:105A900078004000E0007B00214090000004E0001E
:105AA0000D003200859020008101780007C9BF00F9
:105AB0008080FB00B2F07A000040E80007E9B70000
:105AC0001F5897000040E800905F9F00A34090009F
:105AD00080CF5000F5FF3E006F88970093F92F00AC
