:020000040000FA
:100000000002040000000000529800005298000016
:100010005298000052980000529800005298000038
:100020005298000052980000529800005298000028
:100030005298000052980000529800005298000018
:100040005298000052980000529800005298000008
:1000500052980000529800005298000052980000F8
:1000600052980000529800005298000052980000E8
:1000700052980000D88000002C9000005298000098
:1000800052980000529800005298000052980000C8
:1000900052980000529800005298000052980000B8
:1000A00052980000529800005298000052980000A8
:1000B0005298000052980000529800005298000098
:1000C0005298000052980000529800005298000088
:1000D0005298000052980000529800005298000078
:1000E0005298000052980000529800005298000068
:1000F0005298000052980000529800005298000058
:100100005298000052980000529800005298000047
:100110005298000052980000529800005298000037
:100120005298000052980000529800005298000027
:100130005298000052980000529800005298000017
:100140005298000052980000529800005298000007
:1001500052980000529800005298000052980000F7
:1001600052980000529800005298000052980000E7
:1001700052980000529800005298000052980000D7
:1001800052980000529800005298000052980000C7
:1001900052980000529800005298000052980000B7
:1001A00052980000529800005298000052980000A7
:1001B0005298000052980000529800005298000097
:1001C0005298000052980000529800005298000087
:1001D0005298000052980000529800005298000077
:1001E0005298000052980000529800005298000067
:1001F0005298000052980000529800005298000057
:10020000FFFFFF00FFFFFF00529800005298000020
:100210005298000052980000529800005298000036
:100220005298000052980000529800005298000026
:100230005298000052980000529800005298000016
:100240005298000052980000529800005298000006
:1002500052980000529800005298000052980000F6
:1002600052980000529800005298000052980000E6
:1002700052980000D88000002C9000005298000096
:1002800052980000529800005298000052980000C6
:1002900052980000529800005298000052980000B6
:1002A00052980000529800005298000052980000A6
:1002B0005298000052980000529800005298000096
:1002C0005298000052980000529800005298000086
:1002D0005298000052980000529800005298000076
:1002E0005298000052980000529800005298000066
:1002F0005298000052980000529800005298000056
:100300005298000052980000529800005298000045
:100310005298000052980000529800005298000035
:100320005298000052980000529800005298000025
:100330005298000052980000529800005298000015
:100340005298000052980000529800005298000005
:1003500052980000529800005298000052980000F5
:1003600052980000529800005298000052980000E5
:1003700052980000529800005298000052980000D5
:1003800052980000529800005298000052980000C5
:1003900052980000529800005298000052980000B5
:1003A00052980000529800005298000052980000A5
:1003B0005298000052980000529800005298000095
:1003C0005298000052980000529800005298000085
:1003D0005298000052980000529800005298000075
:1003E0005298000052980000529800005298000065
:1003F0005298000052980000529800005298000055
:100400008F522100807F2200000188000000000040
:100410000A00070011000700000020000000E000B3
:10042000020032000000020000000000A08C020068
:10043000000000000040DA000000FE004440A90077
:10044000C01A21000000E00003003200000020007C
:10045000A00188004440A80000000600007A29009E
:10046000010020001600370062004000E0804800D4
:10047000910188009001BA0062004000E0804800CD
:10048000910188009002BA0062004000E0804800BC
:100490000002EB006028E10005003A008301E9005A
:1004A00007003300038009000059EB000400370007
:1004B0006128E100010032000082EB000500070026
:1004C000910188001001BA000200E000E6FF3A0046
:1004D0000000050091018800800278006200400061
:1004E000E08048003559BA008301E9000800320075
:1004F0002559BA008301E900050032000400E0003C
:10050000F4FF320015D9BA008301E900F1FF3A0087
:1005100000000600889FBE00E30440000900A1001F
:10052000808F54004A003600E38F540001003E00E3
:1005300049002000226980000200E0000200320031
:10054000820078000C00370061D2200003003700E1
:10055000908F5400230036008080E800110078005E
:100560000000E000FAFF3A000F003700908F5400BF
:100570001C0036008080E800110078000000E000D8
:10058000FAFF3A001201780061D220000300370020
:10059000908F5400130036008080E800110078002E
:1005A000820F5000FAFF3A0018698000890F54004A
:1005B000010031000904780008007800700007008D
:1005C0000000E00004003A00890F540020003200CF
:1005D0000804D100F5FF3700081878001F00070055
:1005E000D4FF370011017800920178006480510037
:1005F000890F50000300310012009000800878003D
:10060000070037000900410080087800920190003F
:10061000130098001100780012881400090978006E
:10062000910078000100E000050032001100900008
:100630000000E000020032000180E8000100370005
:100640000000EB00206988000280E800010037000C
:100650000000EB004F04BE00000006000000E000B8
:10066000310032008080E90091027800E38F52006F
:100670002D0036000508A3002B003A0032698000E7
:100680000200E00002003200828F500004003100BE
:1006900002087800316988001600370003017800ED
:1006A000920190000300E00002003200818F5100AF
:1006B000FAFF39001202780004004100808F5000D8
:1006C00019003900810F500003003A00050942006B
:1006D00082007800070037000300E00003003200CA
:1006E00005804000808F51000F0039009300980072
:1006F00011019800110190000200E0000A00320090
:1007000011804000820F500007003A0040D22000C4
:100710000008EB00110090001101780090084100E2
:100720001000900090009800000006008001EB008F
:1007300008003700E342780063C278008301E800D4
:1007400084CF5200030032000080EB000400390027
:1007500010000500828F5100F6FF3A000000EB0008
:10076000000006008001EB000200370061F0790014
:100770008301E800828F5100FCFF3A000000060070
:100780000000E0000300340004000700E10F400017
:1007900001003A000000EB0000000600889FBE0048
:1007A00080047800200DE20004003A000000EB0015
:1007B000100007000000E0000A003500006980001A
:1007C0000900E00002003A0000047800060037004B
:1007D0000004780009004000060007000000E00067
:1007E00001003D000084EB00080078004F04BE00CB
:1007F00000000600800078000000E00004003A00DD
:1008000080D22000006988000101780006003700CE
:100810000081EB0080522100808F500002003E00DA
:10082000016988000001EB0002007800000006006A
:10083000889FBE008A9FBE00010578000100E0008D
:100840000400350008003C000000E00020003200F9
:100850000500370060001000E080180002003B0037
:1008600001F02C001A0037000004BE006011B8002F
:100870006B0920000982CF00020039000882CF00F6
:100880000441B000694252000E00320008003B00F3
:1008900082817100610164008904D1000884D30061
:1008A0008B05E8000442E800F9FF3A000500370034
:1008B0000804440089844C008B05E9000442E900E7
:1008C000FBFF3A00650007000AF0A70001F0A00056
:1008D0004F05BE004F04BE0000000600F4FF2F00CD
:1008E0008400370003F0A200889FBE008A9FBE00EC
:1008F0008C1F78009A000700A10033006450E100CB
:100900004F0032006420E1005200320003826C008C
:1009100007003B000905D0000306D000820F5400F9
:100920000C065D00020039000200320089017800E7
:10093000030678008582550004003D000003FD0099
:100940008103FD008502EA008B854200840F72005E
:1009500002003B0060001000E08018006011B80049
:100960000005EB007A28E1000A0039000600780053
:10097000C75DDD00F707B200878075002D003700E6
:10098000828171000A017800610560008180D100D8
:100990000080D3008502E900F9FF3B000604400017
:1009A0008784480002003B0060041400E0841C00BF
:1009B0000988A300070032008A81710082817100DA
:1009C000610164008904D1000884D3008B05E8002C
:1009D000170037000978A30013003A000B00E0006D
:1009E000130034008B05E9000804440089844C009E
:1009F0000A4474000978A3000D003A000B00E000DF
:100A0000070034008B05E9000804440089844C0089
:100A100001003A000B0020000978A300F7FF320024
:100A20000001EB0002003700828171000A017800AA
:100A30000A0007000CF0A70001F0A00059003700E1
:100A40006420E10002003A00838F6C0059003300FB
:100A50000801BE000200BE005200370081002000E5
:100A6000618055000B003D000B00200061FE2F004F
:100A70000100E1001D003400828171006101640009
:100A80008904D1000884D3000000E800FAFF3A008E
:100A9000710020006100640003007000020060002B
:100AA0000900320061044400E0844C000988A5007C
:100AB000050032008B05E8006808E10002003A00FA
:100AC0008904D1000884D300F20F20000258E1000D
:100AD00005003D00C75DDD00F907B20089807500A3
:100AE00008007800000006000BF827008B00780053
:100AF00000000500889FBE008A9FBE00841F78000A
:100B0000170007004F00780011003300F0FF2F009E
:100B1000838F6C0006003B00040565000A00A700F7
:100B20000800370009F0A600100020000800370078
:100B3000820F5400838F5C000300390010002000F6
:100B400001003E000000200009F0A7000000EA00BC
:100B50004F05BE004F04BE000000E000000006008C
:100B60000004BE00160007000003BE000405BE001E
:100B70000200BE0012000700844F7500000006004E
:100B80000200BE006450E100050036006420E10070
:100B9000020036000968A30001003A000800BE0008
:100BA0000160A0004F0678004F05BE004F04BE0054
:100BB00000000600F0FF2F00F1FF2700F9FF3700CB
:100BC000C70ADE00F107B200F50FB20008003200DC
:100BD000E1CF4200020032000170A00024000500B5
:100BE000810F700001003200040805004400050078
:100BF000810F700002003A00140005008502E90030
:100C00000000400081C04800FCFF3B000170A000D4
:100C1000240005000D0A0000202000002020000014
:100C2000203100003A200000456E000061620000A3
:100C30006C6500002F4400006973000061620000D1
:100C40006C650000204A00006F6900006E690000BA
:100C50006E67000020620000792000004F740000E1
:100C6000686500007220000044650000766900009D
:100C700063650000730D00000A20000020200000C2
:100C800020200000323A0000205200006571000070
:100C9000756500007374000020440000617400005A
:100CA00061200000467200006F6D000020410000CE
:100CB0006E6F000074680000657200002044000040
:100CC0006576000069630000650D00000A200000E1
:100CD0002020000020200000333A000020520000B5
:100CE0006571000075650000737400002044000009
:100CF0006174000061200000467200006F6D00000A
:100D00002061000020470000726F00007570000035
:100D1000206F000066200000446500007669000036
:100D200063650000730D00000A2000002020000011
:100D300020200000343A000020530000656E0000BF
:100D40006420000044610000746100002054000031
:100D50006F200000416E00006F74000068650000A5
:100D600072200000446500007669000063650000A1
:100D70000D0A000020200000202000002035000087
:100D80003A200000536500006E640000204400001B
:100D90006174000061200000546F000020610000B9
:100DA00020470000726F000075700000206F000087
:100DB000662000004465000076690000636500005D
:100DC000730D00000A2000002020000020200000F9
:100DD000363A000020410000646400002F520000F9
:100DE000656D00006F76000065200000446500001E
:100DF0007669000063650000207400006F2F00001A
:100E0000667200006F6D0000206100002047000046
:100E1000726F0000757000000D0A000020200000B5
:100E200020200000203700003A2000004475000018
:100E30006D700000204E00006569000067680000CA
:100E4000626F0000726800006F6F00006420000095
:100E5000496E0000666F0000726D00006174000052
:100E6000696F00006E0000000A8600000D0A000095
:100E7000456E0000746500007220000061200000D3
:100E80006D6500006E75000020630000686F000053
:100E900069630000653A0000200000000D0A0000B0
:100EA000303D00004469000073610000626C000086
:100EB000652000004A6F0000696E00002C200000D1
:100EC000313D0000456E0000616200006C6500006D
:100ED000204A00006F6900006E2000003A200000E8
:100EE000000D00000A4800006F770000206D000030
:100EF000616E0000792000006279000074650000D6
:100F0000732000006172000065200000796F00000E
:100F100075200000726500007175000065730000A7
:100F2000746900006E6700002868000065780000A2
:100F3000293A0000200000000D0A00005768000058
:100F400061740000206900007320000074680000D4
:100F500065200000736800006F72000074200000BC
:100F6000616400006472000065730000732000007B
:100F70006F66000020640000657600006963000071
:100F800065200000796F0000752000007761000087
:100F90006E74000020640000617400006120000095
:100FA000667200006F6D00003A200000000D000026
:100FB0000A5000006C6500006173000065200000AD
:100FC000656E000074650000722000007468000007
:100FD00065200000477200006F750000702000005F
:100FE00049440000206F0000662000007468000083
:100FF0006520000044610000746100002052000080
:101000006571000075650000737400003A200000EF
:10101000000D00000A5000006C65000061730000C4
:1010200065200000656E00007465000072200000FD
:1010300074680000652000006E7500006D6200009D
:1010400065720000206F00006620000062790000D9
:101050007465000073200000746F000020730000AE
:10106000656E0000642000002868000065780000BC
:10107000293A0000200000000D0A0000506C00001A
:101080006561000073650000206500006E7400005B
:101090006572000020740000686500002073000085
:1010A000686F00007274000020610000646400003A
:1010B0007265000073730000206F0000662000005E
:1010C000746800006520000064650000737400000F
:1010D000696E000061740000696F00006E200000FE
:1010E0006465000076690000636500003A20000036
:1010F000000D00000A4500006E74000065720000DB
:10110000207400006865000020470000726F000036
:101110007570000049440000206F00006620000048
:1011200064650000766900006365000073200000BC
:10113000746F000020730000656E000064200000E2
:1011400064610000746100003A200000000D00009E
:101150000A0A0000205700006861000074200000A7
:10116000477200006F7500007020000041630000AE
:101170007469000076690000747900002064000042
:101180006F200000796F000075200000776100007B
:101190006E740000207400006F200000646F000077
:1011A000203F0000200D00000A000000303D00003C
:1011B000416400006420000044650000766900007E
:1011C00063650000207400006F20000061200000B3
:1011D000477200006F750000702000000D0A0000CB
:1011E000313D0000526500006D6F00007665000023
:1011F000204400006576000069630000652000005F
:10120000667200006F6D0000206100002047000042
:10121000726F0000757000000D0A0000323D000082
:10122000526500006D6F00007665000020440000EC
:1012300065760000696300006520000066720000AA
:101240006F6D0000204100006C6C00002047000022
:10125000726F000075700000733A000020000000FB
:101260000D0A0000456E0000746500007220000049
:10127000313600002D620000697400002047000034
:10128000726F0000757000002049000044200000CB
:101290002848000065780000293A0000200000007E
:1012A0000D0A0000536800006F72000074200000F7
:1012B000202000002020000020200000202000002E
:1012C0002020000020200000204D000041430000AD
:1012D000202000002020000020200000202000000E
:1012E00020200000202000002020000020200000FE
:1012F00020540000797000006520000020200000CC
:101300002020000020200000205200006E74000009
:101310006C7300006869000070200000000D000080
:101320000A00000020200000202000007C20000097
:1013300020200000200000002020000020200000CD
:101340007C2000002020000020200000005200002F
:1013500054520000005200004644000000430000C8
:1013600052440000005500004B4E000000430000B6
:10137000484900004C44000020000000504100009B
:10138000524500004E540000005500004E4B000036
:10139000574E0000200000000D0A0000506C0000B5
:1013A0006561000073650000206500006E74000038
:1013B0006572000020740000686500002073000062
:1013C000686F000072740000206100006464000017
:1013D0007265000073730000206F0000662000003B
:1013E00074680000652000006465000073740000EC
:1013F000696E000061740000696F00006E200000DB
:1014000064650000766900006365000028680000DC
:1014100065780000293A000020000000202000002C
:101420004E65000069670000686200006F7200008E
:1014300020740000616200006C65000020690000FB
:1014400073200000667500006C6C00002E0D00001B
:101450000A000000202000004469000072650000BE
:1014600063740000206A00006F6900006E200000B5
:10147000737500006363000065730000736600000D
:10148000756C00002E0D00000A00000050410000A5
:101490004E20000000200000737400006172000004
:1014A0007465000064200000737500006363000031
:1014B0006573000073660000756C00006C790000B5
:1014C0002E0D00000A00000020450000727200008E
:1014D0006F720000206600006F7200006D690000EE
:1014E0006E670000206E000065740000776F0000DA
:1014F000726B00002E200000205400007279000062
:10150000696E0000672000006167000061690000EB
:101510006E2E00002E2E00000D0A0000004A000072
:101520006F6900006E6900006E67000020700000A7
:10153000657200006D69000074740000656400004D
:101540002E0D00000A000000204A00006F69000014
:101550006E20000070650000726D0000697300006D
:10156000736900006F6E0000207500006E7300004C
:10157000756300006365000073730000667500000A
:101580006C2E000020570000652000006361000001
:101590006E6E00006F740000206100006C6C000033
:1015A0006F770000206A00006F6900006E73000012
:1015B0002E0D00000A0000002E2E0000526F0000C9
:1015C000757400006520000052650000706C00001A
:1015D000792000005375000063630000657300000C
:1015E00073660000756C00002E2E00002E0D0000AA
:1015F0000A0000002E2E0000526F000075740000DB
:101600006520000052650000706C00007920000029
:101610006E6F0000742000005375000063630000CB
:101620006573000073660000756C00002E2E0000CC
:101630000D0A0000000D00000A4E00006F6400005B
:101640006520000000200000576900007468000059
:10165000204D000041430000204100006464000070
:10166000726500007373000020000000206A000013
:1016700075730000742000006A6F0000696E00003E
:10168000656400002E0D00000A0000004E6F00008F
:10169000646500002068000061730000206C000099
:1016A000656600007420000074680000652000007A
:1016B0006E650000747700006F7200006B2E0000F2
:1016C0000D0A000000200000416E00006F74000051
:1016D00068650000722000006E6F00006465000005
:1016E0002068000061730000206C00006566000047
:1016F0007420000074680000652000006E65000022
:10170000747700006F7200006B2E00000D0A00005D
:10171000005A000069670000426500006520000073
:1017200053740000616300006B20000068610000DA
:101730007320000062650000656E000020720000EA
:1017400065730000657400002E0D00000A000000A3
:1017500044650000766900006365000020680000B1
:1017600061730000206C00006566000074200000BA
:1017700074680000652000006E650000747700004A
:101780006F7200006B0D00000A000000457200003F
:10179000726F0000722000000020000073650000DE
:1017A0006E640000696E0000672000006D65000037
:1017B0007373000061670000652E00000D0A0000D1
:1017C000002000004D650000737300006167000099
:1017D00065200000736500006E7400002073000037
:1017E0007563000063650000737300006675000098
:1017F0006C6C0000792E00000D0A00000042000011
:10180000696E0000646900006E6700002F550000DB
:101810006E620000696E0000646900006E6700007F
:10182000206400006F6E00006520000073750000EA
:10183000636300006573000073660000756C000050
:101840006C7900002E0D00000A0000002045000009
:10185000727200006F720000206400006F69000067
:101860006E67000020620000696E0000646900007D
:101870006E6700002F7500006E620000696E000048
:10188000646900006E6700002E2E00002E0D00001F
:101890000A000000526500006365000069760000E0
:1018A000696E0000672000004E5700004B5F00008B
:1018B00041440000445200005F7200007370000059
:1018C0002E0D00000A00000050610000636B000054
:1018D00065740000204300006F7500006E74000006
:1018E0002052000065730000706F00006E730000EE
:1018F000653A000020000000200D00000A200000D2
:10190000536500006E640000696E000067200000EF
:10191000746F0000206D000079730000656C00009A
:10192000660D00000A0000000D0A00004C65000072
:101930006E3A000020000000467200006F6D00004B
:1019400020410000646400007265000073730000B1
:101950003A200000004700006F740000206D000076
:101960006573000073610000676500002E2E0000A3
:101970002E2E00002E000000547200007969000035
:101980006E670000207400006F2000007374000078
:1019900061720000742000006E6500007477000022
:1019A0006F7200006B2E00002E2E00000D0A00004A
:1019B00000200000202000000D0A0000416400000B
:1019C00064650000642000006E6F00006465000024
:1019D000207400006F200000677200006F75000027
:1019E00070200000340D00000A00000020200000DC
:1019F000200D00000A520000656D00006F760000A7
:101A000065640000206E00006F6400006520000027
:101A1000667200006F6D000020670000726F0000AA
:101A200075700000203400000D0A00000020000046
:101A3000556E0000686100006E6400006C65000077
:101A40006420000070720000696D0000697400007D
:101A500069760000652E00000D0A0000000D0000F0
:101A60000A0D00000A0D00000A2A00002A2A0000C0
:101A70002A2A00002A2A00002A2A00002A2A000016
:101A80002A2A00002A2A00002A2A00002A2A000006
:101A90002A2A00002A2A00002A2A00002A2A0000F6
:101AA0002A2A00002A2A00002A0000000D0A00004D
:101AB0004D690000637200006F4300006869000018
:101AC000702000005A690000674200006565000050
:101AD0003230000030360000285400004D2900004C
:101AE0002053000074610000636B000020200000A0
:101AF000763200002E3000002D3200002E3600001D
:101B00002E30000061200000436F00006F72000063
:101B1000646900006E610000746F0000720D0000C7
:101B20000A0D00000A00000054720000616E0000FF
:101B3000736300006569000076650000722D000087
:101B40004D52000046320000344A0000343000009C
:101B50000D0A00000D0A0000000000000201000054
:101B60000F0F00000005000000000000000400004E
:101B7000000000000000000000000000000A00005B
:101B8000000000000100000002000000030000004F
:101B90000400000005000000060000002000000016
:101BA00021000000220000000000000000000000F2
:101BB00000000000000000000A000000008000009B
:101BC000018000000280000003800000048000000B
:101BD00005800000068000002080000021800000B9
:101BE0002280000000000000000000000000000053
:101BF00000000000010000000301000000000000E0
:101C0000000A0000000000000300000004000000C3
:101C10003800000054000000700000008C0000003C
:101C2000C4000000E0000000FF0000000000000011
:101C30000000000000000000000000000A0000009A
:101C40000000000001000000020000001C00000075
:101C500038000000700000008C000000A8A0000008
:101C6000C4000000FF0000000000000000000000B1
:101C70000000000000000000F00000000301000070
:101C800000000000000E0000000000000100000045
:101C90000200000003000000040000001C0000001F
:101CA0003800000054000000700000008C000000AC
:101CB000A8A00000C400000000E00000FF00000039
:101CC0000E00000000000000010000000200000003
:101CD00003000000040000001C00000038000000A9
:101CE00054000000700000008C000000A8A000005C
:101CF000C400000000E00000FF00000010C1000070
:101D0000004000008E000000000000007F00000086
:101D1000000000000000000078000000000000004B
:101D2000B4000000000000002C01000000000000D2
:101D30001C02000000000000FC0300000000000086
:101D4000BC070000000000003C0F00000000000085
:101D50003C1E0000000000003C3C000000000000B1
:101D60003C780000000000003CF000000000000093
:101D70003CE00000010000003CC000000300000047
:101D80003C800000070000003C0000000F00000045
:101D900030310000323300003435000036370000A7
:101DA000383900004142000043440000454600002D
:101DB000AAAA0000AAAA0000AAAA0000AAAA0000D3
:101DC0008000EB0020578000F007B20001003200D5
:101DD000110020000100780000000600881F780034
:101DE000722CEF00742CEF00B062800090628800CB
:101DF0000044EB009062800022C1B30061C6200065
:101E0000EE4107000844E80020012000522CB400F5
:101E1000F94F5400F7FF3A005A6CEF00626CEF0084
:101E2000636CEF00640CA900C0532A00C0628800F4
:101E3000A0628000E2C0B30081C52000DF4107003E
:101E40004F04780000000600889FBE008A9FBE00F5
:101E50008C1F780000057800010678008205780064
:101E600050628000406288008044EB0009447800A2
:101E70004162800062C0B300C0C4200091410700ED
:101E8000606280008A0F5000100032000844E800B1
:101E900060002000482CB400EF4F54000E003E00BC
:101EA0000904E000F2FF320080628000000E78003A
:101EB0004ECCBF00804D78000980FB004F067800B3
:101EC0004F05BE004F04BE000000060019C0B3005D
:101ED000EF4F5400F2FF36000904E000F2FF3A0031
:101EE00030C0B300804D78000000EB004F06780052
:101EF0004F05BE004F04BE0000000600F3FF370090
:101F0000404BEC0040EBB70002003A0010C0B300B9
:101F100040EBB7000080FB000000060088C9BF004E
:101F20008000EB00050032000040E90088E9B700BE
:101F3000504C8000B080FB00504C880001007800BD
:101F400000000600889FBE008A1F78000004EB0096
:101F50000080FB0000004000640540007240B900B2
:101F6000560CB4009062880022C1B3008000780053
:101F700060C620005341070071638000804C8000E0
:101F8000808F5000060032000804E800F90F54006A
:101F9000F2FF3A004F0578004F04BE000000060033
:101FA00040AE2000EA0078000880FB0080804000FE
:101FB000F6804000114090000000A1009040980081
:101FC0004F0578004F04BE0000000600F4FF370004
:101FD000889FBE008A9FBE0000437800830578007A
:101FE0000044EB0085AC200007AD2000950178008F
:101FF0000300E000190032000604E0000300320094
:1020000063489000814F5000110032008582E80043
:10201000858F5300F5FF3A0009C1B3000404E000C6
:102020000100350089C0B3000804E000040032005C
:1020300050628000406288000904E0000C003A0011
:102040000000EB004F05BE004F04BE00000006007C
:1020500043009000820F5000ECFF3A0018C0B3001C
:102060008582E800858F5300E0FF3A00EAFF3700E1
:102070000045EB000A4478004162800062C0B30072
:10208000C0C420000F410700606280008B0F500029
:102090000D00320070628000E30F50000A00320031
:1020A0000844E80060002000482CB40088CF5400A9
:1020B000F1FF3A000A80FB004F05BE004F04BE004E
:1020C00000000600E2FF37001AC0B3000844E80031
:1020D00060002000482CB40088CF5400E6FF3A008E
:1020E000F4FF3700889FBE008A1F78000005780043
:1020F000B0628000906288000004EB009162800072
:1021000022C1B30060C62000EE400700752CAB0072
:1021100009003A0020012000522CB4000804E80015
:10212000F90F5400F5FF3A00080078004F057800D9
:102130004F04BE0000000600706380008A0F50004C
:10214000F4FF3A000880FB004F0578004F04BE0002
:1021500000000600F8FF3700800178000409A8009D
:1021600022C0B300020078008EE9B70070618000E1
:10217000604C880084618000844C88000001FD0070
:102180008FE9B7000001FD00004D8800C34C8800B6
:102190002ACCBF0080487800A2E9B7008B69EF0025
:1021A000E18F4100080032008B09A800030078008D
:1021B000CCFF0700F94F500003003200750CAB0054
:1021C00001003A008B49A80010C0B3008AE9B700AB
:1021D000000006000200FA00889FBE008A9FBE0031
:1021E0008005780002047800E4CF5000120032002D
:1021F0000180FB000000400081AC2000608078007E
:102200002050900062C0B3000440BC0051628000C6
:10221000810041004162880062C0B300C0C4200058
:10222000A84007004E2CEF004062800062C0B3005F
:10223000C1C42000E1400700719020009140780067
:102240000181FB008990200020C0B30000F17C00D8
:102250000140E80007E9B7000080FB00184190004A
:1022600002F07C0001C0E80007E9B7000080FB0035
:102270002841900002F07C0063C040000080FB0019
:102280000BF07C0064C04000485DDE000080FB0075
:102290000AF07C0065C0400007E9B7000080FB0041
:1022A0004841900002F07C0066C0400007E9B7009A
:1022B0000080FB005841900002F07C0067C04000A5
:1022C00007E9B7000080FB006844900008F07C003C
:1022D000E8C040008000FD0007E9B7008000FD0075
:1022E000689020001844780005FF07008880FB00F4
:1022F00080F07C000840E9000080FB00A1C0B30032
:1023000001F07C0008C0E9000080FB0011C3200040
:102310009140780001F07C00634054000080FB0095
:1023200002C320001241780002F07C006440540097
:102330000080FB000AF07C00654054000080FB0038
:102340000BF07C00664054000080FB008040EB00F6
:1023500001F07C00674054000080FB0091C0B30096
:1023600001F07C00684454000800780006E9B700DA
:10237000804C8000EA80570077FF07004F05BE00C1
:102380004F04BE000080FA00000006000400FA00BE
:10239000889FBE008A9FBE008C1F78008005780051
:1023A00001057800020678005162800041628800D1
:1023B00062C0B300C0C42000424007000044EB00EC
:1023C000606280008B0F50001B0032000844E80060
:1023D00041628000E68040004162880062C0B30034
:1023E000C0C4200037400700F04F5400F4FF3A000B
:1023F000516280004162880062C0B300C0C4200006
:10240000304007000044EB0070628000E30F500092
:10241000090032000844E80041628000E680400084
:102420004162880062C0B300C0C42000254007009C
:10243000F04F5400F4FF3A00084E78000000EB0023
:1024400088AC200008017800804078008004780083
:102450001200E000060032008140E8000900E800B8
:102460000281E800E40F5000F7FF3A008184FB008E
:10247000014D780040C1B30006430700800078009A
:102480000980440008054000010D78000100E000CB
:102490001D0032006B6288001900200079628800FC
:1024A0004062800062C0B300C1C420004340070006
:1024B0009A00780000C0EB00805098001A04780061
:1024C0006E805700EF4207001FB89700AFB8970023
:1024D000008CBE001A0078001C4678002C50980032
:1024E0009A0078000000EB00E0009800E42AA800C1
:1024F000090078004F0678004F05BE004F04BE006B
:102500000080FA0000000600010078004F06780005
:102510004F05BE004F04BE000080FA000000060018
:10252000F9FF37000400FA00889FBE008A9FBE00B2
:10253000800578000000EB008AAE20008A00780059
:1025400000447800800478001100E00008003200A8
:102550000844E8000900E8008180E800E70F500027
:10256000F7FF3A00E74F5400300032008884FB0048
:1025700000C3B300C7420700898044000A854000B9
:10258000000D78000000E00028003200884D78003F
:10259000E48440004BAE20009A00780000C0EB00BD
:1025A000C04898001A0478006C805700B5420700B4
:1025B0002FB89700BFB8970070049800010C9800DE
:1025C000100C9800210C98009A00780031089000B7
:1025D0000050A100B00898009A00780031089000DF
:1025E0000000A1000010A0000020A1000030A10008
:1025F000B00898008000EB000901780033C0B300F8
:1026000062807D0001004000735098008100E80066
:10261000F98F5000FAFF3A00100020004F05BE006D
:102620004F04BE000080FA00000006000000EB002E
:102630004F05BE004F04BE000080FA0000000600F7
:10264000FAFF37001F4DE20005003A00160CAB0000
:1026500019003A000040EB000080FB00000006007B
:1026600020C6200031C1B30090CF10000300360017
:102670000040EB000080FB00000006008829AB0052
:1026800018003200B0C5200041C0B30090CF100048
:10269000F7FF3E0030C6200051C0B30090CF1000BD
:1026A000F3FF3E00E58AAB00F1FF3A0010C0B30033
:1026B0000080FB000000060020C6200031C1B300EE
:1026C00090CF1000E3FF3E008829AB0009003A00DC
:1026D000E56AAB0007003A0010C0B3000080FB00C1
:1026E00000000600E56AAB00E6FF3A0010C0B30048
:1026F000EFFF3700B0C5200041C0B30090CF1000FD
:10270000D4FF3E0030C6200051C0B30090CF10006F
:10271000D0FF3E00E58AAB00EFFF32000040EB0047
:10272000CDFF3700889FBE00B062800090628800B5
:102730000004EB009162800022C1B30060C620005B
:10274000603F0700752CAB0008003200200120001C
:10275000522CB4000804E800F90F5400F5FF3A00C9
:10276000080078004F04BE00000006000880FB004F
:102770004F04BE0000000600FCFF3700889FBE002B
:102780008A9FBE000005BE00B06280009062880093
:102790000004EB009162800022C1B30060C62000FB
:1027A000483F0700752CAB0009003A0020012000CB
:1027B000522CB4000804E800F90F5400F5FF3A0069
:1027C000080078004F05BE004F04BE000000060060
:1027D000706380008A0F5000F4FF3A00806380002D
:1027E0008B0F5000F1FF3A000880FB004F05BE0040
:1027F0004F04BE0000000600F5FF3700889FBE00B2
:1028000080447800B06280009062880098C1B30074
:102810009162800022C1B30060C62000293F0700FA
:10282000752CAB000300320009407800764CE300C1
:102830000700320020012000522CB4000844E900B7
:10284000F3FF3A000000EB004F04BE00000006005A
:1028500081638000604C8000808F5000F5FF3A005B
:10286000100020004F04BE0000000600F8FF3700F3
:10287000881F7800B0628000906288000044EB00FE
:102880009162800022C1B30060C620000D3F0700A6
:10289000A06380000098A300070032008000780049
:1028A000010CB20000042000808F500002003200B2
:1028B0000100E0000B003A000844E800200120007D
:1028C000522CB400F94F5400EDFF3A00A062800092
:1028D000E2C0B30081C52000383F07004F047800F4
:1028E00000000600722CEF00742CEF005A6CED0013
:1028F0009062800022C1B30061C620002F3F070014
:102900000844E80020012000522CB400F94F540084
:10291000DBFF3A00EDFF37000004E0001F0032004B
:10292000176CEF0010C2B30018ECB700B1C520005F
:10293000914078004309DD000200780019ECB700EF
:1029400020C6200033C1B30090CF110013003E0019
:10295000A0C5200083C1B30090CF11000F003E003E
:102960002357800003B8A3000D003A00E4CF5000C5
:102970000A003E000274A0000200780019ECB700C3
:1029800030C6200051C0B30090CF100003003E00BD
:1029900003C8A30001003A00194CA800000006007B
:1029A000E4CF5000F6FF360000000600A26380006E
:1029B00082007800010CB20000042000808F5000DB
:1029C0000C003200752CA900722CEF00742CEF0063
:1029D0009062800022C1B30061C62000F73E07006C
:1029E0005A6CED00A0628000E2C0B30081C52000F7
:1029F000F23E3700626CED000203B200F00F5100AE
:102A00000E00320010C0B300C3FF0700722CEF00AD
:102A1000742CEF009062800022C1B30061C62000D8
:102A2000E63E07005A6CED00A0628000E2C0B300F1
:102A300081C52000E13E3700EEFF3700636CED00FA
:102A400010C0B300B4FF0700F0FF370060C62000DD
:102A50000199200007000900315878007461800056
:102A60008463880076ECEF00414C80000118A300DD
:102A70001D003A00748CA90074ACA800F0628000BC
:102A8000706388000000E800F0628800E20F4000F8
:102A900039003200C508DD000110B200A0638000DB
:102AA0000080A10001007000A063880074CCA80021
:102AB00074ECA900752CA8009062800022C1B300BC
:102AC00061C62000BD3E0700626CEC005A6CEC0051
:102AD000A0628000E2C0B30081C52000B73E0700BD
:102AE00010C0B3008CFF3700748CA80074ACA90030
:102AF0000063800070638800636CEC00E262800019
:102B000002004000006388006611B9008461800003
:102B100004014100820F5000DEFF3600E58AA80064
:102B2000C508DD000110B200A06380000080A10094
:102B300001007000A063880074CCA80074ECA900A8
:102B4000752CA8009062800022C1B30061C62000ED
:102B50009A3E0700626CEC005A6CEC00A0628000A8
:102B6000E2C0B30081C52000943E070010C0B3004E
:102B700069FF3700DCFF3700E56AA800C508DD0003
:102B80000110B200A06380000080A100010070006D
:102B9000A063880074CCA80074ECA900752CA80070
:102BA0009062800022C1B30061C62000833E07000E
:102BB000626CEC005A6CEC00A0628000E2C0B300D2
:102BC00081C520007D3E070010C0B30052FF3700D2
:102BD000C5FF3700D1082000E24F50000800320046
:102BE0000900360051012000E34F5000040032007C
:102BF00011002000E44F5000010032008000EB0083
:102C00000100780000000600D14321000004E0002C
:102C1000FBFF3200E14F5000F8FF3A00D0352000B2
:102C200000000600F8FF3700889FBE000004BE00C9
:102C30000204E0000A003200810F50000300390056
:102C40000000EB004F04BE00000006000240E90057
:102C5000E0FF070000004400808F5400F8FF3100BF
:102C6000100020004F04BE0000000600F7FF3700F0
:102C7000889FBE008A9FBE000005BE00B062800033
:102C8000906288008044EB009162800022C1B30012
:102C900060C620000B3E0700A0638000002CB2003D
:102CA00001242000810F5000090032002001200083
:102CB000522CB4008944E800F9CF5400F2FF3A00E6
:102CC0000000EB004F05BE004F04BE0000000600F0
:102CD00078638000880F5500070032005B4CEC00E1
:102CE000004178008A00780008007800CEFF0700D5
:102CF0000004E000EDFF3200880D78001000200095
:102D00004F05BE004F04BE0000000600F0FF370074
:102D1000EC874700889FBE008A9FBE008C9FBE0044
:102D20008E1F780000457800014678000000EB0017
:102D3000CDAF20000D0178008040780000047800BD
:102D40001200E000080032008140E8000800E800BE
:102D50000281E800E80F5000F7FF3A00E8CF50008A
:102D6000940032000184FB00C0C0B300C9400700DA
:102D700080007800880544008D844500800C780030
:102D80000000E0008B0032000A04E00026003A0058
:102D9000C0FF2F008A29B400788545004EAE200080
:102DA000824C8000A2009800990078008A09ED000A
:102DB000504C880010407800F0409800990078004E
:102DC0008A09ED00504C880010407800E0409800DF
:102DD0008AA9ED0088C9BF006840400088E9B700B3
:102DE00099007800A04098001900780020409000D9
:102DF000A8400700000478000000E00075003A00D9
:102E000019007800A5400700880C780040002000D9
:102E10004F0778004F06BE004F05BE004F04BE00AE
:102E2000CF00B1000000060080618000A000980083
:102E3000788545004EAE200019007800C14C800016
:102E4000310098001901780006C9BF000749B50094
:102E500071C8B3000140400020419800190078007B
:102E6000204090008B400700000478000000E00044
:102E7000E3FF32006A007F00080878004660DD004A
:102E80000034A000004C780089C9BF000040400019
:102E90001044980082992000124178002244980042
:102EA00099C9BF003044980001C3200091407800C8
:102EB0004144980012C32000124178005244980007
:102EC0000A9920001A4578006A449800A2C9BF00F8
:102ED000704498006801440006C9BF00E1C7B30010
:102EE000814F500008003E00839020000040E80021
:102EF00006E9B7000080FB0060D9790006C9BF0071
:102F0000814F5000F9FF36000749ED0007E9B7008F
:102F1000E14F4000090032008200780083902000D9
:102F200002C050000080FB00E0D879000749ED00A6
:102F300007E9B700E14F4000F9FF3A00F884450087
:102F400069047F00768057004E4007005FB097000D
:102F5000EFB09700400498005104980069007F008A
:102F60003000900078815700F780570007FD070078
:102F70000004E00038003A0069007F00100078008B
:102F80004640070069007F00444007000D8045006F
:102F90000008EB00400020004F0778004F06BE00FD
:102FA0004F05BE004F04BE00CF00B1000000060078
:102FB0009DFF3700400020004F0778004F06BE00FD
:102FC0004F05BE004F04BE00CF00B1000000060058
:102FD00095FF37006A007F0008087800CFFB0700E4
:102FE000F043B200C660DD0000CC7000CBFB0700F0
:102FF00010449800C9FB070020449800C7FB070055
:1030000030449800C5FB070040449800C3FB07000C
:1030100050449800C1FB07000045E9006A4498004D
:10302000BEFB070070449800680444008849E20031
:10303000C2FF3200B9FB0700005C78008849E2005B
:10304000BEFF3200B5FB0700005C78008849E20053
:10305000F8FF3A00B9FF37000409A900F0C7B30030
:1030600006E9B7000040EB0007E9B7008EAC20008E
:103070001FE897000080FB000000400060047F0014
:10308000E0C0B30003400700000678006004980029
:103090000000E0001F003A0010002000706288006D
:1030A0004062800062C0B300C1C42000433D0700FD
:1030B0001FE897000080FB000000400060007F00D8
:1030C000F63F07001FE897000080FB00000040006B
:1030D0000C307F0041AE200069807800100078003D
:1030E000EE3F070042AE200069007900EB3F070089
:1030F0008CB57E00400020004F0778004F06BE00D0
:103100004F05BE004F04BE00CF00B1000000060016
:1031100045FF37001FE897000080FB0000004000DB
:1031200060007F00B1AF20009140780061489800B6
:103130001FE897000080FB00000040000E004000E8
:103140009000780082618000C20098001000780032
:103150008040EB00714898009FE897008180FB0059
:10316000818040008E80400011017800120890009C
:103170000080A1000090A10000A0A000100998000C
:10318000910078001108900000B0A100900898000C
:1031900010C0B300004E780000C8B300104698007D
:1031A000FBCABF00204698000040E800FBEAB700D9
:1031B00042AE2000690079006040900030469800DF
:1031C0006900790070409000404698000040EB0094
:1031D000504698004AFB0700604698007A469800DF
:1031E00011C3200091407800014E980002C32000D6
:1031F00012417800124E980000C0EB00204E98005B
:10320000C0CFB300304E98000040EB00404E980015
:1032100090C0B300504E980072805700993F07004D
:103220001FE897000080FB000000400060027F0064
:103230007FB097008FB89700D21F2C00F3FF2F00AC
:10324000000041008180490020029800310298006E
:10325000100020004F0778004F06BE004F05BE004B
:103260004F04BE00CF00B10000000600EEFE3700A4
:103270000200FA00889FBE008A9FBE008045780049
:10328000010478000245780083047800010078008A
:1032900094FB0700F94F500007003200A163800043
:1032A000010CB20000042000808F50001E0032008C
:1032B0000100E0001C0032008261800004C8B300FD
:1032C000880178008040EB000140780040FB070057
:1032D0000004E00009003200E24F550022003200F5
:1032E0006A8157000800BE00D7FA07000004E0001A
:1032F00014003A00E14F5500230032000800BE00E0
:103300005BFE07000004E00011003A0010CDB3009E
:1033100088E9B700200020004F05BE004F04BE0022
:103320000080FA0000000600880C78000000EB0026
:103330004F05BE004F04BE000080FA0000000600EA
:10334000F9FF37006FF097000004E000EBFF3A0050
:103350000000EB004F05BE004F04BE000080FA00E5
:1033600000000600F0FF370011C0B3000B407800EA
:1033700067FE07004F05BE004F04BE000080FA0044
:1033800000000600E8FF37008A4078000B40780014
:103390005FFE07004F05BE004F04BE000080FA002C
:1033A00000000600E0FF3700881F78003000200092
:1033B000706288004CACEF00506280004062880070
:1033C0000044EB004062800062C0B300C1C4200032
:1033D0007A3C07000844E80060002000482CB40054
:1033E000F04F5400F7FF3A004F0478000000060049
:1033F000889FBE008A9FBE0000457800300880008C
:1034000040EBB7000469EF0021578000E42AEF0089
:10341000E62AEF0000002200808060002057800034
:1034200000D0A100010070002057880020B42000C7
:1034300021B920000048EB000080E800808F500098
:10344000FCFF3A000A04E00004003A0070598000D2
:103450000000E00001003200103F07002E2BEF00BB
:103460008004EB0088AE2000880578000A04E000A4
:1034700007003A00180078000000E0000400320065
:1034800010007800053F070018007800033F070090
:10349000801DEB008904E8000884E800E78F5400F1
:1034A000F2FF3A008004EB00C8AF200088057800E6
:1034B0000A04E00007003A00180078000000E0006D
:1034C0000400320010007800F43E07001800780075
:1034D000F23E0700801DEB008904E8000884E80044
:1034E000E88F5400F2FF3A000004EB0089AC2000A2
:1034F000890578000A04E00004003A001900780009
:103500000000E00001003200E43E0700801DEB00F7
:103510000804E8008984E800E40F5400F5FF3A004D
:10352000A1FF07004F05BE004F04BE0000000600CB
:1035300010C0B300AEFF0700A1628000E2C0B3007C
:1035400080C52000DF3B0700C1628000C0532A0015
:10355000808F50000100320020FA070020AD2000CB
:1035600061AE20000048EB0064004000810F500075
:10357000FCFF3A00E0B02000E1B220000088EB0040
:1035800064004000808F5000FCFF3A0000000600FD
:10359000889FBE008A1F780000057800B062800016
:1035A000906288000004EB009162800022C1B300A9
:1035B00060C62000C33B0700752CAB0009003A0031
:1035C00020012000522CB4000804E800F90F540038
:1035D000F5FF3A00080078004F0578004F04BE0060
:1035E000000006008200200061C620000A0078006A
:1035F0004EF407000000E000F1FF3A000880FB00F5
:103600004F0578004F04BE0000000600F5FF3700AC
:103610002F05B000889FBE008A9FBE008C9FBE0011
:103620008E1F78000047EB000004780020FC2F007C
:103630000F004000933E07001FA69700AFA697001B
:10364000E44AAB000D003200B0578000C157800043
:103650000000560081805E00A2AF20001241780079
:103660000281FB000300200044422F000411B80037
:10367000820F5000838F580033003E000800E000A6
:1036800021003A0004C9BF000008A30025003A0049
:10369000205780000008A30091003A000018A30002
:1036A000B7003A000078A3001E003200E4EAA90047
:1036B00092CBBF0088E9B70093CBBF0089E9B70080
:1036C000D55C8000854C8800105D8000215D800005
:1036D000C04C8800D14C8800325D8000435D800082
:1036E000E24C8800F34C8800C304200003007800FB
:1036F0004F0778004F06BE004F05BE004F04BE00C6
:103700002F05B100000006006140B80071005000B4
:10371000E080580013062000830F5000E08F58000F
:103720000C0036008001EB00030078004F077800A2
:103730004F06BE004F05BE004F04BE002F05B1006E
:1037400000000600F0FF3700160CA900E44AA900AB
:10375000CAFF37000060010021033700AD023700C7
:10376000F0FF3700EFFF3700EEFF37007D02370034
:10377000ECFF3700EBFF3700EAFF3700E9FF3700C7
:10378000E8FF370069023700E6FF3700E5FF370042
:10379000E4FF3700E3FF3700E2FF3700FF023700A6
:1037A000E0FF3700DFFF37008E023700DDFF370014
:1037B000DCFF3700DBFF3700E80237004702370045
:1037C000D8FF3700D7FF3700D6FF3700F1033700A7
:1037D000D4FF3700D3FF3700D2FF3700C0033700D4
:1037E000D8033700CFFF3700CEFF3700CDFF3700BB
:1037F000CCFF3700CBFF3700CAFF3700C9FF3700C7
:10380000C8FF3700C7FF3700C6FF3700C5FF3700C6
:10381000C4FF3700C3FF3700720337009903370036
:1038200088033700BD0337002D0337005F033700DF
:10383000510337004603370034033700B9FF370020
:10384000B8FF3700B7FF3700B6FF3700B5FF3700C6
:10385000B4FF3700B3FF3700B2FF3700B1FF3700C6
:10386000B0FF3700AFFF3700AEFF3700ADFF3700C6
:10387000ACFF3700ABFF3700AAFF3700A9FF3700C6
:10388000A8FF3700A7FF3700A6FF3700A5FF3700C6
:10389000A4FF3700A3FF3700A2FF3700A1FF3700C6
:1038A000A0FF37009FFF37009EFF37009DFF3700C6
:1038B0009CFF37009BFF37009AFF370099FF3700C6
:1038C00098FF370097FF370096FF370095FF3700C6
:1038D00094FF370093FF370092FF37004C03370007
:1038E000F8AF9F008BAE20001B0478000800E000BA
:1038F0001100320018089000A8089000000156003E
:1039000081815E00650133000200BE00C8F307003C
:1039100002A02B00B3752400F0F307000000E000C4
:10392000D500340018007800DC3D07001B0078004B
:10393000DA3D0700800DEB00FFA997008301E80046
:10394000F3AF9F008B85E800E78F5100E6FF3A0058
:103950008040EB0080AE20001000E00005003A003F
:103960008140E8000080E800E7CF5000FAFF3A000D
:10397000E40AA900205780000018A30049FF320084
:103980000002EB0089AC20000901780009047800EE
:10399000920078000100E0000E003200E10190008A
:1039A0000300E0000B0032001108900000B8A300F3
:1039B0006B003A0021009000B1009000000056001A
:1039C00081805E0025E02300850F5000E08F5800C5
:1039D0006B003E000402E8000884E8000281E80071
:1039E000E40F5200EAFF3A0088AC200009AD200045
:1039F000180278000400E00007003200340156008D
:103A0000A4815E008096280091002000800F510064
:103A1000818F59003D003E000884E800888F5400E3
:103A2000F3FF3A008042EB00A5679F000540780055
:103A300046AE200006057800CDAF20000546780090
:103A4000899020000080FB000000400078004000CA
:103A500060007B000000E0000F00320030009000AA
:103A600041FA2F000F8140008180E8008F804000E4
:103A700086BF9F00F4F807000FBB97000004E0002A
:103A8000C40532004F6197000204E000E0053200F7
:103A9000E24F5100270132002F6297000440E800F6
:103AA000A0679F00E74F5000E6FF36008042EB0022
:103AB000A5679F00506280004062880041628000DC
:103AC00062C0B300C0C420007E3A07007862800064
:103AD000E20F54002D063200AF6097008140E800ED
:103AE000A1679F0060002000482CB400EFCF500079
:103AF000F2FF36008041EB00A3679F00FC0AE20062
:103B00000201320020578000E6FE3700245090006A
:103B100062C0B3000440BC005162800081004100DB
:103B20004162880062C0B300C0C42000653A07004B
:103B300070628000E10F5000E2003200180078004F
:103B4000600090000000E00001003200533D0700DB
:103B500018007800513D0700000CEB00AEFF370065
:103B600021009000B10090000000560081805E00AE
:103B700035D12C00850F5000E08F580095FF36009E
:103B80000040EB00A0679F008590200007C9BF00A0
:103B90008080FB00B3F07A000040E80007E9B7003E
:103BA000AF6097000140E800A0679F00E54F50001C
:103BB000F6FF36000041EB00A2679F006B902000EB
:103BC0009B4578000B80FB0033F07A008B45E900C1
:103BD0000B00780006E9B7002F6297000440E80068
:103BE000A0679F00E74F5000F6FF3600980078006E
:103BF0001108900000B0A10090089800980178008A
:103C0000130990004810DE00674040006700600024
:103C10004800DD00F18F2F000101610000017100FB
:103C200092099800180078002C0098003D00980038
:103C300018017800920890000070200080846000D5
:103C40007703320021FA2F008F8040000080EB00C4
:103C500041F9070003012000030078004F077800B6
:103C60004F06BE004F05BE004F04BE002F05B10039
:103C700000000600A4FE3700B80C90000902B20054
:103C80002DFF3A000E10A100484D9000F94F55004D
:103C900003053200E14F4500910032008941780070
:103CA0008A84FB000A40780022C1B3000440BC00B3
:103CB000B1628000810041009162880022C1B3009E
:103CC00060C62000E3B79F00FE390700A2638000B2
:103CD000820078000120B200EFB19700D6043A00CC
:103CE0001B80440076004000114098000A45E8001F
:103CF000E1C061004208DD000E24A100004777000A
:103D00000E28A30002003A00F84F5500E4FF3600E9
:103D10001B0478004A4C98004208DD000E24A100E4
:103D2000004777000E28A30003FF32000E18A300FF
:103D3000EA0A3A00FFA897000184400046AE20003E
:103D400089C2B30061902000914078000181FB009E
:103D50008590200064004400E0017B003342900025
:103D600004F17A008145E9000B00780006E9B7000C
:103D70000B80FB004341900002F07A0081C5E9000E
:103D80000B00780006E9B7000B80FB00734290003F
:103D900004F07A00E3C550000B00780006E9B70094
:103DA0000B80FB006341900002F07A00E4C55000F4
:103DB0000B00780006E9B7000B80FB00134A900067
:103DC00004F07A00E5C550000B00780006E9B70062
:103DD0000B80FB000349900002F07A00E6C550001A
:103DE0000B00780006E9B7000B80FB00234A900027
:103DF00004F07A00E7C550000B00780006E9B70030
:103E00000B80FB003349900002F07A00E8C55000B7
:103E10000B00780006E9B7000042EB00A4679F00A2
:103E200013017800234090000004E00067033A008B
:103E30003F90970021FA2F008F80400086BF9F009F
:103E4000C5F8070080C2B3000FBB970080CF5400B5
:103E500080FF32008980FB008180400010B4200088
:103E60002F619700827078006400440060017B003D
:103E700020B42000324190008270780000012000C0
:103E80004F0778004F06BE004F05BE004F04BE002E
:103E90002F05B100000006001BFE37006100610025
:103EA000010020008301D1000281D30002007000D4
:103EB000838070005EF207000001BE008AF20700F6
:103EC00093FE37002000200070628800406280006E
:103ED00062C0B300C1C42000B839070017FF370023
:103EE00078009000880890000000560081805E00F5
:103EF00092682600820F5000E08F580034053E0083
:103F0000894078004A4C980083FF370003407800CE
:103F1000E1AF20000040E800A0679F00E84F50009C
:103F20003A0532003100E000FAFF320020578000ED
:103F3000DCFD37002F6297008481FB000380410085
:103F40007800400060007D00A0009000806180004B
:103F5000808F50009104320068902000184478004F
:103F6000E7F707008880FB0080F07C008845E900C7
:103F70008B80FB00A0C0B30080F07C0088C5E90006
:103F80000B80FB0013C320009341780003F07C00FA
:103F9000E34554000B80FB0004C32000144278006A
:103FA00004F07C00E44554000B00780006E9B700FB
:103FB0000B81FB0021FA2F008F8040003180FB0035
:103FC000000040007800400060027D00D442900074
:103FD00005F17C00E54554000B00780006E9B700C8
:103FE0000B80FB004441900002F07C00E645540049
:103FF0000B80FB000CF07C00E74554000B81FB00BC
:1040000090C0B30000F17C00E84554000B0078003C
:1040100006E9B70072902000124178008281FB000F
:1040200030C0B30080F17C000240E8000080FB005B
:104030000CF07C0002C0E80007E9B7000080FB003C
:10404000E441900003F07C006340410007E9B700C1
:104050000080FB00F442900005F07C0064414100C8
:104060000200780007E9B700240090003AF8070042
:10407000AF6097000180FB00000040007800400026
:1040800060007D0010007800043C07002F6197005D
:104090000280FB00000040007800400060007D00CE
:1040A0000008EB00FD3B0700AF6197000380FB00B9
:1040B000000040000D0040000008EB00000120005F
:1040C0004F0778004F06BE004F05BE004F04BE00EC
:1040D0002F05B100000006008BFD370080992000FD
:1040E0002BFD0700A0679F008849E2008DFD3A0084
:1040F000F94F50008BFD320073638000834C8800C1
:1041000030CBBF0088E9B7008969EF00C004200008
:104110004F0778004F06BE004F05BE004F04BE009B
:104120002F05B1000000060077FD3700E098200061
:1041300021C0B30090CF1000630232006F26070049
:104140008001EB00030078004F0778004F06BE00A7
:104150004F05BE004F04BE002F05B1000000060051
:1041600069FD37008041EB00A3679F0003407800A2
:104170008499200083982000004178008080FB0013
:104180006880400060C0790080707A000241E800D9
:1041900002407800E74F5100F8FF360080C0B300BE
:1041A000A0679F0000992000F9FC0700A0679F000E
:1041B000F94F5000BB09320074638000744C8800D2
:1041C0008869EF00700120004F0778004F06BE009D
:1041D0004F05BE004F04BE002F05B10000000600D1
:1041E00049FD3700205780006800600002073A0050
:1041F0007FFC0700D00320004F0778004F06BE0069
:104200004F05BE004F04BE002F05B10000000600A0
:104210003DFD370041F70700A0EF9F003FF7070083
:1042200080EF9F003DF707000080FB0008F02F00A3
:10423000080666000006760038F70700E0E79F00F2
:104240004800DD00FC0FB2000006760033F70700DF
:104250000080FB0008056500000575002FF70700CA
:10426000D0E79F008086FB004868DD00FA0FB200AF
:104270000005750029F7070090E79F0027F7070062
:10428000004778008FE997000338A3000C00320044
:104290000042EB00A4679F000444780009AC2000B2
:1042A0001EF707008880FB0080F07C00AF6297005B
:1042B0000544E800A8679F00E74F5400F8FF360068
:1042C0000FE897000048A3000C0032008040EB008C
:1042D000A1679F000144780089AB20000FF7070019
:1042E0008880FB0080F07C002F6197000244E8008A
:1042F000A8679F00E74F5400F8FF3600C04C8000CD
:10430000E10F40004A013200E50F460048013E003F
:10431000AFEA970063C46200E14F5400D306320055
:1043200080618000800F5600AD073A008A4C8800FB
:104330006C4C880020C0B3008EE9B7005003200009
:104340004F0778004F06BE004F05BE004F04BE0069
:104350002F05B10000000600EBFC37008E49E2009B
:1043600038043A008949E200A5023A000489A9000C
:1043700040CCB30088E9B700730320000300780045
:104380004F0778004F06BE004F05BE004F04BE0029
:104390002F05B10000000600DBFC3700009920006B
:1043A0007BFC0700A0679F00F94F5000DDFC320046
:1043B00075638000C54C880010C0B30088E9B70061
:1043C000300220004F0778004F06BE004F05BE00A8
:1043D0004F04BE002F05B10000000600CAFC3700E4
:1043E0000042EB00A4679F000440780046AE200026
:1043F000E2B020000080FB00C200DD00A00220002F
:104400000100400060007B00E10F4000040032002A
:104410000100430010689000A249E3002B00320025
:10442000AF6297000540E800A0679F00E74F50008B
:10443000F0FF36000040EB00A0679F00A2C9BF005C
:10444000414BE300BE0432001200200033B42000D0
:1044500084022000A2679F00840F5100B1FC32004B
:1044600082007800134078000201E8008381E800B0
:10447000A249E300F7FF3A000180400021B4200088
:1044800060C078008001EB000004E0000200320010
:10449000A2E9B700430320002F6197000280FB00D0
:1044A00000004000010040000048EB0003007800DD
:1044B0004F0778004F06BE004F05BE004F04BE00F8
:1044C0002F05B100000006008FFC37008849E2008C
:1044D000B3043A00028040000088EB00D0FF3700B0
:1044E0008EA9EF0020CCB30088E9B700A00320001C
:1044F0004F0778004F06BE004F05BE004F04BE00B8
:104500002F05B100000006007FFC37008849E2005B
:104510006D043A008969EF0073618000034D8800E3
:1045200020C0B3008FE9B70044618000C44C88000C
:10453000100320004F0778004F06BE004F05BE0055
:104540004F04BE002F05B100000006006EFC3700CE
:1045500010C0B30088E9B700400220004F07780080
:104560004F06BE004F05BE004F04BE002F05B10030
:104570000000060064FC370004C9BF000038A30037
:10458000A6063A0020CCB30088E9B700C00320009B
:104590004F0778004F06BE004F05BE004F04BE0017
:1045A0002F05B1000000060057FC370000992000DD
:1045B000F7FB0700F94F5000AD08320050CCB300B4
:1045C00088E9B700B00320004F0778004F06BE000F
:1045D0004F05BE004F04BE002F05B10000000600CD
:1045E00049FC37000489A90020CCB30088E9B70052
:1045F000700320004F0778004F06BE004F05BE0035
:104600004F04BE002F05B100000006003EFC37003D
:1046100004C9BF000038A30083013A0020CCB300D6
:1046200088E9B700300720004F0778004F06BE002A
:104630004F05BE004F04BE002F05B100000006006C
:1046400031FC3700E44AA9008849E2000C043A0032
:10465000160CA90089C9BF00AFF807008869EF00F0
:1046600083032000030078004F0778004F06BE0048
:104670004F05BE004F04BE002F05B100000006002C
:1046800021FC37000489A800705980000000E00078
:1046900002003200813A07002E2BEF00804C800090
:1046A000914C800090598800A15988008FC9BF00A3
:1046B00036EBB700614C8000F15988008E69EF003D
:1046C000800220004F0778004F06BE004F05BE0055
:1046D0004F04BE002F05B100000006000AFC3700A1
:1046E00088C9BF00E303200000FC3200F54F400002
:1046F0002204320060CCB30088E9B700E003200058
:104700004F0778004F06BE004F05BE004F04BE00A5
:104710002F05B10000000600FBFB370020CCB300E2
:1047200088E9B700900320004F0778004F06BE00CD
:104730004F05BE004F04BE002F05B100000006006B
:10474000F1FB370004C9BF00E840600020CCB30093
:104750004F013A0088E9B7000409A900FBC7B3007C
:104760000B00780006E9B7000100780007E9B70000
:1047700043032000030078004F0778004F06BE0077
:104780004F05BE004F04BE002F05B100000006001B
:10479000DDFB3700705980000000E00002003200AD
:1047A0003E3A07002E2BEF008849E20001003A0054
:1047B000E50AA8005B6CEF00D0432100E0628800AE
:1047C00020638000E100600009003A00F0962700B5
:1047D000F062880010002000006388008000FD0067
:1047E00062ECB70063ECB7008000FD00640CA80029
:1047F000A0628000E2C0B30081C520006F370700CF
:1048000010C0B30044F807000489A9000469A80097
:10481000700320004F0778004F06BE004F05BE0012
:104820004F04BE002F05B10000000600B6FB3700A4
:104830008041EB00A3679F00034178008BAE20000E
:104840008B017800930078000100E0000300320043
:1048500031009000800F5500690032000241E800ED
:10486000A2679F008381E800E74F5100F5FF3A00FF
:104870002FEA970063406200E14F5000F9033200D5
:104880009FE19700E1CF51005100360054FA2F000C
:104890000F00420023F707000004E00027FE32006B
:1048A0005F6097008080FB0081804000E4804000D2
:1048B00046AE200061017B00B20890000140A100DB
:1048C0003109980086BF9F009EF507005F60970042
:1048D0000080FB0000004000640040000FBB970018
:1048E00060007B0085982000954278002540980064
:1048F0005F6097000080FB00000040006400400003
:1049000060007B00AFE89700314898005F60970037
:104910000080FB00000040006400400060007B005D
:104920000FE99700224898005F6097000080FB0025
:104930000000400064004000E0007B00CC009800D4
:10494000E0007B00BA009800E0007B009FE1970048
:104950000340E900C04098005F6097000080FB00C2
:10496000000040006400400060007B003E40980072
:104970005F6097000080FB00000040006400400082
:1049800060047B0088C9BF0086BF9F00C139070053
:1049900080047800000C78000FBB97000000E00056
:1049A000EF0732000042EB00A4679F005B4C8000E1
:1049B0008C9820001C4678000C04E00021003A008E
:1049C0005B4C88000C00780088E9B700E40AA80076
:1049D000806180008A0F5000D8FD32008A4C880028
:1049E000500320004F0778004F06BE004F05BE0061
:1049F0004F04BE002F05B1000000060042FB370047
:104A000031409000804F570094FF3A0002407800F8
:104A10004CF50700392407008001EB0042FB37000A
:104A2000620090009D390700180078006900980026
:104A300021FA2F008F8040000080EB00C6F50700B0
:104A400084FC3700AF6497005F6097000080FB0034
:104A5000000040006400400060007B000984FB000F
:104A60001004440086BF9F002CF50700004C78001E
:104A70008944E800A9679F000FBB97008849E200BE
:104A8000CFFF3200AF6497005F6097000080FB00AB
:104A9000000040006400400060007B000984FB00CF
:104AA0001004440086BF9F001CF50700004C7800EE
:104AB0008944E800A9679F000FBB97008849E2007E
:104AC000E0FF3A00BEFF3700504C80001004E000C9
:104AD0009AFD3A00614C8000804C800027F7070067
:104AE000F94F5000AC003200044D800004E8A300F0
:104AF00090053200748CA90074ACA900750CA80054
:104B0000534C8000A34090008107B200C508DD002F
:104B100090638000F20F2F0002006000010070001F
:104B20009063880093409000CC08DD00F2FF2000E5
:104B300002006000010070009063880093409000C4
:104B4000010FB200C408DE00A063800002FF2F0046
:104B50000200600081007000A3C9BF0072ECB700C2
:104B60004F20DE004A00DD0001A0A100808070001F
:104B7000A16388000041EB00234090000004E000A6
:104B800064003500610061004B00DD0001B0A10050
:104B900080807000A1638800634C8000836388007C
:104BA000844C8000746388008FC9BF0076ECB70026
:104BB0009062800022C1B30061C620007F360700EA
:104BC000CE2307008001EB005EFD370007C9BF0060
:104BD0008080FB00B2F07A000040E80007E9B700EF
:104BE0002F6097008040E800A1679F00234090005D
:104BF000814F50008EFC360007C9BF008080FB004B
:104C0000B2F07A000040E80007E9B7002F60970093
:104C10008040E800A1679F0023409000814F500032
:104C2000EAFF3E0082FC37008A49E200BA06320001
:104C3000C04C8000E10F400078FE3200E30F4000DE
:104C400076FE3200E40F400074FE320025FA2F0099
:104C50008F824200638142008580E800CBF5070027
:104C60000004E0009E093A0020C0B30088E9B700C4
:104C7000300720004F0778004F06BE004F05BE00EA
:104C80004F04BE002F05B100000006009EFA370059
:104C9000C14C8000E18F40002F003200E38F4000C4
:104CA0002D003200E48F40002B00320012992000CA
:104CB0001241780060FA2F008F01400010C0B3004D
:104CC0006BF907000004E00095063200E14F500048
:104CD00094FA320010CDB30088E9B7000409A900A6
:104CE000FBC7B3000B00780006E9B7000769EF00C7
:104CF00043032000030078004F0778004F06BE00F2
:104D00004F05BE004F04BE002F05B1000000060095
:104D10007DFA370012C0B300610061004B00DD0076
:104D200001B0A10080807000A1638800634C800006
:104D300083638800844C8000746388008FC9BF003F
:104D400076ECB7009062800022C1B30061C62000FB
:104D50001A3607009AFF370044FA2F000F0042006E
:104D6000F0F50700804078000004E00085083A0074
:104D700010CFB30088E9B7000409A900FBC7B3004E
:104D80000B00780006E9B7000100780007E9B700DA
:104D90004303200077FE370062F60700F94F50000A
:104DA000E6FC3200752CA80074CCA80074ECA800B6
:104DB0000041EB00A2679F000240780063C620001C
:104DC000824078000080FB00030040000048EB00B8
:104DD0008140E80001407800E7CF5000F9FF36003D
:104DE00080C0B300A0679F005A6CEC00A0628000F6
:104DF000E2C0B30081C52000F03507003AFF37005C
:104E000000C3B300A338070000047800705988007D
:104E10000000E000E10A32002D6BEF00564C8000EC
:104E20000041EB00A2679F00824078009459800007
:104E3000A55980000408A300E6043200824C8000DB
:104E4000934C80000208A3001C003A00F0C6B30097
:104E5000964F100018003E002DCBBF0032C0B300AB
:104E60000440BC0070598000017178002DCBBF0058
:104E700032C0B3000440BC00705980000001410002
:104E800096417800134198002DCBBF0032C0B3008B
:104E90000440BC0070598000000141000040EB005C
:104EA000204198002D6BEC0094598000A55980009A
:104EB000824C8000934C80000603E8008300D10000
:104EC0000280D300804C8800914C88008500D1007E
:104ED0000480D30090598800A15988002F62970060
:104EE0008440E800A1679F00FFCF5000CFFF36004D
:104EF0002DCBBF00A0679F002C00320017C0B3006D
:104F0000B7679F00AF6297000580FB000000E900D3
:104F10004240A90022003400110020006309B900BA
:104F2000705980000002410063015200124390005A
:104F300014409000864F500011003100A2409000B4
:104F400092417800144978000400E800304178006C
:104F500062FA9F001040780070FA9F003F6097004F
:104F600032C0B3000440BC00705980000001410011
:104F7000214198001641980003497800AF629700DC
:104F8000BF6097008140E800B1679F000580FB008B
:104F90000000E9008180FB00810F5000DFFF3D0031
:104FA0000540E900A0679F00D5FF3A00504C800003
:104FB0000000E00002003200383807008A29EF00C4
:104FC0002D4BE200770732002C6BEF0010C0B300CE
:104FD0008EE9B7002CCBBF0032C0B3000440BC0048
:104FE00070598000000141001281FB001000200078
:104FF000010020000201E90003003300000040002E
:1050000081804800FBFF3700804C8800914C88006D
:1050100036CBBF008FE9B700800220004F07780031
:105020004F06BE004F05BE004F04BE002F05B10065
:1050300000000600B4F937001B0478004800900017
:10504000E40F400012003200E30F40000E00320077
:105050007163800038009000808F50000C00320097
:105060000288A30021FB3A00B1979F008900440009
:10507000F6804000114090000000A1009040980090
:1050800013C0B30019FB37000288A300F0FF3A00F9
:10509000890044000040EB00F050980013FB3700FB
:1050A0000E00A0000900780088E9B7000901780027
:1050B000F70044009141780061C0610007003A00A8
:1050C000024078000201E8008100E800F90F510079
:1050D000F8FF3A00F84F50002C00320000CFB30028
:1050E00088E9B700380890006F00600027003200A0
:1050F00018089000A80890000000560081805E000B
:1051000034422F00840F5000E08F580078013E0099
:105110000E00A1008041EB00E1C061004208DD000B
:105120000E24A100004777000E08A300FAFA32000F
:105130007FA997000204410046AE200064014400AC
:10514000E2007B0031409000A2E9B70031089000F6
:105150000050A000B008980062007B00300890006A
:10516000430320000048A3006EF9320003007800DA
:105170004F0778004F06BE004F05BE004F04BE002B
:105180002F05B100000006005FF937008041EB00F9
:10519000E1FF3700AF6297008581FB00038041008B
:1051A00078004000E0007B00110078007040900023
:1051B000A2E9B7008869EF001100780086BF9F0060
:1051C000B6370700AF6097000180FB000000400089
:1051D000780040000FBB970060007B00AF370700EE
:1051E0002F6197000280FB00000040000D0040008E
:1051F0000008EB000409A900FBC7B3000B0078000E
:1052000006E9B7000769EF0043032000B9FE370045
:105210002F6297008481FB000380410078004000EA
:1052200060027B00A400900080618000808F5000AD
:105230005A0432008244780014017800BC679F0051
:105240000380410078004000E0007B002140900096
:105250000004E0000D0032008590200081017800FC
:1052600007C9BF008080FB00B2F07A000040E80070
:1052700007E9B7003F6097000040E800B0679F0073
:10528000A340900080CF5000F5FF3E003F90970074
:1052900032FA2F008F00410086BF9F00AEF3070057
:1052A0002F6297008481FB0003804100F8014000D9
:1052B00048AE20000FBB970063017B00A200900066
:1052C00080618000808F50001700320063007C00F6
:1052D0001000780071370700AF6097000180FB0075
:1052E000000040007800400060007C006B37070041
:1052F0002F6197000280FB00000040000D0040007D
:105300000008EB0003012000030078004F0778003D
:105310004F06BE004F05BE004F04BE002F05B10072
:1053200000000600F8F837000980FB00000040008C
:1053300011B42000BF62970005F0780012017800D8
:1053400021B420007241900002F0780063007C00DC
:105350001000780051370700AF6097000180FB0014
:10536000000040007800400060007C004B370700E0
:105370002F6197000280FB00000040000D004000FC
:105380000008EB0003012000DFFF370030002000A1
:10539000706288004CACEF004062800062C0B300D5
:1053A000C1C42000853407000800780088E9B700F0
:1053B000300720004F0778004F06BE004F05BE00A3
:1053C0004F04BE002F05B10000000600CEF83700E4
:1053D0000080EB00B0979F000E10A00060FC2F0033
:1053E0000F004000273707003FA29700CFA2970089
:1053F000140C9800250C9800094578001B047800CF
:1054000011C0B3004A4C980043FA37000042EB0049
:10541000A4679F00C80AE200BAF93A000440780085
:10542000A1AC20000040E800A0679F00E44F5000BE
:10543000650332003100E000FAFF3200205780009F
:1054400098F837002CCBBF0032C0B3000440BC003A
:10545000705980000001410093982000934178002A
:1054600023419800604C80000000E00006003200FC
:10547000600C90000937070008007800684C88002D
:105480000800E000FAFF3A002C4BEC002CEBB700D0
:10549000D4B22000144278000404E100CBFE3A00AC
:1054A0002C6BEF00F3598000634C8800E18F4100C2
:1054B000100032002CCBBF0032C0B3000440BC004F
:1054C0007059800062407800CCF407000004E000CE
:1054D000080032002CCBBF00D5B2200095427800E6
:1054E0000504E100030031000040E8002CEBB700A8
:1054F000F0FF37002DCBBF002C4BE3005D003200E6
:1055000011C0B300A1679F00D0B2200090CF10005F
:105510009600360001407800634C8000715980008D
:1055200032C0B3000440BC00028240002CCBBF005C
:1055300032C0B3000440BC0001014100A240900011
:105540002440900080CF500009003600E18F4100D8
:105550000500320014407800A8F407000004E000C1
:1055600079003A00634C80002F6097002CEBB70065
:10557000AF6097000140E800A0679F00D2B2200012
:10558000124178000204E100E4FF3900E18F41009C
:105590001D003200302CEF0062210700E50AA9004F
:1055A000B3F407002CCBBF0032C0B3000440BC00F2
:1055B00070598000624078008EE9B700F0C0B300F7
:1055C00094E9B70095E9B70010C0B30088E9B700C7
:1055D000160CD500E2006000404C80000010A100D5
:1055E00001007000404C8800D00220004F07780076
:1055F0004F06BE004F05BE004F04BE002F05B10090
:105600000000060040F83700300880008CE9B70041
:1056100050088000F043B2008DE9B7002CCBBF00EA
:1056200032C0B3000440BC00705980006240780072
:1056300072F407000004E000D6FF3200300880005A
:105640008CE9B70050088000F043B2008DE9B70044
:105650002CCBBF0032C0B3000440BC0070598000A6
:105660006240780065F407000004E000E6FF3A00BD
:10567000C8FF37008CA9EF002C6BEF00A0FF3700AC
:10568000160CA80088C9BF00E14F4000F1FB3200B2
:10569000FAEAB70060FD2F000F00400079360700DE
:1056A0003FA99700CFA99700B2578800C357880039
:1056B000E44AA80089C9BF0097F407008869EF0091
:1056C00083032000E7FB370010CCB30088E9B70064
:1056D000E00320004F0778004F06BE004F05BE00D4
:1056E0004F04BE002F05B1000000060006F8370089
:1056F0000E00A1000080EB00B0979F0038089000DA
:10570000EF404000EF80600002FF2F0002006000C9
:1057100001007000300C98001B047800A0FC2F00E2
:105720000F004000573607005FA09700EFA09700DA
:10573000100C9800210C980013C0B30076FE3700BF
:105740008000EB004CFB3700634C8000AF6097009B
:105750000140E800A0679F00D2B22000124178000B
:105760000204E1006DFF390088FF3700634C8000C0
:10577000E18F410087FF3A00A3FF37008869EF00FF
:10578000030078004F0778004F06BE004F05BE00AB
:105790004F04BE002F05B10000000600DAF7370005
:1057A0000409A800AF6297008580FB00C208DD00F5
:1057B000800220000100400060407B0087E9B700C4
:1057C000A0C0B30086E9B70031CCBF0085E9B700BF
:1057D00030CCBF0084E9B700B202200001014100D3
:1057E000060141001240780083E9B700A102B00031
:1057F000868040001140780082E9B7008169EF009F
:1058000090C0B30080E9B70070C7B30006E9B700E5
:1058100030C0B30008E9B7000969EF001140780013
:105820000AE9B700124078000BE9B70040C0B300A6
:1058300007E9B7001100780021FA2F008F8040009F
:1058400045F20700AF6097000180FB004200DD00D9
:10585000E1B02000010040000088EB0003012000BF
:10586000FDF83700ADF10700A0679F00E14F500041
:1058700091003200AF619700E4CF51002FFA3A0057
:10588000A6F107008045780080618000800F5500F8
:105890002AFA32001FE29700E14F5200550036000D
:1058A00055FA2F000F8042001EF307000004E000AD
:1058B00022FA32005F6097008080FB008180400008
:1058C000E480400046AE200061017B00B2089000F9
:1058D0000140A1003109980086BF9F0099F107009F
:1058E0005F6097000080FB00000040006400400003
:1058F0000FBB970060007B008198200091407800EA
:10590000214098005F6097000080FB00000040008D
:105910006400400060007B002FE997003248980047
:105920005F6097000080FB000000400064004000C2
:1059300060007B008FE99700234898005F60970024
:105940000080FB000000400064004000E0007B009D
:10595000CC009800E0007B00BA009800E0007B00DB
:105960001FE297000440E900C04098005F60970084
:105970000080FB00000040006400400060007B00ED
:105980003E4098005F6097000080FB0000004000F0
:105990006400400060047B0088C9BF0086BF9F0090
:1059A000BC35070080047800000C78000FBB97001E
:1059B0000000E000DA0532008042EB00A5679F009E
:1059C0005F6097000080FB00000040006400400022
:1059D00060007B009000780040C0B30080487800F1
:1059E00010C0B300A0679F008849E200E1003A00C0
:1059F000E40AA8000A007800BAF10700A0679F0037
:105A0000F94F5000CDF93200E8F307003B200700C2
:105A10008869EF008199200062C620000700090014
:105A2000B25878000399200064C6200007000900DE
:105A3000B45978008042EB00A5679F0005407800CC
:105A4000A2C0B3000440BC00D161800081004100CD
:105A5000A2C0B300E0C320009A3207003062800089
:105A6000800F55009E073200AF6097000140E800AC
:105A7000A0679F00E74F5000F1FF3600C3032000EE
:105A80000B68A30019F73A0002C2B30002C0650018
:105A900088E9B700F1814100030078004F077800E2
:105AA0004F06BE004F05BE004F04BE002F05B100DB
:105AB0000000060014F73700E50AAB006DFF320066
:105AC000806180008A0F5000D2FB320018C0B30002
:105AD000886F9F0011F10700906F9F000FF1070082
