:020000040000FA
:10000000EFEF5BF01200FFFFEDEF4AF01200FFFF91
:10001000FFFFFFFFFFFFFFFFEDEF4AF01200FFFFC2
:10002000FFFFFFFFFFFFFFFFFFFFFFFFFFFFFFFFE0
:10003000FFFF04001CB80000F20C00000B000000E1
:100040001AB80000FC00000002000000FFA200003F
:10005000FE0000000100000007AE0000FF0C0000E1
:1000600001000000040E0E01B21501E1000C010CAC
:100070000E01B26BB36BAB6BAC6BAD6BAE6BAF6BBE
:10008000B06B120057EC10F03F0EE12402E3E16880
:10009000E652E16EDF6AFD0EDB5002E0D4EF04F0C1
:1000A0009DEC5AF0020E04C0DBFF030E05C0DBFF1F
:1000B000040E06C0DBFF050E07C0DBFF0E01A9B171
:1000C00041D20E01B2A1E9D2AD51AE1101E152D13E
:1000D00012EC14F0200B0EE16EEC13F0AAEC10F011
:1000E00009E32AEC10F0F80EEF140109EF6E2AEC88
:1000F00010F0EF8A12EC14F0200B2FE012EC14F049
:10010000070B01082AE16EEC13F0200EEB500009FA
:1001100005E1850EE66EC6EC12F007D066EC13F032
:1001200006E0850EE66E57EC13F036EC12F043EC69
:1001300011F046EC11F002E0F3EC14F04AEC11F08F
:1001400046EC11F002E0FAEC14F067EC14F0B29116
:100150002AEC10F0EF9AD1EF04F0DFEC14F0010B71
:1001600001E108D1DFEC14F0040B01E003D1E2EC73
:1001700014F0080B01E0FED0DFEC14F0200B01E0DE
:10018000F9D0E2EC14F0100B01E0F4D090EC13F095
:10019000EF8693EC13F0EF840DEC12F0EB50146E3D
:1001A000190EEB50145C01E3D1D04AEC11F080EC55
:1001B00010F00DEC12F070EC11F0060EEECFDBFF3C
:1001C000070EEDCFDBFF73EC13F01AEC13F001E335
:1001D000B4D0E0EC11F080EC10F073EC13F01A0ED8
:1001E00070EC11F0080EEECFDBFF090EEDCFDBFF58
:1001F000DFEC14F0800B01E0BDD0060EDBCF14F075
:10020000070EDBCF15F0080EDB50141801E08FD07D
:10021000090EDB50151801E08AD095EC14F014E1BA
:10022000080EDBCF14F0090EDBCF15F00E01E851FC
:1002300014180AE1E951151807E173EC13F01A0ECE
:1002400079EC11F01D0E2BD012EC14F0100B2AE0FB
:10025000060EDBCF06F0070EDBCF07F00A0E06C056
:10026000DBFF0B0E07C0DBFF95EC14F006E0B6ECED
:1002700014F010EC12F008E205D0B6EC14F094EC97
:1002800011F002E2E16AE552E16E145090EC13F0D5
:10029000EF8C6EEC13F01D0E7CEC11F01A0E01ECDD
:1002A00015F045D0D2EC11F01AEC14F005E26EEC2A
:1002B00013F0E9EC14F0F8D78EEC10F019EC15F00F
:1002C000060EDBCFEFFF070E96EC13F01AEC14F0DE
:1002D00003E242EC15F0FAD793EC10F026EC10F0A4
:1002E000D7EC12F06EEC13F0160EB1CEEBFF6EEC05
:1002F00013F01D0E79EC11F0060E4DEC11F095EC9B
:1003000014F006E0210E73EC14F0145C0AE306D03E
:10031000220E73EC14F0FF0F145C03E32AEC10F0D0
:10032000EF8673EC13F01A0E79EC11F008D173EC30
:1003300013F01A0E01EC15F046D773EC13F016EC1F
:1003400012F00DEC12F001EC15F026D790EC13F042
:10035000EF8A93EC13F0EF8890EC13F0EF9693ECA8
:1003600013F0EF940DEC12F078EC13F0EF6A90ECD0
:1003700013F0EF9066EC13F001E107D1E2EC14F01A
:10038000010B01E102D1DFEC14F0080B01E0FDD01C
:10039000E2EC14F0040B01E0F8D0DFEC14F0100BE9
:1003A00001E0F3D0E2EC14F0200B01E0EED090EC91
:1003B00013F0EF8493EC13F0EF861AEC12F0EB508D
:1003C000146E190EEB50145C01E3CED09AEC11F0D0
:1003D00080EC10F01AEC12F070EC11F00E0EEECF73
:1003E000DBFF0F0EEDCFDBFF6EEC13F01AEC13F01A
:1003F00001E3B1D043EC11F080EC10F06EEC13F09F
:100400001A0E70EC11F00C0EEECFDBFF0D0EEDCFDF
:10041000DBFFE2EC14F0800B01E094D021EC13F050
:100420000E0EDB50141801E090D00F0EDB501518A3
:1004300001E08BD099EC14F010E121EC13F00E01E7
:10044000E65114180AE1E751151807E16EEC13F0B4
:100450001A0E7CEC11F01D0E2BD05FEC14F0100B7B
:100460002AE00E0EDBCF06F00F0EDBCF07F0100EEA
:1004700006C0DBFF110E07C0DBFF99EC14F006E0AD
:10048000BFEC14F010EC12F008E205D0BFEC14F051
:1004900094EC11F002E2E16AE552E16E145093EC43
:1004A00013F0EF8C73EC13F01D0E79EC11F01A0EB3
:1004B00001EC15F04AD0D2EC11F01AEC14F005E280
:1004C00073EC13F0E9EC14F0F8D793EC10F019EC9E
:1004D00015F00E0EDBCFEFFF0F0E96EC13F01AECBB
:1004E00014F003E2EEEC14F0FAD78EEC10F026ECE8
:1004F00010F0D7EC12F073EC13F0160EB1CEEBFF48
:1005000073EC13F01D0E7CEC11F0060E4DEC11F0A7
:1005100099EC14F006E0210E76EC14F0145C0AE37A
:1005200006D0220E76EC14F0FF0F145C03E32DECE2
:1005300010F0EF866EEC13F01A0E7CEC11F01CEC50
:1005400015F088D1000EFBEF09F06EEC13F01A0ED7
:1005500001EC15F049D76EEC13F016EC12F01AEC22
:1005600012F001EC15F029D790EC13F0EF8893EC22
:1005700013F0EF8A90EC13F0EF9493EC13F0EF96F6
:100580001AEC12F078EC13F0EF6ADFEC14F0100BB9
:1005900001E183D0DFEC14F0200B01E17ED0E2EC2E
:1005A00014F0100B01E179D0E2EC14F0200B75E0AF
:1005B000E2EC14F0400B71E0DFEC14F0400B6DE066
:1005C00012EC14F0200B11E0DFEC14F0400B0DE006
:1005D0003DEC12F0E66EC6EC12F036EC12F02AECAE
:1005E00010F0EF9A6EEC13F014D05FEC14F0200BC7
:1005F00015E0E2EC14F0400B11E041EC12F0E66E75
:1006000057EC13F036EC12F02DEC10F0EF9A73EC7F
:1006100013F0200EB6EC11F0EF6EC3D193EC13F093
:10062000EF9C90EC13F0EF9C43EC11F046EC11F0D2
:1006300002E0F3EC14F04AEC11F046EC11F002E0A9
:10064000FAEC14F067EC14F0E0EC11F046EC11F069
:1006500009E0E0EC11F0DEEC13F0E0EC11F0EB6AF5
:10066000130EEB6A9AEC11F046EC11F009E09AECEB
:1006700011F0DEEC13F09AEC11F0EB6A150EEB6A58
:1006800057EC13F0A2EC10F00E01AF6BB06BAB5156
:10069000AC1102E06DEC14F0B2910E01B2A5DDD008
:1006A000AD51AE115DE012EC14F0400B59E012ECCC
:1006B00014F0100B21E0140EE8CEDBFF150EE9CE8E
:1006C000DBFF6AEC15F0140EDBCFE6FF150EDBCF77
:1006D000E6FF6FEC15F094EC11F002E2E16AE552EE
:1006E0005AEC12F003E090EC13F0EF8290EC13F070
:1006F000EF806EEC13F06CD0D2EC11F01AEC14F029
:1007000003E2EEEC14F0FAD78EEC10F08AEC13F062
:10071000120EE8CEDBFF130EE9CEDBFF26EC10F065
:10072000120EDBCFEFFF26EC10F0130EDBCFEFFF46
:1007300026EC10F0CBEC12F01AEC14F003E242ECD1
:1007400015F0FAD793EC10F08AEC13F06EEC13F07E
:10075000FFEC13F02AEC10F0EF9C6EEC13F076D067
:10076000AF51B01101E178D05FEC14F0400B74E0B0
:100770005FEC14F0100B31E0160EE6CEDBFF170E27
:10078000E7CEDBFF6EEC13F0EB50E66E73EC13F08C
:10079000FCEC13F0160EDBCFE6FF170EDBCFE6FF07
:1007A00073EC13F0EB50E66E6EEC13F0FCEC13F010
:1007B00094EC11F002E2E16AE5525AEC12F003E027
:1007C00093EC13F0EF8293EC13F0EF8073EC13F0E3
:1007D00074EC15F0EF9CFBEF09F0D2EC11F01AEC81
:1007E00014F005E273EC13F0E9EC14F0F8D793EC95
:1007F00010F08AEC13F09AEC11F078EC13F0180E6C
:10080000EECFDBFF190EEDCFDBFF1A0EE6CEDBFFDE
:100810001B0EE7CEDBFF26EC10F01A0EDBCFEFFF4E
:100820001B0E96EC13F01AEC14F003E2EEEC14F04D
:10083000FAD78EEC10F08AEC13F073EC13F0FFECA7
:1008400013F02DEC10F0EF9C73EC13F0210EE92661
:10085000000EEA22EF8E26D0B295B2A3FAEF09F08D
:1008600052EC10F0100E78EC13F0AAEC10F002E34A
:10087000850E61D022EC15F0010B09E1010EE66E48
:10088000BEEC0FF0E5528DEC13F0EF800BD022ECB4
:1008900015F0020B0AE1E66ABEEC0FF0E5528DECB2
:1008A00013F0EF824F0EFBEF09F052EC10F0140E34
:1008B00078EC13F0FF0EEE1802E1FF0EED1802E1E6
:1008C000FAEF09F052EC10F0160E78EC13F0FF0E70
:1008D000EE1802E1FF0EED1802E1FAEF09F022EC4A
:1008E00015F0080B06E00E018051811102E0FAEFCD
:1008F00009F01C0EDB6A22EC15F0040B0CE0A6ECF0
:1009000013F010EC12F002E2E16AE5525AEC12F038
:1009100016E0870E10D0A6EC13F094EC11F002E272
:10092000E16AE552E16E1450E76E1D0EE7CFDBFF82
:10093000DB5005E0880EF36E1C0EF3CFDBFF22ECDC
:1009400015F0080B12E022EC15F0040B01E0010E8B
:10095000E66E1C0EDBCFE6FFFBEC0FF0AFEC14F005
:1009600002E0510E1AD0DF6A19D053EC14F01C0EBD
:10097000DBCFEFFF52EC10F01E0EEB500E01B16F0B
:10098000180E4DEC11F022EC15F0040B02E0210ED4
:1009900001D0220E57EC14F04F0EDF6E6DEC14F008
:1009A000B293DF50FBEF09F0FD0EDB505C0A02E171
:1009B000EBEF09F0070A02E1DCEF09F0060A02E1B9
:1009C0000BEF09F0070A02E0FAEF09F00E019D5162
:1009D000800B01E1FED09C5102E1800E9D1913E0D5
:1009E0000E01B251010B01E0C9D0210E0E019C197C
:1009F00001E0C4D0800E9D1901E0C0D00001FD517E
:100A000001E1BCD0C9D01E0EDB6A0A0E7AEC10F0F0
:100A1000270EEFCFDBFF0B0E7AEC10F0280EEFCF96
:100A2000DBFF020E7AEC10F01F0EEFCFDBFF030EA0
:100A30007AEC10F0200EEFCFDBFF040E7AEC10F012
:100A4000210EEFCFDBFF050E7AEC10F0220EEFCF78
:100A5000DBFF060E7AEC10F0230EEFCFDBFF070E64
:100A60007AEC10F0240EEFCFDBFF080E7AEC10F0DA
:100A7000250EEFCFDBFF090E7AEC10F0260EEFCF3C
:100A8000DBFFD9501F0F5EEC12F027E1010EDB6A8D
:100A9000050E77EC10F025E2EAEC10F002E2E16AD4
:100AA000E552E16E175012EC13F0D9501F0FF3EC22
:100AB00011F002E2E16AE5525AEC12F00BE10A0E83
:100AC000E66ED9501F0F18EC11F002E2E16AE55210
:100AD000E16E1650010EDB2ADBD7D9501F0F7CECDC
:100AE00012F00E01B251020B45E0010E0E017AEC3C
:100AF00010F0EF503FE112EC13F052EC10F061EC0B
:100B000013F05CEC13F0020EB9EC11F002E2E16AB2
:100B1000E552E16E185000090DE10A0E0E01E7ECF6
:100B200013F0140E49EC10F00B0EE7EC13F0140E5A
:100B300035EC14F012EC13F052EC10F078EC13F0EA
:100B40003DEC14F0020E0E01B9EC11F002E2E16A84
:100B5000E552E16E185000090DE10A0E0E01E7ECB6
:100B600013F0160E49EC10F00B0EE7EC13F0160E16
:100B700035EC14F01E0EDB5029E04AD30E01B251C1
:100B8000010B0CE1220E0E019C1908E1800E9D194B
:100B900005E10001FD5102E0FD6B18D0220E0E01AF
:100BA0009C1902E1800E9D1914E0210E9C1902E1AE
:100BB000800E9D190EE0220E9C1901E19D5109E065
:100BC000210E9C1903E1800E9D1903E0510EFBEFED
:100BD00009F0F6EC1FF00E01B16F300E0E019C19FA
:100BE00001E19D5101E109D3310E9C1901E19D51B3
:100BF00001E103D3320E9C1901E19D5101E1FDD2C7
:100C0000330E9C1901E19D5101E1F7D2350E9C197B
:100C100001E19D5101E1F1D2340E9C1901E19D5198
:100C200001E1EBD2220E9C1901E19D5101E1B3D209
:100C3000220E9C1902E1800E9D1901E140D2210E85
:100C40009C1902E1800E9D1901E118D2210E9C1918
:100C500001E19D5101E1E1D1200E9C1901E19D517D
:100C600001E1D4D1130E9C1901E19D5101E17CD128
:100C7000100E9C1901E19D5101E164D1110E9C19E6
:100C800001E19D5101E15ED1140E9C1901E19D51DC
:100C900001E158D1060E9C1901E19D5101E148D1B5
:100CA000050E9C1901E19D5101E13BD1040E9C19F7
:100CB00001E19D5101E180D0030E9C1901E19D519C
:100CC00063E0020E9C1901E19D5146E0010E9C1962
:100CD00001E19D5138E09C5101E09AD29D5101E023
:100CE00097D2010EDB6A1AEC14F024E2010EE66ED4
:100CF000E66ADB50156AAE0F146EAA0EE1EC13F033
:100D0000D950290F2BEC14F0ECEC13F002E2E16A5D
:100D1000E552E16E175063EC14F02A0EE7CFDBFFCB
:100D2000DB50F36E290EDB50F35C01E071D2010E53
:100D3000DB2AD9D7E66A800EE66E67DBE552E5521C
:100D40000E018C850ED1D3EC12F001E161D2010EBF
:100D50000EEC13F05ADBE2D0D3EC12F001E158D2E2
:100D60000CEC15F00A0EE66EE66AD00E146EB50EA7
:100D700060EC10F002E2E16AE552E16E19500A0EF1
:100D80000E01A627020EC6D0D3EC12F001E140D22C
:100D90000CEC15F0020EE66EE66ADA0E146EB50E75
:100DA00060EC10F002E2E16AE552E16E1950020EC9
:100DB0000E01A627030EAED0D3EC12F001E128D22B
:100DC00063EC14F02B0EE7CFDBFF0E01010EA66FD4
:100DD0002B0EDB50000801E393D02B0EDB50146E7A
:100DE000156A153404E21450F008000E155401E29F
:100DF00087D0010EDB6A300EE66EE66A010EDEEC8D
:100E000010F0B60EE66E0E0EE66EECEC13F002E29B
:100E1000E16AE552E16E1750010EDB2A2B0EDB5022
:100E20000E01B65D04E0010EDB500308E4E2010EA2
:100E3000DB50030804E13FEC15F0830E64D03FEC77
:100E400015F0EF6A7CEC13F00E01D151E824146E1A
:100E5000BC51E824080F1424E66E0E0119EC15F0BD
:100E6000B6CEEFFF26EC10F0B7CEEFFF26EC10F079
:100E7000B8CEEFFF26EC10F0B9CEEFFF26EC10F065
:100E8000BACEEFFF0E01BB51F00BE842E842E84258
:100E9000E842100DBB510F0BF310E66E0E0119EC7A
:100EA00015F0BCCEEFFF0E01BC5182EC12F0BD0E6E
:100EB000E66E0E0E82EC11F002E2E16AE552E16E9E
:100EC00018500E01BC51020DF3500E01A62726EC5E
:100ED00010F0D1CEEFFF0E01D15182EC12F0D20E04
:100EE000E66E0E0E82EC11F002E2E16AE552E16E6E
:100EF00018500E01D151020DF3500E01A62709D052
:100F000026EC10F0820EEF6E7CEC13F026EC10F065
:100F1000EF6A040E0EEC13F090EC0CF0E552E55283
:100F200020D0D3EC12F001E173D1B2EC0CF019D067
:100F3000D3EC12F001E16CD1F5EC0CF0000901E109
:100F400067D10FD0D3EC12F001E162D14CEC10F07C
:100F5000840EEF6E7CEC13F08BEC12F0E66E13EC6B
:100F600011F04F0EDF6E54D163EC14F0340EE6EC4A
:100F700010F0350EE6EC10F02C0EE6EC10F02D0E15
:100F8000E6EC10F02E0EE6EC10F02F0EE6EC10F072
:100F9000300EE6EC10F0310EE6EC10F0320EE6EC1E
:100FA00010F0330EE7CFDBFFD9502C0F5EEC12F0C0
:100FB00028E1010EDB6A050E77EC10F001E328D181
:100FC000EAEC10F002E2E16AE552E16E175012EC31
:100FD00013F0D9502C0FF3EC11F002E2E16AE55264
:100FE0005AEC12F00BE10A0EE66ED9502C0F18ECF9
:100FF00011F002E2E16AE552E16E1650010EDB2AC1
:10100000DAD7D9502C0F7CEC12F002D1000EE66E2C
:10101000E66A39DBE552E552FAD0030E885D0BE152
:10102000AEEC11F001E1E7D0360EDBCBDBFF370E83
:10103000DCCBDBFF06D0360E8ACEDBFF370E8BCE45
:10104000DBFFC8EC13F0010EE66E49EC0EF0166EF5
:10105000060EE15C02E2E16AE552E16E165000091B
:1010600001E1C9D053EC14F086CEEFFF360EDBCF92
:101070008AFE370EDBCF8BFE210EBAD06AEC13F05E
:101080000CE011EC15F009E116EC13F006E1CBECE5
:1010900014F003E090EC13F0EF8C66EC13F001E138
:1010A000B7D047EC15F001E0B3D00E0116EC13F009
:1010B00001E0AED0D5EC14F001E1AAD066D06AEC24
:1010C00013F01AE011EC15F017E116EC13F014E12F
:1010D00012EC14F0800B10E090EC13F0EF802AEC8F
:1010E00010F0EF9EF6EC1FF0000903E06EEC13F039
:1010F0001FD06EEC13F022D066EC13F022E073ECFC
:1011000013F0C3EC13F014181CE116EC13F019E102
:101110005FEC14F0800B15E093EC13F0EF802DECF6
:1011200010F0EF9EF6EC1FF0000906E073EC13F0F0
:101130001CEC15F0EF8205D073EC13F01CEC15F0ED
:10114000EF926AEC13F010E011EC15F00DE116ECE3
:1011500013F00AE1DFEC14F0010B06E0CBEC14F025
:1011600057E06EEC13F013D066EC13F051E047EC4F
:1011700015F04EE10E0116EC13F04AE1E2EC14F02A
:10118000010B46E0D5EC14F043E073EC13F01CECDB
:1011900015F0EF8C3DD0030E885D0AE1AEEC11F046
:1011A0002AE0380EDBCBDBFF390EDCCBDBFF06D0D1
:1011B000380E8ACEDBFF390E8BCEDBFFC8EC13F086
:1011C000E66A49EC0EF0166E060EE15C02E2E16A98
:1011D000E552E16E165000090EE053EC14F086CE95
:1011E000EFFF380EDBCF8AFE390EDBCF8BFE220EEF
:1011F000E66E800E08D0DF6A0BD04CEC10F0840E47
:10120000EF6E8BEC12F0E66E13EC11F04F0EDF6E0A
:1012100075EC28F0EFD03C0EDB6A3D0EDB6ADF6A2E
:10122000230EF7EC13F03A0EF3CFDBFF3B0E9CECF2
:1012300010F001E1B5D0010EF36E3E0EF3CFDBFFEF
:101240004CEC15F0040E59EC15F0040EB6EC11F050
:1012500049EC10F0010EDB6A1AEC14F00AE283ECA0
:1012600013F089EC10F00F014DEC14F00FEC11F0BD
:10127000F3D783EC13F0170E59EC15F0100E59EC60
:1012800015F094EC12F083EC13F0180E49EC10F00A
:101290003DEC10F0180EC8EC14F00BE03DEC10F033
:1012A000180E46EC14F032E03DEC10F0120E65EC36
:1012B00012F0010EDB6A3DEC10F0180E77EC15F021
:1012C00003E2B6EC13F0F7D783EC13F0190E49ECF8
:1012D00010F03DEC10F0190EC8EC14F025E03DECD8
:1012E00010F0190E46EC14F01AE13DEC10F0120E5D
:1012F00046EC11F00BE03DEC10F0120EDEEC13F0BA
:101300003DEC10F0120EEB6A130EEB6A2FEC13F0AB
:10131000A2EC10F03A0EDB6A3B0EDB6A41D03DECEA
:1013200010F0140E65EC12F0010EDB6A3DEC10F0CB
:10133000190E77EC15F003E2B6EC13F0F7D73DEC9D
:1013400010F074EC15F0EF883DEC10F036EC13F073
:101350003DEC10F01C0E1FEC15F01D0E1FEC15F0EF
:101360001E0E1FEC15F01B0E1FEC15F016EC12F004
:101370003DEC10F0A7EC10F0B3EC14F0200E78EC7C
:1013800013F0EF6A2FEC13F07ED9E552E552DF6ED1
:101390000E017F0EA76F0E01A9910E01A66B2AD038
:1013A0000E01040E826F0E01A9910E017F0EA76F30
:1013B0000E01A66B500E1BD01DEC12F0030E3AEC82
:1013C00013F002E2E16AE5525AEC12F002E0510E2B
:1013D0000ED0DF6A0FD01DEC12F0020E3AEC13F0C3
:1013E00002E2E16AE5525AEC12F003E0510EDF6EC0
:1013F00001D0DF6ADF50146E3F0EE15C02E2E16A69
:10140000E552E16E145083EF10F057EC10F003EC4E
:1014100012F0DF5008E11DEC14F002E2E16AE5523F
:1014200025EC15F011D0DF040BE11DEC14F002E205
:10143000E16AE55225EC15F026EC10F0EF6A04D0D5
:101440003FEC15F0800EEF6E79EC14F013EC11F018
:10145000E552E55283EF10F057EC10F003EC12F078
:101460009DEC14F00B015D51141802E15E5115184A
:101470000AE0D9CFE9FFDACFEAFFFF0EEE1805E167
:10148000FF0EED1802E1010E01D0000EE552E5520B
:1014900083EF10F0A2EC14F0E652E652E652DE6A58
:1014A000DD6A030EDB6A040EDB6A99EC12F001E0E0
:1014B000C7D0230EF7EC13F0030EF3CFDBFF040EBF
:1014C0009CEC10F001E1CDD036EC10F036EC13F0CE
:1014D00036EC10F0060EDDEC12F036EC10F0160EC5
:1014E00078EC13F0B1CEEFFF36EC10F016EC12F002
:1014F00036EC10F01B0E15EC15F01C0E15EC15F06B
:101500001D0E15EC15F0A7EC10F0EF6A80EC14F04E
:1015100036EC10F0140EEB6A150EEB6AA1EC13F02A
:101520005DEC15F0B6EC11F0A7EC14F080EC10F0C7
:101530000001FC0E145CFF0E15585FE2020EDB6A20
:10154000080E7FEC11F00EE2A1EC13F02CEC15F07C
:10155000020EDB500F014DEC14F0E5EC14F0020E1E
:10156000DB2AEED7A1EC13F0170E5DEC15F0100E90
:101570005DEC15F094EC12F0A1EC13F0180EA7EC52
:1015800014F0180EC8EC14F00DE036EC10F0180E44
:101590000AEC11F028EC12F030E036EC10F0120EEC
:1015A000E3EC12F0020EDB6A36EC10F0180EC8EC19
:1015B00014F07FEC11F003E2CBEC10F0F5D7A1ECC6
:1015C00013F0190EA7EC14F0190EC8EC14F025E076
:1015D00036EC10F0190E0AEC11F028EC12F018E1BC
:1015E00036EC10F0120E46EC11F007E036EC10F07D
:1015F000120EDEEC13F080EC14F0030EDBCFE6FFEE
:10160000040EABEC14F0030EDB6A040EDB6A29D087
:1016100036EC10F0140EE3EC12F0020EDB6A36EC3E
:1016200010F0190EC8EC14F07FEC11F003E2CBECD3
:1016300010F0F5D736EC10F074EC15F0EF9811D0EF
:10164000FC0EDBCF06F0FD0EDBCF07F0030E06C06D
:10165000DBFF040E07C0DBFF36EC10F074EC15F076
:10166000EF88030EDBCF14F0040EDBCF15F014C0AF
:10167000F3FF15C0F4FF050EE15C02E2E16AE552FA
:10168000E16E83EF10F057EC10F0080EE12402E356
:10169000E168E652E16E860EF36E070EF3CFDBFFD4
:1016A000030EDB6A6AEC13F017E130EC12F0F3CFB3
:1016B000ADFEF4CFAEFE0E01F350F41001E1B3D055
:1016C000A2EC12F06EEC13F0ABEC12F02AEC10F07E
:1016D000EF9A0E01B281BED012EC14F0200B02E0A2
:1016E000000EB8D030EC12F0F3CFAFFEF4CFB0FE66
:1016F000F350F41001E197D06EEC13F0100E80EC73
:1017000010F073EC13F0100E78EC13F045EC12F0BF
:1017100001E089D01750151801E085D0020EDB6A70
:1017200043EC11F0E9EC12F06EEC13F0180EEB50F4
:101730007FEC11F033E2060EDB6A9AEC11F06DECEF
:1017400012F073EC13F0190EEFEC12F024E208EC37
:1017500014F00DEC14F04CEC12F045EC12F018E122
:101760001750151815E1070EDB500DE0070EDB6A68
:101770002DEC10F0EF8C0E01B2854CEC12F0EECF98
:10178000E6FEEDCFE7FE6EEC13F0A7EC10F0EF2ACB
:10179000FEEC11F0D6D7D4EC13F0C6D7860EF36E5C
:1017A000070EF3CFDBFF020EDB6A4AEC11F0E9EC27
:1017B00012F06EEC13F0190EEB507FEC11F033E2E7
:1017C000060EDB6AE0EC11F06DEC12F073EC13F036
:1017D000180EEFEC12F024E24CEC12F00DEC14F0C9
:1017E00008EC14F045EC12F018E11750151815E14B
:1017F000070EDB500DE0070EDB6A2AEC10F0EF8CD1
:101800000E01B28508EC14F0EECFE8FEEDCFE9FE54
:1018100073EC13F0A7EC10F0EF2AFEEC11F0D6D722
:10182000D4EC13F0C6D76AEC13F007E06EEC13F0BB
:10183000F3EC12F02AEC10F0EF8AAF51B01107E090
:1018400073EC13F0F3EC12F02DEC10F0EF8A030EB2
:10185000DB6ADB50146E080EE15C02E2E16AE552DD
:10186000E16E145083EF10F0A2EC14F0E652DF6A40
:1018700099EC12F050E0D9EC11F0210EC8EC14F004
:10188000100B2FE00E018051811145E175EC12F033
:10189000F350F41040E0010E80CEDBFF020E81CE4B
:1018A000DBFFD9EC11F0160EC8EC14F0E66E010E59
:1018B000DBCFE9FFDB2A020EDBCFEAFF01E3DB2A05
:1018C000E5EC14F0010EDBCFE9FF020EDBCFEAFFFF
:1018D000FB0E5AEC11F0200E9C6F800E9D6F510E86
:1018E00019D053EC14F0FB0EDBCFEFFFD9EC11F065
:1018F000160E78EC13F0EFCFB1FE200E57EC14F07B
:10190000D9EC11F0060E78EC13F0EECF92FEEDCF8D
:1019100093FE4F0EDF6EDF50E552E552E552F3D3F2
:10192000C6DB0E01A981B1CE00FE0E01020E896F49
:10193000030E885D08E1AEEC11F009E0DBCB92FE0E
:10194000DCCB93FE04D08ACE92FE8BCE93FE0E01AA
:10195000F9EC12F09B6BFC0EDBCF9CFEFD0EDBCF97
:101960009DFED1D3A4DB320EE12402E3E168E6520E
:10197000E16E300E89CEDBFF0CEC15F067DB020E5A
:10198000EF6E010EF36E310EF3CFDBFF030EF36E3D
:10199000310EDBCFF4FFF350F45C18E2300EE66E4C
:1019A000E66A310EDEEC10F0D9CFE6FFDACFE6FFC3
:1019B000ECEC13F002E2E16AE552E16E17503FEC05
:1019C00015F0DFCFEFFF310EDB2AE0D7050E57EC25
:1019D00014F0300EDB5002E00E018C85320EE15C1B
:1019E00002E2E16AE552E16E8ED361DB110EE12481
:1019F00002E3E168E652E16E0F0E89CEDBFFDF6A9B
:101A0000020EDB6A030EDB6A070EDB6A090EDB6A75
:101A10000A0EDB6A300EF7EC13F00D0EF3CFDBFF8E
:101A20000E0E8ADB01E101D163EC14F00B0ECEDB6C
:101A30000C0ECCDB060EE7CFDBFFDB5020E0060E02
:101A400001EC13F0020EF3CFDBFF030E75DB01E1B7
:101A5000ECD0100EDB6A060EDB5053EC12F00FE2F6
:101A600039EC11F0B4EC12F0E5EC14F039EC11F0B3
:101A7000B4EC12F0010E0DDB100EDB2AECD763EC98
:101A800014F0080EE7CFDBFFDB501EE0080E01EC80
:101A900013F0090EF3CFDBFF0A0E4EDB01E1C5D0D8
:101AA000100EDB6A080EDB5053EC12F00DE2E1DBA6
:101AB000BDEC12F0E5EC14F0DCDBBDEC12F0010E35
:101AC000E8DA100EDB2AEED7060EDB5005E1080E31
:101AD000DB5002E1010EDF6E050E0E01A627010E9E
:101AE000F36E100EF3CFDBFF030E53EC12F071E236
:101AF000050EDB6A300EE66EE66A100E5FDB41EC27
:101B000013F0ECEC13F002E2E16AE552E16E1750DB
:101B1000CADBEE520DEC14F00B0EDB50141856E13C
:101B20000C0EDB50151852E1DF5006E0010EF36E8B
:101B3000050EF3CFDBFF4AD0010EDB6AB4DB060EE5
:101B400077EC15F01BE2040EDB6A060E06EC13F0D0
:101B500012E248EC13F0020EDB501624E96E030E7D
:101B600033EC15F0070E6FDB03E11950151822E076
:101B7000040EDB2AEAD7010EDB2AE0D7010EDB6A6E
:101B800092DB1B0E77EC15F021E2040EDB6A080EE7
:101B900006EC13F018E248EC13F0090EDB501624A3
:101BA000E96E0A0E33EC15F01C0E4DDB09E11950FD
:101BB000151806E1010EF36E050EF3CFDBFF09D019
:101BC000040EDB2AE4D7010EDB2ADAD7100EDB2A5B
:101BD0008BD7050EDB5008E066DBEF50E66E0E019A
:101BE0008AEC13F0070EDB2A070EDB501EE0010E15
:101BF000F36E100EF3CFDBFF47DAEF6A100E44DA14
:101C00005DCBEFFF100E40DA5ECBEFFF100E3CDA3B
:101C1000070EDBCFEFFF060E57EC14F00F0EDB5074
:101C200002E00E018C85010E2BD0D9500D0F56EC21
:101C300012F007E041EC13F085DA0D0EDB6A0E0EB0
:101C4000DB6AD950020F56EC12F00AE0020EDBCF2D
:101C5000E6FF030EABEC14F0020EDB6A030EDB6A48
:101C6000D950090F56EC12F00AE0090EDBCFE6FF5F
:101C70000A0EABEC14F0090EDB6A0A0EDB6A000EEA
:101C8000146E110EE15C02E2E16AE552E16E14505D
:101C90003AD20DDA090EE12402E3E168E652E16E80
:101CA000020EDB6A0E01866B070E8ACEDBFF080E82
:101CB0008BCEDBFFFB0EDBCFE6FFFC0EDBCFE6FFC0
:101CC00022EC3DF0AFEC14F007E0030E5DCBDBFF40
:101CD000040E5ECBDBFF03D00E01840E866FFA0E7E
:101CE000DB0432E094DAC8EC3CF0E552E552190826
:101CF00024E18DDA22EC3DF0AFEC14F007E0050EA4
:101D00005DCBDBFF060E5ECBDBFF26D080DABEECC0
:101D100022F0AFEC14F007E0050EDBCBDBFF060E84
:101D2000DCCBDBFF19D0050EDB68060EDB68010E8D
:101D3000F36E020EF3CFDBFF0FD0050EC4CBDBFF3B
:101D4000060EC5CBDBFF08D087EC14F0050EEECFF6
:101D5000DBFF060EEDCFDBFFFD0EDBB221D0080E60
:101D60000E01C8D9EFCF87FE090EC4D9EFCF8AFE86
:101D70000A0EC0D9EFCF8BFE0B0EBCD9EFCF9CFE65
:101D80000C0E8427000E85239C0508E0080E84278E
:101D9000000E8523F6EC1FF00E0101D0FE0E886FB9
:101DA000020EDB5001E1A9D00E01AB51AC110BE1E9
:101DB000200EF7EC13F0F3CFABFEF4CFACFE0E0128
:101DC000F350F41003E10E01840EBED0DE6ADD6A2A
:101DD0004FEC13F004E6080E145C000E155812E2E6
:101DE000FB0EDBCFE9FFFC0ED3DA61EC13F0DE5023
:101DF0001424E96EDD501520EA6ED2DB010EE8E313
:101E0000DB2AE6D74FD9140E78EC13F0030EDBCFA4
:101E1000EEFF040EDBCFEDFF45D91A0E87CEEBFFA8
:101E200041D91B0ECADBDE6ADD6A4FEC13F004E613
:101E3000080E145C000E155810E2F80EDBCFE9FF17
:101E4000F90EA6DA2FD9080E78EC13F08EEC14F008
:101E5000A7DB010EEAE3DB2AE8D724D9160E78ECDB
:101E600013F0050EDBCFEEFF060EDBCFEDFF1AD928
:101E70001D0E88CEEBFF66DB15D9100E78EC13F043
:101E80006ADB10D91E0EB1CEEBFF8DEC13F0EF6ABA
:101E9000FD0EDBB20AD006D9180E78EC13F0070E4F
:101EA000DBCFEEFF080EDBCFEDFFFD0EDB50010BAD
:101EB000010803E18DEC13F0EF84FD0EDB50020B03
:101EC000020803E18DEC13F0EF86D950030FEBDB32
:101ED00002E1FF0EED1803E08DEC13F0EF80D95016
:101EE000050FE1DB02E1FF0EED1803E08DEC13F0CE
:101EF000EF820E01B283000E38D0030EDBCF8CFED2
:101F0000040EDBCF8DFE050EDBCF94FE060EDBCF7D
:101F100095FE0E01865119E1FD0EDB50010B010803
:101F20000AE10BDA7DDA02E2E16AE552C3DA0DE09A
:101F30000E01870E09D001DAF7D902E2E16AE55213
:101F4000B9DA03E00E01880E866FFD0EDB50020B3E
:101F500002080AE1FD0EDB50010BE66E86CEE6FFBD
:101F60004AD8E552E55201D0010E146E090EE15C2B
:101F700002E2E16AE552E16E1450C5D098D8E6520B
:101F80000E01A9810E01B351B32BE66E0E01C2DB27
:101F9000FD0EDB5013E0DF6A080EDF5C1DE282D825
:101FA00090DBDF500F011424E96E000E1520EA6E5D
:101FB000EF50E66E3FEC15F0F3DAEED7DF6A080E6D
:101FC000DF5C0AE26FD8080E93DBDF500F01B0D858
:101FD0003FEC15F0E5DAF3D739D8EF6A37D8EF6A76
:101FE0000E01020E896F9B6B9269936902DB9C6BF9
:101FF0009D6BE55288D0A2EC14F00E018051811146
:102000001FE173DA0E01F350F4101AE080CEDEFF08
:1020100081CEDDFFDFCFE9FFDF2A010EDBCFEAFF54
:1020200001E3DB2AEF6AF4DBFD0E44D9FC0EDB5042
:1020300002E0210E01D0220E9C6F800E9D6F02D017
:10204000000E01D0010EE552E5525DD0A651A62B3F
:1020500025EF14F043DB74EF15F045DB74EF15F05A
:1020600047DBEECFE6FFEFCFE6FF1200030EDBCF3C
:10207000E9FF040EDBCFEAFF12003A0EDBCFE9FFE7
:102080003B0EDBCFEAFF1200DBCFF3FFDB2AF3507E
:10209000DCD32EDBE5EF14F00E01010EA66FE85045
:1020A000A62BD3D3ABCEE9FFACCEEAFF1200D9CF3B
:1020B000E6FFDACFE6FFE1CFD9FFE2CFDAFF120089
:1020C000156E166A14C0E6FFE66E16C0E6FFA6514E
:1020D000186A000F176E0E0E182217C0E6FF18C000
:1020E000E6FF70EC5AF0196E070EE15C1200F36E19
:1020F000010E78D3EA6A8425E96E8551EA2212003E
:10210000F7DA0DEF14F0E552E5CFDAFFE7CFD9FFAC
:1021100012002CEC15F0010EDB501200DFDA170E66
:10212000EB50E66E1200DFDA170EEB50E66E12008F
:10213000B4DBEF50E66E1200F4CFDBFFBBDBF350F5
:10214000F410120076EC57F0E552E55212001F0E23
:1021500078EF13F0EECF18F0EECF19F0EECF1AF0C3
:10216000EFCF1BF0D950020F7BDB00011850EE5C63
:10217000146E1950EE58156E1A50EE58166E1B500C
:10218000EE58176E1C0E145C4E0E15580E0E165897
:10219000000E17581200F6EC1FF0E66E39DBE55220
:1021A000E750EE6EED6AF6EC1FF0156E146A30DB48
:1021B0001450EE261550ED22D4EF13F0DB50300D05
:1021C00079DBDC0E1426B50EE1EF13F0E7CFDBFF71
:1021D00063EF14F00A0EE66EE66A04EC15F0F1DA2D
:1021E000D30EE66E0B0EE66EECEF13F0EFCF14F0AD
:1021F00014C015F0146A52EC15F01450EE26155068
:10220000ED22010EDB2AD9503C0F39EF15F07FDBB0
:102210003DEF14F0BDDB020DF350F7EF13F0D5DB0B
:10222000010EDB2A120090EC0CF0E552E552120090
:1022300012DBEADB152261EC15F076EC53F0166E3A
:10224000050EE15C120054DAE9CF1AF0EACF1BF078
:10225000010EDB50020DE950F324E96EEA50F42040
:10226000EA6EEECF18F0EFCF19F0185000011418F5
:102270001200F6EC1FF0E66E100E156ADB34FE0B52
:102280001536146E12002ADA120E120031DAEE50F0
:10229000ED10120023DA140E12002ADAEECF8AFEB5
:1022A000EDCF8BFE12000D0EDBCFE9FF0E0EDBCF64
:1022B000EAFF1200DBCFEFFF0E01040E826F836B8B
:1022C00080CE84FE81CE85FE866B876B020E886F82
:1022D000896B5DCB8AFE5ECB8BFE9A6B9B6B12008B
:1022E000EB50020D1450F324E96E1550F420EA6E01
:1022F000120087DB6EEF13F084DB73EF13F0F36EE5
:10230000020E70D2E66E0E01A651176A000F166E0D
:102310000E0E172216C0E6FF17C0E6FF45EC5AF076
:10232000186E060EE15C120004EC20F0146E080E2C
:10233000E15C1200D8D9140E120088CEE6FF94CECC
:10234000E6FF95CEE6FF8ACEE6FF8BCEE6FF87CE90
:10235000E6FF8CCEE6FF8DCEE6FF12008A0EE66E1B
:102360000E0EE66EBEEC22F0AFEF14F0C1D9010EF6
:102370001200176A8425166E8551172216C0E6FFD3
:1023800017C0E6FFFDEC59F0186E060EE15C120076
:10239000DBCFEAFFE9CF16F0EACF17F0BFDAEF5054
:1023A000E66E12000E01A9810E01010EA66FDB6A16
:1023B0001200FC0EDBCFE9FFFD0EDBCFEAFF1200BF
:1023C00092D9120E12008AD91D0EEB50146E8BD9C1
:1023D0001F0EEB50120087D91D0EEB50146E7ED9E4
:1023E0001F0EEB50120037DAD30EE66E0B0EE66EC0
:1023F000FDEC59F0146E060EE15C1200060EDB2AAD
:10240000D950040F36D3E652E652F6EC1FF0DF6ED9
:102410005ADA010EE7CFDBFF120060D91B0E120063
:1024200056EC1EF0146E080EE15C12001A0E60D914
:10243000EF6A120058D91B0E1200940EE66E0E0EB3
:10244000E66E9CCEE6FF8C0EE66E0E0EE66E120079
:10245000F3CFDEFFF4CFDDFF70DA14501510120059
:1024600048DA4AEC0AF0E552E552120034EC0CF07E
:10247000E552E552E552DF6E120030D91C0EEB50EA
:10248000120031D91C0EEB501200EECF16F0EFCF38
:1024900017F0165014181200040EDBCFE9FF050EDA
:1024A000DBCFEAFF1200F36E100E9CD1D9D9EE50AB
:1024B000ED101200E16E145000091200CCD9BCECF2
:1024C00020F0E552E5520108120012D93C0EDBCF94
:1024D000EEFF3D0EDBCFEDFF12000AD9040EEECF6A
:1024E000DBFF050EEDCFDBFF1200040E80D9F3CF2A
:1024F00080FEF4CF81FE1200AED9E6EC20F0E5526A
:10250000E5521200156AE834FE0B1536146EE66EBD
:1025100015C0E6FF12000E019C51146E800E9D1135
:10252000156E9CCEE6FF1200100EE2D8EE52E5EFDB
:1025300014F0D950FC0FE96EFF0EDA20EA6EEE506F
:10254000ED1012009DEC5AF005C015F006C016F013
:1025500007C017F0120004C0EEFF15C0EEFF16C052
:10256000EEFF17C0EEFF1200020EDB501424E96EDE
:10257000030EDB501520EA6E1200090EDB50142406
:10258000E96E0A0EDB501520EA6E1200ADCEE6FFB2
:10259000AECEE6FF1200030EEF6E010EDB6A1200F4
:1025A00014DADF2A12002CEC0AF0000912000DDA0E
:1025B0000E01B351B32BB16F12009AD88ACEEEFF41
:1025C0008BCEEDFF120094D8DECFEEFFDDCFEDFF16
:1025D00012008ED8EECFDEFFEDCFDDFF1200EB5004
:1025E000F36E060EFFD01E0E83D8070EDBCFEFFF73
:1025F0001200866B876B0A0E8A6F8B6B8C6B9A6BE3
:102600001200DB50020DF350F7EF13F0DB50F36EC6
:10261000040EE8D0EE52EF50020B1200E66E800E70
:10262000E66E1200080EE66EE66A12008B5100019B
:10263000151812001A0EEB50146E180EEB50145CA5
:1026400012000C0EDBCF14F00D0EDBCF15F01200D4
:10265000EF50E66E84CEE6FF85CEE6FF12003A0E1E
:10266000DBCFE6FF3B0EDBCFE6FF12003DDAEE6A82
:10267000ED6A1200E66E49EC0EF0146E060EE15C97
:1026800012000D0EDBCFE6FF0E0EDBCFE6FF1200D1
:10269000040E176ADB34FE0B1736166E12004DD986
:1026A000D89015501200DCD8FF0EEE181200AFCEF5
:1026B000E6FFB0CEE6FF1200ABCEE6FFACCEE6FF03
:1026C0001200ABCE14F0ACCE15F012000E01AF51DB
:1026D000B01112000E01AD51AE111200ADCEE9FFE6
:1026E000AECEEAFF1200AFCEE9FFB0CEEAFF120095
:1026F000E926000EEA221200A9DC5DCBEFFFA6DC82
:102700005ECBEFFF12003E0E4CEF15F011DD9EDCAC
:102710000FEF11F09BDCE5EF14F0C4DCA7EF10F035
:1027200099DCEE52120099DCEE521200DBCF15F06C
:1027300015C014F0156A8ADC14C0EFFF87DCCBEFFC
:1027400012F0F6EC1FF0E66E36EF10F0ABDC1D0E6B
:10275000EB50E66E160E84DCA5DC1B0E81DCA2DCE1
:102760001A0EEB50E66E140E30EF10F03E0E8CDCBD
:10277000EF50E66E97D9E552E750EE6EED6A3E0EE9
:1027800083DCF6EF10F0060EBBDC0E018A5112005E
:102790000C0E0E01156A8425146E8551152291D9EF
:1027A0000B0EA8DC28EF13F0020EDB2AD9CFE9FFCD
:1027B000DACFEAFFEE26000EEF22120051DCA2EF84
:1027C00010F01522166A7DD916C0E6FF120092DCC1
:1027D000EF50E66E52EF10F070EC5AF0176E070EE5
:1027E000E15C1200DBCFF4FFF350F45C1200E66E04
:1027F00004EC57F0E5521200060E30EF10F0160E02
:10280000EB500E01B16F060E48DD220E66EF15F09B
:10281000DECFE9FFDDCFEAFF1200EECF14F0EFCFFD
:1028200015F0120017DCEF5012001410E66E1C0EAB
:1028300049EF10F0080E77EF10F02EDCEF6AF2DEB1
:10284000AE0E146EAA0E60EF10F0EA6A000FE96E89
:102850000E0EEA221200E66E000EDA20E66E12007C
:10286000E96E000EDA20EA6E120080DD12DC010E45
:10287000F36E1E0EF3CFDBFF1200E9CF14F0EACFA8
:1028800015F0E9CFE6FFEACFE6FF1200C3DC3C0E0D
:10289000F3CFDBFF3D0E9CEF10F0E924E96E000E54
:1028A000EA20EA6E12000E01A9814CEF10F0B6DEAC
:1028B00013EF11F0F3CF14F0F4CF15F012002DEC5C
:1028C00010F0EF501200F6EC1FF0E76E12005EDE23
:1028D00039DC0E01AD6BAE6B1200EEDE33DC0E01A7
:1028E000AB6BAC6B1200F2D8E3EF11F0EFD8EBEF6B
:1028F00011F0FC0EDBCFE6FFFD0EDBCFE6FF120092
:1029000036EC10F0120EEB6A130EEB6A1200F80EA2
:10291000DBCFE9FFF90EDBCFEAFF1200DE50E9243E
:10292000E96EDD50EA20EA6E12002AEC10F00AEFA0
:1029300013F02DEC10F00AEF13F0DECF14F0DDCF22
:1029400015F0120057EC10F0E652E652120049EC76
:1029500010F036EF10F0DBCFE6FFA2EF10F0E552FB
:10296000E55200091200EF6A3DEF10F0B3D80A0EED
:10297000DBCFE6FF0B0EDBCFE6FF6FEF15F0AFD836
:10298000100EDBCFE6FF110EDBCFE6FF6AEF15F08E
:10299000AFDEEF501200F6EC1FF0146E6EDD45DF77
:1029A000BFDEEF9E3FDF080B1200F6EC1FF0146E47
:1029B00068DD3BDFB8DEEF9E82DF080B1200B0DE81
:1029C000EF501200B0DEEF501200E552E750EF6E0C
:1029D0001200080ECBDCDB5086EF13F07FDE89ECB3
:1029E00010F086EF13F04FDCE9DE4DDCEB6A130EDE
:1029F000EB6A12004FDCE2DE4DDCEB6A150EEB6A8F
:102A0000120076DEEF2A1200010EDB500A0D52DFB3
:102A1000950E1426AD0E12004CEC10F0EF6A7CEF10
:102A200013F05CDEB0DE1418120062DEEF6A36EFDF
:102A300010F070DE26EF10F057D8EE52120058DE7C
:102A4000B3EF14F06ADEEF501200E16E1950080E79
:102A50000E01A6277CEF13F0080E4ADEE9CF14F032
:102A6000EACF15F01200DB501720EA6ED6DE53EFE6
:102A700011F0F6DE020EEE26000EEF2212000E011D
:102A800026EF10F030DE89EC10F086EF13F02BDE2D
:102A90007ADE00011418120044EC10F0EF50E66EDC
:102AA0003DEF10F03C0EDBCFE9FF3D0EDBCFEAFF40
:102AB000120049EC10F083EF13F049EC10F0A1EF95
:102AC00013F014C0E6FF15C0E6FF1200E66EE66ADA
:102AD00013EF11F093EC10F001DEFCEF13F08EEC2D
:102AE00010F001DEFCEF13F0210E78EF13F050DF51
:102AF00077EF10F01F0E0C01AD1501E1000C010C79
:102B000002EC27F0E652E6520C01AD6BDF6A080ECC
:102B1000DF5C06E2EA6ADF34C5EC24F0DF2AF7D78F
:102B2000DF6A080EDF5C06E2EA6ADF34C9EC24F0F3
:102B3000DF2AF7D7DF6A050EDF5C04E27BEC25F0C5
:102B4000DF2AF9D7DF6A150EDF5C06E293EC26F088
:102B5000EE68ED68DF2AF7D7020EE66EE66AF60E3B
:102B6000146EAA0EA3EC25F0010F3CEC24F002E257
:102B7000E16AE552E16E1750D950010F05EC27F0DC
:102B80005A0EEE1802E1C30EED1826E05A0EF36E4F
:102B9000010EF3CFDBFFC30EF36E020EF3CFDBFFAC
:102BA000FFEC24F0F60EE66EAA0EE8EC25F002E249
:102BB000E16AE552E16E1450040EE66EE66A8E0E8E
:102BC000E66EAB0ED2EC25F0960EE66EE66AF80ED7
:102BD000E66EAA0ED2EC25F0020EE66EE66A930EC1
:102BE000146EAD0EA3EC25F0030F3CEC24F002E2D2
:102BF000E16AE552E16E17507B0EF36E030EF3CFE0
:102C0000DBFF4E0EF36E040EF3CFDBFF020E12EC71
:102C100027F0930EE66EAD0EE8EC25F002E2E16AD5
:102C2000E552E16E14500B01DB69DC69DF6A050EC9
:102C3000DF5C09E2B0EC27F002E2E16AE552E16E06
:102C40001650DF2AF4D70C01A86BA96BAA6BAB6BEB
:102C5000040EAC6F050EE15C02E2E16AE552E16E42
:102C60007AEF24F055EC24F01E0EE12402E3E16833
:102C7000E652E16EFD0EDB5001E0B3D29DEC5AF05E
:102C8000040E04C0DBFF050E05C0DBFF060E06C008
:102C9000DBFF070E07C0DBFF0C01ADA524D00E0142
:102CA000A9B121D00C01AD950E01A99DC8CC82FE21
:102CB000CACC84FECBCC85FECCCC86FECDCC87FEA8
:102CC000CECC88FECFCC89FED0CC8AFED1CC8BFE78
:102CD000D2CC9AFEEBEC25F00E019B5102E01AEFEC
:102CE0001BF018EF1BF00C01ADA97BD0DF6A050EBD
:102CF000DF5C75E250EC27F070E0BDEC27F00F01CF
:102D00001424E96E000E1520EA6EEF50FF080FE163
:102D1000C9EC27F080EC24F0C9EC27F0EE6AED6AEC
:102D200014EC28F080EC24F07BEC25F056D0BDECC0
:102D300027F0EF2A1424E96E000E1520EA6EEFCF7B
:102D40009BFE32EC26F0110E41EC24F0EFCF88FE12
:102D500032EC26F0EECF8AFEEECF8BFEEECF8CFE6D
:102D6000EECF8DFEEECF8EFEEECF8FFEEECF90FE3D
:102D7000EFCF91FE32EC26F0120E54EC27F032EC3D
:102D800026F08AEC26F0EECF86FEEDCF87FE32EC01
:102D900026F05BEC28F0EECF9CFEEDCF9DFE32ECF2
:102DA00026F0130E58EC27F032EC26F03EEC28F01B
:102DB000EECF84FEEDCF85FE0E01010E896F32EC61
:102DC00026F0140E41EC24F0EFCF83FE010E9F6F2E
:102DD0000E01806B816B1AEF1BF0DF2A88D70C0184
:102DE000AD99ADAB2ED0080EDB6ADF6A150EDF5C45
:102DF00023E293EC26F0FF0EEE1802E1FF0EED1831
:102E000019E073EC24F032EC25F050EC25F00E0EB6
:102E10001454270E1554070E1654000E175405E2CD
:102E200093EC26F0EE68ED6805D0010EF36E080E07
:102E3000F3CFDBFFDF2ADAD7080EDB5002E10C010B
:102E4000AD9B0C01ADA761D10E01A951010B01E0B1
:102E50004CD1A951800B01E148D1DF6A080EDF5C3B
:102E600001E343D1EA6ADF3429EC25F001E13BD1EB
:102E700077EC27F0080B01E10CD127EC26F00D0EC2
:102E800041EC24F0090EEFCFDBFF77EC27F0070BC6
:102E9000000935E127EC26F00E0E58EC27F09AECED
:102EA00026F00D0E41EC24F0EFCF89FE9AEC26F0CF
:102EB00061EC28F008EC25F09AEC26F00E0E54ECAC
:102EC00027F09AEC26F05EEC28F0EFCF9BFE7BEC2F
:102ED00027F0EE50ED1002E035EC28F0EA6ADF341E
:102EE00047EC26F018EC28F0C9EC24F085EC25F02E
:102EF0003CEC26F080EC24F085EC25F0DBD127ECCF
:102F000026F03EEC28F0EFCF8AFE77EC27F0070B97
:102F1000010807E177EC27F0100B03E00E01020E29
:102F200009D077EC27F0E00BE842E842E842E842BB
:102F3000E8420E018B6F27EC26F00B0E58EC27F0C1
:102F40007EEC27F0030808E19269936927EC26F0EC
:102F50005BEC28F0EF9C09D027EC26F0060E41EC44
:102F600024F0EECF92FEEDCF93FE94EC3CF00E01F8
:102F70009C6F9AEC26F03EEC28F09CCEEFFF21EC03
:102F800027F09AEC26F0D7EC24F00E01836B010EAB
:102F9000DB6A0E018251ACEC24F014E2010EDB502E
:102FA000146E156A7BEC27F0ACEC25F0EF50E66E62
:102FB0000E01A651A62BC3EC26F0E4EC24F0010E82
:102FC000DB2AE7D727EC26F0120E1FEC28F00E01C3
:102FD0009DEC26F09AEC26F00E0E3BEC28F027EC48
:102FE00026F0040E87EC27F0040E3BEC28F027ECCB
:102FF00026F0100E87EC27F0100E3BEC28F07EEC4C
:1030000027F003080AE127EC26F0060E87EC27F0EC
:10301000060E44EC26F027EC27F07EEC27F00108A2
:103020000BE07EEC27F0030807E09AEC26F00F0E89
:1030300044EC26F027EC27F027EC26F00A0E3BECB8
:1030400028F077EC27F0070BE806E850070BF36E43
:10305000F46EF80EEF14F310EF6E27EC26F05EEC32
:1030600028F0EF9621EC27F027EC26F0D7EC24F09F
:103070000C01AD8377EC27F0070B000901E003D2C8
:103080007BEC27F0EE50ED1001E1FDD135EC28F09E
:10309000FAD127EC26F00A0E44EC26F0400B23E090
:1030A00027EC26F032EC25F0000150EC25F0360E2E
:1030B00014546E0E1554010E1654000E175413E2DC
:1030C00027EC26F0040EDBCFEEFF050EDBCFEEFF84
:1030D000060EDBCFEEFF070EDBCFEEFF0E01826B9D
:1030E000490E4CEF1EF0DF2AB9D6DF6A080EDF5C0E
:1030F00007E2EA6ADF3429EC25F002E1DF2AF6D79D
:10310000080EDF5C02E10C01AD970C01ADA34BEFA3
:103110001EF0DF6A080EDF5C50E2A8EC24F04BE002
:103120002EEC26F00C0E44EC26F045E02EEC26F0BA
:10313000EECF1CF0EECF1DF0EECF1EF0EFCF1FF064
:10314000D950040F05EC27F000011C50EE5C186EFE
:103150001D50EE58196E1E50EE581A6E1F50EE5844
:103160001B6E18C004F019C005F01AC006F0076EF7
:103170005AEC58F005C014F006C015F007C016F060
:1031800008C017F0400E0A6E540E0B6E090E0C6E3E
:10319000480E0D6E75EC58F0010A0DE12CEC28F08C
:1031A00002E01CEC28F083EC27F0200B04E1B9ECE2
:1031B00027F02DEC27F0DF2AADD7DF6A080EDF5CA1
:1031C00005E2A8EC24F002E1DF2AF8D7080EDF5C64
:1031D00002E04BEF1EF00C01AD930E01826B4BEF42
:1031E0001EF0FD0EDB50550A02E143EF1EF0070A08
:1031F00002E1FFEF1DF0220A02E1F5EF1DF01E0AC9
:1032000002E1EDEF1DF0020A02E1E5EF1DF0230AF5
:1032100001E157D27A0A53E0010A02E04BEF1EF0B7
:10322000DF6A080EDF5C02E34BEF1EF0A8EC24F02F
:1032300044E02EEC26F00C0E44EC26F00E019C5DD2
:103240003CE183EC27F0100B02E0825136E02CECDD
:1032500028F033E082510AE01CEC28F02BEC26F039
:103260000E0E41EC24F082CEEFFF27D0A1EC27F028
:10327000EFCF89FE8EEC27F008EC25F02EEC26F03F
:103280000E0E54EC27F0CDEC27F0EFCF9BFEDDECDB
:1032900027F0EE50ED1008E0DDEC27F080EC24F094
:1032A000DDEC27F0EE6AED6A41EC28F0B9EC27F08E
:1032B00018EC28F0C5EC24F067D3DF2AB2D70B0E48
:1032C000DB6AF6EC1FF0E76E0A0E30EC27F005E043
:1032D00045EC24F0030B020849E122EC28F004E15C
:1032E00045EC24F0100B07E1F6EC27F004E0F6ECD7
:1032F0001FF00C01D36FF6EC27F008E1F6EC1FF09D
:103300000C01D66FF6EC1FF00C01D76FF6EC1FF036
:103310000C01D46FF6EC1FF00C01D56FF6EC1FF02A
:103320000C01CC6FF6EC1FF00C01CD6F22EC28F0F5
:1033300004E145EC24F0100B04E0F6EC1FF00C0166
:10334000D26FF6EC1FF0E76E0B0E30EC27F00EE1BB
:103350000B0EDBCFE6FF8ACEE6FF8BCEE6FFD4EC8A
:1033600022F00EEC27F0000901E0A8D10E01836BDA
:1033700045EC24F0030B000901E05ED1F6EC27F0E8
:1033800009E1D6CCE6FFD7CCE6FF16EC26F008081C
:1033900001E194D14FEC26F0000910E04FEC26F04B
:1033A00002080CE0F6EC27F009E022EC28F001E03E
:1033B00085D145EC24F0100B01E080D122EC28F0FF
:1033C00003E10C01CE6B03D00C01020ECE6F45EC75
:1033D00024F0400B5DE0AD8582CEC8FC84CECAFCF3
:1033E00085CECBFC4FEC26F0020802E0000E01D0A7
:1033F000010ECF6F8ACED0FC8BCED1FC8ACE92FE4E
:103400008BCE93FE0E010A0E8A6F010E8B6F826BBC
:1034100094EC3CF00E019C6F0A0EDB9CDB90DB828F
:10342000DB9A836B0E016FEC24F00B0EDBCFEFFF0A
:103430006FEC24F0D3CCEFFF6FEC24F0CDCCEFFF9A
:103440006FEC24F0CCCCEFFF6FEC24F0D5CCEFFF89
:103450006FEC24F0D4CCEFFF22EC28F003E10A0E4D
:10346000DB8807D00A0EDB94DB966FEC24F0D2CC1D
:10347000EFFF0A0EDB9CDB90DB82DB9A6FEC24F023
:103480000A0EDBCFEFFF0E01A981330E4CEF1EF0C9
:10349000F6EC27F004E0FF0ED35D01E0ACD0DF6A6C
:1034A000050EDF5C01E3A4D050EC27F001E09ED0D4
:1034B0001E0EE66E04EC57F0E552F4CF15F014EC56
:1034C00028F076EC25F050EC27F001E17CD3F6EC07
:1034D00027F00FE1010EDB6A080EACEC24F02AE2C3
:1034E00025EC28F0EF50E66E32EC26F0D3EC26F017
:1034F000F3D7010EDB6A020EACEC24F013E2010EEE
:10350000DB28300DF3CFF6FFF4CFF7FFDC0EF62605
:10351000B50EF7220800F550E66E32EC26F0D3EC3B
:1035200026F0E9D732EC26F0160E41EC24F05EECE2
:1035300025F0EF6832EC26F0100E41EC24F0EF6A33
:1035400032EC26F0110E41EC24F0CECCEFFF32EC41
:1035500026F08ACEEEFF8BCEEEFF8CCEEEFF8DCE28
:10356000EEFF8ECEEEFF8FCEEEFF90CEEEFF91CE31
:10357000EEFF32EC26F0120E41EC24F0D2CCEFFF3D
:1035800032EC26F08AEC26F0CCCCEEFFCDCCEDFF71
:1035900032EC26F05BEC28F0D4CCEEFFD5CCEDFF7E
:1035A00032EC26F0130E41EC24F082CEEFFF32EC29
:1035B00026F03EEC28F084CEEEFF85CEEDFF45EC04
:1035C00024F0200B01E0010EE66E32EC26F0140E22
:1035D0005FEC27F0C9EC27F080CEEEFF81CEEDFF47
:1035E0000E01806B816B0C01AD8902D0DF2A58D7A8
:1035F000050EDF5CE8D2CECC88FE4FEC26F0020848
:1036000002E0000E01D0010E0E01896FEBEC25F0F7
:10361000CCCC86FECDCC87FED2CC9AFE9B510AE163
:10362000200E9C1905E1800E9D1902E10001FC6B42
:103630005A0E32D3510E30D345EC24F0030B02085E
:103640003DE1DF6A080EDF5C39E2A8EC24F034E0EB
:103650002EEC26F00D0E44EC26F003080EE18EEC65
:1036600027F036EC27F0BCEC20F028EC28F024E121
:10367000DBCBD0FCDCCBD1FC06D08EEC27F0EECF40
:10368000D0FCEDCFD1FC0E018A510C01D01914E110
:103690000E018B510C01D1190FE12EEC26F0100E0A
:1036A00044EC26F0F36E0B0EDB50F35C05E175EC99
:1036B00028F00E01826BCBD5DF2AC4D775EC28F039
:1036C00082D20E0EDB6A0E01A9B707D00E01895116
:1036D00002E09BCE9BFEC20E54D10E01890501E093
:1036E000B2D092CEE6FF93CEE6FF16EC26F00808A5
:1036F00001E1A9D0010EDB6A050EACEC24F001E378
:10370000A2D0ACEC27F0B6EC24F001E099D01E0E6C
:10371000E66E03EC25F0ACEC27F052EC26F076ECEC
:1037200025F0ACEC27F0B6EC24F001E18CD00F0EC4
:10373000DB6A080EF2EC25F016E20F0EAFEC24F077
:10374000EF50E66E39EC26F0F4EC26F00F0EDB506D
:103750000F01E924E96E000EEA20EA6EE4EC24F0A1
:103760000F0EDB2AE6D739EC26F0100E41EC24F0E0
:10377000EF6A39EC26F0110E41EC24F0020EEF6EE8
:1037800039EC26F05DCBEEFF5ECBEDFF39EC26F099
:103790008AEC26F086CEEEFF87CEEDFF39EC26F0E0
:1037A0000A0EF9EC27F039EC26F0130E41EC24F068
:1037B000A6CEEFFFA6CEE6FF04EC57F0E552F4CF1D
:1037C00015F0A5EC27F076EC25F0A5EC27F0EE50EF
:1037D000ED100E018C51010BE66E39EC26F0140E43
:1037E0005FEC27F0A5EC27F0EECF14F0EFCF15F04B
:1037F00039EC26F00E0E41EC24F014C0EEFF15C09B
:10380000EDFF0E01806B816B0C01AD890F0EDB6A41
:103810000E01A651F2EC25F016E20F0EDB50C3ECC0
:1038200026F0EF50E66E0F0EDB50146E156AA5EC15
:1038300027F0ACEC25F0E4EC24F00F0EDB2AE8D7FF
:10384000010EDB2A59D70E01200E9C1905E19D516E
:1038500003E10001010EFC6F0E01210E9C1901E134
:103860009D5105E0220E9C1905E19D5103E10001E7
:10387000010EFD6F0C0EDB6A0E018CB1DB8A8CB57C
:10388000DB8C030E895D09E1920EE66E0E0E94EC60
:1038900025F035E10E01040E24D0890503E10C0E5C
:1038A000DB8409D0020E895D08E1921D28E1931D99
:1038B00026E10C0EDB94DB8622D0F5EC25F05DCB07
:1038C000E6FF5ECBE6FF4BEC21F0146E050EE15CEB
:1038D00002E2E16AE552E16E1450FF0808E10E01D0
:1038E000020E826F66EC25F00001FC6B4DD00E0ECF
:1038F000B7CBDBFFDB50E76E0D0EE7CFDBFFDF6AF8
:10390000080EDF5C05E2A8EC24F002E0DF2AF8D71D
:10391000080EDF5C34E0120EE66E03EC25F0B9EC25
:1039200027F062EC27F02BE0010EDB6A080EDF5C6B
:1039300008E2ACEC27F029EC25F003E0010EDB2ACD
:10394000F5D7010EDB50080816E0130EE66E03EC07
:1039500025F0ACEC27F047EC26F062EC27F00BE00A
:10396000A6CEE6FF03EC25F0DDEC27F062EC27F0B5
:103970000DE141EC28F0B9EC27F02DEC27F00E0119
:10398000F10E826F66EC25F0500E86D12EEC26F0FB
:103990003EEC28F0EF6A2EEC26F00E0E41EC24F0FF
:1039A0009ACEEFFF2EEC26F0100E41EC24F0A8CCBE
:1039B000EFFF010EDB50146EA8EC27F014500F0B34
:1039C000F36EF00EEF14F310EF6EA8EC27F0EF9803
:1039D000A8EC27F0EF8A91EC27F0EF6A2BEC26F0A9
:1039E00061EC28F086CEEEFF87CEEDFF2BEC26F0C3
:1039F0003EEC28F08ACEEFFF2BEC26F0100EF9EC0F
:103A000027F02BEC26F00D0E41EC24F0DFCFEFFF7A
:103A1000D0EC27F092CEEEFF93CEEDFF2BEC26F00C
:103A20000B0E41EC24F0A6CEEFFF0E018B51146E6D
:103A300091EC27F01450070BF36EF346F346F34670
:103A4000F346F3461F0EEF14F310EF6E1CEC28F054
:103A50000C01A851A82BE66E2BEC26F0120E5FECA1
:103A600027F00E018CA50DD0A8EC27F0EF8891EC83
:103A700027F0F80EEF140409EF6E91EC27F0EF88B1
:103A800006D091EC27F0F80EEF140109EF6E030E4B
:103A9000895D07E1D0EC27F0DBCBEEFFDCCBEDFF5F
:103AA00005D0890503E10C0EDB84DB86895155E1E5
:103AB0000E0EDB50FF0801E182D00E0EDB50C1EC90
:103AC00024F0100F3CEC24F002E2E16AE552E16ED2
:103AD0001750120EDB50FE0808E1A1EC27F0010E92
:103AE000EF6E0C0EDB84DB8607D0A1EC27F0020E14
:103AF000EF6E0C0EDB94DB96CDEC27F0120EDBCFD5
:103B0000EFFF8EEC27F045EC28F0D0EC27F045ECE9
:103B100028F094EC27F00E018C51010B02E0EF8AA3
:103B200001D0EF9A7BEC27F0D8EC25F0DF500E01A6
:103B3000D880A65507E219EC25F001E3DB2AE4EC76
:103B400024F0F4D7150EDB50E76E0E0EE7CFDBFF47
:103B5000DB50FF0801E0D3D632D0A1EC27F089CEAC
:103B6000EFFFCDEC27F09BCEEFFF8EEC27F092CE4F
:103B7000EEFF93CEEEFF94CEEEFF95CEEEFF96CE07
:103B8000EEFF97CEEEFF98CEEEFF99CEEEFF94ECCF
:103B900027F08C51010B02E0EF8A01D0EF9A7BEC09
:103BA00027F0D8EC25F0DF500E01D880A65507E2AB
:103BB00019EC25F001E3DB2AE4EC24F0F4D70C0146
:103BC000AD8766EC25F0000E67D0FCEC25F052ECDA
:103BD00023F0CAEC25F06D0E5FD0FCEC25F09FECD5
:103BE00023F0CAEC25F06F0E57D084CEE6FFE668CE
:103BF000E6689FEC23F0CAEC25F0710E4DD08A0EDA
:103C0000E66E0E0E94EC25F00FE0160EDBCBDBFF1C
:103C1000170EDCCBDBFF0E019E0510E0920EE66E68
:103C20000E0E94EC25F003E10E01030E29D0180EC0
:103C3000DBCBDBFF190EDCCBDBFF08D0180E92CEFE
:103C4000DBFF190E93CEDBFFFE0E9B6F9BCEE6FFD4
:103C5000180EDBCFE6FF190EDBCFE6FFF5EC25F003
:103C6000160EDBCFE6FF170EDBCFE6FF1FD8146E74
:103C7000080EE15C02E2E16AE552E16E14500E01C9
:103C8000826F560E09D00E01A9B703D00E01040EA3
:103C9000826F590E01D0000E146E1E0EE15C02E21E
:103CA000E16AE552E16E14507AEF24F055EC24F00D
:103CB0000C0EE12402E3E168E652E16EDF6A010ED8
:103CC000DB6A040EDB6A190EACEC24F04AE2040E47
:103CD000DB5047E1E0EC27F002E2E16AE552E16EF9
:103CE0001750E8EC24F08DEC26F002E2E16AE55290
:103CF000E16E17503CEC27F003E0CEEC25F0FDE13F
:103D0000E552E7142BE0020EDBCFE6FF98EC25F03E
:103D100003E04CEC25F0FDE1E552E7141FE0010E55
:103D2000DB5032EC24F002E2E16AE5522DEC25F0A2
:103D300015E123EC26F012E1FB0EDB500B01B45D24
:103D40000DE1E0EC25F00AE1FA0EDB50171806E170
:103D5000010EF36E040EF3CFDBFF03D0010EDB2A5E
:103D6000B2D7040EDB503AE1010EDB6AE66EE66A7A
:103D70008DEC26F002E2E16AE552E16E1750190E71
:103D8000ACEC24F011E23CEC27F003E0CEEC25F0A3
:103D9000FDE1E552E71408E0010EDB2AE66EE66A73
:103DA0008DEC26F0EAE2E7D7010EDB50190864E05B
:103DB000010EDB5060EC26F0FC0EDBCFB2FBFD0EFB
:103DC000DBCFB3FBFB0EDBCFB4FBF90EDBCFB5FBD8
:103DD000FA0EDBCFB6FB0B01B7692DD00B0EB7CBBC
:103DE000DBFF0B0EDB50FF0826E0060EE66EE66AF0
:103DF0000B0EDB5026EC25F0D950060F3CEC24F0DE
:103E000002E2E16AE552E16E1750060EDBCF14F0D4
:103E1000070EDBCF15F0F70EDB501418E2E1F80EB9
:103E2000DB501518DEE1F60EDB50F36E080EDB50AA
:103E3000F35CD7E1AFD0DF6AD4EC27F002E2E16AAD
:103E4000E552E16E1750190EDF5C0AE2030E6EECCC
:103E500025F003E0CEEC25F0FDE1E552E71404E1A6
:103E6000010EDB50DF5C05E1DF2AD4EC27F0E9E24C
:103E7000E6D7190EDF5C02E1870E8DD0050EB7CBB9
:103E8000DBFFDFCFB7FBBAEC24F002E2E16AE552D8
:103E9000E16E1450F70EDBCFB2FBF80EDBCFB3FBB5
:103EA000F60EDBCFB4FB050EDBCFB7FBDF5060ECCB
:103EB00026F0BAEC24F002E2E16AE552E16E145019
:103EC000E8EC24F08DEC26F002E2E16AE552E16EC6
:103ED000175098EC25F003E04CEC25F0FDE1F3ECF5
:103EE00024F003EC26F08E0F146EAB0E4AEC24F097
:103EF00002E2E16AE552E16E1650E0EC27F002E2E0
:103F0000E16AE552E16E175098EC25F003E04CECC5
:103F100025F0FDE1146E020EDBCFE7FF1450E7122F
:103F2000AFEC26F003EC26F0920F146EAB0E4AECC9
:103F300024F002E2E16AE552E16E1650D4EC27F07B
:103F400002E2E16AE5520AEC27F003E04CEC25F0CE
:103F5000FDE1F3EC24F0DF50E84036EC26F002E21D
:103F6000E16AE552E16E1650FFEC27F0E4EC26F032
:103F700002E2E16AE5520AEC27F003E04CEC25F09E
:103F8000FDE189EC24F04CEC28F002E2E16AE55214
:103F9000E16E1650000E146E0C0EE15C02E2E16A56
:103FA000E552E16E14507AEF24F0CFEC26F0080EC3
:103FB000DF5C09E2DF50EA6AD30FE96E0B0EEA22FA
:103FC000EF68DF2AF4D70B01DB69DC69DF6A050ED5
:103FD000DF5C09E2B0EC27F002E2E16AE552E16E53
:103FE0001650DF2AF4D7E5527AEF24F00E01825101
:103FF00001E1000C820784CEE9FF85CEEAFF842B25
:10400000000E8523EF50120066EC27F01FEC26F01F
:10401000F90EDBCFE6FFFA0EDBCFE6FFFB0EDBCFC0
:10402000E6FFD0EC24F037D9146E050EE15C02E215
:10403000E16AE552E16E1450E76E040EE7CFDBFF54
:10404000DB50FF0802E1050E8ED0040EDB50E76E58
:10405000030EE7CFDBFFDB5032EC24F002E2E16A33
:10406000E552E16E1750FF0E0B01B75D01E17AD00A
:10407000010EB7CBDBFFDB50F5DB02E2E16AE55274
:1040800042EC27F0F70EDB50141865E1F80EDB5018
:10409000151861E1F60EDB500B01B45D5CE1020E18
:1040A000B7CBDBFF030EDB50DDDB02E2E16AE5525A
:1040B000E16E1750020EDBCFB7FBBAEC24F002E240
:1040C000E16AE552E16E1450E8EC24F0DB40D1DB0C
:1040D000A1EC25F002E2E16AE552E16E1750010E13
:1040E0007FEC25F003E0CEEC25F0FDE1B5EC25F00A
:1040F000DB4036EC26F002E2E16AE552E16E165052
:10410000030EDB50F36E040EDB50F35C22E1020E73
:10411000DB50FF081EE1E8EC24F0040EDB40A9DBD5
:10412000A1EC25F002E2E16AE552E16E1750040EBF
:104130007FEC25F003E0CEEC25F0FDE1B5EC25F0B9
:10414000040EDB4036EC26F002E2E16AE552E16E55
:104150001650000E08D0010EDB50E76E030EE7CFBD
:10416000DBFF81D7050E146E050EE15C02E2E16A09
:10417000E552E16E1450BED3CFEC26F0050EDF5CA5
:1041800022E2D0DB02E2E16AE5521AEC26F001E11C
:10419000DC1D17E0080EE66EE66AD30EE66E0B0E27
:1041A000E66ED0EC24F0FDEC59F0146E060EE15CE6
:1041B00002E2E16AE552E16E1450000902E1010EEB
:1041C00003D0DF2ADBD7000EE55294D36EDB0B0E53
:1041D000E12402E3E168E652E16E45EC25F0010ED0
:1041E000D926000EDA2289EC25F089EC25F00B0E99
:1041F000D95E000EDA5A45EC25F08AEC26F036EC52
:1042000027F028D828EC28F017E1DF6A050EDF5CDC
:1042100017E288DB02E2E16AE5521AEC26F00EE1D1
:10422000DC1D0CE10A0EEBDB78EC26F033DB02E25E
:10423000E16AE552E16E1650010E03D0DF2AE6D79F
:10424000000E146E0B0EE15C02E2E16AE552E16ED3
:10425000145050D3CFEC26F0050EDF5C19E262DB80
:1042600002E2E16AE5521AEC26F001E1DC1D0EE003
:1042700045EC25F0EECF14F0EFCF15F01450DB191C
:1042800005E11550DC1902E1010E03D0DF2AE4D765
:10429000000EE5522FD302EC27F0DF6A190EDF5C27
:1042A0003AE296EC26F002E2E16AE55204EC28F0EC
:1042B00002E2E16AE552E16E1750020E6EEC25F063
:1042C00003E0CEEC25F0FDE1E552E71422E0010E1B
:1042D000DBCFE6FF62DB02E0DFDBFEE1E552E71465
:1042E00018E0DF50BFDA02E2E16AE552B6DB11E125
:1042F00023EC26F00EE1FB0EDB500B01B45D09E16F
:10430000E0EC25F006E1FA0EDB50171802E1DF5071
:1043100003D0DF2AC3D7FF0E0EEC27F0EBD2C5DAAD
:104320000B0EE12402E3E168E652E16EDF6A190E4A
:10433000DF5C01E3EFD096EC26F002E2E16AE552A1
:1043400004EC28F002E2E16AE552E16E1750020E39
:10435000C5DB03E0CEEC25F0FDE1E552E71401E119
:10436000D7D0010EDBCFE6FF18DB02E095DBFEE1E4
:10437000E552E71401E1CCD0DF5074DA02E2E16AE1
:10438000E5526BDB40E123EC26F03DE106DB02E089
:1043900083DBFEE109EC28F002E2E16AE552E16E1E
:1043A0001650FBDA02E078DBFEE16BEC26F002E26D
:1043B000E16AE552E16E1650FF0E0B01B75D01E1B7
:1043C000A7D006DBE5EC27F002E2E16AE552D3DB99
:1043D00002E062DBFEE1EBEC27F002E2E16AE5528B
:1043E000E16E1650060EE66EE66A0B01B7512EDB43
:1043F000B20EE66E0B0E88EC26F002E2E16AE552A0
:10440000E16E1750D9D7DF50C3EC27F01522090E03
:1044100014C0DBFF0A0E15C0DBFFFF0E0B01B75DFA
:104420004AE0B751AEDA030F27DA02E2E16AE55259
:10443000E16E1750030EDBCF14F0040EDBCF15F046
:10444000FC0EDB50141828E123EC26F025E1C0DA3D
:104450000B01E5EC27F002E2E16AE5528CDB02E0B9
:104460001BDBFEE1EBEC27F002E2E16AE552E16ED4
:104470001650080EDBCFB7FB49EC27F0090EDBCF57
:10448000E6FF0A0EDBCFE6FFC9EC26F002E2E16AA6
:10449000E552E16E1450C1D7090EB8CBDBFF0A0E0E
:1044A000B9CBDBFF0B01B751DDD902E2E16AE5527E
:1044B000E16E1750B2D7DF50D5D902E2E16AE5527A
:1044C000E16E1750FF0E0B01B75D22E1F3DBE4EC68
:1044D00026F002E2E16AE5520AEC27F002E0DCDABB
:1044E000FEE109EC28F002E2E16AE552E16E1650C5
:1044F00096EC26F002E2E16AE5520AEC27F002E0CF
:10450000CBDAFEE1E8DB02E2E16AE552E16E165049
:10451000DF2A0DD70B0EE15C02E2E16AE552E16EA3
:10452000E9D1C3D93DDA96DE28EC28F023E1190E53
:10453000146EE66EAADAEECFE6FFEFCFE6FFE6EC0A
:104540003CF065DB19E00B011CDB010803E019DB23
:10455000000912E1BCCBD3FBBDCBD4FBBECBD5FB5A
:10456000BFCBD6FBC0CBD7FBC1CBD8FBC2CBD9FBD3
:10457000C3CBDAFB010E01D0000EBCD196D910DA04
:10458000FBDD28EC28F00CE1190E146EE66E08DA5B
:10459000C8EC3CF03CDB06E0C4CBDBFBC5CBDCFB72
:1045A000010E01D0000EA6D166EC27F0DE52150EEA
:1045B000DD6E0C01AD8BDF6A150EDF5C3EE22CDB9D
:1045C000B2DBEECF16F0EFCF17F000011650141843
:1045D00018E11750151815E186D9060E55DBF36E54
:1045E000FB0EDB50F35C0DE1F2DB150EB5D907E2F3
:1045F000010EDB50DFDB61EC28F0EE68ED68010EA8
:104600001DD0010EDB50150816E18DDBFF0EEE18F4
:1046100012E1FF0EED180FE186DB8ACEEEFF8BCEA6
:10462000EDFF61D9060E2DD9FB0EDBCFEFFFCFDBFF
:10463000010EDFCFDBFFDF2ABFD7000EE552E552C8
:1046400059D1ADDB080EDF5C14E235D902E2E16A34
:10465000E552E16E1750E8CC14F0E9CC15F0FC0EF1
:10466000DB50141804E1EFDA02E1DF5003D0DF2A57
:10467000E9D7080EE5523ED192DB080EDF5C0FE26F
:104680001AD902E2E16AE552E16E17500C01E81D09
:1046900004E1E91D02E1DF5003D0DF2AEED7080E66
:1046A000E55228D1AFDBFB0EDB5002E0C3DB02E2B8
:1046B000010E43D075D9BADADF6E080EDF5C1BE15C
:1046C000DBDFDF6E08082AE0FC0EDBCFE8FCFD0E26
:1046D000DBCFE9FCFB0EDBCFEAFC010EF36E020E32
:1046E000F3CFDBFF080E9FDA20E2020E38D9EF6825
:1046F000020EDB2AF7D7010EDB6A080E2DD90AE27B
:1047000025EC28F0EF50FF0805E067DB15E0010E0F
:10471000DB2AF3D7010EDB50080802E1020E0DD0B0
:1047200025EC28F0FB0EDBCFEFFF21DB05D902E201
:10473000E16AE552E16E1450000E70DBDBD062DB03
:10474000FB0EDB5007E076DB07E2C4DB02E1FF0E85
:10475000ED1802E0010E5AD0DF6A080EDF5C55E268
:10476000AAD802E2E16AE552E16E1750B3DB02E13A
:10477000FF0EED1808E050DA0C01E851141843E17F
:10478000E951151840E1010EDB6A080EE5D805E293
:1047900024DB03E0010EDB2AF8D7010EDB5008080A
:1047A00032E0010EDB500AE1FF0E0C01EB5D06E189
:1047B000EA69E869E969C0D81FE21CD0010EDB5044
:1047C000E76E020EE7CFDBFF070E2DDA0FE2020ED7
:1047D000DB28EA6AEA0FE96E0C0EEA22EF50E66E79
:1047E000020EBDD8F1D8020EDB2AEED70C01F1691A
:1047F000A3D802E2E16AE552E16E14506BDB05E1F9
:10480000FF0EED1802E1DF2AA8D7000E07DB72D0F9
:104810005DDBDF6A080EDF5C1CE24DD802E2E16A74
:10482000E552E16E17500C01E869E969010EDB6A97
:10483000080E92D806E225EC28F0EF68010EDB2A7C
:10484000F7D77AD802E2E16AE552E16E1450DF2A26
:10485000E1D7E552E5524ED01ADACAD223DAC8D2ED
:104860000BDAC6D22DDA6CDAB20EE66E0B0E88EFDA
:1048700026F0B7DB7FEF26F0E66E000EDA2088EF39
:1048800026F0E926000EEA221200D9500A0FBDDAFE
:10489000EF501200152214C0E6FF15C0E6FF76ECBB
:1048A00053F0166E050EE15C120018DBE1CFD9FF64
:1048B000E2CFDAFF12005BDA0A0EE66EE66ABACBE6
:1048C00014F0BBCB15F0166ABACBE6FFBBCBE6FF04
:1048D00016C0E6FFE80EE66E0C0E88EF26F0A75134
:1048E000A707C3EF26F0DF50DAEF26F025DB07DA63
:1048F000D9501200E552E5CFDAFFE7CFD9FF120019
:10490000EECFE6FFEFCFE6FF76EC57F0E552E5524B
:104910001200E81C146E020EDBCFE7FF1450E716FE
:10492000AFEF26F00A0EE66EE66AE2D9E8D9D30EBA
:10493000E66E0B0E88EF26F00A0EE66EE80EE66EC7
:104940000C0EE66EBACBE6FFBBCBE6FFC9EF26F056
:1049500010DBEE50ED101200F36E010E4ED2DB5064
:10496000EA6AEA0FE96E0C0EEA2212009BD9EE50B9
:10497000ED1012008EDAB8CBE6FFB9CBE6FFC9EF37
:1049800026F09ED9DDD9D950120076D9EE6AED6AAB
:1049900012007DD9EE6AED6A1200070EDF14A3D271
:1049A000FC0EDBCFE6FFFD0EDBCFE6FF120004C0FE
:1049B000EEFF15C0EEFF16C0EEFF17C0EEFF1200AF
:1049C0000C0BE842E8421200E552E750EF6E12008D
:1049D000010EE66EE66A1200D950FC0FE96EFF0E7A
:1049E000DA20EA6E1200146E030EDBCFE7FF1450DC
:1049F000E712030EE7CFDBFF010E12EF27F0E66EA2
:104A0000D950010FD5D204EC57F0E55251EF28F000
:104A1000EECF92FEEECF93FEEECF94FEEECF95FE5C
:104A2000EECF96FEEECF97FEEECF98FEEFCF99FE3B
:104A30001200DF50DF2AA7D9EF50E66E020EDBCF5F
:104A4000E9FFDB2A030EDBCFEAFF12009CDA7FEFDF
:104A500026F01DD9EE50ED10120014DAFC0EDB50DA
:104A600014181200EECF18F0EECF19F0EECF1AF0B6
:104A7000EFCF1BF0D950040F05EF27F005C015F05C
:104A800006C016F007C017F01200FC0EDBCFE9FFDE
:104A9000FD0EDBCFEAFF1200E846FE0B1506120002
:104AA0001850EE5C146E1950EE58156E1A50EE58F0
:104AB000166E1B50EE58176ED8801200010EDB5098
:104AC000E924E96E000EEA20EA6E12000E01A991B7
:104AD0000E017F0EA76F0E01A66B1200DBCFE6FF63
:104AE000070EDF14146E010E14521200F3CFEEFF06
:104AF00015C0EDFF120098DAEE6AED6A1200DB5085
:104B0000070B146E010E14521200090EEA6ADB3410
:104B10001200EECFDEFFEECFDEFFEECFDEFFEECFF8
:104B2000DEFFEECFDEFF1200E66E28DD28EF28F074
:104B3000010EDB50070BD7D1E9CF14F0EACF15F007
:104B40001200CCD96BD2156E166A14C0E6FFE66E61
:104B500016C0E6FFD95012001450EE24E76E15502F
:104B6000EE20EA6EE7CFE9FF1200E81CDF16010E27
:104B7000E66E6EEF27F0E16E1750070E0B01B715CA
:104B8000B2D1CA51C00BE842E842E842E842E842EA
:104B9000E842120043D90E01826F1200E846FE0B74
:104BA00014061200E66EEBEC54F038D9E552120010
:104BB000020EEECFDBFF030EEDCFDBFFDF6A12004C
:104BC000B5CB16F0B6CB17F0F90EDB501618120065
:104BD000E66EC9EF26F0D3CC9BFED4CC9CFED5CCA0
:104BE0009DFE1200F36E0F0E08D19CCEE6FF9DCE07
:104BF000E6FF9ACEE6FF120086CEE6FF84CEE6FF01
:104C000085CEE6FF1200010EDB4056EF28F006D9F4
:104C1000E7CF14F0145C1200FC0EDBCF14F0FD0E95
:104C2000DBCF15F01200F36E020EE7D00ADDE5527D
:104C3000E5521200E16E17500B01DB1D1200E65227
:104C4000E652E6521200FD0EDB5015181200EA6A19
:104C5000DF342CEF24F080D92CEF24F0EA6ADF3423
:104C600030EF24F0EA6ADF342EEF24F0BAD94AEFAD
:104C700024F072D92EEF24F0FE0BEA36E96ED80E3E
:104C8000E9260C0EEA221200FCDDEF501200FE0BAA
:104C9000EA36E96EB80EE9260C0EEA221200F5DDBE
:104CA000E0EF24F0FE0BEA36E96EAE0EE9260C0EBC
:104CB000EA2212008DDEDF50E840DBDDD950120021
:104CC000060DF3CFB8FBF4CFB9FBF80E0B01B827F4
:104CD000AA0EB9231200E81C146E010EDBCFE7FF09
:104CE0001450E716010EE7CFDBFF89DE4CEF28F00A
:104CF000DF500A0DD6D9950E1426AD0E12001522DE
:104D0000166A14C0E6FF15C0E6FF16C0E6FF1200E3
:104D1000E66E84D1080E41EF24F0DB40AADDD950C5
:104D2000030F3CEF24F0DFDD61EF28F068D9010FBD
:104D30003CEF24F0EADE30EF24F0D1DDE4EF24F0A4
:104D4000060EE66EE66AB8CB14F0B9CB15F0166A1B
:104D5000B8CBE6FFB9CBE6FF16C0E6FF1200020EA5
:104D6000E7CFDBFF010EE66ED950020F21D1DF50F5
:104D70000A0DF3CFBAFBF4CFBBFB960E0B01BA279B
:104D8000AB0EBB231200EA6A000FE96E0E0EEA2298
:104D9000120076EC53F0146E050EE15C120085DD16
:104DA000E652DF6A1200160E6CDD88DE0DDE010EA3
:104DB000DB2A1200080DF3CFE9FFF4CFEAFF000E63
:104DC000E9260C0EEA221200020F3CEF24F09DECC3
:104DD0005AF054DE88DDD7EF24F037D9EFCF14F046
:104DE000FB0EDB50145C1200160E4BDD9CEF25F021
:104DF000EE50EFCFEAFFE96E1200DBCFF4FFF35085
:104E0000F45C120052DD1FEF26F0E96E000EDA208E
:104E1000EA6E1200E16E1750CDEF24F0E552E55234
:104E2000E5521200E66ED950030FC2D069DD94D866
:104E3000C9EF24F0D1DDF70ED880EE54FF0EED540B
:104E400012009DEC5AF004C014F03EEF25F0E66E1F
:104E500046DDE552E750EF6E1200EAD8C5EF24F0C8
:104E6000E7CFDBFF12DD030B0009120065DEE9CF9F
:104E7000E6FFEACFE6FF1200030EDBCFE6FF010EEE
:104E80007FEF25F0E16E1750B2CB14F0B3CB15F0E5
:104E90001200060EE66EB20EE66E0B0EE66E120005
:104EA000EA6ADF34B6EF24F0ECDCEFCF9AFE1200B2
:104EB000E8DCEFCF82FE120001D9EF861200E1DCC0
:104EC000E4EF24F013DE145015101200EEDCE6526D
:104ED000E652120081DDFF0EEE181200D9CFE6FF78
:104EE000DACFE6FF1200156E010E15521200AFDE8A
:104EF0000F0E44EF26F0ABDE8AEF26F0A8DE0A0E96
:104F0000C3DEE0EF24F0AADE110E44EF26F0B9DC98
:104F1000EE52EF50E66E11DF27EF26F09FDE61EFD5
:104F200028F099DE5EEF28F096DEC5D80C0EDBCFB8
:104F3000EFFF91DE5BEF28F0B9D8920F146EAB0E45
:104F400012008CDE0D0E41EF24F093DE3EEF28F0D0
:104F500085DE110E41EF24F0010EEA6ADB34120007
:104F60000A0EE66ED30EE66E0B0EE66EC1DE4AEF5B
:104F700024F0EA6ADF343CEF26F074DE35DF72DEBF
:104F8000100E44EF26F0060D8CD8F80E1426AA0E4B
:104F9000120068DE0E0E41EF24F060DE5EEF28F0B6
:104FA0005ADE060E41EF24F085DE030F3CEF24F0BD
:104FB000E66E000EDA20E66E12004DDE8AEF26F075
:104FC00007DDDB4093DCE4EF26F0B751E84051DC2D
:104FD000D950E4EF26F09DDC0B01B751E84036EFE5
:104FE00026F064D88E0F146EAB0E120058DE030844
:104FF000120047DC9CCEEEFF9DCEEDFF1200E8DCF8
:10500000DF50E84076EF24F0E16E175053DEE4EF16
:1050100026F07FDCDF50E84036EF26F070EC5AF0E7
:10502000176E070EE15C1200EA6ADF3452EF26F0D9
:1050300067DCEA6ADF3412000EDE5CEF27F024DE64
:10504000E66E12002CDE01081200010EAFEF24F014
:10505000E552E5520009120056DF0F0BE76E010E14
:10506000E7CFDBFF50DF200B120045DF49DC43DFD9
:10507000EE6AED6A1200E3DF9DEF26F00C0E41EFC1
:1050800024F06ADF04DE16EF27F0100EDBCFEEFF10
:10509000110EDBCFEDFF1200DF50E8404DDF4AEF8D
:1050A00024F0F3CF14F0F4CF15F01200E840E840FC
:1050B0001F0B156A12000A0E41EF24F00F0E41EF8C
:1050C00024F0040E41EF24F00B016051000801E2CE
:1050D000010C000C0E01820784CEE9FF85CEEAFFA9
:1050E000842B000E8523EF50120080CEE6FF81CE88
:1050F000E6FF76EC57F0E552E5520E01806B816BCE
:1051000012000B01E75101E0000C8B94010C4DECF7
:1051100033F0090EE12402E3E168E652E16E46EC69
:1051200034F0D9CFE6FFDACFE6FF70EC5AF0176E15
:10513000070EE15C02E2E16AE552E16E1750BCEC59
:1051400047F063EC32F06BEC32F0080EDB6AF36E82
:10515000DBCFF4FFE850F45C13E2D9CF14F0DACFE0
:1051600015F0080EDB500F01D9249BEC33F0E66EEE
:10517000080EDB50050F58EC34F0080EDB2AE7D799
:105180007FEC32F0090EE15C02E2E16AE552E16E89
:10519000AFEF33F04DEC33F0E652ABEC34F0DF6AB6
:1051A000DF5068EC33F008E2EA6ADF34B7EC34F041
:1051B000EE6AED6ADF2AF4D70E01010E826F240E2B
:1051C000E66E07D8E5520B01606B046BE552AFEF5A
:1051D00033F04DEC33F02D0EE12402E3E168E652AA
:1051E000E16EFD0EDB5001E0EAD12FEC33F00B0154
:1051F00060AB06D0609BDECBDEFFDFCBDDFFB4D340
:105200000B01E751100B0DE0FAEC34F00B017EECD2
:1052100034F0260E1454070E9EEC33F002E20B011C
:10522000E7990B0160A36FD00B01EAAD6CD00B01C5
:10523000F250100B02E0DD8F01D0DD9FF2980B01E0
:10524000EA9DEAAF0ED0EA9F0B01DD51800B02E030
:10525000F28801D0F2980B01608B0001FE6B65EFC4
:105260002FF00B01DD51800B02E0F28801D0F298A3
:105270000B01609306EC33F00001FE51FE2B030896
:1052800022E20E01080E896F8A6B8B6B8C6B040E09
:105290008D6F846B020E826F856B010E886F836B3E
:1052A000B9C09CFEBAC09DFEBBC09EFEBCC09FFEA6
:1052B000BDC0A0FEBEC0A1FEBFC0A2FEC0C0A3FE76
:1052C000450E5AEF32F00B0104A70AD00E0188698F
:1052D0008969E90E826F0B0104976097C4EF2EF085
:1052E00004A905D004990E01E90E27EF32F004AFAE
:1052F00005D0049F0E01E90E2CEF31F00E01E90EEE
:10530000826F4EEF30F00B0160A90AD060510E01A0
:105310008591020B02E158EF2FF0858158EF2FF0B5
:105320000E01A9B165EF2FF00B0104AB0DD0B0EC6D
:1053300032F0260E1454070E9EEC33F005E20B01FA
:10534000E7990B01049B23D360A727D004B917D09A
:10535000BFEC34F014E260B312D00E01836B0B018A
:1053600004890E01020E896F5BCB9AFE5CCB9BFE1B
:1053700001CB92FE02CB93FE310E5AEF32F0BFEC1E
:1053800034F00BE260970E0188698969EB0E826F39
:105390000B016093046BC4EF2EF060A559EF32F05F
:1053A0000F0E56EC33F00B0EE7CFDBFF2FEC33F094
:1053B000FAEC34F00B016D51EE5C146E6E51EE5848
:1053C000156E6F51EE58166E7051EE58176E070E2F
:1053D00014C0DBFF080E15C0DBFF090E16C0DBFF93
:1053E0000A0E17C0DBFF60BDA6D076CB17F0146A9B
:1053F000156A166A800E171614501510161017101D
:1054000023E06095DAEC33F00E01826B79EC33F037
:105410000B01710503E0020E715D04E10E01835181
:1054200007E104D0030E715D03E10E01EA0E826F05
:10543000F5EC33F00C0E42EC34F0FE0BE76E0C0E84
:105440001BEC33F0F2EF31F061A161D00B01E12BE5
:10545000030EDBCF6DFB040EDBCF6EFB050EDBCF47
:105460006FFB060EDBCF70FBA4EC33F006E1010E00
:10547000736F746B756B766B05D0D8907337743718
:1054800075377637E3EC33F0608D7FEC32F00B014B
:105490007151030A1CE0010A02E159EF32F0030ADC
:1054A00007E0010A02E059EF32F07C6B59EF32F06D
:1054B0000B0EDB50800802E159EF32F0A0EC34F023
:1054C000070EEF6E0E0154EC34F0080E14D00B0EE4
:1054D000DB50800802E159EF32F0A0EC34F0060E08
:1054E000EF6EB3EC32F002E2E16AE552EDEC34F03B
:1054F00054EC34F0C80EEF6E73EC32F0030EEF6E26
:105500000B01046B0E018591859758EF2FF00B016D
:10551000E12BA4EC33F006E1010E736F746B756B35
:10552000766B05D0D8907337743775377637E3ECE0
:1055300033F059EF32F0715122E1800EFBEC33F081
:105540003E0EE66E5EEC4AF0E552E76E0D0E42EC62
:1055500034F0010B0108F4E1100E56EC33F00D0E9F
:10556000E7CFDBFFDBCF14F00B017C51D880145464
:1055700003E20D0EDBCF7CFB400EFBEC33F0D95089
:10558000070F79EC34F00B016951EE5C6A51EE586B
:105590006B51EE586C51EE5802E259EF32F07151F6
:1055A0000BE179CBE9FF7ACBEAFF792B000E7A2366
:1055B0007CCBEFFF7B2B7C6B609D59EF32F0FD0EB7
:1055C000DB50310A02E122EF32F01C0A02E108EF5F
:1055D00032F0050A02E1AAEF31F00C0A02E17DEF98
:1055E00031F0070A02E12FEF31F03A0A02E1EBEF66
:1055F00030F00E0A02E1BEEF30F0020A02E18CEF59
:1056000030F0060A02E152EF30F0030A01E1BED3A6
:10561000130A02E059EF32F00E01A99D5BDDDF6E47
:1056200059DDE76E010EE7CFDBFF54DDE76E0E0EAE
:10563000E7CFDBFF13EC34F00C0BE842E8420E013D
:10564000896F13EC34F0C00BE842E842E842E842CC
:10565000E842E842886F020E895D09E15FEC33F0B1
:1056600039DD0E01926F36DD0E01936F15D0030EFA
:10567000895D12E15FEC33F0020EDB6A080ED6ECB6
:1056800034F00AE227DDE66E020EB5EC33F075EC7D
:1056900033F0020EDB2AF2D7020E0E01885D12E112
:1056A0006FEC33F0400B05E05BCB86FE5CCB87FEF6
:1056B00002D0ECEC33F00EDD0E018A6F0BDD0E0133
:1056C0008B6F1ED0030E885D1BE16FEC33F0400B37
:1056D00005E05BCB86FE5CCB87FE02D0ECEC33F0C2
:1056E000020EDB6A080ED6EC34F00AE2F3DCE66E5A
:1056F000020EBCEC33F075EC33F0020EDB2AF2D76D
:105700000E018251EA6A8425E96E8551EA22020E71
:10571000E95E000EEA5AEFCF9DFE020E825F6FEC4B
:1057200033F0070B030A01E167D1010A01E110D14F
:10573000020A14E0010A01E072D1921D03E1931DF7
:1057400001E16DD10B0104AB06D0049B0E01825127
:1057500002E1CBDC1CD1120E5AEF32F00E0EDBCF81
:1057600096FEE1CB89FE5FEC33F01AEC34F00E01CB
:10577000996BD9500F0F9BEC33F0800B02E0010EB8
:10578000996F1AEC34F0100EDB6A080EF36E100EEF
:1057900025EC33F017E2100EDB50030F0E01EA6A1E
:1057A0008425E96E8551EA22EF50E66E100EDB503B
:1057B000EA6A7D0FE96E0B0EEA2275EC33F0100EEB
:1057C000DB2AE3D79DEC5AF004C092FE05C093FE9D
:1057D00006C094FE07C095FE0B0160A5B3D071050D
:1057E00004E0020E715D01E0ADD07751781110E157
:1057F0001D0E38EC34F0110EF3CFDBFF120EF4CF98
:10580000DBFF110EDBCF77FB120EDBCF78FB25D051
:10581000110E77CBDBFF120E78CBDBFF6FEC34F091
:10582000EE50ED1005E06FEC34F021EC34F0F6D7DB
:105830001D0E38EC34F0F4CF15F06FEC34F0F3CFEC
:10584000EEFF15C0EDFF6FEC34F0EE50ED1001E10E
:1058500079D06FEC34F021EC34F0D950110F79ECA1
:1058600034F0EE50ED106EE00B017B2BFD0E0E01BF
:105870008815C5EC34F0FE0EEF14F310EF6E99515D
:10588000C5EC34F0F346FD0EEF14F310EF6E9EEC12
:1058900032F0020ED3EC32F086CEEEFF87CEEDFF73
:1058A0009EEC32F0040ED3EC32F08ACEEEFF8BCEBB
:1058B000EEFF8CCEEEFF8DCEEEFF8ECEEEFF8FCEC6
:1058C000EEFF90CEEEFF91CEEEFF9EEC32F0EE5268
:1058D00089CEEFFF9EEC32F0140ED3EC32F09ACE6C
:1058E000EEFF9BCEEDFF9EEC32F01A0ED3EC32F0C1
:1058F0009DCEEFFF9EEC32F0160ED3EC32F092CE3E
:10590000EEFF93CEEEFF94CEEEFF95CEEEFF9EEC33
:1059100032F00C0ED3EC32F07DCBEEFF7ECBEEFFFF
:105920007FCBEEFF80CBEEFF81CBEEFF82CBEEFF95
:1059300083CBEEFF84CBEEFF9EEC32F01B0EEB6AC6
:105940001C0EEB6A0E01080E9C6F1C0E5AEF32F013
:1059500075EC28F00B0160A359EF32F00E0EDB500E
:10596000035D02E059EF32F006EC33F00B01609377
:1059700004A702D0608707D004A90DD06FEC33F0E4
:10598000100B04E0048BD7EC32F005D004990E0123
:10599000EB0E27EF32F00B0104AF0DD06BEC32F0C1
:1059A0000B01049F0E01826B0B015B695C695D69F1
:1059B0005E692DEF31F004AD6FD3049D0E01826B53
:1059C000030E896F09CB92FE0ACB93FE0BCB94FE9C
:1059D0000CCB95FE0DCB96FE0ECB97FE0FCB98FE13
:1059E00010CB99FE92EC32F002E2E16AE552E16EF0
:1059F00017502A0E5AEF32F06AEC28F0E76E130EB9
:105A000042EC34F0020A01E1ACD1060A67E00C0A6C
:105A100024E00B0A19E0050A12E0070A03E075EC1E
:105A200028F053D23DEC34F06FEC33F0080B01E07A
:105A3000010E836F75EC28F0160E5AEF32F075ECFC
:105A400028F0220E5AEF32F03DEC34F0080E9C6F35
:105A500075EC28F01A0E5AEF32F00B0160A536D023
:105A6000030E715D33E160950AEC33F06AEC28F0C7
:105A70000B015B6F6AEC28F00B015C6F6AEC28F09D
:105A80000B01566F6AEC28F00B01576F6AEC28F097
:105A90006AEC28F00B015D6F6AEC28F00B015E6F79
:105AA00075EC28F0F5EC33F0140E42EC34F0FE0BFC
:105AB000E76E140E1BEC33F00E01826BDAEC33F060
:105AC00079EC33F00B01609DF2EF31F00E01EF0E37
:105AD000826F75EC28F0300E5AEF32F0150EDB6A4B
