:020000040000FA
:060000005AEF02F01200AD
:020006001200E6
:0600080090EF01F0120070
:02000E000100EF
:0C001000D00400000B0F000001000000F5
:04001C008982810E46
:10002000E66E19D9E552FA0EE66E33EC02F0E552AF
:10003000898012008950200B01E0010E026E895068
:10004000100B01E0010E016E8950080B01E0010E5A
:10005000006E8950040B01E0010E00100110021027
:1000600006E18990FA0EE66E33EC02F0E5528992D1
:10007000010EE66EF0D8E55212008984820EE66E1B
:10008000EAD8E552FA0EE66E33EC02F0E5528980CA
:1000900012008950200B01E0010E026E8950100BF6
:1000A00001E0010E016E8950080B01E0010E006EA7
:1000B0008950020B01E0010E00100110021006E150
:1000C0008990FA0EE66E33EC02F0E5528994020E46
:1000D000E66EC1D8E55212008986830EE66EBBD863
:1000E000E552FA0EE66E33EC02F0E552898012001A
:1000F0008950200B01E0010E026E8950100B01E0C7
:10010000010E016E8950040B01E0010E006E895052
:10011000020B01E0010E00100110021006E18990AF
:10012000FA0EE66E33EC02F0E5528996030EE66EA7
:1001300092D8E55212008988840EE66E8CD8E5527A
:10014000FA0EE66E33EC02F0E55289801200895017
:10015000200B01E0010E026E8950080B01E0010E38
:10016000016E8950040B01E0010E006E8950020BF4
:1001700001E0010E00100110021006E18990FA0E54
:10018000E66E33EC02F0E5528998040EE66E63D811
:10019000E5521200898A850EE66E5DD8E552FA0EA8
:1001A000E66E33EC02F0E552898012008950100BA4
:1001B00001E0010E026E8950080B01E0010E016E94
:1001C0008950040B01E0010E006E8950020B01E022
:1001D000010E00100110021006E18990FA0EE66E81
:1001E00033EC02F0E552899A050EE66E34D8E552FA
:1001F00012008982898489868988898A8F0EE66EB1
:100200002AD8E552FA0EE66E33EC02F0E552898008
:1002100012008990FA0EE66E33EC02F0E5528992F4
:10022000899489968998899A0F0EE66E14D8E552BA
:100230001200AA0EE66E0FD8E5521200929092922A
:10024000929492969298929A89908992899489969A
:100250008998899A1200D9CFE6FFE1CFD9FFACA2E5
:10026000FED7FE0EDB50AD6EE552E7CFD9FF120090
:10027000190EE66EE66A7C0EE66EEEEC01F0E552D3
:10028000E552E552F28CF28E1EEC01F00F010B519B
:1002900003E004D80F010B6BF9D712000F010A51CC
:1002A0000F0A3AE0800A35E08A0A30E0800A2BE043
:1002B000810A26E0800A21E0870A1CE0800A17E014
:1002C000810A12E0800A0DE0830A08E0800A03E058
:1002D00019EC01F024D00EEC00F021D01AEC00F063
:1002E0001ED03DEC00F01BD049EC00F018D06CECB7
:1002F00000F015D078EC00F012D09BEC00F00FD09D
:10030000A7EC00F00CD0CAEC00F009D0D6EC00F05D
:1003100006D0F9EC00F003D009EC01F000D0120097
:10032000DACFE4FFE2CFDAFFE652AECF0AFF0F01E9
:0E033000010E0B6F9E9AE552E5CFDAFF110029
:02033E000E0EA1
:10034000F66E000EF76E000EF86E0F010900F55004
:10035000056F0900F550066F03E1056701D03DD038
:100360000900F550006F0900F550016F0900F550C4
:10037000026F09000900F550E96E0900F550EA6EB8
:10038000090009000900F550036F0900F550046FDA
:1003900009000900F6CF07FFF7CF08FFF8CF09FFE4
:1003A00000CFF6FF01CFF7FF02CFF8FF0F01035395
:1003B00002E1045307E00900F550EE6E0307F8E28E
:1003C0000407F9D707CFF6FF08CFF7FF09CFF8FFEB
:0C03D0000F010507000E065BBFD71200EE
:0403DC00D9CFE6FF90
:1003E000DACFE6FFE1CFD9FFE2CFDAFFAC6AAB6A42
:1003F000FD0EDBB0AC88DBA202D0AC8CAB8CDBB4E6
:10040000AC8EDBA602D0AB8801D0AB8ADBB8AC8463
:100410009E98DBBAAB86DBAC02D09D8A01D09D9A58
:100420009E9ADBAE02D09D8801D09D98FB0EDB50DA
:10043000AF6EFB0EFC0EDBCF01F001C000F0016AD5
:100440000050B06EAC8AAB8E949C948EAC50100B66
:1004500004E0AC50800B01E1948CE552E5CFDAFF6B
:06046000E7CFD9FF1200F6
:0A046600FF0EE350066EEF0E01D00A
:10047000F30EE76EE72E3AEF02F00C0E056EE76A18
:10048000E72E40EF02F0052E3FEF02F0062E38EF88
:0404900002F0120064
:0C049400600EF36E00EE00F00F0E01D8B9
:1004A0001200EA6002D0EE6AFCD7F350E960120055
:0404B000EE6AFCD71D
:0C04B4001EEE00F02EEE00F0F86A049C32
:1004C0009FEC01F003EC00F038EC01F0FBD71200D8
:0104D000002B
:020000040030CA
:0100010042BC
:010002000EEF
:0100030012EA
:010005008476
:010006008178
:00000001FF
