:020000040000FA
:06000000CAEF01F012003E
:020006001200E6
:0800080007EF00F01200DACF4F
:10001000E4FFE2CFDAFFE652AECF0CFF0F01010E94
:100020000E6F9E9AE552E5CFDAFF11000F010C51D9
:10003000850A42E0010A33E0070A24E0010A15E0DC
:10004000030A06E0AA0EE66E85EC01F0E55242D006
:10005000010E0A6F0D6B7D0E0B6F810EE66E85EC47
:1000600001F0E5529EA8FED735D0020E0A6F0D6B47
:10007000700E0B6F820EE66E85EC01F0E5529EA8C5
:10008000FED728D0030E0A6F0D6B600E0B6F830E28
:10009000E66E85EC01F0E5529EA8FED71BD0040E5B
:1000A0000A6F0D6B500E0B6F840EE66E85EC01F03F
:1000B000E5529EA8FED70ED0050E0A6F010E0D6FF9
:1000C000440E0B6F850EE66E85EC01F0E5529EA89E
:0600D000FED700D0120073
:0A00D6000100B00300000E0F00004F
:0400E000010000001B
:0C00E400D60EF66E000EF76E000EF86EE1
:1000F0000F010900F550056F0900F550066F03E187
:10010000056701D03DD00900F550006F0900F5509A
:10011000016F0900F550026F09000900F550E96E02
:100120000900F550EA6E090009000900F550036F57
:100130000900F550046F09000900F6CF07FFF7CF5B
:1001400008FFF8CF09FF00CFF6FF01CFF7FF02CF7E
:10015000F8FF0F01035302E1045307E00900F550D3
:10016000EE6E0307F8E20407F9D707CFF6FF08CFD2
:10017000F7FF09CFF8FF0F010507000E065BBFD799
:0201800012006B
:0E0182008F0ED3143009D36E936A926A959E45
:100190000F010D6B030E0A6F77EC01F0F28CF28EFB
:1001A00092EC01F00F01600E0B6F0F010A51E8B0E5
:1001B0008980E8A089900A417F0BE8B08A82E8A094
:1001C0008A920A51E840E8403F0BE8B08A84E8A0F0
:1001D0008A940A51E840E840E8401F0BE8B08A865C
:1001E000E8A08A960D51E8B08C8EE8A08C9E0BCFCB
:1001F00002F0036A02BE036802C0E6FF03C0E6FF26
:1002000048EC01F0E552E5520F010E5104E016EC06
:0A02100000F00F010E6BC9D71200B9
:06021A00D9CFE6FFDACFA8
:10022000E6FFE1CFD9FFE2CFDAFFE652E652E6522F
:10023000E652F8CF02F0F6CF03F00C0EBA6E050EC0
:10024000F66EF76A300EF86E0800F550010B03E009
:10025000010EDB6802D0010EDB6A010EDB5002E00A
:10026000949201D09396CA94FD0EDB50CB6ECA8453
:1002700002C0F8FF03C0F6FF040EE15C02E2E16A8F
:10028000E552E16EE552E5CFDAFFE7CFD9FF120084
:10029000D9CFE6FFDACFE6FFE1CFD9FFE2CFDAFF31
:1002A000E652E652FC0EDBCF02F0FD0EDBCF03F090
:1002B000060ED89002360336E804FBE102C0DEFFEA
:1002C00003C0DDFF010EDB50BB6EDF50E840E840AD
:1002D0003F0B300B026ECF0EBA140210BA6EE5520D
:0E02E000E552E552E5CFDAFFE7CFD9FF120075
:0202EE00AC84DE
:1002F000B8860C0EAF6E948C948EAC98AB8EAC8A94
:100300009D8AF28EF28CAB881200D9CFE6FFE1CF46
:10031000D9FFACA2FED7FE0EDB50AD6EE552E7CFA3
:10032000D9FF1200D08E9F8AF28E060EE66E9FECE9
:0E03300001F0E552E6680DEC01F0E552120016
:02033E00D9CF15
:10034000E6FFDACFE6FFE1CFD9FFE2CFDAFFFD0E1D
:10035000DB50FB0BCA6ECC6A9E92FD0EDBAE02D068
:100360009D8201D09D92CA84E552E5CFDAFFE7CFA6
:04037000D9FF12009F
:0C037400600EF36E00EE00F00F0E01D8DA
:100380001200EA6002D0EE6AFCD7F350E960120076
:04039000EE6AFCD73E
:0C0394001EEE00F02EEE00F0F86A019C56
:1003A00072EC00F003EC00F0C1EC00F0FBD712009F
:0103B000004C
:020000040030CA
:0100010008F6
:010003001EDE
:010005008971
:010006008178
:00000001FF
