:020000040000FA
:10000000F8EF77F01200FFFF2DEF66F01200FFFF10
:10001000FFFFFFFFFFFFFFFF2DEF66F01200FFFF66
:10002000FFFFFFFFFFFFFFFFFFFFFFFFFFFFFFFFE0
:10003000FFFF030030F00000E90E00000B0000009D
:100040002EF00000FE0B0000020000002CF000006B
:10005000FC0B0000020000007BCB14F0149E156A1C
:10006000166A176A145015101610171001E1000CCB
:10007000010CACEC20F0010EE66E6EEC1CF0E552CB
:100080000E0EE66EE66A600E146EE20E16EC21F0BD
:10009000C30EE66E0C0E9DEC20F002E2E16AE55222
:1000A000E16E17503C0E0C01C31902E1A50EC419F4
:1000B00003E096EC1AF005D0190EC65D02E00E01C1
:1000C000A98BDF6A050EDF5C0FE2DF50030DF3CF73
:1000D000E9FFF4CFEAFFD30EE9260B0EEA22ABECE0
:1000E00023F0EF6ADF2AEED7DF6A060EDF5C04E258
:1000F0001EEC21F0DF2AF9D7E5524AEF1DF013EC90
:100100001DF05F0EE12402E3E168E652E16E6EEC61
:1001100076F0060E06C0DBFF070E07C0DBFF080EF9
:1001200008C0DBFF090E09C0DBFF0B017BA539D03E
:10013000A5EC20F08D51EE5C146E8E51EE58156ECC
:100140008F51EE58166E9051EE58176E91CB18F0F5
:10015000196A1A6A1B6A360E0B6E6E0E0C6E010E51
:100160000D6E0E6A91CB06F019C007F01AC008F0A8
:100170001BC009F0A2EC77F002C018F003C019F020
:1001800004C01AF005C01BF01450025C155003584F
:10019000165004581750055804E20D0145910B0103
:1001A0007B95FD0EDB5002E071EF05F00E01A9B169
:1001B00017EF14F00B017BA1BAD10B0EDB6A070E0F
:1001C000F36E0B0EB4EC1DF001E39DD1AAEC1EF012
:1001D00001E196D1B1EC23F0EECF1CF0EECF1DF093
:1001E000EECF1EF0EFCF1FF0A5EC20F000011C5069
:1001F000EE5C186E1D50EE58196E1E50EE581A6EB9
:100200001F50EE581B6E18C006F019C007F01AC038
:1002100008F0096E6EEC72F007C014F008C015F01B
:1002200009C016F00AC017F0810E0C6ECB0E0D6ED1
:10023000A40E0E6E470E0F6EF0EC72F0010A0BE189
:1002400091EC20F025EC1DF00B0E32EC23F00B0EA0
:10025000FDEC1DF055D1D0EC22F0200B01E050D187
:100260000A0EDB94DB9211EC23F0EF5019086FE0DB
:1002700011EC23F00C0EEFCFDBFFDB50FF0817E192
:1002800091EC20F058EC23F05AEC1DF0300E145C89
:10029000750E1558000E1658000E175852E3E3EC71
:1002A0001FF0DB82F0EC22F00C0EDB6A4AD00C0E61
:1002B000DB5044EC20F002E2E16AE55269EC21F007
:1002C000C1A322D091EC20F05BEC23F0FC0EEE18E1
:1002D00002E1FF0EED1818E091EC20F05BEC23F04A
:1002E000FD0EEE1806E1FF0EED1803E1C151010B02
:1002F0000BE091EC20F0050ED4EC20F01450BA196C
:1003000007E11550BB1904E17CEC23F0EF6A0DD036
:10031000C1B10BD0040EBACCDBFF050EBBCCDBFFAA
:100320000A0EDB847CEC23F0EF900C0EDB2AA2ECAF
:1003300021F0040B06E1190EF36E0C0EB4EC1DF067
:10034000B6E311EC23F00C0EDBCFEFFF45D00A0E25
:10035000DB800E01826B0C0EDB6A190EF36E0C0E45
:10036000B4EC1DF008E27CEC23F0EF50010B03E14C
:100370000C0EDB2AF2D70C0EDB50190829E00E0117
:10038000F00E826FD0EC22F00F0B000921E0B1ECEF
:1003900023F05AEC1DF0360E145C6E0E1558010E4B
:1003A0001658000E175812E30A0EDB90E3EC1FF00C
:1003B000D0EC22F00F0BE806E8500F0BF36EF46E52
:1003C000F00E97EC1FF0F0EC22F002D00A0EDB905A
:1003D000A2EC21F0010B32E1A2EC21F0040B01E1CF
:1003E0008FD02D0EF36E0D0EF3CFDBFFA2EC21F0BC
:1003F000020B35E091EC20F0050ED4EC20F00D015D
:100400005D5114182CE15E51151829E10D0EDB6ABF
:100410002D0EF36E0D0EB4EC1DF009E20D0E2EEC58
:1004200021F0EE52EF5003E00D0EDB2AF1D70D0E56
:10043000DB502D0814E10E01F10E826F15EC23F054
:10044000EFCF9CFE91EC20F006EC21F0EF8AD0EC8F
:1004500022F0100B02E117EF14F047EF12F015EC49
:1004600023F0EF50A7EC23F091EC20F0040E35ECD4
:1004700023F0050EDEEC20F091EC20F0050E35ECBB
:1004800023F0070EDEEC20F091EC20F0070E35ECA7
:1004900023F0090E35EC23F00A0E70EC20F0DF6A31
:1004A00091EC20F028EC1EF091EC20F0ABEC23F066
:1004B000EF50DF5C08E2F4EC1CF001E3DB2A8FEC88
:1004C00022F0DF2AF1D7A0EC20F0F1EC1DF094EC43
:1004D0001DF00D0EDB502D0802E105EF15F00D0E9D
:1004E0002EEC21F0DFCFEFFF15EC23F0EF50E66E9E
:1004F0000D0E2EEC21F0EE5246EC1DF005EF15F03E
:100500000B0EDB2A5CD60B0EDB6A070EF36E0B0EAE
:10051000B4EC1DF006E2AAEC1EF003E10B0EDB2AA0
:10052000F4D70B0EDB50070802E10B017B910B01A6
:100530007BA3DBD10E0EDB6A040EF36E0E0EB4EC61
:100540001DF001E393D00E0EB9EC1DF001E18BD04C
:100550000E0E38EC23F001E186D03CEC23F0080BC2
:100560000EE10E0EEEEC20F05AEC1DF0040E145CC1
:100570005D0E1558000E1658000E175827E23CEC79
:1005800023F0080B70E00E0EEEEC20F0EECF20F022
:10059000EECF21F0EECF22F0EFCF23F0A5EC20F04C
:1005A00000012050EE5C1C6E2150EE581D6E225052
:1005B000EE581E6E2350EE581F6E600E1C5CEA0E45
:1005C0001D58000E1E58000E1F584DE30E0E94ECE1
:1005D00020F028EC1EF0DF6A060EDF5C08E2F4EC87
:1005E0001CF001E3DB2A8FEC22F0DF2AF5D7DF6A6B
:1005F000080EDF5C07E2F4EC1CF001E3DB2A7DEC83
:1006000020F0F6D70E0E81EC20F0EF963CEC23F0B4
:10061000070BE806E850070BF36EF46EF80E97EC44
:100620001FF00E0EEEEC20F0060EDBCFEEFF070EF5
:10063000DBCFEEFF080EDBCFEEFF090EDBCFEEFFC8
:100640003CEC23F0070B000902E0FFEF14F00E0E64
:1006500094EC20F025EC1DF00E0E94EC20F0EE6AE8
:10066000ED6AFFEF14F00E0EDB2A66D70E0EDB6A82
:10067000040EF36E0E0EB4EC1DF03BE20E0EB9EC60
:100680001DF034E00E0ED3EC1CF05AEC1DF0D880B7
:100690001C0E14544E0E15540E0E1654000E175404
:1006A00025E20E0EAFEC20F002E2E16AE552E16EC7
:1006B00017500C01D50509E1020ED56F6BEC1DF04A
:1006C00002E2E16AE552E16E14500E0E38EC23F0BE
:1006D00005E00E0E94EC20F025EC1DF00E0E97ECCC
:1006E00020F025EC1DF00E0EE0EC1EF00E0EDB2AC5
:1006F000BFD7DF6A060EDF5C01E3BDD047EC22F016
:1007000001E1B7D00F0EDB6AD950100F81EC1DF05C
:10071000FEEC20F085EC20F0050EBFEC20F075EC2F
:100720001FF002E2E16AE552A2EC1EF066E0100E54
:10073000DB5059E1BEEC22F01DE112EC20F01AE191
:100740000F0EDB6A2D0EF36E0F0EB4EC1DF009E2F6
:100750000F0E2EEC21F0EE52EF5003E00F0EDB2ACD
:10076000F1D70F0EDB502D0805E15EEC23F0F10E02
:10077000826F46D085EC20F028EC1EF0010EDB6A7B
:1007800085EC20F0ABEC23F0EF5052EC21F009E2C5
:10079000F4EC1CF001E3DB2A8FEC22F0010EDB2AE3
:1007A000EFD7D950010F3AEC21F0BEEC22F018E15E
:1007B00012EC20F015E10F0E2EEC21F0010EDBCF34
:1007C000EFFF85EC20F078EC20F05BEC23F0EF50AD
:1007D000E66E0F0E2EEC21F0EE52E552E750EF6E72
:1007E000B4EC23F03ED0100EDB50020842E1BEEC28
:1007F00022F00CE112EC20F009E15EEC23F0826BB8
:10080000F5EC22F0FAEC21F043EF12F0A6EC1EF02A
:1008100059EC20F085EC20F0030EDEEC20F085ECA6
:1008200020F0030EC7EC22F085EC20F0050E83ECDF
:1008300022F085EC20F0050E40EC23F075EC20F062
:10084000D950010F81EC1DF085EC20F0030EBFECB8
:1008500020F094EC1DF0B4EC23F085EC20F0EE6A6F
:10086000ED6AEA6ADF3489EC20F0FAEC21F005EF5A
:1008700015F0DF2A3FD72FEC1EF0100EDF5C1BE2D5
:1008800000EC1DF002E2E16AE552E16E1750020E43
:100890000C01D55D0DE1030ED56FD369D4696BEC06
:1008A0001DF002E2E16AE552E16E14509DEF14F092
:1008B00036EC1EF0E2D7DF6A060EDF5C05E247EC9D
:1008C00022F002E1DF2AF8D7060EDF5C0EE1DF6AD4
:1008D000040EDF5C05E2A6EC21F002E1DF2AF8D786
:1008E000040EDF5C02E10B017B930B017CAF1FD098
:1008F000A5EC20F0CF51EE5C146ED051EE58156E81
:10090000D151EE58166ED251EE58176ED880000EA7
:100910001454B40E1554000E1654000E175407E26A
:100920000E01CA0E826F88698969A1EF13F07BAF4F
:100930001BD07B9F00CB82FE01CB83FE08CB8AFEBF
:1009400009CB8BFE10CB92FE11CB93FE12CB94FE03
:1009500013CB95FE14CB96FE15CB97FE16CB98FEC7
:1009600017CB99FE5EEF11F07BA717EF14F07BAD6C
:1009700003D07B9D58EF14F07BBB17EF14F0190EDA
:10098000C15D36E0DF6AC15144EC20F002E2E16A69
:10099000E5529EEC1EF004E054EC1DF0010803E06B
:1009A0000B01C12B02D0010EDF6E190E0B01C15DD0
:1009B00002E2DF50E8E0DF5025E0C12BDF6A080EDD
:1009C000DF5C03E262EC23F0FAD77FEC23F0A7ECC4
:1009D0001FF0EF869AEC20F0040EEF6E400EDF6EF3
:1009E0000B017CB3DF8E7CBB4AEF14F049EF14F0AF
:1009F0007C930C01CE6B2BEC1DF002E2E16AE55218
:100A0000E16E14500B017C51020B38E00C01CE5109
:100A100035E0A5EC20F00B01C251EE5C146EC35121
:100A2000EE58156EC451EE58166EC551EE58176E3D
:100A3000C8CC18F0C9CC19F01A6A0C68520E0D6EA9
:100A4000070E0E6EC8CC07F0C9CC08F01AC009F02A
:100A5000A7EC72F004C018F005C019F006C01AF037
:100A60001B6A1ABE1B681450185C15501958165092
:100A70001A5817501B5802E317EF14F00B017B8D27
:100A80004BEC22F002E2E16AE552E16E1750DF6AB8
:100A9000080EDF5C03E2A5EC22F0FAD750EC20F060
:100AA000EF68D6EC1CF0FC0EEF6ED6EC1CF0A7EC59
:100AB0001FF0EF889AEC20F0040EEF6EDF6A0B0156
:100AC0007C51020B08E00C01CE5105E10B017C5179
:100AD000040B01E0DF8EA2EC22F0DFCFEFFFFFEF8F
:100AE00014F0FD0EDB50720A02E16FEF14F03B0AC6
:100AF00002E15DEF14F0010A02E158EF14F00F0A71
:100B000002E1DCEF13F0010A02E1C5EF13F0030A82
:100B100002E109EF13F0010A02E1E6EF12F0070A21
:100B200002E1C1EF12F0010A02E1BCEF12F0030A88
:100B300002E170EF12F0720A02E172EF11F0010AA5
:100B400002E167EF11F01C0A02E160EF11F0040A04
:100B500002E14BEF11F0030A02E1C1EF0FF00C0AC2
:100B600002E15FEF0FF0070A02E14DEF0FF03E0ADE
:100B700002E1C8EF0EF0070A02E18BEF0EF0030A64
:100B800002E104EF0EF00E0A02E1D0EF0DF0040ACC
:100B90006EE0030A02E007EF15F0DF6A060EDF5C85
:100BA0003EE2B2EC21F002E1FF0EED1836E037EC48
:100BB0001DF0EE52EF500E019C5D2FE182512BE0B3
:100BC0000E01A66B0E017F0EA76F0E01A98137ECF7
:100BD0001DF0EF50E66E59EC20F09FEC23F0010E73
:100BE00070EC20F0E9EC22F0C7EC22F0E9EC22F006
:100BF00083EC22F09FEC23F0010E83EC22F0A0ECBA
:100C000020F0E9EC22F0BFEC20F094EC1DF01EEC9B
:100C100021F005EF15F01EEC21F0DF2ABFD7DF6AC7
:100C20002D0EDF5C08E282EC23F0EF500E019C5D9C
:100C300002E0DF2AF5D72D0EDF5C02E117EF14F09A
:100C4000D1EC20F0EF500AE0D1EC20F0EFCF9CFE89
:100C5000340EF36E110EF3CFDBFF02D0110EDB6A00
:100C6000D1EC20F0EF6A110EDB5008EF15F0080E02
:100C7000F36E1A0EF3CFDBFFEEEC21F0120ECFEC89
:100C80001DF0130ECFEC1DF0140ECFEC1DF0150E61
:100C9000CFEC1DF0160ECFEC1DF0170ECFEC1DF0B3
:100CA000180ECFEC1DF0190EE7CFDBFFD950130F54
:100CB000CBEC1DF0080B10E0DF6A080EDF5C0AE2E7
:100CC0008AEC1EF0DF50EA6AEA0FE96E0B0E4FEC79
:100CD00022F0F3D7E9EC1EF0D950130FCBEC1DF046
:100CE000100B10E0DF6A080EDF5C0AE28AEC1EF0EF
:100CF000DF50EA6AF20FE96E0B0E4FEC22F0F3D7E9
:100D0000E9EC1EF00E01921D01E1931D09E0EAECF1
:100D10001FF0FB0ED880EE54FF0EED5401E3AAD372
:100D2000DF6A070EDF5C22E254EC22F01DE000ECEB
:100D300022F08BEC22F0BBEC23F0ABEC1FF014E1C3
:100D40001750151811E18BEC22F0AEEC23F0EF50A8
:100D5000F36E190EDB50F35C07E1DFCFE6FF6AECC0
:100D60001AF0E55249EF0FF0DF2ADBD707EC22F04B
:100D700001E01ED3D8EC1AF0DF6EDF0401E056D29A
:100D80000B017C51010B01E151D285EC1EF005E114
:100D90005E51151802E149EF0FF01B0EDB6A0EECF5
:100DA00022F001E3DB2A010EEF6EDF6EB3EC1FF0E1
:100DB00008E2E1EC22F001E3DB2A46EC1DF0DF2A39
:100DC000F5D7210EDB50E76E220EE7CFDBFF210EB9
:100DD000DB2A0E019D51DBEC1EF004E6D80E145CFC
:100DE000000E155802E2210EDB2A9D51DBEC1EF0AD
:100DF00004E6B40E145C000E155802E2210EDB2A44
:100E00009D51DBEC1EF004E6900E145C000E1558AC
:100E100002E2210EDB2A6C0E9D5D02E2210EDB2A2E
:100E2000480E9D5D02E2210EDB2A240E9D5D02E24A
:100E3000210EDB2A1D0EDBCFE6FF86EC23F0ABECA8
:100E400021F01E0E34EC1FF002E2E16AE552A2EC42
:100E50001EF001E14DD10E01921D01E049D1931D1B
:100E600001E046D1230EDB6A040EF36E230EB4ECD0
:100E70001DF01DE2230EB9EC1DF016E0230ED3EC9D
:100E80001CF08CEC21F01E0EDB50145C0DE1230EE7
:100E9000F3EC20F01CEC20F0160EDB50151803E1EB
:100EA000170EDB50161803E0230EDB2ADDD7040EE5
:100EB000F36E230EB4EC1DF03EE26EEC76F014EC13
:100EC00022F0230ED3EC1CF097EC1DF0210EDBCFAB
:100ED00014F0230E18EC23F0EF50D880145402E2E3
:100EE00049EF0FF0C8EC20F094EC22F003E1200E63
:100EF000DB50151808E03EEC21F001E179D002EC5E
:100F000021F001E075D040EC4CF00E01A9B117EFD3
:100F100014F0230E1DEC23F0210EEFCFDBFFD95090
:100F20001C0F81EC1DF0230EABEC21F078EC1FF0D0
:100F300001E348D145D1D950240F81EC1DF0D9509F
:100F4000230F81EC1DF086EC23F0DBCFE6FF7EEC77
:100F50001FF002E2E16AE552A2EC1EF002E149EF65
:100F60000FF0230E22EC23F01E0EDBCFEFFF230E3B
:100F7000F3EC20F090EC1EF0C8EC20F0230ED3EC44
:100F80001CF00A0ED4EC20F0160EDB50141803E10E
:100F9000170EDB50151805E0230EE5EC22F00109D1
:100FA00004D0230EE5EC22F00309EF6E230E81EC52
:100FB00020F0EF86210E94EC22F003E1200EDB50AE
:100FC000151806E03EEC21F013E002EC21F010E1F0
:100FD00040EC4CF00E01A9B117EF14F009EC21F030
:100FE000230EABEC21F078EC1FF001E3EBD0E8D05E
:100FF000010EF36E1B0EF3CFDBFFDB5001E116D1C8
:1010000034EC20F001E012D1230E38EC23F008E19B
:101010000E0E7DEC22F0230E94EC20F059EC22F021
:10102000230E38EC23F002E149EF0FF0D9501C0FEA
:10103000A7EC1DF0230E94EC20F0250EEECFDBFF85
:10104000260EEDCFDBFFDF6AB3EC1FF00EE2F4EC0F
:101050001CF001E3DB2AEF50E66E8CEC1DF001E39F
:10106000DB2A46EC1DF0DF2AEFD7A6EC1EF08CEC55
:101070001DF001E3DB2A46EC1DF038EC20F08CEC8F
:101080001DF001E3DB2A46EC1DF08CEC1DF001E3C2
:10109000DB2A9FEC1FF08CEC1DF001E3DB2AA3ECB4
:1010A0001FF08CEC1DF001E3DB2A3CEC20F08CEC13
:1010B0001DF001E3DB2A40EC20F08CEC1DF001E395
:1010C000DB2ADBEC1FF08CEC1DF001E3DB2A120EB7
:1010D000DBCFEFFF86EC1DF0230EEEEC20F097EC5B
:1010E0001DF0230EE5EC22F00409EF6E49EF0FF03E
:1010F00020EC1FF05EEC22F0190822E002EC21F057
:101100001FE18ACE14F08BCE15F0160EDB501418AA
:1011100003E1170EDB50151833E00C01C729E66E0A
:101120009BEC1DF020EC1FF025EC1AF0166E050E5E
:10113000E15C02E2E16AE552E16E1650000920E14D
:101140000D0156510E018A1902E049EF0FF00D0111
:1011500057510E018B1902E049EF0FF0C7CCE6FFA3
:101160009BEC1DF0EEEC1FF0176E050EE15C02E249
:10117000E16AE552E16E1750000902E049EF0FF015
:10118000C4EC1EF003E1200EDB5015180AE03EEC23
:1011900021F01CE002EC21F019E1F4EC1FF0020850
:1011A00015E140EC4CF00E01A9B117EF14F009EC79
:1011B00021F0040EE66E9BEC1DF078EC1FF002E2CD
:1011C000E16AE552E16E145005EF15F067EC23F08B
:1011D00002E1CCEF0DF034EC20F002E0CCEF0DF0AA
:1011E0000EEC22F001E3DB2A8FEC22F0F4EC1CF091
:1011F00001E3DB2ABBEC22F001E3DB2ABBEC22F0AB
:1012000001E3DB2ABBEC22F001E3DB2ABBEC22F09A
:1012100001E3DB2AB7EC23F0DCEC22F06CEC23F0EA
:10122000B6EC21F0F1EC1DF0CAEF0DF0040EDF5C1E
:1012300002E049EF0FF0EEEC21F0270EE7CFDBFFE5
:1012400085EC1EF005E15E51151802E149EF0FF043
:10125000180EDB50010850E2D950280F63EC22F041
:1012600002E149EF0FF0280ED0EC1CF006EC21F063
:10127000EF98280EDBCFE6FF6AEC1AF0E552280E55
:1012800022EC21F0280E6DEC21F0280EBDEC21F0AF
:10129000280EC4EC21F0280E60EC21F0280ED0ECD2
:1012A0001CF0040EA9EC20F0280E32EC21F0280EE0
:1012B00067EC22F005E1280E32EC23F0280EAFD0C7
:1012C000DF6A25EC1FF0280ED0EC1CF0C2EC1DF0FC
:1012D000040EEF6E19EC1FF0290E82CEDBFF0E011B
:1012E000825108E08AEC1EF025EC1FF0280EE9EC94
:1012F00020F0F5D70B017B819BEC1DF0C9EC1EF0B3
:1013000002E149EF0FF0CAEC1BF040EC4CF00EECA0
:101310001EF002E2E16AE552E16E145028EC21F081
:101320008A0EE66E0E0E41EC21F002E2E16AE55211
:10133000E16E1450DF6A050EDF5C32E20A0EE66EE3
:10134000E66AF4EC1EF0BBEC1FF0DA0EE66E0C0E53
:101350009DEC20F002E2E16AE552E16E1750E2CC2A
:1013600014F0E3CC15F0160EDB50141817E1170E2D
:10137000DB50151813E10C01E269E3690A0EE66E11
:10138000DA0EE66E0C0EE66EF4EC1EF03EEC1FF08C
:1013900002E2E16AE552E16E165002D0DF2ACBD7B5
:1013A000270EDBBC56EF14F0DB50200BC3EF0EF022
:1013B000180EDB50010853E2D9502A0F63EC22F0DB
:1013C00002E149EF0FF02A0ED0EC1CF006EC21F000
:1013D000EF982A0EDBCFE6FF6AEC1AF0E5522A0EF0
:1013E00022EC21F02A0E6DEC21F02A0EBDEC21F04A
:1013F0002A0EC4EC21F02A0E60EC21F02A0ED0EC6B
:101400001CF0040EA9EC20F02A0E32EC21F02A0E7A
:1014100067EC22F008E12A0E32EC23F02A0EFDECF4
:101420001DF049EF0FF0DF6A19EC1FF02B0E82CE92
:10143000DBFF0E01825108E08AEC1EF025EC1FF064
:101440002A0EE9EC20F0F5D7020EDBCF84FE030E66
:10145000DBCF85FE2B0EDBCF82FE0B017B8185EC83
:101460001EF005E15E51151802E149EF0FF0FFECA7
:101470001FF0FBD207EC22F001E0DED2D8EC1AF02C
:10148000DF6EDF50060A01E1E3D0010A57E0030AEC
:1014900008E00B017CA149EF0FF0DF0401E076D1F9
:1014A0007CD4D8EC1AF0DF6E40EC4CF0DFAC34D0DA
:1014B00048EC1FF002E117EF14F00B017B870D01E0
:1014C0004591800EDF1402E0010E01D0000E0B01E9
:1014D0007C93E8B07C837C85C16B7CB302D0190E11
:1014E000C16FFCEC1EF0200EDF1402E0000E01D0F4
:1014F000010E0B017C9BE8B07C8B010EC66F200EA9
:10150000DF1402E0010E01D0000E7C9DE8A017EF71
:1015100014F07C8D17EF14F09BEC1DF0C9EC1EF05D
:1015200002E117EF14F0CAEC1BF00EEC1EF002E221
:10153000E16AE552E16E145056EF14F00B017C9F06
:10154000EEEC21F02C0ECFEC1DF02D0ECFEC1DF0AB
:101550002E0EE7CFDBFF40EC4CF048EC1FF002E131
:1015600017EF14F04E0EE66E0D0E09EC1EF0E76E4E
:101570002F0EE7CFDBFFDB50190815E0DF6ADBEC4D
:101580001DF0190EDF5C0FE2DAEC1CF002E2E16AFA
:10159000E5529EEC1EF004E054EC1DF0000903E05F
:1015A000F2EC21F0EED72E0EDB5007E00E01A997EA
:1015B0002E0EDBCF82FEA1EF13F02C0EDBCF5DFDF4
:1015C0002D0EDBCF5EFDE4EC57F00C01C09DC09FFB
:1015D000F2CB4EFDF3CB4FFDF4CB50FDF5CB51FDDF
:1015E000F6CB52FDF7CB53FDF8CB54FDF9CB55FDAF
:1015F000160EDBCF56FD170EDBCF57FDDBCFBBFC46
:10160000160EDBCFBAFCF2CBB2FCF3CBB3FCF4CBBF
:10161000B4FCF5CBB5FCF6CBB6FCF7CBB7FCF8CBFE
:10162000B8FCF9CBB9FC19EC1DF002E2E16AE55215
:10163000E16E14500E01826B2C0EDBCF88FE2D0E56
:10164000DBCF89FE92EC1FF00B017C81A1EF13F040
:10165000010EF36E300EF3CFDBFFD8EC1AF00E0163
:10166000826F40EC4CF0A2EC22F0070EEF6EF20E0F
:10167000E66E0B0E09EC1EF019081FE10B01010EBE
:10168000FC6F73EC15F0000905E0ACEC15F0DF6EB3
:1016900019080FE1A2EC22F0FD0E7AEC22F0EF68BF
:1016A000F0EC1CF0020EEF6E300EDB6A0B01FC6BEF
:1016B0000FD012EC15F00B01FC6BA2EC22F0BACCAF
:1016C000EFFFF0EC1CF0BBCCEFFFF0EC1CF0EF6A8E
:1016D0004BEC22F002E2E16AE552E16E1750DF6A5C
:1016E000080EDF5C03E2A5EC22F0FAD7DF6A080EF1
:1016F000DF5C09E2D6EC1EF0F20FE96E0B0EEA2277
:101700007DEC20F0F4D750EC20F0ACEC22F0180E79
:10171000EF6E8BEC23F0300EDB5003E00B017B8F80
:1017200002D00B017B9F82CE00FB010E016FBACC71
:1017300008FBBBCC09FBF2CB10FBF3CB11FBF4CBCA
:1017400012FBF5CB13FBF6CB14FBF7CB15FBF8CB59
:1017500016FBF9CB17FB170EDB50FB6FFA6B160E5F
:10176000DB50FA11FA6FA0EC20F0E66EFBCBE6FF3F
:1017700094EC1DF00E018251020B05E08251080B22
:1017800002E005EF15F0858505EF15F0030EDF5C2F
:1017900048E134EC20F045E1A2EC22F0030EEF6EBC
:1017A0008AEC1EF00E0175EC20F0EEEC21F0310E0B
:1017B000E7CFDBFFA2EC22F0310EDBCFEFFFEEEC48
:1017C00021F0320EE7CFDBFFA2EC22F0320EDBCFAE
:1017D000EFFF40EC4CF052EC1FF005E15E511518A4
:1017E00002E10FEF12F0A2EC23F0D950330F81EC9D
:1017F0001DF0FEEC20F097EC1EF075EC1FF002E2FD
:10180000E16AE552A2EC1EF001E00AD167EC23F098
:1018100001E006D10E01A66B0E017F0EA76F17EF38
:1018200014F0020EDF5C01E034D3340EDB6A040EE8
:10183000F36E350EF3CFDBFFD950360FA7EC1DF05A
:10184000F4EC1CF001E3DB2A020EEF6E010EDF6EFA
:10185000C3EC1FF008E2E1EC22F001E3DB2A46ECE6
:101860001DF0DF2AF5D7370EDBCFE6FF3B0EDBCFCF
:10187000E6FF3C0EABEC21F0380E34EC1FF002E238
:10188000E16AE552A2EC1EF001E179D0350EDB6A87
:10189000040EF36E350EB4EC1DF01DE2350EB9ECFE
:1018A0001DF016E0350ED3EC1CF08CEC21F0380E58
:1018B000DB50145C0DE1350EF3EC20F01CEC20F055
:1018C000390EDB50151803E13A0EDB50161803E011
:1018D000350EDB2ADDD7350EDB50040869E0050E36
:1018E000E66EE66A76EC21F0BBEC1FF0D30EE66EF6
:1018F0000C0E9DEC20F002E2E16AE552E16E175019
:101900000C01D56B350ED3EC1CF066EC21F0EF50DA
:10191000F36E3D0EB4EC1DF00CE2350ED3EC1CF072
:1019200066EC21F03D0EDBCFEFFF8ACED6FC8BCEEE
:10193000D7FC1BEC22F076EC21F03EEC1FF002E22B
:10194000E16AE552E16E16506BEC22F0390EDB5085
:10195000141803E13A0EDB5015182AE0010EF36E5D
:10196000340EF3CFDBFF350E1DEC23F03D0EDBCF45
:10197000E7FFEF50E7263D0EE7CFDBFF19D06BEC1A
:1019800022F0140EDB50141803E1150EDB5015186D
:101990000FE0070E146E3D0EDBCFE7FF1450E72675
:1019A0003D0EE7CFDBFF010EF36E340EF3CFDBFF0E
:1019B000340EDB503BE034EC20F038E140EC4CF0EE
:1019C000350EDB5004080AE0350E27EC23F0040E38
:1019D000EECFDBFF050EEDCFDBFF09D0FEEC20F0F4
:1019E0009BEC1DF062EC1EF002E117EF14F0D950F1
:1019F000360FA7EC1DF0DF6AC3EC1FF008E2F4EC31
:101A00001CF001E3DB2A8FEC22F0DF2AF5D792EC01
:101A100021F0D6EC1CF0180EDBCFEFFF60EC20F0CD
:101A2000A0EC20F0F1EC1DF003EF15F040EC4CF0D1
:101A30000E01826BA0EF14F052EC1FF002E15E5138
:101A4000151808E0EAEC1FF0FF0EEE1811E1FF0E8A
:101A5000ED180EE1FFEC1FF0140EDBCF86FE150E25
:101A6000DBCF87FE0E01020E886F350E08EF15F0F2
:101A70000B017C51010B01E10CD2180EDB50010867
:101A800001E307D234EC20F001E003D2FEEC20F0B9
:101A9000D950120FCBEC1DF0C00B56EC21F0E842F0
:101AA000E842E66E97EC1EF0E66A5BEC17F0146E07
:101AB000060EE15C02E2E16AE552E16E1450E76E67
:101AC0003E0EE7CFDBFFDB50030A33E0010A31E0D3
:101AD000060A2FE0050A01E1DCD1010A2AE1A2ECA5
:101AE00023F00E01825106E08AEC1EF00E0175EC27
:101AF00020F0F7D7D950010F3AEC21F0DF6A060E3B
:101B0000DF5C4AE2B2EC21F012E1FF0EED180FE1CA
:101B10009FEC23F090EC1EF037EC1DF0DFEC1FF093
:101B200037EC1DF0EE52010EDBCFEFFF35D0DF2A90
:101B3000E6D7DCEC22F0ACEC22F0EF6A9AEC20F075
:101B4000030EEF6E3E0EDB50020804E1F0EC1CF0D9
:101B5000010E0FD03E0EDB50030804E1F0EC1CF048
:101B6000020E07D03E0EDB50040805E1F0EC1CF03D
:101B7000040EEF6E03D0F0EC1CF0EF6AF0EC1CF0FA
:101B8000A3EC1FF0F0EC1CF09FEC1FF0A0EC20F099
:101B900020EC1FF094EC1DF040EC4CF005EF15F03C
:101BA000DF6A080EDF5C10E2DF50EA6A8A0FE96E36
:101BB0000E0EEA22EF50E66EDF50EA6A920FE96EEF
:101BC0000E0E4FEC22F0EDD797EC21F0DF6E1908E6
:101BD0000CE173EC15F000090FE0ACEC15F01908FE
:101BE0000BE012EC15F082CEBBFBBACC88FEBBCC6E
:101BF00089FE0E01826B05D00E01010E826F88698D
:101C00008969170E08EF15F00E01A9990E0182518E
:101C10001DE00E01A9970D015B695C69DCEC57F0D2
:101C20000E01A99B44EC23F002E2E16AE55269EC63
:101C300021F0C1970C01190EC66F19EC1DF002E2DC
:101C4000E16AE552E16E145035EF13F088CE5DFD88
:101C500089CE5EFD0E01A987E4EC57F044EC23F039
:101C600002E2E16AE552E16E17500C01C09DC09F8F
:101C700094EC23F04E0EE66E0D0E0FEC1FF002E218
:101C8000E16AE552E16E145019EC1DF002E2E16ADE
:101C9000E552E16E1450BACC56FDBBCC57FD0E0197
:101CA000A98B0C01BF510F0B010F0C01C76FE66E22
:101CB000F1EC16F0E552F3CFC8FCF4CFC9FC0C01EF
:101CC000D0B11AD0AFEC1EF00C01CA6F0D015E51FD
:101CD00007200C01CB6F010ECA27000ECB23010E8B
:101CE0000D015D250C01CC6F000E0D015E210C0174
:101CF000CD6FCE6BCF6BD08187EC1FF02BEC1DF03E
:101D000002E2E16AE552E16E14500B017C8192EC33
:101D10001FF0A1EF13F00B017B9B7B8D56CDE6FFEF
:101D200057CDE6FFC9EC1EF002E0CAEC1BF07AECDE
:101D30001DF0920EE66E0E0E9DEC20F002E2E16ABE
:101D4000E552E16E1750020E0B01C65D16E10E0161
:101D500082510FE10B017C51020B02E125EF14F0DF
:101D60000C01CE5106E10B017C51040B02E025EF82
:101D700014F00E01CB0E55EF14F07C51200B02E055
:101D8000000E01D0010E0E01826F4D0E08EF15F00E
:101D9000020E0E01885D01E07CD02AEC1FF0EF50AE
:101DA00001E077D086CEE6FF87CEE6FF20EC1FF07D
:101DB0001DEC1BF070EC22F019081CE1ACEC15F0E6
:101DC000190867E00C01C183C08DC08FDF6A080E5F
:101DD000DF5C07E2DF50EA6A17EC20F0EF6ADF2AE7
:101DE000F6D70C01C52B2BEC1DF002E2E16AE5529F
:101DF000E16E14500E019BAD03D00C01C09902D0CE
:101E00000C01C089C09BC181020E67EC1EF0780BEB
:101E1000E840E840E8401F0B0C010F0BF36EF00E9A
:101E200022EC22F00F0B0C01CEEC1EF022EC22F083
:101E3000F00BE8380F0B0C010F0BF36EF00EC01512
:101E4000F310C06F9DCEBEFC0E019B510C01C195DD
:101E5000800B01E0C185020E67EC1EF0040B040844
:101E600002E0000E01D0010E0C01C197E8B0C1875D
:101E700086CEBCFC87CEBDFC8ACEBAFC8BCEBBFC2A
:101E800089CEC2FC19EC1DF002E2E16AE552E16E76
:101E9000145040EC4CF017EF14F097EC21F0DF6E8B
:101EA000190EDF5C02E107EF15F0BACC92FEBBCC55
:101EB00093FE0E01010E826F230E08EF15F00B0149
:101EC0007B51080B1BE0020EC65D18E17C51400BF4
:101ED00001E0010EE76E3F0EE7CFDBFF0E01926BD4
:101EE000936B946B956B966B976B986B996B826BFE
:101EF00026EC20F03F0EDB5037E139D07BA73CD0F9
:101F00007C51400B01E0010EE76E480EE7CFDBFF8E
:101F10007AEC1DF0D950400F81EC1DF02CEC23F031
:101F200002E2E16AE552E16E1750400EDBCF92FE0D
:101F3000410EDBCF93FE420EDBCF94FE430EDBCF90
:101F400095FE440EDBCF96FE450EDBCF97FE460E88
:101F5000DBCF98FE470EDBCF99FE0E01826B26EC9D
:101F600020F0480EDB5003E00E01A98B02D00E01D9
:101F7000A99BA99756EF14F026EC20F03D0E08EF30
:101F800015F00E01880501E062D14D0EDB6A825129
:101F900003E00E01A99959D1836B846B856B86513F
:101FA000871101E118D119EC1FF069EC1FF01AE05C
:101FB000020EDBCFE9FF030EDBCFEAFF52EC1EF08F
:101FC000BDEC1DF0ABEC23F0ABEC1FF002E11750C1
:101FD000151808E02AEC1FF00E0EFCEC1CF028ECA3
:101FE0001EF0E3D769EC1FF001E0B5D0BDEC1DF0A9
:101FF000EF50010B10E0BDEC1DF0040EFCEC1CF0EA
:10200000E9CF14F0EACF15F0E9CFE6FFEACFE6FF1B
:10201000E4EC1AF007D0BDEC1DF0040EBFEC20F08C
:1020200001EC1BF0E552E552DF6E190EDF5C01E1B9
:1020300092D00B017CAD0DD0BDEC1DF01A0EEB5013
:10204000DBEC1EF004E6900E145C000E155801E265
:10205000ABD0100EE66ED4EC73F0E552490EF3CF20
:10206000DBFF4A0E71EC23F076E0BDEC1DF0020EB2
:10207000D4EC20F0ADEC1DF014C0EEFF15C0EDFF68
:10208000BDEC1DF0010EEB50E66EADEC1DF0020E46
:10209000A9EC20F00C01BF51F00B56EC21F0C9EC7B
:1020A00021F00F0BF36EF00E97EC1FF0C0510F0BE9
:1020B000C9EC21F077EC23F0EF500F0BD1EC21F0BD
:1020C0000F0BF36EF00EAFEC21F006EC21F0EF50A9
:1020D000F00B56EC21F0D1EC21F077EC23F0EE522E
:1020E000EF50800B01E0010E146EADEC1DF0BBEC67
:1020F00023F01450010BF36EFE0EAFEC21F058EC00
:1021000023F0EECF14F0EECF15F0EECF16F0EECFB9
:1021100017F07EEC21F0ADEC1DF0060EFCEC1CF08F
:102120008DEC1EF018C0EEFF19C0EEFF1AC0EEFFD6
:102130001BC0EEFFADEC1DF00E0EFCEC1CF084CECF
:10214000EEFF85CEEDFF490EDBCF84FE4A0EDBCFDE
:1021500085FE0E01832B0B017CAD26D0BDEC1DF05E
:10216000040ED4EC20F00D015651000114181CE1AE
:102170000D0157510001151817E1BDEC1DF0ABEC36
:1021800023F0EECF16F0EFCF17F00D015B510001F9
:1021900016180AE10D015C510001171805E1010E46
:1021A000F36E4D0EF3CFDBFFBDEC1DF01B0EFCEC10
:1021B0001CF028EC1EF086CEE6FF87CEE6FF75EC1D
:1021C00022F00E01866B876B020EDBCF86FE030EBC
:1021D000DBCF87FEE4D6835102E10E01A9990B0102
:1021E0007CAD33D07C9DA2EC22F0060E7AEC22F07E
:1021F0008E0EEF6E4BEC22F002E2E16AE552E16EE8
:102200001750DF6A080EDF5C03E2A5EC22F0FAD774
:102210007FEC23F0100EEF6ED6EC1CF015EC1FF0E7
:102220002AEC20F094EC1DF00B017C8F6EEC76F024
:1022300006C0CFFB07C0D0FB08C0D1FB09C0D2FB52
:10224000BACC56FDBBCC57FDE0D3360EE1D30E0120
:10225000A9990E01825107E1DCEC57F05DCD88FEB3
:102260005ECD89FEF7D444EC23F002E2E16AE55248
:10227000D9EC21F002E2E16AE552E0EC21F002E261
:10228000E16AE552E16E14500E01A99B0E018869C6
:102290008969CA0E55D228EC22F00E01825103E062
:1022A000190EDF5CC4D2190EDF5C01E1B0D3BACCE9
:1022B0008AFEBBCC8BFEBBCB82FE836B4C0EA8D3BD
:1022C0000E01825101E088D10B017C8185D10E0184
:1022D000825101E102D3EB0E825D02E1826BFDD2FD
:1022E000C60EFAD20E01A9B703D00E01C20ECAD093
:1022F0000E01921D01E1931D0EE0FD0E921902E107
:10230000FF0E931908E0FC0E921901E08BD0FF0E2E
:10231000931901E087D0D9504F0F63EC22F001E10F
:10232000AFD0EDEC22F006EC21F0EF88EDEC22F0DE
:1023300058EC23F0300EEE26750EEE22000EEE2243
:10234000EE220E01A751146E156A7F0ED880145626
:10235000000E15560E01A651166E176A145016245B
:102360000E01826F4F0E22EC21F08B51400DF35085
:102370000809E66EEDEC22F00A0EA9EC20F083517C
:10238000E824E66EEDEC22F0090EA9EC20F0EDEC6D
:1023900022F0070E2FEC22F0EDEC22F0BBEC23F044
:1023A0002FEC1FF0EDEC22F0040EFCEC1CF08ACEBA
:1023B000EFFFEDEC22F0AEEC23F09CCEEFFF82CEEF
:1023C000E6FFA2EC1DF04F0E67EC22F007E14F0E86
:1023D00032EC23F04F0EFDEC1DF052D0DF6A0E01FF
:1023E000A751DBEC1EF004E67F0E145C000E1558BE
:1023F00005E2A72BA75151EC23F0F1D70E01826B18
:102400000E01A65108E00E018251822B51EC23F0FF
:102410000E01A607F5D70B017B818CEC1FF00E0196
:10242000A66B05D2FEEC20F08BCEE6FF92CEE6FF47
:1024300093CEE6FF010EE66E5BEC17F0146E060E0F
:10244000E15C02E2E16AE552E16E1450E76E500E83
:10245000E7CFDBFFDB50010A01E1E9D1010A03E02C
:102460000E01D10E0FD0DF6A2D0EDF5C06E2D1EC3B
:1024700020F0EF5002E0DF2AF7D72D0EDF5C09E1F4
:102480000E01F10E826F8CEC1FF00E01A66B340E64
:10249000BFD2D1EC20F09CCEEFFF0E01D6EC1CF0A9
:1024A0009CCEEFFFD7EC20F093CEEFFFD6EC1CF0E4
:1024B00092CEEFFF0E018351E824A7EC23F00E012A
:1024C0008B51400DF3500809A7EC23F0D9504E0F63
:1024D0003AEC21F082EC23F04E0EDBCFEFFF95D2E9
:1024E0000B017CBBA4D1190E0C01C65D14E0C651D2
:1024F00044EC20F002E2E16AE552D9EC21F002E27C
:10250000E16AE552E0EC21F002E2E16AE552E16EB7
:1025100014500E01A99BDF6A190EDF5C14E2DF5034
:1025200044EC20F002E2E16AE55269EC21F0C1A33B
:1025300008D0C19719EC1DF002E2E16AE552E16EA4
:102540001450DF2AE9D70E01A9890B01B951BA113C
:1025500005E06FEC1FF00B01B96BBA6B8ACEBCFBC8
:102560008BCEBDFB8CCEBEFB8DCEBFFB89CEC0FB20
:102570000E01010E886F07D10E01C20E826F370E59
:1025800047D20B017B950E01825103E10D0145916C
:1025900014D00D014581FF0E0E01825D0EE082CE4A
:1025A00091FB6EEC76F006C08DFB07C08EFB08C079
:1025B0008FFB09C090FB0B017B8583CEE6FF43ECCC
:1025C0001CF0E5520E01826B380E22D20E01A9B723
:1025D00005D00E01C20E826F390E1AD288CEDFFFEF
:1025E00044EC23F002E2E16AE552E16E17500B0180
:1025F0007C91BCCC86FEBDCC87FEC2CC88FE0E0191
:102600000F0E8E6F8F6F826BDF5001E082832D0E75
:10261000FFD10B017CBB0BD10E01A951080B13E0BC
:10262000020E0E01825D0FE16FEC1EF00B017C8D3E
:102630000E01010E886F0D0E896F0D01AA0E5B6FE2
:102640001A0E5C6F9ED00E01A9890E01825101E025
:102650007AD00C01D0912BEC1DF002E2E16AE55238
:10266000E16E14500E01C30E826F0C01190EC66F7D
:102670005C0EDB68DF6A190EDF5C2EE2DF5044EC93
:1026800020F002E2E16AE5529EEC1EF023E0C15127
:10269000040B20E0C151080B1DE00E019A510C0102
:1026A000BC1918E10E019B510C01BD1913E1300E4C
:1026B000BE5D10E35C0EDBCF14F0BF510F0BD88072
:1026C000145408E2BF510F0BE76E5C0EE7CFDBFF3F
:1026D000DFCFC6FCDF2ACFD7190E0C01C65D2AE07A
:1026E000C65144EC20F002E2E16AE552E16E175077
:1026F0009ACE5BFD9BCE5CFD16EC1EF0010EE66EE5
:10270000E66A740E146EED0E16EC21F05CEC1FF010
:1027100002E2E16AE552E16E1750C2CC88FE0E017A
:10272000020E896FBACC92FEBBCC93FEDFCF82FE45
:10273000150E6ED10E01A9990E0188698969C30E23
:10274000826F3A0E65D16FEC1EF00E01A951200B7D
:1027500006E00B017C51400B02E07C9D09D00E018C
:10276000A951200B05E00E01820502E1030E02D003
:102770000E01010E886F080E896F9ACE5BFD9BCE0D
:102780005CFD16EC1EF0280E43D197EC21F01908E1
:1027900003E00E01C50E09D0A6D9000904E0DCD97A
:1027A000DF6E190804E10E01C70E826F03D03AD91B
:1027B0000E01826B3B0E2CD10E01A9B703D00E0186
:1027C000C20E73D00E01925134E1935132E1945113
:1027D00030E195512EE196512CE197512AE1985123
:1027E00028E1995126E10D0145910B017B870E01EE
:1027F00082510B017C93E8B07C837C85C16B7CB3F8
:1028000002D0190EC16FFCEC1EF00E01835102E0E4
:10281000000E01D0010E0B017C9BE8B07C8B0E01F9
:1028200083510B017C9DE8B07C8D020EC66F000EBB
:10283000EFD028EC22F0190836E002EC21F033E169
:102840000E01855105E0CAEC1BF00E01826B2ED003
:10285000DF6A080EDF5C03E262EC23F0FAD77FEC5C
:1028600023F0080EEF6E8BEC23F0A729EDEC1DF0A2
:1028700098EC75F0E552A2EC22F0040EEF6E400EDB
:10288000DF6E0E01825101E0DF8E835103E00B0108
:102890007C8DDF8AA2EC22F0DFCFEFFFA0EC20F0EE
:1028A0002AEC20F0B0D00E01C80E826F3C0EB0D0E2
:1028B0000E01010E826F240EABD00E0182510BE18E
:1028C000836B92EC1FF0020E896F56CD92FE57CDAE
:1028D00093FE310E9DD0C10E826F3E0E99D00E0137
:1028E000A9B702D00E0113D00E01845112E0921D3F
:1028F00001E1931D0CE0FD0E921902E1FF0E931908
:1029000006E0FC0E921905E1FF0E931902E1C20EDA
:1029100016D0D9505E0F81EC1DF0D9505D0F81ECBF
:102920001DF092CEE6FF93CEE6FF7EEC1FF002E2B2
:10293000E16AE552A2EC1EF005E10E01020E826F83
:10294000730E66D00B019251922BE66E5D0ED3ECA6
:102950001CF00E0EA9EC20F05D0EF3EC20F02FEC35
:102960001FF05D0E27EC23F02FEC1FF05D0E36EC10
:1029700022F05D0EE5EC22F00309EF6E5D0E81ECB6
:1029800020F0EF965D0E1DEC23F0EF68A6EC1EF034
:102990000E0187EC22F0D7EC20F0EF68D6EC1CF0AB
:1029A000EF68D6EC1CF0EF6A9AEC20F0010E7AEC9E
:1029B00022F0800EEF6E0E01840505E10E01A605E2
:1029C000F8EC20F0EF8C5D0E22EC23F08FEC22F07F
:1029D0000E01845109E1A2EC22F05DCDEFFFF0EC95
:1029E0001CF05ECDEFFF08D0A2EC22F092CEEFFFFC
:1029F000F0EC1CF093CEEFFFF0EC1CF0EF6AA0ECD3
:102A000020F0E668E66894EC1DF0100E01D0000E90
:102A1000146E5F0EE15C02E2E16AE552E16E145071
:102A20004AEF1DF094EC23F08A0EE66E0E0E0FECCA
:102A30001FF002E2E16AE552E16E14505BCDBCFC8E
:102A40005CCDBDFC0C01C2690E0182B314D00C0137
:102A5000C099C08BCACCBAFCCBCCBBFC0C01CA2B36
:102A6000000ECB23FE0ECA1921E1FF0ECB191EE189
:102A70000B017C871BD00C01C089C09BCCCCBAFC5D
:102A8000CDCCBBFC0C01CF2BC851CC27C951CD23D9
:102A9000AFEC1EF0146E5E510720156E0C01CC5188
:102AA000145CCD51155802E20B017C890E01825154
:102AB0000C01C191080B01E0C181C08DC09FC18391
:102AC00019EC1DF002E2E16AE552E16E14500C01CE
:102AD000CE2BC52B2BEC1DF002E2E16AE552E16E34
:102AE000145087EF1FF00B01FC511DE10D01455102
:102AF000010B17E0140E0C01CE5D13E20E018251A2
:102B0000020B04E10B017C51080B0CE0050E0C01DB
:102B1000C75D07E2060ECF5D04E20B017C51100B8E
:102B200001E0000C010C140E0C01CE5D13E20E014D
:102B30008251020B04E10B017C51080B0CE0050EE5
:102B40000C01C75D07E2060ECF5D04E20B017C516C
:102B5000100B01E0000C010CD4EC22F0190EDF5C2C
:102B60000FE2DAEC1CF002E2E16AE55269EC21F0D6
:102B7000C1B302D0DF5005D0E1EC1DF0DF2AEED763
:102B8000190EE5524AEF1DF098EC23F0DF6A070EAC
:102B9000DF5C05E254EC22F002E0DF2AF8D7070EF2
:102BA000DF5C08E02E0E7DEC22F042EC1DF0F8EC2C
:102BB0001DF002E1000E3ED0FC0EDBCFE9FFFD0E62
:102BC000DBCFEAFFDFCFEFFF8BEC22F00B0EFCEC4C
:102BD0001CF0EF6886EC1DF08BEC22F058EC23F033
:102BE00097EC1DF08BEC22F066EC21F08DEC1EF0E2
:102BF0008BEC22F006EC21F0EF9A8BEC22F006EC45
:102C000021F0F00EEF140209EF6E010EDB6A190ECF
:102C100052EC21F00EE28BEC22F0150EFCEC1CF0D5
:102C2000010EDB509CEC21F0030EEF6E010EDB2A4F
:102C3000EED7010EE552E5524AEF1DF0ACEC20F064
:102C4000FB0EDB50040811E0FB0EAFEC20F002E2BB
:102C5000E16AE552E16E17500C01D56B6BEC1DF08B
:102C600002E2E16AE552E16E1450A2EC22F0020E9B
:102C7000EF6E3DEC1EF09BEC1FF075EC20F03DEC90
:102C80001EF0020E83EC22F0F0EC1CF0FC0EDBCF09
:102C9000EFFFF0EC1CF0FD0EDBCFEFFF3DEC1EF084
:102CA000030E83EC22F03DEC1EF0030E40EC23F00B
:102CB00075EC20F03DEC1EF0050E83EC22F0DCEC10
:102CC00022F0FD0EDBCFEFFFD6EC1CF0FC0EDBCFCD
:102CD000EFFFB6EC21F020EC1FF094EC1DF0E55274
:102CE0004AEF1DF0ACEC20F02FEC1EF000EC1DF0D4
:102CF00002E2E16AE552E16E1750100EDF5C0DE270
:102D0000CBEC1FF003E1FD0EDB50151806E036ECAE
:102D10001EF000EC1DF0EFE2ECD7100EDF5C16E1C8
:102D20002FEC1EF000EC1DF002E2E16AE552E16ECC
:102D30001750100EDF5C0AE2030E0C01D55D06E0B1
:102D400036EC1EF000EC1DF0F2E2EFD744EC1EF082
:102D5000DFCFEFFFDF6A040EDF5C05E2A6EC21F0B7
:102D600002E0DF2AF8D74BEC1EF0DFCFEFFF140EA6
:102D70007DEC22F050EC1DF0F8EC1DF002E1000EAD
:102D80002DD0FC0EDBCFD3FCFD0EDBCFD4FC0C0131
:102D9000010ED56F6BEC1DF002E2E16AE552E16EC7
:102DA0001450C3EC22F066EC21F0EF6886EC1DF0C5
:102DB000C3EC22F097EC1DF044EC1EF0EF50E66EF1
:102DC000C3EC22F0120EA9EC20F0C3EC22F058EC78
:102DD00023F0EE6AED6A0B017B83010EE5524AEFA8
:102DE0001DF098EC23F0DE6ADD6AFD0EDB50050A6B
:102DF0001AE0010A15E0070A11E0010A0DE0030AD2
:102E000006E0010A12E13D0EDE6E140E03D05D0EE7
:102E1000DE6E030EDD6E09D08D0E03D0150E01D0CF
:102E2000010EDE6E01D0DE6ADD6ADECF14F0DDCF8A
:102E300015F014C0F3FF15C0F4FFE552E5524AEF58
:102E40001DF098EC23F02FEC1EF0010EDB6A00EC75
:102E50001DF002E2E16AE552E16E1750CBEC1FF083
:102E600007E1FD0EDB50151803E1010EDF6E07D000
:102E7000010EDB2A0C01050ED827000ED923100EF7
:102E800052EC21F002E2DF50E2E0DF500BE04BECCD
:102E90001EF0D6CCEEFFD7CCEDFF44EC1EF0D5CC27
:102EA000EFFF04D044EC1EF0030EEF6EDF50E5524E
:102EB000E5524AEF1DF0ACEC20F0FB0EDBCFE6FF55
:102EC000FC0EE7EC1DF010E002EC21F004E054EC05
:102ED0001DF0000909E144EC1EF0FB0EDBCFEEFF14
:102EE000FC0EDBCFEDFF26D0800EE66E39EC22F033
:102EF0005DCDE6FF5ECDE6FFE66AE66A3AD8146E7F
:102F0000070EE15C02E2E16AE552A2EC1EF023E06A
:102F1000FA0EDB50020816E0A0EC20F0BCEC1EF02C
:102F200075EC1FF002E2E16AE552A2EC1EF007E048
:102F3000DF5002E1000E1AD0FA0EDB6A0CD0FA0E56
:102F4000DB0409E1010EE66EFD0EDBCFE6FF78D86B
:102F5000E552E5520BD0BCEC1EF062EC1EF005E130
:102F60000E01D10E826F020E01D0000EE5524AEF23
:102F70001DF098EC23F0E652020EDB6ADF6A040EC5
:102F8000DF5C24E2A6EC21F01AE0FD0EDB501CE031
:102F9000C3EC22F08CEC21F0FC0EDB50145C14E14D
:102FA000C3EC22F0080EFCEC1CF01CEC20F0FA0E36
:102FB000DB50151809E1FB0EDB50161805E1010E78
:102FC000F36E020EF3CFDBFFDF2AD9D7F70EDBAEAD
:102FD00003D0DE52100E02D0DE52080EDD6E020E5D
:102FE000DB5027E0020EDB6A2FEC1EF0010EDB50F7
:102FF000DF5C1FE200EC1DF002E2E16AE552E16EE7
:103000001750D3CC14F0D4CC15F0F80EDB501418B4
:1030100003E1F90EDB50151804E0030E0C01D55D39
:1030200005E1010EF36E020EF3CFDBFF36EC1EF06E
:10303000DDD7020EDB50E552E552E5524AEF1DF0B6
:1030400013EC1DF00B0EE12402E3E168E652E16EA1
:10305000010EDB6A060E52EC21F008E29BEC23F035
:10306000D3EC1DF003E0010EDB2AF4D7010EDB5098
:10307000060801E151D10B0E7DEC22F09BEC23F010
:1030800089EC20F0F8EC1DF001E146D1FD0EDB509B
:1030900001E18CD06AEC20F0AEEC23F02FEC1FF0B5
:1030A0006AEC20F0050E2FEC22F00E01A751166EEF
:1030B000176A7F0ED8801656000E1756080E162671
:1030C000000E17220E01A65100011624146E000EE8
:1030D0001720156ED9EC22F014C0EFFFD9EC22F0C6
:1030E00057EC1EF001E10FD16AEC20F05FEC1FF00D
:1030F000F350080980EC22F001E3DB2A46EC1DF0D6
:103100000E018351E82480EC22F001E3DB2A90ECED
:1031100023F001E3DB2A92CEEFFFF4EC1CF001E395
:10312000DB2A93CEEFFFF4EC1CF001E3DB2A5DCD4C
:10313000EFFFF4EC1CF001E3DB2A5ECDEFFF040EA1
:103140008ACEDBFFF4EC1CF001E3DB2A040EDBCFBC
:10315000EFFFF4EC1CF001E3DB2A9CCEEFFF0E0145
:10316000A751DBEC1EF004E67F0E145C000E155830
:103170000BE2A72BA751EDEC1DF0F4EC1CF001E3E2
:10318000DB2A46EC1DF0EBD7DF6A0E01A651A6073D
:10319000000901E176D0DF50DF2AEDEC1DF0F4EC00
:1031A0001CF001E3DB2A46EC1DF0EFD7040E0E0104
:1031B000845F000E855B6AEC20F0AEEC23F021EC1E
:1031C00020F08407FAEC22F0FCEC1CF0EE5246EC06
:1031D0001DF08407000EFAEC22F0A9EC20F0020E9C
:1031E000845F000E855B080E8227D9EC22F082CE28
:1031F000EFFFD9EC22F057EC1EF001E184D06AEC2D
:1032000020F05FEC1FF0F3CF14F0F3CFE6FFD0D93E
:10321000E552E7CF14F03F0B141080EC22F001E3ED
:10322000DB2AC5EC20F001E3DB2AC5EC20F001E34A
:10323000DB2AC5EC20F001E3DB2AC5EC20F001E33A
:10324000DB2AC5EC20F001E3DB2A46EC1DF0B0D907
:10325000FF0FE76E040EE7CFDBFFC6DB01E3DB2ADF
:10326000040EDBCFEFFFE1EC22F001E3DB2A46ECBA
:103270001DF00E01825105E0E1EC22F0F8E3DB2ABB
:10328000F6D786EC1DF06AEC20F05BEC23F097ECAF
:103290001DF0D950060F81EC1DF0D950050F81ECBF
:1032A0001DF06AEC20F0050EBFEC20F07EEC1FF064
:1032B00002E2E16AE552A2EC1EF022E08CEC1FF083
:1032C0000E01A66B0E0E7DEC22F0050E94EC20F0A4
:1032D00059EC22F040EC22F0145015101FE10C01C3
:1032E000010ED56F6BEC1DF002E2E16AE552E16E72
:1032F0001450050E97EC20F0A8DB050EE0EC1EF054
:103300006AEC20F0A2DB9BEC23F089EC20F09DDB43
:103310009BEC23F0D7EC1DF0040E8ED0050E22ECB2
:1033200023F092CBEFFF050EF3EC20F02FEC1FF013
:10333000050E36EC22F0050EE5EC22F00409EF6EE6
:10334000050E81EC20F0EF964FDB01E3DB2A010E46
:10335000EF6E4ADB01E3DB2A800EEF6E0B01925128
:10336000922B80EC22F001E3DB2A90DB6AEC20F068
:10337000BBEC23F0EF5080EC22F001E3DB2A86DB8C
:103380006AEC20F0050E40EC23F02EDB01E3DB2A93
:1033900090EC23F001E3DB2AEF6AA6EC1EF024DBBD
:1033A00001E3DB2A90EC23F001E3DB2A040EDBCF00
:1033B000EFFF1ADB01E3DB2A5ECDEFFF15DB01E354
:1033C000DB2A5DCDEFFF10DB01E3DB2AEF680CDBCE
:1033D00001E3DB2AFC0EEF6E07DB01E3DB2AEF6A79
:1033E00003DB01E3DB2A090EEF6E6EEC76F0070ECD
:1033F00006C0DBFF080E07C0DBFF090E08C0DBFFBD
:103400000A0E09C0DBFF070EDBCF14F0080EDBCF7E
:1034100015F0090EDBCF16F00A0EDBCF17F0040E05
:10342000145E5D0E155A000E165A175A050EEEEC74
:1034300020F08DEC1EF0010E146E0B0EE15C02E22A
:10344000E16AE552E16E145025D3EDDAF90EDB5056
:103450003DE006EC20F0FA0EDBCF16F0FB0EDBCFE2
:1034600017F01650145C1750155832E2FA0EDBCFE5
:1034700018F0FB0EDBCF19F0FC0EDBCF1CF0FD0EBD
:10348000DBCF1DF018C0E6FF19C0E6FF1CC0E6FF49
:103490001DC0E6FFF90EDB04E66EA3DCE552E55243
:1034A000E7CF1DF0E552E7CF1CF0E552E7CF19F06A
:1034B000E552E7CF18F01C50F3241A6E1D50F4208B
:1034C0001B6E1A50185C1B50195802E2010E01D0F5
:1034D000000EE0D2ACEC20F0DF6A190EDF5C1DE2DA
:1034E000DF5044EC20F002E2E16AE552E16E175051
:1034F0000E018A510C01BA190EE10E018B510C011B
:10350000BB1909E1FD0E4CDA150E76DADF509CECA2
:1035100021F0EF9002D0DF2AE0D7E552BBD20B01B9
:10352000722B725101E1722B72511200ACEC20F03F
:103530000E01A99B0C012FEC20F0DF6A3CDB190E79
:10354000DF5C09E276DA02E2E16AE552E16E1450EC
:10355000F2EC21F0F4D70C01C56B190EC66FCE6BDF
:10356000CF6BD0913C0EC36FA50EC46F74DA02E22C
:10357000E16AE552E16E1450E5528CD2ACEC20F0D9
:103580000C01030ED56FD369D4690C01170ED86FE7
:10359000E40ED96FDF6A100EDF5C08E29CDA02E20B
:1035A000E16AE552E16E145061DBF5D7E55272D263
:1035B0000E01825101E1000C82072AEC1FF0842BDE
:1035C000000E8523EF501200D4EC22F0190EDF5CC0
:1035D00015E2F0D902E2E16AE55269EC21F0C1A3FB
:1035E0000AD028EC21F0F0DB02E2E16AE552AADB26
:1035F00002E1DF5004D0F2EC21F0E8D7190EE552D9
:1036000049D2D4EC22F0190EDF5C14E2D3D902E2E5
:10361000E16AE55269EC21F0C1A309D0D3EC1FF0B7
:1036200006E1FD0EDB50151802E1DF5004D0F2EC8C
:1036300021F0E9D7190EE5522DD2D4EC22F0190E63
:10364000DF5C20E2B7D902E2E16AE55269EC21F0E1
:10365000C1A315D0D3EC1FF012E1FD0EDB501518FD
:103660000EE1BCCC16F0BDCC17F0FA0EDB501618EC
:1036700006E1FB0EDB50171802E1DF5004D0F2EC3C
:1036800021F0DDD7190EE55205D2CDD9080EE1247F
:1036900002E3E168E652E16E2DDA5CEC1FF002E233
:1036A000E16AE552E16E175094EC23F0A0EC20F0B3
:1036B0008BDB02E2E16AE55245DB02E1010E01D05B
:1036C000000E146E080EE15C02E2E16AE552E16E62
:1036D0001450E0D1ACEC20F0DF6A6DDA190EDF5C3B
:1036E00019E268D902E2E16AE55228DB10E0DCD990
:1036F00001080DE0D9D900090AE02FEC20F00C01F7
:10370000C50797D902E2E16AE552E16E1450F2EC86
:1037100021F0E4D7A0D902E2E16AE552E16E14504B
:10372000E552B8D180D90E01A9810E01020E886F31
:103730005BCD86FE5CCD87FE5DCD8AFE5ECD8BFEC9
:10374000896FF0DBFC0EDBCF92FEFD0EDBCF93FE2C
:10375000A2DA58CDEFFF58CD9CFE856BD950FC0FF7
:10376000E96EFF0EDA20EA6EFF0EEE1802E1FF0EA0
:10377000ED180CE08581FC0EDBCFE6FFFD0E27DAAD
:1037800005E00C01C1B102D00E0185850E01010ECC
:10379000846F80D102EC21F00BE10C01CE070C010B
:1037A000F4EC1FF0010802E10C01CF07B0DB06D0FA
:1037B0007BD9000903E10C01190EC66F0C012FEC37
:1037C00020F037D902E2E16AE552E16E14500C01B3
:1037D000C50741D902E2E16AE552E16E14501200D8
:1037E00098EC23F0DF6AE7D9010EDB6A190E52EC80
:1037F00021F02FE2DFD802E2E16AE5529FDA25E00C
:1038000053D9010822E106EC20F0BA51141802E164
:10381000BB51151812E00C01C729E66E45EC21F0EA
:103820002AEC20F012DE166E050EE15C02E2E16A7F
:10383000E552E16E1650000908E02DDABACCEEFF31
:10384000BBCCEDFF010EDF6E04D0BBD9010EDB2A2D
:10385000CDD7DF5014E1C7CCE6FF45EC21F0BEDB4D
:10386000146E050EE15C02E2E16AE5526BDA07E1F3
:1038700012DA56CDEEFF57CDEDFF010EDF6EDF50B1
:10388000E552E55207D1CFD8FD0EDB5026E00D0101
:10389000466B210E476F0C01C751080DF3CF48FD51
:1038A000140ECE5D1AE2190EC55D17E20B017C51B4
:1038B000080B06E1050E0C01C75D02E20D01488F01
:1038C000050E0C01C75D09E2060ECF5D06E20B0195
:1038D0007C51100B02E10D014885DCD0ACEC20F0EE
:1038E000D6CF72FB0E01A96B0B017C51200B01E0BE
:1038F000010EDF6E7B6B7C6B7D6B7E6BDF507C9B88
:10390000E8B07C8BDF6A2D0EDF5C05E2D1EC20F0A5
:10391000EF6ADF2AF8D7FD0EDB5005E10B01B95144
:10392000BA1101E0DCDA0B01B96BBA6BDF6A070E82
:10393000DF5C10E2FD0EDB5008E154EC22F005E004
:103940008BEC22F082D89ED880D89CD8EE6AED6AA3
:10395000DF2AEDD7DF6A060EDF5C0EE2FD0EDB50DC
:1039600006E147EC22F003E0F5EC22F06ED8EA6ABB
:10397000DF341DD9DF2AEFD7DF6A040EDF5C0DE2EA
:10398000FD0EDB5005E1A6EC21F002E089D85DD800
:1039900087D8EE6AED6ADF2AF0D7F0DDE5527AD0FB
:1039A0009CDB78EF20F0C3DB78EF20F0A751A7076E
:1039B000F8EF20F0110EE66EE66AD1CC14F0D2CC0E
:1039C00015F0166AD1CCE6FFD2CCE6FF16C0E6FFB2
:1039D000B20EE66E0C0E9DEF20F09BDB78EF20F030
:1039E000A651A62BF8EF20F0020EDBCFE9FFDB2A71
:1039F000030EDBCFEAFF1200E926000EEA221200D6
:103A0000050EE66EE66AD8CC14F0D9CC15F0166A2D
:103A1000D8CCE6FFD9CCE6FF16C0E6FFD30EE66EA3
:103A20000C0E9DEF20F08CDBE1CFD9FFE2CFDAFF67
:103A30001200110EE66EB20EE66E0C0EE66ED1CCE2
:103A4000E6FFD2CCE6FF4CEF21F0EECFE6FFEFCF62
:103A5000E6FF75EF22F00E0EE66EC30EE66E0C0E5C
:103A6000E66E600EE66EE20EE66E4CEF21F0DF5081
:103A7000040DF3CFE9FFF4CFEAFF9F0EE9260B0E0A
:103A8000EA221200EA6ADF3401EF23F0E552E75040
:103A9000EF6E1200E552E5CFDAFFE7CFD9FF120053
:103AA000EA6ADF3409EF23F0C051C00BE842E84274
:103AB00056EF21F07EEC21F048DB00011850EE5C5F
:103AC000146E1950EE58156E1A50EE58166E1B50A3
:103AD000EE58176E12001BEC22F0D8CCE6FFD9CCC2
:103AE000E6FFDAD3FE0BEA36E96E180EE9260B0E76
:103AF000EA22120094EC23F0480E146EE10E16EF49
:103B000021F0E66E000EDA20E66E12006EEC76F022
:103B100006C014F014EF22F0250EDBCFE9FFDB2AFC
:103B2000260EDBCFEAFF1200FDDD70EF22F006C0AB
:103B3000EEFFE7EF21F0160EDBCFE6FF170EDBCF2F
:103B4000E6FF1200D4EC73F0E5525BEF21F0146E47
:103B5000000EDA20156E40EF22F0490EDBCFE9FFB0
:103B60004A0EDBCFEAFF1200DBCFF4FFF350F45C28
:103B70001200DDDAEE50ED10120086CEE9FF87CE9E
:103B8000EAFF12001450EE24E76E1550EE20EA6EA4
:103B9000E7CFE9FF120048EC23F0EF501200E7CF27
:103BA000DBFFEEEF21F0B5DAEE50ED101200B1DAE6
:103BB000EE6AED6A12000C016E0ED16FE20ED26F4A
:103BC00012000C01110ED127000ED2231200DBCF00
:103BD000E6FF5EEC22F0190812000ADBEF50E66EF9
:103BE0001200040EDBCFE6FF050EDBCFE6FF12006E
:103BF00059EC22F01450151012006FDAEE6AED6ADB
:103C00001200E9CF14F0EACF15F00C0EDB509CEF58
:103C100021F0E66ED9DCE552E55212000E01826B0E
:103C200017DB920EE66E0E0E41EF21F09CCE73FB79
:103C30009DCE74FB9ECE75FB9FCE76FBA0CE77FB10
:103C4000A1CE78FBA2CE79FBA3CE7AFBDCEF57F0B6
:103C5000020EEECFDBFF030EEDCFDBFF1200DF6ABB
:103C60000C01170ED86FE40ED96F1200DF2A0C0179
:103C7000050ED827000ED9231200F90EDBCFE9FF7D
:103C8000FA0EDBCFEAFF1200F80EDBCFE9FFF90EE8
:103C9000DBCFEAFF1200FA0EDBCFE9FFFB0EDBCF32
:103CA000EAFF1200EECF14F0EFCF15F01200EF5044
:103CB000E66ED4EC73F0E552020EF3CFDBFF030E99
:103CC00071EF23F08DDD70EC22F0000912000E017F
:103CD000EA6A8425E96E8551EA22EF5012009CCEF3
:103CE000C7FB9DCEC8FB9ECEC9FB9FCECAFBA0CE14
:103CF000CBFBA1CECCFBA2CECDFBA3CECEFB120044
:103D00007D0EE66E0D0E9DEF20F07ADB0D015D510C
:103D1000141812004DDCE66E120014C0EEFF57D3EB
:103D2000160EDBCFEEFF170EDBCFEDFF1200140EE9
:103D3000DBCFE6FF150EDBCFE6FF1200CADAC1517A
:103D4000020B1200E16E1450000912008FEC1AF001
:103D5000E66E12000B0EC1D9EE50ED101200060EE9
:103D6000086E096AC8CC0DF0C9CC0EF089EC72F06F
:103D70000D015D5106241200F80EDBCFE6FFF90EAF
:103D8000DBCFE6FF39EF22F0A6DB1F0EDB50141865
:103D9000120094DBDF6E190EDF5C12000F0BF36E66
:103DA000F346F346F346F3460F0E1200070ED88093
:103DB000DF54EA6A1200146E156AD890155012008A
:103DC000B6D9EE6AED6A120060DACEEC75F04DEF0E
:103DD00023F0080E146E1A0EDBCFE7FF1450E7260F
:103DE0001A0EE7CFDBFF1200DF500A0D64DA690E0E
:103DF0001426E40E152212006EEC76F006C0C2FB0B
:103E000007C0C3FB08C0C4FB09C0C5FB1200EF50CC
:103E1000050D51DA170E1426E40E15221200E66E77
:103E2000B20EE66E0C0E41EF21F0090EEF6EA0EF20
:103E300020F0020E84CEDBFF030E85CEDBFF1200E6
:103E40008ACEE6FF8BCEE6FF1200DF50DF2A146E2B
:103E5000156A120084CEE9FF85CEEAFF12005DCD1F
:103E6000EEFF5ECDEDFF1200DBCFE6FF010EE66E4A
:103E7000B9EC17F0146E070EE15C120014C0E6FFF7
:103E800015C0E6FFC3EC6EF0166E050EE15C120085
:103E9000EA0EE66E0B0EE66E45EC1BF0E552E552BF
:103EA00000091200140EDBCF14F0150EDBCF15F055
:103EB0000D015D511418120043D92CEF23F0020EAE
:103EC000DBCFEEFF030EDBCFEDFFFC0EDB50400D32
:103ED0001200D950020FDCDBEE50ED101200B9CB0E
:103EE000E6FFBACBE6FF75EF22F021EC17F0D5D351
:103EF0001EEC16F0146E050EE15C120072EC16F06A
:103F0000CCD3C4EC15F0E552E55200091200010EC5
:103F1000E66EB9DCE55212000E01A9910E017F0E8A
:103F2000A76F12005BCD9AFE5CCD9BFE1200EF14D2
:103F3000F310EF6E1200EE52EF50E66E1200170E05
:103F4000DBCFEFFF1200160EDBCFEFFF1200EF6AA0
:103F5000A729F8EF20F0EECF16F0EFCF17F0000111
:103F6000165014181200DF50146E156A060E145CF9
:103F7000000E15581200166A14C0E6FF15C0E6FFC1
:103F800016C0E6FF1200DF50146E156A080E145CAE
:103F9000000E15581200D3CC14F0D4CC15F0FC0E42
:103FA000DB5014181200BACC14F0BBCC15F0FC0E88
:103FB000DB5014181200130EDBCFEFFF1200190EA6
:103FC000DBCFEFFF1200040EDB68050EDB680A0E84
:103FD000DB841200D950140F48EF23F05DCDE6FFCB
:103FE0005ECDE6FF25EF1AF0C051300B56EF21F001
:103FF000140EDBCFEEFF150EDBCFEDFF1200160E19
:10400000DBCF8AFE170EDBCF8BFE1200FC0EDBCF60
:1040100014F0FD0EDBCF15F012000D015D51000113
:10402000141812000D015E51000115181200B20F94
:10403000E96E0C0EEA221200EECF15F0EFCF16F06B
:1040400012008ACEEEFF8BCEEDFF1200E66A46DC50
:10405000E5521200BACCE6FFBBCCE6FF1200BE6B05
:10406000BF6BC06BC16B12000E01A951010B120096
:10407000180EDB04E66E1200150EDBCFEFFF120008
:10408000140EDBCFEFFF1200110DF3CFD1FCF4CFF4
:10409000D2FC6E0E0C01D127E20ED223DAEF1CF017
:1040A00055DE0E0134DA82DC010EEF6E5BDAD6EFFC
:1040B0001CF00E012CDA7ADC0A0EEF6EB2EF22F061
:1040C00075DC4ADA09DB72DC76DF70DC120EDBCFDE
:1040D000EFFF120030DBEDEF1CF0EA6ADB3491D227
:1040E0008BDCEF50E66E87EF22F07ADC46EF1DF0B6
:1040F000EE50EFCFEAFFE96E1200EF5028DBDF2A27
:10410000120051DC130EFCEF1CF0EA6ADF34EDEF15
:104110001CF0FE0BEA36E96E930EE9260B0EEA223E
:1041200012000B0ED0EF1CF03EDC58EF23F0EA6AD1
:10413000DB346FD2F0DAA2EF22F0E66E2CEF23F040
:10414000D9CFE6FFDACFE6FF1200D950060F48EFCD
:1041500023F052DC46EF1DF066DCE652120023DC51
:10416000120E4ADCEF50050DF3CFD8FCF4CFD9FC8A
:10417000170E0C01D827E40ED92300EF1DF03CDC0C
:10418000EECFE6FFEFCFE6FF120080DCE1EF22F09A
:10419000230E5DDA56DF230E4BDA210EDBCFEFFF65
:1041A0001200B0DAEE52120027DC52EF1EF0D6EC0D
:1041B0001CF08ACEEFFFD6D9D6EF1CF061DA87EF7C
:1041C00022F0BBCCEFFFD6EC1CF0BACCEFFFD6EF61
:1041D0001CF0D0EC1CF0D6DC46EF1DF0D3EC1CF04C
:1041E000040EFCEF1CF0D3EC1CF0080EFCEF1CF0EE
:1041F000EA6A000FE96E0E0EEA221200D950040F8F
:1042000081EF1DF00C0150DC01081200140EFCEFD0
:104210001CF0210EDBCFE7FF220EDB50E75E210E04
:10422000E7CFDBFFD9501C0F81EF1DF0156E166A2A
:1042300014C0E6FFE66E16C0E6FF120080DAEE68F4
:10424000ED681200D0EC1CF086DA82CEEFFF12008F
:104250006BDAB20EE66E0C0EE66E1200EA6ADB3422
:1042600072EF1DF0D0EC1CF079DAA9DE82CEE6FF09
:10427000A2EF1DF046DCB5DC94EF1DF047DAE7EF66
:104280001DF0E66E16EC76F008D2FC0EDBCFE6FFF2
:10429000FD0EDBCFE6FF1200C3EC6EF0146E050ED0
:1042A000E15C1200F36E010EB4EF1DF0E842E8424B
:1042B000E842E8421200F3CF14F0F4CF15F01200F8
:1042C000D0EC1CF058DA2CDD38EF20F0100EFCEFAB
:1042D0001CF0E16E17500C011200D0EC1CF00A0E1D
:1042E000FCEC1CF0120EDBCFEFFF1200350ED3EC0E
:1042F0001CF0120EFCEC1CF007EF1FF0EECF18F0D4
:10430000EECF19F0EECF1AF0EFCF1BF01200150E22
:10431000FCEC1CF001EF1EF00E0EFCEC1CF0EFCFDD
:1043200014F012000E01D6EC1CF0DFEF1FF08A0E25
:10433000E66E0E0E09EF1EF0E924E96E000EEA208B
:10434000EA6E1200D9500A0FCBEF1DF050EC1DF0B1
:10435000EE50ED101200DBCFE6FF9BEF1DF0E7DD26
:10436000BDEF1DF0ECD9FF0EEE181200D6EC1CF0DC
:10437000EF6AD6EC1CF015EF1FF0D0EC1CF0090E24
:10438000FCEC1CF0DBEF1FF0D0EC1CF094D9F8EF44
:104390001FF0146EADEC1DF0EE52EE52EE521450C2
:1043A0001200146EADEC1DF0040EFCEC1CF0145069
:1043B0001200E16E17500C01C08DC08F19EF1DF077
:1043C000E16E14500C01190EC66F2BEF1DF015C0D5
:1043D000EEFF16C0EEFF17C0EEFF1200D8EC1AF089
:1043E000E76E1200DF2AE1EF1DF065D9EFCF9CFEEA
:1043F0000E01120025EC1DF0EA6ADF34D7EF1DF044
:10440000160EDBCF14F0170EDBCF15F01200D950CB
:10441000120FCBEC1DF0030B01081200D9501C0F3A
:10442000A7EC1DF0F4EF1CF007C015F008C016F063
:1044300009C017F01200050EE66ED30EE66E0C0EE4
:10444000E66E1200BF15F310BF6F010E67EF1EF08E
:10445000920EE66E0E0E09EC1EF0DF6E1200FCEC02
:104460001CF092CEEEFF93CEEDFF1200E1D8EF6A82
:104470001200FB0EDBCFE6FFFC0EDBCFE6FF1200E7
:10448000020E14C0DBFF030E15C0DBFF1200EA6A48
:10449000DF34D3EF1DF07AEC1DF080EF1EF0EA223E
:1044A00046EC1DF0DF2A120042EC1DF0EE50ED103C
:1044B0001200F3CFEEFF15C0EDFF120001EC1BF070
:1044C000E552E552120081EC1DF081EF1FF0D0ECB7
:1044D0001CF0F8EF1DF05DCD14F05ECD15F012006C
:1044E000E552E552E552E552120046EC74F0E55211
:1044F000E5521200EF6EF0EF1CF0E66EA2EF1DF039
:10450000E66EF4EF1CF0FCEC1CF0B7EF23F0D6ECF9
:104510001CF046EF1DF042EC1DF078EF20F0EF505C
:10452000E66E0E0175EF20F0DBCFE6FF220EDB50CA
:10453000E552E75CE66E230ED3EC1CF0110E09DEAB
:10454000C4EF1EF00E01F0EF1CF030DC7D0FE96EC1
:104550000D0EEA227DEF20F0F2DCD6EC1CF0F3DC4D
:10456000D6EF1CF0D6EC1CF05ECDEFFFD6EC1CF0C5
:104570005DCDEFFF1200FBD8F4EF1CF0C6DD030E9B
:1045800013DE0DEF20F050EC1DF078EF20F0A8DDE9
:10459000D6EC1CF0EF6ACEDD030EACDFEF6A120042
:1045A000C0DD34DEEF501200D7DDDBEC1DF0DF6A3A
:1045B000120090DDABEF23F0A6EC1EF07ADDD6EF13
:1045C0001CF08AEC1EF0F4EF1CF09BDDF80EEF14EB
:1045D000120037EC1DF0020E12004F0ED0EF1CF04F
:1045E00086EC1DF0BED897EF1DF0BED8EA6ADF3426
:1045F00089EF20F0855B2EDCEF50E66E6BDD050E5B
:104600001200FE0BEA36E96E7F0EE9260B0EEA2257
:104610001200FE0BEA36E96EE20EE9260B0EEA22E4
:1046200012007FDD0B0EFCEF1CF07BDDAEEF23F004
:10463000D3EC1CF00F0EFCEF1CF0D3EC1CF0110EB1
:10464000FCEF1CF0D3EC1CF00E0EFCEF1CF0D3ECD6
:104650001CF00A0EFCEF1CF041EC76F0176E070E12
:10466000E15C12003ADD25EF1DF03ADD91EF20F01C
:104670005BDDEE50ED1012000E0E43DDEF50120028
:10468000FCEC1CF09BEF1FF00C01C65144EF20F036
:10469000E96E000EDA20EA6E1200146E060EE15C7E
:1046A0001200EDEC1DF025EC1FF04F0EE9EF20F0AD
:1046B0000C0EFCEF1CF0070EFCEF1CF026DD18DDE5
:1046C000F5EF21F0D6EC1EF0B2DC7DEF20F096DDA8
:1046D00097EC1EF062EF1EF0CFDCD6EC1CF040EF42
:1046E00020F0F4CFDBFFE7DDF350F4101200CEEC46
:1046F0001EF035DE06EF21F014DD87EF21F0D0DC6F
:10470000E1EF20F0EA6ADF3472EF1DF01F0EDBCF1D
:10471000E6FF200E1200D6EC1CF0090EEF6E120020
:1047200046EC1DF0F4EF1CF0080EE66EE66A12008F
:1047300013DDE6521200010EEA6ADB34120049DF93
:10474000FCEF1CF0EFDD94DCE2DE60EF20F0E66EC3
:104750000E0187EF22F0020EFCEF1CF0030EFCEFBF
:104760001CF0DFDC66EF21F0D0DC25EF1DF0EF5010
:10477000E66E75EF20F0050EFCEF1CF0040E0E0146
:10478000B11501E1000C010C0E01B16BB26BAA6B0B
:10479000AB6BAC6BAD6BAE6BAF6B120070EC34F00F
:1047A0003F0EE12402E3E168E652E16EDF6AFD0EAE
:1047B000DB5002E061EF28F06EEC76F0020E06C0EE
:1047C000DBFF030E07C0DBFF040E08C0DBFF050E96
:1047D00009C0DBFF0E01A9B141D20E01B1A1E9D29E
:1047E000AC51AD1101E152D127EC38F0200B0EE1B4
:1047F00089EC37F0C3EC34F009E343EC34F0F80E05
:10480000EF140109EF6E43EC34F0EF8A27EC38F037
:10481000200B2FE027EC38F0070B01082AE189EC88
:1048200037F0200EEB50000905E1850EE66EDAEC5C
:1048300036F007D081EC37F006E0850EE66E72ECBC
:1048400037F043EC36F05CEC35F05FEC35F002E02D
:1048500009EC39F063EC35F05FEC35F002E010EC78
:1048600039F086EC38F0B19143EC34F0EF9A5EEF1A
:1048700028F0F5EC38F0010B01E108D1F5EC38F047
:10488000040B01E003D1F8EC38F0080B01E0FED096
:10489000F5EC38F0200B01E0F9D0F8EC38F0100B13
:1048A00001E0F4D0ABEC37F0EF86AEEC37F0EF84FC
:1048B0001AEC36F0EB50146E190EEB50145C01E359
:1048C000D1D063EC35F099EC34F01AEC36F089EC89
:1048D00035F0060EEECFDBFF070EEDCFDBFF8EECE3
:1048E00037F02EEC37F001E3B4D0F7EC35F099EC6B
:1048F00034F08EEC37F01A0E89EC35F0080EEECF5E
:10490000DBFF090EEDCFDBFFF5EC38F0800B01E0AB
:10491000BDD0060EDBCF14F0070EDBCF15F0080E6E
:10492000DB50141801E08FD0090EDB50151801E0A0
:104930008AD0B4EC38F014E1080EDBCF14F0090E85
:10494000DBCF15F00E01E75114180AE1E8511518F4
:1049500007E18EEC37F01A0E92EC35F01D0E2BD0DD
:1049600027EC38F0100B2AE0060EDBCF08F0070E1C
:10497000DBCF09F00A0E08C0DBFF0B0E09C0DBFF1E
:10498000B4EC38F006E0CCEC38F01DEC36F008E280
:1049900005D0CCEC38F0ADEC35F002E2E16AE5523E
:1049A000E16E1450ABEC37F0EF8C89EC37F01D0E54
:1049B00095EC35F01A0E17EC39F045D0E9EC35F0EE
:1049C0002FEC38F005E289EC37F0FFEC38F0F8D73F
:1049D000A7EC34F02FEC39F0060EDBCFEFFF070E1B
:1049E000B1EC37F02FEC38F003E25DEC39F0FAD798
:1049F000ACEC34F040EC34F0EBEC36F089EC37F012
:104A0000160EB0CEEBFF89EC37F01D0E92EC35F0B0
:104A1000060E66EC35F0B4EC38F006E0210E92ECB0
:104A200038F0145C0AE306D0220E92EC38F0FF0F47
:104A3000145C03E343EC34F0EF868EEC37F01A0E8F
:104A400092EC35F008D18EEC37F01A0E17EC39F0F5
:104A500046D78EEC37F023EC36F01AEC36F017EC34
:104A600039F026D7ABEC37F0EF8AAEEC37F0EF88B1
:104A7000ABEC37F0EF96AEEC37F0EF941AEC36F083
:104A800093EC37F0EF6AABEC37F0EF9081EC37F056
:104A900001E107D1F8EC38F0010B01E102D1F5ECAE
:104AA00038F0080B01E0FDD0F8EC38F0040B01E021
:104AB000F8D0F5EC38F0100B01E0F3D0F8EC38F05A
:104AC000200B01E0EED0ABEC37F0EF84AEEC37F02A
:104AD000EF8627EC36F0EB50146E190EEB50145C99
:104AE00001E3CED0B3EC35F099EC34F027EC36F09E
:104AF00089EC35F00E0EEECFDBFF0F0EEDCFDBFFB6
:104B000089EC37F02EEC37F001E3B1D05CEC35F0F6
:104B100099EC34F089EC37F01A0E89EC35F00C0E74
:104B2000EECFDBFF0D0EEDCFDBFFF8EC38F0800BA6
:104B300001E094D035EC37F00E0EDB50141801E094
:104B400090D00F0EDB50151801E08BD0B8EC38F088
:104B500010E135EC37F00E01E55114180AE1E65189
:104B6000151807E189EC37F01A0E95EC35F01D0E9B
:104B70002BD082EC38F0100B2AE00E0EDBCF08F0C1
:104B80000F0EDBCF09F0100E08C0DBFF110E09C0BD
:104B9000DBFFB8EC38F006E0D5EC38F01DEC36F071
:104BA00008E205D0D5EC38F0ADEC35F002E2E16A70
:104BB000E552E16E1450AEEC37F0EF8C8EEC37F02E
:104BC0001D0E92EC35F01A0E17EC39F04AD0E9ECD4
:104BD00035F02FEC38F005E28EEC37F0FFEC38F0D2
:104BE000F8D7ACEC34F02FEC39F00E0EDBCFEFFF42
:104BF0000F0EB1EC37F02FEC38F003E204EC39F093
:104C0000FAD7A7EC34F040EC34F0EBEC36F08EEC55
:104C100037F0160EB0CEEBFF8EEC37F01D0E95EC94
:104C200035F0060E66EC35F0B8EC38F006E0210EF3
:104C300095EC38F0145C0AE306D0220E95EC38F0BF
:104C4000FF0F145C03E346EC34F0EF8689EC37F099
:104C50001A0E95EC35F032EC39F088D1000E88EF61
:104C60002DF089EC37F01A0E17EC39F049D789ECA2
:104C700037F023EC36F027EC36F017EC39F029D773
:104C8000ABEC37F0EF88AEEC37F0EF8AABEC37F0F7
:104C9000EF94AEEC37F0EF9627EC36F093EC37F06C
:104CA000EF6AF5EC38F0100B01E183D0F5EC38F049
:104CB000200B01E17ED0F8EC38F0100B01E179D047
:104CC000F8EC38F0200B75E0F8EC38F0400B71E0B0
:104CD000F5EC38F0400B6DE027EC38F0200B11E0DC
:104CE000F5EC38F0400B0DE04AEC36F0E66EDAEC0D
:104CF00036F043EC36F043EC34F0EF9A89EC37F0C1
:104D000014D082EC38F0200B15E0F8EC38F0400BB2
:104D100011E04EEC36F0E66E72EC37F043EC36F014
:104D200046EC34F0EF9A8EEC37F0200ECDEC35F0F7
:104D3000EF6EC4D1AEEC37F0EF9CABEC37F0EF9CEC
:104D40005CEC35F05FEC35F002E009EC39F063EC37
:104D500035F05FEC35F002E010EC39F086EC38F01D
:104D6000F7EC35F05FEC35F009E0F7EC35F0FCECF2
:104D700037F0F7EC35F0EB6A130EEB6AB3EC35F075
:104D80005FEC35F009E0B3EC35F0FCEC37F0B3EC58
:104D900035F0EB6A150EEB6A72EC37F0BBEC34F0D1
:104DA0000E01AE6BAF6BAA51AB1102E08CEC38F088
:104DB000B1910E01B1A5DDD0AC51AD115DE027EC94
:104DC00038F0400B59E027EC38F0100B21E0140EBE
:104DD000E7CEDBFF150EE8CEDBFF8AEC39F0140ED0
:104DE000DBCFE6FF150EDBCFE6FF8FEC39F0ADEC45
:104DF00035F002E2E16AE5526EEC36F003E0ABEC2E
:104E000037F0EF82ABEC37F0EF8089EC37F06CD005
:104E1000E9EC35F02FEC38F003E204EC39F0FAD786
:104E2000A7EC34F0A5EC37F0120EE7CEDBFF130E43
:104E3000E8CEDBFF40EC34F0120EDBCFEFFF40ECAE
:104E400034F0130EDBCFEFFF40EC34F0DFEC36F044
:104E50002FEC38F003E25DEC39F0FAD7ACEC34F02B
:104E6000A5EC37F089EC37F014EC38F043EC34F073
:104E7000EF9C89EC37F076D0AE51AF1101E178D0DC
:104E800082EC38F0400B74E082EC38F0100B31E02B
:104E9000160EE5CEDBFF170EE6CEDBFF89EC37F012
:104EA000EB50E66E8EEC37F011EC38F0160EDBCFDF
:104EB000E6FF170EDBCFE6FF8EEC37F0EB50E66E29
:104EC00089EC37F011EC38F0ADEC35F002E2E16A34
:104ED000E5526EEC36F003E0AEEC37F0EF82AEEC6C
:104EE00037F0EF808EEC37F094EC39F0EF9C88EFE0
:104EF0002DF0E9EC35F02FEC38F005E28EEC37F0D0
:104F0000FFEC38F0F8D7ACEC34F0A5EC37F0B3ECAC
:104F100035F093EC37F0180EEECFDBFF190EEDCF26
:104F2000DBFF1A0EE5CEDBFF1B0EE6CEDBFF40EC0F
:104F300034F01A0EDBCFEFFF1B0EB1EC37F02FEC85
:104F400038F003E204EC39F0FAD7A7EC34F0A5EC22
:104F500037F08EEC37F014EC38F046EC34F0EF9C80
:104F60008EEC37F0210EE926000EEA22EF8E26D0D5
:104F7000B195B1A387EF2DF06BEC34F0100E93ECEC
:104F800037F0C3EC34F002E3850E61D03DEC39F02C
:104F9000010B09E1010EE66ED8EC33F0E552A8EC06
:104FA00037F0EF800BD03DEC39F0020B0AE1E66AF6
:104FB000D8EC33F0E552A8EC37F0EF824F0E88EFD3
:104FC0002DF06BEC34F0140E93EC37F0FF0EEE186E
:104FD00002E1FF0EED1802E187EF2DF06BEC34F0EB
:104FE000160E93EC37F0FF0EEE1802E1FF0EED18EF
:104FF00002E187EF2DF03DEC39F0080B06E00E01E1
:105000008051811102E087EF2DF01C0EDB6A3DEC30
:1050100039F0040B0CE0C1EC37F01DEC36F002E285
:10502000E16AE5526EEC36F016E0870E10D0C1EC66
:1050300037F0ADEC35F002E2E16AE552E16E145072
:10504000E76E1D0EE7CFDBFFDB5005E0880EF36E49
:105050001C0EF3CFDBFF3DEC39F0080B13E03DEC09
:1050600039F0040B01E0010EE66E1C0EDBCFE6FF0B
:1050700015EC34F0E552E552000902E0510E1AD069
:10508000DF6A19D076EC38F01C0EDBCFEFFF6BEC4B
:1050900034F01E0EEB500E01B06F180E66EC35F0BA
:1050A0003DEC39F0040B02E0210E01D0220E7AEC27
:1050B00038F04F0EDF6E8CEC38F0B193DF5088EF94
:1050C0002DF0FD0EDB505C0A02E178EF2DF0070AAF
:1050D00002E169EF2DF0060A02E198EF2CF0070AD1
:1050E00002E087EF2DF00E019D51800B01E1FED013
:1050F0009C5102E1800E9D1913E00E01B151010B8C
:1051000001E0C9D0210E0E019C1901E0C4D0800E2F
:105110009D1901E0C0D00B01FF5101E1BCD0C9D005
:105120001E0EDB6A0A0E93EC34F0270EEFCFDBFF86
:105130000B0E93EC34F0280EEFCFDBFF020E93EC56
:1051400034F01F0EEFCFDBFF030E93EC34F0200E94
:10515000EFCFDBFF040E93EC34F0210EEFCFDBFF3B
:10516000050E93EC34F0220EEFCFDBFF060E93EC2E
:1051700034F0230EEFCFDBFF070E93EC34F0240E58
:10518000EFCFDBFF080E93EC34F0250EEFCFDBFF03
:10519000090E93EC34F0260EEFCFDBFFD9501F0F32
:1051A00072EC36F027E1010EDB6A050E79EC34F083
:1051B00025E203EC35F002E2E16AE552E16E1750B8
:1051C00026EC37F0D9501F0F0AEC36F002E2E16A04
:1051D000E5526EEC36F00BE10A0EE66ED9501F0F69
:1051E00031EC35F002E2E16AE552E16E1650010E53
:1051F000DB2ADBD7D9501F0F90EC36F00E01B151EE
:10520000020B45E0010E0E0193EC34F0EF503FE14C
:1052100026EC37F06BEC34F07CEC37F077EC37F0C1
:10522000020ED0EC35F002E2E16AE552E16E185070
:1052300000090DE10A0E0E0105EC38F0140E62ECC7
:1052400034F00B0E05EC38F0140E4EEC38F026EC72
:1052500037F06BEC34F093EC37F05AEC38F0020E88
:105260000E01D0EC35F002E2E16AE552E16E185031
:1052700000090DE10A0E0E0105EC38F0160E62EC85
:1052800034F00B0E05EC38F0160E4EEC38F01E0E16
:10529000DB5029E04AD30E01B151010B0CE1220E83
:1052A0000E019C1908E1800E9D1905E10B01FF51CB
:1052B00002E0FF6B18D0220E0E019C1902E1800E55
:1052C0009D1914E0210E9C1902E1800E9D190EE03B
:1052D000220E9C1901E19D5109E0210E9C1903E168
:1052E000800E9D1903E0510E88EF2DF0E3EC43F0A2
:1052F0000E01B06F300E0E019C1901E19D5101E1CC
:1053000009D3310E9C1901E19D5101E103D3320E05
:105310009C1901E19D5101E1FDD2330E9C1901E17F
:105320009D5101E1F7D2350E9C1901E19D5101E13A
:10533000F1D2340E9C1901E19D5101E1EBD2220E14
:105340009C1901E19D5101E1B3D2220E9C1902E1A9
:10535000800E9D1901E140D2210E9C1902E1800EC0
:105360009D1901E118D2210E9C1901E19D5101E125
:10537000E1D1200E9C1901E19D5101E1D4D1130E20
:105380009C1901E19D5101E17CD1100E9C1901E1B4
:105390009D5101E164D1110E9C1901E19D5101E182
:1053A0005ED1140E9C1901E19D5101E158D1060E08
:1053B0009C1901E19D5101E148D1050E9C1901E1C3
:1053C0009D5101E13BD1040E9C1901E19D5101E188
:1053D00080D0030E9C1901E19D5163E0020E9C19DF
:1053E00001E19D5146E0010E9C1901E19D5138E01B
:1053F0009C5101E09AD29D5101E097D2010EDB6AE7
:105400002FEC38F024E2010EE66EE66ADB50156AF6
:10541000480F146EE10EFFEC37F0D950290F40EC25
:1054200038F0DEEC37F002E2E16AE552E16E175047
:1054300056EC38F02A0EE7CFDBFFDB50F36E290E77
:10544000DB50F35C01E071D2010EDB2AD9D7E66AAA
:10545000800EE66E67DBE552E5520E018C850ED1BB
:10546000E7EC36F001E161D2010E22EC37F05ADBB5
:10547000E2D0E7EC36F001E158D222EC39F00A0E26
:10548000E66EE66A720E146EED0E7CEC34F002E20B
:10549000E16AE552E16E19500A0E0E01A627020ECE
:1054A000C6D0E7EC36F001E140D222EC39F0020E32
:1054B000E66EE66A7C0E146EED0E7CEC34F002E2D1
:1054C000E16AE552E16E1950020E0E01A627030EA5
:1054D000AED0E7EC36F001E128D256EC38F02B0ED6
:1054E000E7CFDBFF0E01010EA66F2B0EDB5000088D
:1054F00001E393D02B0EDB50146E156A153404E2D1
:105500001450F008000E155401E287D0010EDB6A3A
:10551000300EE66EE66A010EFBEC34F0B50EE66E78
:105520000E0EE66EDEEC37F002E2E16AE552E16E65
:105530001750010EDB2A2B0EDB500E01B55D04E087
:10554000010EDB500308E4E2010EDB50030804E126
:1055500040EC39F0830E64D040EC39F0EF6A97EC00
:1055600037F00E01D051E824146EBB51E824080F27
:105570001424E66E0E012FEC39F0B5CEEFFF40ECAF
:1055800034F0B6CEEFFF40EC34F0B7CEEFFF40EC96
:1055900034F0B8CEEFFF40EC34F0B9CEEFFF0E019F
:1055A000BA51F00BE842E842E842E842100DBA5125
:1055B0000F0BF310E66E0E012FEC39F0BBCEEFFFB0
:1055C0000E01BB5196EC36F0BC0EE66E0E0E9BEC57
:1055D00035F002E2E16AE552E16E18500E01BB516E
:1055E000020DF3500E01A62740EC34F0D0CEEFFFB1
:1055F0000E01D05196EC36F0D10EE66E0E0E9BECFD
:1056000035F002E2E16AE552E16E18500E01D05128
:10561000020DF3500E01A62709D040EC34F0820EA3
:10562000EF6E97EC37F040EC34F0EF6A040E22ECAA
:1056300037F098EC30F0E552E55220D0E7EC36F048
:1056400001E173D1BAEC30F019D0E7EC36F001E1AA
:105650006CD1FBEC30F0000901E167D10FD0E7EC31
:1056600036F001E162D165EC34F0840EEF6E97EC18
:1056700037F09FEC36F0E66E2CEC35F04F0EDF6E17
:1056800054D156EC38F0340EE4EC34F0350EE4EC42
:1056900034F02C0EE4EC34F02D0EE4EC34F02E0E4D
:1056A000E4EC34F02F0EE4EC34F0300EE4EC34F0A3
:1056B000310EE4EC34F0320EE4EC34F0330EE7CF8C
:1056C000DBFFD9502C0F72EC36F028E1010EDB6ABB
:1056D000050E79EC34F001E328D103EC35F002E259
:1056E000E16AE552E16E175026EC37F0D9502C0FE5
:1056F0000AEC36F002E2E16AE5526EEC36F00BE1BC
:105700000A0EE66ED9502C0F31EC35F002E2E16A58
:10571000E552E16E1650010EDB2ADAD7D9502C0F74
:1057200090EC36F002D1000EE66EE66AB3DBE5528D
:10573000E552FAD0030E885D0BE1C7EC35F001E1CC
:10574000E7D0360EE2CCDBFF370EE3CCDBFF06D032
:10575000360E8ACEDBFF370E8BCEDBFFE9EC37F05F
:10576000010EE66E4FEC32F0166E060EE15C02E2C0
:10577000E16AE552E16E1650000901E1C9D076EC0C
:1057800038F086CEEFFF360EDBCF8AFE370EDBCF4A
:105790008BFE210EBAD085EC37F00CE027EC39F007
:1057A00009E12AEC37F006E1E1EC38F003E0ABEC7C
:1057B00037F0EF8C81EC37F001E1B7D062EC39F0D3
:1057C00001E0B3D00E012AEC37F001E0AED0EBECF3
:1057D00038F001E1AAD066D085EC37F01AE027EC6A
:1057E00039F017E12AEC37F014E127EC38F0800BA0
:1057F00010E0ABEC37F0EF8043EC34F0EF9EE3ECDD
:1058000043F0000903E089EC37F01FD089EC37F052
:1058100022D081EC37F022E08EEC37F0E4EC37F068
:1058200014181CE12AEC37F019E182EC38F0800BF7
:1058300015E0AEEC37F0EF8046EC34F0EF9EE3EC91
:1058400043F0000906E08EEC37F032EC39F0EF82DD
:1058500005D08EEC37F032EC39F0EF9285EC37F072
:1058600010E027EC39F00DE12AEC37F00AE1F5EC15
:1058700038F0010B06E0E1EC38F057E089EC37F046
:1058800013D081EC37F051E062EC39F04EE10E01BB
:105890002AEC37F04AE1F8EC38F0010B46E0EBEC8B
:1058A00038F043E08EEC37F032EC39F0EF8C3DD03D
:1058B000030E885D0AE1C7EC35F02AE0380EE2CC31
:1058C000DBFF390EE3CCDBFF06D0380E8ACEDBFFE0
:1058D000390E8BCEDBFFE9EC37F0E66A4FEC32F0A5
:1058E000166E060EE15C02E2E16AE552E16E1650C8
:1058F00000090EE076EC38F086CEEFFF380EDBCFF5
:105900008AFE390EDBCF8BFE220EE66E800E08D0AB
:10591000DF6A0BD065EC34F0840EEF6E9FEC36F04E
:10592000E66E2CEC35F04F0EDF6E40EC4CF0EFD015
:105930003C0EDB6A3D0EDB6ADF6A230E0CEC38F0AE
:105940003A0EF3CFDBFF3B0EB5EC34F001E1B5D0FE
:10595000010EF36E3E0EF3CFDBFF67EC39F0040E61
:1059600074EC39F0040ECDEC35F062EC34F0010E3D
:10597000DB6A2FEC38F00AE29EEC37F0A2EC34F050
:105980000F016AEC38F028EC35F0F3D79EEC37F0D5
:10599000170E74EC39F0100E74EC39F0A8EC36F0F8
:1059A0009EEC37F0180E62EC34F056EC34F0180E22
:1059B000DEEC38F00BE056EC34F0180E63EC38F007
:1059C00032E056EC34F0120E79EC36F0010EDB6A60
:1059D00056EC34F0180E97EC39F003E2D1EC37F0C6
:1059E000F7D79EEC37F0190E62EC34F056EC34F039
:1059F000190EDEEC38F025E056EC34F0190E63ECAD
:105A000038F01AE156EC34F0120E5FEC35F00BE092
:105A100056EC34F0120EFCEC37F056EC34F0120E6B
:105A2000EB6A130EEB6A43EC37F0BBEC34F03A0E42
:105A3000DB6A3B0EDB6A41D056EC34F0140E79EC95
:105A400036F0010EDB6A56EC34F0190E97EC39F0A3
:105A500003E2D1EC37F0F7D756EC34F094EC39F0A0
:105A6000EF8856EC34F04AEC37F056EC34F01C0E6C
:105A700035EC39F01D0E35EC39F01E0E35EC39F0F1
:105A80001B0E35EC39F023EC36F056EC34F0C0EC5C
:105A900034F0C9EC38F0200E93EC37F0EF6A43ECA9
:105AA00037F0F8D9E552E552DF6E0E017F0EA76F91
:105AB0000E01A9910E01A66B2AD00E01040E826F71
:105AC0000E01A9910E017F0EA76F0E01A66B500E5D
:105AD0001BD02AEC36F0030E4EEC37F002E2E16AFE
