:020000040000fa
:080000000002040000000000f2
:020000040000fa
:100400002f5221000e7f22000e0188000000000004
:100410000c00070080782800010020000f00070072
:10042000000020000000e000020032000000020096
:1004300000000000d07f0200000000000040da0051
:100440000000fe00000d20000000e000020032006d
:10045000002020009001880000000600a102880012
:10046000800078000000eb001a003700e2804000b6
:1004700054a0b4009101ba00e280400054a0b4003e
:100480009102ba00e280400054a0b4000002eb00e8
:10049000472bde00f507b200a6018800602ce100c2
:1004a00008003a000049eb000201e80002003900b0
:1004b0003420ec0002f0a0008301e900f9ff3e00c7
:1004c000040037006128e100010032000082eb00e7
:1004d000040007001101ba000200e000e3ff3a0047
:1004e0000000060004d0a300e20f49001c00390000
:1004f000810278003549ba000201e80002003900a3
:100500003420ec0002f0a0008301e9000f0032006b
:100510002549ba000201e800020039003420ec004d
:1005200002f0a0008301e900080032000400e000ae
:100530000600320015c9ba000201e80002003900c5
:100540003420ec0002f0a0008301e9008180e80083
:1005500054a0b4000300e000e2ff3a0000000600ef
:100560009102ba00055978008301e900f7ff3200d3
:10057000c82ade00055978008301e900f3ff320044
:100580000400e000f1ff320011d9ba00eeff37009d
:100590000040da000000fe00889fbe008004780062
:1005a000006980000000e00003003a00100007002e
:1005b0000000e0000a003500006980000900e0004a
:1005c00002003a00000478000600370000047800ba
:1005d00009004000060007000000e00001003d00a7
:1005e0000084eb00080078004f04be000000060005
:1005f000800078000000e00004003a0020d22000d3
:100600000069880001017800060037000081eb00d6
:1006100020522100808f500002003e0001698800b6
:100620000001eb000200780000000600889fbe0079
:100630008a9fbe00010578000100e000040035003b
:1006400008003c000000e0002000320005003700f8
:1006500060001000e080180002003b0001f02c0058
:100660001a0037000004be006011b8006b092000ba
:100670000982cf00020039000882cf000441b00097
:10068000694252000e00320008003b008281710076
:10069000610164008904d1000884d3008b05e8005f
:1006a0000442e800f9ff3a0005003700080444005e
:1006b00089844c008b05e9000442e900fbff3a0005
:1006c000650007000af0a70001f0a0004f05be007a
:1006d0004f04be0000000600f4ff2f008400370026
:1006e00003f0a200889fbe008a9fbe008c1f780086
:1006f0009a000700a10033006450e1004f0032006f
:100700006420e1005200320003826c0007003b00cd
:100710000905d0000306d000820f54000c065d00ce
:1007200002003900020032008901780003067800d7
:100730008582550004003d000003fd008103fd009b
:100740008502ea008b854200840f720002003b00a4
:1007500060001000e08018006011b8000005eb0098
:100760007a28e1000a00390006007800c75ddd0044
:10077000f707b200878075002d0037008281710075
:100780000a017800610560008180d1000080d300fb
:100790008502e900f9ff3b00060440008784480019
:1007a00002003b0060041400e0841c000988a300e0
:1007b000070032008a81710082817100610164004a
:1007c0008904d1000884d3008b05e80017003700a6
:1007d0000978a30013003a000b00e0001300340076
:1007e0008b05e9000804440089844c000a44740025
:1007f0000978a3000d003a000b00e0000700340068
:100800008b05e9000804440089844c0001003a008b
:100810000b0020000978a300f7ff32000001eb0075
:1008200002003700828171000a0178000a00070087
:100830000cf0a70001f0a000590037006420e1008f
:1008400002003a00838f6c00590033000801be009b
:100850000200be0052003700810020006180550078
:100860000b003d000b00200061fe2f000100e100a5
:100870001d00340082817100610164008904d1008f
:100880000884d3000000e800faff3a00710020005d
:100890006100640003007000020060000900320083
:1008a00061044400e0844c000988a5000500320082
:1008b0008b05e8006808e10002003a008904d100d5
:1008c0000884d300f20f20000258e10005003d002b
:1008d000c75ddd00f907b200898075000800780067
:1008e000000006000bf827008b00780000000500d0
:1008f000889fbe008a9fbe00841f780017000700f3
:100900004f00780011003300f0ff2f00838f6c0040
:1009100006003b00040565000a00a7000800370038
:1009200009f0a6001000200008003700820f5400d4
:10093000838f5c00030039001000200001003e009e
:100940000000200009f0a7000000ea004f05be00eb
:100950004f04be000000e000000006000004be00de
:10096000160007000003be000405be000200be0022
:1009700012000700844f7500000006000200be0050
:100980006450e100050036006420e10002003600fa
:100990000968a30001003a000800be000160a00041
:1009a0004f0678004f05be004f04be000000060051
:1009b000f0ff2f00f1ff2700f9ff3700c70ade0024
:1009c000f107b200f50fb20008003200e1cf42009b
:1009d000020032000170a00024000500810f7000a9
:1009e000010032000408050044000500810f70007a
:1009f00002003a00140005008502e90000004000f2
:100a000081c04800fcff3b000170a00024000500ed
:100a1000889fbe008a9fbe008c9fbe0000017800a8
:100a200081d120001100e0000b003a00c0d120006d
:100a3000c0688800a0688800e1688800b168880004
:100a4000214090000004a000a04098006140900068
:100a50000004a000e0409800e7004100c208de006a
:100a6000c20cdd00b46880002dd22000205221008d
:100a70000d05500022002000811f780011000900a0
:100a80000205d80000067800cf007800c308dd001a
:100a9000e48540008001eb0026d2200085d12000b3
:100aa0000100370001027800244090000008a300f4
:100ab000020032000a003700110a78009400780022
:100ac000214090000008a300fbff32000901420012
:100ad000828f500002003900840f5100460031001f
:100ae00094007800848f5000eeff3e00868f500007
:100af00002003900858f5000eaff3900a0688000ad
:100b0000800f52004f003a00858f50004d003a0090
:100b10008301e800e18f5100e2ff36008c8f540022
:100b2000040036008a8f5400020031000b04780064
:100b300012003700614ab8006151b900b0ff2f00c0
:100b4000010020000200500083805800800f5200f6
:100b5000818f5a0002003500090478000700370031
:100b60000d80540052522100020040001100090083
:100b70000a80d8000a80b9000004780008007800d4
:100b800085fe070080017800e10f40002d00320053
:100b9000a068800003087800a2688000640041001b
:100ba000a2409000808f5100020032000104a0009a
:100bb000010037000104a100214198000880410094
:100bc0006400500080097800a068880082d120006d
:100bd00002087800a1688000214090000004a00075
:100be000a0409800234090000004a100a04198007c
:100bf00002027800a7ff3700b2688800828f500099
:100c0000090036009200780020d12000a241900017
:100c10000348780081688800140978008040eb0060
:100c2000b068800021409800b0688000000a780019
:100c3000244090000004a00020429800640042007c
:100c4000010037000000eb004f06be004f05be005c
:100c50004f04be000000060064005000b068880029
:100c6000a04090000104a10021409800000006006f
:100c7000889fbe008a9fbe0000057800e4015000f6
:100c800013001000c285de00234090000008a3007e
:100c900004003200b3688800234090000004a100e3
:100ca000a04198000100780059ff07000004780077
:100cb0000000e000170032008a0f500015003200db
:100cc00060b8970008005000c284de00898f55008c
:100cd00001003600890578004259dd008a0078005d
:100ce00008007800290007008a0f5400090031002d
:100cf0004248dd00000044008a0f50000500360025
:100d00000a00500000004400826880009368800060
:100d10000288be00080078004f05be004f04be00e8
:100d2000000006000400fa00e0bf9f00e4815700c5
:100d3000812978000002eb000f0037006fb89700a0
:100d4000904078007fb89700104078000402e800d7
:100d500080cf5000040032008180fb000080fb0047
:100d600000805000070037006fb897000000e800cf
:100d7000e0bf9f009309e800820f5200efff3a00a6
:100d80000000eb000080fa00000006008001eb008c
:100d90000200370061f079008301e800828f510082
:080da000fcff3a000000060010
:020000040000fa
:020000040002f8
:04aff400ffff00005b
:020000040000fa
:020000040002f8
:04aff8002ef800002f
:020000040000fa
:020000040002f8
:04affc00d93f000039
:020000040000fa
:10000800c8020000c8020000c8020000c8020000c0
:10001800c8020000c8020000c8020000c8020000b0
:10002800c8020000c8020000c8020000c8020000a0
:10003800c8020000c8020000c8020000c802000090
:10004800c8800000c8020000c8020000c802000002
:10005800c8020000c8020000c8020000c802000070
:10006800c8020000c8020000c8020000c802000060
:10007800907a0000c8020000c8020000c802000010
:10008800c8020000c8020000c8020000c802000040
:10009800c8020000c8020000f0800000c80200008a
:1000a800c8020000c8020000c8020000c802000020
:1000b800c8020000c8020000c8020000c802000010
:1000c800c8020000c8020000c8020000c802000000
:1000d800c8020000c8020000c8020000c8020000f0
:1000e800c8020000c8020000c8020000c8020000e0
:1000f800c8020000c8020000c8020000c8020000d0
:10010800c8020000c8020000c8020000c8020000bf
:10011800c8020000c8020000c8020000c8020000af
:10012800c8020000c8020000c8020000c80200009f
:10013800c8020000c8020000c8020000c80200008f
:10014800c8020000c8020000c8020000c80200007f
:10015800c8020000c8020000c8020000c80200006f
:10016800c8020000c8020000c8020000c80200005f
:10017800c8020000c8020000c8020000c80200004f
:10018800c8020000c8020000c8020000c80200003f
:10019800c8020000c8020000c8020000c80200002f
:1001a800c8020000c8020000c8020000c80200001f
:1001b800c8020000c8020000c8020000c80200000f
:1001c800c8020000c8020000c8020000c8020000ff
:1001d800c8020000c8020000c8020000c8020000ef
:1001e800c8020000c8020000c8020000c8020000df
:0801f800c8020000c80200006b
:020000040000fa
:10020800c8020000c8020000c8020000c8020000be
:10021800c8020000c8020000c8020000c8020000ae
:10022800c8020000c8020000c8020000c80200009e
:10023800c8020000c8020000c8020000c80200008e
:10024800c8800000c8020000c8020000c802000000
:10025800c8020000c8020000c8020000c80200006e
:10026800c8020000c8020000c8020000c80200005e
:10027800907a0000c8020000c8020000c80200000e
:10028800c8020000c8020000c8020000c80200003e
:10029800c8020000c8020000f0800000c802000088
:1002a800c8020000c8020000c8020000c80200001e
:1002b800c8020000c8020000c8020000c80200000e
:1002c800c8020000c8020000c8020000c8020000fe
:1002d800c8020000c8020000c8020000c8020000ee
:1002e800c8020000c8020000c8020000c8020000de
:1002f800c8020000c8020000c8020000c8020000ce
:10030800c8020000c8020000c8020000c8020000bd
:10031800c8020000c8020000c8020000c8020000ad
:10032800c8020000c8020000c8020000c80200009d
:10033800c8020000c8020000c8020000c80200008d
:10034800c8020000c8020000c8020000c80200007d
:10035800c8020000c8020000c8020000c80200006d
:10036800c8020000c8020000c8020000c80200005d
:10037800c8020000c8020000c8020000c80200004d
:10038800c8020000c8020000c8020000c80200003d
:10039800c8020000c8020000c8020000c80200002d
:1003a800c8020000c8020000c8020000c80200001d
:1003b800c8020000c8020000c8020000c80200000d
:1003c800c8020000c8020000c8020000c8020000fd
:1003d800c8020000c8020000c8020000c8020000ed
:1003e800c8020000c8020000c8020000c8020000dd
:0803f800c8020000c802000069
:020000040000fa
:100da800020100000f0f0000000500000080000095
:100db8001006000000000000000000000000000015
:100dc800000a00000000000001000000020000000e
:100dd80003000000040000000500000006000000f9
:100de8002000000021000000220000000a0000008e
:100df80000800000018000000280000003800000e5
:100e080004800000058000000680000020800000ab
:100e18002180000022800000f00000000301000093
:100e2800ffff0000000500000700000009000000a7
:100e38001200000013000000140000000000000071
:100e4800000000000000000000000000000000009a
:100e58000500000005000000060000000800000072
:100e68000a0000000f00000015000000000000004c
:100e780000000000000000000000000010c1000099
:100e8800004000008e000000000000007f0000000d
:100e980000000000140000007800000000000000be
:100ea800b4000000000000002c0100000000000059
:100eb8001c02000000000000fc030000000000000d
:100ec800bc070000000000003c0f0000000000000c
:100ed8003c1e0000000000003c3c00000000000038
:100ee8003c780000000000003cf00000000000001a
:100ef8003ce00000010000003cc0000003000000ce
:100f08003c800000070000003c0000000f000000cb
:100f1800303100003233000034350000363700002d
:100f280038390000414200004344000045460000b3
:100f3800000000000000000000a300000400000002
:020000040000fa
:100f48008000eb0060578000f007b200010032001b
:100f5800110020000100780000000600881f7800ba
:100f6800882cef008a2cef006063800040638800c3
:100f78000044eb004063800022c1b300c1c72000d9
:100f8800eb3c07000844e80020012000682cb4006e
:100f9800f84f5400f7ff3a00706cef00786cef00e0
:100fa800796cef007a0ca900c0532a00706388009e
:100fb80050638000e2c0b300e1c62000dc3c0700bb
:100fc8004f04780000000600889fbe008a9fbe007c
:100fd8008c1f7800000578000106780082057800eb
:100fe80000638000f06288008044eb0009447800c8
:100ff800f162800062c0b30020c620008e3c07006a
:10100800106380008a0f5000100032000844e80086
:10101800600020005e2cb400ef4f54000e003e002c
:101028000904e000f2ff320030638000000e78000f
:1010380064ccbf00804d78000980fb004f06780023
:101048004f05be004f04be000000060019c0b300e3
:10105800ef4f5400f2ff36000904e000f2ff3a00b7
:1010680030c0b300804d78000000eb004f067800d8
:101078004f05be004f04be0000000600f3ff370016
:10108800484bec0048ebb70002003a0010c0b30030
:1010980048ebb7000080fb000000060088c9bf00cd
:1010a8008000eb00050032000040e90088e9b70045
:1010b800504c8000b080fb00504c88000100780044
:1010c80000000600889fbe008a1f78000004eb001d
:1010d8000080fb0000004000640540007240b90039
:1010e8006c0cb4004063880022c1b3008000780013
:1010f800c0c72000503c070021648000804c80005d
:10110800808f5000060032000804e800f80f5400f1
:10111800f2ff3a004f0578004f04be0000000600b9
:10112800c0ae20006a0078008880fb00f68040008e
:1011380080804000114090000004a1009040980079
:101148004f0578004f04be0000000600f4ff37008a
:10115800889fbe008a9fbe00004378008305780000
:101168000044eb0005ad200087ad20009501780014
:101178000300e000190032000604e000030032001a
:1011880063489000814f5000110032008582e800ca
:10119800858f5300f5ff3a0009c1b3000404e0004d
:1011a8000100350089c0b3000804e00004003200e3
:1011b80000638000f06288000904e0000c003a0037
:1011c8000000eb004f05be004f04be000000060003
:1011d80043009000820f5000ecff3a0018c0b300a3
:1011e8008582e800858f5300e0ff3a00eaff370068
:1011f8000045eb000a447800f162800062c0b30049
:1012080020c620000c3c0700106380008b0f5000a4
:101218000d00320020638000e30f50000a00320006
:101228000844e800600020005e2cb40088cf540019
:10123800f1ff3a000a80fb004f05be004f04be00d4
:1012480000000600e2ff37001ac0b3000844e800b7
:10125800600020005e2cb40088cf5400e6ff3a00fe
:10126800f4ff3700889fbe008a1f780000057800c9
:1012780060638000406388000004eb0041638000e5
:1012880022c1b300c0c72000eb3b07008b2cab008a
:1012980009003a0020012000682cb4000804e80086
:1012a800f80f5400f5ff3a00080078004f05780061
:1012b8004f04be0000000600206480008a0f500022
:1012c800f4ff3a000880fb004f0578004f04be0089
:1012d80000000600f8ff3700800178000409a80024
:1012e80022c0b300020078008ee9b70020628000b7
:1012f800604c880034628000844c88000001fd0046
:101308008fe9b7000001fd00004d8800c34c88003c
:1013180040ccbf0080487800a2e9b7008b69ef0095
:10132800e18f4100080032008b09a8000300780013
:10133800ccff0700f84f5000030032008b0cab00c5
:1013480001003a008b49a80010c0b3008ae9b70031
:10135800000006000200fa00889fbe008a9fbe00b7
:101368008005780002047800e4cf500012003200b3
:101378000180fb000000400001ad20006080780083
:101388002050900062c0b3000440bc00016380009c
:1013980081004100f162880062c0b30020c62000cd
:1013a800a53b0700642cef00f062800062c0b30028
:1013b80021c62000de3b0700719020009140780094
:1013c8000181fb008990200020c0b30000f17c005f
:1013d8000140e80007e9b7000080fb0018419000d1
:1013e80002f07c0001c0e80007e9b7000080fb00bc
:1013f8002841900002f07c0063c040000080fb00a0
:101408000bf07c0064c04000485dde000080fb00fb
:101418000af07c0065c0400007e9b7000080fb00c7
:101428004841900002f07c0066c0400007e9b70020
:101438000080fb005841900002f07c0067c040002b
:1014480007e9b7000080fb006844900008f07c00c2
:10145800e8c040008000fd0007e9b7008000fd00fb
:10146800689020001844780005ff07008880fb007a
:1014780080f07c000840e9000080fb00a1c0b300b8
:1014880001f07c0008c0e9000080fb0071c4200066
:1014980011f07c00634054000080fb0061c4200010
:1014a80011f07c00644054000080fb000af07c00ce
:1014b800654054000080fb000bf07c00664054003f
:1014c8000080fb008040eb0001f07c006740540086
:1014d8000080fb0091c0b30001f07c006844540018
:1014e8000800780006e9b700804c8000ea805700c1
:1014f80079ff07004f05be004f04be000080fa00c8
:10150800000006000400fa00889fbe008a9fbe0003
:101518008c1f7800800578000105780002067800a5
:1015280001638000f162880062c0b30020c6200019
:10153800413b07000044eb00106380008b0f500014
:101548001b0032000844e800f1628000e680400099
:10155800f162880062c0b30020c62000363b070055
:10156800f04f5400f4ff3a0001638000f1628800f4
:1015780062c0b30020c620002f3b07000044eb00e8
:1015880020638000e30f5000090032000844e8009f
:10159800f1628000e6804000f162880062c0b3001a
:1015a80020c62000243b0700f04f5400f4ff3a0007
:1015b800084e78000000eb0008ad20000801780014
:1015c80080407800800478001200e00006003200b5
:1015d8008140e8000900e8000281e800e40f5000bb
:1015e800f7ff3a008184fb00014d780040c1b30049
:1015f800b03e0700800078000980440008054000dc
:10160800010d78000100e0001d0032001b63880016
:101618001900200029638800f062800062c0b300ce
:1016280021c62000423b07009a00780000c0eb006a
:10163800805098001a0478006e8057008e3e07008c
:101648001fb89700afb89700008cbe001a0078004a
:101658001c4678002c5098009a0078000000eb0097
:10166800e0009800ec2aa800090078004f067800ee
:101678004f05be004f04be000080fa0000000600bf
:10168800010078004f0678004f05be004f04be00e9
:101698000080fa0000000600f9ff37000400fa0095
:1016a800889fbe008a9fbe008c1f780000067800c5
:1016b8000000eb0001af20008044780000047800af
:1016c8001100e000080032008944e8000800e80042
:1016d8008180e800e70f5000f7ff3a00e7cf540099
:1016e8002f0032000984fb0000c3b300713e0700dd
:1016f80088004400e4854000caae200080357d00a3
:101708000000e00026003200094e7800eb007d0062
:1017180000c0eb00c04898006b047d006e80570045
:10172800553e07001fb89700afb89700700498009f
:10173800010c9800100c9800210c9800eb007d001b
:10174800310890000050a100b00898006b017d009e
:101758003208900001ff2f00010060000010a00077
:10176800300998000001eb008b00780033c0b3000b
:1017780061007d0002004000735098000201e800fb
:10178800f80f5100faff3a00100020004f067800c9
:101798004f05be004f04be000080fa00000006009e
:1017a8000000eb004f0678004f05be004f04be0056
:1017b8000080fa0000000600f9ff37000f4de20034
:1017c80005003a002c0cab0019003a000040eb0071
:1017d8000080fb000000060080c7200031c1b30074
:1017e80090cf1000030036000040eb000080fb00a3
:1017f800000006008829ab001800320010c720003e
:1018080041c0b30090cf1000f7ff3e0090c7200002
:1018180051c0b30090cf1000f3ff3e00ed8aab003b
:10182800f1ff3a0010c0b3000080fb000000060082
:1018380080c7200031c1b30090cf1000e3ff3e0005
:101848008829ab0009003a00ed6aab0007003a00ae
:1018580010c0b3000080fb0000000600ed6aab007a
:10186800e6ff3a0010c0b300efff370010c72000b2
:1018780041c0b30090cf1000d4ff3e0090c72000b5
:1018880051c0b30090cf1000d0ff3e00ed8aab00ee
:10189800efff32000040eb00cdff3700889fbe000d
:1018a80060638000406388000004eb0041638000af
:1018b80022c1b300c0c720005f3a07008b2cab00e1
:1018c8000800320020012000682cb4000804e80059
:1018d800f80f5400f5ff3a00080078004f04be00e6
:1018e800000006000880fb004f04be000000060050
:1018f800fcff3700889fbe008a9fbe000005be001f
:1019080060638000406388000004eb00416380004e
:1019180022c1b300c0c72000473a07008b2cab0098
:1019280009003a0020012000682cb4000804e800ef
:10193800f80f5400f5ff3a00080078004f05be0084
:101948004f04be0000000600206480008a0f50008b
:10195800f4ff3a00306480008b0f5000f1ff3a002a
:101968000880fb004f05be004f04be0000000600c3
:10197800f5ff3700889fbe008044780060638000d0
:101988004063880088c1b3004163800022c1b3006e
:10199800c0c72000283a07008b2cab000300320098
:1019a800094078008c4ce300070032002001200039
:1019b800682cb4000844e900f3ff3a000000eb008b
:1019c8004f04be000000060031648000604c8000b7
:1019d800808f5000f5ff3a00100020004f04be0031
:1019e80000000600f8ff3700881f78006063800059
:1019f800406388000044eb004163800022c1b300cb
:101a0800c0c720000c3a0700506480000098a3006b
:101a18000700320080007800010cb20000042000aa
:101a2800808f5000020032000100e0000b003a00f5
:101a38000844e80020012000682cb400f84f540046
:101a4800edff3a0050638000e2c0b300e1c6200019
:101a5800373a07004f04780000000600882cef0092
:101a68008a2cef00706ced004063800022c1b30047
:101a7800c1c720002e3a07000844e80020012000d2
:101a8800682cb400f84f5400dbff3a00edff370034
:101a98000004e0001f0032002d6cef0010c2b300fc
:101aa8002eecb70011c72000914078004309dd00f3
:101ab800020078002fecb70080c7200033c1b300c4
:101ac80090cf110013003e0000c7200073c1b3007f
:101ad80090cf11000f003e006357800003b8a300a9
:101ae8000d003a00e4cf50000a003e000274a00046
:101af800020078002fecb70090c7200051c0b30057
:101b080090cf100003003e0003c8a30001003a0074
:101b18002f4ca80000000600e4cf5000f6ff360066
:101b2800000006005264800082007800010cb200b8
:101b380000042000808f50000c0032008b2ca9007c
:101b4800882cef008a2cef004063800022c1b3008c
:101b5800c1c72000f6390700706ced0050638000a3
:101b6800e2c0b300e1c62000f1393700786ced001f
:101b78000203b200f00f51000e00320010c0b30093
:101b8800c3ff0700882cef008a2cef004063800019
:101b980022c1b300c1c72000e5390700706ced0011
:101ba80050638000e2c0b300e1c62000e03937008e
:101bb800eeff3700796ced0010c0b300b4ff0700ea
:101bc800f0ff3700c0c72000019920000700090076
:101bd8003158780024628000346488008cecef006f
:101be800414c80000118a3001d003a008a8ca9000e
:101bf8008aaca800a0638000206488000000e80088
:101c0800a0638800e20f400039003200c508dd00fb
:101c18000110b200506480000080a1000100700033
:101c2800506488008acca8008aeca9008b2ca800f4
:101c38004063800022c1b300c1c72000bc3907003f
:101c4800786cec00706cec0050638000e2c0b3006c
:101c5800e1c62000b639070010c0b3008cff37007a
:101c68008a8ca8008aaca900b06380002064880030
:101c7800796cec009263800002004000b063880039
:101c88006611b9003462800004014100820f5000df
:101c9800deff3600ed8aa800c508dd000110b2009d
:101ca800506480000080a10001007000506488002a
:101cb8008acca8008aeca9008b2ca800406380007d
:101cc80022c1b300c1c7200099390700786cec0025
:101cd800706cec0050638000e2c0b300e1c62000e5
:101ce8009339070010c0b30069ff3700dcff3700e5
:101cf800ed6aa800c508dd000110b200506480003c
:101d08000080a10001007000506488008acca800ff
:101d18008aeca9008b2ca8004063800022c1b30084
:101d2800c1c7200082390700786cec00706cec00a9
:101d380050638000e2c0b300e1c620007c39070090
:101d480010c0b30052ff3700c5ff3700d10820008c
:101d5800e24f50000800320009003600510120000f
:101d6800e34f50000400320011002000e44f5000ff
:101d7800010032008000eb0001007800000006003e
:101d8800d14321000004e000fbff3200e14f500086
:101d9800f8ff3a00d035200000000600f8ff3700b1
:101da800889fbe000004be000204e0000a00320062
:101db800810f5000030039000000eb004f04be0003
:101dc800000006000240e900e0ff070000004400b0
:101dd800808f5400f8ff3100100020004f04be002f
:101de80000000600f7ff3700889fbe008a9fbe00ec
:101df8000005be0060638000406388008044eb00fb
:101e08004163800022c1b300c0c720000a3907001f
:101e180050648000002cb20001242000810f500083
:101e28000900320020012000682cb4008944e80031
:101e3800f8cf5400f2ff3a000000eb004f05be0057
:101e48004f04be000000060028648000880f55007b
:101e580007003200714cec00004178008a007800dd
:101e680008007800ceff07000004e000edff320014
:101e7800880d7800100020004f05be004f04be00fa
:101e880000000600f0ff3700ec874700889fbe007f
:101e98008a9fbe008c9fbe008e1f78008044780009
:101ea800814578000000eb0042b0200080407800b7
:101eb800000478001200e000080032008140e800c9
:101ec8000800e8000281e800e80f5000f7ff3a0038
:101ed800e8cf5000920032000184fb00c0c0b3007c
:101ee800743c070080007800080644007804460027
:101ef800caae200000347d000000e00088003200f7
:101f08000904e00024003a00c0ff2f008a29b40029
:101f1800824c8000a2009800e8007d008a09ed004c
:101f2800504c880010407800f0409800e8007d0090
:101f38008a09ed00504c880010407800e040980075
:101f48008aa9ed0088c9bf006840400088e9b70049
:101f5800e8007d00a040980068007d0020409000c7
:101f6800543c0700800478000000e00074003a0048
:101f780068007d00513c070009347d0040002000c6
:101f88004f0778004f06be004f05be004f04be0045
:101f9800cf00b1000000060030628000a000980069
:101fa80068007d00c14c80003100980068017d0008
:101fb80006c9bf000749b50071c8b3000140400019
:101fc8002041980068007d0020409000393c0700bf
:101fd800800478000000e000e5ff320068007d0022
:101fe800090878004658dd000034a000804c7800cd
:101ff80089c9bf00004040009044980082992000a1
:1020080012417800a244980099c9bf00b0449800d2
:1020180061c4200091407800c144980072c4200037
:1020280012417800d24498000b9920009b45780013
:10203800eb449800a2c9bf00f044980068814400ae
:1020480006c9bf00e1c7b300814f500008003e0039
:10205800839020000040e80006e9b7000080fb00fc
:1020680060d9790006c9bf00814f5000f9ff3600da
:102078000749ed0007e9b700e14f400009003200c9
:10208800820078008390200002c050000080fb008e
:10209800e0d879000749ed0007e9b700e14f4000b3
:1020a800f9ff3a00f8044600ccae200069047d0030
:1020b80076805700f03b07005fb09700efb09700bd
:1020c800400498005104980069007d003000900099
:1020d80078815700f78057000afd07000004e000e8
:1020e80038003a0069007d0010007800f33b0700d3
:1020f80069007d00f13b07000000eb0080347d00a3
:10210800400020004f0778004f06be004f05be0074
:102118004f04be00cf00b100000006009eff37004c
:10212800400020004f0778004f06be004f05be0054
:102138004f04be00cf00b1000000060096ff370034
:1021480068007d0009087800d4fb0700f043b2005e
:10215800c658dd0080cc7000d0fb07009044980082
:10216800cefb0700a0449800ccfb0700b0449800c1
:10217800cafb0700c0449800c8fb0700d044980079
:10218800c6fb07008045e900eb449800c3fb070045
:10219800f0449800688444008849e200c1ff320096
:1021a800befb0700005c78008849e200bdff3200f2
:1021b800bafb0700005c78008849e200f8ff3a00a3
:1021c800b8ff37000409a900f0c7b30006e9b70053
:1021d8000047eb000e00780007e9b7001fe89700fa
:1021e8000080fb00000040000dad200060847e00f0
:1021f800e0c0b300af3b070000057800600498001a
:102208000000e0001d003a00100020002063880054
:10221800f062800062c0b30021c620004438070085
:102228001fe897000080fb000000400060807e00ef
:10223800a23b07001fe897000080fb000000400059
:102248000ab07e0069007e00100078009b3b070002
:1022580069007e00993b07008a347e004000200018
:102268004f0778004f06be004f05be004f04be0062
:10227800cf00b1000000060047ff37001fe89700b5
:102288000080fb000000400060807e0031b020002c
:1022980091407800614898001fe897000080fb0093
:1022a800000040000d00400090007800326280007d
:1022b800c2009800100078007e4898001fe8970038
:1022c8000080fb00000040000d00400090017800f5
:1022d80093089000f28f2f008280600001a0a00078
:1022e80091099800900078001108900000b0a100b2
:1022f8009008980010c0b300004d780000c8b300e3
:102308001045980003cbbf00204598000040e80026
:1023180003ebb70069007e006040900030459800ec
:1023280069007e0070409000404598005e45980026
:1023380053fb0700604598007b45980047ccbf00d9
:10234800004d980061c4200091407800114d98001c
:1023580000c0eb00204d9800c0cfb300304d98006e
:102368004e4d980090c0b300504d980072805700b1
:10237800413b07001fe897000080fb000000400079
:1023880060827e007fb097008fb89700d21f2c0024
:10239800f3ff2f00000041008180490020029800cf
:1023a80031029800100020004f0778004f06be0049
:1023b8004f05be004f04be00cf00b100000006006c
:1023c800f5fe37000200fa00889fbe008a9fbe0013
:1023d800804578000104780002457800830478007d
:1023e800010078009ffb0700f84f500007003200fb
:1023f80051648000010cb20000042000808f50005e
:102408001e0032000100e0001c0032003262800031
:1024180004c8b300880178008040eb0001407800d0
:102428004bfb07000004e00009003200e24f5500b2
:10243800220032006a8157000800be00e2fa070055
:102448000004e00014003a00e14f55002300320078
:102458000800be0064fe07000004e00011003a0016
:1024680010cdb30088e9b700200020004f05be005a
:102478004f04be000080fa0000000600880c7800b7
:102488000000eb004f05be004f04be000080fa00bc
:1024980000000600f9ff37006ff097000004e00025
:1024a800ebff3a000000eb004f05be004f04be00f2
:1024b8000080fa0000000600f0ff370011c0b300ea
:1024c8000b40780070fe07004f05be004f04be00a9
:1024d8000080fa0000000600e8ff37008a40780014
:1024e8000b40780068fe07004f05be004f04be0091
:1024f8000080fa0000000600e0ff3700881f78001f
:10250800300020002063880062acef000063800088
:10251800f06288000044eb00f062800062c0b30003
:1025280021c62000823707000844e8006000200028
:102538005e2cb400f04f5400f7ff3a004f047800c7
:1025480000000600889fbe008a9fbe0000457800f4
:102558003008800048ebb7000469ef00615780003d
:10256800ec2aef00ee2aef000000220080806000d5
:102578006057800000d0a1000100700060578800fb
:10258800a0b42000a1ba20000048eb000080e800b9
:10259800808f5000fcff3a000a04e00004003a0073
:1025a800b05980000000e00001003200c33a070083
:1025b800362bef008004eb0008af20008805780078
:1025c8000a04e00007003a00180078000000e00064
:1025d8000400320010007800b83a070018007800ac
:1025e800b63a0700801deb008904e8000884e8007b
:1025f800e78f5400f2ff3a008004eb0048b0200057
:10260800880578000a04e00007003a0018007800fe
:102618000000e0000400320010007800a73a07002c
:1026280018007800a53a0700801deb008904e8002f
:102638000884e800e88f5400f2ff3a000004eb0039
:1026480009ad2000890578000a04e00004003a007a
:10265800190078000000e00001003200973a0700f6
:10266800801deb000804e8008984e800e40f5400aa
:10267800f5ff3a00a1ff07004f05be004f04be005a
:102688000000060010c0b300aeff070051638000d1
:10269800e2c0b300e0c62000e7360700716380009f
:1026a800c0532a00808f5000010032002bfa070027
:1026b800a0ad2000e1ae20000048eb00640040001f
:1026c800810f5000fcff3a0060b1200061b3200088
:1026d8000088eb0064004000808f5000fcff3a0047
:1026e80000000600889fbe008a1f78000005780059
:1026f80060638000406388000004eb004163800051
:1027080022c1b300c0c72000cb3607008b2cab001a
:1027180009003a0020012000682cb4000804e800f1
:10272800f80f5400f5ff3a00080078004f057800cc
:102738004f04be000000060082002000c1c7200030
:102748000a00780075f907000000e000f1ff3a0080
:102758000880fb004f0578004f04be00000006000b
:10276800f5ff37000f05b000889fbe008a9fbe00a6
:102778008c9fbe008e1f78000047eb000004780095
:1027880040fc2f00008047003b3a07002fa6970027
:10279800bfa69700ec4aab000d003200f45780004a
:1027a800055880000402560085825e0022b0200091
:1027b800124178000281fb000300200040422f00f4
:1027c8000010b800800f5200818f5a0033003e007d
:1027d8000800e00021003a0004c9bf000008a30077
:1027e80025003a00605780000008a30091003a00d5
:1027f8000018a300b7003a000078a3001e003200ba
:10280800eceaa900aacbbf0088e9b700abcbbf00b0
:1028180089e9b700915d8000814c8800d25d800015
:10282800e35d8000c24c8800d34c8800f45d8000d2
:10283800055e8000e44c8800f54c8800c304200045
:10284800030078004f0778004f06be004f05be0012
:102858004f04be000f05b100000006006140b8003b
:1028680071005000e080580015062000850f5000c8
:10287800e08f58000c0036008001eb000300780060
:102888004f0778004f06be004f05be004f04be003c
:102898000f05b10000000600f0ff37002c0ca9005e
:1028a800ec4aa900caff3700006001002303370083
:1028b800a6023700f0ff3700efff3700eeff3700c2
:1028c80077023700ecff3700ebff3700eaff3700ed
:1028d800e9ff3700e8ff370063023700e6ff3700fb
:1028e800e5ff3700e4ff3700e3ff3700e2ff37007a
:1028f80001033700e0ff3700dfff370087023700aa
:10290800ddff3700dcff3700dbff3700e10237006f
:1029180041023700d8ff3700d7ff3700d6ff37000e
:10292800f3033700d4ff3700d3ff3700d2ff370057
:10293800c2033700da033700cfff3700ceff370076
:10294800cdff3700ccff3700cbff3700caff370079
:10295800c9ff3700c8ff3700c7ff3700c6ff370079
:10296800c5ff3700c4ff3700c3ff370074033700c3
:102978009b0337008a033700bf0337002f03370054
:102988006103370053033700480337003603370025
:10299800b9ff3700b8ff3700b7ff3700b6ff370079
:1029a800b5ff3700b4ff3700b3ff3700b2ff370079
:1029b800b1ff3700b0ff3700afff3700aeff370079
:1029c800adff3700acff3700abff3700aaff370079
:1029d800a9ff3700a8ff3700a7ff3700a6ff370079
:1029e800a5ff3700a4ff3700a3ff3700a2ff370079
:1029f800a1ff3700a0ff37009fff37009eff370079
:102a08009dff37009cff37009bff37009aff370078
:102a180099ff370098ff370097ff370096ff370078
:102a280095ff370094ff370093ff370092ff370078
:102a38004e03370088b79f000baf20001b047800b7
:102a48000800e0001100320018089000a808900063
:102a58000001560081815e00610133000200be0062
:102a6800f0f6070002a02b00b375240018f7070042
:102a78000000e000d3003400180078008f39070008
:102a88001b0078008d390700800deb008fb197008f
:102a98008301e80083b79f008b85e800e78f51002a
:102aa800e6ff3a008040eb0000af20001000e00095
:102ab80005003a008140e8000080e800e7cf5000b8
:102ac800faff3a00ec0aa900605780000018a3003a
:102ad80049ff32000002eb0009ad2000090178002f
:102ae80009047800920078000100e0000e0032002e
:102af800e10190000300e0000b0032001108900093
:102b080000b8a30068003a0021009000b1009000ce
:102b18000000560081805e0025e02300850f5000ec
:102b2800e08f580068003e000402e8000884e800ce
:102b38000281e800e40f5200eaff3a0008ad2000e5
:102b480089ad2000180278000400e0000700320078
:102b580034015600a4815e00809628009100200070
:102b6800800f5100818f59003a003e000884e80028
:102b7800888f5400f3ff3a008041eb00c3679f0041
:102b880003407800cdae20000d0578000006eb006c
:102b9800899020000080fb00000040007800400081
:102ba80060807e000000e0000d00320030009000e0
:102bb80044fa2f000f0242000481e800e4004200ba
:102bc80001f907000004e000d20532006f619700a8
:102bd8000204e000f4053200e24f51001c0132000b
:102be800cf6197000340e800c0679f00e74f50009f
:102bf800e8ff36000042eb00c4679f0005638000d1
:102c0800f5628800f162800062c0b30020c620002f
:102c18008935070028638000e20f54006f053200f1
:102c28004f6397000643e800c6679f0060002000d6
:102c38005e2cb400ef4f5300f2ff36008040eb00eb
:102c4800c1679f00040be2006901320060578000f1
:102c5800e9fe37002450900062c0b3000440bc0075
:102c68000163800081004100f162880062c0b30006
:102c780020c620007035070020638000e10f500057
:102c8800e100320018007800600090000000e000c9
:102c980001003200093907001800780007390700d9
:102ca800000ceb00b1ff370021009000b10090004c
:102cb8000000560081805e00f6c32900860f500090
:102cc800e08f580098ff36000040eb00c0679f0077
:102cd8008590200007c9bf008080fb003341780041
:102ce80082f07a000040e80007e9b7004f629700d9
:102cf8000440e800c0679f00e54f5000f5ff36002c
:102d08000043eb00c6679f006b9020009b4578004e
:102d18000b80fb0033f07a008b45e9000b0078004c
:102d280006e9b7004f6197000240e800c0679f00be
:102d3800e74f5000f6ff3600980078001108900021
:102d480000b0a1009008980098017800130990003d
:102d58004810de0067404000670060004800dd0062
:102d6800f18f2f00010161000001710092099800a4
:102d7800180078002c0098003d0098001801780091
:102d88009208900000702000808460007603320072
:102d980041fa2f008f8040000080eb004ef90700b9
:102da80003012000030078004f0778004f06be009b
:102db8004f05be004f04be000f05b100000006001d
:102dc800a6fe3700b80c90000902b2002fff3a00a7
:102dd8000e10a100484d9000f84f55001005320024
:102de800e14f45008f003200894178008a84fb005a
:102df8000a40780022c1b3000440bc00616380002f
:102e0800810041004163880022c1b300c0c720008f
:102e1800f3b79f00083507005264800082007800ed
:102e28000120b200ffb19700d2043a007680440036
:102e38001b004000114098000a45e800e1c061000d
:102e48004208dd000e24a100004777000e28a300e9
:102e580002003a00f74f5500e4ff36001b047800e3
:102e68004a4c98004208dd000e24a1000047770074
:102e78000e28a30005ff32000e18a300b40a3a007a
:102e88008fb0970001844000cdae200009c3b30085
:102e980061902000914078000181fb00859020001e
:102ea80064004400e0817e003342900004f17a001f
:102eb8008145e9000b00780006e9b7000b80fb00ac
:102ec8004343900006f07a0081c5e9000b007800c2
:102ed80006e9b7000b80fb007341900002f07a000e
:102ee800e3c550000b00780006e9b7000b80fb0033
:102ef8006342900004f07a00e4c550000b007800ab
:102f080006e9b7000b80fb00134b900006f07a002f
:102f1800e5c550000b00780006e9b7000b80fb0000
:102f28000349900002f07a00e6c550000b007800d3
:102f380006e9b7000b80fb00234a900004f07a00f2
:102f4800e7c550000b00780006e9b7000b80fb00ce
:102f5800334b900006f07a00e8c550000b0078006b
:102f680006e9b7000040eb00c0679f001301780036
:102f7800234090000004e00062033a004f9097005d
:102f880041fa2f008f804000d3f8070000c3b30038
:102f980080cf540082ff32008980fb00818040008e
:102fa80090b420004f61970082707800640044005c
:102fb80060817e00a0b420003241900082707800c9
:102fc800000120004f0778004f06be004f05be00e5
:102fd8004f04be000f05b100000006001ffe3700b9
:102fe80061006100010020008301d1000281d3004b
:102ff80002007000838070008af507000001be009f
:10300800b6f5070097fe37002000200020638800ef
:10301800f062800062c0b30021c62000c4340700fb
:1030280018ff3700780090008808900000005600cc
:1030380081805e00f2e12400820f5000e08f58008a
:1030480037053e00894078004a4c980085ff3700d4
:103058004f6097008081fb000380410078004000aa
:1030680060007d00a000900030628000808f5000da
:10307800aa043200689020001844780000f807007d
:103088008880fb0080f07c008845e9008b80fb008d
:10309800a0c0b30080f07c0088c5e9000b80fb006d
:1030a80071c4200011f07c00e34554000b80fb0044
:1030b80061c4200011f07c00e44554000b00780046
:1030c80006e9b7000b81fb0041fa2f008f80400012
:1030d8003180fb00000040007800400060027d0065
:1030e800d442900005f17c00e54554000b007800bf
:1030f80006e9b7000b80fb004443900006f07c0013
:10310800e64554000b80fb000cf07c00e7455400ba
:103118000b81fb0090c0b30000f17c00e84554002f
:103128000b00780006e9b700729020001241780081
:103138008281fb0030c0b30080f17c000240e800cf
:103148000080fb000cf07c0002c0e80007e9b70033
:103158000080fb00e441900003f07c0063404100e4
:1031680007e9b7000080fb00f442900005f07c00fe
:10317800644141000200780007e9b700240090008c
:1031880055f807004f6397000680fb0000004000d9
:103198007800400060007d0010007800c737070005
:1031a800cf6097000180fb000000400078004000dd
:1031b80060007d000008eb00c03707004f619700f2
:1031c8000280fb0000004000780040000c307d00c9
:1031d800000120004f0778004f06be004f05be00d3
:1031e8004f04be000f05b100000006009bfd37002c
:1031f8000140780061b020000040e800c0679f00ef
:10320800e84f5000820532003100e000faff32003a
:103218006057800078fd37008099200031fd070055
:10322800c0679f008849e20093fd3a00f84f5000bc
:1032380091fd320026648000864c880038cbbf00a0
:1032480088e9b7008969ef00c00420004f077800bb
:103258004f06be004f05be004f04be000f05b1006b
:10326800000006007dfd3700e098200022c0b30072
:10327800904f110062023200f22507008001eb0036
:10328800030078004f0778004f06be004f05be00c8
:103298004f04be000f05b100000006006ffd3700a7
:1032a8000042eb00c4679f00044078008398200028
:1032b800044178000080fb00f000400068004000f6
:1032c800e0f079000241e80002407800e74f510041
:1032d800f8ff360080c0b300c0679f000099200047
:1032e80000fd0700c0679f00f84f50000709320033
:1032f80025648000754c88008869ef007001200003
:103308004f0778004f06be004f05be004f04be00b1
:103318000f05b1000000060050fd3700605780001f
:1033280068006000a7053a0086fc0700d00320006b
:103338004f0778004f06be004f05be004f04be0081
:103348000f05b1000000060044fd370053f70700e1
:10335800c0ef9f0051f70700a0ef9f004ff707004d
:103368000080fb0008f02f000806660000067600c3
:103378004af7070080ef9f004800dd00fc0fb2000d
:103388000006760045f707000080fb000805650089
:103398000005750041f70700f0e79f008086fb00f5
:1033a8004868dd00fa0fb200000575003bf707001a
:1033b800b0e79f0039f7070000477800afea9700a9
:1033c8000538a3000c0032000043eb00c6679f00dd
:1033d8000644780089ac200030f707008880fb009d
:1033e80080f07c004f6097000044e800c8679f00a9
:1033f800e74f5400f8ff3600afe897000148a300f4
:103408000c0032000041eb00c2679f0002447800c4
:1034180009ac200021f707008880fb0080f07c00c1
:10342800cf6197000344e800c8679f00e74f540046
:10343800f8ff3600c04c8000e10f40005301320015
:10344800e50f460051013e004fea970063446200d1
:10345800e14f5400d206320030628000800f5600df
:1034680075073a008a4c88006c4c880020c0b3006d
:103478008ee9b700500320004f0778004f06be00c2
:103488004f05be004f04be000f05b1000000060046
:10349800f2fc37008040eb0030c3b300012f070077
:1034a8008040eb0040c3b300fe2e0700f1c0b3001c
:1034b800f02220001e2f07008e49e20031043a0056
:1034c8008949e2009d023a000489a90040ccb30072
:1034d80088e9b70073032000030078004f077800dd
:1034e8004f06be004f05be004f04be000f05b100d9
:1034f80000000600d9fc37000099200079fc07007d
:10350800c0679f00f84f5000dbfc32002164800048
:10351800c14c880010c0b30088e9b7003002200011
:103528004f0778004f06be004f05be004f04be008f
:103538000f05b10000000600c8fc37000043eb008f
:10354800c6679f0006407800cdae20008d01780048
:103558000082eb000080fb00c200dd00a202200018
:103568000101410062807e00e10f4000040032004a
:103578000180460010689000a249e3002b00320049
:10358800cf6097000140e800c0679f00e74f5000f8
:10359800f0ff36000041eb00c2679f00a2c9bf00e0
:1035a800494be300bc04320012002000b3b42000f1
:1035b80004032000c2679f00840f5100aefc320054
:1035c80082007800134078000201e8008381e80057
:1035d800a249e300f7ff3a0001804000a2b42000ae
:1035e800604079008001eb000004e0000200320036
:1035f800a2e9b700430320004f6297000480fb0054
:10360800000040008040eb00017079000300780062
:103618004f0778004f06be004f05be004f04be009e
:103628000f05b100000006008cfc37008849e20055
:10363800b1043a0004b17900d1ff37008ea9ef0038
:1036480020ccb30088e9b700a00320004f0778001a
:103658004f06be004f05be004f04be000f05b10067
:10366800000006007dfc37008849e200bb033a00f1
:103678008969ef0023628000034d880020c0b300f1
:103688008fe9b700f4618000c44c88001003200063
:103698004f0778004f06be004f05be004f04be001e
:1036a8000f05b100000006006cfc370010c0b30025
:1036b80088e9b700400220004f0778004f06be0097
:1036c8004f05be004f04be000f05b1000000060004
:1036d80062fc370004c9bf000038a3006b063a003b
:1036e80020ccb30088e9b700c00320004f0778005a
:1036f8004f06be004f05be004f04be000f05b100c7
:103708000000060055fc370000992000f5fb070073
:10371800f84f5000c508320050ccb30088e9b70014
:10372800b00320004f0778004f06be004f05be00cb
:103738004f04be000f05b1000000060047fc37002b
:103748000489a90020ccb30088e9b70070032000e1
:103758004f0778004f06be004f05be004f04be005d
:103768000f05b100000006003cfc370004c9bf008b
:103778000038a3007c013a0020ccb30088e9b700e8
:10378800300720004f0778004f06be004f05be00e7
:103798004f04be000f05b100000006002ffc3700e3
:1037a800ec4aa9008849e20007043a002c0ca90059
:1037b80089c9bf00b6f807008869ef0083032000b5
:1037c800030078004f0778004f06be004f05be0083
:1037d8004f04be000f05b100000006001ffc3700b3
:1037e8000489a800b05980000000e00002003200ff
:1037f80032360700362bef00804c8000914c800059
:10380800d0598800e15988008fc9bf003eebb70046
:10381800614c8000315a88008e69ef0080022000d8
:103828004f0778004f06be004f05be004f04be008c
:103838000f05b1000000060008fc370088c9bf006a
:10384800e3032000fefb3200f54f40002104320064
:1038580060ccb30088e9b700e00320004f07780088
:103868004f06be004f05be004f04be000f05b10055
:1038780000000600f9fb370020ccb30088e9b70048
:10388800900320004f0778004f06be004f05be008a
:103898004f04be000f05b10000000600effb370023
:1038a80004c9bf00e840600020ccb30048013a00da
:1038b80088e9b7000409a900fbc7b3000b0078002a
:1038c80006e9b7000100780007e9b70043032000c4
:1038d800030078004f0778004f06be004f05be0072
:1038e8004f04be000f05b10000000600dbfb3700e7
:1038f800b05980000000e00002003200ef350700f8
:10390800362bef008849e20001003a00ed0aa800d2
:10391800716cef00d043210090638800d063800071
:10392800e100600009003a00f0962700a0638800d3
:1039380010002000b06388008000fd0078ecb7001c
:1039480079ecb7008000fd007a0ca8005063800075
:10395800e2c0b300e1c620007532070010c0b30012
:103968004bf807000489a9000469a8007003200027
:103978004f0778004f06be004f05be004f04be003b
:103988000f05b10000000600b4fb37000042eb0051
:10399800c4679f000441780003af200093007800bb
:1039a8000100e0000300320031009000800f550054
:1039b800650032000241e800c2679f008381e80089
:1039c800e74f5100f5ff3a00cfea970063c0620065
:1039d800e14f5000170432003fe19700e14f5100da
:1039e8004d00360073fa2f00038047002bf70700bd
:1039f8000004e00020fe32007f6097008080fb001a
:103a080081804000e4804000cdae200061817e00ce
:103a1800b20890000140a10031099800a9f50700fb
:103a28007f6097000080fb000000400064004000b9
:103a380060807e008498200014427800244098001a
:103a48007f6097000080fb00000040006400400099
:103a580060807e00cfea9700354898007f60970025
:103a68000080fb00000040006400400060807e0091
:103a78002feb9700264898007f6097000080fb0096
:103a88000000400064004000e0807e00cc00980008
:103a9800e0807e00ba009800e0807e003fe1970059
:103aa8000240e900c04098007f6097000080fb005a
:103ab800000040006400400060807e003e409800a6
:103ac8007f6097000080fb00000040006400400019
:103ad80060847e0088c9bf007635070080047800be
:103ae800000c78000000e000ba0732008041eb00cb
:103af800c3679f005b4c80008c9820001c467800b0
:103b08000c04e00021003a005b4c88000c007800af
:103b180088e9b700ec0aa800306280008a0f5000dc
:103b2800d5fd32008a4c8800500320004f077800ea
:103b38004f06be004f05be004f04be000f05b10082
:103b48000000060045fb370031409000804f5700c9
:103b580098ff3a00024078005af50700b923070099
:103b68008001eb0045fb37006200900053350700e9
:103b7800180078006900980041fa2f008f804000f3
:103b88000080eb00d4f5070085fc3700cf64970070
:103b98007f6097000080fb00000040006400400048
:103ba80060807e000984fb00100444003bf5070098
:103bb800004c78008944e800c9679f008849e20002
:103bc800d1ff3200cf6497007f6097000080fb0030
:103bd800000040006400400060807e000984fb0013
:103be800100444002df50700004c78008944e800d3
:103bf800c9679f008849e200e4ff3a00c2ff370026
:103c0800504c80001004e0009bfd3a00614c80009d
:103c1800804c800037f70700f84f5000ad003200a5
:103c2800044d800004e8a3005e0532008a8ca900d8
:103c38008aaca9008b0ca800534c8000a3409000cc
:103c48008107b200c508dd0040648000f20f2f0034
:103c580002006000010070004064880093409000fa
:103c6800cc08dd00f2ff20000200600001007000b7
:103c78004064880093409000010fb200c408de0041
:103c88005064800002ff2f00020060008100700075
:103c9800a3c9bf0088ecb7004f20de004a00dd0052
:103ca80001a0a10080807000516488000041eb00f1
:103cb800234090000004e0006500350061006100c9
:103cc8004b00dd0001b0a1008080700051648800c5
:103cd800614c800031648800824c80002264880036
:103ce8008fc9bf008cecb7004063800022c1b300cd
:103cf800c1c720008e310700522307008001eb0066
:103d08005ffd370007c9bf008080fb0032427800a2
:103d180084f07a000040e80007e9b7004f63970095
:103d28008640e800c1679f0023409000814f500003
:103d380092fc360007c9bf008080fb003242780041
:103d480084f07a000040e80007e9b7004f63970065
:103d58008640e800c1679f0023409000814f5000d3
:103d6800e8ff3e0085fc37008a49e2002d07320053
:103d7800c04c8000e10f40007ffe3200e30f40009e
:103d88007dfe3200e40f40007bfe320045fa2f0032
:103d98008f824200638142008580e800d9f50700e0
:103da8000004e0003c073a0020c0b30088e9b700ef
:103db800300720004f0778004f06be004f05be00b1
:103dc8004f04be000f05b10000000600a3fa37003b
:103dd800c14c8000e18f40002e003200e38f40008c
:103de8002c003200e48f40002a0032001299200093
:103df8001241780080fa2f008081470010c0b3007c
:103e080070f907000004e0004e063200e14f500050
:103e180099fa320010cdb30088e9b7000409a90067
:103e2800fbc7b3000b00780006e9b7000769ef008d
:103e3800400320004f0778004f06be004f05be0024
:103e48004f04be000f05b1000000060083fa3700da
:103e580012c0b300610061004b00dd0001b0a10099
:103e68008080700051648800614c80003164880053
:103e7800824c8000226488008fc9bf008cecb70098
:103e88004063800022c1b300c1c720002831070069
:103e980099ff370061fa2f0001804700fff50700fe
:103ea800804078000004e00001093a0010cfb30018
:103eb80088e9b7000409a900fbc7b3000b00780024
:103ec80006e9b7000100780007e9b70043032000be
:103ed8007ffe370071f60700f84f5000e6fc32000d
:103ee8008b2ca8008acca8008aeca8008041eb00a3
:103ef800c3679f0003407800c3c720008040780054
:103f08000080fb00030040000048eb008140e8000f
:103f180001407800e7cf5000f9ff360080c0b300b9
:103f2800c0679f00706cec0050638000e2c0b30073
:103f3800e1c62000fe30070039ff370000c3b30098
:103f48005c34070000047800b05988000000e000e5
:103f580085083200356bef00544c80008041eb003f
:103f6800c3679f0083427800d2598000e3598000dc
:103f78000208a3000a053200804c8000914c8000a2
:103f88000008a3001c003a0096cfb300944f13001a
:103f980018003e0035cbbf0032c0b3000440bc005f
:103fa800b05980000571780035cbbf0032c0b3002e
:103fb8000440bc00b0598000000141001440780062
:103fc8001041980035cbbf0032c0b3000440bc009c
:103fd800b0598000000141000040eb0020419800ea
:103fe800356bec00d2598000e3598000804c80008a
:103ff800914c80000402e8008100d1000080d300c9
:10400800804c8800914c88008300d1000280d30046
:10401800d0598800e1598800cf6097008142e800b4
:10402800c5679f00ffcf5200cfff360035cbbf00da
:10403800c0679f002c00320017c0b300d7679f00ed
:10404800cf6297000580fb000000e9004240a9000c
:1040580022003400110020006309b900b65980001d
:104068000602410063015200124390001440900080
:10407800864f500011003100a24090009241780014
:10408800144978000400e8003041780062fa9f0083
:104098001040780070fa9f005f60970032c0b3004c
:1040a8000440bc00b0598000000141002141980043
:1040b8001641980003497800cf629700df609700a7
:1040c8008140e800d1679f000580fb000000e900ff
:1040d8008180fb00810f5000dfff3d000540e900b3
:1040e800c0679f00d5ff3a00504c80000000e000f8
:1040f80002003200f13307008a29ef00354be20055
:10410800e6063200346bef0010c0b3008ee9b7004a
:1041180034cbbf0032c0b3000440bc00b0598000ab
:10412800000141001281fb00100020000100200066
:104138000201e900030033000000400081804800cc
:10414800fbff3700804c8800914c88003ecbbf00b5
:104158008fe9b700800220004f0778004f06be00a5
:104168004f05be004f04be000f05b1000000060059
:10417800baf937001b04780048009000e40f4000ab
:1041880012003200e30f40000e003200216480006c
:1041980038009000808f50000c0032000288a30085
:1041a80025fb3a00c1979f00f680440088804000b4
:1041b800114090000004a1009040980013c0b30083
:1041c8001dfb37000288a300f0ff3a008900440075
:1041d8000040eb00f050980017fb3700300020003b
:1041e8002063880062acef00f062800062c0b30018
:1041f80021c620004e3007000800780088e9b70083
:10420800300720004f0778004f06be004f05be005c
:104218004f04be000f05b100000006008ff93700fb
:104228000e00a0000900780088e9b70009017800ad
:10423800f70044009141780061c0610007003a002e
:10424800024078000201e8008100e800f80f510000
:10425800f8ff3a00f74f50002c00320000cfb300af
:1042680088e9b700380890006f0060002700320026
:1042780018089000a80890000000560081805e0091
:1042880034422f00840f5000e08f58006e013e002a
:104298000e00a1008041eb00e1c061004208dd0092
:1042a8000e24a100004777000e08a300edfa3200a3
:1042b8000fb1970002044100cdae20006401440014
:1042c800e2807e0031409000a2e9b70031089000fa
:1042d8000050a000b008980062807e00300890006e
:1042e800430320000048a30063f93200030078006c
:1042f8004f0778004f06be004f05be004f04be00b2
:104308000f05b1000000060054f937008041eb00aa
:10431800e1ff3700cf6097008181fb0003804100f7
:1043280078004000e0807e00110078007040900026
:10433800a2e9b7008869ef00110078005f33070031
:104348004f6197000280fb000000400078004000a9
:1043580060807e0059330700cf6197000380fb001f
:1043680000004000780040000cb07e000409a9005d
:10437800fbc7b3000b00780006e9b7000c00780013
:1043880007e9b70043032000030078004f077800cf
:104398004f06be004f05be004f04be000f05b1001a
:1043a800000006002df93700cf6297008581fb00d9
:1043b800038041007800400060827e00a4009000e5
:1043c80030628000808f5000aa0432008244780056
:1043d80014017800dc679f000380410078004000ea
:1043e800e0807e00214090000004e0000e003200d2
:1043f800859020008101780007c9bf008080fb00fc
:104408003242780084f07a000040e80007e9b700fb
:104418005f6097000040e800d0679f00a3409000cd
:1044280080cf5000f4ff3e004f90970055fa2f00c0
:1044380085804700a8f307004f6397008681fb003b
:1044480003804100f8014000c8ae200063817e006f
:10445800a200900030628000808f50001700320068
:1044680063007c001000780014330700cf629700c7
:104478000580fb00000040007800400060007c00e0
:104488000e3307004f6397000680fb0000004000d2
:10449800780040000c307c00030120000300780005
:1044a8004f0778004f06be004f05be004f04be0000
:1044b8000f05b10000000600e8f837000980fb008e
:1044c8000000400091b420005f62970004f078007b
:1044d80012017800a1b420007241900002f0780027
:1044e80063007c0010007800f4320700cf62970068
:1044f8000580fb00000040007800400060007c0060
:10450800ee3207004f6397000680fb000000400072
:10451800780040000c307c0003012000dfff3700ea
:104528000080eb00c0979f000e10a00080fc2f00b9
:1045380000804700d03207004fa29700dfa2970003
:10454800140c9800250c9800094578001b04780085
:1045580011c0b3004a4c980042fa370010ccb3009f
:1045680088e9b700e00320004f0778004f06be0037
:104578004f05be004f04be000f05b1000000060045
:10458800b6f8370034cbbf0032c0b3000440bc00db
:10459800b0598000000141009198200091407800b6
:1045a80021419800604c80000000e00006003200c5
:1045b800600c9000c132070008007800684c880041
:1045c8000800e000faff3a00344bec0034ebb70087
:1045d80052b32000124178000204e100cafe3a00fa
:1045e800346bef00335a8000634c8800e18f410040
:1045f8001000320034cbbf0032c0b3000440bc000e
:10460800b059800062407800daf407000004e00046
:104618000800320034cbbf0053b320009341780028
:104628000304e100030031000040e80034ebb70068
:10463800f0ff370035cbbf00344be3005f0032009a
:1046480011c0b300c1679f0050b3200090cf100085
:104658009c00360001407800634c8000b15980000e
:1046680032c0b3000440bc000282400034cbbf001b
:1046780032c0b3000440bc0001014100a2409000d8
:104688002440900080cf500009003600e18f41009f
:104698000500320014407800b6f407000004e0007a
:1046a8007f003a00634c80004f60970034ebb700fe
:1046b8004f6297000440e800c0679f0055b3200090
:1046c800954278000504e100e4ff3900e18f4100dc
:1046d8001f003200462cef00e4200700ed0aa90075
:1046e800c1f4070034cbbf0032c0b3000440bc00a3
:1046f800b0598000801f7800624078008ee9b700ca
:104708004f007800f0c0b30094e9b70095e9b7000e
:1047180010c0b30088e9b7002c0cd500e200600097
:10472800404c80000010a10001007000404c88003f
:10473800d00220004f0778004f06be004f05be008c
:104748004f04be000f05b1000000060043f8370013
:10475800300880008ce9b70050088000f043b200b0
:104768008de9b70034cbbf0032c0b3000440bc00b1
:10477800b0598000624078007ef407000004e00031
:10478800d4ff3200300880008ce9b7005008800060
:10479800f043b2008de9b70034cbbf0032c0b3009c
:1047a8000440bc00b05980006240780071f40700f2
:1047b8000004e000e6ff3a00c6ff37008ca9ef00ce
:1047c800346bef009eff37002c0ca80088c9bf008f
:1047d800e14f4000f6fb320002ebb70080fd2f00ee
:1047e80000804700243207004fa99700dfa99700ef
:1047f800f257880003588800ec4aa80089c9bf000e
:10480800a3f407008869ef0083032000ecfb37005e
:104818000041eb00c2679f00d00ae2000bf93a00a2
:104828000240780021ad20000040e800c0679f00ea
:10483800e44f5000f00232003100e000faff32008d
:1048480060578000ecf737000e00a1000080eb00f5
:10485800c0979f0038089000ef404000ef8060004c
:1048680002ff2f000200600001007000300c980069
:104878001b047800c0fc2f0000804700fe310700b1
:104888006fa09700ffa09700100c9800210c9800cb
:1048980013c0b30080fe37008000eb004efb3700ea
:1048a800634c80004f6297000440e800c0679f0097
:1048b80055b32000954278000504e10067ff3900f0
:1048c80082ff3700634c8000e18f410081ff3a008e
:1048d8009fff37008869ef00030078004f077800d2
:1048e8004f06be004f05be004f04be000f05b100c5
:1048f80000000600d9f737000409a800cf62970026
:104908008580fb00c208dd00800220000100400015
:10491800801f780060c07e0087e9b7004f007800ec
:10492800a0c0b30086e9b70047ccbf0085e9b7004f
:1049380046ccbf0084e9b700b20220000101410063
:104948000d0141001240780083e9b700a102b000d0
:104958008d8040001140780082e9b7008169ef003e
:1049680090c0b30080e9b70070c7b30006e9b7008c
:1049780030c0b30008e9b7000969ef0011407800ba
:104988000ae9b700124078000be9b70040c0b3004d
:1049980007e9b7001100780041fa2f008f80400026
:1049a8004df20700cf6097000180fb004200dd0058
:1049b800a002b0008080eb0001b07e00030120005f
:1049c800f8f8370040b4200022c0b300904f11001f
:1049d8007602320024fb2f0004804700c5792800a6
:1049e80007000900355878008000b1001001be00aa
:1049f800c24c8800d34c88003f9a9700cf9a970002
:104a0800e44c8800f54c88008869ef000040eb0012
:104a1800ccf60700c00320004f0778004f06be0001
:104a28004f05be004f04be000f05b1000000060090
:104a38008af7370099f10700c0679f00e14f5000df
:104a48008d003200cf629700e4cf52000afa3a0094
:104a580092f107008045780030628000800f550091
:104a680005fa32003fe39700e14f5300510036004a
:104a780071fa2f000180470008f307000004e000e6
:104a8800fdf932007f6097008080fb008180400044
:104a9800e4804000cdae200061817e00b208900025
:104aa8000140a1003109980086f107007f60970056
:104ab8000080fb00000040006400400060807e0031
:104ac8008298200012417800224098007f60970069
:104ad8000080fb00000040006400400060807e0011
:104ae800cfe99700334898007f6097000080fb006b
:104af800000040006400400060807e002fea9700bc
:104b0800244898007f6097000080fb000000400068
:104b180064004000e0807e00cc009800e0807e00c9
:104b2800ba009800e0807e00bfe297000540e900e7
:104b3800c04098007f6097000080fb0000004000a4
:104b48006400400060807e003e4098007f609700cf
:104b58000080fb00000040006400400060847e008c
:104b680088c9bf005331070080047800000c780022
:104b78000000e000970332000043eb00c6679f0087
:104b88007f6097000080fb00000040006400400048
:104b980060807e009000780040c0b30080487800b4
:104ba80010c0b300c0679f008849e200df003a00e8
:104bb800ec0aa8000a007800aaf10700c0679f0065
:104bc800f84f5000acf93200d6f307009d1f0700dc
:104bd8008869ef0081992000c2c7200007000900fa
:104be800b258780003992000c4c7200007000900c4
:104bf800b45978008042eb00c5679f0005407800f3
:104c0800a2c0b3000440bc00816280008100410062
:104c1800a2c0b30040c52000872d0700e0628000d5
:104c2800800f5500f10632004f6397000640e800f8
:104c3800c0679f00e74f5000f1ff3600c303200014
:104c48000b68a300fef63a0001c2b30001c065007c
:104c580088e9b700f1814100030078004f07780028
:104c68004f06be004f05be004f04be000f05b10041
:104c780000000600f9f63700ed0aab0071ff3200bc
:104c8800306280008a0f5000b4fb320018c0b300b5
:104c9800a86f9f0001f10700b06f9f00fff00700a9
:104ca800c06f9f00fdf00700e06f9f00fbf007005a
:104cb800f06f9f00f9f00700804578008040e80019
:104cc80081779f0070cdb300a349e30002003e0046
:104cd8000140e80080779f0030cbb300a349e30090
:104ce80003003e000f7097000040e80080779f00a7
:104cf800f0c8b300a349e30003003e000f7097001b
:104d08000040e80080779f00b0c6b300a349e300e5
:104d180003003e000f7097000040e80080779f0076
:104d280070c4b300a349e30003003e000f7097006e
:104d38000040e80080779f0030c2b300a349e30039
:104d480003003e000f7097000040e80080779f0046
:104d5800cf6897003f6a9700ff9197000a01780093
:104d680008407800faf007000004e0000300320071
:104d7800c04c8000e10f4000cc063200804c80001f
:104d880038f10700f84f50000500320050648000e9
:104d9800000cb20001042000810f5000b60632005a
:104da800884c8000f0618000800f540032f93a008e
:104db80012c7200012417800306280008a00780013
:104dc800f7f307000004e0002bf93a00ff90970082
:104dd80030628000810f5000930632000100780095
:104de80020f10700f84f50008a063a0082fa2f0097
:104df800828047000c007800fbf307000004e00005
:104e08004700320004c9bf006145600044003a0011
:104e180071902000914078000180fb00899020006b
:104e2800af69970003f07c000140e8000080fb00b8
:104e38003f6a970004f07c0001c0e8000080fb0096
:104e4800cf6a970005f07c0063c040000080fb003b
:104e58005f6b970006f07c0064c040000080fb0098
:104e68006f69970002f07c0065c040000080fb007d
:104e7800ff69970003f07c00e6c040008000fd0059
:104e880007e9b7008000fd0068902000184478000a
:104e98007bf007008880fb0080f07c008845e900f3
:104ea8008b80fb00a0c0b30080f07c0088c5e900bf
:104eb8000b80fb0071c4200011f07c00e345540016
:104ec8000b80fb0061c4200011f07c00e445540015
:104ed8000b80fb000fea970004f07c00e5455400c6
:104ee8000b80fb000cf07c00e64554000b80fb00b7
:104ef8000af07c00e74554008b80fb0090c0b300ab
:104f080080f07c00e84554000b00780006e9b70003
:104f18004f90970041fa2f008f804000eef0070075
:104f2800c81e0700030120009ef73700cf649700d2
:104f38007f6097000080fb00000040006400400094
:104f480060807e000984fb001004440053f00700d1
:104f5800004c78008944e800c9679f008849e2004e
:104f680013ff3200cf6497007f6097000080fb003a
:104f7800000040006400400060807e000984fb005f
:104f88001004440045f00700004c78008944e8000c
:104f9800c9679f008849e200e4ff3a0004ff370030
:104fa8003ef0070080407800c0679f00e64f500041
:104fb80014013200ed0aab00aff83200e14f5000a7
:104fc80032ff3200e34f50002c023200e24f500013
:104fd800a9f83a0031f00700804678002ff0070062
:104fe800a0e79f002df00700e07f9f002bf007004f
:104ff800f07f9f0029f0070080c79f0027f0070077
:10500800e0e79f0090c79f0024f0070080457800e4
:105018000d4278008fa197000a017800afe0970051
:10502800084078004af007000004e00069043200f4
:105038007f9a9700a4b79f000002eb0009ad2000fb
:10504800890178000444780004017800930078000e
:105058000100e0000400320061489000afe29700d0
:1050680080cf5200940332000844e8000402e800ac
:105078008381e800e40f5200f2ff3a00e44f540045
:10508800b70332000881fb008f0337009809e2005c
:1050980035003a009a09e20033003a009c09e20020
:1050a80031003a009e09e2002f003a002c0ca900ba
:1050b800ec6aa8008198200091407800e1806000a7
:1050c800c908dd00605780000090a1000100700051
:1050d80060578800ed4aa8003f6bef00ed2aab004f
:1050e80002003a0080c1b3003febb700c0fd2f00bb
:1050f80000804700e02f07006faa9700ffaa9700db
:10510800045a8800155a8800919820009140780028
:105118008180fb000101e9004f11de004d11dd0027
:105128006057800000d0a10002007000e18060009c
:10513800ce08dd0000e0a100010070006057880083
:1051480020c0b30044ebb700000020004f077800f0
:105158004f06be004f05be004f04be000f05b1004c
:1051680000000600bdf53700809920005df50700b6
:10517800c0679f00f84f500083033a0080ccb3000b
:1051880088e9b700c00320004f0778004f06be002b
:105198004f05be004f04be000f05b1000000060019
:1051a800aef537008a8ca8008aaca9008b0ca80041
:1051b800534c8000a34090008107b200c508dd0071
:1051c80040648000f20f2f000200600001007000b0
:1051d8004064880093409000cc08dd00f2ff200076
:1051e8000200600001007000406488009340900055
:1051f800010fb200c408de005064800002ff2f00d7
:105208000200600081007000a3c9bf0088ecb700ed
:105218004f20de004a00dd0001a0a1008080700060
:10522800516488000041eb00234090000004e00036
:10523800a2fa3d0006fb3700ed0aab000ef832007b
:10524800bfe29700e1cf52000bf8360004c9bf0057
:10525800e146600008f83a004feb97000681fb0032
:105268004611de0080fa2f00808147008c0078000c
:105278000d40780053f40700800478000000e00037
:10528800ad023200e10f5000fbf7320068902000b9
:10529800184478007aef07008880fb00859020008a
:1052a80080f07a008845e9008b80fb00a0c0b3003d
:1052b80080f07a0088c5e9000b80fb0071c42000eb
:1052c80011f07a00e34554000b80fb0061c4200014
:1052d80011f07a00e44554000b80fb007fe1970051
:1052e80002f07a00e54554008a4178000b80fb0003
:1052f8000af07a00e64554000b80fb000df07a00b6
:10530800e74554008b80fb0090c0b30080f07a0022
:10531800e84554000b00780006e9b70072902000b9
:10532800124178008280fb0030c0b30080f07a0020
:105338000240e80007e9b700e28f54007802320023
:10534800e38f540070023200e48f54006902320087
:105358000080fb000df07a0002c0e80007e9b70002
:1053680071902000914078000180fb0003f07a00e2
:105378000140e8000080fb00ffe1970003f07a009d
:1053880081c0e8000100780007e9b700804c800080
:1053980041fa2f008f804000cfef0700e0fe370072
:1053a800804c8000914c800013fb37009869ef0017
:1053b8009969ef009a69ef009b69ef009c69ef001b
:1053c8009d69ef009e69ef009f69ef008869ef0013
:1053d8000040eb005bf40700c00320004f07780093
:1053e8004f06be004f05be004f04be000f05b100ba
:1053f8000000060019f53700ec2aa9006057800064
:10540800fdf4370025ef070088e9b7008d1d070078
:1054180071902000914078000181fb008590200068
:1054280070c0b30000f17a008140e8000100780004
:1054380007e9b70000ac200085bf9f00a9f407006a
:105448008fba9700f84f5000fe0332007290200088
:10545800124178000280fb0041c8200011f07a0058
:105468000240e8000080fb0051c8200011f07a00db
:1054780002c0e8000080fb008040eb0001f07a00e9
:10548800634141000200780007e9b7001ec0b3007d
:1054980026bc2000c079280007000900305b78008e
:1054a8008040eb00c1679f00014078006b902000ae
:1054b8009b45780023bc2000014178008b80fb00cd
:1054c8000080fb006700100060c0790080f07a005f
:1054d8000b46e9008c4578000241e800024078005c
:1054e800e74f5100f5ff36000c00780006e9b700d9
:1054f8000041eb00c2679f000240780009ac200021
:105508008c41e9000b4478008b80fb000080fb0095
:105518006700100060c07c0080f07a00834078004b
:10552800834578008341e9000241e80002407800a1
:10553800e74f5100f3ff3600e845560080c0b3003e
:10554800c0679f008000fd0006e9b7008000fd00ed
:1055580085bf9f00caee07008b80fb008fba9700bb
:1055680080f07a00e94556008b80fb0010c0b3003c
:1055780080f07a00e34554000b80fb0071c42000e2
:1055880011f07a00e44554000b80fb0061c4200050
:1055980011f07a00e54554000b80fb00ffe197000d
:1055a80003f07a00e64554000a4178000b80fb00be
:1055b8000af07a00e74554008b80fb0080c1b300f5
:1055c80080f07a00e84554008b80fb0090c0b3005f
:1055d80080f07a00e94554000b00780006e9b7002e
:1055e8000e04e000d8003200eceaa80088c9bf0029
:1055f800aaebb70010c0b300abebb7002164800082
:10560800915d88000456800015568000d45d88009e
:10561800e55d88002056800031568000f05d8800e6
:10562800015e88004868dd008280fb000100700090
:10563800f055880041fa2f008f80400026ef0700c0
:10564800404c80006a006000ea0f5000d4f5320038
:105658008b49a800000120004f0778004f06be00c4
:105668004f05be004f04be000f05b1000000060044
:105678007af4370082447800a0b4200001c3b30054
:105688001004e00052fb32008944e8000080e80082
:1056980081cf5400faff3a0014007800704090005f
:1056a800a2e9b70010cfb30088e9b7000380410032
:1056b8007800400060807e00100078007f2e070090
:1056c8004f6397000680fb00000040007800400010
:1056d80060807e00792e0700cf6097000180fb0074
:1056e80000004000780040000cb07e000409a900ca
:1056f800fbc7b3000b00780006e9b7000c00780080
:1057080007e9b700430320001ffb37002bf0070011
:105718000004e0009e023a0010c0b30088e9b70018
:105728008ea9ef00700120004f0778004f06be00d9
:105738004f05be004f04be000f05b1000000060073
:1057480046f43700c0679f008000eb004a4be20038
:105758000c00320012002000c3b420000403200013
:10576800c2679f00840f51004e0432008200780007
:10577800134078000201e8008381e8000004e0009b
:10578800f7ff3a0081804000a0b42000229a200050
:105798009270780061902000914078000180fb00b1
:1057a80082902000239a2000137079008145e90037
:1057b8000b80fb00039920001370790081c5e90074
:1057c8000b80fb0073c4200013707900e3c5500000
:1057d8000b80fb0063c4200013707900e4c55000ff
:1057e8000b80fb009399200013707900e5c55000e9
:1057f8000b80fb008399200013707900e6c55000e8
:105808008b81fb0089c9bf0000404000807179008e
:10581800e7c550008b81fb0091c9bf004600dd0041
:105828000034a00080717900e8c550000b007800b2
:1058380006e9b7004f90970072fa2f008280470060
:10584800a5ee0700cf6197000380fb000000400031
:1058580091b420007f62970004f0780000012000d6
:105868004f0778004f06be004f05be004f04be002c
:105878000f05b10000000600f8f3370004c9bf00a7
:10588800e14560007cf63a00799020009944780060
:105898000980fb008d90200001f07e000944e8009b
:1058a8000004fd0007e9b7000004fd00fbed070058
:1058b8000884fb0000f47e0089c4e8008004fd0031
:1058c80007e9b7008004fd00f4ed0700719020009f
:1058d800914078000181fb0000f17e008140e800e2
:1058e8008000fd0007e9b7008000fd00ebed070030
:1058f80071902000914078000181fb0000f17e004a
:105908008140e8008000fd0007e9b7008000fd0045
:105918004c1c070030628000800f560033023a00aa
:105928000b00780007e9b700000020004f07780057
:105938004f06be004f05be004f04be000f05b10064
:1059480000000600c5f33700eceaa90027ff37007e
:105958008fb097000184400064004400cdae200061
:1059680060807e00b000900030628000808f500020
:1059780046f53a008044eb00a0b4200001c3b30010
:105988001004e00042f532008944e8000080e80095
:1059980081cf5400faff3a0010cfb30088e9b7006e
:1059a80064014400e2807e0031409000a2e9b70023
:1059b800310890000050a000b008980062807e0076
:1059c80030089000430320000048a30047fa3a003b
:1059d800a9f337007f6097000080fb0000004000bb
:1059e8006400400060807e00b42d07007f6097004f
:1059f8000080fb00000040006400400009b07e0009
:105a0800101c0700090078004f0778004f06be00f9
:105a18004f05be004f04be000f05b1000000060090
:105a28008ef33700c04c8000d8f8370063ef0700ca
:105a38000004e0000a003a0070ccb30088e9b7001f
:105a4800b00320004f0778004f06be004f05be0088
:105a58004f04be000f05b100000006007ff33700b9
:105a68008eef0700c0679f00f84f5000f2ff32002a
:105a780054f007008869ef00b00320004f07780052
