:020000040000fa
:080000000002040000000000f2
:020000040000fa
:100400008fd121000e7f22000e0188000000000025
:100410000c00070000562800010020000f00070014
:10042000000020000000e000020032000000020096
:1004300000000000ac790200000000000040da007b
:100440000000fe00201020000000e000020032004a
:10045000002020009001880000000600a102880012
:10046000800078000000eb001a003700e2804000b6
:1004700054a0b4009101ba00e280400054a0b4003e
:100480009102ba00e280400054a0b4000002eb00e8
:10049000472bde00f507b200a6018800602ce100c2
:1004a00008003a000049eb000201e80002003900b0
:1004b0003420ec0002f0a0008301e900f9ff3e00c7
:1004c000040037006128e100010032000082eb00e7
:1004d000040007001101ba000200e000e3ff3a0047
:1004e0000000060004d0a300e20f49001c00390000
:1004f000810278003549ba000201e80002003900a3
:100500003420ec0002f0a0008301e9000f0032006b
:100510002549ba000201e800020039003420ec004d
:1005200002f0a0008301e900080032000400e000ae
:100530000600320015c9ba000201e80002003900c5
:100540003420ec0002f0a0008301e9008180e80083
:1005500054a0b4000300e000e2ff3a0000000600ef
:100560009102ba00055978008301e900f7ff3200d3
:10057000c82ade00055978008301e900f3ff320044
:100580000400e000f1ff320011d9ba00eeff37009d
:100590000040da000000fe00889fbe008004780062
:1005a000e06880000000e00003003a00100007004f
:1005b0000000e0000a003500e06880000900e0006b
:1005c00002003a00000478000600370000047800ba
:1005d00009004000060007000000e00001003d00a7
:1005e0000084eb00080078004f04be000000060005
:1005f000800078000000e00004003a00e0d1200014
:10060000e068880001017800060037000081eb00f7
:1006100080d12100808f500002003e00e1688800f8
:100620000001eb000200780000000600889fbe0079
:100630008a9fbe00010578000100e000040035003b
:1006400008003c000000e0002000320005003700f8
:1006500060001000e080180002003b0001f02c0058
:100660001a0037000004be006011b8006b092000ba
:100670000982cf00020039000882cf000441b00097
:10068000694252000e00320008003b008281710076
:10069000610164008904d1000884d3008b05e8005f
:1006a0000442e800f9ff3a0005003700080444005e
:1006b00089844c008b05e9000442e900fbff3a0005
:1006c000650007000af0a70001f0a0004f05be007a
:1006d0004f04be000000060003f0a200889fbe0089
:1006e0008a9fbe008c1f78008100070088003300bd
:1006f0006450e1004f0032006420e10052003200fb
:1007000003826c0007003b000905d0000306d000ff
:10071000820f54000c065d00020039000200320016
:1007200089017800030678008582550004003d00a9
:100730000003fd008103fd008502ea008b85420075
:10074000840f720002003b0060001000e08018007f
:100750006011b8000005eb007a28e1000a003900ba
:1007600006007800c75ddd00f707b20087807500de
:100770002d003700828171000a0178006105600058
:100780008180d1000080d3008502e900f9ff3b00a1
:10079000060440008784480002003b006004140007
:1007a000e0841c000988a300070032008a817100e0
:1007b00082817100610164008904d1000884d30042
:1007c0008b05e800170037000978a30013003a00f2
:1007d0000b00e000130034008b05e900080444001e
:1007e00089844c000a4474000978a3000d003a0083
:1007f0000b00e000070034008b05e900080444000a
:1008000089844c0001003a000b0020000978a30005
:10081000f7ff32000001eb00020037008281710017
:100820000a0178000c0007000cf0a70001f0a000fe
:10083000400037006420e10002003a00838f6c0022
:10084000400033000801be000200be00390037003e
:10085000f4ff2f003e00370081002000618055002a
:100860000b003d000b00200061fe2f000100e100a5
:100870001d00340082817100610164008904d1008f
:100880000884d3000000e800faff3a00710020005d
:100890006100640003007000020060000900320083
:1008a00061044400e0844c000988a5000500320082
:1008b0008b05e8006808e10002003a008904d100d5
:1008c0000884d300f20f20000258e10005003d002b
:1008d000c75ddd00f907b200898075000800780067
:1008e000000006000bf827008b00780000000500d0
:1008f0000004be00310007000003be000405be0076
:100900000200be002d000700844f750000000600a5
:100910000200be006450e100050036006420e100e2
:10092000020036000968a30001003a000800be007a
:100930000160a0004f0678004f05be004f04be00c6
:1009400000000600f0ff2f00f1ff2700f9ff37003d
:10095000889fbe008a9fbe00841f7800e4ff0700c6
:100960004f00780011003300f0ff2f00838f6c00e0
:1009700006003b00040565000a00a70008003700d8
:1009800009f0a6001000200008003700820f540074
:10099000838f5c00030039001000200001003e003e
:1009a0000000200009f0a7000000ea004f05be008b
:1009b0004f04be000000e00000000600c70ade0091
:1009c000f107b200f50fb20008003200e1cf42009b
:1009d000020032000170a00024000500810f7000a9
:1009e000010032000408050044000500810f70007a
:1009f00002003a00140005008502e90000004000f2
:100a000081c04800fcff3b000170a00024000500ed
:100a1000889fbe008a9fbe008c9fbe0000017800a8
:100a200041d120001100e0000b003a0080d12000ed
:100a3000a068880080688800c16888009168880084
:100a4000214090000004a000a04098006140900068
:100a50000004a000e0409800e7004100c208de006a
:100a6000c20cdd0094688000edd1200080d121000f
:100a70000d05500022002000811f780011000900a0
:100a80000205d80000067800cf007800c308dd001a
:100a9000e48540008001eb00e6d1200045d1200034
:100aa0000100370001027800244090000008a300f4
:100ab000020032000a003700110a78009400780022
:100ac000214090000008a300fbff32000901420012
:100ad000828f500002003900840f5100460031001f
:100ae00094007800848f5000eeff3e00868f500007
:100af00002003900858f5000eaff390080688000cd
:100b0000800f52004f003a00858f50004d003a0090
:100b10008301e800e18f5100e2ff36008c8f540022
:100b2000040036008a8f5400020031000b04780064
:100b300012003700614ab8006151b900b0ff2f00c0
:100b4000010020000200500083805800800f5200f6
:100b5000818f5a0002003500090478000700370031
:100b60000d805400b2d121000200400011000900a4
:100b70000a80d8000a80b9000004780008007800d4
:100b800085fe070080017800e10f40002d00320053
:100b9000806880000308780082688000640041005b
:100ba000a2409000808f5100020032000104a0009a
:100bb000010037000104a100214198000880410094
:100bc00064005000800978008068880042d12000cd
:100bd0000208780081688000214090000004a00095
:100be000a0409800234090000004a100a04198007c
:100bf00002027800a7ff370092688800828f5000b9
:100c00000900360092007800e0d02000a241900058
:100c10000348780061688800140978008040eb0080
:100c2000906880002140980090688000000a780059
:100c3000244090000004a00020429800640042007c
:100c4000010037000000eb004f06be004f05be005c
:100c50004f04be0000000600640050009068880049
:100c6000a04090000104a10021409800000006006f
:100c7000889fbe008a9fbe0000057800e4015000f6
:100c800013001000c285de00234090000008a3007e
:100c90000400320093688800234090000004a10003
:100ca000a04198000100780059ff07000004780077
:100cb0000000e000170032008a0f500015003200db
:100cc00060b8970008005000c284de00898f55008c
:100cd00001003600890578004259dd008a0078005d
:100ce00008007800290007008a0f5400090031002d
:100cf0004248dd00000044008a0f50000500360025
:100d00000a005000000044006268800073688000a0
:100d10000288be00080078004f05be004f04be00e8
:100d2000000006000400fa00e0bf9f00e4815700c5
:100d3000812978000002eb000f0037006fb89700a0
:100d4000904078007fb89700104078000402e800d7
:100d500080cf5000040032008180fb000080fb0047
:100d600000805000070037006fb897000000e800cf
:100d7000e0bf9f009309e800820f5200efff3a00a6
:100d80000000eb000080fa00000006008001eb008c
:100d90000200370061f079008301e800828f510082
:080da000fcff3a000000060010
:020000040000fa
:020000040002f8
:04aff400ffff00005b
:020000040000fa
:020000040002f8
:04aff8002ef800002f
:020000040000fa
:020000040002f8
:04affc00d93f000039
:020000040000fa
:10000800c8020000c8020000c8020000c8020000c0
:10001800c8020000c8020000c8020000c8020000b0
:10002800087b0000c8020000c8020000c8020000e7
:10003800c8020000c8020000c8020000c802000090
:10004800b27a0000c8020000c8020000c80200001e
:10005800c8020000f27a0000c8020000c8020000ce
:10006800c8020000c8020000c8020000c802000060
:100078006a7e0000c8020000c8020000c802000032
:10008800c8020000c8020000c8020000c802000040
:10009800c8020000c8020000c8020000c802000030
:1000a800c8020000c8020000c8020000c802000020
:1000b800c8020000c8020000c8020000c802000010
:1000c800c8020000c8020000c8020000c802000000
:1000d800c8020000c8020000c8020000c8020000f0
:1000e800c8020000c8020000c8020000c8020000e0
:1000f800c8020000c8020000c8020000c8020000d0
:10010800c8020000c8020000c8020000c8020000bf
:10011800c8020000c8020000c8020000c8020000af
:10012800c8020000c8020000c8020000c80200009f
:10013800c8020000c8020000c8020000c80200008f
:10014800c8020000c8020000c8020000c80200007f
:10015800c8020000c8020000c8020000c80200006f
:10016800c8020000c8020000c8020000c80200005f
:10017800c8020000c8020000c8020000c80200004f
:10018800c8020000c8020000c8020000c80200003f
:10019800c8020000c8020000c8020000c80200002f
:1001a800c8020000c8020000c8020000c80200001f
:1001b800c8020000c8020000c8020000c80200000f
:1001c800c8020000c8020000c8020000c8020000ff
:1001d800c8020000c8020000c8020000c8020000ef
:1001e800c8020000c8020000c8020000c8020000df
:0801f800c8020000c80200006b
:020000040000fa
:10020800c8020000c8020000c8020000c8020000be
:10021800c8020000c8020000c8020000c8020000ae
:10022800087b0000c8020000c8020000c8020000e5
:10023800c8020000c8020000c8020000c80200008e
:10024800b27a0000c8020000c8020000c80200001c
:10025800c8020000f27a0000c8020000c8020000cc
:10026800c8020000c8020000c8020000c80200005e
:100278006a7e0000c8020000c8020000c802000030
:10028800c8020000c8020000c8020000c80200003e
:10029800c8020000c8020000c8020000c80200002e
:1002a800c8020000c8020000c8020000c80200001e
:1002b800c8020000c8020000c8020000c80200000e
:1002c800c8020000c8020000c8020000c8020000fe
:1002d800c8020000c8020000c8020000c8020000ee
:1002e800c8020000c8020000c8020000c8020000de
:1002f800c8020000c8020000c8020000c8020000ce
:10030800c8020000c8020000c8020000c8020000bd
:10031800c8020000c8020000c8020000c8020000ad
:10032800c8020000c8020000c8020000c80200009d
:10033800c8020000c8020000c8020000c80200008d
:10034800c8020000c8020000c8020000c80200007d
:10035800c8020000c8020000c8020000c80200006d
:10036800c8020000c8020000c8020000c80200005d
:10037800c8020000c8020000c8020000c80200004d
:10038800c8020000c8020000c8020000c80200003d
:10039800c8020000c8020000c8020000c80200002d
:1003a800c8020000c8020000c8020000c80200001d
:1003b800c8020000c8020000c8020000c80200000d
:1003c800c8020000c8020000c8020000c8020000fd
:1003d800c8020000c8020000c8020000c8020000ed
:1003e800c8020000c8020000c8020000c8020000dd
:0803f800c8020000c802000069
:020000040000fa
:100da800020100000f0f0000000500000080000095
:100db8001006000000000000000000000000000015
:100dc800000a00000000000001000000020000000e
:100dd80003000000040000000500000006000000f9
:100de8002000000021000000220000000a0000008e
:100df80000800000018000000280000003800000e5
:100e080004800000058000000680000020800000ab
:100e18002180000022800000f00000000301000093
:100e2800ffff0000000200000900000007000000aa
:100e380000000000000000000000000000000000aa
:100e4800000000000000000000000000000000009a
:100e58000500000005000000060000000a00000070
:100e68000800000001000000000000000000000071
:100e7800000000000000000000000000000000006a
:100e8800000000000000000000000000000000005a
:100e9800000000000000000000000000000000004a
:100ea800000000000000000000000000000000003a
:100eb800000000000000000000000000000000002a
:100ec800000000000000000000000000000000001a
:100ed800000000000000000000000000000000000a
:100ee80010c1000000400000ce000000000000001b
:100ef8007f000000000000000000000078000000f3
:100f080000000000b4000000000000002c010000f8
:100f1800000000001c02000000000000fc030000ac
:100f280000000000bc070000000000003c0f0000ab
:100f3800000000003c1e0000000000003c3c0000d7
:100f4800000000003c780000000000003cf00000b9
:100f5800000000003ce00000010000003cc0000070
:100f6800030000003c800000070000003c00000077
:100f78000f0000003031000032330000343500002b
:100f88003637000038390000414200004344000071
:100f980045460000610100000000000000a30000b9
:040fa8000400000041
:020000040000fa
:100fac008000eb00d0568000f007b2000100320048
:100fbc00110020000100780000000600889fbe0090
:100fcc0004a9a9006c2cef006e2cef00706280005d
:100fdc005062880009c620000044eb00506280007b
:100fec0022c1b30089007800533c07000844e80094
:100ffc00200120004a2cb400f94f5400f7ff3a00ae
:10100c000040eb0052ecb7000004fd0053ecb700bd
:10101c000004fd005cecb7005decb7005e0ca900b1
:10102c00c0532a00806288006062800002c1b30055
:10103c0001c52000403c07004f04be000000060024
:10104c00889fbe008a9fbe008c9fbe0081067800e0
:10105c000206780011628000016288004bc42000f7
:10106c00000578008044eb000944780001628000a0
:10107c0062c0b3000b007800fa3b070020628000ce
:10108c008a0f500002003a0019c0b3000300370069
:10109c000844e80060002000402cb400ef4f5400de
:1010ac0003003e000904e00003003a00efff3700a4
:1010bc000904e0000600320040628000800e7800d7
:1010cc0046ccbf00004e78000980fb0003003700bf
:1010dc0030c0b300004e78000000eb004f06be009d
:1010ec004f05be004f04be00000006003c4bec0058
:1010fc003cebb70002003a0010c0b3003cebb70069
:10110c003ccbbf000080fb000000060088c9bf007c
:10111c008000eb00050032000040e90088e9b700d0
:10112c00504c8000b080fb00504c880001007800cf
:10113c0000000600889fbe008a9fbe000ac62000e1
:10114c000004eb000080fb0000004000e4054000c0
:10115c007240b9004e0cb4005062880022c1b3003a
:10116c00800078000a007800be3b070041638000d5
:10117c00804c8000808f500009003a00a0ad200008
:10118c006b0078008880fb00f68040008080400077
:10119c00114090000004a10090409800030037001b
:1011ac000804e800f90f5400e9ff3a004f05be00af
:1011bc004f04be0000000600889fbe008a9fbe0040
:1011cc008c1f7800804378000045eb00e6ab2000d4
:1011dc0068ac2000960278000500e00008003200a0
:1011ec000704e0000700320065489000814f500072
:1011fc0004003a0045009000820f500001003a00b4
:10120c001ac0b3000683e800860f5400f1ff3a00c1
:10121c0009c1b3000404e0000100350089c0b3002b
:10122c000a04e0001a00320010628000006288009c
:10123c000904e000160032004cc4200003057800bd
:10124c008045eb000b4478000162800062c0b30063
:10125c000c007800833b0700206280008a0f50004e
:10126c000300320030628000e30f500001003a00ae
:10127c001bc0b3000844e80060002000402cb40000
:10128c0088cf5400f0ff3a000b80fb0001003700c0
:10129c000000eb004f0678004f05be004f04be0067
:1012ac0000000600889fbe008a9fbe008005780063
:1012bc0070628000506288000ac620000004eb00b7
:1012cc005162800022c1b3000a007800653b070020
:1012dc006f2cab0005003200406380008b0f500078
:1012ec0002003a000880fb000600370020012000b5
:1012fc004a2cb4000804e800f90f5400f0ff3a003f
:10130c00080078004f05be004f04be000000060028
:10131c00800178000409a80022c0b3000200780004
:10132c008ee9b70030618000604c88004461800019
:10133c00844c88000001fd008fe9b7000001fd001e
:10134c00004d8800c34c880022ccbf008048780038
:10135c00a2e9b7008b69ef00e18f41000800320071
:10136c008b09a80003007800ceff0700f94f50004e
:10137c00030032006f0cab0001003a008b49a8004f
:10138c0010c0b3008ae9b700000006000200fa00a2
:10139c00889fbe008a9fbe008c1f780000067800d4
:1013ac0082057800e4cf5000130032000180fb006e
:1013bc0000004000e1ab20006080780020509000dd
:1013cc0062c0b3000440bc00116280008100410087
:1013dc000162880048c4200062c0b3000800780095
:1013ec00203b0700462cef000062800062c0b30077
:1013fc0088007800503b07007190200091407800e5
:10140c000181fb008990200020c0b30000f17c001a
:10141c000140e80007e9b7000080fb001b41900089
:10142c0002f07c0001c0e80007e9b7000080fb0077
:10143c002b41900002f07c0063c040000080fb0058
:10144c000cf07c0064c040004865de000080fb00ae
:10145c000af07c0065c0400007e9b7000080fb0083
:10146c004b41900002f07c0066c0400007e9b700d9
:10147c000080fb005b41900002f07c0067c04000e4
:10148c0007e9b7000080fb00eb4590000bf07c00f7
:10149c00e8c040008000fd0007e9b7008000fd00b7
:1014ac00689020001844780010ff07008880fb002b
:1014bc0080f07c000840e9000080fb00a1c0b30074
:1014cc0001f07c0008c0e9000080fb0091c2200004
:1014dc0011f07c00634054000080fb0081c22000ae
:1014ec0011f07c00644054000080fb000af07c008a
:1014fc00654054000080fb000cf07c0066405400fa
:10150c000080fb008040eb0001f07c006740540041
:10151c000080fb0091c0b30001f07c0068445400d3
:10152c000800780006e9b700804c8000ec8057007a
:10153c0077ff07004f0678004f05be004f04be0032
:10154c000080fa00000006000400fa00889fbe002c
:10155c008a9fbe008c9fbe000005780001067800b3
:10156c008206780011628000016288004bc4200062
:10157c0062c0b3000b007800ba3a07008a04780006
:10158c000044eb00090037000844e80001628000c9
:10159c00e68040000162880062c0b3000b00780056
:1015ac00b03a0700f04f5400060032002062800071
:1015bc00890f5000f4ff3a00150037000084fb003f
:1015cc0020003700116280000162880062c0b30005
:1015dc000b007800a33a07000044eb000900370029
:1015ec000844e80001628000e68040000162880047
:1015fc0062c0b3000b0078009a3a0700f04f540019
:10160c000300320030628000e30f5000f4ff3a0018
:10161c00884e78008000eb00e2ab2000050037001c
:10162c000040e8008100e8000281e800e48f5000ef
:10163c00e2ff320001407800010478001200e00063
:10164c00f7ff3a00004e780040c1b300bd3d0700e3
:10165c000001780088004400e0ab20008230780064
:10166c000200e00002003a00020078001b00370084
:10167c002a6288001a0020003a628800006280000a
:10168c0062c0b3008b007800ab3a0700080444003a
:10169c00e0ab2000000444009800780000c0eb0090
:1016ac00805098009804780070805700963d070091
:1016bc000fb897009fb89700808cbe001800780078
:1016cc009d4678002d509800980078000000eb00a3
:1016dc00e0009800da2aa8000a0078004f06be0045
:1016ec004f05be004f04be000080fa00000006004b
:1016fc000400fa00889fbe008a9fbe008c1f7800f1
:10170c00000678000000eb00e1ad2000050037007a
:10171c000844e8000000e8008180e800e70f500072
:10172c000500320000447800800478001100e000cd
:10173c00f7ff3a0003003700e74f54002c0032004b
:10174c008884fb0000c3b3007e3d07008980440001
:10175c0064854000abad200000b57d000000e000ca
:10176c0023003200084e7800ea807d0000c0eb00b8
:10177c00c04898006a847d006e805700623d070067
:10178c001fb89700afb8970070049800010c980030
:10179c00100c9800210c9800ea807d003108900014
:1017ac000050a100b00898006a817d0032089000ba
:1017bc0001ff2f00010060000010a000300998000c
:1017cc000001eb008a0078000b02780033c0b300f4
:1017dc0061007a0002004000735098000201e8009a
:1017ec00f90f5100faff3a001000200001003700f9
:1017fc000000eb004f0678004f05be004f04be0002
:10180c000080fa00000006000b4de20019003a00bf
:10181c000e0cab0014003200c0c5200031c1b30067
:10182c0090cf100010003e008829ab0002003a0057
:10183c00db6aab000a00320040c5200041c0b30097
:10184c0090cf100008003e00d0c5200051c0b3005e
:10185c0090cf100004003e00db8aab0002003a007f
:10186c0010c0b300010037000040eb000080fb000b
:10187c0000000600c0c5200031c1b30090cf10009d
:10188c0010003e008829ab0002003a00db6aab0076
:10189c000a00320040c5200041c0b30090cf1000b8
:1018ac0008003e00d0c5200051c0b30090cf1000fe
:1018bc0004003e00db8aab0002003a0010c0b3000b
:1018cc00010037000040eb000080fb000000060028
:1018dc00889fbe008a1f780070628000506288006a
:1018ec000ac620000004eb005162800022c1b30044
:1018fc000a007800db3907006f2cab0002003a00bd
:10190c000880fb0006003700200120004a2cb400a0
:10191c000804e800f90f5400f3ff3a0008007800bf
:10192c004f0578004f04be0000000600d1082000cf
:10193c00e24f50001000320006003e00d14321005f
:10194c000004e0000c003200e14f500007003a00a8
:10195c000800370051012000e34f50000600320010
:10196c0011002000e44f5000030032008000eb0017
:10197c0001003700d135200001007800000006007e
:10198c00889fbe000004be000204e0000700320085
:10199c00810f5000070031000240e900e3ff07000f
:1019ac0000004400808f5400020031001000200021
:1019bc00010037000000eb004f04be0000000600e1
:1019cc00889fbe008a9fbe008c1f78008004780020
:1019dc000106780070628000506288000ac6200000
:1019ec00890578000044eb005162800022c1b300ed
:1019fc000a0078009b39070070638000002cb2004d
:101a0c0001242000810f50000e003a004363800037
:101a1c00838f550007003200544cec0000417800d5
:101a2c008900780003007800d5ff07000004e0006f
:101a3c000400320040638000000e7800100020008b
:101a4c0012003700200120004a2cb4000844e800a2
:101a5c00f94f540005003200e3ff370000618000ad
:101a6c00000e7800100020000800370042c520004e
:101a7c00124178004061800089007800c0ff0700a7
:101a8c000004e000f5ff32000000eb004f06780088
:101a9c004f05be004f04be00000006000004e0002d
:101aac00220032000f6cef0010c2b30010ecb70034
:101abc0041c52000914078004309dd000200780008
:101acc0011ecb700c0c5200033c1b30090cf11009a
:101adc0016003e0020c5200083c1b30090cf11003a
:101aec0012003e00d356800003b8a30006003a0053
:101afc00e4cf50000d003e00024078000074a000be
:101b0c0011ecb70002003700e4cf500007003e0094
:101b1c00d0c5200051c0b30090cf100003003e0090
:101b2c0003c8a30001003a00114ca80000000600f5
:101b3c007263800082007800010cb2000004200067
:101b4c00808f500009003a005c6ced0002007800b8
:101b5c000003b200f00f500001003a005d6ced0084
:101b6c0010c0b300cdff0700040037000100e000f7
:101b7c0002003a0090c1b30053ecb7006f2ca900df
:101b8c006c2cef006e2cef005062800022c1b30071
:101b9c0001c6200068390700526ced0060628000bd
:101bac0002c1b30001c520006339370000c6200014
:101bbc00019920000700090031587800306180003d
:101bcc005063880070ecef008829ab000a003a00e3
:101bdc006e8ca9006eaca800c062800040638800c7
:101bec000000e800c0628800e20f400010003a00dc
:101bfc00db6aa8000e0037006e8ca8006eaca90042
:101c0c00d0628000406388005d6cec00b2628000a2
:101c1c0002004000d06288006611b900416180006a
:101c2c0001014100820f500001003600db8aa80040
:101c3c00414c8000c508dd000110b20070638000cb
:101c4c000080a10001007000706388006ecca800b9
:101c5c006eeca9006f2ca8005062800022c1b3006a
:101c6c0001c62000343907005c6cec00526cec00af
:101c7c006062800002c1b30001c520002e3907004c
:101c8c0010c0b30085ff3700889fbe008a9fbe003e
:101c9c008c1f780080057800010678007062800047
:101cac00506288000ac620000004eb0051628000dc
:101cbc0022c1b3000a007800ea3807006f2cab0091
:101ccc0008003200406380008b0f500005003a0082
:101cdc00506380008c0f500002003a000880fb001b
:101cec0006003700200120004a2cb4000804e8004c
:101cfc00f90f5400edff3a00080078004f06780009
:101d0c004f05be004f04be00000006000a00fa009a
:101d1c00889fbe008a9fbe008c1f7800004478000c
:101d2c00014678008000eb0022af20000500370050
:101d3c000040e8008100e8000281e800e68f5000d6
:101d4c000500320001407800010578001200e00027
:101d5c00f7ff3a0003003700e64f50002f01320026
:101d6c000085fb00c0c0b300f63b07008000780084
:101d7c000a004500f8044000abad200081b47d00a2
:101d8c000100e000250132000804e0004e003200a2
:101d9c0040618000a000980069807d00c14c8000eb
:101dac003100980069817d0006c9bf000749b50064
:101dbc0071c8b300014040002041980069807d004b
:101dcc0020409000df3b0700000478000000e0009a
:101ddc0005003a0069807d00dc3b070088b47d007b
:101dec00400020000e0137000a004500780040003a
:101dfc00a1ad200060807800080878004660dd0006
:101e0c000034a000004c780089c9bf00004040009d
:101e1c001044980098c9bf00204498009199200064
:101e2c00914078003144980028ccbf004044980081
:101e3c0091c2200091407800514498000c992000e8
:101e4c001c4678006c449800a2c9bf0070449800ee
:101e5c00680144006190200091407800e0c7b30015
:101e6c0080cf50000a003e00849020008041780012
:101e7c000140e80006e9b7000080fb0060597a00d9
:101e8c00619020009140780083cf5000f8ff36001d
:101e9c000749ed0007e9b700e14f40004700320069
:101eac00820078008390200002c050000080fb006c
:101ebc00e0d879000749ed0007e9b700e14f400091
:101ecc003e003200f8ff3700c0ff2f008a29b40013
:101edc000a00450078044000a9ad200068807c0011
:101eec00814c800021009800e8807c008a09ed007c
:101efc00504c880010407800f0409800e8807c003e
:101f0c008a09ed00504c880010407800e0409800a1
:101f1c008aa9ed0088c9bf006840400088e9b70075
:101f2c00e8807c00a040980068807c0020409000f5
:101f3c00843b0700800578000000e0005d00320063
:101f4c000a00450078004000a1ad200060807800b8
:101f5c000b0878006dfc0700f043b200c660dd0092
:101f6c0080cd700069fc07009045980067fc070065
:101f7c00a045980065fc0700b045980063fc07007d
:101f8c00c045980061fc0700d04598005ffc070035
:101f9c000046e900ec4598005cfc0700f045980011
:101fac00688445008849e2000400320057fc0700b1
:101fbc00005c78008849e200fcff3a000a0045000a
:101fcc00f8044000abad200069847d00728057009e
:101fdc004d3b07007fb097008fb8970040049800e6
:101fec005104980069807d00300090007481570086
:101ffc00f380570054fd07000004e00009003a008c
:10200c0069807d0010007800503b070069807d00de
:10201c004e3b07000000eb0080b47d004000200028
:10202c007f0037000409a900f0c7b30006e9b70028
:10203c000769ef005fe897000080fb00000040009c
:10204c00e9ab200060847c00e0c0b3003d3b07009e
:10205c0080057800600498000000e0001a003a0047
:10206c0010002000306288000062800062c0b30063
:10207c0041c42000303807005fe897000080fb0067
:10208c000000400060807c00303b07005fe8970058
:10209c000080fb00000040000bb07c000a044500ef
:1020ac0078044400a9ad200068807c001000780002
:1020bc00263b070068807c00243b07000bb47c00a7
:1020cc0040002000560037005fe897000080fb00be
:1020dc0000004000e8ab200060007c0011af200045
:1020ec0091407800614898005fe897000080fb0001
:1020fc000000400060007c004161800041009800bd
:10210c005fe897000080fb000000400060007c004e
:10211c008044eb00794898005fe897000080fb0052
:10212c000000400060017c0012089000f18f2f002d
:10213c000100600000a0a000100998005fe8970063
:10214c000080fb0000004000e0007c0011089000c3
:10215c0000b0a1009008980010c0b300804d78002a
:10216c0000c8b30090459800f1cabf00a045980084
:10217c000040e800f1eab7000a0045007800400092
:10218c00a2ad2000e0007900e1409000b14598003c
:10219c006000790070409000c0459800d9459800c7
:1021ac00d2fb0700e0459800fc45980029ccbf0005
:1021bc00804d980081c2200091407800914d98008c
:1021cc0000c0eb00a04d9800c0cfb300b04d9800fc
:1021dc00c94d980090c0b300d04d98006e80570048
:1021ec00c93a07005fe897000080fb000000400040
:1021fc0060027c001fb89700afb89700d21f2c006c
:10220c00f3ff2f000000410081804900200298005c
:10221c00310298001000200001003700400020001f
:10222c004f0678004f05be004f04be000080fa0038
:10223c00000006000200fa00889fbe008a9fbe00c4
:10224c00804578000104780002457800830478000a
:10225c000100780013fc0700f94f50000a0032000f
:10226c0071638000010cb20000042000808f5000cc
:10227c00020032000100e00003003a00880c7800f4
:10228c000000eb00260037004261800004c8b30058
:10229c00880178008040eb0001407800c6fb070005
:1022ac000004e00015003200e24f550004003a0033
:1022bc0011c0b3000b40780094fe070018003700e3
:1022cc006a8157000800be005dfb07000004e000b7
:1022dc00040032006ff097000004e00007003a00a1
:1022ec000e003700e14f550004003a008a40780098
:1022fc000b40780085fe0700090037000800be007f
:10230c00affd07000004e00004003a0010cdb3005c
:10231c0088e9b70020002000010037000000eb0026
:10232c004f05be004f04be000080fa0000000600fe
:10233c00889fbe00300020003062880044acef0063
:10234c00106280000062880049c420000044eb0049
:10235c000062800062c0b300890078007637070005
:10236c000844e80060002000402cb400f04f5400fa
:10237c00f7ff3a004f04be0000000600889fbe0025
:10238c008a9fbe008c1f7800804578003008800042
:10239c003cebb7000469ef00d1568000da2aef005d
:1023ac00dc2aef000000220080806000d056800004
:1023bc0000d0a10001007000d0568800e0b32000ce
:1023cc000041eb00a1b82000024878000080e80032
:1023dc00808f5000fcff3a000b04e00004003a0030
:1023ec00c05880000000e00001003200573a07009e
:1023fc000000eb00c058880080047800eaad200093
:10240c00acad20000b04e00002003200090478009f
:10241c0008003700090478001a0078000000e0007a
:10242c000400320010007800483a07001a007800c7
:10243c00463a070008004400640040008000eb00ae
:10244c0001307e008904e8000a85e800e78f54001b
:10245c00ecff3a00810478002aaf2000acad2000dc
:10246c000b04e00002003200090478000800370079
:10247c00090478001a0078000000e0000400320023
:10248c0010007800313a07001a0078002f3a070044
:10249c0008004400780040008000eb0001307e0012
:1024ac008904e8000a85e800e68f5400ecff3a0046
:1024bc0081047800eaab20000a0678000b04e000e7
:1024cc000200320009047800050037000904780086
:1024dc001a0078000000e000010032001b3a0700ef
:1024ec00080044000c0040000008eb008904e800e0
:1024fc000a85e800e48f5400f0ff3a008cff0700d7
:10250c004f0678004f05be004f04be0000000600c9
:10251c0010c0b30099ff07006162800002c1b300d4
:10252c0000c52000cf36070081628000c0532a000e
:10253c00808f500002003200a0fa0700050037001f
:10254c0030c5200091c1b30090cf100001003200c3
:10255c0004a9a80080ac20000041eb00c1ad200014
:10256c000248780064004000810f5000fcff3a00e4
:10257c0000b020000081eb0081b12000020878003f
:10258c0064004000808f5000fcff3a000000060001
:10259c000800fa00881f7800ea805700e27c2800c7
:1025ac0007000900b25878008100b1000004eb006c
:1025bc0082002000d8f907000000e00001003a007a
:1025cc0018002000080078004f0478000080fa0002
:1025dc0000000600889fbe008a9fbe008005780020
:1025ec0070628000506288000ac620000004eb0074
:1025fc005162800022c1b3000a00780099360700ae
:10260c006f2cab00080032008200200001c62000b5
:10261c000b007800c0f907000000e00002003a004f
:10262c000880fb0006003700200120004a2cb40073
:10263c000804e800f90f5400edff3a000800780098
:10264c004f05be004f04be00000006002f05b00071
:10265c00889fbe008a9fbe008c9fbe008e1f780094
:10266c008045eb0000047800a1fb2f00018047009f
:10267c00a53907005f999700ef999700e2b79f0083
:10268c00f3b79f00da4aab000f00320064578000aa
:10269c0075578000040251008582590002af20005a
:1026ac00124178000281fb000300200040422f0001
:1026bc000010b800800f5200818f5a0002003600c3
:1026cc000e0ca900da4aa9000800e00067043a00e1
:1026dc0004c9bf000008a30049113a00da0aab0094
:1026ec00620132006fb29700ffb29700d4af9f0027
:1026fc00e5af9f0088067800ecad20000d07780050
:10270c000c0578001c0478000800e0004801320039
:10271c0018089000a80890005faa9700efaa9700ed
:10272c000001520081815a00030033000200be00f8
:10273c00bbf70700090037006100610001002000b1
:10274c008301d1000281d3000200700083807000ed
:10275c00b3f707000001be00ddf7070002a02b0055
:10276c00b375240037f807000000e00006003400c1
:10277c0018007800753907001a00780073390700c3
:10278c00000deb002a013700380990000202b2005c
:10279c0027013a000b10a100c84c9000f9cf54004f
:1027ac005a0032008042eb0085e79f00e1cf4400e5
:1027bc001b003a0078009000880890005faa9700f0
:1027cc00efaa97000000520081805a0005092500ed
:1027dc00850f5000e08f580002003e0082e79f00fa
:1027ec00470037000080eb00b0979f000b10a00053
:1027fc001a047800e6fb2f000680470042390700d8
:10280c007f9897008fa09700100c9800210c9800cf
:10281c008044eb0011c0b30081e79f003800370003
:10282c000984fb000940780022c1b3000440bc00bd
:10283c0071628000810041005162880022c1b300a6
:10284c0000c6200007360700726380008200780003
:10285c000120b20004003a00760044001a00400047
:10286c00114098001c0037009a007800410090003d
:10287c00e40f400008003200e30f400002003a0071
:10288c000288a300040032004363800031009000f2
:10289c00808f510005003a000980fb000080400049
:1028ac008040eb00715098000b0037000288a300a9
:1028bc0009003a00b3979f008980fb00f680400026
:1028cc009a804000114090000004a10090409800b4
:1028dc0011c0b30081e79f008944e8000fe1970025
:1028ec00614061004200dd000b24a10080c5750031
:1028fc000b28a30002003a00f8cf5400c8ff3600a2
:10290c001a00780049489800420037000b00a000dc
:10291c008869ef001a0178008000eb000400370092
:10292c00014078008100e800f98f5000050032006a
:10293c0001004100705090000008a300f8ff320025
:10294c0002003700f84f50002900320000cfb300ce
:10295c0088e9b7009a017800330890006f00600096
:10296c002300320013089000a30890005faa970080
:10297c00efaa97000000520081805a0035422f00c8
:10298c00850f5000e08f5800150036000b00a10099
:10299c000080eb00b0979f0033089000ef404000a0
:1029ac00ef80600002ff2f00020060000100700049
:1029bc00b00998001a04780020fc2f000080470012
:1029cc00d13807001fa09700afa09700100c9800fb
:1029dc00210c980011c0b30081e79f00060037005e
:1029ec000b00a1000041eb0082e79f0002003700c2
:1029fc008041eb0083e79f000fe29700614062008b
:102a0c004200dd000b24a10080c575000b08a3005b
:102a1c001e003a008fe2970061c062004200dd00a8
:102a2c000b24a10080c575000b28a3008000320088
:102a3c000b18a300250032000e0047006400400074
:102a4c00a6ad200060007b00b000900040618000cb
:102a5c00808f50001d003a000044eb00e0b32000d2
:102a6c0061c2b300040037000844e8000080e800ad
:102a7c00814f5400030032001004e000faff3a00ca
:102a8c001300370010cfb30088e9b7000e014700e0
:102a9c0064014100a0ad2000e200780031409000bc
:102aac00a2e9b700310890000050a000b0089800cf
:102abc00a1ad200062807800300890004303200014
:102acc000048a30040113a004d10370068c2b30013
:102adc0061902000914078008181fb000e0047003e
:102aec0064004000a4ad200060017a0032439000e5
:102afc008590200086f17a000140e90006e9b700d4
:102b0c000080fb00c241900003f07a0001c0e90094
:102b1c0006e9b7000080fb007242900004f07a00d6
:102b2c0063c0500006e9b7000080fb0062439000d0
:102b3c0006f07a0064c0500006e9b7000080fb0084
:102b4c009249900003f07a0065c0500006e9b70086
:102b5c000080fb00024a900004f07a0066c050002e
:102b6c0006e9b7000080fb00224b900006f07a00cb
:102b7c0067c0500006e9b7000080fb00b249900026
:102b8c0003f07a00e8c050000100780006e9b700b5
:102b9c000042eb00a4679f00920178002240900055
:102bac000004e0000d0032000502780007c9bf00e8
:102bbc008080fb00b342780085707a000040e8000a
:102bcc0007e9b7002f6397008640e800a1679f00d4
:102bdc0022409000814f5000f4ff3e003f90970040
:102bec0021fa2f008f804000c9f9070060c2b300a2
:102bfc00804f5400041032008880fb00818040001c
:102c0c00d0b320002f619700827078000e0047002f
:102c1c0064004000a3ad200060817900e0b3200087
:102c2c00324190008270780003012000e6103700da
:102c3c008d06e8000c86e800e78f5600affe3a00e0
:102c4c008040eb00e0ad2000040037008140e8003c
:102c5c000080e800e7cf5000030032001000e000d5
:102c6c00faff320001003700da0aa900da2aab00b9
:102c7c00d60132006fb59700ffb597000001eb004d
:102c8c00e3ab200082027800930078000100e000a2
:102c9c0058003200610290000400e0005500320040
:102cac001108900000b8a30009003a002100900020
:102cbc00b10090000000550081805d0026e02300eb
:102ccc00860f5000e08f58004a003600080037008d
:102cdc0021009000b10090000000550081805d0043
:102cec0016122a00860f5000e08f58004100360063
:102cfc000040eb00a0679f008290200007c9bf0036
:102d0c008080fb00b4417800837079000040e800bb
:102d1c0007e9b7002f6397000640e800a0679f0003
:102d2c00e54f5000f5ff36000040eb00a0679f0018
:102d3c008290200006c9bf008080fb00b44178005f
:102d4c00837079000040e90006e9b7002f63970013
:102d5c000640e800a0679f00e74f5000f5ff3600e3
:102d6c0085804200e0ab2000008440009800780091
:102d7c001108900000b0a10090089800980178000c
:102d8c00130990004810de006740400067006000a7
:102d9c004800dd00f18f2f0001016100000171007e
:102dac0092099800180078006fb19700ffb1970056
:102dbc0022009800330098001801780092089000c7
:102dcc00007020008084600004003a0062009000d3
:102ddc00de370700180078006900980021fa2f00f0
:102dec008f8040000080eb0049f9070003012000b0
:102dfc00751037000201e8008381e800e40f5100f0
:102e0c00a0ff3a00e8ab2000880478001802780094
:102e1c000400e0002200320034015500a4815d0062
:102e2c008096280091002000800f5100818f59005e
:102e3c001b0036002450900062c0b3000440bc005c
:102e4c001162800081004100016288004cc42000a6
:102e5c0062c0b3000c00780082340700306280003e
:102e6c00e10f500006003a0020002000306288007c
:102e7c000062800062c0b3008c007800ae340700a2
:102e8c0019007800600090000000e00001003200a2
:102e9c00ae37070019007800ac370700800ceb0048
:102eac000884e80060ac2000880f5000d6ff3a0080
:102ebc000040eb00a0679f00a9ad20008005eb004f
:102ecc008a9020000080fb00000040007800400049
:102edc0060807c000000e0000a01320030009000ad
:102eec0023fa2f008f8141000381e800e480410028
:102efc0053f807000004e000870032004f61970090
:102f0c000204e00079003a002f6297000480fb0075
:102f1c000000400078004000e0817c00a30090009d
:102f2c000044eb0040618000808f500029003a0083
:102f3c0002447800e0b3200061c2b3000400370003
:102f4c000844e8000080e800814f54000300320080
:102f5c001004e000faff3a001e003700130078005e
:102f6c0070409000a2e9b70010cfb30088e9b70019
:102f7c00af6297000580fb00000040007800400025
:102f8c0060807c0010007800703707002f6397007a
:102f9c000680fb00000040007800400060807c0050
:102fac006a370700af6097000180fb00000040000b
:102fbc00780040000bb07c000409a900f0c7b300f6
:102fcc0006e9b7000b00780007e9b70043032000bf
:102fdc00fd0f370093017800bb679f002f619700ae
:102fec000280fb00000040007800400060807c0004
:102ffc00204090000004e000120032008490200079
:10300c000280fb000000400078004000a1ad2000d1
:10301c006081780007c9bf008080fb00b342780054
:10302c0085707a000040e80007e9b7003f60970020
:10303c000040e800b0679f00a240900080cf500095
:10304c00f4ff3e003f90970036fa2f008680470031
:10305c00aff80700af6097000180fb000000400054
:10306c007800400060817c00a200900040618000ec
:10307c00808f500009003a000880fb0000004000df
:10308c00d1b32000bf61970003f0780012017800e3
:10309c00e1b320007241900002f078002f6297009b
:1030ac000480fb00000040007800400060807c0041
:1030bc001000780025370700af6297000580fb00f1
:1030cc00000040007800400060807c001f37070043
:1030dc002f6397000680fb00000040007800400042
:1030ec000bb07c0003012000b70f3700e24f5100fa
:1030fc0084003a00af6097000180fb0000004000a4
:10310c007800400060807c00a0009000406180004e
:10311c00808f50001e003a002f6197000280fb0048
:10312c000000400078004000e0807c001100780036
:10313c0070409000a2e9b7000b00780088e9b70056
:10314c001100780001370700af6197000380fb0086
:10315c00000040007800400060807c00fb360700d7
:10316c002f6297000480fb000000400078004000b4
:10317c000bb07c000409a900f0c7b30006e9b70046
:10318c000b00780007e9b700430320008e0f3700cf
:10319c006890200018447800d4f707008880fb0062
:1031ac0080707d000840e9000080fb00a1c0b300e6
:1031bc0001707d0008c0e9000080fb0091c2200076
:1031cc0011707d00634054000080fb0081c2200020
:1031dc0011707d00644154000200780006e9b700cc
:1031ec000281fb0021fa2f008f8040003180fb0010
:1031fc00000040007800400060827c00d4429000c7
:10320c0005717d006540540006e9b7000080fb00a5
:10321c004443900006707d00664054000080fb0023
:10322c000b707d00674054000080fb0092c0b3001f
:10323c0002707d00684454000800780006e9b7006d
:10324c0072902000124178008281fb0030c0b300e4
:10325c0080717d000240e8000080fb000b707d0057
:10326c0002c0e80007e9b7000080fb00e4419000d1
:10327c0003707d006340410007e9b7000080fb004c
:10328c00f442900005707d0064414100020078001a
:10329c0007e9b700240090001df807002f63970082
:1032ac000680fb00000040007800400060807c003d
:1032bc0010007800a5360700af6097000180fb0076
:1032cc00000040007800400060807c000b08780013
:1032dc002f6197000280fb00000040007800400046
:1032ec0060807c0099360700af6197000380fb007b
:1032fc0000004000780040000bb07c00030120006f
:10330c00310f37002f6297000440e800a0679f0040
:10331c00e54f5000ebfe36008042eb00a5679f00a6
:10332c00166280000662880049c420000162800099
:10333c0062c0b300090078004a330700386280008d
:10334c00e20f5400160f32002f6097000040e80087
:10335c00a0679f0060002000402cb400af60970075
:10336c00efcf5000f1ff36000040eb00a0679f004c
:10337c00f20ae20015003a0041af20000040e800dc
:10338c00a0679f00e64f5000030032003100e000c0
:10339c000e003a00f9ff37000040eb00a0679f00d9
:1033ac00be0ae20009003a0001ac20000040e8002f
:1033bc00a0679f00e44f5000030032003100e00092
:1033cc0002003a00f9ff3700da2aa900d256800031
:1033dc000200e0000f003d008059800091598000f0
:1033ec006fb29700ffb297000000520081805a0024
:1033fc0005802700850f5000e08f5800050036002f
:10340c00a0ccb30088e9b7008ea9ef00a30320007d
:10341c00ed0e37000278a30011003200daeaa900a1
:10342c008acbbf0088e9b7008bcbbf0089e9b70016
:10343c00915c8000814c8800d25c8000e35c800051
:10344c00c24c8800d34c8800f45c8000055d800081
:10345c00e44c8800f54c8800c3042000da0e3700d9
:10346c000238a300e60d32000268a300050032000a
:10347c00dacaa90010c0b30088e9b70043022000e3
:10348c00d10e3700820078000102b200dc0d3a0048
:10349c0010b2200095c1b30090cf12007b00320017
:1034ac00a1679f0008c6200021cbbf0022c1b3003a
:1034bc000440bc00716280008100410051628800b0
:1034cc0022c1b30008007800e63207007063800068
:1034dc00002cb20001242000810f500002003200a9
:1034ec00216bec000200370010c0b300a0679f00f6
:1034fc0021cbbf00f84f500004003e002f63970013
:10350c000604e00004003a00e7ff3700af609700c4
:10351c000104e000630032000040e80021ebb7003a
:10352c000040eb00a0679f000042780089902000cb
:10353c0005c620006290200012417800804178007e
:10354c00024478008280fb000480fb0067001000be
:10355c0060c07a0080f07c000241e90002457800ee
:10356c008341e80003427800e7cf5100f4ff3600b6
:10357c00a3679f000001fd0006e9b7000001fd00f4
:10358c00daf607008a80fb0080f07c000a40e90034
:10359c000080fb0011c0b30001f07c0063405400bc
:1035ac000080fb0091c2200011f07c0064405400ac
:1035bc000080fb0081c2200011f07c0065405400ab
:1035cc000080fb0091c6200011f07c006640540086
:1035dc000080fb0081c6200011f07c006740540085
:1035ec000080fb008040eb0001f07c00e8405400c0
:1035fc008180fb000101e80062c07c000034a00067
:10360c0000f17c0090c0b30080f07c006940540055
:10361c0006e9b70007c9bf000081fb0041c0b30039
:10362c0001f17c000040e80007e9b70000c4b300da
:10363c00a0679f00db2aab000200320000ccb30075
:10364c00a0679f00dbaaab0003003a002f61970034
:10365c000254a000a2679f0007c9bf000081fb00b5
:10366c0081902000af61970003f178000040e800e2
:10367c0007e9b7004063800021fa2f008f804000db
:10368c0023f70700030120004f0e3700db2aa900a7
:10369c005c6cef006062800002c1b30001c52000c9
:1036ac00a5320700db2aab00110032005c4ce200b3
:1036bc000f00320016598000275980006fb2970016
:1036cc00ffb297000603520087835a00b262800053
:1036dc0003002000f42f25000410b8006711b90076
:1036ec0082804000800f5300818f5b00440d3600b8
:1036fc00dacaa80025ba2000e67c280007000900d9
:10370c00b65a78000040eb00a0679f00004278009a
:10371c008990200025ba2000629020001241780088
:10372c0080417800024478008280fb000480fb001a
:10373c006700100060c07a0080f07c000241e90054
:10374c00024578008341e80003427800e7cf51003e
:10375c00f4ff3600a3679f000001fd0006e9b700e7
:10376c000001fd0061f607008a80fb0080f07c0000
:10377c000a40e9000080fb0011c0b30001f07c009e
:10378c00634054000080fb0091c2200011f07c00cb
:10379c00644054000080fb0081c2200011f07c00ca
:1037ac00654054000080fb0080c0eb0001f07c0001
:1037bc00664054000080fb00c1cfb30001f07c00d8
:1037cc00674054000080fb008041eb0003f07c005c
:1037dc00e84054008180fb000101e80062c07c00dd
:1037ec000044a00000f17c0090c0b30080f07c008d
:1037fc006940540006e9b70007c9bf000081fb000f
:10380c0041c0b30001f17c000040e80007e9b700bb
:10381c00a3679f00d05680000098a30006003200da
:10382c005c4ce20004003a0000a8a3000200320045
:10383c0000c8b300a0679f0007c9bf000081fb0050
:10384c0081902000af61970003f178000040e80000
:10385c0007e9b70021fa2f008f8040000080eb00b1
:10386c00abf6070003012000d70d3700f0fe2f0048
:10387c00f1ff2f0008004000e080480014062000f3
:10388c00840f5000e08f5800dd0c3e0000600100fa
:10389c00610037009e003700d90c3700d80c370078
:1038ac00d70c37002b073700d50c370054073700df
:1038bc00d30c3700d20c3700ab073700d1073700d9
:1038cc00cf0c3700ce0c3700cd0c3700cc0c3700aa
:1038dc00cb0c37002a083700c90c3700c80c37004e
:1038ec0032083700c60c3700c50c3700c40c370043
:1038fc005408370047093700c10c3700c00c37009b
:10390c00bf0c370051093700bd0c3700bc0c370019
:10391c00bb0c37005209370059093700b80c370077
:10392c00b70c3700b60c3700b50c3700b40c3700a9
:10393c00b30c3700b20c3700b10c3700b00c3700a9
:10394c00af0c3700ae0c3700ad0c3700ac0c3700a9
:10395c00570a3700980a37009b0a3700b10a37001c
:10396c00cd0a3700350b3700470b3700e60b370015
:10397c00e90b3700a20c3700a10c3700a00c370064
:10398c009f0c37009e0c37009d0c37009c0c3700a9
:10399c009b0c37009a0c3700990c3700980c3700a9
:1039ac00970c3700960c3700950c3700940c3700a9
:1039bc00930c3700920c3700910c3700900c3700a9
:1039cc008f0c37008e0c37008d0c37008c0c3700a9
:1039dc008b0c37008a0c3700890c3700880c3700a9
:1039ec00870c3700860c3700850c3700840c3700a9
:1039fc00830c3700820c3700810c3700800c3700a9
:103a0c007f0c37007e0c37007d0c37007c0c3700a8
:103a1c007b0c3700c60b37000040eb00a0679f0003
:103a2c00a8ad20008081eb000081fb00c210dd00fe
:103a3c00600220000100400060007c00e10f4000ab
:103a4c00090032000100440050609000a249e300dc
:103a5c0005003a008849e200910c3a000100780018
:103a6c006002b00003307c00af6297000540e800b4
:103a7c00a0679f00e54f5000ebff36000043eb00c2
:103a8c00a6679f003dcbbf00a249e300820c320029
:103a9c0012002000f3b3200064022000a2679f00f4
:103aac00840f510007003200820078001340780028
:103abc000101e8008381e800a249e300050032001f
:103acc00f6ff370060c2b300804f51004c0c32003f
:103adc008280fb0081804000e0b3200061407800d0
:103aec008001eb000004e00002003200a2e9b70004
:103afc0043032000af6097000180fb0000004000f2
:103b0c000041eb00e1b3200002f078002e0d3700ed
:103b1c007ef50700a0ef9f0080f79f007bf5070064
:103b2c0080ef9f0090f79f0078f507000080fb0066
:103b3c0009f02f00090666000006760073f50700f1
:103b4c00e0e79f004800dd00f80f20000806660043
:103b5c00000676006df507000080fb008985650086
:103b6c008085750069f50700c0e79f004800dd00ff
:103b7c00888565008085750064f50700a0e79f00c7
:103b8c0062f5070090e79f000fed97000a4278005e
:103b9c000438a3000c0032000040eb00a0679f002b
:103bac000044780069ab200058f507008880fb00c2
:103bbc0080f07c00af6297000544e800a8679f0086
:103bcc00e74f5400f8ff36000a48a3000c003200ff
:103bdc000040eb00a0679f0000447800e9aa200099
:103bec004af507008880fb0080f07c002f6397006b
:103bfc000644e800a8679f00e74f5400f8ff360022
:103c0c00c04c8000e10f400002003200e50f46007e
:103c1c00340336000040eb00a0679f000b057800d2
:103c2c0000417800e3ad2000930078000100e00033
:103c3c000700320031009000800f550004003a005c
:103c4c00314090009fe0970080cf50004a0c32002a
:103c5c000241e800a2679f008381e800e74f510012
:103c6c00f1ff3a000ff1970063406100e14f500003
:103c7c0098023a0025f50700a0679f00e14f50001d
:103c8c00d1013a00db0aab00cf0132004061800069
:103c9c008a0f500003003a00082207008001eb0055
:103cac00c90c370010c0b300806f9f0017f50700d8
:103cbc00906f9f0015f50700a06f9f0013f507008c
:103ccc00c06f9f0011f50700d06f9f000ff5070024
:103cdc00004578008040e800e16f9f0070cdb30094
:103cec00a349e30002003e000140e800e06f9f00a2
:103cfc0030cbb300a349e30003003e006f6897008c
:103d0c000040e800e06f9f00f0c8b300a349e30057
:103d1c0003003e006f6897000040e800e06f9f00d2
:103d2c00b0c6b300a349e30003003e006f689700e0
:103d3c000040e800e06f9f0070c4b300a349e300ab
:103d4c0003003e006f6897000040e800e06f9f00a2
:103d5c0030c2b300a349e30003003e006f68970034
:103d6c000040e800e06f9f00af6897001f6a970063
:103d7c00ef9197000b01780010c0b3000ef507000f
:103d8c000004e00004013200c04c8000e10f400050
:103d9c0001013a000040eb00c0679f000b04780063
:103dac008001eb00e2ab2000af6a97000600370001
:103dbc000440e800c0679f008301e8000281e8002e
:103dcc00e48f51004d0032000342780092007800dd
:103ddc000100e000f6ff320061489000854f500072
:103dec00f3ff3a0041009000880f5000f0ff3a00ba
:103dfc00e3cf510041003e0003804100e9ab2000bd
:103e0c0060847c0060fc2f0000804700be330700fc
:103e1c003fa29700cfa29700048cbe004f60970082
:103e2c000080fb000000400060817c00f2489000a4
:103e3c006f689700814f50002d003e00854c80002c
:103e4c00550198004f6097000080fb000000400077
:103e5c0060807c006f6b9700764898004f609700ed
:103e6c000080fb0000004000e0807c006f68970041
:103e7c000a40500090509800ef90970040618000ed
:103e8c00810f5000090032000100780005f5070091
:103e9c00f94f50007800320070638000000cb200c3
:103eac0001042000810f500073003a0083210700a9
:103ebc0004c9bf000008a300510b3a00cf60970063
:103ecc000180fb0000004000e2ab200060007900a4
:103edc0010509000e06f9f0080fa2f000081470087
:103eec000b00780029f5070003012000360c370081
:103efc00722107008001eb00330c37006f909700a4
:103f0c0051fa2f00018147008100e90081804700b0
:103f1c008df507000004e00003003a00672107005c
:103f2c008001eb00280c37004f6097000080fb00ed
:103f3c0000004000e1ab2000608078002f69970002
:103f4c00624898004f6097000080fb000000400022
:103f5c00608078004b0098004f6097000080fb0059
:103f6c000000400060807800834c80005300980073
:103f7c004f6097000080fb000000400060807800dc
:103f8c006f6a9700744898004f6097000080fb00a0
:103f9c00000040006081780052009000880f5000b3
:103fac000600320012089000f18f2f000100600013
:103fbc000080a0001009980005003700120890003e
:103fcc00f18f2f00010060000030b3001009980041
:103fdc004f6097000080fb0000004000e2ab200027
:103fec00e00079001108900000b0a0009008980043
:103ffc004f6097000080fb0000004000e00079005b
:10400c006f6897000a40500090509800ef9097000e
:10401c0040618000810f50000900320001007800df
:10402c00a0f40700f94f50001300320070638000b9
:10403c00000cb20001042000810f50000e003a0069
:10404c001e21070004c9bf000008a300ec0a3a00b7
:10405c006f6897000a405000e06f9f00cf60970098
:10406c0085fa2f00058147000b007800c7f4070084
:10407c0003012000d40b370004c9bf000008a300c3
:10408c00d1003a004f6097000080fb000000400018
:10409c00eaab2000e0047d00690490000800e00019
:1040ac000a003a00e0c0b30026330700e004980091
:1040bc004f6097000080fb000000400060007d0016
:1040cc00600490000800e000300032000f6b970095
:1040dc00064c78001f68970010449800af68970052
:1040ec00214498004f69970032449800df6997008b
:1040fc00434498006f6a970054449800fbf3070000
:10410c0060449800afe297000540e90070449800c5
:10411c004fe39700064c98001b4c98006fe09700fb
:10412c00204c98003c4c98008fe89700414c98002c
:10413c002fe99700524c98004f6097000080fb00cd
:10414c0000004000e9ab200060847c00a0fc2f0044
:10415c0000804700ec3207005fa29700efa29700a7
:10416c0024049800350498004f6097000080fb00f1
:10417c000000400060817c0012089000f18f2f003d
:10418c000100600000a0a00010099800cb200700df
:10419c008001eb008c0b3700804c800041f4070051
:1041ac00f94f50000f00320070638000000cb20019
:1041bc0001042000810f50000a003a00834c80005b
:1041cc008b8f510012003200544cec0000417800ef
:1041dc008b00780003007800e9f507000004e0008c
:1041ec000b003a00814c800000618000808f5000f1
:1041fc0072003a0042c520001241780040618000f4
:10420c008b007800def507000004e0006b003a003c
:10421c00ef90970040618000810f50000900320040
:10422c00010078001ff40700f94f50001300320012
:10423c0070638000000fb20001062000810f500057
:10424c000e003a009d20070004c9bf000008a3001f
:10425c006b0a3a006f6897000a405000e06f9f00ad
:10426c0081fa2f000181470041c0b3000b00780098
:10427c0046f4070003012000530b370062fa2f00ad
:10428c00828047000c007800cdf507000004e000a8
:10429c004700320004c9bf006145600044003a0089
:1042ac0071902000914078000180fb0089902000e3
:1042bc008f69970003f07c000140e8000080fb0050
:1042cc001f6a970004f07c0001c0e8000080fb002e
:1042dc00af6a970005f07c0063c040000080fb00d3
:1042ec003f6b970006f07c0064c040000080fb0030
:1042fc004f69970002f07c0065c040000080fb0015
:10430c00df69970003f07c00e6c040008000fd00f0
:10431c0007e9b7008000fd00689020001844780081
:10432c0072f307008880fb0080f07c000840e900f5
:10433c000080fb00a1c0b30001f07c0008c0e900c4
:10434c000080fb0091c2200011f07c0063405400ff
:10435c000080fb0081c2200011f07c0064405400fe
:10436c000080fb006fe2970004f07c006540540075
:10437c000080fb000cf07c00664054000080fb00c9
:10438c000af07c00674054000080fb0091c0b30031
:10439c0001f07c00684454000800780006e9b7007e
:1043ac003f90970021fa2f008f804000d8f3070030
:1043bc004220070003012000030b37003f200700b9
:1043cc008001eb00000b3700af629700e4cf520086
:1043dc00bd003a004df30700804678000b077800cb
:1043ec0040618000808f550003003a0033200700a5
:1043fc008001eb00f40a37002fe39700e14f5300e4
:10440c008700360051fa2f0001804700b8f40700ee
:10441c000004e000750032005f6097000080fb0034
:10442c000000400064004000aaad2000e0007d00c8
:10443c00310890000040a100b00898005f60970020
:10444c003cf307005f6097000080fb000000400019
:10445c006400400060007d008298200012417800ca
:10446c00224098005f6097000080fb000000400035
:10447c006400400060007d008ff197003348980085
:10448c005f6097000080fb0000004000640040006b
:10449c0060007d001ff29700244898005f60970031
:1044ac000080fb00000040006400400060007d00c4
:1044bc004c0098005f6097000080fb0000004000fb
:1044cc006400400060007d003b0098005f60970036
:1044dc000080fb000000400064004000e0007d0014
:1044ec00afe297000540e900c04098005f6097007c
:1044fc000080fb00000040006400400060007d0074
:10450c001fe39700364098005f6097000080fb0027
:10451c00000040006400400060047d0088c9bf00ba
:10452c000832070080047800000c78000000e000de
:10453c000e003a005f6097000080fb000000400016
:10454c006400400060007d00003207005f6097004f
:10455c000080fb00000040006400400009307d003a
:10456c00d61f070089017800970a37000040eb003e
:10457c00a0679f005f6097000080fb000000400078
:10458c0064004000a1ad20006080780090007800ad
:10459c0040c0b3008048780010c0b300a0679f00f3
:1045ac008849e2000f003200aaad2000af649700ea
:1045bc005f6097000080fb0000004000640040003a
:1045cc0060007d000984fb0010044400cff207005a
:1045dc00004c78008944e800a9679f008849e200f4
:1045ec00f2ff3a00da0aa8000d003700b31f0700eb
:1045fc008001eb00740a37003eacef00af6097000f
:10460c000181fb006a11b90002007800320cb40081
:10461c00a2c0b30088007800c72e07002200370024
:10462c000e0078001ff30700a0679f00f94f5000a1
:10463c00250032003ef50700a01f07000040eb00ec
:10464c0088e9b7008299200003c620000700090002
:10465c00335978000499200005c620000700090092
:10466c00355a7800a0679f0068c32000a2c0b30031
:10467c000440bc009161800081004100a2c0b300e5
:10468c0008007800772e0700f0618000800f57003b
:10469c00d9ff32002f6397000640e800a0679f0007
:1046ac00e74f5000f1ff3600c30320000d68a30054
:1046bc00450a3a0001c2b30001c0660088e9b700a0
:1046cc00d3042000400a37007c1f07008001eb0058
:1046dc003d0a37002fe19700e14f5100780036007a
:1046ec0053fa2f000380470001f407000004e00098
:1046fc00700032005f6097000080fb0000004000fb
:10470c0064004000abad2000e0807d0031089000db
:10471c000040a100b00898005f60970085f2070088
:10472c005f6097000080fb000000400064004000c8
:10473c0060807d008498200014427800244098000a
:10474c005f6097000080fb000000400064004000a8
:10475c0060807d008ff29700354898005f6097006d
:10476c000080fb00000040006400400060807d0081
:10477c001ff39700264898005f6097000080fb00ad
:10478c00000040006400400060807d004c009800f8
:10479c005f6097000080fb00000040006400400058
:1047ac0060807d003a0098005f6097000080fb00fd
:1047bc000000400064004000e0807d002fe1970085
:1047cc000240e900c04098005f6097000080fb0049
:1047dc00000040006400400060807d009fe1970075
:1047ec00334098005f6097000080fb0000004000a1
:1047fc006400400060847d0088c9bf00513107000f
:10480c0080047800000c78000000e0000e003a00f4
:10481c005f6097000080fb000000400064004000d7
:10482c0060807d00493107005f6097000080fb00cd
:10483c00000040006400400009b07d001f1f07000d
:10484c0089017800e00937000042eb00a4679f0063
:10485c005b4c80008c9820001c4678000c04e00017
:10486c000f003200adad2000af6497005f60970081
:10487c000080fb00000040006400400060807e006f
:10488c000984fb001004440020f20700004c78005f
:10489c008944e800a9679f008849e200f2ff3a00ca
:1048ac005b4c88000c00780088e9b700da0aa80095
:1048bc0003003700011f07008001eb00c20937001d
:1048cc00406180008a0f500003003a00fb1e070075
:1048dc008001eb00bc0937008a4c88005303200090
:1048ec00b90937008ff2970063c06200e14f5000a6
:1048fc003d023a0005f2070080407800a0679f0057
:10490c00e64f500053003200e74f500004013a00cc
:10491c00dbeaa900fdf107000080fb0001f02f008d
:10492c000104640000047400f8f107004800dd0085
:10493c000884fb0000047400f4f1070000457800c3
:10494c00de1e070060ab200011f707000004e0003a
:10495c00ab08320070c120001ef70700f94f500061
:10496c00150032000043eb00a6679f0070628000c8
:10497c005062880009c620000c2020005162800083
:10498c0022c1b30009007800b62d070070638000c7
:10499c00002cb2008c0f500007003200af60970063
:1049ac008140e800a1679f00200120004a2cb40040
:1049bc00f8cf5000f1ff36000a04e0000500320089
:1049cc000469a9000a00780088e9b700a303200055
:1049dc007d09370048618800c21e07006ecca90013
:1049ec006eeca90073c12000e4aa200007000900a6
:1049fc00b45978000b6188004fe0970069ecb70060
:104a0c000b00780068ecb70072558000835580006d
:104a1c00026388001363880094558000a5558000bc
:104a2c0024638800356388005062800022c1b30083
:104a3c0001c62000c02d07008869ef00784c880063
:104a4c0035618000054d8800db0aa800a303200017
:104a5c005d093700adf1070088e9b700971e070024
:104a6c0071902000914078008181fb0072c0b300ee
:104a7c0080902000827178008140e800010078006d
:104a8c0007e9b700e0aa2000d2f60700f94f500062
:104a9c0020003a0010c0b3000bedb7005af307002a
:104aac000004e0000400320089f30700a0679f00b7
:104abc00f94f500015003a00729020001241780016
:104acc008280fb0083902000d0cfb30080f079006f
:104adc000240e8000080fb0080c0eb0001f0790090
:104aec0002c0e8000080fb0021c0b30001f0790097
:104afc00634141000200780007e9b7000040eb0079
:104b0c000bedb700004678001400370027f40700bf
:104b1c000b6def0072902000124178000280fb00b8
:104b2c008390200081c6200011f079000240e8003b
:104b3c000080fb0091c6200011f0790002c0e80053
:104b4c000080fb008040eb0001f0790063414100e4
:104b5c000200780007e9b7001cc0b30026ba200099
:104b6c00e07c280007000900305b78000040eb0077
:104b7c00a0679f00004278008590200026ba200094
:104b8c006290200012417800804178008280fb0006
:104b9c000480fb006700100060407b0080f07a000e
:104bac000241e9008341e80003427800e7cf51005d
:104bbc00f6ff36000200780006e9b7000040eb0073
:104bcc00a0679f000042780089902000e5aa200091
:104bdc0080417800024478008280fb000480fb0056
:104bec006700100060c07a0080f07c000241e90090
:104bfc00024578008341e80003427800e7cf51007a
:104c0c00f4ff3600a3679f000001fd0006e9b70022
:104c1c000001fd0035f107008a80fb0080f07c006c
:104c2c000a40e9000080fb0011c0b30001f07c00d9
:104c3c00634054000080fb0091c2200011f07c0006
:104c4c00644054000080fb0081c2200011f07c0005
:104c5c00654054000080fb00cfe0970001f07c0021
:104c6c00664054000b4178000080fb000bf07c0088
:104c7c00674054000080fb0081c1b30001f07c0050
:104c8c00684054000080fb0091c0b30001f07c0030
:104c9c006940540006e9b7000c04e0000200320041
:104cac00daeaa80001003700daeaa90088c9bf00d7
:104cbc008aebb70010c0b3008bebb70041638000e8
:104ccc00915c88007455800085558000d45c880008
:104cdc00e55c880090558000a1558000f05c880050
:104cec00015d8800cfe097004808dd008280fb0062
:104cfc00010070006055880021fa2f008f80400061
:104d0c0083f10700404c80006a006000ea0f5000fd
:104d1c00bd0732008b49a80003012000aa08370008
:104d2c00db0aab002d013200e14f5000ddfb3200fd
:104d3c00e34f50006a003a0004c9bf0061476000ad
:104d4c0026013a0079902000994478000980fb00f4
:104d5c008a90200001707d000944e8000004fd00e9
:104d6c0007e9b7000004fd00e8f007000884fb0029
:104d7c0000747d0089c4e8008004fd0007e9b700d9
:104d8c008004fd00e1f00700719020009140780054
:104d9c000181fb0000717d008140e8008000fd0076
:104dac0007e9b7008000fd00d8f0070071902000e3
:104dbc00914078000181fb0000717d008140e8008a
:104dcc008000fd0007e9b7008000fd00bb1d070057
:104ddc0040618000800f560004003a000e007800fd
:104dec0007e9b7008001eb007708370062902000dc
:104dfc00124178000280fb00839020001fe2970094
:104e0c0004f079000240e9000080fb00afe297005b
:104e1c008540e90001f0790002c0e9000080fb0048
:104e2c004fe3970006f07900634051000080fb00cf
:104e3c000bf07900644051000080fb00efe097001c
:104e4c0001f07900654051000080fb000cf0790006
:104e5c00664051000080fb000fea970004f07900d7
:104e6c00674051000080fb00afea970005f0790025
:104e7c00684151000200780006e9b70026fa2f00bd
:104e8c000f0343006404430063014300880078006f
:104e9c000c0078006af007000004e0000a003a00f9
:104eac00880078000c007800c5f207000004e000d0
:104ebc0005003a0007e9b700f0c7b30006e9b700f0
:104ecc008001eb00400837003f90970021fa2f003b
:104edc008f8040000ef10700030120003a083700d4
:104eec00e24f5000bd003a0088f00700e0df9f0061
:104efc0086f00700f0df9f0084f00700c0779f006a
:104f0c0082f00700d0779f0080f00700e0779f00c9
:104f1c007ef00700b0e79f00f0779f007bf0070062
:104f2c00004778006fda9700bf9997000b01780063
:104f3c00ffd8970010c0b3009ff007000004e000fa
:104f4c0040003200af9e97000001eb00e3ab200065
:104f5c00050037000a45e8000201e8008381e800fb
:104f6c00e40f51000d0032000245780082047800f5
:104f7c00930078000100e000f6ff320061489000d9
:104f8c007fda9700804f5200f2ff3a004100900008
:104f9c008d0f5000efff3a0003003700e44f55002f
:104fac008a0032008a84fb0009844400e0ab2000b4
:104fbc0000044400180078002050900062c0b30038
:104fcc000440bc00116280008100410062c0b3004b
:104fdc0040c42000232c0700462cef0098007800da
:104fec0001509000804f5700030031008e50980004
:104ffc00854c80004562880089804400e0ab20002d
:10500c0000844000180078002050900062c0b3006b
:10501c000440bc00106280000000410062c0b3007c
:10502c0041c42000442c0700406180008d0f5000cb
:10503c0066003200180078001050900000444700c1
:10504c00f306370040618000800f56005f0032008d
:10505c00674447004ac0b300ed063700171d070030
:10506c00e44f5500070032000a80fb0000004000ae
:10507c00e1ab20006080780050009000b0979f005a
:10508c000600370066fa2f00868047000b00780078
:10509c004bf207000004e000d906320071902000aa
:1050ac00914078008181fb008290200020c0b300e9
:1050bc00807179000140e8000080fb00efd9970077
:1050cc000370790001c0e8000080fb007fda9700d4
:1050dc000470790063c040000080fb00cf72970021
:1050ec000570790064c040000080fb005f7397007e
:1050fc000670790065c040000080fb00ef719700de
:10510c000370790066c040000080fb003fe297000e
:10511c000470790067c040000080fb0008707900c3
:10512c00e8c040000100780007e9b700619020005a
:10513c00914078000180fb009fe297000570790098
:10514c000140e9000080fb002fe397000670790016
:10515c0001c0e9000080fb00cfe1970003707900eb
:10516c0063c050000080fb000b70790064c05000dd
:10517c000080fb006fe297000470790065c050005e
:10518c000080fb000c70790066c050000080fb00b2
:10519c008fea97000570790067c050000080fb0013
:1051ac002feb970006707900e8c0500001007800e2
:1051bc0006e9b7003f90970021fa2f008f8040003e
:1051cc0053f00700030120007f073700bb1c0700ca
:1051dc008869ef00330720007b073700b71c0700f6
:1051ec008001eb007807370040618000800f56008b
:1051fc0003003200db0aab0007003a00d200370094
:10520c008b4c88006c4c880020c0b3008ee9b70032
:10521c00530320006c0737002fe09700e14f50003c
:10522c00c900360004c9bf0061406000c6003a00e6
:10523c008ff097000181fb004611de0064fa2f000d
:10524c00848147008c007800faf307008004780012
:10525c000000e00003003200e10f50005c003a0057
:10526c005800370062902000124178000280fb0049
:10527c00839020009fe2970005f079000240e9003e
:10528c000080fb002fe397008640e90001f07900d5
:10529c0002c0e9000080fb00cfe0970001f079002c
:1052ac00634051000080fb000bf07900644051001a
:1052bc000080fb006fe2970004f07900654051001c
:1052cc000080fb000cf07900664051000080fb0070
:1052dc008fea970005f07900674051000080fb00d1
:1052ec002feb970006f0790068415100020078001e
:1052fc0006e9b7008849e2000b003200830478000d
:10530c00789020001844780080ef07008880fb001c
:10531c0080f07c000844e8000800780007e9b7003a
:10532c008849e200f6ff3a003f90970032fa2f00ce
:10533c0082804700f6ef07008041eb00a3679f00d7
:10534c008001eb0000588000e10f400007003200a4
:10535c001400370081017800120078008100e80009
:10536c0064014100e10f400010003a004218dd00da
:10537c006002b000a1ad20000bb078002f62970046
:10538c000480fb004200dd004002b0000100400040
:10539c009fe29700054878003f63970016409800fd
:1053ac00050037001100200042b02000a1679f00cb
:1053bc00e68f5000e7ff3a00401c07000301200075
:1053cc00010737003d1c07008001eb00fe0637008b
:1053dc00689020001844780044ef07008880fb0098
:1053ec0082902000807079000840e9000080fb006a
:1053fc00a1c0b3000170790008c0e9000080fb0077
:10540c0091c2200011707900634054000080fb00b1
:10541c0081c2200011707900644054000080fb00b0
:10542c00cfe0970001707900654054000b42780082
:10543c000080fb000b707900664054000080fb007c
:10544c008040eb0001707900674054000080fb0045
:10545c0091c0b300017079006844540008007800d2
:10546c0006e9b70073902000934178008380fb001d
:10547c0030c0b300807079000340e80007e9b70042
:10548c00e28f540006003a000080fb0011c0b3000c
:10549c000170790003c0e80007e9b7001700370076
:1054ac00e38f540007003a000081fb0021c0b300d9
:1054bc00809020000171780003c0e80007e9b70074
:1054cc000e003700e48f540006003a000080fb0009
:1054dc008190200009f0780003c0e80007e9b700cc
:1054ec00060037000081fb008040eb00809020001c
:1054fc000171780003c0e80007e9b7007190200043
:10550c00914078000180fb008290200004707900ab
:10551c000140e8000080fb00cfe1970003707900a8
:10552c0081c0e8000100780007e9b700804c8000da
:10553c0021fa2f008f80400075ef0700df1b07005a
:10554c0003012000a0063700dc1b07008001eb00e4
:10555c009d0637000040eb00a0679f00804078005c
:10556c0083982000004178000180fb00f00040008f
:10557c0068004000e0f079000241e80082407800c9
:10558c00e74f5100f8ff3600a2679f0000992000fa
:10559c0010f40700a0679f00f94f5000050032007f
:1055ac0044638000744c88008869ef00730120000c
:1055bc008506370094f007000004e0000b00320071
:1055cc00c3f00700f94f50000800320077f10700d4
:1055dc0088c9bf001aebb70041638000714c88008a
:1055ec008869ef00730120007706370010c0b30004
:1055fc0088e9b7008ea9ef0073012000720637000e
:10560c000489a9008849e2001a0032000469a90043
:10561c0026acef00bb1b070004a9a90053ccbf00ac
:10562c0022c1b3000440bc007162800081004100c3
:10563c005162880009c6200022c1b300090078001d
:10564c00882a07006f6ca90090c1b30053ecb70017
:10565c005062800022c1b30089007800b62a07008e
:10566c00a1033700a71b070042618000724c880021
:10567c0002003700734c8000436188000469a80065
:10568c00981b070053ccbf0022c1b3000440bc00e0
:10569c0071628000810041005162880008c62000c0
:1056ac0022c1b300080078006e2a07006ecca90056
:1056bc006eeca90004c6200075c12000070009008b
:1056cc00355a78005062800022c1b30088007800ff
:1056dc00992a0700466380000661880004a9a80087
:1056ec00606380004800de006f4060000040e8000e
:1056fc0054ecb7008df0070080007800b062880091
:10570c00f0628000e10160000c003a006608b9000c
:10571c0042618000000041000000e800c062880087
:10572c000201e800d26288008001fd005cecb70049
:10573c005decb7008001fd005e0ca80010c0b3004a
:10574c00d6f007006062800002c1b30001c52000e2
:10575c00792a0700db0aa80030618000004d880020
:10576c00a303200018063700daaaa900dacaa80099
:10577c0000618000cbee0700a0679f00f94f50003e
:10578c0001003200eaf0070081992000e27c280039
:10579c0007000900b258780060b2200023c0b300a3
:1057ac0090cf110010003a008849e2000a003a003c
:1057bc00d05680000098a300040032005c4ce2003c
:1057cc0005003a0000a8a300030032008869ef002e
:1057dc00c3032000fc053700b0ccb30088e9b70048
:1057ec00c3032000f8053700d05680004d00de00c2
:1057fc000000a2006140600088e9b700d3042000db
:10580c00f1053700e098200024c0b300904f12003f
:10581c0058003a00504c80001004e00055003a004b
:10582c00614c8000804c800017f10700f94f50004c
:10583c0019003a0026f00700f94f50004d003200d5
:10584c006f2ca8006ecca8006eeca8000040eb00fa
:10585c00a0679f000041780003c62000004278003a
:10586c00804078000280fb00030040000448780070
:10587c008140e80001417800e7cf5000f9ff360085
:10588c00a1679f00526cec006062800002c1b30003
:10589c0001c52000282a0700a1c9ab000300320073
:1058ac006e8ca9006eaca900020037006e8ca800ab
:1058bc006eaca9006f0ca800534c8000a340900064
:1058cc008107b200c508dd0060638000f20f2f0075
:1058dc00020060000100700060638800934090003b
:1058ec00cc08dd00f2ff2000020060000100700017
:1058fc006063880013409000000fb2004400de008b
:10590c007163800002ff2f00828060008080700035
:10591c00a3c9bf006cecb700004d80004f00de0047
:10592c004a00dd0001a0a100808070007163880036
:10593c00234090004200de00610060004b00dd005f
:10594c0001b0a1008080700071638800614c800000
:10595c0051638800824c8000426388008fc9bf006d
:10596c0070ecb7005062800022c1b30001c6200069
:10597c00f1290700d11a07008001eb0092053700ce
:10598c000099200013f30700a0679f00f94f500007
:10599c009b04320041638000c14c880010c0b300ee
:1059ac0088e9b7003302200087053700d156800004
:1059bc000138a3001900320060b2200022c0b300ed
:1059cc00904f110096043a004e0cde0061446400c6
:1059dc000040eb0098e9b70099e9b7009ae9b700e5
:1059ec009be9b7009ce9b7009de9b7009ee9b700b9
:1059fc009fe9b70088e9b70060f207000804e000ef
:105a0c000200320004a9a8000100370004a9a90073
:105a1c000469a900c30320006b0537000040eb00ac
:105a2c0056f20700d30320006705370004a9a8002d
:105a3c000100370004a9a9000469a900c3032000d0
:105a4c00610537008040eb0030c3b30083270700ab
:105a5c008040eb0040c3b30080270700f1c0b300c7
:105a6c00f0222000a0270700e098200013c0b3000c
