:020000040000FA
:10000000FBEF69F01200FFFF2CEF59F01200FFFF29
:10001000FFFFFFFFFFFFFFFF2CEF59F01200FFFF74
:10002000FFFFFFFFFFFFFFFFFFFFFFFFFFFFFFFFE0
:10003000FFFF0300B9C60000FF0B00000100000035
:1000400026D40000EC0C00000200000024D40000C4
:10005000EA0C00000200000075CA14F0149E51EC76
:100060001BF001E1000C010C04EC1DF0010EE66E2A
:100070003AEC19F0E5520D0EE66EE66A500E146E7B
:10008000C40EFFEC1DF07B0EE66E000EE66EF1EC8A
:100090001CF002E2E16AE552E16E17503C0E0001ED
:1000A0007B1902E1A50E7C1902E056EC17F0DF6A1D
:1000B000050EDF5C0FE2DF50030DF3CFE9FFF4CF55
:1000C000EAFFC30EE9260A0EEA22C3EC1FF0EF6A2C
:1000D000DF2AEED7DF6A060EDF5C04E26AEC1DF071
:1000E000DF2AF9D7E552F7EF19F0DCEC19F04F0EE3
:1000F000E12402E3E168E652E16E42EC68F0060EAC
:1001000006C0DBFF070E07C0DBFF080E08C0DBFFE1
:10011000090E09C0DBFF0A0175A539D033EC1DF0CB
:100120008751EE5C146E8851EE58156E8951EE5869
:10013000166E8A51EE58176E8BCA18F0196A1A6A31
:100140001B6A360E0B6E6E0E0C6E010E0D6E0E6A75
:100150008BCA06F019C007F01AC008F01BC009F0DE
:1001600076EC69F002C018F003C019F004C01AF070
:1001700005C01BF01450025C15500358165004586B
:100180001750055804E20B01BD910A017595FD0E4B
:10019000DB5001E0BED30B01A9B1B3EF10F00A01AF
:1001A00075A1BBD10B0EDB6A070EF36E0B0E77EC5D
:1001B0001AF001E39ED144EC1BF001E197D1C6ECAB
:1001C0001FF0EECF1CF0EECF1DF0EECF1EF0EFCF04
:1001D0001FF033EC1DF000011C50EE5C186E1D503A
:1001E000EE58196E1E50EE581A6E1F50EE581B6EC8
:1001F00018C006F019C007F01AC008F0096E25EC07
:1002000066F007C014F008C015F009C016F00AC067
:1002100017F0810E0C6ECB0E0D6EA40E0E6E470EF7
:100220000F6E5EEC66F0010A0BE1DEEC1CF0E2EC16
:1002300019F00B0E50EC1FF00B0EBDEC1AF056D15E
:10024000F1EC1EF0200B01E051D10A0EDB94DB92A1
:1002500031EC1FF0EF5018086FE031EC1FF00C0E7E
:10026000EFCFDBFFDB50FF0817E1DEEC1CF0AAEC60
:100270001FF005EC1AF0300E145C750E1558000EC8
:100280001658000E175852E35AEC1CF0DB8217EC9C
:100290001FF00C0EDB6A4AD00C0EDB505EEC1DF03A
:1002A00002E2E16AE552E2EC1BF079A322D0DEEC37
:1002B0001CF068EC1FF0FC0EEE1802E1FF0EED18CA
:1002C00018E0DEEC1CF068EC1FF0FD0EEE1806E105
:1002D000FF0EED1803E17951010B0BE0DEEC1CF091
:1002E000050E8FEC1DF01450721907E115507319AB
:1002F00004E184EC1FF0EF6A0DD079B10BD0040E4D
:1003000072C0DBFF050E73C0DBFF0A0EDB8484ECDA
:100310001FF0EF900C0EDB2AE9EC1DF0040B06E158
:10032000180EF36E0C0E77EC1AF0B6E331EC1FF0FA
:100330000C0EDBCFEFFF46D00A0EDB800B01826B89
:100340000C0EDB6A180EF36E0C0E77EC1AF008E256
:1003500084EC1FF0EF50010B03E10C0EDB2AF2D707
:100360000C0EDB5018082AE00B01F00E826FF1EC46
:100370001EF00F0B000922E0C6EC1FF005EC1AF08E
:10038000360E145C6E0E1558010E1658000E1758D6
:1003900013E30A0EDB905AEC1CF0F1EC1EF00F0B8D
:1003A000E806E8500F0BF36EF46EF00EEF14F31046
:1003B000EF6E17EC1FF002D00A0EDB90E9EC1DF097
:1003C000010B32E1E9EC1DF0040B01E18FD02E0EA0
:1003D000F36E0D0EF3CFDBFFE9EC1DF0020B35E001
:1003E000DEEC1CF0050E8FEC1DF00B01D55114183E
:1003F0002CE1D651151829E10D0EDB6A2E0EF36E95
:100400000D0E77EC1AF009E20D0E78EC1DF0EE52AD
:10041000EF5003E00D0EDB2AF1D70D0EDB502E0856
:1004200014E10B01F10E826F35EC1FF0EFCF9CFB56
:10043000DEEC1CF08CEC1DF0EF8AF1EC1EF0100BE2
:1004400002E1B3EF10F0DEEF0FF035EC1FF0EF50EC
:10045000BCEC1FF0DEEC1CF0040E53EC1FF0050E9C
:100460002FEC1DF0DEEC1CF0050E53EC1FF0070E18
:100470002FEC1DF0DEEC1CF0070E53EC1FF0090E04
:1004800053EC1FF00A0EC1EC1CF0DF6ADEEC1CF02E
:1004900028EC1BF0DEEC1CF0C3EC1FF0EF50DF5C2F
:1004A00008E2ACEC19F001E3DB2AC6EC1EF0DF2A0F
:1004B000F1D7ECEC1CF0B2EC1AF062EC1AF00D0E75
:1004C000DB502E0802E1B1EF11F00D0E78EC1DF0BB
:1004D000DFCFEFFF35EC1FF0EF50E66E0D0E78EC3E
:1004E0001DF0EE52FDEC19F0B1EF11F00B0EDB2A0E
:1004F0005BD60B0EDB6A070EF36E0B0E77EC1AF071
:1005000006E244EC1BF003E10B0EDB2AF4D70B0EE2
:10051000DB50070802E10A0175910A0175A3DAD1DF
:100520000E0EDB6A030EF36E0E0E77EC1AF001E38B
:1005300094D00E0E7CEC1AF001E18CD00E0E56EC2D
:100540001FF001E187D05AEC1FF0080B0EE10E0EF0
:1005500041EC1DF005EC1AF0040E145C5D0E15580C
:10056000000E1658000E175827E25AEC1FF0080B21
:1005700071E00E0E41EC1DF0EECF20F0EECF21F039
:10058000EECF22F0EFCF23F033EC1DF0000120502E
:10059000EE5C1C6E2150EE581D6E2250EE581E6E01
:1005A0002350EE581F6E600E1C5CEA0E1D58000EA4
:1005B0001E58000E1F584EE30E0EE1EC1CF028EC06
:1005C0001BF0DF6A060EDF5C08E2ACEC19F001E319
:1005D000DB2AC6EC1EF0DF2AF5D7DF6A080EDF5CE7
:1005E00007E2ACEC19F001E3DB2A00EC1DF0F6D7D2
:1005F0000E0ECEEC1CF0EF965AEC1FF0070BE8063F
:10060000E850070BF36EF46EF80EEF14F310EF6E74
:100610000E0E41EC1DF0060EDBCFEEFF070EDBCF1A
:10062000EEFF080EDBCFEEFF090EDBCFEEFF5AEC3C
:100630001FF0070B000902E0ABEF11F00E0EE1EC2A
:100640001CF0E2EC19F00E0EE1EC1CF0EE6AED6A23
:10065000ABEF11F00E0EDB2A65D70E0EDB6A030E30
:10066000F36E0E0E77EC1AF03BE20E0E7CEC1AF0F5
:1006700034E00E0E9EEC19F005EC1AF0D8801C0E3A
:1006800014544E0E15540E0E1654000E175425E237
:100690000E0E07EC1DF002E2E16AE552E16E175022
:1006A00000018C0509E1020E8C6F1FEC1AF002E2CA
:1006B000E16AE552E16E14500E0E56EC1FF005E0B3
:1006C0000E0EE1EC1CF0E2EC19F00E0EE4EC1CF066
:1006D000E2EC19F00E0E67EC1BF00E0EDB2ABFD712
:1006E000DF6A060EDF5C01E3BBD082EC1EF001E1A5
:1006F000B5D00F0EDB6AD950100F46EC1AF049EC5A
:100700001DF0D2EC1CF0050E37EC1DF0E9EC1BF0EF
:1007100002E2E16AE55263EC1BF066E0100EDB508A
:1007200059E187EC1FF01DE185EC1CF01AE10F0E7A
:10073000DB6A2E0EF36E0F0E77EC1AF009E20F0E45
:1007400078EC1DF0EE52EF5003E00F0EDB2AF1D7EC
:100750000F0EDB502E0805E16BEC1FF0F10E826FDF
:1007600046D0D2EC1CF028EC1BF0010EDB6AD2EC78
:100770001CF0C3EC1FF0EF50A6EC1DF009E2ACEC4E
:1007800019F001E3DB2AC6EC1EF0010EDB2AEFD7DD
:10079000D950010F95EC1DF087EC1FF018E185ECA6
:1007A0001CF015E10F0E78EC1DF0010EDBCFEFFF12
:1007B000D2EC1CF0C9EC1CF068EC1FF0EF50E66EB8
:1007C0000F0E78EC1DF0EE52E552E750EF6EC9ECDB
:1007D0001FF03CD0100EDB50020840E187EC1FF008
:1007E0000CE185EC1CF009E16BEC1FF0826B1CEC5A
:1007F0001FF035EC1EF0DAEF0FF0B6EC1BF0A9ECB1
:100800001CF0D2EC1CF0030E2FEC1DF0D2EC1CF00F
:10081000030E08EC1FF0D2EC1CF0050EBAEC1EF033
:10082000D2EC1CF0050E6FEC1FF0D950010F46EC16
:100830001AF0D2EC1CF0030E37EC1DF062EC1AF04B
:10084000C9EC1FF0D2EC1CF0EE6AED6AEA6ADF3404
:10085000D6EC1CF035EC1EF0B1EF11F0DF2A41D7D9
:10086000DBEC1AF00A0EDF5C1BE2CAEC19F002E2C4
:10087000E16AE552E16E1750020E00018C5D0DE158
:10088000030E8C6F8A698B691FEC1AF002E2E16A31
:10089000E552E16E14504BEF11F0E2EC1AF0E2D7A2
:1008A000DF6A060EDF5C05E282EC1EF002E1DF2A61
:1008B000F8D7060EDF5C0EE1DF6A030EDF5C05E2AF
:1008C000EDEC1DF002E1DF2AF8D7030EDF5C02E158
:1008D0000A0175930A0175AFB3EF10F0759F00CA56
:1008E00082FB01CA83FB08CA8AFB09CA8BFB10CAB8
:1008F00092FB11CA93FB12CA94FB13CA95FB14CA4C
:1009000096FB15CA97FB16CA98FB17CA99FBD1EF3D
:100910000EF0FD0EDB50720A02E11DEF11F03B0AF2
:1009200002E109EF11F0010A02E104EF11F00F0AF0
:1009300002E170EF10F0010A02E159EF10F0030A32
:1009400002E152EF10F0010A02E14DEF10F0070A48
:1009500002E128EF10F0010A02E10EEF10F0030AA5
:1009600002E107EF10F0720A02E108EF0FF0010A4E
:1009700002E1FDEF0EF01C0A02E1D3EF0EF0040AD3
:1009800002E1BEEF0EF0030A02E15CEF0DF00C0A8B
:1009900002E106EF0DF0070A02E1F4EF0CF03E0A67
:1009A00002E16AEF0CF00A0A02E136EF0CF0040AE9
:1009B0006EE0030A02E0B3EF11F0DF6A060EDF5CBF
:1009C0003EE207EC1EF002E1FF0EED1836E0E8EC27
:1009D00019F0EE52EF500B019C5D2FE182512BE09C
:1009E0000B01A66B0B017F0EA76F0B01A981E8EC31
:1009F00019F0EF50E66EA9EC1CF0B4EC1FF0010EFC
:100A0000C1EC1CF010EC1FF008EC1FF010EC1FF014
:100A1000BAEC1EF0B4EC1FF0010EBAEC1EF0ECECD8
:100A20001CF010EC1FF037EC1DF062EC1AF06AECD1
:100A30001DF0B1EF11F06AEC1DF0DF2ABFD7DF6ABD
:100A40002E0EDF5C08E28AEC1FF0EF500B019C5D7C
:100A500002E0DF2AF5D72E0EDF5C02E1B3EF10F0E3
:100A600026EC1DF0EF500AE026EC1DF0EFCF9CFBCA
:100A7000340EF36E110EF3CFDBFF02D0110EDB6AE2
:100A800026EC1DF0EF6A110EDB50B4EF11F0080EEA
:100A9000F36E1A0EF3CFDBFFB0EC1EF0120ECFECAC
:100AA0001AF0130ECFEC1AF0140ECFEC1AF0150E4C
:100AB000CFEC1AF0160ECFEC1AF0170ECFEC1AF09E
:100AC000180ECFEC1AF0190EE7CFDBFFD950130F39
:100AD00089EC1AF0080B10E0DF6A080EDF5C0AE20E
:100AE0001CEC1BF0DF50EA6AD80FE96E0A0E86ECA8
:100AF0001EF0F3D778EC1BF0D950130F89EC1AF0E5
:100B0000100B10E0DF6A080EDF5C0AE21CEC1BF041
:100B1000DF50EA6AE00FE96E0A0E86EC1EF0F3D7AA
:100B200078EC1BF00B01921D01E1931D09E061ECD3
:100B30001CF0FB0ED880EE54FF0EED5401E3B5D34C
:100B4000DF6A070EDF5C28E28BEC1EF023E03BEC53
:100B50001EF0C2EC1EF0050EB4EC19F0EECF16F04C
:100B6000EFCF17F000011650141814E117501518A4
:100B700011E1C2EC1EF0C0EC1FF0EF50F36E190E45
:100B8000DB50F35C07E1DFCFE6FF2AEC17F0E5521C
:100B9000F1EF0CF0DF2AD5D742EC1EF001E026D3AE
:100BA00094EC17F0DF6EDF0401E05AD20A017651AF
:100BB000010B01E155D217EC1BF005E1D6511518D8
:100BC00002E1F1EF0CF01B0EDB6A48EC1EF001E3D2
:100BD000DB2A010EEF6EDF6E1DEC1CF008E201EC6B
:100BE0001FF001E3DB2AFDEC19F0DF2AF5D7210E17
:100BF000DB50E76E220EE7CFDBFF210EDB2A0B0175
:100C00009D515EEC1BF004E6D80E145C000E1558E6
:100C100002E2210EDB2A9D515EEC1BF004E6B40ECD
:100C2000145C000E155802E2210EDB2A9D515EEC89
:100C30001BF004E6900E145C000E155802E2210E23
:100C4000DB2A6C0E9D5D02E2210EDB2A480E9D5DC3
:100C500002E2210EDB2A240E9D5D02E2210EDB2A38
:100C60001D0EDBCFE6FF8EEC1FF0F1EC1DF01E0E2B
:100C7000BAEC1BF002E2E16AE55263EC1BF001E121
:100C80004DD10B01921D01E049D1931D01E046D1E8
:100C9000250EDB6A030EF36E250E77EC1AF01DE2CB
:100CA000250E7CEC1AF016E0250E9EEC19F0D3EC24
:100CB0001DF01E0EDB50145C0DE1250E45EC1DF001
:100CC0000CEC1CF0160EDB50151803E1170EDB5070
:100CD000161803E0250EDB2ADDD7030EF36E250E72
:100CE00077EC1AF03EE242EC68F04DEC1EF0250E77
:100CF0009EEC19F059EC1AF0210EDBCF14F0250E02
:100D000038EC1FF0EF50D880145402E2F1EF0CF0F1
:100D10001DEC1DF0CBEC1EF003E1200EDB5015188E
:100D200008E099EC1DF001E179D04DEC1DF001E0F7
:100D300075D05AEC48F00B01A9B1B3EF10F0250EB5
:100D40003DEC1FF0210EEFCFDBFFD9501C0F46EC1E
:100D50001AF0250EF1EC1DF0ECEC1BF001E34CD188
:100D600049D1D950260F46EC1AF0D950250F46EC40
:100D70001AF08EEC1FF0DBCFE6FFF2EC1BF002E284
:100D8000E16AE55263EC1BF002E1F1EF0CF0250E95
:100D900042EC1FF01E0EDBCFEFFF250E45EC1DF0E1
:100DA0002FEC1BF01DEC1DF0250E9EEC19F00A0E29
:100DB0008FEC1DF0160EDB50141803E1170EDB50FC
:100DC000151805E0250E04EC1FF0010904D0250ECE
:100DD00004EC1FF00309EF6E250ECEEC1CF0EF863D
:100DE000210ECBEC1EF003E1200EDB50151806E0BF
:100DF00099EC1DF013E04DEC1DF010E15AEC48F0B9
:100E00000B01A9B1B3EF10F051EC1DF0250EF1EC80
:100E10001DF0ECEC1BF001E3EFD0ECD0010EF36E13
:100E20001B0EF3CFDBFFDB5001E11AD199EC1CF074
:100E300001E016D1250E56EC1FF008E10E0EB4ECC1
:100E40001EF0250EE1EC1CF090EC1EF0250E56EC89
:100E50001FF002E1F1EF0CF0D9501C0F71EC1AF009
:100E6000250EE1EC1CF0270EEECFDBFF280EEDCFB8
:100E7000DBFFDF6A1DEC1CF00EE2ACEC19F001E3C5
:100E8000DB2AEF50E66E51EC1AF001E3DB2AFDECB1
:100E900019F0DF2AEFD7B6EC1BF051EC1AF001E3A2
:100EA000DB2AFDEC19F09DEC1CF051EC1AF001E38B
:100EB000DB2AFDEC19F051EC1AF001E3DB2A15EC0A
:100EC0001CF051EC1AF001E3DB2A19EC1CF051EC98
:100ED0001AF001E3DB2AA1EC1CF051EC1AF001E35B
:100EE000DB2AA5EC1CF051EC1AF001E3DB2A52ECF2
:100EF0001CF051EC1AF001E3DB2A120EDBCFEFFFFE
:100F00004BEC1AF0250E41EC1DF059EC1AF0250EB1
:100F100004EC1FF00409EF6EF1EF0CF0A7EC1BF0EE
:100F200095EC1EF0180822E04DEC1DF01FE18ACB75
:100F300014F08BCB15F0160EDB50141803E1170ECE
:100F4000DB50151837E000017E29E66E65EC1AF0DB
:100F5000A7EC1BF0E5EC16F0166E050EE15C02E264
:100F6000E16AE552E16E1650000924E10B01CE5111
:100F70000B018A1902E0F1EF0CF00B01CF510B01CC
:100F80008B1902E0F1EF0CF07EC0E6FF65EC1AF081
:100F9000D5CBE6FFD6CBE6FFE5EC16F0176E050ED7
:100FA000E15C02E2E16AE552E16E1750000902E0FD
:100FB000F1EF0CF059EC1BF003E1200EDB5015189B
:100FC0000AE099EC1DF01CE04DEC1DF019E165EC18
:100FD0001CF0020815E15AEC48F00B01A9B1B3EF7F
:100FE00010F051EC1DF0030EE66E65EC1AF0ECEC1F
:100FF0001BF002E2E16AE552E16E1450B1EF11F02C
:1010000074EC1FF002E132EF0CF099EC1CF002E0FE
:1010100032EF0CF048EC1EF001E3DB2AC6EC1EF0C8
:10102000ACEC19F001E3DB2AE2EC1EF001E3DB2A71
:10103000E2EC1EF001E3DB2AE2EC1EF001E3DB2A26
:10104000E2EC1EF001E3DB2ACCEC1FF0F8EC1EF022
:1010500079EC1FF00BEC1EF0B2EC1AF030EF0CF054
:10106000040EDF5C02E0F1EF0CF0B0EC1EF0290E94
:10107000E7CFDBFF17EC1BF005E1D651151802E1B5
:10108000F1EF0CF0180EDB50010850E2D9502A0F96
:101090009AEC1EF002E1F1EF0CF02A0E9BEC19F035
:1010A0008CEC1DF0EF982A0EDBCFE6FF2AEC17F050
:1010B000E5522A0E6EEC1DF02A0EBAEC1DF02A0E37
:1010C00012EC1EF02A0E19EC1EF02A0EAFEC1DF0E9
:1010D0002A0E9BEC19F0040E1AEC1DF02A0E7CEC83
:1010E0001DF02A0E9EEC1EF005E12A0E50EC1FF0BA
:1010F0002A0EB2D0DF6AACEC1BF02A0E9BEC19F082
:1011000080EC1AF0040EEF6E93EC1BF02B0E82CBEA
:10111000DBFF0B01825108E01CEC1BF0ACEC1BF078
:101120002A0E3DEC1DF0F5D70A01758165EC1AF029
:1011300025EC1CF002E1F1EF0CF090EC18F05AEC09
:1011400048F0D3EC1AF002E2E16AE552E16E145085
:1011500073EC1DF08A0EE66E0B0E9CEC1DF002E2A5
:10116000E16AE552E16E1450DF6A080EDF5C33E29B
:101170000A0EE66EE66A83EC1BF02AEC1CF0910E78
:10118000E66E000EE66EF1EC1CF002E2E16AE5525A
:10119000E16E175099C014F09AC015F0160EDB508E
:1011A000141817E1170EDB50151813E100019969A7
:1011B0009A690A0EE66E910EE66E000EE66E83ECFC
:1011C0001BF0C4EC1BF002E2E16AE552E16E16503E
:1011D00002D0DF2ACAD7290EDBBC02EF11F0DB50A8
:1011E000200B0B01826F4D0EB4EF11F0180EDB5087
:1011F000010851E2D9502C0F9AEC1EF001E1F1D315
:101200002C0E9BEC19F08CEC1DF0EF982C0EDBCF24
:10121000E6FF2AEC17F0E5522C0E6EEC1DF02C0EBA
:10122000BAEC1DF02C0E12EC1EF02C0E19EC1EF078
:101230002C0EAFEC1DF02C0E9BEC19F0040E1AECEA
:101240001DF02C0E7CEC1DF02C0E9EEC1EF007E128
:101250002C0E50EC1FF02C0EBDEC1AF0C2D3DF6A3E
:1012600093EC1BF02D0E82CBDBFF0B01825108E0CB
:101270001CEC1BF0ACEC1BF02C0E3DEC1DF0F5D77C
:10128000020EDBCF84FB030EDBCF85FB2D0EDBCF05
:1012900082FB0A01758117EC1BF004E1D651151889
:1012A00001E19FD377EC1CF04AD242EC1EF001E042
:1012B0002DD294EC17F0DF6EDF50060A23E0020A0D
:1012C00007E00A0176A18DD3DF0401E0C8D07BD40A
:1012D00094EC17F0DF6E5AEC48F0DFBCB3EF10F07F
:1012E00065EC1AF025EC1CF002E1B3EF10F090EC85
:1012F00018F0D3EC1AF002E2E16AE552E16E145004
:1013000002EF11F0010EF36E2E0EF3CFDBFF94EC23
:1013100017F00B01826F5AEC48F0EAEC1EF0070E52
:10132000EF6EE00EE66E0A0E12EC1BF0180820E1DC
:101330000C01010EEA6F2EEC12F0000905E067ECDB
:1013400012F0DF6E180810E1EAEC1EF0FD0EEF6EF1
:10135000A8EC19F0EF68A8EC19F0020EEF6E2E0E53
:10136000DB6A0C01EA6B0FD0BEEC11F00C01EA6BEA
:10137000EAEC1EF072C0EFFFA8EC19F073C0EFFFAB
:10138000A8EC19F0EF6A8DEC1AF0F50EE66E0B0E74
:10139000E66EF1EC1CF002E2E16AE552E16E1750F4
:1013A000DF6A080EDF5C09E28FEC1CF0F50FE96ED6
:1013B0000B0EEA2200EC1DF0F4D7DF6A080EDF5CAA
:1013C00009E28FEC1CF0E00FE96E0A0EEA2200EC55
:1013D0001DF0F4D7F7EC1CF0FCEC1EF0A1EC19F0BA
:1013E000180EEF6E93EC1FF02E0EDB5003E00A0197
:1013F000758F02D00A01759F82CB00FA010E016F32
:1014000072C008FA73C009FAE0CA10FAE1CA11FA08
:10141000E2CA12FAE3CA13FAE4CA14FAE5CA15FAE0
:10142000E6CA16FAE7CA17FA170EDB50E96FE86B3F
:10143000160EDB50E811E86FECEC1CF0E66EE9CA22
:10144000E6FF62EC1AF00B018251020B05E08251BB
:10145000080B02E0B1EF11F08585B1EF11F0030E3A
:10146000DF5C48E199EC1CF045E1EAEC1EF0030E6C
:10147000EF6E1CEC1BF00B01C6EC1CF0B0EC1EF088
:101480002F0EE7CFDBFFEAEC1EF02F0EDBCFEFFFD6
:10149000B0EC1EF0300EE7CFDBFFEAEC1EF0300EB2
:1014A000DBCFEFFF5AEC48F0CEEC1BF005E1D65154
:1014B000151802E1A6EF0FF0B7EC1FF0D950310F6D
:1014C00046EC1AF049EC1DF036EC1BF0E9EC1BF091
:1014D00002E2E16AE55263EC1BF001E00BD174EC2F
:1014E0001FF001E007D10B01A66B0B017F0EA76F68
:1014F000B3EF10F0020EDF5C01E073D2320EDB6A54
:10150000030EF36E330EF3CFDBFFD950340F71ECC3
:101510001AF0ACEC19F001E3DB2A020EEF6E010EBB
:10152000DF6E32EC1CF008E201EC1FF001E3DB2A75
:10153000FDEC19F0DF2AF5D7350EDBCFE6FF390ECB
:10154000DBCFE6FF3A0EF1EC1DF0360EBAEC1BF0E5
:1015500002E2E16AE55263EC1BF001E17AD0330E5E
:10156000DB6A030EF36E330E77EC1AF01DE2330ED6
:101570007CEC1AF016E0330E9EEC19F0D3EC1DF063
:10158000360EDB50145C0DE1330E45EC1DF00CEC17
:101590001CF0370EDB50151803E1380EDB5016181F
:1015A00003E0330EDB2ADDD7330EDB5003086AE09D
:1015B000050EE66EE66AC3EC1DF02AEC1CF0F5ECB5
:1015C0001DF0F1EC1CF002E2E16AE552E16E175009
:1015D00000018C6B330E9EEC19F0B7EC1DF0EF5050
:1015E000F36E3B0E77EC1AF00CE2330E9EEC19F022
:1015F000B7EC1DF03B0EDBCFEFFF8ACB8DF08BCB32
:101600008EF0050EE66EF5EC1DF0C3EC1DF0C4EC9B
:101610001BF002E2E16AE552E16E1650A2EC1EF008
:10162000370EDB50141803E1380EDB5015182AE092
:10163000010EF36E320EF3CFDBFF330E3DEC1FF0E5
:101640003B0EDBCFE7FFEF50E7263B0EE7CFDBFF9C
:1016500019D0A2EC1EF0140EDB50141803E1150E85
:10166000DB5015180FE0070E146E3B0EDBCFE7FFC3
:101670001450E7263B0EE7CFDBFF010EF36E320E70
:10168000F3CFDBFF320EDB503BE099EC1CF038E18E
:101690005AEC48F0330EDB5003080AE0330E47ECF7
:1016A0001FF0040EEECFDBFF050EEDCFDBFF09D000
:1016B00049EC1DF065EC1AF006EC1BF002E1B3EF0B
:1016C00010F0D950340F71EC1AF0DF6A32EC1CF0D4
:1016D00008E2ACEC19F001E3DB2AC6EC1EF0DF2ACD
:1016E000F5D7D9EC1DF0A1EC19F0180EDBCFEFFF08
:1016F000B0EC1CF0ECEC1CF0B2EC1AF0AFEF11F017
:101700005AEC48F00B01826B4EEF11F0CEEC1BF05F
:1017100002E1D651151808E061EC1CF0FF0EEE183E
:1017200011E1FF0EED180EE177EC1CF0140EDBCF8B
:1017300086FB150EDBCF87FB0B01020E886F350E83
:10174000B4EF11F00A017651010B01E14AD1180EF4
:10175000DB50010801E345D199EC1CF001E041D1D7
:1017600049EC1DF0D950120F89EC1AF01EEC1EF056
:10177000E66E36EC1BF0E66A16EC14F0146E060EFC
:10178000E15C02E2E16AE552E16E1450E76E3C0E64
:10179000E7CFDBFFDB50030A33E0010A31E0060A42
:1017A0002FE0050A01E11DD1010A2AE1B7EC1FF083
:1017B0000B01825106E01CEC1BF00B01C6EC1CF087
:1017C000F7D7D950010F95EC1DF0DF6A060EDF5CEC
:1017D00049E207EC1EF012E1FF0EED180FE1B4EC48
:1017E0001FF02FEC1BF0E8EC19F056EC1CF0E8ECC5
:1017F00019F0EE52010EDBCFEFFF34D0DF2AE6D72F
:10180000F8EC1EF0FCEC1EF0E7EC1CF0030EEF6EA3
:101810003C0EDB50020804E1A8EC19F0010E0FD0D9
:101820003C0EDB50030804E1A8EC19F0020E07D0CF
:101830003C0EDB50040805E1A8EC19F0040EEF6E35
:1018400003D0A8EC19F0EF6AA8EC19F019EC1CF021
:10185000A8EC19F015EC1CF0ECEC1CF0A7EC1BF05C
:1018600062EC1AF05AEC48F0B1EF11F0DF6A080EA2
:10187000DF5C10E2DF50EA6A8A0FE96E0B0EEA22A3
:10188000EF50E66EDF50EA6A920FE96E0B0E86ECBF
:101890001EF0EDD7DEEC1DF0DF6E18080CE12EEC2B
:1018A00012F000090FE067EC12F018080BE0BEEC34
:1018B00011F082CBB5FA72C088FB73C089FB0B01B3
:1018C000826B05D00B01010E826F88698969170E42
:1018D000B4EF11F0020E0B01885D01E082D0FBEC49
:1018E0001BF001E07ED086CBE6FF87CBE6FFA7ECBE
:1018F0001BF0DBEC17F0A7EC1EF018081EE167ECFC
:1019000012F018086EE000017983788D788FDF6A15
:10191000080EDF5C09E2DF50EA6A6A0FE96E000E2A
:10192000EA22EF6ADF2AF4D700017D2B27EC1AF0B8
:1019300002E2E16AE552E16E14500B019BAD03D067
:101940000001789902D000017889789B7981020E94
:101950000AEC1BF0780BE840E840E8401F0B000160
:101960000F0BF36EF00E54EC1EF00F0B00010F0B7B
:10197000F36EF346F346F346F3460F0E54EC1EF0B7
:10198000F00BE8380F0B00010F0BF36EF00E78151B
:10199000F310786F9DCB76F00B019B510001799588
:1019A000800B01E07985020E0AEC1BF0800B8008A9
:1019B00002E0000E01D0010E00017997E8B07987AE
:1019C00086CB74F087CB75F08ACB72F08BCB73F03B
:1019D00089CB7AF03DEC1AF002E2E16AE552E16E61
:1019E00014505AEC48F0BFD3DEEC1DF0DF6E180E39
:1019F000DF5C02E1B3EF11F072C092FB73C093FBA6
:101A00000B01010E826F230EB4EF11F00A01755124
:101A1000080B15E0020EC05D12E17651400B01E0AB
:101A2000010EE76E3D0EE7CFDBFF0B01926B936B70
:101A3000946B956B966B976B986B996B30D075A781
:101A400034D07651400B01E0010EE76E460EE7CF31
:101A5000DBFF8DEC1AF0D9503E0F46EC1AF0F1EC9A
:101A60001CF002E2E16AE552E16E17503E0EDBCF58
:101A700092FB3F0EDBCF93FB400EDBCF94FB410E7E
:101A8000DBCF95FB420EDBCF96FB430EDBCF97FB04
:101A9000440EDBCF98FB450EDBCF99FB0B01826B2D
:101AA000E66A3AEC19F0E552ADD3E66A3AEC19F081
:101AB000E5523D0EB4EF11F00B01885101E0CFD09B
:101AC000835105E10B01A9990B01C40EA4D2300E7C
:101AD000E66ECFEC64F0E552F3CFB3FAF4CFB4FA8C
:101AE0000A01F350F41007E10B0184518511EAE07B
:101AF0006BEC1BF0E7D7B26B93EC1BF0DF6A200EA8
:101B0000DF5C3EE2B6CA14F0010E141651EC1BF075
:101B100029E08ACB14F0010E141651EC1BF022E1DF
:101B20003AEC1CF05EEC1BF004E6FA0E145C000EBE
:101B3000155813E2B2511CEC1AF0DFCFEFFF3AEC6C
:101B40001CF0E66EB2511CEC1AF0EE52FDEC19F0EE
:101B5000B25183EC1DF0EF6AB22B020EDB2A030EAA
:101B600001E3DB2A0B01D8908D338C338B338A331E
:101B70000A01D890B933B833B733B633DF2ABFD7A9
:101B8000B2CADFFFDF5000083FE2DE52010EDD6E19
:101B9000DBCF14F0DF04D880145434E3010EDB50A3
:101BA000E6EC1BF0EE52EFCF14F0ACEC1EF0EE5270
:101BB000EF50145C24E2ACEC1EF0470EEECFDBFFDE
:101BC000480EEECFDBFF490EEECFDBFF010EDB5000
:101BD0001CEC1AF0EECF14F00CEC1CF0ACEC1EF088
:101BE0009AEC1BF0010EDB501CEC1AF0470EDBCF19
:101BF000EEFF480EDBCFEEFF490EDBCFEEFF010E0E
:101C0000DB2AC6D7DF06BED70B018451851102E05F
:101C10006BEC1BF00A01B25103E1C9EC1AF052D788
:101C2000B16B0B01010E886F146E156A166A176A84
:101C300098EC1FF0EF501F0B07E0D89014361536C4
:101C400016361736E806F9E114C08AFB15C08BFB7F
:101C500016C08CFB17C08DFBBACA89FBF7D10A01ED
:101C6000B15183EC1DF083CBEFFF0B01865187113F
:101C700019E086CBE9FF87CBEAFF1B0EB4EC19F025
:101C800028EC1BF086CBE6FF87CBE6FFAAEC1DF025
:101C90000B01866B876B020EDBCF86FB030EDBCF5F
:101CA00087FBE3D70A01B12BB251B15DBAE1B16B49
:101CB000C1CA86FBC2CA87FB0B01861D01E1871DD5
:101CC00009E05AEC1EF006E00A01B251B15D02E2F1
:101CD000B12BF7D70A01B251B15D05E10B0186695D
:101CE00087690A01B16B010EDF6E0A01B251DF5C38
:101CF0001BE2B15183EC1DF0EFCF14F0DF5083EC09
:101D00001DF0EF50D88014540DE20B01861D01E147
:101D1000871D06E0DF50E6EC1BF0A1EC1BF002E1B2
:101D2000DFCFB1FADF2AE1D70B01861D0BE1871D5A
:101D300009E1D6CF86FB3F0ED7140B01876F5AEC13
:101D40001EF0F7E10B01D56BD66BC2EC52F00A0125
:101D500076912BEC18F098EC1FF0EFCF88FB0B017D
:101D60000F0E8E6F8F6F010E826F0B01BD510B0135
:101D70008293040B01E082832D0EF6D25DEC1EF0FF
:101D80000B01825103E0180EDF5CEDD1180EDF5C11
:101D900001E1E9D272C08AFB73C08BFBB5CA82FB3A
:101DA000836B4C0EE1D20A01B351B41102E0C9ECCD
:101DB0001AF00B01825102E10A01768100017E6B6B
:101DC0003D0E7F6F140E806F87B10AD06F0E816F4A
:101DD000790E826F010E836F846B856B866B8781B2
:101DE00027EC1AF002E2E16AE552E16E145001ECD0
:101DF0001CF00B01A999A9870FD10B01825101E1B8
:101E00001AD2EB0E825D02E1826B15D2C60E12D29F
:101E10000B01A9B703D00B01C20ECBD00B01921D51
:101E200001E1931D0EE0FD0E921902E1FF0E9319E0
:101E300008E0FC0E921901E08CD0FF0E931901E02E
:101E400088D0D9504B0F9AEC1EF001E1B0D014ECC1
:101E50001FF08CEC1DF0EF8814EC1FF0AAEC1FF0C3
:101E6000300EEE26750EEE22000EEE22EE220B0153
:101E7000A751146E156A7F0ED8801456000E1556A1
:101E80000B01A651166E176A145016240B01826FAF
:101E90004B0E6EEC1DF08B51400DF3500809E66EB1
:101EA00014EC1FF00A0E1AEC1DF08351E824E66EC4
:101EB00014EC1FF0090E1AEC1DF014EC1FF0070EC5
:101EC00063EC1EF014EC1FF0050EB4EC19F0B1EC4D
:101ED0001BF014EC1FF0040EB4EC19F08ACBEFFFEA
:101EE00014EC1FF0C0EC1FF09CCBEFFF82CBE6FFA1
:101EF0006CEC1AF04B0E9EEC1EF007E14B0E50EC12
:101F00001FF04B0EBDEC1AF052D0DF6A0B01A75147
:101F10005EEC1BF004E67F0E145C000E155805E223
:101F2000A72BA75162EC1FF0F1D70B01826B0B01BD
:101F3000A65108E00B018251822B62EC1FF00B01CD
:101F4000A607F5D70A01758106EC1CF00B01A66BFC
:101F50000AD149EC1DF08BCBE6FF92CBE6FF93CB89
:101F6000E6FF010EE66E16EC14F0146E060EE15C50
:101F700002E2E16AE552E16E1450E76E4C0EE7CFE3
:101F8000DBFFDB50010A01E1EED0010A03E00B01A7
:101F9000D10E0FD0DF6A2E0EDF5C06E226EC1DF0BC
:101FA000EF5002E0DF2AF7D72E0EDF5C09E10B01CC
:101FB000F10E826F06EC1CF00B01A66B340ED4D12F
:101FC00026EC1DF09CCBEFFF0B01A1EC19F09CCB94
:101FD000EFFF29EC1DF093CBEFFFA1EC19F092CBB2
:101FE000EFFF0B018351E824BCEC1FF00B018B5178
:101FF000400DF3500809BCEC1FF0D9504A0F95EC86
:102000001DF08AEC1FF04A0EDBCFEFFFAAD10B01C7
:10201000A9990B01C20E826F370EA6D10B01A989B7
:102020000A01B351B41102E0C9EC1AF08ACBB6FA36
:102030008BCBB7FA8CCBB8FA8DCBB9FA89CBBAFA7D
:1020400086CBC1FA87CBC2FA0B01886B280E8CD1E4
:102050000A0175950B01825103E10B01BD9114D06A
:102060000B01BD81FF0E0B01825D0EE082CB8BFA6E
:1020700042EC68F006C087FA07C088FA08C089FAFF
:1020800009C08AFA0A01758583CBE6FF0FEC19F0C7
:10209000E5520B01826B380E67D10B01C20E826FC5
:1020A000390E62D10B0188698969C20E826F3A0EBE
:1020B0005BD1DEEC1DF0180803E00B01C50E09D062
:1020C000CDD9000904E003DADF6E180804E10B0142
:1020D000C70E826F03D052D90B01826B3B0E44D1E5
:1020E0000B01A9B703D00B01C20E8BD00B0192518B
:1020F0003CE193513AE1945138E1955136E19651E2
:1021000034E1975132E1985130E199512EE10B01C0
:10211000BD910A0175870B0182510A017693E8B0DF
:1021200076837685BB6B76B302D0180EBB6F42EC1C
:1021300068F006C0BCFA07C0BDFA08C0BEFA09C004
:10214000BFFA0B01835102E0000E01D0010E0A011B
:10215000769BE8B0768B0B0183510A01769DE8B03F
:10216000768D020EC06F000EFFD05DEC1EF01808D9
:1021700046E04DEC1DF043E10B01855105E090EC8C
:1021800018F00B01826B3ED0DF6A080EDF5C09E2BB
:102190008FEC1CF06A0FE96E000EEA2200EC1DF0D5
:1021A000F4D7F7EC1CF073C0EFFFA1EC19F072C08C
:1021B000EFFFA1EC19F0080EEF6E93EC1FF0A729CA
:1021C000AEEC1AF003EC68F0E552EAEC1EF0040EF7
:1021D000EF6E400EDF6E0B01825101E0DF8E835106
:1021E00003E00A01768DDF8AEAEC1EF0DFCFEFFF15
:1021F000ECEC1CF072C0E6FF73C0E6FFB0D00B0140
:10220000C80E826F3C0EB0D00B01010E826F240EFF
:10221000ABD00B0182510DE1836BD3CB9AFBD4CBB6
:102220009BFB020E896FCECB92FBCFCB93FB310E83
:102230009BD0C10E826F3E0E97D00B01A9B702D082
:102240000B0113D00B01845112E0921D01E1931D8B
:102250000CE0FD0E921902E1FF0E931906E0FC0E50
:10226000921905E1FF0E931902E1C20E16D0D95062
:102270004E0F46EC1AF0D9504D0F46EC1AF092CBA7
:10228000E6FF93CBE6FFF2EC1BF002E2E16AE552D7
:1022900063EC1BF005E10B01020E826F730E64D03C
:1022A0000A018C518C2BE66E4D0E9EEC19F00E0E31
:1022B0001AEC1DF04D0E45EC1DF0B1EC1BF04D0E6F
:1022C00047EC1FF0B1EC1BF04D0E6AEC1EF04D0E0A
:1022D00004EC1FF00309EF6E4D0ECEEC1CF0EF96F0
:1022E0004D0E3DEC1FF0EF68B6EC1BF00B01BEECA1
:1022F0001EF029EC1DF0EF68A1EC19F0EF68E7EC97
:102300001CF0010EEF6EA8EC19F0800EEF6E0B01C1
:10231000840505E10B01A60586EC1DF0EF8C4D0E42
:1023200042EC1FF0C6EC1EF00B01845109E1EAEC0F
:102330001EF0D5CBEFFFA8EC19F0D6CBEFFF08D0FD
:10234000EAEC1EF092CBEFFFA8EC19F093CBEFFF75
:10235000A8EC19F0EF6AECEC1CF0E668E66862ECB9
:102360001AF0100E01D0000E146E4F0EE15C02E266
:10237000E16AE552E16E1450F7EF19F0080EE66ECF
:10238000E66A8A0EE66E0B0EE66E6A0EE66E000ECA
:102390009CEC1DF002E2E16AE552E16E1450D3CBF1
:1023A00074F0D4CB75F000017A690B0182B314D0BC
:1023B00000017899788B81C072F082C073F00001BF
:1023C000812B000E8223FE0E81192BE1FF0E821954
:1023D00028E10A01768725D000017889789B83C09F
:1023E00072F084C073F00001862B7F5183278051E7
:1023F0008423060E086E096A7FC00DF080C00EF0BF
:1024000040EC66F00B01D5510624146ED65107201E
:10241000156E00018351145C8451155802E20A01C3
:1024200076890B01825100017991080B01E07981D5
:10243000788D789F79833DEC1AF002E2E16AE552EB
:10244000E16E14500001852B7D2B27EC1AF002E27F
:10245000E16AE552E16E145001EF1CF00C01EA5103
:102460001DE10B01BD51010B17E0140E0001855D4C
:1024700013E20B018251020B04E10A017651080BB1
:102480000CE0050E00017E5D07E2060E865D04E2AB
:102490000A017651100B01E0000C010C140E000132
:1024A000855D13E20B018251020B04E10A017651B2
:1024B000080B0CE0050E00017E5D07E2060E865D4E
:1024C00004E20A017651100B01E0000C010CE5EC6E
:1024D0001EF0180EDF5C0FE2B8EC19F002E2E16AC0
:1024E000E552E2EC1BF079B302D0DF5005D0A3EC4B
:1024F0001AF0DF2AEED7180EE552F7EF19F0ADEC1F
:102500001FF0DF6A070EDF5C05E28BEC1EF002E0D5
:10251000DF2AF8D7070EDF5C08E02D0EB4EC1EF0C2
:10252000F3EC19F0B9EC1AF002E1000E40D0FC0E09
:10253000DBCFE9FFFD0EDBCFEAFFDFCFEFFFC2EC21
:102540001EF00B0EB4EC19F0EF684BEC1AF0C2EC75
:102550001EF0AAEC1FF059EC1AF0C2EC1EF0B7EC1A
:102560001DF09AEC1BF017C0EEFFC2EC1EF08CECD5
:102570001DF0EF9AC2EC1EF08CEC1DF0F00EEF1483
:102580000209EF6E010EDB6A180EA6EC1DF00EE2DA
:10259000C2EC1EF0150EB4EC19F0010EDB50E3ECAA
:1025A0001DF0030EEF6E010EDB2AEED7010EE55291
:1025B000E552F7EF19F004EC1DF0FB0EDB500308B9
:1025C00011E0FB0E07EC1DF002E2E16AE552E16E5C
:1025D000175000018C6B1FEC1AF002E2E16AE55221
:1025E000E16E1450EAEC1EF0020EEF6EE9EC1AF008
:1025F00011EC1CF0C6EC1CF0E9EC1AF0020EBAEC7F
:102600001EF0A8EC19F0FC0EDBCFEFFFA8EC19F0E0
:10261000FD0EDBCFEFFFE9EC1AF0030EBAEC1EF073
:10262000E9EC1AF0030E6FEC1FF0E9EC1AF0050E5E
:10263000BAEC1EF0F8EC1EF0FD0EDBCFEFFFA1ECC4
:1026400019F0FC0EDBCFEFFF0BEC1EF0A7EC1BF03C
:1026500062EC1AF0E552F7EF19F004EC1DF0DBEC38
:102660001AF0CAEC19F002E2E16AE552E16E175085
:102670000A0EDF5C0DE242EC1CF003E1FD0EDB50C4
:10268000151806E0E2EC1AF0CAEC19F0EFE2ECD70C
:102690000A0EDF5C16E1DBEC1AF0CAEC19F002E27C
:1026A000E16AE552E16E17500A0EDF5C0AE2030EA2
:1026B00000018C5D06E0E2EC1AF0CAEC19F0F2E2DF
:1026C000EFD7F0EC1AF0DFCFEFFFDF6A030EDF5C2D
:1026D00005E2EDEC1DF002E0DF2AF8D73DEC1BF03F
:1026E000DFCFEFFF140EB4EC1EF001EC1AF0B9ECE2
:1026F0001AF002E1000E2DD0FC0EDBCF8AF0FD0EA9
:10270000DBCF8BF00001010E8C6F1FEC1AF002E2A0
:10271000E16AE552E16E1450EDEC1EF0B7EC1DF0ED
:10272000EF684BEC1AF0EDEC1EF059EC1AF0F0ECFF
:102730001AF0EF50E66EEDEC1EF0120E1AEC1DF0E2
:10274000EDEC1EF0AAEC1FF0EE6AED6A0A0175834B
:10275000010EE552F7EF19F0ADEC1FF0DE6ADD6A0D
:10276000FD0EDB50050A1AE0010A15E0070A11E028
:10277000010A0DE0030A06E0010A12E13D0EDE6ED9
:10278000140E03D05D0EDE6E030EDD6E09D08D0ECD
:1027900003D0150E01D0010EDE6E01D0DE6ADD6AB7
:1027A000DECF14F0DDCF15F014C0F3FF15C0F4FF39
:1027B000E552E552F7EF19F0ADEC1FF0DBEC1AF043
:1027C000010EDB6ACAEC19F002E2E16AE552E16E41
:1027D000175042EC1CF007E1FD0EDB50151803E129
:1027E000010EDF6E07D0010EDB2A0001050E8F27D8
:1027F000000E90230A0EA6EC1DF002E2DF50E2E08C
:10280000DF500BE03DEC1BF08DC0EEFF8EC0EDFF06
:10281000F0EC1AF08CC0EFFF04D0F0EC1AF0030ECD
:10282000EF6EDF50E552E552F7EF19F004EC1DF0C2
:10283000FB0EDBCFE6FFFC0EA9EC1AF010E04DEC2E
:102840001DF004E03AEC1AF0000909E1F0EC1AF08E
:10285000FB0EDBCFEEFFFC0EDBCFEDFF26D0800EB4
:10286000E66E6DEC1EF0D5CBE6FFD6CBE6FFE66A52
:10287000E66A3AD8146E070EE15C02E2E16AE552BC
:1028800063EC1BF023E0FA0EDB50020816E0ECECE0
:102890001CF049EC1BF0E9EC1BF002E2E16AE552A6
:1028A00063EC1BF007E0DF5002E1000E1AD0FA0ED5
:1028B000DB6A0CD0FA0EDB0409E1010EE66EFD0EB8
:1028C000DBCFE6FF78D8E552E5520BD049EC1BF0A0
:1028D00006EC1BF005E10B01D10E826F020E01D058
:1028E000000EE552F7EF19F0ADEC1FF0E652020EC4
:1028F000DB6ADF6A030EDF5C24E2EDEC1DF01AE018
:10290000FD0EDB501CE0EDEC1EF0D3EC1DF0FC0ED8
:10291000DB50145C14E1EDEC1EF0080EB4EC19F081
:102920000CEC1CF0FA0EDB50151809E1FB0EDB5025
:10293000161805E1010EF36E020EF3CFDBFFDF2A5E
:10294000D9D7F70EDBAE03D0DE520A0E02D0DE522C
:10295000040EDD6E020EDB5027E0020EDB6ADBECBC
:102960001AF0010EDB50DF5C1FE2CAEC19F002E244
:10297000E16AE552E16E17508AC014F08BC015F081
:10298000F80EDB50141803E1F90EDB50151804E0C3
:10299000030E00018C5D05E1010EF36E020EF3CF14
:1029A000DBFFE2EC1AF0DDD7020EDB50E552E55218
:1029B000E552F7EF19F0DCEC19F00B0EE12402E31D
:1029C000E168E652E16E010EDB6A060EA6EC1DF030
:1029D00008E2B0EC1FF095EC1AF003E0010EDB2AE0
:1029E000F4D7010EDB50060801E157D10B0EB4EC11
:1029F0001EF0B0EC1FF0D6EC1CF0B9EC1AF001E1BF
:102A00004CD1FD0EDB5001E18CD0BBEC1CF0C0ECD6
:102A10001FF0B1EC1BF0BBEC1CF0050E63EC1EF0DC
:102A20000B01A751166E176A7F0ED8801656000E3E
:102A30001756080E1626000E17220B01A65100018C
:102A40001624146E000E1720156EF5EC1EF014C03F
:102A5000EFFFF5EC1EF0F7EC1AF001E115D1BBEC3D
:102A60001CF0D8EC1BF0F3500809B7EC1EF001E3A2
:102A7000DB2AFDEC19F00B018351E824B7EC1EF0C2
:102A800001E3DB2A9CEC1FF001E3DB2A92CBEFFF92
:102A9000ACEC19F001E3DB2A93CBEFFFACEC19F0BF
:102AA00001E3DB2AD5CBEFFFACEC19F001E3DB2A25
:102AB000D6CBEFFF040E8ACBDBFFACEC19F001E3C1
:102AC000DB2A040EDBCFEFFFACEC19F001E3DB2ACD
:102AD0009CCBEFFF0B01A7515EEC1BF004E67F0ED1
:102AE000145C000E15580BE2A72BA751AEEC1AF0A0
:102AF000ACEC19F001E3DB2AFDEC19F0EBD7DF6A4F
:102B00000B01A651A607000901E17DD0DF50DF2AA5
:102B1000AEEC1AF0ACEC19F001E3DB2AFDEC19F095
:102B2000EFD7040E0B01845F000E855BBBEC1CF03D
:102B3000C0EC1FF08AEC1CF08407855BFBEC1BF0FB
:102B4000E66E4CEC1FF0EE52FDEC19F08407000E1F
:102B5000855BFBEC1BF0E66EBBEC1CF0050E1AEC83
:102B60001DF0020E845F000E855B080E8227F5ECD7
:102B70001EF082CBEFFFF5EC1EF0F7EC1AF001E14E
:102B800083D0BBEC1CF0D8EC1BF0F3CF14F0F3CFE8
:102B9000E6FFCAD9E552E7CF14F03F0B1410B7ECAB
:102BA0001EF001E3DB2A17EC1DF001E3DB2A17EC32
:102BB0001DF001E3DB2A17EC1DF001E3DB2A17EC23
:102BC0001DF001E3DB2A17EC1DF001E3DB2AFDEC2D
:102BD00019F0AAD9FF0FE76E040EE7CFDBFFBCDBCD
:102BE00001E3DB2A040EDBCFEFFF01EC1FF001E372
:102BF000DB2AFDEC19F00B01825105E001EC1FF01E
:102C0000F8E3DB2AF6D74BEC1AF0BBEC1CF068ECCF
:102C10001FF059EC1AF0D950060F46EC1AF0D950B3
:102C2000050F46EC1AF0BBEC1CF0050E37EC1DF05E
:102C3000F2EC1BF002E2E16AE55263EC1BF021E0EA
:102C400006EC1CF00B01A66B0E0EB4EC1EF0050E8C
:102C5000E1EC1CF090EC1EF074EC1EF0145015101A
:102C60001EE10001010E8C6FEADB02E2E16AE5522F
:102C7000E16E1450050EE4EC1CF0A4DB050E67ECCD
:102C80001BF0BBEC1CF09EDBB0EC1FF0D6EC1CF094
:102C900099DBB0EC1FF099EC1AF0040E8DD0050E04
:102CA00042EC1FF08CCAEFFF050E45EC1DF0B1ECB5
:102CB0001BF0050E6AEC1EF0050E04EC1FF0040973
:102CC000EF6E050ECEEC1CF0EF9646DB01E3DB2A3F
:102CD000010EEF6E41DB01E3DB2A800EEF6E0A018D
:102CE0008C518C2BB7EC1EF001E3DB2A86DB4CEC1D
:102CF0001FF0EF50B7EC1EF001E3DB2A7EDB4CEC5B
:102D00001FF011EC1CF028DB01E3DB2A9CEC1FF028
:102D100001E3DB2AEF6AB6EC1BF01EDB01E3DB2AE2
:102D20009CEC1FF001E3DB2A040EDBCFEFFF14DB8A
:102D300001E3DB2AD6CBEFFF0FDB01E3DB2AD5CBA8
:102D4000EFFF0ADB01E3DB2AEF6806DB01E3DB2AA6
:102D5000FC0EEF6E01DB01E3DB2AEF6AFDDA01E333
:102D6000DB2A090EEF6E42EC68F0070E06C0DBFFAF
:102D7000080E07C0DBFF090E08C0DBFF0A0E09C002
:102D8000DBFF070EDBCF14F0080EDBCF15F0090ECA
:102D9000DBCF16F00A0EDBCF17F0040E145E5D0ECB
:102DA000155A000E165A175A050E41EC1DF09AECF2
:102DB0001BF017C0EEFF010E146E0B0EE15C02E279
:102DC000E16AE552E16E145012D3F6DAF90EDB50E7
:102DD0003DE07EEC1CF0FA0EDBCF16F0FB0EDBCFF5
:102DE00017F01650145C1750155832E2FA0EDBCF6C
:102DF00018F0FB0EDBCF19F0FC0EDBCF1CF0FD0E44
:102E0000DBCF1DF018C0E6FF19C0E6FF1CC0E6FFCF
:102E10001DC0E6FFF90EDB04E66E9EDCE552E552CE
:102E2000E7CF1DF0E552E7CF1CF0E552E7CF19F0F0
:102E3000E552E7CF18F01C50F3241A6E1D50F42011
:102E40001B6E1A50185C1B50195802E2010E01D07B
:102E5000000ECDD204EC1DF0DF6A180EDF5C1DE21F
:102E6000DF505EEC1DF002E2E16AE552E16E1750C0
:102E70000B018A51000172190EE10B018B51000107
:102E8000731909E1FD0E57DA150E6EDADF50E3EC27
:102E90001DF0EF9002D0DF2AE0D7E552A8D20A0158
:102EA000742B745101E1742B7451120004EC1DF069
:102EB000000194EC1CF0DF6A40DB180EDF5C09E2D5
:102EC000DCDA02E2E16AE552E16E14502DEC1EF00C
:102ED000F4D700017D6B856B866B87913C0E7B6F11
:102EE000A50E7C6FB4DA02E2E16AE552E16E14509D
:102EF000E5527DD204EC1DF00001030E8C6F8A694F
:102F00008B690001F50E8F6FC50E906FDF6A0A0E98
:102F1000DF5C08E294DA02E2E16AE552E16E145005
:102F200051DBF5D7E55263D20B01825101E1000C70
:102F3000820784CBE9FF85CBEAFF842B000E852333
:102F4000EF501200E5EC1EF0180EDF5C15E210DA0F
:102F500002E2E16AE552E2EC1BF079A30AD073ECDD
:102F60001DF0C2DB02E2E16AE552ADDB02E1DF50B7
:102F700004D02DEC1EF0E8D7180EE55238D2E5EC5F
:102F80001EF0180EDF5C14E2F3D902E2E16AE552AA
:102F9000E2EC1BF079A309D04AEC1CF006E1FD0E2F
:102FA000DB50151802E1DF5004D02DEC1EF0E9D7FC
:102FB000180EE5521CD2E5EC1EF0180EDF5C20E284
:102FC000D7D902E2E16AE552E2EC1BF079A315D011
:102FD0004AEC1CF012E1FD0EDB5015180EE174C036
:102FE00016F075C017F0FA0EDB50161806E1FB0E4E
:102FF000DB50171802E1DF5004D02DEC1EF0DDD7B6
:10300000180EE552F4D1D8D9080EE12402E3E168A4
:10301000E652E16E82DAECEC1CF0F1EC1CF002E21C
:10302000E16AE552E16E1750080EE66EE66AECECD6
:103030001CF05ADB02E2E16AE55245DB02E1010ED7
:1030400001D0000E146E080EE15C02E2E16AE55266
:10305000E16E1450CCD104EC1DF0DF6A6EDA180E6C
:10306000DF5C1BE285D902E2E16AE552ABDB795114
:10307000020B10E0FFD901080DE0FCD900090AE0BD
:1030800094EC1CF000017D07F8D902E2E16AE552F8
:10309000E16E14502DEC1EF0E2D7D9D902E2E16ABC
:1030A000E552E16E1450E552A2D186D90B01A981F7
:1030B0000B01020E886FD3CB86FBD4CB87FBD5CB1D
:1030C0008AFBD6CB8BFB896FD3CB9AFBD4CB9BFBF4
:1030D000FC0EDBCF92FBFD0EDBCF93FBCEDAD0CB29
:1030E000EFFFD0CB9CFB856BD950FC0FE96EFF0E38
:1030F000DA20EA6EFF0EEE1802E1FF0EED180CE08A
:103100008581FC0EDBCFE6FFFD0E23DA05E0000132
:1031100079B102D00B0185850B01010E846F67D157
:103120004DEC1DF009E1000185070001CEDB01082F
:1031300002E10001860765DB0001F6DB9ED902E2B1
:10314000E16AE552E16E145000017D0780D902E288
:10315000E16AE552E16E14501200E5EC1EF0180E23
:10316000DF5C1AE205D902E2E16AE5522BDB79A3C2
:1031700010D0FD0EDB507A5D0CE10B018651000191
:10318000741907E10B0187510001751902E1010E65
:1031900004D02DEC1EF0E3D7000EE55228D1ADECA3
:1031A0001FF0DF6ACAD9010EDB6A180EA6EC1DF00B
:1031B00032E2DED802E2E16AE55204DB7951020B29
:1031C00026E058D9010823E199DB7251141802E175
:1031D0007351151814E000017E29E66E7BEC1EF099
:1031E00072C0E6FF73C0E6FFF0DD166E050EE15C0F
:1031F00002E2E16AE552E16E1650000908E03DDAAC
:1032000072C0EEFF73C0EDFF010EDF6E04D09BD9DC
:10321000010EDB2ACAD7DF50E552E552E8D0CCD800
:10322000FD0EDB5026E00B01BE6B210EBF6F0001CF
:103230007E51080DF3CFC0FB140E855D1AE2180E07
:103240007D5D17E20A017651080B06E1050E0001CB
:103250007E5D02E20B01C08F050E00017E5D09E27A
:10326000060E865D06E20A017651100B02E10B01A3
:10327000C085BDD0C9DBD6CF74FA0B01A96B0A019A
:103280007651200B01E0010EDF6E756B766B776B6C
:10329000786BDF50769BE8B0768BDF6A2E0EDF5CB2
:1032A00004E2D4DBEF6ADF2AF9D7FD0EDB5006E13A
:1032B0000A01B351B41102E07EEC1FF00A01B36BB6
:1032C000B46BDF6A070EDF5C10E2FD0EDB5008E135
:1032D0008BEC1EF005E0C2EC1EF074D884D872D8D6
:1032E00082D8EE6AED6ADF2AEDD7DF6A060EDF5C70
:1032F0000EE2FD0EDB5006E182EC1EF003E01CEC5A
:103300001FF060D8EA6ADF3414D9DF2AEFD7DF6A0A
:10331000030EDF5C0DE2FD0EDB5005E1EDEC1DF070
:1033200002E06FD84FD86DD8EE6AED6ADF2AF0D789
:10333000E1DDE5525CD022DBC9EF1CF045DBC9EFD3
:103340001CF0A751A70786EF1DF030DBC9EF1CF07A
:10335000A651A62B86EF1DF0020EDBCFE9FFDB2A7C
:10336000030EDBCFEAFF1200E926000EEA2212006C
:10337000110EE66EE66A88C014F089C015F0166A70
:1033800088C0E6FF89C0E6FF16C0E6FFA0EC1FF08C
:10339000F1EF1CF0050EE66EE66A8FC014F090C0E7
:1033A00015F0166A8FC0E6FF90C0E6FF16C0E6FF74
:1033B000F5EC1DF0F1EF1CF00FDBE1CFD9FFE2CF10
:1033C000DAFF1200EECFE6FFEFCFE6FFAAEF1DF027
:1033D000DF50040DF3CFE9FFF4CFEAFF990EE926A1
:1033E0000A0EEA221200EA6ADF3421EF1FF0E552EA
:1033F000E5CFDAFFE7CFD9FF1200E552E750EF6ED5
:103400001200EA6ADF3429EF1FF0EECF18F0EECF9A
:1034100019F0EECF1AF0EFCF1BF025DB00011850AA
:10342000EE5C146E1950EE58156E1A50EE58166E6A
:103430001B50EE58176E1200030D26EF1EF0050EFE
:10344000E66ED3DB8FC0E6FF90C0E6FF79D30D0EAA
:10345000E66E7B0EE66E000EE66E500EE66EC40E55
:10346000E66E6ED3FE0BEA36E96E180EE9260A0EFA
:10347000EA22120078511EEF1EF0110EE66EA0EC4B
:103480001FF088C0E6FF89C0E6FF5AD3E66E000E43
:10349000DA20E66E120042EC68F006C014F04DEF40
:1034A0001EF0270EDBCFE9FFDB2A280EDBCFEAFF79
:1034B000120006C0EEFF15C0EEFF16C0EEFF17C0EB
:1034C000EEFF1200F2DDA7EF1EF0160EDBCFE6FFD7
:1034D000170EDBCFE6FF1200CFEC64F0E552FAEFF7
:1034E0001DF0146E000EDA20156E74EF1EF0DBCFA7
:1034F000F4FFF350F45C120067DAEE50ED101200A6
:103500001450EE24E76E1550EE20EA6EE7CFE9FF87
:103510001200A5EC1FF0EF501200080EE66EE66AEE
:10352000760E146EC30EFFEF1DF040DAEE50ED1074
:1035300012003CDAEE6AED6A120000015D0E886F3F
:10354000C40E896F12000001110E8827000E892316
:103550001200DBCFE6FFE9DB18081200D7DAEF50E4
:10356000E66E1200040EDBCFE6FF050EDBCFE6FFB2
:103570001200D6DB14501510120000DAEE6AED6A64
:103580001200E9CF14F0EACF15F00C0EDB50E3EF98
:103590001DF07EEC1FF00A01B36BB46B1200E7CF95
:1035A000DBFFB0EF1EF00B01826B9DDA920EE66E30
:1035B0000B0E9CEF1DF0DF6A0001F50E8F6FC50E3C
:1035C000906F1200DF2A0001050E8F27000E902356
:1035D0001200F90EDBCFE9FFFA0EDBCFEAFF120093
:1035E000F80EDBCFE9FFF90EDBCFEAFF1200EF5058
:1035F000E66ECFEC64F0E552020EF3CFDBFF030E74
:10360000F4CFDBFFF7DAF350F4101200C8DD9FDBD4
:10361000000912000B01EA6A8425E96E8551EA224D
:10362000EF501200E66E8EDCE552E552120023DB0D
:103630000B01D5511418120077DCE66E1200EECFA4
:1036400014F0EFCF15F00B01D55100011418120042
:10365000020EEECFDBFF030EEDCFDBFF1200160EE6
:10366000DBCFEEFF170EDBCFEDFF1200140EDBCF2A
:10367000E6FF150EDBCFE6FF1200FA0EDBCFE9FF07
:10368000FB0EDBCFEAFF12000B0E78D9EE50ED10E7
:103690001200F80EDBCFE6FFF90EDBCFE6FF6DEF91
:1036A0001EF0156A166A176A1450151016101710B6
:1036B000120048DB1F0EDB5014181200146E156A3E
:1036C000D89015501200E16E1450000912007CD9F8
:1036D000EE6AED6A120084CBE6FF85CBE6FF3ADAAC
:1036E0000B01846B856B120006DB42EC67F0E6D3BE
:1036F000080E146E1A0EDBCFE7FF1450E7261A0EE1
:10370000E7CFDBFF1200DF500A0D74DA290E142612
:10371000C60E15221200EF50050D6CDAF50E1426B8
:10372000C50E15221200020E84CBDBFF030E85CBE3
:10373000DBFF120014C0EEFF15C0EEFF16C0EEFF57
:103740001200EF50E66E09DDE552000912008ACB47
:10375000E6FF8BCBE6FF1200DF50DF2A146E156AFE
:103760001200D5CBEEFFD6CBEDFF12004FEC17F0D9
:10377000E66E1200DBCFE6FF010EE66E74EC14F08D
:10378000146E070EE15C120014C0E6FF15C0E6FFE0
:10379000DAEC5FF0166E050EE15C1200140EDBCF62
:1037A00014F0150EDBCF15F00B01D55114181200D3
:1037B000020EDBCFEEFF030EDBCFEDFFFC0EDB5086
:1037C000400D1200E16E175000011200030D0A01B6
:1037D0003DD2DCEC13F072D3DBEC12F0146E050E6C
:1037E000E15C12002DEC13F069D37FEC12F0E5528E
:1037F000E5520009120084CBE9FF85CBEAFFEF50C8
:103800001200010EE66E0BDDE55212000B01A991CC
:103810000B017F0EA76F1200EECF15F0EFCF16F061
:103820001200EE52EF50E66E1200170EDBCFEFFFE4
:103830001200160EDBCFEFFF1200DF50146E156A78
:10384000060E145C000E155812006FDADF6E180EAB
:10385000DF5C1200166A14C0E6FF15C0E6FF16C052
:10386000E6FF1200DF50146E156A080E145C000E9D
:1038700015581200020EDBCFE9FF030EDBCFEAFF83
:10388000EF5012008AC014F08BC015F0FC0EDB5014
:103890001418120072C014F073C015F0FC0EDB5047
:1038A00014181200130EDBCFEFFF1200190EDBCF3E
:1038B000EFFF1200040EDB68050EDB680A0EDB84E6
:1038C0001200D950140FA5EF1FF07851300BE842C9
:1038D000E842E842E8421200090EEF6EECEF1CF0FD
:1038E000140EDBCFEEFF150EDBCFEDFF1200160E30
:1038F000DBCF8AFB170EDBCF8BFB1200FC0EDBCF7E
:1039000014F0FD0EDBCF15F012000B01D6510001B3
:10391000151812008ACBEEFF8BCBEDFF1200070EBD
:10392000D880DF54EA6A1200766B776B786B796B1C
:1039300012000B01A951010B1200180EDB04E66EF8
:103940001200150EDBCFEFFF1200140EDBCFEFFFDE
:1039500012000B0113DAF5DC0A0EEF6ED9EF1EF040
:10396000F0DC4ADAEEDCC5DAECDC9CDFEADC120ED5
:10397000DBCFEFFF1200F4DAA5EF19F0EA6ADB34CF
:1039800060D2F2DCEF50E66EBEEF1EF0E1DCFDEF40
:1039900019F0EE50EFCFEAFFE96E1200CFDC130E04
:1039A000B4EF19F0EA6ADF34A5EF19F0FE0BEA363E
:1039B000E96E8D0EE9260A0EEA2212000B0E9BEF2D
:1039C00019F0BCDCAAEF1FF0EA6ADB3442D2B9DCA2
:1039D000EF6AA9DAEAEF1EF0D9CFE6FFDACFE6FF09
:1039E0001200B5EC67F0176E070EE15C1200BEDE48
:1039F0000B01C4D9A6DC010EEF6EDBD9A1EF19F0E3
:103A0000EF50BADADF2A1200D7DCE652120096DC59
:103A1000120EAADCEF50050DF3CF8FF0F4CF90F02B
:103A2000F50E00018F27C50E9023CAEF19F0E5DCD3
:103A300001EF1FF099DCFDEF19F0250E28DA6ADF9F
:103A4000250E16DA210EDBCFEFFF120063DAEE52FD
:103A5000120077DC8ACBEFFFACD9A1EF19F084DC40
:103A6000E0DEBEEF1EF0D950060FA5EF1FF07CDCA4
:103A7000EECFE6FFEFCFE6FF12005DDC41DDFDEFAC
:103A800019F05CDC040EB4EF19F058DC080EB4EF4A
:103A900019F0D950040F46EF1AF00001EBDC0108D1
:103AA0001200210EDBCFE7FF220EDB50E75E210E76
:103AB000E7CFDBFFD9501C0F46EF1AF0110DF3CF03
:103AC00088F0F4CF89F05D0E00018827C40E8923A9
:103AD000B8EF19F049DAEE68ED6812002CDC53DA21
:103AE00082CBEFFF1200080EE66EE66AA0EF1FF031
:103AF000EA6ADB3432EF1AF01EDC42DAD7DE82CB20
:103B0000E6FF6CEF1AF098DCC3EF1FF0EA6A000FD3
:103B1000E96E0B0EEA221200140EB4EF19F024DC49
:103B2000EECF14F0EFCF15F01200B0DC1BDD62EF2A
:103B30001AF0F4D9A9EF1AF0E66E8AEC67F0BED15C
:103B4000DAEC5FF0146E050EE15C1200F36E010E0C
:103B500077EF1AF041EC65F0E552E55212009BEC6C
:103B600019F0050EB4EC19F07ADD9DEF1CF0100E83
:103B7000B4EF19F09BEC19F00A0EB4EC19F0120E28
:103B8000DBCFEFFF1200330E9EEC19F0120EB4ECF7
:103B900019F08BEF1BF0150EB4EC19F0C1EF1AF011
:103BA000EFD91FEF1BF00E0EB4EC19F0EFCF14F0AD
:103BB00012000B01A1EC19F056EF1CF08A0EE66E14
:103BC0000B0E12EF1BF0E924E96E000EEA20EA6EFC
:103BD0001200D9500A0F89EF1AF013DCEE50ED10E5
:103BE0001200DBCFE6FF65EF1AF08A0EE66E000EDC
:103BF000E66E1200F3CF14F0F4CF15F01200156E3C
:103C0000166A14C0E6FFE66E16C0E6FF1200ACD9D5
:103C1000FF0EEE181200A1EC19F0EF6AA1EC19F0FA
:103C20006CEF1CF09BEC19F0090EB4EC19F052EF9C
:103C30001CF09BEC19F04CD970EF1CF0C00BE84263
:103C4000E842E842E842E842E8421200B351F32475
:103C5000E96EB451F420EA6E1200DF2AA3EF1AF0E5
:103C600037D9EFCF9CFB0B011200E2EC19F0EA6AA6
:103C7000DF3499EF1AF0160EDBCF14F0170EDBCFFE
:103C800015F01200D950120F44DC030B010812008A
:103C9000D9501C0F26DCACEF19F007C015F008C096
:103CA00016F009C017F012007715F310776F010EA8
:103CB0000AEF1BF03DD9A1EF1BF0920EE66E0B0E42
:103CC000B1DCDF6E1200B4EC19F092CBEEFF93CBB7
:103CD000EDFF1200CDD8EF6A1200FB0EDBCFE6FF3E
:103CE000FC0EDBCFE6FF1200020E14C0DBFF030E5A
:103CF00015C0DBFF1200FC0EDBCFE6FFFD0EDBCFB5
:103D0000E6FF1200EA6ADF3495EF1AF0EA22FDECD2
:103D100019F0DF2A1200F3EC19F0EE50ED1012004A
:103D2000F3CFEEFF15C0EDFF1200BFEC17F0E55228
:103D3000E552120046EC1AF0F5EF1BF09BEC19F07F
:103D4000B9EF1AF0D5CB14F0D6CB15F01200E5522E
:103D5000E552E552E5521200010EDB041CEF1AF0A9
:103D600094EC17F0E76E1200E66E6CEF1AF0E66E58
:103D7000ACEF19F0B4EC19F0CCEF1FF0A1EC19F096
:103D8000FDEF19F0F3EC19F0C9EF1CF0EF50E66EFF
:103D90000B01C6EF1CF0DBCFE6FF220EDB50E55235
:103DA000E75CE66E250E9EEC19F0110E43DE59EF2E
:103DB0001BF0A1EC19F0D6CBEFFFA1EC19F0D5CB9D
:103DC000EFFF1200E9D8ACEF19F01EDE9DEC1AF0FF
:103DD000DF6A12000B01A8EF19F001EC1AF0C9EF2D
:103DE0001CF0ECDD99DEEF501200C5DDC3EF1FF0D3
:103DF000BDDCAFDDA1EF19F018DDA1EC19F019EF72
:103E00001CF01ADCACEF19F0C9DDF80EEF1412004B
:103E1000B8DDDDDD030EEF6EA8EC19F0EF6A1200DD
:103E2000E8EC19F0020E12004B0E9BEF19F04BEC70
:103E30001AF0ACD859EF1AF0ACD8EA6ADF34D6EFF2
:103E40001CF0FE0BEA36E96E790EE9260A0EEA222C
:103E50001200FE0BEA36E96ED20EE9260A0EEA22BD
:103E60001200ACDD0B0EB4EF19F0A8DDC0EF1FF0AF
:103E70009EEC19F00F0EB4EF19F09EEC19F0110E34
:103E8000B4EF19F09EEC19F00E0EB4EF19F09EECA1
:103E900019F00A0EB4EF19F06EDD050EB4EF19F04B
:103EA0006DDDE2EF19F06DDDDEEF1CF08ADDEE5026
:103EB000ED1012000E0E72DDEF501200146E060EA1
:103EC000E15C1200AEEC1AF047DC4B0E3DEF1DF04A
:103ED000070EB4EF19F066DD5CDD30EF1EF0B4ECD8
:103EE00019F09FDCC6EF1CF0D4DD36EC1BF006EFBA
:103EF0001BF027DDA1EC19F0A5EF1CF0B3CAE6FF1B
:103F0000B4CAE6FFAAEF1DF059DDCBEF1DF04ADD84
:103F1000D0EF1DF0EA6ADF3432EF1AF01F0EDBCF6C
:103F2000E6FF200E1200A1EC19F0090EEF6E120050
:103F30000A01B1511CEF1AF0FDEC19F0ACEF19F0C9
:103F40006A0EE66E000EE66E1200E96E000EDA20D2
:103F5000EA6E12000C0EB4EF19F056DDE6521200B4
:103F6000010EEA6ADB3412005BDFB4EF19F021DEE8
:103F7000E4DC04DFB0EF1CF0E66E0B01BEEF1EF0D8
:103F8000030EB4EF19F0020EB4EF19F017DDB7EF1E
:103F90001DF008DDE2EF19F0EF50E66EC6EF1CF001
:103FA000040E0F01071501E1000C010C0F01076B56
:103FB000086B006B016B026B036B046B056B1200EB
:103FC0007FEC30F03F0EE12402E3E168E652E16E5F
:103FD000DF6AFD0EDB5002E073EF24F042EC68F084
:103FE000020E06C0DBFF030E07C0DBFF040E08C095
:103FF000DBFF050E09C0DBFF0B01A9B141D20F01A8
:1040000007A1E9D20251031101E152D139EC34F098
:10401000200B0EE198EC33F0D2EC30F009E352ECD7
:1040200030F0F80EEF140109EF6E52EC30F0EF8A29
:1040300039EC34F0200B2FE039EC34F0070B010899
:104040002AE198EC33F0200EEB50000905E1850ED3
:10405000E66EE9EC32F007D090EC33F006E0850E26
:10406000E66E81EC33F052EC32F06BEC31F06EEC3A
:1040700031F002E018EC35F072EC31F06EEC31F01A
:1040800002E01FEC35F095EC34F0079152EC30F083
:10409000EF9A70EF24F004EC35F0010B01E108D148
:1040A00004EC35F0040B01E003D107EC35F0080B0C
:1040B00001E0FED004EC35F0200B01E0F9D007EC74
:1040C00035F0100B01E0F4D0BAEC33F0EF86BDEC24
:1040D00033F0EF8429EC32F0EB50146E190EEB50F4
:1040E000145C01E3D1D072EC31F0A8EC30F029EC93
:1040F00032F098EC31F0060EEECFDBFF070EEDCF7D
:10410000DBFF9DEC33F03DEC33F001E3B4D006EC83
:1041100032F0A8EC30F09DEC33F01A0E98EC31F050
:10412000080EEECFDBFF090EEDCFDBFF04EC35F020
:10413000800B01E0BDD0060EDBCF14F0070EDBCF05
:1041400015F0080EDB50141801E08FD0090EDB507B
:10415000151801E08AD0C3EC34F014E1080EDBCF6F
:1041600014F0090EDBCF15F00F013D5114180AE1D0
:104170003E51151807E19DEC33F01A0EA1EC31F019
:104180001D0E2BD039EC34F0100B2AE0060EDBCFDD
:1041900008F0070EDBCF09F00A0E08C0DBFF0B0E9C
:1041A00009C0DBFFC3EC34F006E0DBEC34F02CECB0
:1041B00032F008E205D0DBEC34F0BCEC31F002E286
:1041C000E16AE552E16E1450BAEC33F0EF8C98ECF2
:1041D00033F01D0EA4EC31F01A0E26EC35F045D06C
:1041E000F8EC31F023EC34F005E298EC33F00EEC0F
:1041F00035F0F8D7B6EC30F03EEC35F0060EDBCFFC
:10420000EFFF070EC0EC33F023EC34F003E26CEC6C
:1042100035F0FAD7BBEC30F04FEC30F0FAEC32F07E
:1042200098EC33F0160E06CFEBFF98EC33F01D0E32
:10423000A1EC31F0060E75EC31F0C3EC34F006E081
:10424000210EA1EC34F0145C0AE306D0220EA1EC9E
:1042500034F0FF0F145C03E352EC30F0EF869DEC7A
:1042600033F01A0EA1EC31F008D19DEC33F01A0EA8
:1042700026EC35F046D79DEC33F032EC32F029ECE9
:1042800032F026EC35F026D7BAEC33F0EF8ABDECED
:1042900033F0EF88BAEC33F0EF96BDEC33F0EF94E7
:1042A00029EC32F0A2EC33F0EF6ABAEC33F0EF9085
:1042B00090EC33F001E107D107EC35F0010B01E19F
:1042C00002D104EC35F0080B01E0FDD007EC35F02D
:1042D000040B01E0F8D004EC35F0100B01E0F3D052
:1042E00007EC35F0200B01E0EED0BAEC33F0EF84B0
:1042F000BDEC33F0EF8636EC32F0EB50146E190E55
:10430000EB50145C01E3CED0C2EC31F0A8EC30F0FD
:1043100036EC32F098EC31F00E0EEECFDBFF0F0EE4
:10432000EDCFDBFF98EC33F03DEC33F001E3B1D09F
:104330006BEC31F0A8EC30F098EC33F01A0E98ECFE
:1043400031F00C0EEECFDBFF0D0EEDCFDBFF07ECF7
:1043500035F0800B01E094D044EC33F00E0EDB50CE
:10436000141801E090D00F0EDB50151801E08BD02F
:10437000C7EC34F010E144EC33F00F013B5114185A
:104380000AE13C51151807E198EC33F01A0EA4EC41
:1043900031F01D0E2BD091EC34F0100B2AE00E0EF4
:1043A000DBCF08F00F0EDBCF09F0100E08C0DBFFEB
:1043B000110E09C0DBFFC7EC34F006E0E4EC34F08A
:1043C0002CEC32F008E205D0E4EC34F0BCEC31F037
:1043D00002E2E16AE552E16E1450BDEC33F0EF8C7D
:1043E0009DEC33F01D0EA1EC31F01A0E26EC35F0E9
:1043F0004AD0F8EC31F023EC34F005E29DEC33F0D8
:104400000EEC35F0F8D7BBEC30F03EEC35F00E0E8C
:10441000DBCFEFFF0F0EC0EC33F023EC34F003E200
:1044200013EC35F0FAD7B6EC30F04FEC30F0FAEC94
:1044300032F09DEC33F0160E06CFEBFF9DEC33F01F
:104440001D0EA4EC31F0060E75EC31F0C7EC34F023
:1044500006E0210EA4EC34F0145C0AE306D0220E30
:10446000A4EC34F0FF0F145C03E355EC30F0EF865E
:1044700098EC33F01A0EA4EC31F041EC35F088D111
:10448000000E98EF29F098EC33F01A0E26EC35F078
:1044900049D798EC33F032EC32F036EC32F026ECBF
:1044A00035F029D7BAEC33F0EF88BDEC33F0EF8A62
:1044B000BAEC33F0EF94BDEC33F0EF9636EC32F01B
:1044C000A2EC33F0EF6A04EC35F0100B01E183D07D
:1044D00004EC35F0200B01E17ED007EC35F0100B39
:1044E00001E179D007EC35F0200B75E007EC35F0F1
:1044F000400B71E004EC35F0400B6DE039EC34F02A
:10450000200B11E004EC35F0400B0DE059EC32F0DB
:10451000E66EE9EC32F052EC32F052EC30F0EF9A09
:1045200098EC33F014D091EC34F0200B15E007EC4C
:1045300035F0400B11E05DEC32F0E66E81EC33F0CB
:1045400052EC32F055EC30F0EF9A9DEC33F0200E47
:10455000DCEC31F0EF6EC4D1BDEC33F0EF9CBAEC83
:1045600033F0EF9C6BEC31F06EEC31F002E018ECC4
:1045700035F072EC31F06EEC31F002E01FEC35F00A
:1045800095EC34F006EC32F06EEC31F009E006EC1C
:1045900032F00BEC34F006EC32F0EB6A130EEB6AFF
:1045A000C2EC31F06EEC31F009E0C2EC31F00BEC12
:1045B00034F0C2EC31F0EB6A150EEB6A81EC33F0AB
:1045C000CAEC30F00F01046B056B0051011102E0E1
:1045D0009BEC34F007910F0107A5DDD002510311C8
:1045E0005DE039EC34F0400B59E039EC34F0100B5D
:1045F00021E0140E3DCFDBFF150E3ECFDBFF99EC23
:1046000035F0140EDBCFE6FF150EDBCFE6FF9EEC98
:1046100035F0BCEC31F002E2E16AE5527DEC32F0BB
:1046200003E0BAEC33F0EF82BAEC33F0EF8098ECB1
:1046300033F06CD0F8EC31F023EC34F003E213ECFF
:1046400035F0FAD7B6EC30F0B4EC33F0120E3DCFC3
:10465000DBFF130E3ECFDBFF4FEC30F0120EDBCF53
:10466000EFFF4FEC30F0130EDBCFEFFF4FEC30F0ED
:10467000EEEC32F023EC34F003E26CEC35F0FAD7D8
:10468000BBEC30F0B4EC33F098EC33F026EC34F0C3
:1046900052EC30F0EF9C98EC33F076D004510511D9
:1046A00001E178D091EC34F0400B74E091EC34F0FF
:1046B000100B31E0160E3BCFDBFF170E3CCFDBFFBC
:1046C00098EC33F0EB50E66E9DEC33F020EC34F0D8
:1046D000160EDBCFE6FF170EDBCFE6FF9DEC33F0C7
:1046E000EB50E66E98EC33F020EC34F0BCEC31F09B
:1046F00002E2E16AE5527DEC32F003E0BDEC33F01A
:10470000EF82BDEC33F0EF809DEC33F0A3EC35F09D
:10471000EF9C98EF29F0F8EC31F023EC34F005E24F
:104720009DEC33F00EEC35F0F8D7BBEC30F0B4EC88
:1047300033F0C2EC31F0A2EC33F0180EEECFDBFF19
:10474000190EEDCFDBFF1A0E3BCFDBFF1B0E3CCF6C
:10475000DBFF4FEC30F01A0EDBCFEFFF1B0EC0EC8F
:1047600033F023EC34F003E213EC35F0FAD7B6EC77
:1047700030F0B4EC33F09DEC33F026EC34F055EC33
:1047800030F0EF9C9DEC33F0210EE926000EEA227A
:10479000EF8E26D0079507A397EF29F07AEC30F03B
:1047A000100EA2EC33F0D2EC30F002E3850E61D0B3
:1047B0004CEC35F0010B09E1010EE66EE7EC2FF051
:1047C000E552B7EC33F0EF800BD04CEC35F0020B38
:1047D0000AE1E66AE7EC2FF0E552B7EC33F0EF823E
:1047E0004F0E98EF29F07AEC30F0140EA2EC33F073
:1047F000FF0EEE1802E1FF0EED1802E197EF29F02F
:104800007AEC30F0160EA2EC33F0FF0EEE1802E157
:10481000FF0EED1802E197EF29F04CEC35F0080B94
:1048200006E00B018051811102E097EF29F01C0E88
:10483000DB6A4CEC35F0040B0CE0D0EC33F02CECE4
:1048400032F002E2E16AE5527DEC32F016E0870ECA
:1048500010D0D0EC33F0BCEC31F002E2E16AE5526A
:10486000E16E1450E76E1D0EE7CFDBFFDB5005E075
:10487000880EF36E1C0EF3CFDBFF4CEC35F0080B0B
:1048800013E04CEC35F0040B01E0010EE66E1C0E5B
:10489000DBCFE6FF24EC30F0E552E552000902E000
:1048A000510E1AD0DF6A19D085EC34F01C0EDBCF24
:1048B000EFFF7AEC30F01E0EEB500F01066F180E72
:1048C00075EC31F04CEC35F0040B02E0210E01D018
:1048D000220E89EC34F04F0EDF6E9BEC34F0079320
:1048E000DF5098EF29F0FD0EDB505C0A02E188EF03
:1048F00029F0070A02E179EF29F0060A02E1A8EFA0
:1049000028F0070A02E097EF29F00B019D51800B78
:1049100001E1FDD09C5102E1800E9D1913E00F01D1
:104920000751010B01E0C8D0210E0B019C1901E0D9
:10493000C3D0800E9D1901E0BFD00C01ED5101E103
:10494000BBD0C8D01E0EDB6A0A0EA2EC30F0270ED8
:10495000EFCFDBFF0B0EA2EC30F0280EEFCFDBFF2A
:10496000020EA2EC30F01F0EEFCFDBFF030EA2EC25
:1049700030F0200EEFCFDBFF040EA2EC30F0210E62
:10498000EFCFDBFF050EA2EC30F0220EEFCFDBFF06
:10499000060EA2EC30F0230EEFCFDBFF070EA2ECE9
:1049A00030F0240EEFCFDBFF080EA2EC30F0250E26
:1049B000EFCFDBFF090EA2EC30F0260EEFCFDBFFCE
:1049C000D9501F0F81EC32F026E1010EDB6A23EC97
:1049D00034F025E212EC31F002E2E16AE552E16ED8
:1049E000175035EC33F0D9501F0F19EC32F002E2BA
:1049F000E16AE5527DEC32F00BE10A0EE66ED95029
:104A00001F0F40EC31F002E2E16AE552E16E165010
:104A1000010EDB2ADCD7D9501F0F9FEC32F00F01BB
:104A20000751020B45E0010E0B01A2EC30F0EF50F4
:104A30003FE135EC33F07AEC30F08BEC33F086EC80
:104A400033F0020EDFEC31F002E2E16AE552E16E92
:104A5000185000090DE10A0E0B0114EC34F0140E8D
:104A600071EC30F00B0E14EC34F0140E5DEC34F0FD
:104A700035EC33F07AEC30F0A2EC33F069EC34F042
:104A8000020E0B01DFEC31F002E2E16AE552E16E69
:104A9000185000090DE10A0E0B0114EC34F0160E4B
:104AA00071EC30F00B0E14EC34F0160E5DEC34F0BB
:104AB0001E0EDB5029E049D30F010751010B0CE119
:104AC000220E0B019C1908E1800E9D1905E10C01D5
:104AD000ED5102E0ED6B18D0220E0B019C1902E1A2
:104AE000800E9D1914E0210E9C1902E1800E9D1983
:104AF0000EE0220E9C1901E19D5109E0210E9C1946
:104B000003E1800E9D1903E0510E98EF29F0FDECB2
:104B10003FF00F01066F300E0B019C1901E19D5112
:104B200001E108D3310E9C1901E19D5101E102D34D
:104B3000320E9C1901E19D5101E1FCD2330E9C190A
:104B400001E19D5101E1F6D2350E9C1901E19D5123
:104B500001E1F0D2340E9C1901E19D5101E1EAD24C
:104B6000220E9C1901E19D5101E1B2D2220E9C1945
:104B700002E1800E9D1901E13FD2210E9C1902E154
:104B8000800E9D1901E117D2210E9C1901E19D5162
:104B900001E1E0D1200E9C1901E19D5101E1D3D149
:104BA000130E9C1901E19D5101E17CD1100E9C195D
:104BB00001E19D5101E164D1110E9C1901E19D516A
:104BC00001E15ED1140E9C1901E19D5101E158D122
:104BD000060E9C1901E19D5101E148D1050E9C1979
:104BE00001E19D5101E13BD1040E9C1901E19D5170
:104BF00001E180D0030E9C1901E19D5163E0020E9A
:104C00009C1901E19D5146E0010E9C1901E19D5165
:104C100038E09C5101E099D29D5101E096D2010EFD
:104C2000DB6A23EC34F024E2010EE66EE66ADB5028
:104C3000156A760F146EC30E0EEC34F0D950290F9E
:104C40004FEC34F0EDEC33F002E2E16AE552E16E54
:104C5000175065EC34F02A0EE7CFDBFFDB50F36E24
:104C6000290EDB50F35C01E070D2010EDB2AD9D7AC
:104C7000E66A800EE66E66DBE552E5520B018C8536
:104C80000ED1F6EC32F001E160D2010E31EC33F0DE
:104C900059DBE2D0F6EC32F001E157D231EC35F0DD
:104CA0000A0EE66EE66A1A0E146ED10E8BEC30F028
:104CB00002E2E16AE552E16E19500A0E0B01A627E5
:104CC000020EC6D0F6EC32F001E13FD231EC35F005
:104CD000020EE66EE66A240E146ED10E8BEC30F0F6
:104CE00002E2E16AE552E16E1950020E0B01A627BD
:104CF000030EAED0F6EC32F001E127D265EC34F0D1
:104D00002B0EE7CFDBFF0B01010EA66F2B0EDB5046
:104D1000000801E393D02B0EDB50146E156A153496
:104D200004E21450F008000E155401E287D0010E81
:104D3000DB6A300EE66EE66A010E0AEC31F00B0E0D
:104D4000E66E0F0EE66EEDEC33F002E2E16AE5523C
:104D5000E16E1750010EDB2A2B0EDB500F010B5DAD
:104D600004E0010EDB500208E4E2010EDB50020811
:104D700004E14FEC35F0830E64D04FEC35F0EF6A70
:104D8000A6EC33F00F012651E824146E1151E824EB
:104D9000080F1424E66E0B013EEC35F00BCFEFFF4D
:104DA0004FEC30F00CCFEFFF4FEC30F00DCFEFFFBA
:104DB0004FEC30F00ECFEFFF4FEC30F00FCFEFFFA6
:104DC0000F011051F00BE842E842E842E842100DB2
:104DD00010510F0BF310E66E0B013EEC35F011CFC6
:104DE000EFFF0F011151A5EC32F0120EE66E0F0E1F
:104DF000AAEC31F002E2E16AE552E16E18500F01CF
:104E00001151020DF3500B01A6274FEC30F026CFC5
:104E1000EFFF0F012651A5EC32F0270EE66E0F0EC4
:104E2000AAEC31F002E2E16AE552E16E18500F019E
:104E30002651020DF3500B01A62709D04FEC30F09C
:104E4000820EEF6EA6EC33F04FEC30F0EF6A040EFA
:104E500031EC33F0A8EC2CF0E552E55220D0F6EC22
:104E600032F001E172D1CAEC2CF019D0F6EC32F03C
:104E700001E16BD10AEC2DF0000901E166D10FD000
:104E8000F6EC32F001E161D174EC30F0840EEF6E9B
:104E9000A6EC33F0AEEC32F0E66E3BEC31F04F0EA8
:104EA000DF6E53D165EC34F0340EF3EC30F0350E98
:104EB000F3EC30F02C0EF3EC30F02D0EF3EC30F080
:104EC0002E0EF3EC30F02F0EF3EC30F0300EF3EC4E
:104ED00030F0310EF3EC30F0320EF3EC30F0330EF4
:104EE000E7CFDBFFD9502C0F81EC32F027E1010E28
:104EF000DB6A23EC34F001E328D112EC31F002E25A
:104F0000E16AE552E16E175035EC33F0D9502C0FC1
:104F100019EC32F002E2E16AE5527DEC32F00BE18D
:104F20000A0EE66ED9502C0F40EC31F002E2E16A35
:104F3000E552E16E1650010EDB2ADBD7D9502C0F5B
:104F40009FEC32F002D1000EE66EE66AB3DBE5526A
:104F5000E552FAD0030E885D0BE1D6EC31F001E1A9
:104F6000E7D0360E99C0DBFF370E9AC0DBFF06D0C4
:104F7000360E8ACBDBFF370E8BCBDBFFF8EC33F042
:104F8000010EE66E5EEC2EF0166E060EE15C02E29D
:104F9000E16AE552E16E1650000901E1C9D085ECE5
:104FA00034F086CBEFFF360EDBCF8AFB370EDBCF3C
:104FB0008BFB210EBAD094EC33F00CE036EC35F0DC
:104FC00009E139EC33F006E1F0EC34F003E0BAEC3F
:104FD00033F0EF8C90EC33F001E1B7D071EC35F0A9
:104FE00001E0B3D00B0139EC33F001E0AED0FAECC4
:104FF00034F001E1AAD066D094EC33F01AE036EC3C
:1050000035F017E139EC33F014E139EC34F0800B72
:1050100010E0BAEC33F0EF8052EC30F0EF9EFDEC94
:105020003FF0000903E098EC33F01FD098EC33F028
:1050300022D090EC33F022E09DEC33F0F3EC33F02F
:1050400014181CE139EC33F019E191EC34F0800BC9
:1050500015E0BDEC33F0EF8055EC30F0EF9EFDEC49
:105060003FF0000906E09DEC33F041EC35F0EF82B3
:1050700005D09DEC33F041EC35F0EF9294EC33F039
:1050800010E036EC35F00DE139EC33F00AE104ECD8
:1050900035F0010B06E0F0EC34F057E098EC33F01B
:1050A00013D090EC33F051E071EC35F04EE10B0190
:1050B00039EC33F04AE107EC35F0010B46E0FAEC4D
:1050C00034F043E09DEC33F041EC35F0EF8C3DD013
:1050D000030E885D0AE1D6EC31F02AE0380E99C063
:1050E000DBFF390E9AC0DBFF06D0380E8ACBDBFF20
:1050F000390E8BCBDBFFF8EC33F0E66A5EEC2EF07A
:10510000166E060EE15C02E2E16AE552E16E1650AF
:1051100000090EE085EC34F086CBEFFF380EDBCFD4
:105120008AFB390EDBCF8BFB220EE66E800E08D099
:10513000DF6A0BD074EC30F0840EEF6EAEEC32F020
:10514000E66E3BEC31F04F0EDF6E5AEC48F0EFD0DC
:105150003C0EDB6A3D0EDB6ADF6A230E1BEC34F08B
:105160003A0EF3CFDBFF3B0EC4EC30F001E1B5D0DB
:10517000010EF36E3E0EF3CFDBFF76EC35F0040E3E
:1051800083EC35F0040EDCEC31F071EC30F0010E04
:10519000DB6A23EC34F00AE2ADEC33F0B1EC30F032
:1051A0000F0179EC34F037EC31F0F3D7ADEC33F09C
:1051B000170E83EC35F0100E83EC35F0B7EC32F0BF
:1051C000ADEC33F0180E71EC30F065EC30F0180EE9
:1051D000EDEC34F00BE065EC30F0180E72EC34F0CE
:1051E00032E065EC30F0120E88EC32F0010EDB6A32
:1051F00065EC30F0180EA6EC35F003E2E0EC33F08D
:10520000F7D7ADEC33F0190E71EC30F065EC30F0FF
:10521000190EEDEC34F025E065EC30F0190E72EC6F
:1052200034F01AE165EC30F0120E6EEC31F00BE068
:1052300065EC30F0120E0BEC34F065EC30F0120E31
:10524000EB6A130EEB6A52EC33F0CAEC30F03A0E14
:10525000DB6A3B0EDB6A41D065EC30F0140E88EC63
:1052600032F0010EDB6A65EC30F0190EA6EC35F079
:1052700003E2E0EC33F0F7D765EC30F0A3EC35F067
:10528000EF8865EC30F059EC33F065EC30F01C0E33
:1052900044EC35F01D0E44EC35F01E0E44EC35F0B8
:1052A0001B0E44EC35F032EC32F065EC30F0CFEC14
:1052B00030F0D8EC34F0200EA2EC33F0EF6A52EC70
:1052C00033F0F8D9E552E552DF6E0B017F0EA76F80
:1052D0000B01A9910B01A66B2AD00B01040E826F62
:1052E0000B01A9910B017F0EA76F0B01A66B500E4E
:1052F0001BD039EC32F0030E5DEC33F002E2E16AD0
:10530000E5527DEC32F002E0510E0ED0DF6A0FD094
:1053100039EC32F0020E5DEC33F002E2E16AE55264
:105320007DEC32F003E0510EDF6E01D0DF6ADF501A
:10533000146E3F0EE15C02E2E16AE552E16E145048
:10534000ABEF30F054EC34F0E652E65265EC34F05A
:10535000020EF3EC30F0030EE7CFDBFF020EDB5062
:1053600008E141EC34F002E2E16AE55252EC35F03A
:105370006AD0020EDB0463E141EC34F002E2E16A40
:10538000E55252EC35F04FEC30F085C0EFFF4FECBA
:1053900030F0030EDBCFEFFF00018551F36E030EFB
:1053A00087EC35F050E2DF6A010EDB6A00015D0E2A
:1053B000886FC40E896F2B0E88EC30F044E2000138
:1053C0008551DF5C40E2110EE66EE66A88C014F09B
:1053D00089C015F0166A88C0E6FF89C0E6FF16C0CE
:1053E000E6FF6A0EE66E000EE66EEDEC33F002E2CA
:1053F000E16AE552E16E17500001110E8827000E98
:10540000892300017951020BDEE07851C00BE8429C
:10541000E842E842E842E842E8420108D4E1030EEB
:10542000DB50DF5C0AE34FEC35F072C0EFFF4FEC6E
:1054300030F073C0EFFF010EDB2ADF2ABCD74FEC40
:1054400035F0800EEF6EA7EC34F03BEC31F0040E3B
:10545000E15C02E2E16AE552E16EABEF30F054EC60
:1054600034F0FDEC3FF0DF6E65EC34F0010EE7CF79
:10547000DBFFCBEC34F00B01D551141802E1D6510F
:10548000151818E047EC35F0FF0EEE1802E1FF0E9C
:10549000ED1810E047EC35F0FC0EEE1802E1FF0EBF
:1054A000ED1808E047EC35F0FD0EEE1805E1FF0EB3
:1054B000ED1802E1010E01D0000EE552E552ABEF0E
:1054C00030F054EC34F0E652E652E652DE6ADD6A21
:1054D000030EDB6A040EDB6ABCEC32F001E0C7D0DD
:1054E000230E1BEC34F0030EF3CFDBFF040EC4ECF1
:1054F00030F001E1CDD05EEC30F059EC33F05EECF1
:1055000030F0060E00EC33F05EEC30F0160EA2EC3C
:1055100033F006CFEFFF5EEC30F032EC32F05EECB1
:1055200030F01B0E3AEC35F01C0E3AEC35F01D0E47
:105530003AEC35F0CFEC30F0EF6AAEEC34F05EECE4
:1055400030F0140EEB6A150EEB6ACBEC33F08CECFA
:1055500035F0DCEC31F0D0EC34F0A8EC30F00001A8
:10556000FC0E145CFF0E15585FE2020EDB6A080E9B
:10557000A7EC31F00EE2CBEC33F059EC35F0020E33
:10558000DB500F0179EC34F00AEC35F0020EDB2A27
:10559000EED7CBEC33F0170E8CEC35F0100E8CEC14
:1055A00035F0B7EC32F0CBEC33F0180ED0EC34F031
:1055B000180EEDEC34F00DE05EEC30F0180E32EC2D
:1055C00031F044EC32F030E05EEC30F0120E06ECDC
:1055D00033F0020EDB6A5EEC30F0180EEDEC34F0C6
:1055E000A7EC31F003E2F7EC30F0F5D7CBEC33F079
:1055F000190ED0EC34F0190EEDEC34F025E05EEC31
:1056000030F0190E32EC31F044EC32F018E15EEC7F
:1056100030F0120E6EEC31F007E05EEC30F0120E5E
:105620000BEC34F0AEEC34F0030EDBCFE6FF040EEF
:10563000D4EC34F0030EDB6A040EDB6A29D05EEC96
:1056400030F0140E06EC33F0020EDB6A5EEC30F044
:10565000190EEDEC34F0A7EC31F003E2F7EC30F08A
:10566000F5D75EEC30F0A3EC35F0EF9811D0FC0EDE
:10567000DBCF08F0FD0EDBCF09F0030E08C0DBFF27
:10568000040E09C0DBFF5EEC30F0A3EC35F0EF88D0
:10569000030EDBCF14F0040EDBCF15F014C0F3FFC4
:1056A00015C0F4FF050EE15C02E2E16AE552E16E2D
:1056B000ABEF30F07FEC30F0080EE12402E3E1685C
:1056C000E652E16E860EF36E070EF3CFDBFF030E9C
:1056D000DB6A94EC33F017E14CEC32F0F3CF02FFCD
:1056E000F4CF03FF0F01F350F41001E1B3D0C5EC88
:1056F00032F098EC33F0CEEC32F052EC30F0EF9A1E
:105700000F010781BED039EC34F0200B02E0000E0F
:10571000B8D04CEC32F0F3CF04FFF4CF05FFF350D8
:10572000F41001E197D098EC33F0100EA8EC30F0B3
:105730009DEC33F0100EA2EC33F061EC32F001E09E
:1057400089D01750151801E085D0020EDB6A6BEC8A
:1057500031F00CEC33F098EC33F0180EEB50A7EC72
:1057600031F033E2060EDB6AC2EC31F090EC32F03D
:105770009DEC33F0190E12EC33F024E22FEC34F0F0
:1057800034EC34F068EC32F061EC32F018E1175090
:10579000151815E1070EDB500DE0070EDB6A55EC1E
:1057A00030F0EF8C0F01078568EC32F0EECF3BFF55
:1057B000EDCF3CFF98EC33F0CFEC30F0EF2A24EC47
:1057C00032F0D6D704EC34F0C6D7860EF36E070E4F
:1057D000F3CFDBFF020EDB6A72EC31F00CEC33F03E
:1057E00098EC33F0190EEB50A7EC31F033E2060ED3
:1057F000DB6A06EC32F090EC32F09DEC33F0180EE0
:1058000012EC33F024E268EC32F034EC34F02FEC9C
:1058100034F061EC32F018E11750151815E1070E5D
:10582000DB500DE0070EDB6A52EC30F0EF8C0F011D
:1058300007852FEC34F0EECF3DFFEDCF3EFF9DEC22
:1058400033F0CFEC30F0EF2A24EC32F0D6D704EC72
:1058500034F0C6D794EC33F007E098EC33F016EC54
:1058600033F052EC30F0EF8A0451051107E09DEC63
:1058700033F016EC33F055EC30F0EF8A030EDB6AB0
:10588000DB50146E080EE15C02E2E16AE552E16E63
:105890001450ABEF30F054EC34F0E652DF6ABCEC5D
:1058A00032F050E0FFEC31F0210EEDEC34F0100B53
:1058B0002FE00B018051811145E198EC32F0F3505B
:1058C000F41040E0010E80CBDBFF020E81CBDBFF4A
:1058D000FFEC31F0160EEDEC34F0E66E010EDBCF8E
:1058E000E9FFDB2A020EDBCFEAFF01E3DB2A0AEC49
:1058F00035F0010EDBCFE9FF020EDBCFEAFFFB0E36
:1059000082EC31F0200E9C6F800E9D6F510E19D0ED
:1059100085EC34F0FB0EDBCFEFFFFFEC31F0160E21
:10592000A2EC33F0EFCF06FF200E89EC34F0FFEC51
:1059300031F0060EA2EC33F0EECF92FBEDCF93FBED
:105940004F0EDF6EDF50E552E552E552ABEF30F01F
:10595000D6DB0B01A98106CF00FB0B01020E896F7C
:10596000030E885D08E1D6EC31F009E099C092FBA6
:105970009AC093FB04D08ACB92FB8BCB93FB0B0199
:105980001CEC33F09B6BFC0EDBCF9CFBFD0EDBCFE6
:105990009DFBE1D3B4DB320EE12402E3E168E65281
:1059A000E16E300E89CBDBFF31EC35F078DB010E98
:1059B000EF6EF36E310EF3CFDBFF020EF36E310E9E
:1059C00087EC35F018E2300EE66EE66A310E0AEC2E
:1059D00031F0D9CFE6FFDACFE6FFEDEC33F002E2AB
:1059E000E16AE552E16E17504FEC35F0DFCFEFFF83
:1059F000310EDB2AE2D7050E89EC34F0300EDB5095
:105A000002E00B018C85320EE15C02E2E16AE552B4
:105A1000E16EA1D374DB110EE12402E3E168E652EA
:105A2000E16E0F0E89CBDBFFDF6A020EDB6A030E2D
:105A3000DB6A070EDB6A090EDB6A0A0EDB6A300ED0
:105A40001BEC34F00D0EF3CFDBFF0E0E9DDB01E1FE
:105A500001D165EC34F00B0EC6DB0C0EC4DB060E78
:105A6000E7CFDBFFDB5020E0060E24EC33F0020E24
:105A7000F3CFDBFF030E88DB01E1ECD0100EDB6A15
:105A8000060EDB506FEC32F00FE261EC31F0D7EC38
:105A900032F00AEC35F061EC31F0D7EC32F0010E67
:105AA00020DB100EDB2AECD765EC34F0080EE7CFD4
:105AB000DBFFDB501EE0080E24EC33F0090EF3CFC1
:105AC000DBFF0A0E61DB01E1C5D0100EDB6A080EB8
:105AD000DB506FEC32F00DE2F4DBE0EC32F00AEC7C
