:020000040000FA
:0600000010EF77F0120082
:06000800BEEF64F01200DF
:06001800BEEF64F01200CF
:0E003200040092EE0000A50000000200000095
:1000400090EE0000A3000000020000008EEE000011
:10005000FE090000020000008CEE0000FC09000018
:04006000020000009A
:0C0064007DC914F0149E156A166A176A14
:10007000145015101610171001E1000C010CB2EC11
:1000800020F0010EE66E74EC1CF0E5520E0EE66EEA
:10009000E66AA40E146EDB0E1CEC21F0D20EE66EA6
:1000A0000C0EA3EC20F002E2E16AE552E16E17507B
:1000B0003C0E0C01D21902E1A50ED31903E09CEC11
:1000C0001AF005D0180ED55D02E00A01A98BDF6A8F
:1000D000050EDF5C0FE2DF50030DF3CFE9FFF4CF35
:1000E000EAFFD50EE926090EEA22B1EC23F0EF6A09
:1000F000DF2AEED7DF6A060EDF5C04E224EC21F093
:10010000DF2AF9D7E55250EF1DF019EC1DF0610E12
:10011000E12402E3E168E652E16E93EC74F0060E2E
:1001200006C0DBFF070E07C0DBFF080E08C0DBFFC1
:10013000090E09C0DBFF09017DA539D0ABEC20F029
:100140008F51EE5C146E9051EE58156E9151EE5831
:10015000166E9251EE58176E93C918F0196A1A6A02
:100160001B6A360E0B6E6E0E0C6E010E0D6E0E6A55
:1001700093C906F019C007F01AC008F01BC009F0B7
:1001800055EC76F002C018F003C019F004C01AF064
:1001900005C01BF01450025C15500358165004584B
:1001A0001750055804E20A01BD9109017D95FD0E25
:1001B000DB5002E077EF05F00A01A9B11DEF14F062
:1001C00009017DA1BAD10B0EDB6A070EF36E0B0E8F
:1001D000BAEC1DF001E39DD1B0EC1EF001E196D127
:1001E000B7EC23F0EECF1CF0EECF1DF0EECF1EF0FB
:1001F000EFCF1FF0ABEC20F000011C50EE5C186E4E
:100200001D50EE58196E1E50EE581A6E1F50EE58C3
:100210001B6E18C006F019C007F01AC008F0096E6E
:1002200007EC6FF007C014F008C015F009C016F015
:100230000AC017F0810E0C6ECB0E0D6EA40E0E6E62
:10024000470E0F6E89EC6FF0010A0BE197EC20F07E
:100250002BEC1DF00B0E38EC23F00B0E03EC1EF014
:1002600055D1D6EC22F0200B01E050D10A0EDB94E0
:10027000DB9217EC23F0EF5018086FE017EC23F037
:100280000C0EEFCFDBFFDB50FF0817E197EC20F0FF
:100290005EEC23F060EC1DF0D90E145C780E15585E
:1002A000000E1658000E175852E3E9EC1FF0DB82DF
:1002B000F6EC22F00C0EDB6A4AD00C0EDB504AEC56
:1002C00020F002E2E16AE5526FEC21F0D0A322D0E7
:1002D00097EC20F061EC23F0FC0EEE1802E1FF0E2B
:1002E000ED1818E097EC20F061EC23F0FD0EEE180D
:1002F00006E1FF0EED1803E1D051010B0BE097EC86
:1003000020F0050EDAEC20F01450C91907E1155061
:10031000CA1904E182EC23F0EF6A0DD0D0B10BD002
:10032000040EC9CCDBFF050ECACCDBFF0A0EDB8452
:1003300082EC23F0EF900C0EDB2AA8EC21F0040BEA
:1003400006E1180EF36E0C0EBAEC1DF0B6E317ECD6
:1003500023F00C0EDBCFEFFF45D00A0EDB800A0145
:10036000826B0C0EDB6A180EF36E0C0EBAEC1DF0ED
:1003700008E282EC23F0EF50010B03E10C0EDB2AC4
:10038000F2D70C0EDB50180829E00A01F00E826F3C
:10039000D6EC22F00F0B000921E0B7EC23F060EC63
:1003A0001DF0360E145C6E0E1558010E1658000E18
:1003B000175812E30A0EDB90E9EC1FF0D6EC22F09E
:1003C0000F0BE806E8500F0BF36EF46EF00E9DEC89
:1003D0001FF0F6EC22F002D00A0EDB90A8EC21F020
:1003E000010B32E1A8EC21F0040B01E18FD02E0EBD
:1003F000F36E0D0EF3CFDBFFA8EC21F0020B35E01E
:1004000097EC20F0050EDAEC20F00A01D551141813
:100410002CE1D651151829E10D0EDB6A2E0EF36E74
:100420000D0EBAEC1DF009E20D0E34EC21F0EE5287
:10043000EF5003E00D0EDB2AF1D70D0EDB502E0836
:1004400014E10A01F10E826F1BEC23F0EFCF9CFA4E
:1004500097EC20F00CEC21F0EF8AD6EC22F0100B98
:1004600002E11DEF14F04DEF12F01BEC23F0EF5002
:10047000ADEC23F097EC20F0040E3BEC23F0050EDE
:10048000E4EC20F097EC20F0050E3BEC23F0070E97
:10049000E4EC20F097EC20F0070E3BEC23F0090E83
:1004A0003BEC23F00A0E76EC20F0DF6A97EC20F0AC
:1004B0002EEC1EF097EC20F0B1EC23F0EF50DF5C57
:1004C00008E2FAEC1CF001E3DB2A95EC22F0DF2ACB
:1004D000F1D7A6EC20F0F7EC1DF09AEC1DF00D0E14
:1004E000DB502E0802E10BEF15F00D0E34EC21F07D
:1004F000DFCFEFFF1BEC23F0EF50E66E0D0E34EC78
:1005000021F0EE524CEC1DF00BEF15F00B0EDB2A38
:100510005CD60B0EDB6A070EF36E0B0EBAEC1DF009
:1005200006E2B0EC1EF003E10B0EDB2AF4D70B0E53
:10053000DB50070802E109017D9109017DA3DBD1B0
:100540000E0EDB6A030EF36E0E0EBAEC1DF001E325
:1005500093D00E0EBFEC1DF001E18BD00E0E3EECE1
:1005600023F001E186D042EC23F0080B0EE10E0EE1
:10057000F4EC20F060EC1DF0040E145C5D0E1558D8
:10058000000E1658000E175827E242EC23F0080B15
:1005900070E00E0EF4EC20F0EECF20F0EECF21F064
:1005A000EECF22F0EFCF23F0ABEC20F00001205093
:1005B000EE5C1C6E2150EE581D6E2250EE581E6EE1
:1005C0002350EE581F6EB30E1C5CF10E1D58000E2A
:1005D0001E58000E1F584DE30E0E9AEC20F02EEC24
:1005E0001EF0DF6A060EDF5C08E2FAEC1CF001E3A5
:1005F000DB2A95EC22F0DF2AF5D7DF6A080EDF5CF4
:1006000007E2FAEC1CF001E3DB2A83EC20F0F6D7DA
:100610000E0E87EC20F0EF9642EC23F0070BE80675
:10062000E850070BF36EF46EF80E9DEC1FF00E0E03
:10063000F4EC20F0060EDBCFEEFF070EDBCFEEFF73
:10064000080EDBCFEEFF090EDBCFEEFF42EC23F00E
:10065000070B000902E005EF15F00E0E9AEC20F0F2
:100660002BEC1DF00E0E9AEC20F0EE6AED6A05EF11
:1006700015F00E0EDB2A66D70E0EDB6A030EF36E44
:100680000E0EBAEC1DF03BE20E0EBFEC1DF034E096
:100690000E0ED9EC1CF060EC1DF0D8801C0E14542A
:1006A0004E0E15540E0E1654000E175425E20E0E63
:1006B000B5EC20F002E2E16AE552E16E17500C0160
:1006C000E40509E1020EE46F71EC1DF002E2E16A5B
:1006D000E552E16E14500E0E3EEC23F005E00E0ED6
:1006E0009AEC20F02BEC1DF00E0E9DEC20F02BEC84
:1006F0001DF00E0EE6EC1EF00E0EDB2ABFD7DF6AF1
:10070000060EDF5C01E3BDD04DEC22F001E1B7D075
:100710000F0EDB6AD950100F87EC1DF004EC21F0AE
:100720008BEC20F0050EC5EC20F07BEC1FF002E214
:10073000E16AE552A8EC1EF066E0100EDB5059E1CC
:10074000C4EC22F01DE118EC20F01AE10F0EDB6A78
:100750002E0EF36E0F0EBAEC1DF009E20F0E34EC04
:1007600021F0EE52EF5003E00F0EDB2AF1D70F0E0F
:10077000DB502E0805E164EC23F0F10E826F46D0C9
:100780008BEC20F02EEC1EF0010EDB6A8BEC20F0DF
:10079000B1EC23F0EF5058EC21F009E2FAEC1CF038
:1007A00001E3DB2A95EC22F0010EDB2AEFD7D950CA
:1007B000010F40EC21F0C4EC22F018E118EC20F01D
:1007C00015E10F0E34EC21F0010EDBCFEFFF8BECC7
:1007D00020F07EEC20F061EC23F0EF50E66E0F0E7F
:1007E00034EC21F0EE52E552E750EF6EBAEC23F014
:1007F0003ED0100EDB50020842E1C4EC22F00CE1C6
:1008000018EC20F009E164EC23F0826BFBEC22F0A1
:1008100000EC22F049EF12F0ACEC1EF05FEC20F09F
:100820008BEC20F0030EE4EC20F08BEC20F0030EB8
:10083000CDEC22F08BEC20F0050E89EC22F08BEC55
:1008400020F0050E46EC23F07BEC20F0D950010F90
:1008500087EC1DF08BEC20F0030EC5EC20F09AEC39
:100860001DF0BAEC23F08BEC20F0EE6AED6AEA6A38
:10087000DF348FEC20F000EC22F00BEF15F0DF2AD4
:100880003FD735EC1EF00A0EDF5C1BE206EC1DF0D4
:1008900002E2E16AE552E16E1750020E0C01E45DDE
:1008A0000DE1030EE46FE269E36971EC1DF002E211
:1008B000E16AE552E16E1450A3EF14F03CEC1EF037
:1008C000E2D7DF6A060EDF5C05E24DEC22F002E1C2
:1008D000DF2AF8D7060EDF5C0EE1DF6A030EDF5C6D
:1008E00005E2ACEC21F002E1DF2AF8D7030EDF5C71
:1008F00002E109017D9309017EAF1FD0ABEC20F02E
:10090000D151EE5C146ED251EE58156ED351EE58A3
:10091000166ED451EE58176ED880000E1454B40ED3
:100920001554000E1654000E175407E20A01CA0EA1
:10093000826F88698969A7EF13F07DAF1BD07D9F17
:1009400000C982FA01C983FA08C98AFA09C98BFA6F
:1009500010C992FA11C993FA12C994FA13C995FAF7
:1009600014C996FA15C997FA16C998FA17C999FAC7
:1009700064EF11F07DA71DEF14F07DAD03D07D9DD8
:100980005EEF14F07DBB1DEF14F0180EC35D36E072
:10099000DF6AC3514AEC20F002E2E16AE552A4ECBE
:1009A0001EF004E05AEC1DF0010803E00901C32B1E
:1009B00002D0010EDF6E180E0901C35D02E2DF50A6
:1009C000E8E0DF5025E0C32BDF6A080EDF5C03E2BE
:1009D00068EC23F0FAD785EC23F0ADEC1FF0EF863E
:1009E000A0EC20F0040EEF6E400EDF6E09017EB326
:1009F000DF8E7EBB50EF14F04FEF14F07E930C01AE
:100A0000DD6B31EC1DF002E2E16AE552E16E14505B
:100A100009017E51020B38E00C01DD5135E0ABECF1
:100A200020F00901C451EE5C146EC551EE58156EEC
:100A3000C651EE58166EC751EE58176ED7CC18F047
:100A4000D8CC19F01A6A0C68520E0D6E070E0E6E95
:100A5000D7CC07F0D8CC08F01AC009F040EC6FF002
:100A600004C018F005C019F006C01AF01B6A1ABEBF
:100A70001B681450185C1550195816501A58175006
:100A80001B5802E31DEF14F009017D8D51EC22F09B
:100A900002E2E16AE552E16E1750DF6A080EDF5CA0
:100AA00003E2ABEC22F0FAD756EC20F0EF68DCEC76
:100AB0001CF0FC0EEF6EDCEC1CF0ADEC1FF0EF88D0
:100AC000A0EC20F0040EEF6EDF6A09017E51020BEC
:100AD00008E00C01DD5105E109017E51040B01E044
:100AE000DF8EA8EC22F0DFCFEFFF05EF15F0FD0E53
:100AF000DB50720A02E175EF14F03B0A02E163EF8A
:100B000014F0010A02E15EEF14F00F0A02E1E2EFD5
:100B100013F0010A02E1CBEF13F0030A02E10FEF39
:100B200013F0010A02E1ECEF12F0070A02E1C7EF4D
:100B300012F0010A02E1C2EF12F0030A02E176EFBD
:100B400012F0720A02E178EF11F0010A02E16DEF92
:100B500011F01C0A02E166EF11F0040A02E151EF04
:100B600011F0030A02E1C7EF0FF00C0A02E165EF92
:100B70000FF0070A02E153EF0FF03E0A02E1CEEF59
:100B80000EF0070A02E191EF0EF0030A02E10AEF0C
:100B90000EF00E0A02E1D6EF0DF0040A6EE0030A31
:100BA00002E00DEF15F0DF6A060EDF5C3EE2B8EC06
:100BB00021F002E1FF0EED1836E03DEC1DF0EE52A3
:100BC000EF500A019C5D2FE182512BE00A01A66BD8
:100BD0000A017F0EA76F0A01A9813DEC1DF0EF50BD
:100BE000E66E5FEC20F0A5EC23F0010E76EC20F031
:100BF000EFEC22F0CDEC22F0EFEC22F089EC22F0C9
:100C0000A5EC23F0010E89EC22F0A6EC20F0EFEC2D
:100C100022F0C5EC20F09AEC1DF024EC21F00BEF53
:100C200015F024EC21F0DF2ABFD7DF6A2E0EDF5C3F
:100C300008E288EC23F0EF500A019C5D02E0DF2A15
:100C4000F5D72E0EDF5C02E11DEF14F0D7EC20F09B
:100C5000EF500AE0D7EC20F0EFCF9CFA340EF36EA1
:100C6000110EF3CFDBFF02D0110EDB6AD7EC20F0C0
:100C7000EF6A110EDB500EEF15F0080EF36E1A0E30
:100C8000F3CFDBFFF4EC21F0120ED5EC1DF0130EC8
:100C9000D5EC1DF0140ED5EC1DF0150ED5EC1DF0A5
:100CA000160ED5EC1DF0170ED5EC1DF0180ED5EC78
:100CB0001DF0190EE7CFDBFFD950130FD1EC1DF05B
:100CC000080B10E0DF6A080EDF5C0AE290EC1EF011
:100CD000DF50EA6AEA0FE96E090E55EC22F0F3D70D
:100CE000EFEC1EF0D950130FD1EC1DF0100B10E0FB
:100CF000DF6A080EDF5C0AE290EC1EF0DF50EA6A61
:100D0000F20FE96E090E55EC22F0F3D7EFEC1EF06E
:100D10000A01921D01E1931D09E0F0EC1FF0FB0EAA
:100D2000D880EE54FF0EED5401E3AAD3DF6A070E1C
:100D3000DF5C22E25AEC22F01DE006EC22F091EC9E
:100D400022F0C1EC23F0B1EC1FF014E1175015189C
:100D500011E191EC22F0B4EC23F0EF50F36E190E98
:100D6000DB50F35C07E1DFCFE6FF70EC1AF0E552F1
:100D70004FEF0FF0DF2ADBD70DEC22F001E01ED39E
:100D8000DEEC1AF0DF6EDF0401E056D209017E517D
:100D9000010B01E151D28BEC1EF005E1D651151883
:100DA00002E14FEF0FF01B0EDB6A14EC22F001E3BF
:100DB000DB2A010EEF6EDF6EB9EC1FF008E2E7EC04
:100DC00022F001E3DB2A4CEC1DF0DF2AF5D7210EDF
:100DD000DB50E76E220EE7CFDBFF210EDB2A0A0194
:100DE0009D51E1EC1EF004E6D80E145C000E15587F
:100DF00002E2210EDB2A9D51E1EC1EF004E6B40E66
:100E0000145C000E155802E2210EDB2A9D51E1EC24
:100E10001EF004E6900E145C000E155802E2210E3E
:100E2000DB2A6C0E9D5D02E2210EDB2A480E9D5DE1
:100E300002E2210EDB2A240E9D5D02E2210EDB2A56
:100E40001D0EDBCFE6FF8CEC23F0B1EC21F01E0E83
:100E50003AEC1FF002E2E16AE552A8EC1EF001E173
:100E60004DD10A01921D01E049D1931D01E046D107
:100E7000250EDB6A030EF36E250EBAEC1DF01DE2A3
:100E8000250EBFEC1DF016E0250ED9EC1CF092ECFF
:100E900021F01E0EDB50145C0DE1250EF9EC20F064
:100EA00022EC20F0160EDB50151803E1170EDB5074
:100EB000161803E0250EDB2ADDD7030EF36E250E90
:100EC000BAEC1DF03EE293EC74F01AEC22F0250E21
:100ED000D9EC1CF09DEC1DF0210EDBCF14F0250E9B
:100EE0001EEC23F0EF50D880145402E24FEF0FF0C5
:100EF000CEEC20F09AEC22F003E1200EDB50151826
:100F000008E044EC21F001E179D008EC21F001E0A7
:100F100075D046EC4CF00A01A9B11DEF14F0250E76
:100F200023EC23F0210EEFCFDBFFD9501C0F87EC11
:100F30001DF0250EB1EC21F07EEC1FF001E348D14D
:100F400045D1D950260F87EC1DF0D950250F87ECDD
:100F50001DF08CEC23F0DBCFE6FF84EC1FF002E207
:100F6000E16AE552A8EC1EF002E14FEF0FF0250E0A
:100F700028EC23F01E0EDBCFEFFF250EF9EC20F05E
:100F800096EC1EF0CEEC20F0250ED9EC1CF00A0EEB
:100F9000DAEC20F0160EDB50141803E1170EDB50CC
:100FA000151805E0250EEBEC22F0010904D0250E02
:100FB000EBEC22F00309EF6E250E87EC20F0EF86B4
:100FC000210E9AEC22F003E1200EDB50151806E00A
:100FD00044EC21F013E008EC21F010E146EC4CF079
:100FE0000A01A9B11DEF14F00FEC21F0250EB1ECB0
:100FF00021F07EEC1FF001E3EBD0E8D0010EF36EA0
:101000001B0EF3CFDBFFDB5001E116D13AEC20F0F1
:1010100001E012D1250E3EEC23F008E10E0E83EC28
:1010200022F0250E9AEC20F05FEC22F0250E3EEC2B
:1010300023F002E14FEF0FF0D9501C0FADEC1DF083
:10104000250E9AEC20F0270EEECFDBFF280EEDCF19
:10105000DBFFDF6AB9EC1FF00EE2FAEC1CF001E3F3
:10106000DB2AEF50E66E92EC1DF001E3DB2A4CEC3C
:101070001DF0DF2AEFD7ACEC1EF092EC1DF001E37F
:10108000DB2A4CEC1DF03EEC20F092EC1DF001E36D
:10109000DB2A4CEC1DF092EC1DF001E3DB2AA5EC01
:1010A0001FF092EC1DF001E3DB2AA9EC1FF092EC9B
:1010B0001DF001E3DB2A42EC20F092EC1DF001E38D
:1010C000DB2A46EC20F092EC1DF001E3DB2AE1EC98
:1010D0001FF092EC1DF001E3DB2A120EDBCFEFFFD5
:1010E0008CEC1DF0250EF4EC20F09DEC1DF0250E8F
:1010F000EBEC22F00409EF6E4FEF0FF026EC1FF03F
:1011000064EC22F0180822E008EC21F01FE18ACA02
:1011100014F08BCA15F0160EDB50141803E1170EED
:10112000DB50151833E00C01D629E66EA1EC1DF05A
:1011300026EC1FF02BEC1AF0166E050EE15C02E2B5
:10114000E16AE552E16E1650000920E10A01CE5134
:101150000A018A1902E04FEF0FF00A01CF510A018C
:101160008B1902E04FEF0FF0D6CCE6FFA1EC1DF09B
:10117000F4EC1FF0176E050EE15C02E2E16AE55245
:10118000E16E1750000902E04FEF0FF0CAEC1EF0BD
:1011900003E1200EDB5015180AE044EC21F01CE0BE
:1011A00008EC21F019E1FAEC1FF0020815E146EC19
:1011B0004CF00A01A9B11DEF14F00FEC21F0030E61
:1011C000E66EA1EC1DF07EEC1FF002E2E16AE55252
:1011D000E16E14500BEF15F06DEC23F002E1D2EF4D
:1011E0000DF03AEC20F002E0D2EF0DF014EC22F01A
:1011F00001E3DB2A95EC22F0FAEC1CF001E3DB2A98
:10120000C1EC22F001E3DB2AC1EC22F001E3DB2A8E
:10121000C1EC22F001E3DB2AC1EC22F001E3DB2A7E
:10122000BDEC23F0E2EC22F072EC23F0BCEC21F0F8
:10123000F7EC1DF0D0EF0DF0040EDF5C02E04FEF95
:101240000FF0F4EC21F0290EE7CFDBFF8BEC1EF062
:1012500005E1D651151802E14FEF0FF0180EDB50E3
:10126000010850E2D9502A0F69EC22F002E14FEF59
:101270000FF02A0ED6EC1CF00CEC21F0EF982A0EA1
:10128000DBCFE6FF70EC1AF0E5522A0E28EC21F0D5
:101290002A0E73EC21F02A0EC3EC21F02A0ECAECC0
:1012A00021F02A0E66EC21F02A0ED6EC1CF0040E7A
:1012B000AFEC20F02A0E38EC21F02A0E6DEC22F073
:1012C00005E12A0E38EC23F02A0EAFD0DF6A2BECB2
:1012D0001FF02A0ED6EC1CF0C8EC1DF0040EEF6EC9
:1012E0001FEC1FF02B0E82CADBFF0A01825108E0BF
:1012F00090EC1EF02BEC1FF02A0EEFEC20F0F5D74F
:1013000009017D81A1EC1DF0CFEC1EF002E14FEF51
:101310000FF0D0EC1BF046EC4CF014EC1EF002E2A7
:10132000E16AE552E16E14502EEC21F08A0EE66E71
:101330000A0E47EC21F002E2E16AE552E16E145038
:10134000DF6A080EDF5C32E20A0EE66EE66AFAEC4D
:101350001EF0C1EC1FF0E90EE66E0C0EA3EC20F0BF
:1013600002E2E16AE552E16E1750F1CC14F0F2CCE2
:1013700015F0160EDB50141817E1170EDB50151878
:1013800013E10C01F169F2690A0EE66EE90EE66EF0
:101390000C0EE66EFAEC1EF044EC1FF002E2E16A7D
:1013A000E552E16E165002D0DF2ACBD7290EDBBC06
:1013B0005CEF14F0DB50200BC9EF0EF0180EDB5081
:1013C000010853E2D9502C0F69EC22F002E14FEFF3
:1013D0000FF02C0ED6EC1CF00CEC21F0EF982C0E3C
:1013E000DBCFE6FF70EC1AF0E5522C0E28EC21F072
:1013F0002C0E73EC21F02C0EC3EC21F02C0ECAEC59
:1014000021F02C0E66EC21F02C0ED6EC1CF0040E14
:10141000AFEC20F02C0E38EC21F02C0E6DEC22F00D
:1014200008E12C0E38EC23F02C0E03EC1EF04FEFED
:101430000FF0DF6A1FEC1FF02D0E82CADBFF0A01DE
:10144000825108E090EC1EF02BEC1FF02C0EEFEC1C
:1014500020F0F5D7020EDBCF84FA030EDBCF85FA3E
:101460002D0EDBCF82FA09017D818BEC1EF005E1A8
:10147000D651151802E14FEF0FF005EC20F0FBD22A
:101480000DEC22F001E0DED2DEEC1AF0DF6EDF5070
:10149000060A01E1E3D0010A57E0030A08E0090166
:1014A0007EA14FEF0FF0DF0401E076D17CD4DEECBB
:1014B0001AF0DF6E46EC4CF0DFAC34D04EEC1FF08F
:1014C00002E11DEF14F009017D870A01BD91800E34
:1014D000DF1402E0010E01D0000E09017E93E8B096
:1014E0007E837E85C36B7EB302D0180EC36F02EC81
:1014F0001FF0200EDF1402E0000E01D0010E0901E2
:101500007E9BE8B07E8B010EC86F200EDF1402E0D8
:10151000010E01D0000E7E9DE8A01DEF14F07E8D1F
:101520001DEF14F0A1EC1DF0CFEC1EF002E11DEF59
:1015300014F0D0EC1BF014EC1EF002E2E16AE5526C
:10154000E16E14505CEF14F009017E9FF4EC21F081
:101550002E0ED5EC1DF02F0ED5EC1DF0300EE7CF82
:10156000DBFF46EC4CF04EEC1FF002E11DEF14F0F7
:10157000C60EE66E0A0E0FEC1EF0E76E310EE7CFD8
:10158000DBFFDB50180815E0DF6AE1EC1DF0180EF8
:10159000DF5C0FE2E0EC1CF002E2E16AE552A4EC51
:1015A0001EF004E05AEC1DF0000903E0F8EC21F015
:1015B000EED7300EDB5007E00A01A997300EDBCFE3
:1015C00082FAA7EF13F02E0EDBCFD5FA2F0EDBCF6A
:1015D000D6FAECEC57F00C01CF9DCF9FF2C9C6FABA
:1015E000F3C9C7FAF4C9C8FAF5C9C9FAF6C9CAFAFB
:1015F000F7C9CBFAF8C9CCFAF9C9CDFA160EDBCF88
:10160000CEFA170EDBCFCFFADBCFCAFC160EDBCF3C
:10161000C9FCF2C9C1FCF3C9C2FCF4C9C3FCF5C9D9
:10162000C4FCF6C9C5FCF7C9C6FCF8C9C7FCF9C9B2
:10163000C8FC1FEC1DF002E2E16AE552E16E1450B5
:101640000A01826B2E0EDBCF88FA2F0EDBCF89FAD0
:1016500098EC1FF009017E81A7EF13F0010EF36EE5
:10166000320EF3CFDBFFDEEC1AF00A01826F46EC9C
:101670004CF0A8EC22F0070EEF6EF20EE66E090EAB
:101680000FEC1EF018081FE10901010EFC6F79EC48
:1016900015F0000905E0B2EC15F0DF6E18080FE157
:1016A000A8EC22F0FD0E80EC22F0EF68F6EC1CF0C6
:1016B000020EEF6E320EDB6A0901FC6B0FD018ECE4
:1016C00015F00901FC6BA8EC22F0C9CCEFFFF6EC99
:1016D0001CF0CACCEFFFF6EC1CF0EF6A51EC22F0E4
:1016E00002E2E16AE552E16E1750DF6A080EDF5C44
:1016F00003E2ABEC22F0FAD7DF6A080EDF5C09E206
:10170000DCEC1EF0F20FE96E090EEA2283EC20F009
:10171000F4D756EC20F0B2EC22F0180EEF6E91ECFC
:1017200023F0320EDB5003E009017D8F02D0090166
:101730007D9F82CA00F9010E016FC9CC08F9CACC9D
:1017400009F9F2C910F9F3C911F9F4C912F9F5C987
:1017500013F9F6C914F9F7C915F9F8C916F9F9C951
:1017600017F9170EDB50FB6FFA6B160EDB50FA11F0
:10177000FA6FA6EC20F0E66EFBC9E6FF9AEC1DF0CE
:101780000A018251020B05E08251080B02E00BEFC7
:1017900015F085850BEF15F0030EDF5C48E13AECA0
:1017A00020F045E1A8EC22F0030EEF6E90EC1EF065
:1017B0000A017BEC20F0F4EC21F0330EE7CFDBFFE5
:1017C000A8EC22F0330EDBCFEFFFF4EC21F0340E67
:1017D000E7CFDBFFA8EC22F0340EDBCFEFFF46ECC7
:1017E0004CF058EC1FF005E1D651151802E115EF49
:1017F00012F0A8EC23F0D950350F87EC1DF004EC63
:1018000021F09DEC1EF07BEC1FF002E2E16AE55254
:10181000A8EC1EF001E00AD16DEC23F001E006D146
:101820000A01A66B0A017F0EA76F1DEF14F0020ECE
:10183000DF5C01E034D3360EDB6A030EF36E370E45
:10184000F3CFDBFFD950380FADEC1DF0FAEC1CF0F4
:1018500001E3DB2A020EEF6E010EDF6EC9EC1FF012
:1018600008E2E7EC22F001E3DB2A4CEC1DF0DF2A72
:10187000F5D7390EDBCFE6FF3D0EDBCFE6FF3E0EA0
:10188000B1EC21F03A0E3AEC1FF002E2E16AE552C7
:10189000A8EC1EF001E179D0370EDB6A030EF36E7F
:1018A000370EBAEC1DF01DE2370EBFEC1DF016E04E
:1018B000370ED9EC1CF092EC21F03A0EDB50145CA0
:1018C0000DE1370EF9EC20F022EC20F03B0EDB505E
:1018D000151803E13C0EDB50161803E0370EDB2A27
:1018E000DDD7370EDB50030869E0050EE66EE66AC9
:1018F0007CEC21F0C1EC1FF0E20EE66E0C0EA3ECC6
:1019000020F002E2E16AE552E16E17500C01E46B4F
:10191000370ED9EC1CF06CEC21F0EF50F36E3F0E5B
:10192000BAEC1DF00CE2370ED9EC1CF06CEC21F097
:101930003F0EDBCFEFFF8ACAE5FC8BCAE6FC21EC49
:1019400022F07CEC21F044EC1FF002E2E16AE55267
:10195000E16E165071EC22F03B0EDB50141803E1DF
:101960003C0EDB5015182AE0010EF36E360EF3CF55
:10197000DBFF370E23EC23F03F0EDBCFE7FFEF500A
:10198000E7263F0EE7CFDBFF19D071EC22F0140EF3
:10199000DB50141803E1150EDB5015180FE0070E8D
:1019A000146E3F0EDBCFE7FF1450E7263F0EE7CF64
:1019B000DBFF010EF36E360EF3CFDBFF360EDB508E
:1019C0003BE03AEC20F038E146EC4CF0370EDB50CF
:1019D00003080AE0370E2DEC23F0040EEECFDBFFF8
:1019E000050EEDCFDBFF09D004EC21F0A1EC1DF0DA
:1019F00068EC1EF002E11DEF14F0D950380FADEC89
:101A00001DF0DF6AC9EC1FF008E2FAEC1CF001E3FC
:101A1000DB2A95EC22F0DF2AF5D798EC21F0DCECFC
:101A20001CF0180EDBCFEFFF66EC20F0A6EC20F0E8
:101A3000F7EC1DF009EF15F046EC4CF00A01826B53
:101A4000A6EF14F058EC1FF002E1D651151808E08B
:101A5000F0EC1FF0FF0EEE1811E1FF0EED180EE195
:101A600005EC20F0140EDBCF86FA150EDBCF87FADB
:101A70000A01020E886F350E0EEF15F009017E5136
:101A8000010B01E10CD2180EDB50010801E307D273
:101A90003AEC20F001E003D204EC21F0D950120F0F
:101AA000D1EC1DF0C00B5CEC21F0E842E842E66EA0
:101AB0009DEC1EF0E66A61EC17F0146E060EE15C18
:101AC00002E2E16AE552E16E1450E76E400EE7CFA4
:101AD000DBFFDB50030A33E0010A31E0060A2FE0A6
:101AE000050A01E1DCD1010A2AE1A8EC23F00A0190
:101AF000825106E090EC1EF00A017BEC20F0F7D753
:101B0000D950010F40EC21F0DF6A060EDF5C4AE29B
:101B1000B8EC21F012E1FF0EED180FE1A5EC23F077
:101B200096EC1EF03DEC1DF0E5EC1FF03DEC1DF0D9
:101B3000EE52010EDBCFEFFF35D0DF2AE6D7E2EC25
:101B400022F0B2EC22F0EF6AA0EC20F0030EEF6E70
:101B5000400EDB50020804E1F6EC1CF0010E0FD041
:101B6000400EDB50030804E1F6EC1CF0020E07D037
:101B7000400EDB50040805E1F6EC1CF0040EEF6E9D
:101B800003D0F6EC1CF0EF6AF6EC1CF0A9EC1FF0A9
:101B9000F6EC1CF0A5EC1FF0A6EC20F026EC1FF0F4
:101BA0009AEC1DF046EC4CF00BEF15F0DF6A080ED6
:101BB000DF5C10E2DF50EA6A8A0FE96E0A0EEA2261
:101BC000EF50E66EDF50EA6A920FE96E0A0E55ECAE
:101BD00022F0EDD79DEC21F0DF6E18080CE179ECD6
:101BE00015F000090FE0B2EC15F018080BE018EC46
:101BF00015F082CABDF9C9CC88FACACC89FA0A01A3
:101C0000826B05D00A01010E826F88698969170EFF
:101C10000EEF15F00A01A9990A0182511DE00A018F
:101C2000A9970A01D369D469E4EC57F00A01A99B8A
:101C30004AEC23F002E2E16AE5526FEC21F0D09722
:101C40000C01180ED56F1FEC1DF002E2E16AE5529F
:101C5000E16E14503BEF13F088CAD5FA89CAD6FA60
:101C60000A01A987ECEC57F04AEC23F002E2E16AA2
:101C7000E552E16E17500C01CF9DCF9F9AEC23F0F7
:101C8000C60EE66E0A0E15EC1FF002E2E16AE5529E
:101C9000E16E14501FEC1DF002E2E16AE552E16EC4
:101CA0001450C9CCCEFACACCCFFA0A01A98B0C01C8
:101CB000CE510F0B010F0C01D66FE66EF7EC16F04C
:101CC000E552F3CFD7FCF4CFD8FC0C01DFB11AD02A
:101CD000B5EC1EF00C01D96F0A01D65107200C019A
:101CE000DA6F010ED927000EDA23010E0A01D5257D
:101CF0000C01DB6F000E0A01D6210C01DC6FDD6BDD
:101D0000DE6BDF818DEC1FF031EC1DF002E2E16A49
:101D1000E552E16E145009017E8198EC1FF0A7EFA7
:101D200013F009017D9B7D8DCECAE6FFCFCAE6FF89
:101D3000CFEC1EF002E0D0EC1BF080EC1DF0920E18
:101D4000E66E0A0EA3EC20F002E2E16AE552E16ED3
:101D50001750020E0901C85D16E10A0182510FE118
:101D600009017E51020B02E12BEF14F00C01DD5151
:101D700006E109017E51040B02E02BEF14F00A0189
:101D8000CB0E5BEF14F07E51200B02E0000E01D071
:101D9000010E0A01826F4D0E0EEF15F0020E0A01C0
:101DA000885D01E07CD030EC1FF0EF5001E077D08F
:101DB00086CAE6FF87CAE6FF26EC1FF023EC1BF07D
:101DC00076EC22F018081CE1B2EC15F0180867E078
:101DD0000C01D083CF8DCF8FDF6A080EDF5C07E266
:101DE000DF50EA6A1DEC20F0EF6ADF2AF6D70C011B
:101DF000D42B31EC1DF002E2E16AE552E16E1450A1
:101E00000A019BAD03D00C01CF9902D00C01CF8900
:101E1000CF9BD081020E6DEC1EF0780BE840E840BD
:101E2000E8401F0B0C010F0BF36EF00E28EC22F0B4
:101E30000F0B0C01D4EC1EF028EC22F0F00BE8386C
:101E40000F0B0C010F0BF36EF00ECF15F310CF6FCD
:101E50009DCACDFC0A019B510C01D095800B01E07D
:101E6000D085020E6DEC1EF0040B040802E0000E9B
:101E700001D0010E0C01D097E8B0D08786CACBFC08
:101E800087CACCFC8ACAC9FC8BCACAFC89CAD1FCE5
:101E90001FEC1DF002E2E16AE552E16E145046ECDF
:101EA0004CF01DEF14F09DEC21F0DF6E180EDF5C9E
:101EB00002E10DEF15F0C9CC92FACACC93FA0A01EF
:101EC000010E826F230E0EEF15F009017D51080BF4
:101ED0001BE0020EC85D18E17E51400B01E0010ECF
:101EE000E76E410EE7CFDBFF0A01926B936B946BB9
:101EF000956B966B976B986B996B826B2CEC20F0C3
:101F0000410EDB5037E139D07DA73CD07E51400BEC
:101F100001E0010EE76E4A0EE7CFDBFF80EC1DF01B
:101F2000D950420F87EC1DF032EC23F002E2E16A57
:101F3000E552E16E1750420EDBCF92FA430EDBCF33
:101F400093FA440EDBCF94FA450EDBCF95FA460E9A
:101F5000DBCF96FA470EDBCF97FA480EDBCF98FA25
:101F6000490EDBCF99FA0A01826B2CEC20F04A0E65
:101F7000DB5003E00A01A98B02D00A01A99BA997B3
:101F80005CEF14F02CEC20F03D0E0EEF15F00A0182
:101F9000880501E062D14F0EDB6A825103E00A013D
:101FA000A99959D1836B846B856B8651871101E1A7
:101FB00018D11FEC1FF06FEC1FF01AE0020EDBCF00
:101FC000E9FF030EDBCFEAFF58EC1EF0C3EC1DF077
:101FD000B1EC23F0B1EC1FF002E11750151808E046
:101FE00030EC1FF00E0E02EC1DF02EEC1EF0E3D7CD
:101FF0006FEC1FF001E0B5D0C3EC1DF0EF50010B0A
:1020000010E0C3EC1DF0040E02EC1DF0E9CF14F05B
:10201000EACF15F0E9CFE6FFEACFE6FFEAEC1AF0E7
:1020200007D0C3EC1DF0040EC5EC20F007EC1BF04C
:10203000E552E552DF6E180EDF5C01E192D0090136
:102040007EAD0DD0C3EC1DF01A0EEB50E1EC1EF08E
:1020500004E6900E145C000E155801E2ABD0100E91
:10206000E66E0CEC72F0E5524B0EF3CFDBFF4C0E3C
:1020700077EC23F076E0C3EC1DF0020EDAEC20F0F2
:10208000B3EC1DF014C0EEFF15C0EDFFC3EC1DF066
:10209000010EEB50E66EB3EC1DF0020EAFEC20F03B
:1020A0000C01CE51F00B5CEC21F0CFEC21F00F0BCA
:1020B000F36EF00E9DEC1FF0CF510F0BCFEC21F023
:1020C0007DEC23F0EF500F0BD7EC21F00F0BF36EEC
:1020D000F00EB5EC21F00CEC21F0EF50F00B5CECC5
:1020E00021F0D7EC21F07DEC23F0EE52EF50800B85
:1020F00001E0010E146EB3EC1DF0C1EC23F014509E
:10210000010BF36EFE0EB5EC21F05EEC23F0EECF8A
:1021100014F0EECF15F0EECF16F0EECF17F084EC02
:1021200021F0B3EC1DF0060E02EC1DF093EC1EF056
:1021300018C0EEFF19C0EEFF1AC0EEFF1BC0EEFF85
:10214000B3EC1DF00E0E02EC1DF084CAEEFF85CA42
:10215000EDFF4B0EDBCF84FA4C0EDBCF85FA0A0184
:10216000832B09017EAD26D0C3EC1DF0040EDAEC02
:1021700020F00A01CE51000114181CE10A01CF51D0
:102180000001151817E1C3EC1DF0B1EC23F0EECF00
:1021900016F0EFCF17F00A01D351000116180AE12B
:1021A0000A01D4510001171805E1010EF36E4F0E1C
:1021B000F3CFDBFFC3EC1DF01B0E02EC1DF02EEC89
:1021C0001EF086CAE6FF87CAE6FF7BEC22F00A0112
:1021D000866B876B020EDBCF86FA030EDBCF87FAA6
:1021E000E4D6835102E10A01A99909017EAD33D0F9
:1021F0007E9DA8EC22F0060E80EC22F0CA0EEF6E57
:1022000051EC22F002E2E16AE552E16E1750DF6A1A
:10221000080EDF5C03E2ABEC22F0FAD785EC23F08A
:10222000100EEF6EDCEC1CF01BEC1FF030EC20F01D
:102230009AEC1DF009017E8F93EC74F006C0D1F981
:1022400007C0D2F908C0D3F909C0D4F9C9CCCEFA75
:10225000CACCCFFAE0D3360EE1D30A01A9990A011C
:10226000825107E1E4EC57F0D5CA88FAD6CA89FA58
:10227000F7D44AEC23F002E2E16AE552DFEC21F008
:1022800002E2E16AE552E6EC21F002E2E16AE5529F
:10229000E16E14500A01A99B0A0188698969CA0E76
:1022A00055D22EEC22F00A01825103E0180EDF5CB9
:1022B000C4D2180EDF5C01E1B0D3C9CC8AFACACC13
:1022C0008BFABDC982FA836B4C0EA8D30A018251E6
:1022D00001E088D109017E8185D10A01825101E1A5
:1022E00002D3EB0E825D02E1826BFDD2C60EFAD202
:1022F0000A01A9B703D00A01C20ECAD00A01921D71
:1023000001E1931D0EE0FD0E921902E1FF0E9319FB
:1023100008E0FC0E921901E08BD0FF0E931901E04A
:1023200087D0D950510F69EC22F001E1AFD0F3EC26
:1023300022F00CEC21F0EF88F3EC22F05EEC23F0BD
:10234000D90EEE26780EEE22000EEE22EE220A01C3
:10235000A751146E156A7F0ED8801456000E1556BC
:102360000A01A651166E176A145016240A01826FCC
:10237000510E28EC21F08B51400DF3500809E66E08
:10238000F3EC22F00A0EAFEC20F08351E824E66E65
:10239000F3EC22F0090EAFEC20F0F3EC22F0070E84
:1023A00035EC22F0F3EC22F0C1EC23F035EC1FF019
:1023B000F3EC22F0040E02EC1DF08ACAEFFFF3ECFE
:1023C00022F0B4EC23F09CCAEFFF82CAE6FFA8EC2F
:1023D0001DF0510E6DEC22F007E1510E38EC23F0A8
:1023E000510E03EC1EF052D0DF6A0A01A751E1EC56
:1023F0001EF004E67F0E145C000E155805E2A72BB4
:10240000A75157EC23F0F1D70A01826B0A01A651BC
:1024100008E00A018251822B57EC23F00A01A6073B
:10242000F5D709017D8192EC1FF00A01A66B05D258
:1024300004EC21F08BCAE6FF92CAE6FF93CAE6FFDE
:10244000010EE66E61EC17F0146E060EE15C02E21E
:10245000E16AE552E16E1450E76E520EE7CFDBFF02
:10246000DB50010A01E1E9D1010A03E00A01D10EC2
:102470000FD0DF6A2E0EDF5C06E2D7EC20F0EF50C3
:1024800002E0DF2AF7D72E0EDF5C09E10A01F10E28
:10249000826F92EC1FF00A01A66B340EBFD2D7EC0C
:1024A00020F09CCAEFFF0A01DCEC1CF09CCAEFFF95
:1024B000DDEC20F093CAEFFFDCEC1CF092CAEFFFDA
:1024C0000A018351E824ADEC23F00A018B51400D41
:1024D000F3500809ADEC23F0D950500F40EC21F037
:1024E00088EC23F0500EDBCFEFFF95D209017EBBC5
:1024F000A4D1180E0C01D55D14E0D5514AEC20F0A2
:1025000002E2E16AE552DFEC21F002E2E16AE55223
:10251000E6EC21F002E2E16AE552E16E14500A01B4
:10252000A99BDF6A180EDF5C14E2DF504AEC20F052
:1025300002E2E16AE5526FEC21F0D0A308D0D09717
:102540001FEC1DF002E2E16AE552E16E1450DF2A51
:10255000E9D70A01A9890901BB51BC1105E075EC55
:102560001FF00901BB6BBC6B8ACABEF98BCABFF9ED
:102570008CCAC0F98DCAC1F989CAC2F90A01010E13
:10258000886F07D10A01C20E826F370E47D2090148
:102590007D950A01825103E10A01BD9114D00A011F
:1025A000BD81FF0E0A01825D0EE082CA93F993ECB1
:1025B00074F006C08FF907C090F908C091F909C0FE
:1025C00092F909017D8583CAE6FF49EC1CF0E552CA
:1025D0000A01826B380E22D20A01A9B705D00A017E
:1025E000C20E826F390E1AD288CADFFF4AEC23F07E
:1025F00002E2E16AE552E16E175009017E91CBCC0F
:1026000086FACCCC87FAD1CC88FA0A010F0E8E6FED
:102610008F6F826BDF5001E082832D0EFFD10901A5
:102620007EBB0BD10A01A951080B13E0020E0A016F
:10263000825D0FE175EC1EF009017E8D0A01010E2D
:10264000886F0D0E896F0A01AA0ED36F1A0ED46F10
:102650009ED00A01A9890A01825101E07AD00C01B9
:10266000DF9131EC1DF002E2E16AE552E16E1450B7
:102670000A01C30E826F0C01180ED56F5E0EDB6867
:10268000DF6A180EDF5C2EE2DF504AEC20F002E237
:10269000E16AE552A4EC1EF023E0D051040B20E0E7
:1026A000D051080B1DE00A019A510C01CB1918E119
:1026B0000A019B510C01CC1913E1300ECD5D10E3E2
:1026C0005E0EDBCF14F0CE510F0BD880145408E20D
:1026D000CE510F0BE76E5E0EE7CFDBFFDFCFD5FCF1
:1026E000DF2ACFD7180E0C01D55D2AE0D5514AEC70
:1026F00020F002E2E16AE552E16E17509ACAD3FA7D
:102700009BCAD4FA1CEC1EF0010EE66EE66ABE0E01
:10271000146EE90E1CEC21F062EC1FF002E2E16A9B
:10272000E552E16E1750D1CC88FA0A01020E896F8A
:10273000C9CC92FACACC93FADFCF82FA150E6ED1C9
:102740000A01A9990A0188698969C30E826F3A0E44
:1027500065D175EC1EF00A01A951200B06E00901B4
:102760007E51400B02E07E9D09D00A01A951200B49
:1027700005E00A01820502E1030E02D00A01010E02
:10278000886F080E896F9ACAD3FA9BCAD4FA1CECD8
:102790001EF0280E43D19DEC21F0180803E00A0139
:1027A000C50E09D0A6D9000904E0DCD9DF6E1808EF
:1027B00004E10A01C70E826F03D03AD90A01826B85
:1027C0003B0E2CD10A01A9B703D00A01C20E73D067
:1027D0000A01925134E1935132E1945130E1955123
:1027E0002EE196512CE197512AE1985128E1995117
:1027F00026E10A01BD9109017D870A018251090183
:102800007E93E8B07E837E85C36B7EB302D0180EC4
:10281000C36F02EC1FF00A01835102E0000E01D0E9
:10282000010E09017E9BE8B07E8B0A0183510901EC
:102830007E9DE8B07E8D020EC86F000EEFD02EECAC
:1028400022F0180836E008EC21F033E10A01855146
:1028500005E0D0EC1BF00A01826B2ED0DF6A080E77
:10286000DF5C03E268EC23F0FAD785EC23F0080E76
:10287000EF6E91EC23F0A729F3EC1DF054EC74F00B
:10288000E552A8EC22F0040EEF6E400EDF6E0A0156
:10289000825101E0DF8E835103E009017E8DDF8AE2
:1028A000A8EC22F0DFCFEFFFA6EC20F030EC20F018
:1028B000B0D00A01C80E826F3C0EB0D00A01010EE2
:1028C000826F240EABD00A0182510BE1836B98EC2E
:1028D0001FF0020E896FCECA92FACFCA93FA310E58
:1028E0009DD0C10E826F3E0E99D00A01A9B702D0C9
:1028F0000A0113D00A01845112E0921D01E1931DD7
:102900000CE0FD0E921902E1FF0E931906E0FC0E99
:10291000921905E1FF0E931902E1C20E16D0D950AB
:10292000600F87EC1DF0D9505F0F87EC1DF092CA45
:10293000E6FF93CAE6FF84EC1FF002E2E16AE5528B
:10294000A8EC1EF005E10A01020E826F730E66D03C
:1029500009019451942BE66E5F0ED9EC1CF00E0E1B
:10296000AFEC20F05F0EF9EC20F035EC1FF05F0EBD
:102970002DEC23F035EC1FF05F0E3CEC22F05F0EE7
:10298000EBEC22F00309EF6E5F0E87EC20F0EF9680
:102990005F0E23EC23F0EF68ACEC1EF00A018DEC27
:1029A00022F0DDEC20F0EF68DCEC1CF0EF68DCECF2
:1029B0001CF0EF6AA0EC20F0010E80EC22F0800EFB
:1029C000EF6E0A01840505E10A01A605FEEC20F080
:1029D000EF8C5F0E28EC23F095EC22F00A01845175
:1029E00009E1A8EC22F0D5CAEFFFF6EC1CF0D6CA3C
:1029F000EFFF08D0A8EC22F092CAEFFFF6EC1CF033
:102A000093CAEFFFF6EC1CF0EF6AA6EC20F0E66844
:102A1000E6689AEC1DF0100E01D0000E146E610EE7
:102A2000E15C02E2E16AE552E16E145050EF1DF004
:102A30009AEC23F08A0EE66E0A0E15EC1FF002E205
:102A4000E16AE552E16E1450D3CACBFCD4CACCFC87
:102A50000C01D1690A0182B314D00C01CF99CF8B3C
:102A6000D9CCC9FCDACCCAFC0C01D92B000EDA2374
:102A7000FE0ED91921E1FF0EDA191EE109017E8748
:102A80001BD00C01CF89CF9BDBCCC9FCDCCCCAFCB2
:102A90000C01DE2BD751DB27D851DC23B5EC1EF01F
:102AA000146ED6510720156E0C01DB51145CDC51FD
:102AB000155802E209017E890A0182510C01D09168
:102AC000080B01E0D081CF8DCF9FD0831FEC1DF08C
:102AD00002E2E16AE552E16E14500C01DD2BD42BC9
:102AE00031EC1DF002E2E16AE552E16E14508DEF27
:102AF0001FF00901FC511DE10A01BD51010B17E056
:102B0000140E0C01DD5D13E20A018251020B04E197
:102B100009017E51080B0CE0050E0C01D65D07E2A1
:102B2000060EDE5D04E209017E51100B01E0000C8F
:102B3000010C140E0C01DD5D13E20A018251020B3F
:102B400004E109017E51080B0CE0050E0C01D65D75
:102B500007E2060EDE5D04E209017E51100B01E082
:102B6000000C010CDAEC22F0180EDF5C0FE2E0EC56
:102B70001CF002E2E16AE5526FEC21F0D0B302D022
:102B8000DF5005D0E7EC1DF0DF2AEED7180EE55236
:102B900050EF1DF09EEC23F0DF6A070EDF5C05E2CC
:102BA0005AEC22F002E0DF2AF8D7070EDF5C08E0DB
:102BB0002D0E83EC22F048EC1DF0FEEC1DF002E13E
:102BC000000E3ED0FC0EDBCFE9FFFD0EDBCFEAFFAF
:102BD000DFCFEFFF91EC22F00B0E02EC1DF0EF685F
:102BE0008CEC1DF091EC22F05EEC23F09DEC1DF0DE
:102BF00091EC22F06CEC21F093EC1EF091EC22F0C1
:102C00000CEC21F0EF9A91EC22F00CEC21F0F00E9C
:102C1000EF140209EF6E010EDB6A180E58EC21F07A
:102C20000EE291EC22F0150E02EC1DF0010EDB50CD
:102C3000A2EC21F0030EEF6E010EDB2AEED7010E9F
:102C4000E552E55250EF1DF0B2EC20F0FB0EDB50E8
:102C5000030811E0FB0EB5EC20F002E2E16AE55258
:102C6000E16E17500C01E46B71EC1DF002E2E16AB9
:102C7000E552E16E1450A8EC22F0020EEF6E43EC28
:102C80001EF0A1EC1FF07BEC20F043EC1EF0020ED6
:102C900089EC22F0F6EC1CF0FC0EDBCFEFFFF6EC3B
:102CA0001CF0FD0EDBCFEFFF43EC1EF0030E89ECB2
:102CB00022F043EC1EF0030E46EC23F07BEC20F0F8
:102CC00043EC1EF0050E89EC22F0E2EC22F0FD0E42
:102CD000DBCFEFFFDCEC1CF0FC0EDBCFEFFFBCEC3E
:102CE00021F026EC1FF09AEC1DF0E55250EF1DF09C
:102CF000B2EC20F035EC1EF006EC1DF002E2E16AC9
:102D0000E552E16E17500A0EDF5C0DE2D1EC1FF0C8
:102D100003E1FD0EDB50151806E03CEC1EF006EC5E
:102D20001DF0EFE2ECD70A0EDF5C16E135EC1EF089
:102D300006EC1DF002E2E16AE552E16E17500A0E60
:102D4000DF5C0AE2030E0C01E45D06E03CEC1EF0E1
:102D500006EC1DF0F2E2EFD74AEC1EF0DFCFEFFFFA
:102D6000DF6A030EDF5C05E2ACEC21F002E0DF2A53
:102D7000F8D751EC1EF0DFCFEFFF140E83EC22F0FA
:102D800056EC1DF0FEEC1DF002E1000E2DD0FC0E05
:102D9000DBCFE2FCFD0EDBCFE3FC0C01010EE46FA8
:102DA00071EC1DF002E2E16AE552E16E1450C9ECEB
:102DB00022F06CEC21F0EF688CEC1DF0C9EC22F0F5
:102DC0009DEC1DF04AEC1EF0EF50E66EC9EC22F0CF
:102DD000120EAFEC20F0C9EC22F05EEC23F0EE6AAC
:102DE000ED6A09017D83010EE55250EF1DF09EEC66
:102DF00023F0DE6ADD6AFD0EDB50050A1AE0010AE7
:102E000015E0070A11E0010A0DE0030A06E0010AD5
:102E100012E13D0EDE6E140E03D05D0EDE6E030E6B
:102E2000DD6E09D08D0E03D0150E01D0010EDE6EC1
:102E300001D0DE6ADD6ADECF14F0DDCF15F014C0FC
:102E4000F3FF15C0F4FFE552E55250EF1DF09EEC84
:102E500023F035EC1EF0010EDB6A06EC1DF002E2F9
:102E6000E16AE552E16E1750D1EC1FF007E1FD0E6B
:102E7000DB50151803E1010EDF6E07D0010EDB2ACF
:102E80000C01050EE727000EE8230A0E58EC21F08E
:102E900002E2DF50E2E0DF500BE051EC1EF0E5CC47
:102EA000EEFFE6CCEDFF4AEC1EF0E4CCEFFF04D0E1
:102EB0004AEC1EF0030EEF6EDF50E552E55250EF84
:102EC0001DF0B2EC20F0FB0EDBCFE6FFFC0EEDECCC
:102ED0001DF010E008EC21F004E05AEC1DF00009B0
:102EE00009E14AEC1EF0FB0EDBCFEEFFFC0EDBCF60
:102EF000EDFF26D0800EE66E3FEC22F0D5CAE6FF4D
:102F0000D6CAE6FFE66AE66A3AD8146E070EE15CB6
:102F100002E2E16AE552A8EC1EF023E0FA0EDB5073
:102F2000020816E0A6EC20F0C2EC1EF07BEC1FF0CD
:102F300002E2E16AE552A8EC1EF007E0DF5002E190
:102F4000000E1AD0FA0EDB6A0CD0FA0EDB0409E18F
:102F5000010EE66EFD0EDBCFE6FF78D8E552E552B6
:102F60000BD0C2EC1EF068EC1EF005E10A01D10E98
:102F7000826F020E01D0000EE55250EF1DF09EEC64
:102F800023F0E652020EDB6ADF6A030EDF5C24E206
:102F9000ACEC21F01AE0FD0EDB501CE0C9EC22F095
:102FA00092EC21F0FC0EDB50145C14E1C9EC22F031
:102FB000080E02EC1DF022EC20F0FA0EDB50151882
:102FC00009E1FB0EDB50161805E1010EF36E020E4F
:102FD000F3CFDBFFDF2AD9D7F70EDBAE03D0DE520B
:102FE0000A0E02D0DE52040EDD6E020EDB5027E028
:102FF000020EDB6A35EC1EF0010EDB50DF5C1FE2D7
:1030000006EC1DF002E2E16AE552E16E1750E2CCF7
:1030100014F0E3CC15F0F80EDB50141803E1F90EB0
:10302000DB50151804E0030E0C01E45D05E1010E10
:10303000F36E020EF3CFDBFF3CEC1EF0DDD7020E89
:10304000DB50E552E552E55250EF1DF019EC1DF052
:103050000B0EE12402E3E168E652E16E010EDB6A49
:10306000060E58EC21F008E2A1EC23F0D9EC1DF09B
:1030700003E0010EDB2AF4D7010EDB50060801E164
:1030800051D10B0E83EC22F0A1EC23F08FEC20F059
:10309000FEEC1DF001E146D1FD0EDB5001E18CD0CC
:1030A00070EC20F0B4EC23F035EC1FF070EC20F065
:1030B000050E35EC22F00A01A751166E176A7F0E35
:1030C000D8801656000E1756080E1626000E172228
:1030D0000A01A65100011624146E000E1720156E69
:1030E000DFEC22F014C0EFFFDFEC22F05DEC1EF00D
:1030F00001E10FD170EC20F065EC1FF0F3500809EE
:1031000086EC22F001E3DB2A4CEC1DF00A0183512E
:10311000E82486EC22F001E3DB2A96EC23F001E3BD
:10312000DB2A92CAEFFFFAEC1CF001E3DB2A93CA18
:10313000EFFFFAEC1CF001E3DB2AD5CAEFFFFAEC53
:103140001CF001E3DB2AD6CAEFFF040E8ACADBFFBC
:10315000FAEC1CF001E3DB2A040EDBCFEFFFFAEC04
:103160001CF001E3DB2A9CCAEFFF0A01A751E1EC46
:103170001EF004E67F0E145C000E15580BE2A72B20
:10318000A751F3EC1DF0FAEC1CF001E3DB2A4CEC48
:103190001DF0EBD7DF6A0A01A651A607000901E17D
:1031A00076D0DF50DF2AF3EC1DF0FAEC1CF001E3DF
:1031B000DB2A4CEC1DF0EFD7040E0A01845F000EF1
:1031C000855B70EC20F0B4EC23F027EC20F0840752
:1031D00000EC23F002EC1DF0EE524CEC1DF08407E5
:1031E000000E00EC23F0AFEC20F0020E845F000E26
:1031F000855B080E8227DFEC22F082CAEFFFDFEC4E
:1032000022F05DEC1EF001E184D070EC20F065EC62
:103210001FF0F3CF14F0F3CFE6FFD0D9E552E7CF9C
:1032200014F03F0B141086EC22F001E3DB2ACBEC08
:1032300020F001E3DB2ACBEC20F001E3DB2ACBEC2E
:1032400020F001E3DB2ACBEC20F001E3DB2ACBEC1E
:1032500020F001E3DB2A4CEC1DF0B0D9FF0FE76E44
:10326000040EE7CFDBFFC6DB01E3DB2A040EDBCF76
:10327000EFFFE7EC22F001E3DB2A4CEC1DF00A0142
:10328000825105E0E7EC22F0F8E3DB2AF6D78CEC7C
:103290001DF070EC20F061EC23F09DEC1DF0D95096
:1032A000060F87EC1DF0D950050F87EC1DF070EC70
:1032B00020F0050EC5EC20F084EC1FF002E2E16A7C
:1032C000E552A8EC1EF022E092EC1FF00A01A66B7A
:1032D0000E0E83EC22F0050E9AEC20F05FEC22F04B
:1032E00046EC22F0145015101FE10C01010EE46FA2
:1032F00071EC1DF002E2E16AE552E16E1450050E38
:103300009DEC20F0A8DB050EE6EC1EF070EC20F042
:10331000A2DBA1EC23F08FEC20F09DDBA1EC23F0ED
:10332000DDEC1DF0040E8ED0050E28EC23F094C9C0
:10333000EFFF050EF9EC20F035EC1FF0050E3CEC2C
:1033400022F0050EEBEC22F00409EF6E050E87EC7F
:1033500020F0EF964FDB01E3DB2A010EEF6E4ADB34
:1033600001E3DB2A800EEF6E09019451942B86EC69
:1033700022F001E3DB2A90DB70EC20F0C1EC23F0BB
:10338000EF5086EC22F001E3DB2A86DB70EC20F0C4
:10339000050E46EC23F02EDB01E3DB2A96EC23F04E
:1033A00001E3DB2AEF6AACEC1EF024DB01E3DB2A4D
:1033B00096EC23F001E3DB2A040EDBCFEFFF1ADBF0
:1033C00001E3DB2AD6CAEFFF15DB01E3DB2AD5CA0E
:1033D000EFFF10DB01E3DB2AEF680CDB01E3DB2A04
:1033E000FC0EEF6E07DB01E3DB2AEF6A03DB01E390
:1033F000DB2A090EEF6E93EC74F0070E06C0DBFFBC
:10340000080E07C0DBFF090E08C0DBFF0A0E09C06B
:10341000DBFF070EDBCF14F0080EDBCF15F0090E33
:10342000DBCF16F00A0EDBCF17F0040E145E5D0E34
:10343000155A000E165A175A050EF4EC20F093ECAC
:103440001EF0010E146E0B0EE15C02E2E16AE55221
:10345000E16E145025D3EDDAF90EDB503DE00CECB3
:1034600020F0FA0EDBCF16F0FB0EDBCF17F0165074
:10347000145C1750155832E2FA0EDBCF18F0FB0E31
:10348000DBCF19F0FC0EDBCF1CF0FD0EDBCF1DF007
:1034900018C0E6FF19C0E6FF1CC0E6FF1DC0E6FF2E
:1034A000F90EDB04E66EA3DCE552E552E7CF1DF032
:1034B000E552E7CF1CF0E552E7CF19F0E552E7CF30
:1034C00018F01C50F3241A6E1D50F4201B6E1A5075
:1034D000185C1B50195802E2010E01D0000EE0D218
:1034E000B2EC20F0DF6A180EDF5C1DE2DF504AEC20
:1034F00020F002E2E16AE552E16E17500A018A51BA
:103500000C01C9190EE10A018B510C01CA1909E11C
:10351000FD0E4CDA150E76DADF50A2EC21F0EF90BA
:1035200002D0DF2AE0D7E552BBD20901742B7451D7
:1035300001E1742B74511200B2EC20F00A01A99B36
:103540000C0135EC20F0DF6A3CDB180EDF5C09E291
:1035500076DA02E2E16AE552E16E1450F8EC21F00D
:10356000F4D70C01D46B180ED56FDD6BDE6BDF91D9
:103570003C0ED26FA50ED36F74DA02E2E16AE55217
:10358000E16E1450E5528CD2B2EC20F00C01030E27
:10359000E46FE269E3690C014A0EE76FDD0EE86F44
:1035A000DF6A0A0EDF5C08E29CDA02E2E16AE552B9
:1035B000E16E145061DBF5D7E55272D20A018251F7
:1035C00001E1000C820730EC1FF0842B000E8523F4
:1035D000EF501200DAEC22F0180EDF5C15E2F0D9A1
:1035E00002E2E16AE5526FEC21F0D0A30AD02EECA2
:1035F00021F0F0DB02E2E16AE552AADB02E1DF50F2
:1036000004D0F8EC21F0E8D7180EE55249D2DAECF4
:1036100022F0180EDF5C14E2D3D902E2E16AE5522F
:103620006FEC21F0D0A309D0D9EC1FF006E1FD0E1C
:10363000DB50151802E1DF5004D0F8EC21F0E9D797
:10364000180EE5522DD2DAEC22F0180EDF5C20E2E3
:10365000B7D902E2E16AE5526FEC21F0D0A315D0B0
:10366000D9EC1FF012E1FD0EDB5015180EE1CBCCAA
:1036700016F0CCCC17F0FA0EDB50161806E1FB0E54
:10368000DB50171802E1DF5004D0F8EC21F0DDD751
:10369000180EE55205D2CDD9080EE12402E3E16807
:1036A000E652E16E2DDA62EC1FF002E2E16AE552C9
:1036B000E16E17509AEC23F0A6EC20F08BDB02E2CF
:1036C000E16AE55245DB02E1010E01D0000E146E05
:1036D000080EE15C02E2E16AE552E16E1450E0D1CD
:1036E000B2EC20F0DF6A6DDA180EDF5C19E268D9FF
:1036F00002E2E16AE55228DB10E0DCD901080DE0C6
:10370000D9D900090AE035EC20F00C01D40797D98B
:1037100002E2E16AE552E16E1450F8EC21F0E4D7E0
:10372000A0D902E2E16AE552E16E1450E552B8D147
:1037300080D90A01A9810A01020E886FD3CA86FACC
:10374000D4CA87FAD5CA8AFAD6CA8BFA896FF0DB4F
:10375000FC0EDBCF92FAFD0EDBCF93FAA2DAD0CAD1
:10376000EFFFD0CA9CFA856BD950FC0FE96EFF0EB3
:10377000DA20EA6EFF0EEE1802E1FF0EED180CE003
:103780008581FC0EDBCFE6FFFD0E27DA05E00C019C
:10379000D0B102D00A0185850A01010E846F80D163
:1037A00008EC21F00BE10C01DD070C01FAEC1FF035
:1037B000010802E10C01DE07B0DB06D07BD900096D
:1037C00003E10C01180ED56F0C0135EC20F037D950
:1037D00002E2E16AE552E16E14500C01D40741D9CE
:1037E00002E2E16AE552E16E145012009EEC23F011
:1037F000DF6AE7D9010EDB6A180E58EC21F02FE2E0
:10380000DFD802E2E16AE5529FDA25E053D90108E8
:1038100022E10CEC20F0C951141802E1CA5115182C
:1038200012E00C01D629E66E4BEC21F030EC20F0D2
:1038300012DE166E050EE15C02E2E16AE552E16E0F
:103840001650000908E02DDAC9CCEEFFCACCEDFF16
:10385000010EDF6E04D0BBD9010EDB2ACDD7DF50BD
:1038600014E1D6CCE6FF4BEC21F0BEDB146E050E66
:10387000E15C02E2E16AE5526BDA07E112DACECAF4
:10388000EEFFCFCAEDFF010EDF6EDF50E552E552CD
:1038900007D1CFD8FD0EDB5026E00A01BE6B210E0A
:1038A000BF6F0C01D651080DF3CFC0FA140EDD5DC9
:1038B0001AE2180ED45D17E209017E51080B06E1E9
:1038C000050E0C01D65D02E20A01C08F050E0C0147
:1038D000D65D09E2060EDE5D06E209017E51100B9F
:1038E00002E10A01C085DCD0B2EC20F0D6CF74F939
:1038F0000A01A96B09017E51200B01E0010EDF6E68
:103900007D6B7E6B7F6B806BDF507E9BE8B07E8B28
:10391000DF6A2E0EDF5C05E2D7EC20F0EF6ADF2ACB
:10392000F8D7FD0EDB5005E10901BB51BC1101E0E8
:10393000DCDA0901BB6BBC6BDF6A070EDF5C10E2EF
:10394000FD0EDB5008E15AEC22F005E091EC22F08C
:1039500082D89ED880D89CD8EE6AED6ADF2AEDD74F
:10396000DF6A060EDF5C0EE2FD0EDB5006E14DEC79
:1039700022F003E0FBEC22F06ED8EA6ADF341DD9B6
:10398000DF2AEFD7DF6A030EDF5C0DE2FD0EDB50AE
:1039900005E1ACEC21F002E089D85DD887D8EE6A69
:1039A000ED6ADF2AF0D7F0DDE5527AD09CDB7EEFBE
:1039B00020F0C3DB7EEF20F0A751A707FEEF20F039
:1039C000110EE66EE66AE0CC14F0E1CC15F0166A52
:1039D000E0CCE6FFE1CCE6FF16C0E6FFC10EE66EE6
:1039E0000C0EA3EF20F09BDB7EEF20F0A651A62B60
:1039F000FEEF20F0020EDBCFE9FFDB2A030EDBCF68
:103A0000EAFF1200E926000EEA221200050EE66E19
:103A1000E66AE7CC14F0E8CC15F0166AE7CCE6FFCE
:103A2000E8CCE6FF16C0E6FFE20EE66E0C0EA3EF52
:103A300020F08CDBE1CFD9FFE2CFDAFF1200110ECC
:103A4000E66EC10EE66E0C0EE66EE0CCE6FFE1CC53
:103A5000E6FF52EF21F0EECFE6FFEFCFE6FF7BEF80
:103A600022F00E0EE66ED20EE66E0C0EE66EA40E80
:103A7000E66EDB0EE66E52EF21F0DF50040DF3CF61
:103A8000E9FFF4CFEAFFA10EE926090EEA221200AF
:103A9000EA6ADF3407EF23F0E552E750EF6E1200D9
:103AA000E552E5CFDAFFE7CFD9FF1200EA6ADF344B
:103AB0000FEF23F0CF51C00BE842E8425CEF21F05A
:103AC00084EC21F048DB00011850EE5C146E1950B4
:103AD000EE58156E1A50EE58166E1B50EE58176EB3
:103AE000120021EC22F0E7CCE6FFE8CCE6FFDAD3C7
:103AF000FE0BEA36E96E180EE926090EEA221200DC
:103B00009AEC23F0CA0E146EDA0E1CEF21F0E66E6A
:103B1000000EDA20E66E120093EC74F006C014F08A
:103B20001AEF22F0270EDBCFE9FFDB2A280EDBCFCE
:103B3000EAFF1200FDDD76EF22F006C0EEFFEDEFAA
:103B400021F0160EDBCFE6FF170EDBCFE6FF1200EB
:103B50000CEC72F0E55261EF21F0146E000EDA20E9
:103B6000156E46EF22F04B0EDBCFE9FF4C0EDBCF9C
:103B7000EAFF1200DBCFF4FFF350F45C1200DDDA51
:103B8000EE50ED10120086CAE9FF87CAEAFF120064
:103B90001450EE24E76E1550EE20EA6EE7CFE9FFF1
:103BA00012004EEC23F0EF501200E7CFDBFFF4EFF2
:103BB00021F0B5DAEE50ED101200B1DAEE6AED6ADE
:103BC00012000C01B20EE06FDB0EE16F12000C016F
:103BD000110EE027000EE1231200DBCFE6FF64ECBC
:103BE00022F0180812000ADBEF50E66E1200040EF5
:103BF000DBCFE6FF050EDBCFE6FF12005FEC22F025
:103C00001450151012006FDAEE6AED6A1200E9CF57
:103C100014F0EACF15F00C0EDB50A2EF21F0E66EA7
:103C2000D9DCE552E55212000A01826B17DB920ED5
:103C3000E66E0A0E47EF21F09CCA75F99DCA76F927
:103C40009ECA77F99FCA78F9A0CA79F9A1CA7AF908
:103C5000A2CA7BF9A3CA7CF9E4EF57F0020EEECFBB
:103C6000DBFF030EEDCFDBFF1200DF6A0C014A0E13
:103C7000E76FDD0EE86F1200DF2A0C01050EE72763
:103C8000000EE8231200F90EDBCFE9FFFA0EDBCFBE
:103C9000EAFF1200F80EDBCFE9FFF90EDBCFEAFFF7
:103CA0001200FA0EDBCFE9FFFB0EDBCFEAFF1200BA
:103CB000EECF14F0EFCF15F01200EF50E66E0CECE3
:103CC00072F0E552020EF3CFDBFF030E77EF23F025
:103CD0008DDD76EC22F0000912000A01EA6A8425E3
:103CE000E96E8551EA22EF5012009CCAC9F99DCABB
:103CF000CAF99ECACBF99FCACCF9A0CACDF9A1CA0C
:103D0000CEF9A2CACFF9A3CAD0F91200F50EE66E19
:103D10000A0EA3EF20F07ADB0A01D5511418120025
:103D20004DDCE66E120014C0EEFF57D3160EDBCF4B
:103D3000EEFF170EDBCFEDFF1200140EDBCFE6FF18
:103D4000150EDBCFE6FF1200CADAD051020B1200CB
:103D5000E16E14500009120095EC1AF0E66E1200A4
:103D60000B0EC1D9EE50ED101200060E086E096A56
:103D7000D7CC0DF0D8CC0EF022EC6FF00A01D55163
:103D800006241200F80EDBCFE6FFF90EDBCFE6FFCC
:103D90003FEF22F0A6DB1F0EDB501418120094DB5D
:103DA000DF6E180EDF5C12000F0BF36EF346F34666
:103DB000F346F3460F0E1200070ED880DF54EA6A6E
:103DC0001200146E156AD89015501200B6D9EE6A1A
:103DD000ED6A120060DA62EC73F053EF23F0080E24
:103DE000146E1A0EDBCFE7FF1450E7261A0EE7CF4A
:103DF000DBFF1200DF500A0D64DA7E0E1426DD0EA2
:103E00001522120093EC74F006C0C4F907C0C5F97E
:103E100008C0C6F909C0C7F91200EF50050D51DA04
:103E20004A0E1426DD0E15221200E66EC10EE66E55
:103E30000C0E47EF21F0090EEF6EA6EF20F0020EF8
:103E400084CADBFF030E85CADBFF12008ACAE6FFC5
:103E50008BCAE6FF1200DF50DF2A146E156A1200CB
:103E600084CAE9FF85CAEAFF1200D5CAEEFFD6CAA6
:103E7000EDFF1200DBCFE6FF010EE66EBFEC17F0A0
:103E8000146E070EE15C120014C0E6FF15C0E6FFD9
:103E900084EC6BF0166E050EE15C1200EA0EE66E25
:103EA000090EE66E4BEC1BF0E552E55200091200DC
:103EB000140EDBCF14F0150EDBCF15F00A01D5512F
:103EC0001418120043D932EF23F0020EDBCFEEFFBD
:103ED000030EDBCFEDFFFC0EDB50400D1200D9507E
:103EE000020FDCDBEE50ED101200BBC9E6FFBCC9CF
:103EF000E6FF7BEF22F027EC17F0D5D324EC16F089
:103F0000146E050EE15C120078EC16F0CCD3CAEC0E
:103F100015F0E552E55200091200010EE66EB9DC1B
:103F2000E55212000A01A9910A017F0EA76F120043
:103F3000D3CA9AFAD4CA9BFA1200EF14F310EF6EA8
:103F40001200EE52EF50E66E1200170EDBCFEFFFBD
:103F50001200160EDBCFEFFF1200EF6AA729FEEF6B
:103F600020F0EECF16F0EFCF17F000011650141826
:103F70001200DF50146E156A060E145C000E155800
:103F80001200166A14C0E6FF15C0E6FF16C0E6FF71
:103F90001200DF50146E156A080E145C000E1558DE
:103FA0001200E2CC14F0E3CC15F0FC0EDB50141838
:103FB0001200C9CC14F0CACC15F0FC0EDB5014185A
:103FC0001200130EDBCFEFFF1200190EDBCFEFFF55
:103FD0001200040EDB68050EDB680A0EDB8412009B
:103FE000D950140F4EEF23F0D5CAE6FFD6CAE6FF2C
:103FF0002BEF1AF0CF51300B5CEF21F0140EDBCF1A
:10400000EEFF150EDBCFEDFF1200160EDBCF8AFAA6
:10401000170EDBCF8BFA1200FC0EDBCF14F0FD0E77
:10402000DBCF15F012000A01D5510001141812005F
:104030000A01D651000115181200C10FE96E0C0ECD
:10404000EA221200EECF15F0EFCF16F012008ACA66
:10405000EEFF8BCAEDFF1200E66A46DCE552120065
:10406000C9CCE6FFCACCE6FF1200CD6BCE6BCF6B9E
:10407000D06B12000A01A951010B1200180EDB04CB
:10408000E66E1200150EDBCFEFFF1200140EDBCF31
:10409000EFFF1200110DF3CFE0FCF4CFE1FCB20E04
:1040A0000C01E027DB0EE123E0EF1CF055DE0A01F6
:1040B00034DA82DC010EEF6E5BDADCEF1CF00A0111
:1040C0002CDA7ADC0A0EEF6EB8EF22F075DC4ADAF1
:1040D00009DB72DC76DF70DC120EDBCFEFFF120043
:1040E00030DBF3EF1CF0EA6ADB3491D28BDCEF506B
:1040F000E66E8DEF22F07ADC4CEF1DF0EE50EFCF44
:10410000EAFFE96E1200EF5028DBDF2A120051DCD3
:10411000130E02EF1DF0EA6ADF34F3EF1CF0FE0B22
:10412000EA36E96E950EE926090EEA2212000B0E18
:10413000D6EF1CF03EDC5EEF23F0EA6ADB346FD290
:10414000F0DAA8EF22F0E66E32EF23F0D9CFE6FFE7
:10415000DACFE6FF1200D950060F4EEF23F052DC03
:104160004CEF1DF066DCE652120023DC120E4ADC36
:10417000EF50050DF3CFE7FCF4CFE8FC4A0E0C013D
:10418000E727DD0EE82306EF1DF03CDCEECFE6FF6F
:10419000EFCFE6FF120080DCE7EF22F0250E5DDABC
:1041A00056DF250E4BDA210EDBCFEFFF1200B0DA1F
:1041B000EE52120027DC58EF1EF0DCEC1CF08ACA2D
:1041C000EFFFD6D9DCEF1CF061DA8DEF22F0CACC1C
:1041D000EFFFDCEC1CF0C9CCEFFFDCEF1CF0D6EC01
:1041E0001CF0D6DC4CEF1DF0D9EC1CF0040E02EFF5
:1041F0001DF0D9EC1CF0080E02EF1DF0EA6A000F6A
:10420000E96E0A0EEA221200D950040F87EF1DF062
:104210000C0150DC01081200140E02EF1DF0210EFB
:10422000DBCFE7FF220EDB50E75E210EE7CFDBFF9F
:10423000D9501C0F87EF1DF0156E166A14C0E6FFEB
:10424000E66E16C0E6FF120080DAEE68ED68120036
:10425000D6EC1CF086DA82CAEFFF12006BDAC10ED0
:10426000E66E0C0EE66E1200EA6ADB3478EF1DF0A3
:10427000D6EC1CF079DAA9DE82CAE6FFA8EF1DF0C1
:1042800046DCB5DC9AEF1DF047DAEDEF1DF0E66E87
:10429000AAEC73F008D2FC0EDBCFE6FFFD0EDBCFFD
:1042A000E6FF120084EC6BF0146E050EE15C120068
:1042B000F36E010EBAEF1DF0E842E842E842E84230
:1042C0001200F3CF14F0F4CF15F01200D6EC1CF06E
:1042D00058DA2CDD3EEF20F0100E02EF1DF0E16EFB
:1042E00017500C011200D6EC1CF00A0E02EC1DF067
:1042F000120EDBCFEFFF1200370ED9EC1CF0120EBE
:1043000002EC1DF00DEF1FF0EECF18F0EECF19F01C
:10431000EECF1AF0EFCF1BF01200150E02EC1DF0DD
:1043200007EF1EF00E0E02EC1DF0EFCF14F012009E
:104330000A01DCEC1CF0E5EF1FF08A0EE66E0A0EB7
:104340000FEF1EF0E924E96E000EEA20EA6E12007B
:10435000D9500A0FD1EF1DF056EC1DF0EE50ED10C4
:104360001200DBCFE6FFA1EF1DF0E7DDC3EF1DF08C
:10437000ECD9FF0EEE181200DCEC1CF0EF6ADCEC5E
:104380001CF01BEF1FF0D6EC1CF0090E02EC1DF028
:10439000E1EF1FF0D6EC1CF094D9FEEF1FF0146E85
:1043A000B3EC1DF0EE52EE52EE5214501200146EA9
:1043B000B3EC1DF0040E02EC1DF014501200E16E7F
:1043C00017500C01CF8DCF8F1FEF1DF0E16E1450F1
:1043D0000C01180ED56F31EF1DF015C0EEFF16C0A1
:1043E000EEFF17C0EEFF1200DEEC1AF0E76E1200CF
:1043F000DF2AE7EF1DF065D9EFCF9CFA0A01120022
:104400002BEC1DF0EA6ADF34DDEF1DF0160EDBCF7A
:1044100014F0170EDBCF15F01200D950120FD1ECAB
:104420001DF0030B01081200D9501C0FADEC1DF05C
:10443000FAEF1CF007C015F008C016F009C017F01D
:104440001200050EE66EE20EE66E0C0EE66E12002F
:10445000CE15F310CE6F010E6DEF1EF0920EE66ECC
:104460000A0E0FEC1EF0DF6E120002EC1DF092CA75
:10447000EEFF93CAEDFF1200E1D8EF6A1200FB0EC7
:10448000DBCFE6FFFC0EDBCFE6FF1200020E14C00E
:10449000DBFF030E15C0DBFF1200EA6ADF34D9EF41
:1044A0001DF080EC1DF086EF1EF0EA224CEC1DF0B2
:1044B000DF2A120048EC1DF0EE50ED101200F3CF91
:1044C000EEFF15C0EDFF120007EC1BF0E552E552C0
:1044D000120087EC1DF087EF1FF0D6EC1CF0FEEF0A
:1044E0001DF0D5CA14F0D6CA15F01200E552E552F7
:1044F000E552E55212007EEC72F0E552E5521200F0
:10450000EF6EF6EF1CF0E66EA8EF1DF0E66EFAEF28
:104510001CF002EC1DF0BDEF23F0DCEC1CF04CEFC6
:104520001DF048EC1DF07EEF20F0EF50E66E0A0122
:104530007BEF20F0DBCFE6FF220EDB50E552E75C9D
:10454000E66E250ED9EC1CF0110E09DECAEF1EF046
:104550000A01F6EF1CF030DCF50FE96E0A0EEA22D4
:1045600083EF20F0F2DCDCEC1CF0F3DCDCEF1CF081
:10457000DCEC1CF0D6CAEFFFDCEC1CF0D5CAEFFF78
:104580001200FBD8FAEF1CF0C6DD030E13DE13EFAA
:1045900020F056EC1DF07EEF20F0A8DDDCEC1CF0E6
:1045A000EF6ACEDD030EACDFEF6A1200C0DD34DE51
:1045B000EF501200D7DDE1EC1DF0DF6A120090DD54
:1045C000B1EF23F0ACEC1EF07ADDDCEF1CF090ECE8
:1045D0001EF0FAEF1CF09BDDF80EEF1412003DEC1C
:1045E0001DF0020E1200510ED6EF1CF08CEC1DF0E7
:1045F000BED89DEF1DF0BED8EA6ADF348FEF20F001
:10460000855B2EDCEF50E66E6BDD050E1200FE0BB7
:10461000EA36E96E810EE926090EEA221200FE0B47
:10462000EA36E96EE40EE926090EEA2212007FDD81
:104630000B0E02EF1DF07BDDB4EF23F0D9EC1CF084
:104640000F0E02EF1DF0D9EC1CF0110E02EF1DF061
:10465000D9EC1CF00E0E02EF1DF0D9EC1CF00A0E86
:1046600002EF1DF0D5EC73F0176E070EE15C12003F
:104670003ADD2BEF1DF03ADD97EF20F05BDDEE50D9
:10468000ED1012000E0E43DDEF50120002EC1DF093
:10469000A1EF1FF00C01D5514AEF20F0E96E000E9A
:1046A000DA20EA6E1200146E060EE15C1200F3ECE2
:1046B0001DF02BEC1FF0510EEFEF20F00C0E02EF6F
:1046C0001DF0070E02EF1DF026DD18DDFBEF21F0D7
:1046D000DCEC1EF0B2DC83EF20F096DD9DEC1EF0EA
:1046E00068EF1EF0CFDCDCEC1CF046EF20F0F4CFDE
:1046F000DBFFE7DDF350F4101200D4EC1EF035DEE2
:104700000CEF21F014DD8DEF21F0D0DCE7EF20F08D
:10471000EA6ADF3478EF1DF01F0EDBCFE6FF200ED4
:104720001200DCEC1CF0090EEF6E12004CEC1DF0D8
:10473000FAEF1CF0080EE66EE66A120013DDE65290
:104740001200010EEA6ADB34120049DF02EF1DF0AD
:10475000EFDD94DCE2DE66EF20F0E66E0A018DEF1D
:1047600022F0020E02EF1DF0030E02EF1DF0DFDC5F
:104770006CEF21F0D0DC2BEF1DF0EF50E66E7BEFFD
:0847800020F0050E02EF1DF010
:08478800040E0C017F1501E194
:10479000000C010C0C017F6B806B786B796B7A6B72
:1047A0007B6B7C6B7D6B120074EC34F03F0EE1246C
:1047B00002E3E168E652E16EDF6AFD0EDB5002E0E3
:1047C00067EF28F093EC74F0020E06C0DBFF030ED7
:1047D00007C0DBFF040E08C0DBFF050E09C0DBFFCE
:1047E0000A01A9B141D20C017FA1E9D27A517B1112
:1047F00001E152D12EEC38F0200B0EE18DEC37F0B8
:10480000C7EC34F009E347EC34F0F80EEF1401097B
:10481000EF6E47EC34F0EF8A2EEC38F0200B2FE0EF
:104820002EEC38F0070B01082AE18DEC37F0200E52
:10483000EB50000905E1850EE66EDEEC36F007D0A0
:1048400085EC37F006E0850EE66E76EC37F047EC47
:1048500036F060EC35F063EC35F002E00DEC39F049
:1048600067EC35F063EC35F002E014EC39F08AECDB
:1048700038F07F9147EC34F0EF9A64EF28F0F9ECD0
:1048800038F0010B01E108D1F9EC38F0040B01E03C
:1048900003D1FCEC38F0080B01E0FED0F9EC38F065
:1048A000200B01E0F9D0FCEC38F0100B01E0F4D063
:1048B000AFEC37F0EF86B2EC37F0EF841EEC36F059
:1048C000EB50146E190EEB50145C01E3D1D067EC81
:1048D00035F09DEC34F01EEC36F08DEC35F0060E24
:1048E000EECFDBFF070EEDCFDBFF92EC37F032ECC3
:1048F00037F001E3B4D0FBEC35F09DEC34F092ECF2
:1049000037F01A0E8DEC35F0080EEECFDBFF090EF6
:10491000EDCFDBFFF9EC38F0800B01E0BDD0060EE7
:10492000DBCF14F0070EDBCF15F0080EDB501418A8
:1049300001E08FD0090EDB50151801E08AD0B8ECE9
:1049400038F014E1080EDBCF14F0090EDBCF15F0C0
:104950000C01B55114180AE1B651151807E192EC93
:1049600037F01A0E96EC35F01D0E2BD02EEC38F0E9
:10497000100B2AE0060EDBCF08F0070EDBCF09F0A4
:104980000A0E08C0DBFF0B0E09C0DBFFB8EC38F0E5
:1049900006E0D0EC38F021EC36F008E205D0D0EC9F
:1049A00038F0B1EC35F002E2E16AE552E16E145004
:1049B000AFEC37F0EF8C8DEC37F01D0E99EC35F045
:1049C0001A0E1BEC39F045D0EDEC35F018EC38F050
:1049D00005E28DEC37F003EC39F0F8D7ABEC34F0AE
:1049E00033EC39F0060EDBCFEFFF070EB5EC37F0F6
:1049F00018EC38F003E261EC39F0FAD7B0EC34F09F
:104A000044EC34F0EFEC36F08DEC37F0160E7ECC43
:104A1000EBFF8DEC37F01D0E96EC35F0060E6AECD0
:104A200035F0B8EC38F006E0210E96EC38F0145C66
:104A30000AE306D0220E96EC38F0FF0F145C03E375
:104A400047EC34F0EF8692EC37F01A0E96EC35F026
:104A500008D192EC37F01A0E1BEC39F046D792ECE5
:104A600037F027EC36F01EEC36F01BEC39F026D789
:104A7000AFEC37F0EF8AB2EC37F0EF88AFEC37F0FD
:104A8000EF96B2EC37F0EF941EEC36F097EC37F07F
:104A9000EF6AAFEC37F0EF9085EC37F001E107D12A
:104AA000FCEC38F0010B01E102D1F9EC38F0080B15
:104AB00001E0FDD0FCEC38F0040B01E0F8D0F9EC9B
:104AC00038F0100B01E0F3D0FCEC38F0200B01E0E3
:104AD000EED0AFEC37F0EF84B2EC37F0EF862BEC92
:104AE00036F0EB50146E190EEB50145C01E3CED08F
:104AF000B7EC35F09DEC34F02BEC36F08DEC35F066
:104B00000E0EEECFDBFF0F0EEDCFDBFF8DEC37F09F
:104B100032EC37F001E3B1D060EC35F09DEC34F0CD
:104B20008DEC37F01A0E8DEC35F00C0EEECFDBFF6E
:104B30000D0EEDCFDBFFFCEC38F0800B01E094D0E4
:104B400039EC37F00E0EDB50141801E090D00F0E48
:104B5000DB50151801E08BD0BCEC38F010E139ECDB
:104B600037F00C01B35114180AE1B451151807E1DC
:104B70008DEC37F01A0E99EC35F01D0E2BD086EC2B
:104B800038F0100B2AE00E0EDBCF08F00F0EDBCF53
:104B900009F0100E08C0DBFF110E09C0DBFFBCECF2
:104BA00038F006E0D9EC38F021EC36F008E205D018
:104BB000D9EC38F0B1EC35F002E2E16AE552E16E91
:104BC0001450B2EC37F0EF8C92EC37F01D0E96ECEF
:104BD00035F01A0E1BEC39F04AD0EDEC35F018EC3C
:104BE00038F005E292EC37F003EC39F0F8D7B0EC8E
:104BF00034F033EC39F00E0EDBCFEFFF0F0EB5ECD7
:104C000037F018EC38F003E208EC39F0FAD7ABECE7
:104C100034F044EC34F0EFEC36F092EC37F0160E52
:104C20007ECCEBFF92EC37F01D0E99EC35F0060EC2
:104C30006AEC35F0BCEC38F006E0210E99EC38F067
:104C4000145C0AE306D0220E99EC38F0FF0F145CD6
:104C500003E34AEC34F0EF868DEC37F01A0E99EC52
:104C600035F036EC39F088D1000E8CEF2DF08DEC5C
:104C700037F01A0E1BEC39F049D78DEC37F027ECE2
:104C800036F02BEC36F01BEC39F029D7AFEC37F0CF
:104C9000EF88B2EC37F0EF8AAFEC37F0EF94B2EC7C
:104CA00037F0EF962BEC36F097EC37F0EF6AF9EC33
:104CB00038F0100B01E183D0F9EC38F0200B01E162
:104CC0007ED0FCEC38F0100B01E179D0FCEC38F030
:104CD000200B75E0FCEC38F0400B71E0F9EC38F09B
:104CE000400B6DE02EEC38F0200B11E0F9EC38F0C1
:104CF000400B0DE04EEC36F0E66EDEEC36F047ECA5
:104D000036F047EC34F0EF9A8DEC37F014D086ECA7
:104D100038F0200B15E0FCEC38F0400B11E052ECC1
:104D200036F0E66E76EC37F047EC36F04AEC34F0CD
:104D3000EF9A92EC37F0200ED1EC35F0EF6EC4D143
:104D4000B2EC37F0EF9CAFEC37F0EF9C60EC35F055
:104D500063EC35F002E00DEC39F067EC35F063EC14
:104D600035F002E014EC39F08AEC38F0FBEC35F069
:104D700063EC35F009E0FBEC35F000EC38F0FBECCF
:104D800035F0EB6A130EEB6AB7EC35F063EC35F0F7
:104D900009E0B7EC35F000EC38F0B7EC35F0EB6A31
:104DA000150EEB6A76EC37F0BFEC34F00C017C6B3F
:104DB0007D6B7851791102E090EC38F07F910C0115
:104DC0007FA5DDD07A517B115DE02EEC38F0400BF1
:104DD00059E02EEC38F0100B21E0140EB5CCDBFFBF
:104DE000150EB6CCDBFF8EEC39F0140EDBCFE6FFF0
:104DF000150EDBCFE6FF93EC39F0B1EC35F002E2B3
:104E0000E16AE55272EC36F003E0AFEC37F0EF8286
:104E1000AFEC37F0EF808DEC37F06CD0EDEC35F087
:104E200018EC38F003E208EC39F0FAD7ABEC34F0C8
:104E3000A9EC37F0120EB5CCDBFF130EB6CCDBFFBE
:104E400044EC34F0120EDBCFEFFF44EC34F0130EE1
:104E5000DBCFEFFF44EC34F0E3EC36F018EC38F045
:104E600003E261EC39F0FAD7B0EC34F0A9EC37F09A
:104E70008DEC37F01BEC38F047EC34F0EF9C8DEC08
:104E800037F076D07C517D1101E178D086EC38F096
:104E9000400B74E086EC38F0100B31E0160EB3CC0A
:104EA000DBFF170EB4CCDBFF8DEC37F0EB50E66E7A
:104EB00092EC37F015EC38F0160EDBCFE6FF170E4C
:104EC000DBCFE6FF92EC37F0EB50E66E8DEC37F07F
:104ED00015EC38F0B1EC35F002E2E16AE55272EC23
:104EE00036F003E0B2EC37F0EF82B2EC37F0EF804F
:104EF00092EC37F098EC39F0EF9C8CEF2DF0EDEC64
:104F000035F018EC38F005E292EC37F003EC39F0AC
:104F1000F8D7B0EC34F0A9EC37F0B7EC35F097ECFB
:104F200037F0180EEECFDBFF190EEDCFDBFF1A0EB8
:104F3000B3CCDBFF1B0EB4CCDBFF44EC34F01A0E19
:104F4000DBCFEFFF1B0EB5EC37F018EC38F003E2C7
:104F500008EC39F0FAD7ABEC34F0A9EC37F092EC6E
:104F600037F01BEC38F04AEC34F0EF9C92EC37F061
:104F7000210EE926000EEA22EF8E26D07F957FA330
:104F80008BEF2DF06FEC34F0100E97EC37F0C7EC90
:104F900034F002E3850E61D041EC39F0010B09E1F8
:104FA000010EE66EDCEC33F0E552ACEC37F0EF804E
:104FB0000BD041EC39F0020B0AE1E66ADCEC33F08D
:104FC000E552ACEC37F0EF824F0E8CEF2DF06FEC2A
:104FD00034F0140E97EC37F0FF0EEE1802E1FF0EDE
:104FE000ED1802E18BEF2DF06FEC34F0160E97EC1C
:104FF00037F0FF0EEE1802E1FF0EED1802E18BEF25
:105000002DF041EC39F0080B06E00A0180518111C6
:1050100002E08BEF2DF01C0EDB6A41EC39F0040B43
:105020000CE0C5EC37F021EC36F002E2E16AE55223
:1050300072EC36F016E0870E10D0C5EC37F0B1EC0C
:1050400035F002E2E16AE552E16E1450E76E1D0EA2
:10505000E7CFDBFFDB5005E0880EF36E1C0EF3CFCD
:10506000DBFF41EC39F0080B13E041EC39F0040BA5
:1050700001E0010EE66E1C0EDBCFE6FF19EC34F00A
:10508000E552E552000902E0510E1AD0DF6A19D04C
:105090007AEC38F01C0EDBCFEFFF6FEC34F01E0E15
:1050A000EB500C017E6F180E6AEC35F041EC39F0D4
:1050B000040B02E0210E01D0220E7EEC38F04F0EE0
:1050C000DF6E90EC38F07F93DF508CEF2DF0FD0E0B
:1050D000DB505C0A02E17CEF2DF0070A02E16DEF84
:1050E0002DF0060A02E19CEF2CF0070A02E08BEF9C
:1050F0002DF00A019D51800B01E1FDD09C5102E190
:10510000800E9D1913E00C017F51010B01E0C8D006
:10511000210E0A019C1901E0C3D0800E9D1901E007
:10512000BFD00901FF5101E1BBD0C8D01E0EDB6A20
:105130000A0E97EC34F0270EEFCFDBFF0B0E97EC47
:1051400034F0280EEFCFDBFF020E97EC34F01F0E89
:10515000EFCFDBFF030E97EC34F0200EEFCFDBFF39
:10516000040E97EC34F0210EEFCFDBFF050E97EC29
:1051700034F0220EEFCFDBFF060E97EC34F0230E57
:10518000EFCFDBFF070E97EC34F0240EEFCFDBFF01
:10519000080E97EC34F0250EEFCFDBFF090E97ECED
:1051A00034F0260EEFCFDBFFD9501F0F76EC36F030
:1051B00026E1010EDB6A18EC38F025E207EC35F049
:1051C00002E2E16AE552E16E17502AEC37F0D9505D
:1051D0001F0F0EEC36F002E2E16AE55272EC36F097
:1051E0000BE10A0EE66ED9501F0F35EC35F002E2E6
:1051F000E16AE552E16E1650010EDB2ADCD7D95088
:105200001F0F94EC36F00C017F51020B45E0010EAC
:105210000A0197EC34F0EF503FE12AEC37F06FECE5
:1052200034F080EC37F07BEC37F0020ED4EC35F044
:1052300002E2E16AE552E16E185000090DE10A0E42
:105240000A0109EC38F0140E66EC34F00B0E09EC90
:1052500038F0140E52EC38F02AEC37F06FEC34F0E2
:1052600097EC37F05EEC38F0020E0A01D4EC35F022
:1052700002E2E16AE552E16E185000090DE10A0E02
:105280000A0109EC38F0160E66EC34F00B0E09EC4E
:1052900038F0160E52EC38F01E0EDB5029E049D3E0
:1052A0000C017F51010B0CE1220E0A019C1908E14F
:1052B000800E9D1905E10901FF5102E0FF6B18D036
:1052C000220E0A019C1902E1800E9D1914E0210EA4
:1052D0009C1902E1800E9D190EE0220E9C1901E13D
:1052E0009D5109E0210E9C1903E1800E9D1903E0F8
:1052F000510E8CEF2DF0E9EC43F00C017E6F300E77
:105300000A019C1901E19D5101E108D3310E9C195C
:1053100001E19D5101E102D3320E9C1901E19D5141
:1053200001E1FCD2330E9C1901E19D5101E1F6D25D
:10533000350E9C1901E19D5101E1F0D2340E9C190A
:1053400001E19D5101E1EAD2220E9C1901E19D513A
:1053500001E1B2D2220E9C1902E1800E9D1901E1F9
:105360003FD2210E9C1902E1800E9D1901E117D256
:10537000210E9C1901E19D5101E1E0D1200E9C1903
:1053800001E19D5101E1D3D1130E9C1901E19D5121
:1053900001E17CD1100E9C1901E19D5101E164D124
:1053A000110E9C1901E19D5101E15ED1140E9C1971
:1053B00001E19D5101E158D1060E9C1901E19D5179
:1053C00001E148D1050E9C1901E19D5101E13BD15C
:1053D000040E9C1901E19D5101E180D0030E9C193E
:1053E00001E19D5163E0020E9C1901E19D5146E0EF
:1053F000010E9C1901E19D5138E09C5101E099D2C8
:105400009D5101E096D2010EDB6A18EC38F024E2DF
:10541000010EE66EE66ADB50156ACA0F146EDA0EEC
:1054200003EC38F0D950290F44EC38F0E2EC37F0B7
:1054300002E2E16AE552E16E17505AEC38F02A0EAA
:10544000E7CFDBFFDB50F36E290EDB50F35C01E0AE
:1054500070D2010EDB2AD9D7E66A800EE66E66DBD3
:10546000E552E5520A018C850ED1EBEC36F001E1F4
:1054700060D2010E26EC37F059DBE2D0EBEC36F0CF
:1054800001E157D226EC39F00A0EE66EE66ABC0E50
:10549000146EE90E80EC34F002E2E16AE552E16E4E
:1054A00019500A0E0A01A627020EC6D0EBEC36F000
:1054B00001E13FD226EC39F0020EE66EE66AC60E36
:1054C000146EE90E80EC34F002E2E16AE552E16E1E
:1054D0001950020E0A01A627030EAED0EBEC36F0EF
:1054E00001E127D25AEC38F02B0EE7CFDBFF0A019F
:1054F000010EA66F2B0EDB50000801E393D02B0E9C
:10550000DB50146E156A153404E21450F008000ED6
:10551000155401E287D0010EDB6A300EE66EE66AB2
:10552000010EFFEC34F0830EE66E0C0EE66EE2EC3C
:1055300037F002E2E16AE552E16E1750010EDB2A14
:105540002B0EDB500C01835D04E0010EDB500308E1
:10555000E4E2010EDB50030804E144EC39F0830E71
:1055600064D044EC39F0EF6A9BEC37F00C019E51AB
:10557000E824146E8951E824080F1424E66E0A0109
:1055800033EC39F083CCEFFF44EC34F084CCEFFF04
:1055900044EC34F085CCEFFF44EC34F086CCEFFFE4
:1055A00044EC34F087CCEFFF0C018851F00BE8425B
:1055B000E842E842E842100D88510F0BF310E66E06
:1055C0000A0133EC39F089CCEFFF0C0189519AECD8
:1055D00036F08A0EE66E0C0E9FEC35F002E2E16AC0
:1055E000E552E16E18500C018951020DF3500A0189
:1055F000A62744EC34F09ECCEFFF0C019E519AECB0
:1056000036F09F0EE66E0C0E9FEC35F002E2E16A7A
:10561000E552E16E18500C019E51020DF3500A0143
:10562000A62709D044EC34F0820EEF6E9BEC37F0E5
:1056300044EC34F0EF6A040E26EC37F09CEC30F0CA
:10564000E552E55220D0EBEC36F001E172D1BEEC30
:1056500030F019D0EBEC36F001E16BD1FFEC30F01B
:10566000000901E166D10FD0EBEC36F001E161D128
:1056700069EC34F0840EEF6E9BEC37F0A3EC36F05F
:10568000E66E30EC35F04F0EDF6E53D15AEC38F049
:10569000340EE8EC34F0350EE8EC34F02C0EE8EC87
:1056A00034F02D0EE8EC34F02E0EE8EC34F02F0E32
:1056B000E8EC34F0300EE8EC34F0310EE8EC34F085
:1056C000320EE8EC34F0330EE7CFDBFFD9502C0F6D
:1056D00076EC36F027E1010EDB6A18EC38F001E3D6
:1056E00028D107EC35F002E2E16AE552E16E17508D
:1056F0002AEC37F0D9502C0F0EEC36F002E2E16ABA
:10570000E55272EC36F00BE10A0EE66ED9502C0F22
:1057100035EC35F002E2E16AE552E16E1650010E19
:10572000DB2ADBD7D9502C0F94EC36F002D1000ED7
:10573000E66EE66AB3DBE552E552FAD0030E885D09
:105740000BE1CBEC35F001E1E7D0360EF1CCDBFF1D
:10575000370EF2CCDBFF06D0360E8ACADBFF370EDF
:105760008BCADBFFEDEC37F0010EE66E53EC32F046
:10577000166E060EE15C02E2E16AE552E16E165039
:10578000000901E1C9D07AEC38F086CAEFFF360E85
:10579000DBCF8AFA370EDBCF8BFA210EBAD089EC39
:1057A00037F00CE02BEC39F009E12EEC37F006E194
:1057B000E5EC38F003E0AFEC37F0EF8C85EC37F038
:1057C00001E1B7D066EC39F001E0B3D00A012EEC6C
:1057D00037F001E0AED0EFEC38F001E1AAD066D0AE
:1057E00089EC37F01AE02BEC39F017E12EEC37F0AA
:1057F00014E12EEC38F0800B10E0AFEC37F0EF80C6
:1058000047EC34F0EF9EE9EC43F0000903E08DEC47
:1058100037F01FD08DEC37F022D085EC37F022E046
:1058200092EC37F0E8EC37F014181CE12EEC37F06E
:1058300019E186EC38F0800B15E0B2EC37F0EF8020
:105840004AEC34F0EF9EE9EC43F0000906E092ECFC
:1058500037F036EC39F0EF8205D092EC37F036ECC9
:1058600039F0EF9289EC37F010E02BEC39F00DE1D4
:105870002EEC37F00AE1F9EC38F0010B06E0E5EC2C
:1058800038F057E08DEC37F013D085EC37F051E06D
:1058900066EC39F04EE10A012EEC37F04AE1FCECFF
:1058A00038F0010B46E0EFEC38F043E092EC37F0D3
:1058B00036EC39F0EF8C3DD0030E885D0AE1CBEC7D
:1058C00035F02AE0380EF1CCDBFF390EF2CCDBFFED
:1058D00006D0380E8ACADBFF390E8BCADBFFEDEC2F
:1058E00037F0E66A53EC32F0166E060EE15C02E227
:1058F000E16AE552E16E165000090EE07AEC38F0EC
:1059000086CAEFFF380EDBCF8AFA390EDBCF8BFA6F
:10591000220EE66E800E08D0DF6A0BD069EC34F000
:10592000840EEF6EA3EC36F0E66E30EC35F04F0EE1
:10593000DF6E46EC4CF0EFD03C0EDB6A3D0EDB6ACE
:10594000DF6A230E10EC38F03A0EF3CFDBFF3B0E8C
:10595000B9EC34F001E1B5D0010EF36E3E0EF3CF99
:10596000DBFF6BEC39F0040E78EC39F0040ED1EC6F
:1059700035F066EC34F0010EDB6A18EC38F00AE220
:10598000A2EC37F0A6EC34F00F016EEC38F02CEC02
:1059900035F0F3D7A2EC37F0170E78EC39F0100E93
:1059A00078EC39F0ACEC36F0A2EC37F0180E66EC7F
:1059B00034F05AEC34F0180EE2EC38F00BE05AEC0C
:1059C00034F0180E67EC38F032E05AEC34F0120E76
:1059D0007DEC36F0010EDB6A5AEC34F0180E9BECCD
:1059E00039F003E2D5EC37F0F7D7A2EC37F0190E17
:1059F00066EC34F05AEC34F0190EE2EC38F025E0A5
:105A00005AEC34F0190E67EC38F01AE15AEC34F025
:105A1000120E63EC35F00BE05AEC34F0120E00EC91
:105A200038F05AEC34F0120EEB6A130EEB6A47ECC6
:105A300037F0BFEC34F03A0EDB6A3B0EDB6A41D044
:105A40005AEC34F0140E7DEC36F0010EDB6A5AECA1
:105A500034F0190E9BEC39F003E2D5EC37F0F7D7B0
:105A60005AEC34F098EC39F0EF885AEC34F04EEC04
:105A700037F05AEC34F01C0E39EC39F01D0E39ECCD
:105A800039F01E0E39EC39F01B0E39EC39F027ECE9
:105A900036F05AEC34F0C4EC34F0CDEC38F0200E93
:105AA00097EC37F0EF6A47EC37F0F8D9E552E5525A
:105AB000DF6E0A017F0EA76F0A01A9910A01A66B8A
:105AC0002AD00A01040E826F0A01A9910A017F0EF1
:105AD000A76F0A01A66B500E1BD02EEC36F0030EFA
:105AE00052EC37F002E2E16AE55272EC36F002E085
