:020000040000FA
:060000002DEF6DF012006F
:0600080028EF59F0120080
:0600180028EF59F0120070
:0E003200030021CA0000FF0B000001000000C7
:100040008ADA0000EE0C00000200000088DA0000EE
:08005000EC0C000002000000AE
:0800580075CA14F0149E4FEC70
:100060001BF001E1000C010C01EC1DF0010EE66E2D
:1000700038EC19F0E5520D0EE66EE66AB80E146E15
:10008000C70EFCEC1DF07B0EE66E000EE66EEEEC8D
:100090001CF002E2E16AE552E16E17503C0E0001ED
:1000A0007B1902E1A50E7C1902E054EC17F0DF6A1F
:1000B000050EDF5C0FE2DF50030DF3CFE9FFF4CF55
:1000C000EAFFC30EE9260A0EEA22C0EC1FF0EF6A2F
:1000D000DF2AEED7DF6A060EDF5C04E267EC1DF074
:1000E000DF2AF9D7E552F5EF19F0DAEC19F04F0EE7
:1000F000E12402E3E168E652E16E5EEC6BF0060E8D
:1001000006C0DBFF070E07C0DBFF080E08C0DBFFE1
:10011000090E09C0DBFF0A0175A539D030EC1DF0CE
:100120008751EE5C146E8851EE58156E8951EE5869
:10013000166E8A51EE58176E8BCA18F0196A1A6A31
:100140001B6A360E0B6E6E0E0C6E010E0D6E0E6A75
:100150008BCA06F019C007F01AC008F01BC009F0DE
:1001600092EC6CF002C018F003C019F004C01AF051
:1001700005C01BF01450025C15500358165004586B
:100180001750055804E20B01BD910A017595FD0E4B
:10019000DB5001E0BED30B01A9B1B1EF10F00A01B1
:1001A00075A1BBD10B0EDB6A070EF36E0B0E75EC5F
:1001B0001AF001E39ED142EC1BF001E197D1C3ECB0
:1001C0001FF0EECF1CF0EECF1DF0EECF1EF0EFCF04
:1001D0001FF030EC1DF000011C50EE5C186E1D503D
:1001E000EE58196E1E50EE581A6E1F50EE581B6EC8
:1001F00018C006F019C007F01AC008F0096E43ECE9
:1002000069F007C014F008C015F009C016F00AC064
:1002100017F0810E0C6ECB0E0D6EA40E0E6E470EF7
:100220000F6E7CEC69F0010A0BE1DBEC1CF0E0ECFA
:1002300019F00B0E4DEC1FF00B0EBBEC1AF056D163
:10024000EEEC1EF0200B01E051D10A0EDB94DB92A4
:100250002EEC1FF0EF5018086FE02EEC1FF00C0E84
:10026000EFCFDBFFDB50FF0817E1DBEC1CF0A7EC66
:100270001FF003EC1AF0300E145C750E1558000ECA
:100280001658000E175852E350EC1CF0DB8214ECA9
:100290001FF00C0EDB6A4AD00C0EDB505BEC1DF03D
:1002A00002E2E16AE552E0EC1BF079A322D0DBEC3C
:1002B0001CF065EC1FF0FC0EEE1802E1FF0EED18CD
:1002C00018E0DBEC1CF065EC1FF0FD0EEE1806E10B
:1002D000FF0EED1803E17951010B0BE0DBEC1CF094
:1002E000050E8CEC1DF01450721907E115507319AE
:1002F00004E181EC1FF0EF6A0DD079B10BD0040E50
:1003000072C0DBFF050E73C0DBFF0A0EDB8481ECDD
:100310001FF0EF900C0EDB2AE6EC1DF0040B06E15B
:10032000180EF36E0C0E75EC1AF0B6E32EEC1FF0FF
:100330000C0EDBCFEFFF46D00A0EDB800B01826B89
:100340000C0EDB6A180EF36E0C0E75EC1AF008E258
:1003500081EC1FF0EF50010B03E10C0EDB2AF2D70A
:100360000C0EDB5018082AE00B01F00E826FEEEC49
:100370001EF00F0B000922E0C3EC1FF003EC1AF093
:10038000360E145C6E0E1558010E1658000E1758D6
:1003900013E30A0EDB9050EC1CF0EEEC1EF00F0B9A
:1003A000E806E8500F0BF36EF46EF00EEF14F31046
:1003B000EF6E14EC1FF002D00A0EDB90E6EC1DF09D
:1003C000010B32E1E6EC1DF0040B01E18FD02E0EA3
:1003D000F36E0D0EF3CFDBFFE6EC1DF0020B35E004
:1003E000DBEC1CF0050E8CEC1DF00B01D551141844
:1003F0002CE1D651151829E10D0EDB6A2E0EF36E95
:100400000D0E75EC1AF009E20D0E75EC1DF0EE52B2
:10041000EF5003E00D0EDB2AF1D70D0EDB502E0856
:1004200014E10B01F10E826F32EC1FF0EFCF9CFB59
:10043000DBEC1CF089EC1DF0EF8AEEEC1EF0100BEB
:1004400002E1B1EF10F0DCEF0FF032EC1FF0EF50F3
:10045000B9EC1FF0DBEC1CF0040E50EC1FF0050EA5
:100460002CEC1DF0DBEC1CF0050E50EC1FF0070E21
:100470002CEC1DF0DBEC1CF0070E50EC1FF0090E0D
:1004800050EC1FF00A0EBEEC1CF0DF6ADBEC1CF037
:1004900026EC1BF0DBEC1CF0C0EC1FF0EF50DF5C37
:1004A00008E2AAEC19F001E3DB2AC3EC1EF0DF2A14
:1004B000F1D7E9EC1CF0B0EC1AF060EC1AF00D0E7C
:1004C000DB502E0802E1AFEF11F00D0E75EC1DF0C0
:1004D000DFCFEFFF32EC1FF0EF50E66E0D0E75EC44
:1004E0001DF0EE52FBEC19F0AFEF11F00B0EDB2A12
:1004F0005BD60B0EDB6A070EF36E0B0E75EC1AF073
:1005000006E242EC1BF003E10B0EDB2AF4D70B0EE4
:10051000DB50070802E10A0175910A0175A3DAD1DF
:100520000E0EDB6A030EF36E0E0E75EC1AF001E38D
:1005300094D00E0E7AEC1AF001E18CD00E0E53EC32
:100540001FF001E187D057EC1FF0080B0EE10E0EF3
:100550003EEC1DF003EC1AF0040E145C5D0E155811
:10056000000E1658000E175827E257EC1FF0080B24
:1005700071E00E0E3EEC1DF0EECF20F0EECF21F03C
:10058000EECF22F0EFCF23F030EC1DF00001205031
:10059000EE5C1C6E2150EE581D6E2250EE581E6E01
:1005A0002350EE581F6E600E1C5CEA0E1D58000EA4
:1005B0001E58000E1F584EE30E0EDEEC1CF026EC0B
:1005C0001BF0DF6A060EDF5C08E2AAEC19F001E31B
:1005D000DB2AC3EC1EF0DF2AF5D7DF6A080EDF5CEA
:1005E00007E2AAEC19F001E3DB2AFDEC1CF0F6D7D8
:1005F0000E0ECBEC1CF0EF9657EC1FF0070BE80645
:10060000E850070BF36EF46EF80EEF14F310EF6E74
:100610000E0E3EEC1DF0060EDBCFEEFF070EDBCF1D
:10062000EEFF080EDBCFEEFF090EDBCFEEFF57EC3F
:100630001FF0070B000902E0A9EF11F00E0EDEEC2F
:100640001CF0E0EC19F00E0EDEEC1CF0EE6AED6A28
:10065000A9EF11F00E0EDB2A65D70E0EDB6A030E32
:10066000F36E0E0E75EC1AF03BE20E0E7AEC1AF0F9
:1006700034E00E0E9CEC19F003EC1AF0D8801C0E3E
:1006800014544E0E15540E0E1654000E175425E237
:100690000E0E04EC1DF002E2E16AE552E16E175025
:1006A00000018C0509E1020E8C6F1DEC1AF002E2CC
:1006B000E16AE552E16E14500E0E53EC1FF005E0B6
:1006C0000E0EDEEC1CF0E0EC19F00E0EE1EC1CF06E
:1006D000E0EC19F00E0E60EC1BF00E0EDB2ABFD71B
:1006E000DF6A060EDF5C01E3BBD07FEC1EF001E1A8
:1006F000B5D00F0EDB6AD950100F44EC1AF046EC5F
:100700001DF0CFEC1CF0050E34EC1DF0E7EC1BF0F7
:1007100002E2E16AE5525CEC1BF066E0100EDB5091
:1007200059E184EC1FF01DE182EC1CF01AE10F0E80
:10073000DB6A2E0EF36E0F0E75EC1AF009E20F0E47
:1007400075EC1DF0EE52EF5003E00F0EDB2AF1D7EF
:100750000F0EDB502E0805E168EC1FF0F10E826FE2
:1007600046D0CFEC1CF026EC1BF0010EDB6ACFEC80
:100770001CF0C0EC1FF0EF50A3EC1DF009E2AAEC56
:1007800019F001E3DB2AC3EC1EF0010EDB2AEFD7E0
:10079000D950010F92EC1DF084EC1FF018E182ECAF
:1007A0001CF015E10F0E75EC1DF0010EDBCFEFFF15
:1007B000CFEC1CF0C6EC1CF065EC1FF0EF50E66EC1
:1007C0000F0E75EC1DF0EE52E552E750EF6EC6ECE1
:1007D0001FF03CD0100EDB50020840E184EC1FF00B
:1007E0000CE182EC1CF009E168EC1FF0826B19EC63
:1007F0001FF032EC1EF0D8EF0FF0B4EC1BF0A6ECBB
:100800001CF0CFEC1CF0030E2CEC1DF0CFEC1CF018
:10081000030E05EC1FF0CFEC1CF0050EB7EC1EF03C
:10082000CFEC1CF0050E6CEC1FF0D950010F44EC1E
:100830001AF0CFEC1CF0030E34EC1DF060EC1AF053
:10084000C6EC1FF0CFEC1CF0EE6AED6AEA6ADF340A
:10085000D3EC1CF032EC1EF0AFEF11F0DF2A41D7E1
:10086000D9EC1AF00A0EDF5C1BE2C8EC19F002E2C8
:10087000E16AE552E16E1750020E00018C5D0DE158
:10088000030E8C6F8A698B691DEC1AF002E2E16A33
:10089000E552E16E145049EF11F0E0EC1AF0E2D7A6
:1008A000DF6A060EDF5C05E27FEC1EF002E1DF2A64
:1008B000F8D7060EDF5C0EE1DF6A030EDF5C05E2AF
:1008C000EAEC1DF002E1DF2AF8D7030EDF5C02E15B
:1008D0000A0175930A0175AFB1EF10F0759F00CA58
:1008E00082FB01CA83FB08CA8AFB09CA8BFB10CAB8
:1008F00092FB11CA93FB12CA94FB13CA95FB14CA4C
:1009000096FB15CA97FB16CA98FB17CA99FBCFEF3F
:100910000EF0FD0EDB50720A02E11BEF11F03B0AF4
:1009200002E107EF11F0010A02E102EF11F00F0AF4
:1009300002E16EEF10F0010A02E157EF10F0030A36
:1009400002E150EF10F0010A02E14BEF10F0070A4C
:1009500002E126EF10F0010A02E10CEF10F0030AA9
:1009600002E105EF10F0720A02E106EF0FF0010A52
:1009700002E1FBEF0EF01C0A02E1D1EF0EF0040AD7
:1009800002E1BCEF0EF0030A02E15CEF0DF00C0A8D
:1009900002E106EF0DF0070A02E1F4EF0CF03E0A67
:1009A00002E16AEF0CF00A0A02E136EF0CF0040AE9
:1009B0006EE0030A02E0B1EF11F0DF6A060EDF5CC1
:1009C0003EE204EC1EF002E1FF0EED1836E0E6EC2C
:1009D00019F0EE52EF500B019C5D2FE182512BE09C
:1009E0000B01A66B0B017F0EA76F0B01A981E6EC33
:1009F00019F0EF50E66EA6EC1CF0B1EC1FF0010E02
:100A0000BEEC1CF00DEC1FF005EC1FF00DEC1FF020
:100A1000B7EC1EF0B1EC1FF0010EB7EC1EF0E9ECE4
:100A20001CF00DEC1FF034EC1DF060EC1AF067ECDC
:100A30001DF0AFEF11F067EC1DF0DF2ABFD7DF6AC2
:100A40002E0EDF5C08E287EC1FF0EF500B019C5D7F
:100A500002E0DF2AF5D72E0EDF5C02E1B1EF10F0E5
:100A600023EC1DF0EF500AE023EC1DF0EFCF9CFBD0
:100A7000340EF36E110EF3CFDBFF02D0110EDB6AE2
:100A800023EC1DF0EF6A110EDB50B2EF11F0080EEF
:100A9000F36E1A0EF3CFDBFFADEC1EF0120ECDECB1
:100AA0001AF0130ECDEC1AF0140ECDEC1AF0150E50
:100AB000CDEC1AF0160ECDEC1AF0170ECDEC1AF0A4
:100AC000180ECDEC1AF0190EE7CFDBFFD950130F3B
:100AD00087EC1AF0080B10E0DF6A080EDF5C0AE210
:100AE0001AEC1BF0DF50EA6AD80FE96E0A0E83ECAD
:100AF0001EF0F3D771EC1BF0D950130F87EC1AF0EE
:100B0000100B10E0DF6A080EDF5C0AE21AEC1BF043
:100B1000DF50EA6AE00FE96E0A0E83EC1EF0F3D7AD
:100B200071EC1BF00B01921D01E1931D09E057ECE4
:100B30001CF0FB0ED880EE54FF0EED5401E3B5D34C
:100B4000DF6A070EDF5C28E288EC1EF023E038EC59
:100B50001EF0BFEC1EF0050EB2EC19F0EECF16F051
:100B6000EFCF17F000011650141814E117501518A4
:100B700011E1BFEC1EF0BDEC1FF0EF50F36E190E4B
:100B8000DB50F35C07E1DFCFE6FF28EC17F0E5521E
:100B9000F1EF0CF0DF2AD5D73FEC1EF001E026D3B1
:100BA00092EC17F0DF6EDF0401E05AD20A017651B1
:100BB000010B01E155D215EC1BF005E1D6511518DA
:100BC00002E1F1EF0CF01B0EDB6A45EC1EF001E3D5
:100BD000DB2A010EEF6EDF6E1BEC1CF008E2FEEC70
:100BE0001EF001E3DB2AFBEC19F0DF2AF5D7210E1A
:100BF000DB50E76E220EE7CFDBFF210EDB2A0B0175
:100C00009D51A0EC1BF004E6D80E145C000E1558A4
:100C100002E2210EDB2A9D51A0EC1BF004E6B40E8B
:100C2000145C000E155802E2210EDB2A9D51A0EC47
:100C30001BF004E6900E145C000E155802E2210E23
:100C4000DB2A6C0E9D5D02E2210EDB2A480E9D5DC3
:100C500002E2210EDB2A240E9D5D02E2210EDB2A38
:100C60001D0EDBCFE6FF8BEC1FF0EEEC1DF01E0E31
:100C7000B8EC1BF002E2E16AE5525CEC1BF001E12A
:100C80004DD10B01921D01E049D1931D01E046D1E8
:100C9000250EDB6A030EF36E250E75EC1AF01DE2CD
:100CA000250E7AEC1AF016E0250E9CEC19F0D0EC2B
:100CB0001DF01E0EDB50145C0DE1250E42EC1DF004
:100CC0000AEC1CF0160EDB50151803E1170EDB5072
:100CD000161803E0250EDB2ADDD7030EF36E250E72
:100CE00075EC1AF03EE25EEC6BF04AEC1EF0250E5D
:100CF0009CEC19F057EC1AF0210EDBCF14F0250E06
:100D000035EC1FF0EF50D880145402E2F1EF0CF0F4
:100D10001AEC1DF0C8EC1EF003E1200EDB50151894
:100D200008E096EC1DF001E179D04AEC1DF001E0FD
:100D300075D056EC48F00B01A9B1B1EF10F0250EBB
:100D40003AEC1FF0210EEFCFDBFFD9501C0F44EC23
:100D50001AF0250EEEEC1DF0EAEC1BF001E34CD18D
:100D600049D1D950260F44EC1AF0D950250F44EC44
:100D70001AF08BEC1FF0DBCFE6FFF0EC1BF002E289
:100D8000E16AE5525CEC1BF002E1F1EF0CF0250E9C
:100D90003FEC1FF01E0EDBCFEFFF250E42EC1DF0E7
:100DA0002DEC1BF01AEC1DF0250E9CEC19F00A0E30
:100DB0008CEC1DF0160EDB50141803E1170EDB50FF
:100DC000151805E0250E01EC1FF0010904D0250ED1
:100DD00001EC1FF00309EF6E250ECBEC1CF0EF8643
:100DE000210EC8EC1EF003E1200EDB50151806E0C2
:100DF00096EC1DF013E04AEC1DF010E156EC48F0C3
:100E00000B01A9B1B1EF10F04EEC1DF0250EEEEC88
:100E10001DF0EAEC1BF001E3EFD0ECD0010EF36E15
:100E20001B0EF3CFDBFFDB5001E11AD196EC1CF077
:100E300001E016D1250E53EC1FF008E10E0EB1ECC7
:100E40001EF0250EDEEC1CF08DEC1EF0250E53EC92
:100E50001FF002E1F1EF0CF0D9501C0F6FEC1AF00B
:100E6000250EDEEC1CF0270EEECFDBFF280EEDCFBB
:100E7000DBFFDF6A1BEC1CF00EE2AAEC19F001E3C9
:100E8000DB2AEF50E66E4FEC1AF001E3DB2AFBECB5
:100E900019F0DF2AEFD7B4EC1BF04FEC1AF001E3A6
:100EA000DB2AFBEC19F09AEC1CF04FEC1AF001E392
:100EB000DB2AFBEC19F04FEC1AF001E3DB2A13EC10
:100EC0001CF04FEC1AF001E3DB2A17EC1CF04FEC9E
:100ED0001AF001E3DB2A9EEC1CF04FEC1AF001E360
:100EE000DB2AA2EC1CF04FEC1AF001E3DB2A48EC01
:100EF0001CF04FEC1AF001E3DB2A120EDBCFEFFF00
:100F000049EC1AF0250E3EEC1DF057EC1AF0250EB8
:100F100001EC1FF00409EF6EF1EF0CF0A5EC1BF0F3
:100F200092EC1EF0180822E04AEC1DF01FE18ACB7B
:100F300014F08BCB15F0160EDB50141803E1170ECE
:100F4000DB50151837E000017E29E66E63EC1AF0DD
:100F5000A5EC1BF0E3EC16F0166E050EE15C02E268
:100F6000E16AE552E16E1650000924E10B01CE5111
:100F70000B018A1902E0F1EF0CF00B01CF510B01CC
:100F80008B1902E0F1EF0CF07EC0E6FF63EC1AF083
:100F9000D5CBE6FFD6CBE6FFE3EC16F0176E050ED9
:100FA000E15C02E2E16AE552E16E1750000902E0FD
:100FB000F1EF0CF057EC1BF003E1200EDB5015189D
:100FC0000AE096EC1DF01CE04AEC1DF019E15BEC28
:100FD0001CF0020815E156EC48F00B01A9B1B1EF85
:100FE00010F04EEC1DF0030EE66E63EC1AF0EAEC26
:100FF0001BF002E2E16AE552E16E1450AFEF11F02E
:1010000071EC1FF002E132EF0CF096EC1CF002E004
:1010100032EF0CF045EC1EF001E3DB2AC3EC1EF0CE
:10102000AAEC19F001E3DB2ADFEC1EF001E3DB2A76
:10103000DFEC1EF001E3DB2ADFEC1EF001E3DB2A2C
:10104000DFEC1EF001E3DB2AC9EC1FF0F5EC1EF02B
:1010500076EC1FF008EC1EF0B0EC1AF030EF0CF05C
:10106000040EDF5C02E0F1EF0CF0ADEC1EF0290E97
:10107000E7CFDBFF15EC1BF005E1D651151802E1B7
:10108000F1EF0CF0180EDB50010850E2D9502A0F96
:1010900097EC1EF002E1F1EF0CF02A0E99EC19F03A
:1010A00089EC1DF0EF982A0EDBCFE6FF28EC17F055
:1010B000E5522A0E6BEC1DF02A0EB7EC1DF02A0E3D
:1010C0000FEC1EF02A0E16EC1EF02A0EACEC1DF0F2
:1010D0002A0E99EC19F0040E17EC1DF02A0E79EC8B
:1010E0001DF02A0E9BEC1EF005E12A0E4DEC1FF0C0
:1010F0002A0EB2D0DF6AAAEC1BF02A0E99EC19F086
:101100007EEC1AF0040EEF6E8CEC1BF02B0E82CBF3
:10111000DBFF0B01825108E01AEC1BF0AAEC1BF07C
:101120002A0E3AEC1DF0F5D70A01758163EC1AF02E
:1011300023EC1CF002E1F1EF0CF08EEC18F056EC11
:1011400048F0D1EC1AF002E2E16AE552E16E145087
:1011500070EC1DF08A0EE66E0B0E99EC1DF002E2AB
:10116000E16AE552E16E1450DF6A080EDF5C33E29B
:101170000A0EE66EE66A7CEC1BF028EC1CF0910E81
:10118000E66E000EE66EEEEC1CF002E2E16AE5525D
:10119000E16E175099C014F09AC015F0160EDB508E
:1011A000141817E1170EDB50151813E100019969A7
:1011B0009A690A0EE66E910EE66E000EE66E7CEC03
:1011C0001BF0C2EC1BF002E2E16AE552E16E165040
:1011D00002D0DF2ACAD7290EDBBC00EF11F0DB50AA
:1011E000200B0B01826F4D0EB2EF11F0180EDB5089
:1011F000010851E2D9502C0F97EC1EF001E1F1D318
:101200002C0E99EC19F089EC1DF0EF982C0EDBCF29
:10121000E6FF28EC17F0E5522C0E6BEC1DF02C0EBF
:10122000B7EC1DF02C0E0FEC1EF02C0E16EC1EF081
:101230002C0EACEC1DF02C0E99EC19F0040E17ECF2
:101240001DF02C0E79EC1DF02C0E9BEC1EF007E12E
:101250002C0E4DEC1FF02C0EBBEC1AF0C2D3DF6A43
:101260008CEC1BF02D0E82CBDBFF0B01825108E0D2
:101270001AEC1BF0AAEC1BF02C0E3AEC1DF0F5D783
:10128000020EDBCF84FB030EDBCF85FB2D0EDBCF05
:1012900082FB0A01758115EC1BF004E1D65115188B
:1012A00001E19FD36DEC1CF04AD23FEC1EF001E04F
:1012B0002DD292EC17F0DF6EDF50060A23E0020A0F
:1012C00007E00A0176A18DD3DF0401E0C8D07BD40A
:1012D00092EC17F0DF6E56EC48F0DFBCB1EF10F087
:1012E00063EC1AF023EC1CF002E1B1EF10F08EEC8D
:1012F00018F0D1EC1AF002E2E16AE552E16E145006
:1013000000EF11F0010EF36E2E0EF3CFDBFF92EC27
:1013100017F00B01826F56EC48F0E7EC1EF0070E59
:10132000EF6EE00EE66E0A0E10EC1BF0180820E1DE
:101330000C01010EEC6F2CEC12F0000905E065ECDD
:1013400012F0DF6E180810E1E7EC1EF0FD0EEF6EF4
:10135000A6EC19F0EF68A6EC19F0020EEF6E2E0E57
:10136000DB6A0C01EC6B0FD0BCEC11F00C01EC6BE8
:10137000E7EC1EF072C0EFFFA6EC19F073C0EFFFB0
:10138000A6EC19F0EF6A8BEC1AF0F50EE66E0B0E78
:10139000E66EEEEC1CF002E2E16AE552E16E1750F7
:1013A000DF6A080EDF5C09E28CEC1CF0F50FE96ED9
:1013B0000B0EEA22FDEC1CF0F4D7DF6A080EDF5CAE
:1013C00009E28CEC1CF0E00FE96E0A0EEA22FDEC5B
:1013D0001CF0F4D7F4EC1CF0F9EC1EF09FEC19F0C3
:1013E000180EEF6E90EC1FF02E0EDB5003E00A019A
:1013F000758F02D00A01759F82CB00FA010E016F32
:1014000072C008FA73C009FAE0CA10FAE1CA11FA08
:10141000E2CA12FAE3CA13FAE4CA14FAE5CA15FAE0
:10142000E6CA16FAE7CA17FA170EDB50E96FE86B3F
:10143000160EDB50E811E86FE9EC1CF0E66EE9CA25
:10144000E6FF60EC1AF00B018251020B05E08251BD
:10145000080B02E0AFEF11F08585AFEF11F0030E3E
:10146000DF5C48E196EC1CF045E1E7EC1EF0030E72
:10147000EF6E1AEC1BF00B01C3EC1CF0ADEC1EF090
:101480002F0EE7CFDBFFE7EC1EF02F0EDBCFEFFFD9
:10149000ADEC1EF0300EE7CFDBFFE7EC1EF0300EB8
:1014A000DBCFEFFF56EC48F0CCEC1BF005E1D6515A
:1014B000151802E1A4EF0FF0B4EC1FF0D950310F72
:1014C00044EC1AF046EC1DF034EC1BF0E7EC1BF09A
:1014D00002E2E16AE5525CEC1BF001E00BD171EC39
:1014E0001FF001E007D10B01A66B0B017F0EA76F68
:1014F000B1EF10F0020EDF5C01E073D2320EDB6A56
:10150000030EF36E330EF3CFDBFFD950340F6FECC5
:101510001AF0AAEC19F001E3DB2A020EEF6E010EBD
:10152000DF6E30EC1CF008E2FEEC1EF001E3DB2A7B
:10153000FBEC19F0DF2AF5D7350EDBCFE6FF390ECD
:10154000DBCFE6FF3A0EEEEC1DF0360EB8EC1BF0EA
:1015500002E2E16AE5525CEC1BF001E17AD0330E65
:10156000DB6A030EF36E330E75EC1AF01DE2330ED8
:101570007AEC1AF016E0330E9CEC19F0D0EC1DF06A
:10158000360EDB50145C0DE1330E42EC1DF00AEC1C
:101590001CF0370EDB50151803E1380EDB5016181F
:1015A00003E0330EDB2ADDD7330EDB5003086AE09D
:1015B000050EE66EE66AC0EC1DF028EC1CF0F2ECBD
:1015C0001DF0EEEC1CF002E2E16AE552E16E17500C
:1015D00000018C6B330E9CEC19F0B4EC1DF0EF5055
:1015E000F36E3B0E75EC1AF00CE2330E9CEC19F026
:1015F000B4EC1DF03B0EDBCFEFFF8ACB8DF08BCB35
:101600008EF0050EE66EF2EC1DF0C0EC1DF0C2ECA3
:101610001BF002E2E16AE552E16E16509FEC1EF00B
:10162000370EDB50141803E1380EDB5015182AE092
:10163000010EF36E320EF3CFDBFF330E3AEC1FF0E8
:101640003B0EDBCFE7FFEF50E7263B0EE7CFDBFF9C
:1016500019D09FEC1EF0140EDB50141803E1150E88
:10166000DB5015180FE0070E146E3B0EDBCFE7FFC3
:101670001450E7263B0EE7CFDBFF010EF36E320E70
:10168000F3CFDBFF320EDB503BE096EC1CF038E191
:1016900056EC48F0330EDB5003080AE0330E44ECFE
:1016A0001FF0040EEECFDBFF050EEDCFDBFF09D000
:1016B00046EC1DF063EC1AF004EC1BF002E1B1EF14
:1016C00010F0D950340F6FEC1AF0DF6A30EC1CF0D8
:1016D00008E2AAEC19F001E3DB2AC3EC1EF0DF2AD2
:1016E000F5D7D6EC1DF09FEC19F0180EDBCFEFFF0D
:1016F000ADEC1CF0E9EC1CF0B0EC1AF0ADEF11F021
:1017000056EC48F00B01826B4CEF11F0CCEC1BF067
:1017100002E1D651151808E057EC1CF0FF0EEE1848
:1017200011E1FF0EED180EE16DEC1CF0140EDBCF95
:1017300086FB150EDBCF87FB0B01020E886F350E83
:10174000B2EF11F00A017651010B01E14AD1180EF6
:10175000DB50010801E345D196EC1CF001E041D1DA
:1017600046EC1DF0D950120F87EC1AF01BEC1EF05E
:10177000E66E34EC1BF0E66A14EC14F0146E060E00
:10178000E15C02E2E16AE552E16E1450E76E3C0E64
:10179000E7CFDBFFDB50030A33E0010A31E0060A42
:1017A0002FE0050A01E11DD1010A2AE1B4EC1FF086
:1017B0000B01825106E01AEC1BF00B01C3EC1CF08C
:1017C000F7D7D950010F92EC1DF0DF6A060EDF5CEF
:1017D00049E204EC1EF012E1FF0EED180FE1B1EC4E
:1017E0001FF02DEC1BF0E6EC19F04CEC1CF0E6ECD5
:1017F00019F0EE52010EDBCFEFFF34D0DF2AE6D72F
:10180000F5EC1EF0F9EC1EF0E4EC1CF0030EEF6EAC
:101810003C0EDB50020804E1A6EC19F0010E0FD0DB
:101820003C0EDB50030804E1A6EC19F0020E07D0D1
:101830003C0EDB50040805E1A6EC19F0040EEF6E37
:1018400003D0A6EC19F0EF6AA6EC19F017EC1CF027
:10185000A6EC19F013EC1CF0E9EC1CF0A5EC1BF065
:1018600060EC1AF056EC48F0AFEF11F0DF6A080EAA
:10187000DF5C10E2DF50EA6A8A0FE96E0B0EEA22A3
:10188000EF50E66EDF50EA6A920FE96E0B0E83ECC2
:101890001EF0EDD7DBEC1DF0DF6E18080CE12CEC30
:1018A00012F000090FE065EC12F018080BE0BCEC38
:1018B00011F082CBB5FA72C088FB73C089FB0B01B3
:1018C000826B05D00B01010E826F88698969170E42
:1018D000B2EF11F0020E0B01885D01E082D0F9EC4D
:1018E0001BF001E07ED086CBE6FF87CBE6FFA5ECC0
:1018F0001BF0D9EC17F0A4EC1EF018081EE165EC03
:1019000012F018086EE000017983788D788FDF6A15
:10191000080EDF5C09E2DF50EA6A6A0FE96E000E2A
:10192000EA22EF6ADF2AF4D700017D2B25EC1AF0BA
:1019300002E2E16AE552E16E14500B019BAD03D067
:101940000001789902D000017889789B7981020E94
:1019500008EC1BF0780BE840E840E8401F0B000162
:101960000F0BF36EF00E51EC1EF00F0B00010F0B7E
:10197000F36EF346F346F346F3460F0E51EC1EF0BA
:10198000F00BE8380F0B00010F0BF36EF00E78151B
:10199000F310786F9DCB76F00B019B510001799588
:1019A000800B01E07985020E08EC1BF0800B8008AB
:1019B00002E0000E01D0010E00017997E8B07987AE
:1019C00086CB74F087CB75F08ACB72F08BCB73F03B
:1019D00089CB7AF03BEC1AF002E2E16AE552E16E63
:1019E000145056EC48F0BDD3DBEC1DF0DF6E180E42
:1019F000DF5C02E1B1EF11F072C092FB73C093FBA8
:101A00000B01010E826F230EB2EF11F00A01755126
:101A1000080B15E0020EC05D12E17651400B01E0AB
:101A2000010EE76E3D0EE7CFDBFF0B01926B936B70
:101A3000946B956B966B976B986B996B30D075A781
:101A400034D07651400B01E0010EE76E460EE7CF31
:101A5000DBFF8BEC1AF0D9503E0F44EC1AF0EEECA1
:101A60001CF002E2E16AE552E16E17503E0EDBCF58
:101A700092FB3F0EDBCF93FB400EDBCF94FB410E7E
:101A8000DBCF95FB420EDBCF96FB430EDBCF97FB04
:101A9000440EDBCF98FB450EDBCF99FB0B01826B2D
:101AA000E66A38EC19F0E552ABD3E66A38EC19F087
:101AB000E5523D0EB2EF11F00B01885101E0CDD09F
:101AC000835105E10B01A9990B01C40EA2D2300E7E
:101AD000E66EEDEC67F0E552F3CFB3FAF4CFB4FA6B
:101AE0000A01F350F41007E10B0184518511EAE07B
:101AF00064EC1BF0E7D7B26B8CEC1BF0DF6A200EB6
:101B0000DF5C3CE2B6CA14F0010E14164FEC1BF079
:101B100027E08ACB14F0010E14164FEC1BF020E1E5
:101B200074EC1CF0EFCF14F0700E145C14E2B251A0
:101B30001AEC1AF0DFCFEFFF74EC1CF0EF50E66EFA
:101B4000B2511AEC1AF0EE52FBEC19F0B25180ECE3
:101B50001DF0EF6AB22B020EDB2A030E01E3DB2A33
:101B60000B01D8908D338C338B338A330A01D89094
:101B7000B933B833B733B633DF2AC1D7B2CADFFFC0
:101B8000DF5000083FE2DE52010EDD6EDBCF14F0C5
:101B9000DF04D880145434E3010EDB50E4EC1BF076
:101BA000EE52EFCF14F0A9EC1EF0EE52EF50145CA1
:101BB00024E2A9EC1EF0470EEECFDBFF480EEECF7D
:101BC000DBFF490EEECFDBFF010EDB501AEC1AF003
:101BD000EECF14F00AEC1CF0A9EC1EF093EC1BF015
:101BE000010EDB501AEC1AF0470EDBCFEEFF480E69
:101BF000DBCFEEFF490EDBCFEEFF010EDB2AC6D7AF
:101C0000DF06BED70B018451851102E064EC1BF0A6
:101C10000A01B25103E1C7EC1AF054D7B16B0B01C2
:101C2000010E886F146E156A166A176A95EC1FF01C
:101C3000EF501F0B07E0D8901436153616361736BE
:101C4000E806F9E114C08AFB15C08BFB16C08CFBBB
:101C500017C08DFBBACA89FBF7D10A01B15180ECDC
:101C60001DF083CBEFFF0B018651871119E086CB66
:101C7000E9FF87CBEAFF1B0EB2EC19F026EC1BF054
:101C800086CBE6FF87CBE6FFA7EC1DF00B01866B4A
:101C9000876B020EDBCF86FB030EDBCF87FBE3D720
:101CA0000A01B12BB251B15DBAE1B16BC1CA86FB79
:101CB000C2CA87FB0B01861D01E1871D09E057ECB5
:101CC0001EF006E00A01B251B15D02E2B12BF7D776
:101CD0000A01B251B15D05E10B01866987690A010C
:101CE000B16B010EDF6E0A01B251DF5C1BE2B15134
:101CF00080EC1DF0EFCF14F0DF5080EC1DF0EF50C2
:101D0000D88014540DE20B01861D01E1871D06E009
:101D1000DF50E4EC1BF09AEC1BF002E1DFCFB1FAEC
:101D2000DF2AE1D70B01861D0BE1871D09E1D6CF24
:101D300086FB3F0ED7140B01876F57EC1EF0F7E1BF
:101D40000B01D56BD66BBEEC52F00A01769129ECF3
:101D500018F095EC1FF0EFCF88FB0B010F0E8E6F84
:101D60008F6F010E826F0B01BD510B018293040B2B
:101D700001E082832D0EF6D25AEC1EF00B01825147
:101D800003E0180EDF5CEDD1180EDF5C01E1E9D253
:101D900072C08AFB73C08BFBB5CA82FB836B4C0E8F
:101DA000E1D20A01B351B41102E0C7EC1AF00B0101
:101DB000825102E10A01768100017E6B3D0E7F6F48
:101DC000140E806F87B10AD06F0E816F790E826F0B
:101DD000010E836F846B856B866B878125EC1AF00F
:101DE00002E2E16AE552E16E1450FFEC1BF00B01D8
:101DF000A999A9870FD10B01825101E11AD2EB0EEB
:101E0000825D02E1826B15D2C60E12D20B01A9B718
:101E100003D00B01C20ECBD00B01921D01E1931D2B
:101E20000EE0FD0E921902E1FF0E931908E0FC0E80
:101E3000921901E08CD0FF0E931901E088D0D9509F
:101E40004B0F97EC1EF001E1B0D011EC1FF089ECC4
:101E50001DF0EF8811EC1FF0A7EC1FF0300EEE26FE
:101E6000750EEE22000EEE22EE220B01A751146E2B
:101E7000156A7F0ED8801456000E15560B01A65118
:101E8000166E176A145016240B01826F4B0E6BEC02
:101E90001DF08B51400DF3500809E66E11EC1FF058
:101EA0000A0E17EC1DF08351E824E66E11EC1FF0CA
:101EB000090E17EC1DF011EC1FF0070E60EC1EF080
:101EC00011EC1FF0050EB2EC19F0AFEC1BF011ECA9
:101ED0001FF0040EB2EC19F08ACBEFFF11EC1FF0EB
:101EE000BDEC1FF09CCBEFFF82CBE6FF6AEC1AF053
:101EF0004B0E9BEC1EF007E14B0E4DEC1FF04B0E12
:101F0000BBEC1AF052D0DF6A0B01A751A0EC1BF01A
:101F100004E67F0E145C000E155805E2A72BA751AE
:101F20005FEC1FF0F1D70B01826B0B01A65108E0AB
:101F30000B018251822B5FEC1FF00B01A607F5D736
:101F40000A01758104EC1CF00B01A66B0AD146EC6A
:101F50001DF08BCBE6FF92CBE6FF93CBE6FF010EA5
:101F6000E66E14EC14F0146E060EE15C02E2E16A17
:101F7000E552E16E1450E76E4C0EE7CFDBFFDB500D
:101F8000010A01E1EED0010A03E00B01D10E0FD0EE
:101F9000DF6A2E0EDF5C06E223EC1DF0EF5002E05C
:101FA000DF2AF7D72E0EDF5C09E10B01F10E826FFD
:101FB00004EC1CF00B01A66B340ED4D123EC1DF005
:101FC0009CCBEFFF0B019FEC19F09CCBEFFF26ECB5
:101FD0001DF093CBEFFF9FEC19F092CBEFFF0B01BD
:101FE0008351E824B9EC1FF00B018B51400DF350E5
:101FF0000809B9EC1FF0D9504A0F92EC1DF087EC9C
:102000001FF04A0EDBCFEFFFAAD10B01A9990B01FC
:10201000C20E826F370EA6D10B01A9890A01B351F6
:10202000B41102E0C7EC1AF08ACBB6FA8BCBB7FA40
:102030008CCBB8FA8DCBB9FA89CBBAFA86CBC1FA78
:1020400087CBC2FA0B01886B280E8CD10A017595DB
:102050000B01825103E10B01BD9114D00B01BD8135
:10206000FF0E0B01825D0EE082CB8BFA5EEC6BF013
:1020700006C087FA07C088FA08C089FA09C08AFA38
:102080000A01758583CBE6FF0DEC19F0E5520B01D3
:10209000826B380E67D10B01C20E826F390E62D18E
:1020A0000B0188698969C20E826F3A0E5BD1DBEC45
:1020B0001DF0180803E00B01C50E09D0CDD90009A9
:1020C00004E003DADF6E180804E10B01C70E826F2B
:1020D00003D052D90B01826B3B0E44D10B01A9B73F
:1020E00003D00B01C20E8BD00B0192513CE19351F6
:1020F0003AE1945138E1955136E1965134E19751E6
:1021000032E1985130E199512EE10B01BD910A0164
:1021100075870B0182510A017693E8B07683768544
:10212000BB6B76B302D0180EBB6F5EEC6BF006C0D3
:10213000BCFA07C0BDFA08C0BEFA09C0BFFA0B015D
:10214000835102E0000E01D0010E0A01769BE8B037
:10215000768B0B0183510A01769DE8B0768D020ED5
:10216000C06F000EFFD05AEC1EF0180846E04AEC93
:102170001DF043E10B01855105E08EEC18F00B01D9
:10218000826B3ED0DF6A080EDF5C09E28CEC1CF04B
:102190006A0FE96E000EEA22FDEC1CF0F4D7F4ECB5
:1021A0001CF073C0EFFF9FEC19F072C0EFFF9FECC3
:1021B00019F0080EEF6E90EC1FF0A729ACEC1AF0A6
:1021C0001FEC6BF0E552E7EC1EF0040EEF6E400ED4
:1021D000DF6E0B01825101E0DF8E835103E00A01C3
:1021E000768DDF8AE7EC1EF0DFCFEFFFE9EC1CF025
:1021F00072C0E6FF73C0E6FFB0D00B01C80E826F5D
:102200003C0EB0D00B01010E826F240EABD00B013F
:1022100082510DE1836BD3CB9AFBD4CB9BFB020E97
:10222000896FCECB92FBCFCB93FB310E9BD0C10EEF
:10223000826F3E0E97D00B01A9B702D00B0113D0CD
:102240000B01845112E0921D01E1931D0CE0FD0E83
:10225000921902E1FF0E931906E0FC0E921905E1B6
:10226000FF0E931902E1C20E16D0D9504E0F44EC66
:102270001AF0D9504D0F44EC1AF092CBE6FF93CBF5
:10228000E6FFF0EC1BF002E2E16AE5525CEC1BF0C9
:1022900005E10B01020E826F730E64D00A018C51AE
:1022A0008C2BE66E4D0E9CEC19F00E0E17EC1DF00B
:1022B0004D0E42EC1DF0AFEC1BF04D0E44EC1FF048
:1022C000AFEC1BF04D0E67EC1EF04D0E01EC1FF055
:1022D0000309EF6E4D0ECBEC1CF0EF964D0E3AEC71
:1022E0001FF0EF68B4EC1BF00B01BBEC1EF026EC0A
:1022F0001DF0EF689FEC19F0EF68E4EC1CF0010EA4
:10230000EF6EA6EC19F0800EEF6E0B01840505E16F
:102310000B01A60583EC1DF0EF8C4D0E3FEC1FF07A
:10232000C3EC1EF00B01845109E1E7EC1EF0D5CBA4
:10233000EFFFA6EC19F0D6CBEFFF08D0E7EC1EF0CC
:1023400092CBEFFFA6EC19F093CBEFFFA6EC19F0C0
:10235000EF6AE9EC1CF0E668E66860EC1AF0100E33
:1023600001D0000E146E4F0EE15C02E2E16AE5520C
:10237000E16E1450F5EF19F0080EE66EE66A8A0E6B
:10238000E66E0B0EE66E6A0EE66E000E99EC1DF020
:1023900002E2E16AE552E16E1450D3CB74F0D4CB83
:1023A00075F000017A690B0182B314D000017899AD
:1023B000788B81C072F082C073F00001812B000E17
:1023C0008223FE0E81192BE1FF0E821928E10A01FA
:1023D000768725D000017889789B83C072F084C00D
:1023E00073F00001862B7F51832780518423060ED2
:1023F000086E096A7FC00DF080C00EF05EEC69F0D7
:102400000B01D5510624146ED6510720156E00011C
:102410008351145C8451155802E20A0176890B013C
:10242000825100017991080B01E07981788D789FC4
:1024300079833BEC1AF002E2E16AE552E16E145056
:102440000001852B7D2B25EC1AF002E2E16AE552B2
:10245000E16E1450FFEF1BF00C01EC511DE10B017C
:10246000BD51010B17E0140E0001855D13E20B0155
:102470008251020B04E10A017651080B0CE0050EB3
:1024800000017E5D07E2060E865D04E20A017651D8
:10249000100B01E0000C010C140E0001855D13E22D
:1024A0000B018251020B04E10A017651080B0CE08A
:1024B000050E00017E5D07E2060E865D04E20A015C
:1024C0007651100B01E0000C010CE2EC1EF0180E2E
:1024D000DF5C0FE2B6EC19F002E2E16AE552E0ECF3
:1024E0001BF079B302D0DF5005D0A1EC1AF0DF2A3F
:1024F000EED7180EE552F5EF19F0AAEC1FF0DF6ADF
:10250000070EDF5C05E288EC1EF002E0DF2AF8D758
:10251000070EDF5C08E02D0EB1EC1EF0F1EC19F0B7
:10252000B7EC1AF002E1000E40D0FC0EDBCFE9FF61
:10253000FD0EDBCFEAFFDFCFEFFFBFEC1EF00B0E8F
:10254000B2EC19F0EF6849EC1AF0BFEC1EF0A7EC02
:102550001FF057EC1AF0BFEC1EF0B4EC1DF093EC3A
:102560001BF017C0EEFFBFEC1EF089EC1DF0EF9AD8
:10257000BFEC1EF089EC1DF0F00EEF140209EF6EB7
:10258000010EDB6A180EA3EC1DF00EE2BFEC1EF08C
:10259000150EB2EC19F0010EDB50E0EC1DF0030E4D
:1025A000EF6E010EDB2AEED7010EE552E552F5EF94
:1025B00019F001EC1DF0FB0EDB50030811E0FB0EDF
:1025C00004EC1DF002E2E16AE552E16E17500001F1
:1025D0008C6B1DEC1AF002E2E16AE552E16E1450D8
:1025E000E7EC1EF0020EEF6EE7EC1AF00FEC1CF0B9
:1025F000C3EC1CF0E7EC1AF0020EB7EC1EF0A6ECF0
:1026000019F0FC0EDBCFEFFFA6EC19F0FD0EDBCFCF
:10261000EFFFE7EC1AF0030EB7EC1EF0E7EC1AF050
:10262000030E6CEC1FF0E7EC1AF0050EB7EC1EF091
:10263000F5EC1EF0FD0EDBCFEFFF9FEC19F0FC0E6A
:10264000DBCFEFFF08EC1EF0A5EC1BF060EC1AF0FE
:10265000E552F5EF19F001EC1DF0D9EC1AF0C8ECD9
:1026600019F002E2E16AE552E16E17500A0EDF5CF2
:102670000DE238EC1CF003E1FD0EDB50151806E00E
:10268000E0EC1AF0C8EC19F0EFE2ECD70A0EDF5CD0
:1026900016E1D9EC1AF0C8EC19F002E2E16AE55251
:1026A000E16E17500A0EDF5C0AE2030E00018C5D3A
:1026B00006E0E0EC1AF0C8EC19F0F2E2EFD7EEEC2D
:1026C0001AF0DFCFEFFFDF6A030EDF5C05E2EAEC12
:1026D0001DF002E0DF2AF8D73BEC1BF0DFCFEFFF65
:1026E000140EB1EC1EF0FFEC19F0B7EC1AF002E199
:1026F000000E2DD0FC0EDBCF8AF0FD0EDBCF8BF071
:102700000001010E8C6F1DEC1AF002E2E16AE55245
:10271000E16E1450EAEC1EF0B4EC1DF0EF6849ECE9
:102720001AF0EAEC1EF057EC1AF0EEEC1AF0EF504B
:10273000E66EEAEC1EF0120E17EC1DF0EAEC1EF04D
:10274000A7EC1FF0EE6AED6A0A017583010EE552EF
:10275000F5EF19F0AAEC1FF0DE6ADD6AFD0EDB5022
:10276000050A1AE0010A15E0070A11E0010A0DE066
:10277000030A06E0010A12E13D0EDE6E140E03D0DC
:102780005D0EDE6E030EDD6E09D08D0E03D0150ECC
:1027900001D0010EDE6E01D0DE6ADD6ADECF14F0FC
:1027A000DDCF15F014C0F3FF15C0F4FFE552E5527C
:1027B000F5EF19F0AAEC1FF0D9EC1AF0010EDB6A64
:1027C000C8EC19F002E2E16AE552E16E175038EC0C
:1027D0001CF007E1FD0EDB50151803E1010EDF6E62
:1027E00007D0010EDB2A0001050E8F27000E902373
:1027F0000A0EA3EC1DF002E2DF50E2E0DF500BE036
:102800003BEC1BF08DC0EEFF8EC0EDFFEEEC1AF03E
:102810008CC0EFFF04D0EEEC1AF0030EEF6EDF5029
:10282000E552E552F5EF19F001EC1DF0FB0EDBCFA0
:10283000E6FFFC0EA7EC1AF010E04AEC1DF004E0F5
:1028400038EC1AF0000909E1EEEC1AF0FB0EDBCFD0
:10285000EEFFFC0EDBCFEDFF26D0800EE66E6AECBD
:102860001EF0D5CBE6FFD6CBE6FFE66AE66A3AD89D
:10287000146E070EE15C02E2E16AE5525CEC1BF0CB
:1028800023E0FA0EDB50020816E0E9EC1CF047ECFE
:102890001BF0E7EC1BF002E2E16AE5525CEC1BF096
:1028A00007E0DF5002E1000E1AD0FA0EDB6A0CD00E
:1028B000FA0EDB0409E1010EE66EFD0EDBCFE6FF4A
:1028C00078D8E552E5520BD047EC1BF004EC1BF036
:1028D00005E10B01D10E826F020E01D0000EE55210
:1028E000F5EF19F0AAEC1FF0E652020EDB6ADF6A80
:1028F000030EDF5C24E2EAEC1DF01AE0FD0EDB5073
:102900001CE0EAEC1EF0D0EC1DF0FC0EDB50145C79
:1029100014E1EAEC1EF0080EB2EC19F00AEC1CF01F
:10292000FA0EDB50151809E1FB0EDB50161805E115
:10293000010EF36E020EF3CFDBFFDF2AD9D7F70EBD
:10294000DBAE03D0DE520A0E02D0DE52040EDD6E84
:10295000020EDB5027E0020EDB6AD9EC1AF0010E02
:10296000DB50DF5C1FE2C8EC19F002E2E16AE552DD
:10297000E16E17508AC014F08BC015F0F80EDB50D2
:10298000141803E1F90EDB50151804E0030E0001E2
:102990008C5D05E1010EF36E020EF3CFDBFFE0EC80
:1029A0001AF0DDD7020EDB50E552E552E552F5EFA5
:1029B00019F0DAEC19F00B0EE12402E3E168E652BB
:1029C000E16E010EDB6A060EA3EC1DF008E2ADEC31
:1029D0001FF093EC1AF003E0010EDB2AF4D7010E8E
:1029E000DB50060801E157D10B0EB1EC1EF0ADEC47
:1029F0001FF0D3EC1CF0B7EC1AF001E14CD1FD0E46
:102A0000DB5001E18CD0B8EC1CF0BDEC1FF0AFEC5A
:102A10001BF0B8EC1CF0050E60EC1EF00B01A7518A
:102A2000166E176A7F0ED8801656000E1756080EBF
:102A30001626000E17220B01A65100011624146E53
:102A4000000E1720156EF2EC1EF014C0EFFFF2EC32
:102A50001EF0F5EC1AF001E115D1B8EC1CF0D6EC43
:102A60001BF0F3500809B4EC1EF001E3DB2AFBEC89
:102A700019F00B018351E824B4EC1EF001E3DB2ACA
:102A800099EC1FF001E3DB2A92CBEFFFAAEC19F0DF
:102A900001E3DB2A93CBEFFFAAEC19F001E3DB2A79
:102AA000D5CBEFFFAAEC19F001E3DB2AD6CBEFFF81
:102AB000040E8ACBDBFFAAEC19F001E3DB2A040E3B
:102AC000DBCFEFFFAAEC19F001E3DB2A9CCBEFFF91
:102AD0000B01A751A0EC1BF004E67F0E145C000E66
:102AE00015580BE2A72BA751ACEC1AF0AAEC19F081
:102AF00001E3DB2AFBEC19F0EBD7DF6A0B01A651EF
:102B0000A607000901E17DD0DF50DF2AACEC1AF006
:102B1000AAEC19F001E3DB2AFBEC19F0EFD7040E65
:102B20000B01845F000E855BB8EC1CF0BDEC1FF060
:102B300087EC1CF08407855BF9EC1BF0E66E49EC32
:102B40001FF0EE52FBEC19F08407000E855BF9ECE8
:102B50001BF0E66EB8EC1CF0050E17EC1DF0020E33
:102B6000845F000E855B080E8227F2EC1EF082CB9C
:102B7000EFFFF2EC1EF0F5EC1AF001E183D0B8ECB7
:102B80001CF0D6EC1BF0F3CF14F0F3CFE6FFCAD95C
:102B9000E552E7CF14F03F0B1410B4EC1EF001E344
:102BA000DB2A14EC1DF001E3DB2A14EC1DF001E339
:102BB000DB2A14EC1DF001E3DB2A14EC1DF001E329
:102BC000DB2A14EC1DF001E3DB2AFBEC19F0AAD997
:102BD000FF0FE76E040EE7CFDBFFBCDB01E3DB2A70
:102BE000040EDBCFEFFFFEEC1EF001E3DB2AFBEC73
:102BF00019F00B01825105E0FEEC1EF0F8E3DB2A30
:102C0000F6D749EC1AF0B8EC1CF065EC1FF057EC65
:102C10001AF0D950060F44EC1AF0D950050F44ECC5
:102C20001AF0B8EC1CF0050E34EC1DF0F0EC1BF0C3
:102C300002E2E16AE5525CEC1BF021E004EC1CF0DE
:102C40000B01A66B0E0EB1EC1EF0050EDEEC1CF0B7
:102C50008DEC1EF071EC1EF0145015101EE10001F9
:102C6000010E8C6FEADB02E2E16AE552E16E14507C
:102C7000050EE1EC1CF0A4DB050E60EC1BF0B8ECDB
:102C80001CF09EDBADEC1FF0D3EC1CF099DBADEC3F
:102C90001FF097EC1AF0040E8DD0050E3FEC1FF0DC
:102CA0008CCAEFFF050E42EC1DF0AFEC1BF0050ED9
:102CB00067EC1EF0050E01EC1FF00409EF6E050E27
:102CC000CBEC1CF0EF9646DB01E3DB2A010EEF6E46
:102CD00041DB01E3DB2A800EEF6E0A018C518C2B65
:102CE000B4EC1EF001E3DB2A86DB49EC1FF0EF5069
:102CF000B4EC1EF001E3DB2A7EDB49EC1FF00FECA5
:102D00001CF028DB01E3DB2A99EC1FF001E3DB2A4E
:102D1000EF6AB4EC1BF01EDB01E3DB2A99EC1FF039
:102D200001E3DB2A040EDBCFEFFF14DB01E3DB2A38
:102D3000D6CBEFFF0FDB01E3DB2AD5CBEFFF0ADBBE
:102D400001E3DB2AEF6806DB01E3DB2AFC0EEF6E12
:102D500001DB01E3DB2AEF6AFDDA01E3DB2A090E7E
:102D6000EF6E5EEC6BF0070E06C0DBFF080E07C0CF
:102D7000DBFF090E08C0DBFF0A0E09C0DBFF070EF0
:102D8000DBCF14F0080EDBCF15F0090EDBCF16F009
:102D90000A0EDBCF17F0040E145E5D0E155A000EFE
:102DA000165A175A050E3EEC1DF093EC1BF017C097
:102DB000EEFF010E146E0B0EE15C02E2E16AE552D9
:102DC000E16E145012D3F6DAF90EDB503DE07BECE5
:102DD0001CF0FA0EDBCF16F0FB0EDBCF17F016500F
:102DE000145C1750155832E2FA0EDBCF18F0FB0EC8
:102DF000DBCF19F0FC0EDBCF1CF0FD0EDBCF1DF09E
:102E000018C0E6FF19C0E6FF1CC0E6FF1DC0E6FFC4
:102E1000F90EDB04E66E9EDCE552E552E7CF1DF0CD
:102E2000E552E7CF1CF0E552E7CF19F0E552E7CFC6
:102E300018F01C50F3241A6E1D50F4201B6E1A500B
:102E4000185C1B50195802E2010E01D0000ECDD2C1
:102E500001EC1DF0DF6A180EDF5C1DE2DF505BEC59
:102E60001DF002E2E16AE552E16E17500B018A5152
:102E7000000172190EE10B018B510001731909E178
:102E8000FD0E57DA150E6EDADF50E0EC1DF0EF9014
:102E900002D0DF2AE0D7E552A8D20A01742B745180
:102EA00001E1742B7451120001EC1DF0000191EC52
:102EB0001CF0DF6A40DB180EDF5C09E2DCDA02E2BC
:102EC000E16AE552E16E14502AEC1EF0F4D70001DD
:102ED0007D6B856B866B87913C0E7B6FA50E7C6F3F
:102EE000B4DA02E2E16AE552E16E1450E5527DD2B5
:102EF00001EC1DF00001030E8C6F8A698B690001E3
:102F00005D0E8F6FC90E906FDF6A0A0EDF5C08E2FC
:102F100094DA02E2E16AE552E16E145051DBF5D732
:102F2000E55263D20B01825101E1000C820784CB90
:102F3000E9FF85CBEAFF842B000E8523EF501200BA
:102F4000E2EC1EF0180EDF5C15E210DA02E2E16A34
:102F5000E552E0EC1BF079A30AD070EC1DF0BDDB6C
:102F600002E2E16AE552A8DB02E1DF5004D02AEC7C
:102F70001EF0E8D7180EE55238D2E2EC1EF0180E1B
:102F8000DF5C14E2F3D902E2E16AE552E0EC1BF007
:102F900079A309D040EC1CF006E1FD0EDB501518BA
:102FA00002E1DF5004D02AEC1EF0E9D7180EE552FA
:102FB0001CD2E2EC1EF0180EDF5C20E2D7D902E250
:102FC000E16AE552E0EC1BF079A315D040EC1CF06F
:102FD00012E1FD0EDB5015180EE174C016F075C03D
:102FE00017F0FA0EDB50161806E1FB0EDB5017182F
:102FF00002E1DF5004D02AEC1EF0DDD7180EE552B6
:10300000F4D1D8D9080EE12402E3E168E652E16E7A
:1030100082DAE9EC1CF0EEEC1CF002E2E16AE55227
:10302000E16E1750080EE66EE66AE9EC1CF055DB1F
:1030300002E2E16AE55240DB02E1010E01D0000E3E
:10304000146E080EE15C02E2E16AE552E16E145092
:10305000CCD101EC1DF0DF6A6EDA180EDF5C1BE2EA
:1030600085D902E2E16AE552ABDB7951020B10E04F
:10307000FFD901080DE0FCD900090AE091EC1CF031
:1030800000017D07F8D902E2E16AE552E16E1450D1
:103090002AEC1EF0E2D7D9D902E2E16AE552E16EEC
:1030A0001450E552A2D186D90B01A9810B01020E61
:1030B000886FD3CB86FBD4CB87FBD5CB8AFBD6CB13
:1030C0008BFB896FD3CB9AFBD4CB9BFBFC0EDBCF66
:1030D00092FBFD0EDBCF93FBCEDAD0CBEFFFD0CB54
:1030E0009CFB856BD950FC0FE96EFF0EDA20EA6E6F
:1030F000FF0EEE1802E1FF0EED180CE08581FC0ECC
:10310000DBCFE6FFFD0E23DA05E0000179B102D046
:103110000B0185850B01010E846F67D14AEC1DF010
:1031200009E1000185070001C6DB010802E1000199
:10313000860765DB0001F5DB9ED902E2E16AE55214
:10314000E16E145000017D0780D902E2E16AE55288
:10315000E16E14501200E2EC1EF0180EDF5C1AE271
:1031600005D902E2E16AE5522BDB79A310D0FD0E0E
:10317000DB507A5D0CE10B0186510001741907E107
:103180000B0187510001751902E1010E04D02AECF0
:103190001EF0E3D7000EE55228D1AAEC1FF0DF6A3B
:1031A000CAD9010EDB6A180EA3EC1DF032E2DED89C
:1031B00002E2E16AE55204DB7951020B26E058D9BC
:1031C000010823E198DB7251141802E173511518BC
:1031D00014E000017E29E66E78EC1EF072C0E6FF76
:1031E00073C0E6FFF0DD166E050EE15C02E2E16AF7
:1031F000E552E16E1650000908E03DDA72C0EEFFBC
:1032000073C0EDFF010EDF6E04D09BD9010EDB2AE7
:10321000CAD7DF50E552E552E8D0CCD8FD0EDB50DE
:1032200026E00B01BE6B210EBF6F00017E51080D21
:10323000F3CFC0FB140E855D1AE2180E7D5D17E218
:103240000A017651080B06E1050E00017E5D02E2DF
:103250000B01C08F050E00017E5D09E2060E865D42
:1032600006E20A017651100B02E10B01C085BDD0C8
:10327000C8DBD6CF74FA0B01A96B0A017651200B7B
:1032800001E0010EDF6E756B766B776B786BDF504C
:10329000769BE8B0768BDF6A2E0EDF5C04E2D3DB30
:1032A000EF6ADF2AF9D7FD0EDB5006E10A01B351C0
:1032B000B41102E07BEC1FF00A01B36BB46BDF6A60
:1032C000070EDF5C10E2FD0EDB5008E188EC1EF01B
:1032D00005E0BFEC1EF074D884D872D882D8EE6AAC
:1032E000ED6ADF2AEDD7DF6A060EDF5C0EE2FD0E27
:1032F000DB5006E17FEC1EF003E019EC1FF060D814
:10330000EA6ADF3414D9DF2AEFD7DF6A030EDF5C05
:103310000DE2FD0EDB5005E1EAEC1DF002E06FD896
:103320004FD86DD8EE6AED6ADF2AF0D7E1DDE552BD
:103330005CD021DBC6EF1CF044DBC6EF1CF0A751CC
:10334000A70783EF1DF02FDBC6EF1CF0A651A62BBD
:1033500083EF1DF0020EDBCFE9FFDB2A030EDBCF8C
:10336000EAFF1200E926000EEA221200110EE66EB4
:10337000E66A88C014F089C015F0166A88C0E6FFB6
:1033800089C0E6FF16C0E6FF9DEC1FF0EEEF1CF0D3
:10339000050EE66EE66A8FC014F090C015F0166A4E
:1033A0008FC0E6FF90C0E6FF16C0E6FFF2EC1DF00E
:1033B000EEEF1CF00EDBE1CFD9FFE2CFDAFF120017
:1033C000EECFE6FFEFCFE6FFA7EF1DF0DF50040DD5
:1033D000F3CFE9FFF4CFEAFF990EE9260A0EEA22BD
:1033E0001200EA6ADF341EEF1FF0E552E5CFDAFF84
:1033F000E7CFD9FF1200E552E750EF6E1200EA6AFC
:10340000DF3426EF1FF0EECF18F0EECF19F0EECF3D
:103410001AF0EFCF1BF024DB00011850EE5C146EA5
:103420001950EE58156E1A50EE58166E1B50EE5885
:10343000176E1200030D23EF1EF0050EE66ED2DBB1
:103440008FC0E6FF90C0E6FF78D30D0EE66E7B0ED0
:10345000E66E000EE66EB80EE66EC70EE66E6DD333
:10346000FE0BEA36E96E180EE9260A0EEA22120071
:1034700078511BEF1EF0110EE66E9DEC1FF088C018
:10348000E6FF89C0E6FF59D3E66E000EDA20E66E4D
:1034900012005EEC6BF006C014F04AEF1EF0270E2F
:1034A000DBCFE9FFDB2A280EDBCFEAFF120006C0E4
:1034B000EEFF15C0EEFF16C0EEFF17C0EEFF1200C4
:1034C000F2DDA4EF1EF0160EDBCFE6FF170EDBCF0A
:1034D000E6FF1200EDEC67F0E552F7EF1DF0146E19
:1034E000000EDA20156E71EF1EF0DBCFF4FFF35003
:1034F000F45C120066DAEE50ED1012001450EE2467
:10350000E76E1550EE20EA6EE7CFE9FF1200A2EC5D
:103510001FF0EF501200080EE66EE66ADE0E146E23
:10352000C60EFCEF1DF03FDAEE50ED1012003BDA54
:10353000EE6AED6A12000001C50E886FC70E896F32
:1035400012000001110E8827000E89231200DBCF24
:10355000E6FFE8DB18081200D6DAEF50E66E12003C
:10356000040EDBCFE6FF050EDBCFE6FF1200D5DB56
:10357000145015101200FFD9EE6AED6A1200E9CF5F
:1035800014F0EACF15F00C0EDB50E0EF1DF07BECF1
:103590001FF00A01B36BB46B1200E7CFDBFFADEF96
:1035A0001EF00B01826B9CDA920EE66E0B0E99EF09
:1035B0001DF0DF6A00015D0E8F6FC90E906F120063
:1035C000DF2A0001050E8F27000E90231200F90E4E
:1035D000DBCFE9FFFA0EDBCFEAFF1200F80EDBCFFC
:1035E000E9FFF90EDBCFEAFF1200EF50E66EEDECDB
:1035F00067F0E552020EF3CFDBFF030EF4CFDBFFE3
:10360000F6DAF350F4101200C8DD9EDB0009120058
:103610000B01EA6A8425E96E8551EA22EF50120017
:10362000E66E8EDCE552E552120022DB0B01D5512D
:103630001418120077DCE66E1200EECF14F0EFCF14
:1036400015F00B01D551000114181200020EEECF37
:10365000DBFF030EEDCFDBFF1200160EDBCFEEFF1C
:10366000170EDBCFEDFF1200140EDBCFE6FF150EB9
:10367000DBCFE6FF1200FA0EDBCFE9FFFB0EDBCF5C
:10368000EAFF12000B0E77D9EE50ED101200F80E83
:10369000DBCFE6FFF90EDBCFE6FF6AEF1EF0156A1F
:1036A000166A176A1450151016101710120047DB0F
:1036B0001F0EDB5014181200E16E145000091200A6
:1036C00080D9EE6AED6A120084CBE6FF85CBE6FF77
:1036D0003EDA0B01846B856B12000ADB60EC6AF04A
:1036E000EAD3080E146E1A0EDBCFE7FF1450E7265C
:1036F0001A0EE7CFDBFF1200DF500A0D78DA910EC9
:103700001426C90E15221200EF50050D70DA5D0E59
:103710001426C90E15221200020E84CBDBFF030E05
:1037200085CBDBFF120014C0EEFF15C0EEFF16C004
:10373000EEFF1200EF50E66E0EDDE55200091200BA
:10374000146E156AD890155012008ACBE6FF8BCB09
:10375000E6FF1200DF50DF2A146E156A1200D5CB87
:10376000EEFFD6CBEDFF12004DEC17F0E66E120027
:10377000DBCFE6FF010EE66E72EC14F0146E070E5E
:10378000E15C120014C0E6FF15C0E6FF8EEC61F0AC
:10379000166E050EE15C1200140EDBCF14F0150E50
:1037A000DBCF15F00B01D55114181200020EDBCF40
:1037B000EEFF030EDBCFEDFFFC0EDB50400D1200E1
:1037C000E16E175000011200030D0A013CD2DAEC41
:1037D00013F071D3D9EC12F0146E050EE15C1200F7
:1037E0002BEC13F068D37DEC12F0E552E5520009A2
:1037F000120084CBE9FF85CBEAFFEF501200010EE7
:10380000E66E0BDDE55212000B01A9910B017F0E54
:10381000A76F1200EECF15F0EFCF16F01200EE52A8
:10382000EF50E66E1200170EDBCFEFFF1200160E00
:10383000DBCFEFFF1200DF50146E156A060E145C2A
:10384000000E155812006EDADF6E180EDF5C1200E3
:10385000166A14C0E6FF15C0E6FF16C0E6FF1200A8
:10386000DF50146E156A080E145C000E1558120015
:103870008AC014F08BC015F0FC0EDB501418120037
:1038800072C014F073C015F0FC0EDB501418120057
:10389000130EDBCFEFFF1200190EDBCFEFFF12008C
:1038A000040EDB68050EDB680A0EDB841200D950BB
:1038B000140FA2EF1FF07851300BE842E842E842C3
:1038C000E8421200090EEF6EE9EF1CF0140EDBCF98
:1038D000EEFF150EDBCFEDFF1200160EDBCF8AFBDD
:1038E000170EDBCF8BFB1200020EDBCFE9FF030EBE
:1038F000DBCFEAFF1200FC0EDBCF14F0FD0EDBCFB6
:1039000015F012000B01D6510001151812008ACBD8
:10391000EEFF8BCBEDFF1200070ED880DF54EA6A72
:103920001200766B776B786B796B12000B01A951E3
:10393000010B1200180EDB04E66E1200150EDBCF31
:10394000EFFF1200140EDBCFEFFF12000B0113DAB2
:10395000F6DC0A0EEF6ED6EF1EF0F1DC4ADAEFDC91
:10396000C5DAEDDC95DFEBDC120EDBCFEFFF1200EA
:10397000F4DAA3EF19F0EA6ADB3460D2F3DCEF503B
:10398000E66EBBEF1EF0E2DCFBEF19F0EE50EFCF7E
:10399000EAFFE96E1200D0DC130EB2EF19F0EA6A0A
:1039A000DF34A3EF19F0FE0BEA36E96E8D0EE9263F
:1039B0000A0EEA2212000B0E99EF19F0BDDCA7EFF8
:1039C0001FF0EA6ADB3442D2BADCEF6AA9DAE7EF29
:1039D0001EF0D9CFE6FFDACFE6FF1200D3EC6AF093
:1039E000176E070EE15C1200BFDE0B01C4D9A7DC25
:1039F000010EEF6EDBD99FEF19F0EF50BADADF2A34
:103A00001200D8DCE652120097DC120EABDCEF504D
:103A1000050DF3CF8FF0F4CF90F05D0E00018F27EE
:103A2000C90E9023C8EF19F0E6DCFEEF1EF09ADC19
:103A3000FBEF19F0250E28DA6ADF250E16DA210EC3
:103A4000DBCFEFFF120063DAEE52120078DC8ACB94
:103A5000EFFFACD99FEF19F085DCE1DEBBEF1EF084
:103A6000D950060FA2EF1FF07DDCEECFE6FFEFCFBF
:103A7000E6FF12005EDC42DDFBEF19F05DDC040EB8
:103A8000B2EF19F059DC080EB2EF19F0D950040F5B
:103A900044EF1AF00001ECDC01081200210EDBCF2C
:103AA000E7FF220EDB50E75E210EE7CFDBFFD950A8
:103AB0001C0F44EF1AF0110DF3CF88F0F4CF89F00A
:103AC000C50E00018827C70E8923B6EF19F049DA21
:103AD000EE68ED6812002DDC53DA82CBEFFF1200A6
:103AE000080EE66EE66A9DEF1FF0EA6ADB3430EFFF
:103AF0001AF01FDC42DAD0DE82CBE6FF6AEF1AF062
:103B000099DCC0EF1FF0EA6A000FE96E0B0EEA22A3
:103B10001200140EB2EF19F025DCEECF14F0EFCF47
:103B200015F01200B1DC1CDD60EF1AF0F4D9A7EF3C
:103B30001AF0E66EA8EC6AF0BED18EEC61F0146E5D
:103B4000050EE15C1200F36E010E75EF1AF05FECEA
:103B500068F0E552E552120099EC19F0050EB2EC4E
:103B600019F07BDD9AEF1CF0100EB2EF19F099EC12
:103B700019F00A0EB2EC19F0120EDBCFEFFF1200B3
:103B8000330E9CEC19F0120EB2EC19F084EF1BF01E
:103B9000150EB2EC19F0BFEF1AF0EFD91DEF1BF0C4
:103BA0000E0EB2EC19F0EFCF14F012000B019FECE7
:103BB00019F04CEF1CF08A0EE66E0B0E10EF1BF0A6
:103BC000E924E96E000EEA20EA6E1200D9500A0FCD
:103BD00087EF1AF014DCEE50ED101200DBCFE6FF99
:103BE00063EF1AF08A0EE66E000EE66E1200F3CF57
:103BF00014F0F4CF15F01200156E166A14C0E6FF2B
:103C0000E66E16C0E6FF1200ACD9FF0EEE181200E9
:103C10009FEC19F0EF6A9FEC19F062EF1CF099EC41
:103C200019F0090EB2EC19F048EF1CF099EC19F0FC
:103C30004CD966EF1CF0C00BE842E842E842E8428B
:103C4000E842E8421200B351F324E96EB451F42083
:103C5000EA6E1200DF2AA1EF1AF037D9EFCF9CFBF2
:103C60000B011200E0EC19F0EA6ADF3497EF1AF06A
:103C7000160EDBCF14F0170EDBCF15F01200D95063
:103C8000120F45DC030B01081200D9501C0F27DC72
:103C9000AAEF19F007C015F008C016F009C017F018
:103CA00012007715F310776F010E08EF1BF03DD966
:103CB0009AEF1BF0920EE66E0B0EB2DCDF6E120076
:103CC000B2EC19F092CBEEFF93CBEDFF1200CDD802
:103CD000EF6A1200FB0EDBCFE6FFFC0EDBCFE6FF48
:103CE0001200020E14C0DBFF030E15C0DBFF120032
:103CF000FC0EDBCFE6FFFD0EDBCFE6FF1200EA6A2B
:103D0000DF3493EF1AF0EA22FBEC19F0DF2A1200FD
:103D1000F1EC19F0EE50ED101200F3CFEEFF15C0EC
:103D2000EDFF1200BDEC17F0E552E552120044EC35
:103D30001AF0F3EF1BF099EC19F0B7EF1AF0D5CBAE
:103D400014F0D6CB15F01200E552E552E552E552DB
:103D50001200010EDB041AEF1AF092EC17F0E76E76
:103D60001200E66E6AEF1AF0E66EAAEF19F0B2ECF6
:103D700019F0C9EF1FF09FEC19F0FBEF19F0F1EC0F
:103D800019F0C6EF1CF0EF50E66E0B01C3EF1CF00C
:103D9000DBCFE6FF220EDB50E552E75CE66E250E38
:103DA0009CEC19F0110E43DE57EF1BF09FEC19F05D
:103DB000D6CBEFFF9FEC19F0D5CBEFFF1200E9D87F
:103DC000AAEF19F01EDE9BEC1AF0DF6A12000B015D
:103DD000A6EF19F0FFEC19F0C6EF1CF0ECDD99DE50
:103DE000EF501200C5DDC0EF1FF0BEDCAFDD9FEF6E
:103DF00019F019DD9FEC19F017EF1CF01BDCAAEF8E
:103E000019F0C9DDF80EEF141200B8DDDDDD030E88
:103E1000EF6EA6EC19F0EF6A1200E6EC19F0020E54
:103E200012004B0E99EF19F049EC1AF0ACD857EF8D
:103E30001AF0ACD8EA6ADF34D3EF1CF0FE0BEA3696
:103E4000E96E790EE9260A0EEA221200FE0BEA3626
:103E5000E96ED20EE9260A0EEA221200ACDD0B0E44
:103E6000B2EF19F0A8DDBDEF1FF09CEC19F00F0EBA
:103E7000B2EF19F09CEC19F0110EB2EF19F09CECB6
:103E800019F00E0EB2EF19F09CEC19F00A0EB2EF19
:103E900019F06EDD050EB2EF19F06DDDE0EF19F0EF
:103EA0006DDDDBEF1CF08ADDEE50ED1012000E0E22
:103EB00072DDEF501200146E060EE15C1200ACECE5
:103EC0001AF048DC4B0E3AEF1DF0070EB2EF19F076
:103ED00066DD5CDD2DEF1EF0B2EC19F0A0DCC3EF67
:103EE0001CF0D4DD34EC1BF004EF1BF027DD9FEC5D
:103EF00019F0A2EF1CF0B3CAE6FFB4CAE6FFA7EFC1
:103F00001DF059DDC8EF1DF04ADDCDEF1DF0EA6A66
:103F1000DF3430EF1AF01F0EDBCFE6FF200E120069
:103F20009FEC19F0090EEF6E12000A01B1511AEF61
:103F30001AF0FBEC19F0AAEF19F06A0EE66E000E0B
:103F4000E66E1200E96E000EDA20EA6E12000C0E28
:103F5000B2EF19F056DDE6521200010EEA6ADB34C8
:103F600012005BDFB2EF19F021DEE4DC04DFADEF1D
:103F70001CF0E66E0B01BBEF1EF0030EB2EF19F062
:103F8000020EB2EF19F017DDB4EF1DF008DDE0EF1F
:0A3F900019F0EF50E66EC3EF1CF0CD
:063F9A00040E0F010715E3
:103FA00001E1000C010C0F01076B086B006B016B4A
:103FB000026B036B046B056B12007DEC30F03F0E5F
:103FC000E12402E3E168E652E16EDF6AFD0EDB50B8
:103FD00002E070EF24F05EEC6BF0020E06C0DBFF37
:103FE000030E07C0DBFF040E08C0DBFF050E09C08F
:103FF000DBFF0B01A9B141D20F0107A1E9D20251A8
:10400000031101E152D137EC34F0200B0EE196ECB4
:1040100033F0D0EC30F009E350EC30F0F80EEF1450
:104020000109EF6E50EC30F0EF8A37EC34F0200BE2
:104030002FE037EC34F0070B01082AE196EC33F05F
:10404000200EEB50000905E1850EE66EE7EC32F03C
:1040500007D08EEC33F006E0850EE66E7FEC33F091
:1040600050EC32F069EC31F06CEC31F002E016EC1F
:1040700035F070EC31F06CEC31F002E01DEC35F015
:1040800093EC34F0079150EC30F0EF9A6DEF24F0A0
:1040900002EC35F0010B01E108D102EC35F0040B24
:1040A00001E003D105EC35F0080B01E0FED002EC95
:1040B00035F0200B01E0F9D005EC35F0100B01E0F4
:1040C000F4D0B8EC33F0EF86BBEC33F0EF8427ECA0
:1040D00032F0EB50146E190EEB50145C01E3D1D0AA
:1040E00070EC31F0A6EC30F027EC32F096EC31F0C9
:1040F000060EEECFDBFF070EEDCFDBFF9BEC33F0C0
:104100003BEC33F001E3B4D004EC32F0A6EC30F039
:104110009BEC33F01A0E96EC31F0080EEECFDBFF7D
:10412000090EEDCFDBFF02EC35F0800B01E0BDD0D6
:10413000060EDBCF14F0070EDBCF15F0080EDB50B8
:10414000141801E08FD0090EDB50151801E08AD059
:10415000C1EC34F014E1080EDBCF14F0090EDBCF14
:1041600015F00F013D5114180AE13E51151807E1F1
:104170009BEC33F01A0E9FEC31F01D0E2BD037EC78
:1041800034F0100B2AE0060EDBCF08F0070EDBCF71
:1041900009F00A0E08C0DBFF0B0E09C0DBFFC1EC03
:1041A00034F006E0D9EC34F02AEC32F008E205D025
:1041B000D9EC34F0BAEC31F002E2E16AE552E16E9A
:1041C0001450B8EC33F0EF8C96EC33F01D0EA2ECEB
:1041D00031F01A0E24EC35F045D0F6EC31F021EC3C
:1041E00034F005E296EC33F00CEC35F0F8D7B4EC93
:1041F00030F03CEC35F0060EDBCFEFFF070EBEECE7
:1042000033F021EC34F003E26AEC35F0FAD7B9EC84
:1042100030F04DEC30F0F8EC32F096EC33F0160E56
:1042200006CFEBFF96EC33F01D0E9FEC31F0060E3F
:1042300073EC31F0C1EC34F006E0210E9FEC34F069
:10424000145C0AE306D0220E9FEC34F0FF0F145CDE
:1042500003E350EC30F0EF869BEC33F01A0E9FEC4A
:1042600031F008D19BEC33F01A0E24EC35F046D730
:104270009BEC33F030EC32F027EC32F024EC35F0EC
:1042800026D7B8EC33F0EF8ABBEC33F0EF88B8EC0C
:1042900033F0EF96BBEC33F0EF9427EC32F0A0EC68
:1042A00033F0EF6AB8EC33F0EF908EEC33F001E1CD
:1042B00007D105EC35F0010B01E102D102EC35F03C
:1042C000080B01E0FDD005EC35F0040B01E0F8D05F
:1042D00002EC35F0100B01E0F3D005EC35F0200BCB
:1042E00001E0EED0B8EC33F0EF84BBEC33F0EF86B6
:1042F00034EC32F0EB50146E190EEB50145C01E309
:10430000CED0C0EC31F0A6EC30F034EC32F096ECCC
:1043100031F00E0EEECFDBFF0F0EEDCFDBFF96EC94
:1043200033F03BEC33F001E3B1D069EC31F0A6ECB3
:1043300030F096EC33F01A0E96EC31F00C0EEECF16
:10434000DBFF0D0EEDCFDBFF05EC35F0800B01E060
:1043500094D042EC33F00E0EDB50141801E090D0F4
:104360000F0EDB50151801E08BD0C5EC34F010E1D6
:1043700042EC33F00F013B5114180AE13C5115187F
:1043800007E196EC33F01A0EA2EC31F01D0E2BD0A3
:104390008FEC34F0100B2AE00E0EDBCF08F00F0E7E
:1043A000DBCF09F0100E08C0DBFF110E09C0DBFFE8
:1043B000C5EC34F006E0E2EC34F02AEC32F008E22E
:1043C00005D0E2EC34F0BAEC31F002E2E16AE552F9
:1043D000E16E1450BBEC33F0EF8C9BEC33F01D0E10
:1043E0009FEC31F01A0E24EC35F04AD0F6EC31F0A7
:1043F00021EC34F005E29BEC33F00CEC35F0F8D70F
:10440000B9EC30F03CEC35F00E0EDBCFEFFF0F0EC9
:10441000BEEC33F021EC34F003E211EC35F0FAD7C6
:10442000B4EC30F04DEC30F0F8EC32F09BEC33F0C3
:10443000160E06CFEBFF9BEC33F01D0EA2EC31F015
:10444000060E73EC31F0C5EC34F006E0210EA2EC60
:1044500034F0145C0AE306D0220EA2EC34F0FF0F15
:10446000145C03E353EC30F0EF8696EC33F01A0E55
:10447000A2EC31F03FEC35F088D1000E95EF29F039
:1044800096EC33F01A0E24EC35F049D796EC33F065
:1044900030EC32F034EC32F024EC35F029D7B8ECC3
:1044A00033F0EF88BBEC33F0EF8AB8EC33F0EF94E5
:1044B000BBEC33F0EF9634EC32F0A0EC33F0EF6A63
:1044C00002EC35F0100B01E183D002EC35F0200B4B
:1044D00001E17ED005EC35F0100B01E179D005EC5F
:1044E00035F0200B75E005EC35F0400B71E002EC87
:1044F00035F0400B6DE037EC34F0200B11E002ECAE
:1045000035F0400B0DE057EC32F0E66EE7EC32F0A0
:1045100050EC32F050EC30F0EF9A96EC33F014D0CF
:104520008FEC34F0200B15E005EC35F0400B11E07A
:104530005BEC32F0E66E7FEC33F050EC32F053EC93
:1045400030F0EF9A9BEC33F0200EDAEC31F0EF6EA6
:10455000C4D1BBEC33F0EF9CB8EC33F0EF9C69ECCA
:1045600031F06CEC31F002E016EC35F070EC31F02B
:104570006CEC31F002E01DEC35F093EC34F004EC1F
:1045800032F06CEC31F009E004EC32F009EC34F07C
:1045900004EC32F0EB6A130EEB6AC0EC31F06CEC19
:1045A00031F009E0C0EC31F009EC34F0C0EC31F04E
:1045B000EB6A150EEB6A7FEC33F0C8EC30F00F01BC
:1045C000046B056B0051011102E099EC34F0079186
:1045D0000F0107A5DDD0025103115DE037EC34F087
:1045E000400B59E037EC34F0100B21E0140E3DCFB6
:1045F000DBFF150E3ECFDBFF97EC35F0140EDBCF63
:10460000E6FF150EDBCFE6FF9CEC35F0BAEC31F09F
:1046100002E2E16AE5527BEC32F003E0B8EC33F001
:10462000EF82B8EC33F0EF8096EC33F06CD0F6EC20
:1046300031F021EC34F003E211EC35F0FAD7B4ECB0
:1046400030F0B2EC33F0120E3DCFDBFF130E3ECF55
:10465000DBFF4DEC30F0120EDBCFEFFF4DEC30F016
:10466000130EDBCFEFFF4DEC30F0ECEC32F021EC31
:1046700034F003E26AEC35F0FAD7B9EC30F0B2EC82
:1046800033F096EC33F024EC34F050EC30F0EF9C47
:1046900096EC33F076D00451051101E178D08FEC1F
:1046A00034F0400B74E08FEC34F0100B31E0160E58
:1046B0003BCFDBFF170E3CCFDBFF96EC33F0EB502C
:1046C000E66E9BEC33F01EEC34F0160EDBCFE6FF0B
:1046D000170EDBCFE6FF9BEC33F0EB50E66E96EC6B
:1046E00033F01EEC34F0BAEC31F002E2E16AE5524C
:1046F0007BEC32F003E0BBEC33F0EF82BBEC33F049
:10470000EF809BEC33F0A1EC35F0EF9C95EF29F0B6
:10471000F6EC31F021EC34F005E29BEC33F00CECDC
:1047200035F0F8D7B9EC30F0B2EC33F0C0EC31F042
:10473000A0EC33F0180EEECFDBFF190EEDCFDBFF50
:104740001A0E3BCFDBFF1B0E3CCFDBFF4DEC30F0F6
:104750001A0EDBCFEFFF1B0EBEEC33F021EC34F072
:1047600003E211EC35F0FAD7B4EC30F0B2EC33F0F0
:104770009BEC33F024EC34F053EC30F0EF9C9BECEA
:1047800033F0210EE926000EEA22EF8E26D007959F
:1047900007A394EF29F078EC30F0100EA0EC33F082
:1047A000D0EC30F002E3850E61D04AEC35F0010B1D
:1047B00009E1010EE66EE5EC2FF0E552B5EC33F0C1
:1047C000EF800BD04AEC35F0020B0AE1E66AE5EC2B
:1047D0002FF0E552B5EC33F0EF824F0E95EF29F054
:1047E00078EC30F0140EA0EC33F0FF0EEE1802E17E
:1047F000FF0EED1802E194EF29F078EC30F0160E80
:10480000A0EC33F0FF0EEE1802E1FF0EED1802E10E
:1048100094EF29F04AEC35F0080B06E00B018051CB
:10482000811102E094EF29F01C0EDB6A4AEC35F0AE
:10483000040B0CE0CEEC33F02AEC32F002E2E16A39
:10484000E5527BEC32F016E0870E10D0CEEC33F060
:10485000BAEC31F002E2E16AE552E16E1450E76E23
:104860001D0EE7CFDBFFDB5005E0880EF36E1C0E5C
:10487000F3CFDBFF4AEC35F0080B13E04AEC35F0E0
:10488000040B01E0010EE66E1C0EDBCFE6FF22EC0E
:1048900030F0E552E552000902E0510E1AD0DF6A0D
:1048A00019D083EC34F01C0EDBCFEFFF78EC30F046
:1048B0001E0EEB500F01066F180E73EC31F04AEC30
:1048C00035F0040B02E0210E01D0220E87EC34F00B
:1048D0004F0EDF6E99EC34F00793DF5095EF29F01F
:1048E000FD0EDB505C0A02E185EF29F0070A02E1C8
:1048F00076EF29F0060A02E1A5EF28F0070A02E0A8
:1049000094EF29F00B019D51800B01E1FDD09C51EA
:1049100002E1800E9D1913E00F010751010B01E028
:10492000C8D0210E0B019C1901E0C3D0800E9D1947
:1049300001E0BFD00C01EF5101E1BBD0C8D01E0E89
:10494000DB6A0A0EA0EC30F0270EEFCFDBFF0B0E78
:10495000A0EC30F0280EEFCFDBFF020EA0EC30F021
:104960001F0EEFCFDBFF030EA0EC30F0200EEFCFD9
:10497000DBFF040EA0EC30F0210EEFCFDBFF050EC5
:10498000A0EC30F0220EEFCFDBFF060EA0EC30F0F3
:10499000230EEFCFDBFF070EA0EC30F0240EEFCF9D
:1049A000DBFF080EA0EC30F0250EEFCFDBFF090E89
:1049B000A0EC30F0260EEFCFDBFFD9501F0F7FECBD
:1049C00032F026E1010EDB6A21EC34F025E210EC36
:1049D00031F002E2E16AE552E16E175033EC33F058
:1049E000D9501F0F17EC32F002E2E16AE5527BEC7E
:1049F00032F00BE10A0EE66ED9501F0F3EEC31F09B
:104A000002E2E16AE552E16E1650010EDB2ADCD7C4
:104A1000D9501F0F9DEC32F00F010751020B45E0FA
:104A2000010E0B01A0EC30F0EF503FE133EC33F01E
:104A300078EC30F089EC33F084EC33F0020EDDECEE
:104A400031F002E2E16AE552E16E185000090DE131
:104A50000A0E0B0112EC34F0140E6FEC30F00B0E5A
:104A600012EC34F0140E5BEC34F033EC33F078ECF1
:104A700030F0A0EC33F067EC34F0020E0B01DDEC0B
:104A800031F002E2E16AE552E16E185000090DE1F1
:104A90000A0E0B0112EC34F0160E6FEC30F00B0E18
:104AA00012EC34F0160E5BEC34F01E0EDB5029E0F5
:104AB00049D30F010751010B0CE1220E0B019C1988
:104AC00008E1800E9D1905E10C01EF5102E0EF6B4A
:104AD00018D0220E0B019C1902E1800E9D1914E0E2
:104AE000210E9C1902E1800E9D190EE0220E9C19E8
:104AF00001E19D5109E0210E9C1903E1800E9D19F1
:104B000003E0510E95EF29F0F9EC3FF00F01066F2D
:104B1000300E0B019C1901E19D5101E108D3310ECA
:104B20009C1901E19D5101E102D3320E9C1901E172
:104B30009D5101E1FCD2330E9C1901E19D5101E12F
:104B4000F6D2350E9C1901E19D5101E1F0D2340EEF
:104B50009C1901E19D5101E1EAD2220E9C1901E16B
:104B60009D5101E1B2D2220E9C1902E1800E9D19E5
:104B700001E13FD2210E9C1902E1800E9D1901E155
:104B800017D2210E9C1901E19D5101E1E0D1200EC7
:104B90009C1901E19D5101E1D3D1130E9C1901E152
:104BA0009D5101E17CD1100E9C1901E19D5101E163
:104BB00064D1110E9C1901E19D5101E15ED1140EE9
:104BC0009C1901E19D5101E158D1060E9C1901E1AA
:104BD0009D5101E148D1050E9C1901E19D5101E172
:104BE0003BD1040E9C1901E19D5101E180D0030EDF
:104BF0009C1901E19D5163E0020E9C1901E19D5158
:104C000046E0010E9C1901E19D5138E09C5101E004
:104C100099D29D5101E096D2010EDB6A21EC34F06D
:104C200024E2010EE66EE66ADB50156ADE0F146EB2
:104C3000C60E0CEC34F0D950290F4DEC34F0EBECEF
:104C400033F002E2E16AE552E16E175063EC34F0B2
:104C50002A0EE7CFDBFFDB50F36E290EDB50F35C4F
:104C600001E070D2010EDB2AD9D7E66A800EE66E2B
:104C700066DBE552E5520B018C850ED1F4EC32F087
:104C800001E160D2010E2FEC33F059DBE2D0F4ECFD
:104C900032F001E157D22FEC35F00A0EE66EE66AEB
:104CA000520E146ED70E89EC30F002E2E16AE55242
:104CB000E16E19500A0E0B01A627020EC6D0F4ECC5
:104CC00032F001E13FD22FEC35F0020EE66EE66ADB
:104CD0005C0E146ED70E89EC30F002E2E16AE55208
:104CE000E16E1950020E0B01A627030EAED0F4ECB4
:104CF00032F001E127D263EC34F02B0EE7CFDBFF7B
:104D00000B01010EA66F2B0EDB50000801E393D0C0
:104D10002B0EDB50146E156A153404E21450F008A3
:104D2000000E155401E287D0010EDB6A300EE66EEC
:104D3000E66A010E08EC31F00B0EE66E0F0EE66E21
:104D4000EBEC33F002E2E16AE552E16E1750010E3E
:104D5000DB2A2B0EDB500F010B5D04E0010EDB5054
:104D60000308E4E2010EDB50030804E14DEC35F0EA
:104D7000830E64D04DEC35F0EF6AA4EC33F00F01F4
:104D80002651E824146E1151E824080F1424E66E0D
:104D90000B013CEC35F00BCFEFFF4DEC30F00CCFBE
:104DA000EFFF4DEC30F00DCFEFFF4DEC30F00ECFBC
:104DB000EFFF4DEC30F00FCFEFFF0F011051F00B74
:104DC000E842E842E842E842100D10510F0BF310A0
:104DD000E66E0B013CEC35F011CFEFFF0F011151E6
:104DE000A3EC32F0120EE66E0F0EA8EC31F002E2E8
:104DF000E16AE552E16E18500F011151020DF350B6
:104E00000B01A6274DEC30F026CFEFFF0F01265106
:104E1000A3EC32F0270EE66E0F0EA8EC31F002E2A2
:104E2000E16AE552E16E18500F012651020DF35070
:104E30000B01A62709D04DEC30F0820EEF6EA4ECEA
:104E400033F04DEC30F0EF6A040E2FEC33F0A5ECAC
:104E50002CF0E552E55220D0F4EC32F001E172D1B1
:104E6000C7EC2CF019D0F4EC32F001E16BD108EC76
:104E70002DF0000901E166D10FD0F4EC32F001E130
:104E800061D172EC30F0840EEF6EA4EC33F0ACEC38
:104E900032F0E66E39EC31F04F0EDF6E53D163EC39
:104EA00034F0340EF1EC30F0350EF1EC30F02C0E25
:104EB000F1EC30F02D0EF1EC30F02E0EF1EC30F084
:104EC0002F0EF1EC30F0300EF1EC30F0310EF1EC51
:104ED00030F0320EF1EC30F0330EE7CFDBFFD9507B
:104EE0002C0F7FEC32F027E1010EDB6A21EC34F06D
:104EF00001E328D110EC31F002E2E16AE552E16E03
:104F0000175033EC33F0D9502C0F17EC32F002E28B
:104F1000E16AE5527BEC32F00BE10A0EE66ED95005
:104F20002C0F3EEC31F002E2E16AE552E16E1650E0
:104F3000010EDB2ADBD7D9502C0F9DEC32F002D1C9
:104F4000000EE66EE66AB3DBE552E552FAD0030ED8
:104F5000885D0BE1D4EC31F001E1E7D0360E99C069
:104F6000DBFF370E9AC0DBFF06D0360E8ACBDBFFA5
:104F7000370E8BCBDBFFF6EC33F0010EE66E5CEC0C
:104F80002EF0166E060EE15C02E2E16AE552E16E79
:104F90001650000901E1C9D083EC34F086CBEFFF55
:104FA000360EDBCF8AFB370EDBCF8BFB210EBAD060
:104FB00092EC33F00CE034EC35F009E137EC33F0EF
:104FC00006E1EEEC34F003E0B8EC33F0EF8C8EEC5D
:104FD00033F001E1B7D06FEC35F001E0B3D00B0155
:104FE00037EC33F001E0AED0F8EC34F001E1AAD0B8
:104FF00066D092EC33F01AE034EC35F017E137EC80
:1050000033F014E137EC34F0800B10E0B8EC33F0FF
:10501000EF8050EC30F0EF9EF9EC3FF0000903E038
:1050200096EC33F01FD096EC33F022D08EEC33F0B8
:1050300022E09BEC33F0F1EC33F014181CE137EC78
:1050400033F019E18FEC34F0800B15E0BBEC33F05A
:10505000EF8053EC30F0EF9EF9EC3FF0000906E0F2
:105060009BEC33F03FEC35F0EF8205D09BEC33F056
:105070003FEC35F0EF9292EC33F010E034EC35F089
:105080000DE137EC33F00AE102EC35F0010B06E0FC
:10509000EEEC34F057E096EC33F013D08EEC33F0B6
:1050A00051E06FEC35F04EE10B0137EC33F04AE1A3
:1050B00005EC35F0010B46E0F8EC34F043E09BECF6
:1050C00033F03FEC35F0EF8C3DD0030E885D0AE104
:1050D000D4EC31F02AE0380E99C0DBFF390E9AC0CB
:1050E000DBFF06D0380E8ACBDBFF390E8BCBDBFF24
:1050F000F6EC33F0E66A5CEC2EF0166E060EE15C20
:1051000002E2E16AE552E16E165000090EE083EC1E
:1051100034F086CBEFFF380EDBCF8AFB390EDBCFC6
:105120008BFB220EE66E800E08D0DF6A0BD072EC8D
:1051300030F0840EEF6EACEC32F0E66E39EC31F00C
:105140004F0EDF6E56EC48F0EFD03C0EDB6A3D0EA2
:10515000DB6ADF6A230E19EC34F03A0EF3CFDBFF83
:105160003B0EC2EC30F001E1B5D0010EF36E3E0E05
:10517000F3CFDBFF74EC35F0040E81EC35F0040E58
:10518000DAEC31F06FEC30F0010EDB6A21EC34F038
:105190000AE2ABEC33F0AFEC30F00F0177EC34F017
:1051A00035EC31F0F3D7ABEC33F0170E81EC35F082
:1051B000100E81EC35F0B5EC32F0ABEC33F0180E9C
:1051C0006FEC30F063EC30F0180EEBEC34F00BE0E9
:1051D00063EC30F0180E70EC34F032E063EC30F039
:1051E000120E86EC32F0010EDB6A63EC30F0180E22
:1051F000A4EC35F003E2DEEC33F0F7D7ABEC33F0A0
:10520000190E6FEC30F063EC30F0190EEBEC34F06B
:1052100025E063EC30F0190E70EC34F01AE163EC29
:1052200030F0120E6CEC31F00BE063EC30F0120E4B
:1052300009EC34F063EC30F0120EEB6A130EEB6AFB
:1052400050EC33F0C8EC30F03A0EDB6A3B0EDB6A10
:1052500041D063EC30F0140E86EC32F0010EDB6AC4
:1052600063EC30F0190EA4EC35F003E2DEEC33F021
:10527000F7D763EC30F0A1EC35F0EF8863EC30F059
:1052800057EC33F063EC30F01C0E42EC35F01D0EA1
:1052900042EC35F01E0E42EC35F01B0E42EC35F0C0
:1052A00030EC32F063EC30F0CDEC30F0D6EC34F092
:1052B000200EA0EC33F0EF6A50EC33F0F8D9E55251
:1052C000E552DF6E0B017F0EA76F0B01A9910B0159
:1052D000A66B2AD00B01040E826F0B01A9910B0162
:1052E0007F0EA76F0B01A66B500E1BD037EC32F070
:1052F000030E5BEC33F002E2E16AE5527BEC32F044
:1053000002E0510E0ED0DF6A0FD037EC32F0020E01
:105310005BEC33F002E2E16AE5527BEC32F003E051
:10532000510EDF6E01D0DF6ADF50146E3F0EE15C7C
:1053300002E2E16AE552E16E1450A9EF30F052EC5E
:1053400034F0E652E65263EC34F0020EF1EC30F049
:10535000030EE7CFDBFF020EDB5008E13FEC34F039
:1053600002E2E16AE55250EC35F06AD0020EDB044D
:1053700063E13FEC34F002E2E16AE55250EC35F0D3
:105380004DEC30F085C0EFFF4DEC30F0030EDBCF7D
:10539000EFFF00018551F36E030E85EC35F050E20E
:1053A000DF6A010EDB6A0001C50E886FC70E896FC8
:1053B0002B0E86EC30F044E200018551DF5C40E2C8
:1053C000110EE66EE66A88C014F089C015F0166A00
:1053D00088C0E6FF89C0E6FF16C0E6FF6A0EE66EEB
:1053E000000EE66EEBEC33F002E2E16AE552E16EAC
:1053F00017500001110E8827000E892300017951F2
:10540000020BDEE07851C00BE842E842E842E84295
:10541000E842E8420108D4E1030EDB50DF5C0AE316
:105420004DEC35F072C0EFFF4DEC30F073C0EFFF84
:10543000010EDB2ADF2ABCD74DEC35F0800EEF6E73
:10544000A5EC34F039EC31F0040EE15C02E2E16AE3
:10545000E552E16EA9EF30F052EC34F0F9EC3FF098
:10546000DF6E63EC34F0010EE7CFDBFFC9EC34F004
:105470000B01D551141802E1D651151818E045EC6E
:1054800035F0FF0EEE1802E1FF0EED1810E045ECCE
:1054900035F0FC0EEE1802E1FF0EED1808E045ECC9
:1054A00035F0FD0EEE1805E1FF0EED1802E1010EDC
:1054B00001D0000EE552E552A9EF30F052EC34F085
:1054C000E652E652E652DE6ADD6A030EDB6A040E3D
:1054D000DB6ABAEC32F001E0C7D0230E19EC34F0ED
:1054E000030EF3CFDBFF040EC2EC30F001E1CDD0B0
:1054F0005CEC30F057EC33F05CEC30F0060EFEEC78
:1055000032F05CEC30F0160EA0EC33F006CFEFFF7B
:105510005CEC30F030EC32F05CEC30F01B0E38EC30
:1055200035F01C0E38EC35F01D0E38EC35F0CDECB6
:1055300030F0EF6AACEC34F05CEC30F0140EEB6A57
:10554000150EEB6AC9EC33F08AEC35F0DAEC31F089
:10555000CEEC34F0A6EC30F00001FC0E145CFF0E33
:1055600015585FE2020EDB6A080EA5EC31F00EE280
:10557000C9EC33F057EC35F0020EDB500F0177EC3D
:1055800034F008EC35F0020EDB2AEED7C9EC33F02C
:10559000170E8AEC35F0100E8AEC35F0B5EC32F0CF
:1055A000C9EC33F0180ECEEC34F0180EEBEC34F0FE
:1055B0000DE05CEC30F0180E30EC31F042EC32F0E3
:1055C00030E05CEC30F0120E04EC33F0020EDB6ADB
:1055D0005CEC30F0180EEBEC34F0A5EC31F003E2AB
:1055E000F5EC30F0F5D7C9EC33F0190ECEEC34F011
:1055F000190EEBEC34F025E05CEC30F0190E30ECD9
:1056000031F042EC32F018E15CEC30F0120E6CEC50
:1056100031F007E05CEC30F0120E09EC34F0ACEC49
:1056200034F0030EDBCFE6FF040ED2EC34F0030EB1
:10563000DB6A040EDB6A29D05CEC30F0140E04EC5B
:1056400033F0020EDB6A5CEC30F0190EEBEC34F058
:10565000A5EC31F003E2F5EC30F0F5D75CEC30F07E
:10566000A1EC35F0EF9811D0FC0EDBCF08F0FD0E69
:10567000DBCF09F0030E08C0DBFF040E09C0DBFF1F
:105680005CEC30F0A1EC35F0EF88030EDBCF14F0CA
:10569000040EDBCF15F014C0F3FF15C0F4FF050EA8
:1056A000E15C02E2E16AE552E16EA9EF30F07DECE7
:1056B00030F0080EE12402E3E168E652E16E860E66
:1056C000F36E070EF3CFDBFF030EDB6A92EC33F0D1
:1056D00017E14AEC32F0F3CF02FFF4CF03FF0F01E2
:1056E000F350F41001E1B3D0C3EC32F096EC33F098
:1056F000CCEC32F050EC30F0EF9A0F010781BED0C5
:1057000037EC34F0200B02E0000EB8D04AEC32F057
:10571000F3CF04FFF4CF05FFF350F41001E197D06D
:1057200096EC33F0100EA6EC30F09BEC33F0100E3C
:10573000A0EC33F05FEC32F001E089D0175015187F
:1057400001E085D0020EDB6A69EC31F00AEC33F03F
:1057500096EC33F0180EEB50A5EC31F033E2060E68
:10576000DB6AC0EC31F08EEC32F09BEC33F0190EBA
:1057700010EC33F024E22DEC34F032EC34F066EC33
:1057800032F05FEC32F018E11750151815E1070EF2
:10579000DB500DE0070EDB6A53EC30F0EF8C0F01AD
:1057A000078566EC32F0EECF3BFFEDCF3CFF96EC89
:1057B00033F0CDEC30F0EF2A22EC32F0D6D702EC09
:1057C00034F0C6D7860EF36E070EF3CFDBFF020E62
:1057D000DB6A70EC31F00AEC33F096EC33F0190E22
:1057E000EB50A5EC31F033E2060EDB6A04EC32F04C
:1057F0008EEC32F09BEC33F0180E10EC33F024E218
:1058000066EC32F032EC34F02DEC34F05FEC32F038
:1058100018E11750151815E1070EDB500DE0070EC3
:10582000DB6A50EC30F0EF8C0F0107852DEC34F083
:10583000EECF3DFFEDCF3EFF9BEC33F0CDEC30F0F3
:10584000EF2A22EC32F0D6D702EC34F0C6D792EC35
:1058500033F007E096EC33F014EC33F050EC30F01A
:10586000EF8A0451051107E09BEC33F014EC33F0A0
:1058700053EC30F0EF8A030EDB6ADB50146E080E37
:10588000E15C02E2E16AE552E16E1450A9EF30F00A
:1058900052EC34F0E652DF6ABAEC32F050E0FDEC44
:1058A00031F0210EEBEC34F0100B2FE00B018051A6
:1058B000811145E196EC32F0F350F41040E0010E16
:1058C00080CBDBFF020E81CBDBFFFDEC31F0160E4F
:1058D000EBEC34F0E66E010EDBCFE9FFDB2A020EC3
:1058E000DBCFEAFF01E3DB2A08EC35F0010EDBCF6A
:1058F000E9FF020EDBCFEAFFFB0E80EC31F0200E59
:105900009C6F800E9D6F510E19D083EC34F0FB0E0E
:10591000DBCFEFFFFDEC31F0160EA0EC33F0EFCF54
:1059200006FF200E87EC34F0FDEC31F0060EA0EC03
:1059300033F0EECF92FBEDCF93FB4F0EDF6EDF50D7
:10594000E552E552E552A9EF30F0D7DB0B01A98112
:1059500006CF00FB0B01020E896F030E885D08E184
:10596000D4EC31F009E099C092FB9AC093FB04D0CB
:105970008ACB92FB8BCB93FB0B011AEC33F09B6B26
:10598000FC0EDBCF9CFBFD0EDBCF9DFBE2D3B5DB3A
:10599000320EE12402E3E168E652E16E300E89CB7B
:1059A000DBFF2FEC35F079DB020EEF6E010EF36EAC
:1059B000310EF3CFDBFF030EF36E310E85EC35F0C5
:1059C00018E2300EE66EE66A310E08EC31F0D9CFFF
:1059D000E6FFDACFE6FFEBEC33F002E2E16AE552F4
:1059E000E16E17504DEC35F0DFCFEFFF310EDB2AC3
:1059F000E2D7050E87EC34F0300EDB5002E00B01ED
:105A00008C85320EE15C02E2E16AE552E16EA1D3DF
:105A100074DB110EE12402E3E168E652E16E0F0E41
:105A200089CBDBFFDF6A020EDB6A030EDB6A070E3F
:105A3000DB6A090EDB6A0A0EDB6A300E19EC34F001
:105A40000D0EF3CFDBFF0E0E9DDB01E101D163EC08
:105A500034F00B0EC6DB0C0EC4DB060EE7CFDBFF0B
:105A6000DB5020E0060E22EC33F0020EF3CFDBFF1A
:105A7000030E88DB01E1ECD0100EDB6A060EDB5072
:105A80006DEC32F00FE25FEC31F0D5EC32F008EC67
:105A900035F05FEC31F0D5EC32F0010E20DB100E6A
:105AA000DB2AECD763EC34F0080EE7CFDBFFDB50EA
:105AB0001EE0080E22EC33F0090EF3CFDBFF0A0ED6
:105AC00061DB01E1C5D0100EDB6A080EDB506DEC26
:105AD00032F00DE2F4DBDEEC32F008EC35F0EFDB17
:105AE000DEEC32F0010EFBDA100EDB2AEED7060EEA
